:020000040000FA
:060000000201070220BD11
:03002B00022303AA
:03003B0002232974
:030043000222DDB9
:0300530002213354
:10008300021F13E5C754F84401F5C77901220000A4
:100093000080FB120086B900030200F1E4791A78AC
:1000A30002B800028004F709D8FCE4791C7802B88E
:1000B30000028004F709D8FCE490020178D5791C8A
:1000C3008002F0A3D8FCD9FA7AD57B1D900137784A
:1000D300DB79018015E493A3AD82AE838A828B839F
:1000E300F0A3AA82AB838D828E83D8E9D9E7758288
:1000F300147583C674031201197582917583007494
:100103000012011975D00075814F75180175190218
:10011300759F00020096C09FF59FE473D09F22D085
:1001230083D082C09FE493C0E0740193C0E0740263
:1001330093F59F228B039703CD03C703FF0000B4FE
:10014300000028002800283075A000A000A000A00F
:100153000000080008E001F000100010001000107B
:10016300001000100050005000500010001000D08C
:10017300070000000000000F0001000500307507B4
:10018300001000010081FF00000000FFFFFF0202DA
:10019300020783010000F082020D830100002F1E7D
:1001A30002FD820100003802020D83010000301EAF
:1001B30002F9820100004E02FFFF0100FF20020747
:1001C30083010000F382020D830100005E1E02FB27
:1001D30082000000000002FF820300007A02170081
:1001E300AD0BAD0BAD0BAD0BAD0BAD0BAD0BAD0B4C
:1001F300AD0BAD0BAD0BAD0BAD0B8D0DAB0D870D7E
:1002030001E803057710020AFFFFFF00FEFF12015A
:10021300228CBA031201229FBA03120122C0BA032D
:100223001201222BBB031201226CBB031201228D8C
:10023300BB03120122CEBB0312012216BC0312011F
:100243002212A10312012225A10312012256A103A6
:1002530012012290A103120122E9A103120122300B
:10026300A20312012278A203120122A7A203120100
:1002730022D6A2031201220DA30312012254A303C7
:100283001201226DA303120122C2A303120122F061
:10029300A3031201222AA403120122F38B021201E7
:1002A30022F68C02120122238D02120122748D0286
:1002B300120122978D02120122A98D02120122AC92
:1002C3008D02120122EA8D021201225E8E021201B8
:1002D30022CA8E02120122928F02120122AE8F02D3
:1002E300120122E58F021201221F9002120122B68F
:1002F3009002120122089102120122399102120185
:10030300226A9102120122779102120122E19102E3
:10031300120122E491021201223B92021201223EB7
:1003230092021201227792021201227A92021201A0
:1003330022AE9202120122B192021201220593020D
:100343001201224E93021201225E930212012291A4
:1003530093021201229E9302120122A1930212011F
:10036300220994021201220B9502120122AF950277
:1003730012012218960212012256960212012248F5
:10038300B40212012245B502120122DBB5021201A9
:100393002226B6021201228AB60212012214B702E1
:1003A300120122CDB702120122EFBA021201226C0E
:1003B300BC021201228FBC021201224889031201DE
:1003C30022ED8A031201220D8B031201222E8C03CC
:1003D300120122818C03120122A89103120122D05F
:1003E3009103120122FD910312012235920312019E
:1003F30022939203120122DF9203120122469303F6
:10040300120122869303120122C39303120122F1E4
:1004130093031201229B9403120122A59403120158
:1004230022B29403120122E59403120122F19403F0
:10043300120122099503120122139503120122834B
:10044300C30312012291C303120122A9C3031201A0
:1004530022C1C303120122D8C303120122FAD50118
:10046300120122A4D60112012220D7011201223E39
:10047300D8011201227AD80112012215D9011201E1
:1004830022F9D901120122BCDA0112012234DB0163
:10049300120122C2DC0112012233DD01120122ED1D
:1004A300DD01120122DFDE011201221FDF01120131
:1004B30022D3DF0112012205E001120122FBE10137
:1004C3001201223DE2011201225BE201120122E04C
:1004D300E201120122A4E301120122C3E501120188
:1004E300228E9903120122A49903120122C29903B5
:1004F300120122D39A03120122DD9A031201220868
:100503009C03120122FF9C031201226C9D03120122
:10051300225DF10212012201F20212012238F202DB
:100523001201228FF202120122A4F40212012210FC
:100533009901120122C19901120122D699011201D6
:1005430022979A01120122F69A01120122CC9B01F1
:10055300120122BE9C01120122759D011201228308
:10056300A00112012272A20112012224A30112018D
:1005730022EDA30112012232A701120122DCA701FD
:1005830012012205A901120122C1AA01120122614D
:10059300AB01120122AFAB01120122EEAB0112013A
:1005A30022C1AC01120122F5AC0112012282AD017C
:1005B300120122C5C30112012251C401120122B545
:1005C300C501120122C1C501120122FCC50112019C
:1005D300226BC60112012274C7011201227DC801D8
:1005E30012012244C901120122A1CA01120122BF30
:1005F300CA01120122DCCA01120122A7CB01120196
:1006030022CFCB0112012299CE011201229ECE01EB
:10061300120122B7D00112012205D1011201227564
:10062300D101120122B3D1011201228FD201120191
:10063300224FD3011201229BD3011201229ED30127
:10064300120122E2D3011201222AD40112012269EA
:10065300D4011201228BD401120122BFD401120151
:100663002222D50112012253EC021201225CEC0278
:100673001201226AEC02120122BDEC02120122DCF9
:10068300EC0212012221ED0212012265EE02120197
:100693002200EF0212012244EF021201226EEF0246
:1006A300120122DDEF0212012223F0021201229A2B
:1006B300F0021201224BF102120122A323001201C4
:1006C30022442400120122A024001201225D2500ED
:1006D300120122792600120122AB2600120122DA2E
:1006E3002600120122872800120122FE2A0012018D
:1006F300226E2D00120122602E00120122592F00BA
:1007030012012260310012012254340012012283AB
:100713003500120122873700120122973800120197
:1007230022263A00120122173B00120122653B00E8
:10073300120122D43B00120122F83B00120122498C
:100743003C00120122EA4000120122EB4100120197
:10075300224C42001201227742001201223D430043
:10076300120122A19503120122AB9503120122F07B
:100773009503120122049603120122949603120197
:1007830022BC9603120122F796031201222097033B
:10079300120122549703120122699703120122D4F2
:1007A3009703120122F597031201220998031201FC
:1007B300221E9803120122589803120122BD9803A6
:1007C3001201220099031201222A990312012266BF
:1007D300990312012275C0031201225DF401120173
:1007E3002240F501120122BBF501120122F6F501A7
:1007F30012012247F701120122D0F701120122E868
:10080300F9011201227AFC011201222CFD011201CD
:10081300224BFE01120122A4FE0112012230E70243
:1008230012012273E702120122F7E702120122CA20
:10083300E802120122A1EB0212012240AE031201CF
:1008430022EDAE03120122FAAF0312012239B003E3
:1008530012012293B0031201221EB7031201228157
:10086300B7031201221EB8031201224CB80312016E
:10087300226DB803120122A8B803120122C8B803DB
:1008830012012228FB02120122B4FB02120122737D
:10089300FC021201228BFD02120122A5FF021201AA
:1008A3002294AA02120122B9AA021201228DAB02DA
:1008B300120122FAAB0212012250AC02120122EC05
:1008C300AC0212012220AE02120122FBAE0212017F
:1008D300225AAF021201222BB002120122B7B00238
:1008E300120122BAB00212012204B10212012276CD
:1008F300B10212012221B20212012241B2021201FB
:100903002289B202120122A5B2021201221FB302EE
:100913001201222DB302120122BCB30212012225BD
:10092300B402120122B28403120122378503120199
:10093300227985031201225D8603120122CA8603EE
:100943001201220E87031201225287031201227F12
:100953008703120122A78703120122DF87031201F3
:10096300221D8803120122448803120122BE880338
:10097300120122088903120122EE5B00120122BB3D
:100983005D00120122A95F00120122FD5F00120126
:1009930022286000120122D66000120122066100A3
:1009A30012012235610012012248610012012289DD
:1009B3006100120122B561001201220362001201DB
:1009C300223A6200120122866200120122E56200CD
:1009D3001201227863001201226264001201225183
:1009E3006500120122316700120122506C001201CE
:1009F30022A96C00120122926E0012012261700082
:100A0300120122E37000120122317200120122420C
:100A13007200120122DEB003120122C9B1031201D6
:100A2300220CB2031201225BB203120122ACB20305
:100A3300120122FDB203120122A943001201222A4C
:100A43004400120122574400120122A04400120163
:100A530022A14500120122F045001201226C470039
:100A6300120122EE47001201224B48001201229E7E
:100A730048001201228D4900120122224B0012016B
:100A830022EC4B00120122FC4B00120122264C00E7
:100A9300120122294C001201220C4D00120122F7EF
:100AA3004D00120122A44E00120122014F00120137
:100AB300225A4F00120122BE4F001201226650003B
:100AC3001201220251001201228F5100120122044D
:100AD3005200120122605200120122BF5200120181
:100AE30022E65200120122A453001201229555005E
:100AF300120122DE55001201220E5600120122813C
:100B03005600120122075800120122B758001201A1
:100B130022DC58001201221B590012012230590015
:100B2300120122735900120122E359001201222DEE
:100B33005A00120122375B00120122B85B00120136
:100B430022D4A0021201221FA1021201222BA10210
:100B5300120122FFA10212012216A2021201225344
:100B6300A20212012284A202120122BCA2021201D9
:100B73002212A30212012228A30212012264A30259
:100B830012012277A3021201229EA302120122D292
:100B9300A302120122F8A40212012242A6021201A8
:100BA300223EA7021201225BA802120122F8FF01D2
:100BB30012012203E202120122B1E502120122E52F
:100BC300E602120122008002120122C382021201F4
:100BD30022C98202120122868502120122E08702C3
:100BE3001201220080031201229780031201225571
:100BF30081031201227F8103120122B583031201B3
:100C0300221283011201224D8301120122A18D01BF
:100C13001201220D8F011201220A90011201228F6B
:100C23009301120122759401120122C19401120150
:100C330022DB94011201221C950112012225950148
:100C4300120122D59501120122A59601120122EC6F
:100C53009601120122529701120122C49701120137
:100C63002227AB0312012204AC0312012248AC0376
:100C730012012282AC031201221AAD03120122894E
:100C8300AD0312012292AD031201229EAD031201A4
:100C930022B8AD03120122E2AD0312012212AE0308
:100CA300120122DDDB02120122EADB02120122041D
:100CB300DC0212012237DC0212012275DC0212016E
:100CC30022DADC02120122EFDC0212012206DD022B
:100CD30012012214DD0212012223DD021201223845
:100CE300DD021201224DDD0212012258DD02120142
:100CF3002264DD0212012271DD0212012280DD0273
:100D03001201228BDD02120122B0DD0212012254F4
:100D1300DE0212012269DE021201227EDE021201CC
:100D23002298DE02120122B5DE02120122D2DE0275
:100D3300120122DDDE0212012289DF021201226A80
:100D4300E0021201228FE0021201229AE002120154
:100D530022AFE002120122C3E00212012224E102C7
:100D63001201222AE10212012230E102120122368B
:100D7300E1021201224EE10212012281E10212017B
:100D8300227C96021201229E96021201226697028B
:100D9300120122209A02120122369B0212012257CB
:100DA3009C02120122319D02120122E09D021201D6
:100DB300226A720012012201730012012299730048
:100DC300120122897400120122C07400120122D37D
:100DD3007400120122417500120122DC7600120117
:100DE30022037700120122A57700120122DA77008D
:100DF300120122EB7700120122647800120122858E
:100E030078001201229D7800120122F57900120167
:100E130022FE7B001201224E7E00120122517F002E
:100E2300120122A07F00120122D0E501120122CD7E
:100E3300E601120122B8E701120122C2E701120101
:100E430022E4E701120122F0E70112012242E90143
:100E530012012271E901120122A1EA01120122E326
:100E6300EA011201220FEC01120122E5EC01120149
:100E73002237ED0112012296ED01120122CDED017F
:100E830012012208EE01120122A3F101120122BC78
:100E9300F1011201223EF2011201224CF201120170
:100EA30022A1F201120122AFF2011201221CF3016D
:100EB3001201228EF301120122D4F301120122D670
:100EC300B803120122FBB8031201226CB903120109
:100ED30022B2BD02120122BBBD02120122C4BD0215
:100EE300120122F5BE0212012214C1021201224A8A
:100EF300C10212012284C102120122BAC1021201EB
:100F030022F4C10212012228C20212012254C20297
:100F13001201229DC202120122D7C2021201221F14
:100F2300C30212012275C302120122AAC3021201D3
:100F33002205C4021201223FC40212012290C402FC
:100F4300120122C6C40212012200C5021201222389
:100F5300C5021201224DFF0112012279FF01120184
:100F630022D4FF01120122DEFF01120122EEFF0152
:100F730012012253F60212012292F60212012222D8
:100F8300F7021201226DF702120122ACF7021201DD
:100F93002205F80212012254F802120122ADF802CE
:100FA300120122BAF902120122B3FA02120122F04B
:100FB300FA0212012255C50312012278AE01120171
:100FC30022F8B0011201226CB201120122C9B2014E
:100FD30012012272B3011201226FB401120122F72E
:100FE300B40112012283B50112012224B8011201B6
:100FF3002295B80112012281B901120122BBB90164
:10100300120122FBB9011201229BBB01120122CC66
:10101300BB0112012221BC011201226EBC0112018B
:1010230022DFBC0112012202BD011201221CBD01FB
:1010330012012232BE0112012242BE01120122D349
:10104300BF01120122F3BF0112012229C0011201C3
:1010530022ADC10112012226C20112012265C20181
:1010630012012297C30112012251B503120122B5C5
:10107300B50312012264B60312012283B6031201DF
:1010830022D7B6031201223CC70312012267C6030B
:10109300120122A6C603120122ED7F00120122686B
:1010A300C40312012278C4031201228DC403120166
:1010B30022D6C40312012289C1031201220DC203E5
:1010C30012012273C203120122FBFF0112012276D5
:1010D3009D031201228D9D03120122069E0312011C
:1010E30022DB9E03120122ADA003120122EDA7030E
:1010F3001201227FA803120122FDA80312012284F8
:10110300A90312012216AA031201226DAA031201D6
:101113002277AA0312012286AA031201229CAA03A0
:10112300120122AFAA0312012210AB0312012224DF
:10113300AB0312012251BF03120122BBBF031201F1
:1011430022C6BF03120122D6BF03120122E1BF034D
:10115300120122FDBF03120122DFBD031201220887
:10116300BE0312012231BE03120122CABE031201C1
:10117300220CBF03120122B1C502120122BBC50218
:10118300120122FBC50212012244C6021201227E71
:10119300C602120122D4C602120122F3C6021201B0
:1011A3002278C90212012281C902120122D2C90284
:1011B300120122FBC90212012210CA02120122806B
:1011C300CA021201220ECB0212012252CB021201D9
:1011D300227ACB02120122F9CB021201223CCC0269
:1011E30012012279CC021201228BCC02120122AA13
:1011F300CC02120122B3CC0212012278CD021201D9
:101203002241BC0312012292BC031201221BBD0323
:1012130012012281BD0312012292A403120122BCF6
:10122300A403120122B6A503120122DBA5031201B6
:10123300227CA60312012202A7031201228CC203FD
:101243001201224FB30312012285B303120122BEFE
:10125300B30312012217B503120122DFC4031201E3
:1012630022F5C403120122FFC403120122B5C503F0
:10127300120122A4CD0212012261CE021201229C8C
:10128300CE02120122C4CE0212012226CF02120183
:101293002272CF02120122DDCF0212012259D002A3
:1012A30012012255D102120122DCD2021201225F65
:1012B300D302120122C3D302120122DAD302120192
:1012C30022D0D4021201221CD5021201228E8D03D8
:1012D300120122A38D03120122568E0312012296BC
:1012E3008E03120122AF8E03120122E28E0312013A
:1012F300222F8F03120122638F03120122A58F0372
:101303001201229B91031201227AD5021201227D3E
:10131300D60212012294D60212012211D80212011E
:1013230022AED9021201224BDA0212012289DA0219
:1013330012012292DA021201220DDB02120122E7CC
:10134300C603120122B0C60312012213C7031201FE
:1013530022DCFF02E066701008A3E066700A08A3AF
:10136300E066700408A3E06622C3E7960809E796DF
:101373000809E7960809E79622C3E09608A3E096D2
:1013830008A3E09608A3E09622C008C3E096F508F8
:1013930008A3E096420808A3E096420808A3E09653
:1013A30045087001D3D00822080808EAC0E0EBC062
:1013B300E086F0E7A4FA180986F0E7A42AFA1809E8
:1013C30086F0E7A42AFA180986F0E7A42AFA198610
:1013D300F0E7A4FBE5F02AFA190886F0E7A42BFB53
:1013E300E5F03AFA190886F0E7A42BFBE5F03AFAA0
:1013F30018180986F0E7A4C5F02BFBE43AFA19089C
:10140300E7C5F0C6A426F6E5F03BFBE43AFA1886F6
:10141300F0E7A4F6E5F00826F6E43B08F6E43A081C
:10142300F6D0E0FBD0E0FA22E4CFC0E0E4CEC0E0A7
:10143300E4CDC0E0E4CCC0E075F020E626F608E693
:1014430033F608E633F608E633F6181818EC33FCDF
:10145300ED33FDEE33FEEF33FFC3EC9709ED970950
:10146300EE9709EF97191919400FFFEC97FC09ED57
:1014730097FD09EE97FE191906D5F0BFECF709EDB4
:10148300F709EEF709EFF7191919D0E0FCD0E0FDE1
:10149300D0E0FED0E0FF226016080808C6C313C6DA
:1014A30018C613C618C613C618C613C6D5E0EA2253
:1014B3007009080808226016181818C6C333C6082E
:1014C300C633C608C633C608C633C6D5E0EA22E625
:1014D30027F60809E637F60809E637F60809E63776
:1014E300F622E026F608A3E036F608A3E036F6086F
:1014F300A3E036F622E026F008A3E036F008A3E0E6
:1015030036F008A3E036F022C3E697F60809E6971B
:10151300F60809E697F60809E697F622C3E096F07F
:1015230008A3E096F008A3E096F008A3E096F02263
:10153300E657F60809E657F60809E657F60809E6F6
:1015430057F622E056F608A3E056F608A3E056F64F
:1015530008A3E056F622E056F008A3E056F008A3ED
:10156300E056F008A3E056F022E066F608A3E06632
:10157300F608A3E066F608A3E066F622E0F608A301
:10158300E0F608A3E0F608A3E0F622E6F008A3E6F7
:10159300F008A3E6F008A3E6F022E0FAA3E0FBA339
:1015A300E0FCA3E0FD22EAF0A3EBF0A3ECF0A3ED53
:1015B300F022E0F8A3E0F9A3E0FAA3E0FB22E8F0CD
:1015C300A3E9F0A3EAF0A3EBF022CAC0E0E6F0A39C
:1015D30008DAFAD0E0FA22CAC0E0E0A3C582CCC59B
:1015E30082C583CDC583F0A3C582CCC582C583CD17
:1015F300C583DAE6D0E0CA22C3E498F8E499F91285
:10160300163C8026C3E49AFAE49BFBE920E7E9123F
:10161300163CE498F8E499F922C3E498F8E499F9BC
:1016230012163CE498F8E499F9C3E49AFAE49BFBB4
:1016330022EB20E7CFE920E7E0B90010BB0008E880
:101643008AF084F8AAF022E4FBC8FA22EB70227B2A
:1016530010C833C8C933C9335007C39AC3DBF280F8
:10166300069A50012ADBEAC833F4C8C933F4C9FA2D
:101673002275F008E4C833C8C933C933C99AC99B72
:101683005004C92AC93BD5F0ECFBC833F4C8E4C9FC
:10169300FA22600D08C6A2E713C618C613C6D5E022
:1016A300F322600C08C6C313C618C613C6D5E0F4EC
:1016B30022700422600D18C6C333C608C633C6D5CC
:1016C300E0F41822251810AF08F518400C151980FE
:1016D30008F51840021519D2AF2200C0D025181002
:1016E300AF08F518500C05198008F51850020519B4
:1016F300D2AFD0D0222518F58210AF08F518400CD0
:1017030015198008F51840021519D2AF85198322DF
:101713002518F582E43519F583222518F8E43519DF
:10172300F9222518FAE43519FB222518FCE43519AA
:10173300FD22E4732518C582C0E0E51934FFC58393
:10174300C0E0E518C3958224F810AF088583198596
:1017530082188008858319858218D2AFCEF0A3E55D
:1017630020F0A37808E608F0A3DEFAEFF0A3E58102
:1017730024FAF8E608F0A3E608F0A3E608F0A308C5
:1017830008E608F0A3E608F0A315811581D0E0FE72
:10179300D0E0F8158115811581E8C0E0EEC0E022A4
:1017A3002518C582C0E0E51934FFC583C0E0E518FC
:1017B300C3958224F910AF088583198582188008A0
:1017C300858319858218D2AFCEF0A3E520F0A378E4
:1017D30008E608F0A3DEFAEFF0A3E58124FBF8E6C0
:1017E30008F0A3E608F0A30808E608F0A3E608F06B
:1017F300A315811581D0E0FED0E0F815811581E8AD
:10180300C0E0EEC0E022851983851882E0A3FEE0E4
:10181300A3F5207808E0A3F608DFFAE0A3FFE0A32E
:10182300C0E0E0A3C0E0E0A3C0E0E0A3C0E0E0A329
:10183300C0E010AF08858218858319800885821857
:10184300858319D2AFD083D08202011F8519838586
:101853001882E0A3FEE0A3F5207808E0A3F608DFF2
:10186300FAE0A3FFE0A3C0E0E0A3C0E0E0A3C0E090
:10187300E0A3C0E010AF088582188583198008852E
:101883008218858319D2AFD083D08222C0D0251885
:10189300C582C0E0E51934FFC583C0E0E518C395F0
:1018A3008224F310AF088583198582188008858305
:1018B30019858218D2AFC8F0A3E9F0A3EAF0A3EB2D
:1018C300F0A37908E709F0A3D8FAECF0A3EDF0A3AD
:1018D300EEF0A3EFF0A3D0E0F0A3D0E0F0A3D0E0CC
:1018E300F0A3E520F0A3E5F0F0A322851983851882
:1018F30082E0C0E0A3E0F9A3E0FAA3E0FBA3780849
:10190300E0F608A3DFFAE0FCA3E0FDA3E0FEA3E01A
:10191300FFA3E0C0E0A3E0C0E0A3E0F5D0A3E0F5BF
:1019230020A3E0A3F5F010AF088583198582188002
:1019330008858319858218D2AFD082D083D0E0F88E
:10194300D0E03274048006740280027401C0E0F4B3
:10195300041216F8D0E01215CD2274048004740228
:101963008000CCC0E0EDC0E0E518C39CCCAD1950BD
:10197300011D10AF068C188D1980068C188D19D295
:10198300AF1215DAD0E0FDD0E0FC22D083D082E99B
:10199300C0E0E493A3C386F0C5F095F0F908E4939F
:1019A300A386F0C5F095F0700BE493A3C3994005AB
:1019B300E9048002A3E475F002A42582F582E5F030
:1019C3003583F583D0E0F9E493A3C0E0E493C0E06A
:1019D30022D083D082ECC0E0EDC0E0E493A3FCE42A
:1019E30093A3FDED4C600D121A20EC24FFFCED34A3
:1019F300FFFD80EFE493A3FCE493A3FDED4C600DA6
:101A0300121A5FEC24FFFCED34FFFD80EFD0E0FD04
:101A1300D0E0FCE493A3C0E0E493C0E022C0E0C3C1
:101A2300E49396087401939618400FE49366700844
:101A330008740193661870007019A3A3C3E4939606
:101A4300087401939618A3A3400DD0E0D0E0D0E032
:101A5300021A10A3A3A3A3A3A3D0E022C0E0C0F063
:101A630088F0E4936670080874019366187000A800
:101A7300F0A3A3700BD0F0D0E0D0E0D0E0021A10B6
:071A8300A3A3D0F0D0E02284
:101A8C0074F61217A3EAFEEBFF8C088D09EE2434D2
:101A9C00F8E43FF9E8FCE9FDEE2435121D58FAEEA6
:101AAC002437121D58F88508F0A4C885F00A85095A
:101ABC00F0A4250AF9EA28F8E439F97A257B001212
:101ACC00163CEA8C828D83F0FA131313541FF8EE34
:101ADC0028F8E43FF9E8245DF582E439F583E0C0A9
:101AEC00E074075AF8D0E0B800028004C313D8FCA5
:101AFC00A2E0EE50082434F582E43F80182436121C
:101B0C001D58F5F0EA84A8F0EE28F8E43FF9E82433
:101B1C0038F582E439F583E0F97F0302184F74F746
:101B2C001217A3EAFEEBFFEE2434121D58C0E0EEB0
:101B3C002435F582E43FF583D0E0F08E828F83A3C9
:101B4C00A3A3A3A3A3A3C082C0838E828F83A3A3CA
:101B5C00A3A3A3E0F8A3E0F9D083D082E0C398F567
:101B6C0008A3E099F509EE247F121D586401703E1C
:101B7C00EE2480F582E43FF583C082C0838E828F91
:101B8C0083A3A3A3A3A3E0240108A3E03400F9D00A
:101B9C0083D082E0687003A3E06970127C407D06FC
:101BAC00120AE1EE247FF582E43FF583E4F0AC0801
:101BBC00AD09EEFAEFFB121A8CE9F91222CF7F0273
:101BCC0002184F74EF1217A39002E9E06408600545
:101BDC00E06407702A9061C8E06024900317E0F479
:101BEC00601DE0F875F00DA4C8AAF02AF974192844
:101BFC00FE740339FF8E828F83A3A3A3E0700302CC
:101C0C001CDD906060E0C0E0EE2468F582E43FF5F6
:101C1C0083D0E0F0750C7C750D0675080075090015
:101C2C00E5D914F50AE5D95403F50E601274036571
:101C3C000E6043E50A600AEE2467121D587002809C
:101C4C0075900677E06401601F121D5560047A04DC
:101C5C0080027A00E50AC39AFA95E0FB12098B8A96
:101C6C00088B09EA45097005120D638064121D5535
:101C7C0070048A0C8B0DE50A6012850C82850D832D
:101C8C00F50BE5D9F0A3150BE50B70F6121D55609D
:101C9C004474FC250AF50A780C12194AAC0AA90EF0
:101CAC00EEFAEFFB120BA774021216DDE97026AAEE
:101CBC0008AB09121207793D8E828F83A3A3A3A3CD
:101CCC00E0FA7B00120805EEFAEFFB120B05120C82
:101CDC00077900806F7403650E6051850A107511C9
:101CEC0000781012194AAC0CAD0DAA08AB09120BF6
:101CFC006B74021216DDEE2468121D586480700499
:101D0C00747F8001E0F50C780C12194EE50EF50C81
:101D1C00780C12194EA90AAC08AD09900317E0FA19
:101D2C007B001207D574021216DD80139002E9E0D5
:101D3C006408700BAC0CAD0DEEFAEFFB120BD71266
:101D4C000D6F79017F0A02184FEE2483F582E43F70
:101D5C00F583E02274F21217A374FC1216C7EAFE84
:101D6C00EBFF8909A2AFE433F508C2AF021E2AE0EB
:101D7C00601B780C12194AAC0BA90EEEFAEFFB1291
:101D8C000BA174021216DD7404250BF50B740125DE
:101D9C000BF5D9850ED9E50B6018F50A850C8285F3
:101DAC000D83E0F5D9A385820C85830D150AE50A10
:101DBC0070EA75E195EE2463F8E43FF97A007B0054
:101DCC00A2AFE433F50BC2AF88828983E0FCA3E0B9
:101DDC00FDEC4D603A88828983E0FAA3E0FB8A82AD
:101DEC008B83E0FCA3E0FD88828983ECF0A3EDF00B
:101DFC008A828B83E4F0A3F088828983E0FCA3E0E1
:101E0C00FDEC4D700A88828983A3A3E4F0A3F0E56E
:101E1C000BA2E092AF121207900647E004F0EE24FA
:101E2C0063121D58F8A3E0F9E8496064EE246312CC
:101E3C001D582402F8A3E03400F988828983E582D6
:101E4C002402F50CE43583F50DE0F50BA3E0F50E5B
:101E5C00EE2462121D58640170369061D0E0F812C5
:101E6C001D5560047C0480027C007480C398FA9534
:101E7C00E0FBE50B2CF8E43400F9E82402F85001FF
:101E8C0009C3EA98EB99A2D265D0334003021D7BBB
:101E9C00900647E0604D900648E0F8900647E0C396
:101EAC0098500C74026509703A900649E060348EC3
:101EBC00828F83A3A3A3A3E0851882851983121EA6
:101ECC00FF7402121713E8121EFF900646E028F06A
:101EDC00740212172DAA18AB19790112082F90064B
:101EEC0047E4F0E508A2E092AF74041216DD7F0718
:101EFC0002184FF0A3E4F0900647E0F8220000002F
:101F0C00851A87851BC622C0E074EB12188FA2AF0E
:101F1C00E433F508C2AF759B00906182E0A2E050FB
:101F2C0030E591A2E0502A7591FE7401651A70217A
:101F3C001220A6120C9712209412195D12220B7407
:101F4C00041216DDE9640170057901120CC7121B2D
:101F5C00CF906182E0A2E5505DE591A2E550577506
:101F6C0091DF9002E9E064076005E06408702F12CD
:101F7C0020A67401651A703E120C97122094121947
:101F8C005D12220B74041216DDE9640170057901EF
:101F9C00120CC77901EEFAEFFB121D608018E06499
:101FAC000D701390030BE004F064287002E4F07AD7
:101FBC0000E0F9120D75906182E0A2E64003022068
:101FCC0069E591A2E640030220697591BF9002E990
:101FDC00E064057008120C7F120C8B8003120C85C8
:101FEC00751A00120CE5E99002EAF07900120CC7A0
:101FFC00120A4B7A017B009002E8E0F91211D7909B
:10200C007803E06442705690067BE014F0704EC288
:10201C00AF12202000781DD0E0F618D0E0F6E59F36
:10202C005407F87005750DFF8003750D7FC4C0E073
:10203C00781CE6F50A08E6550DF50B740B780A12B8
:10204C0016A5D0E0250AF8906270E0A2E740F8E807
:10205C00C333906272F0906270E0D2E0F0906181D4
:10206C00E0A2E35009E5E9A2E3500375E9F7A3E028
:10207C00A2E75009E591A2E7500375917FE508A20C
:10208C00E092AF7F080218EE8E828F83E0F8A3E017
:10209C00C82416F582E438F58322900317E0F8750E
:1020AC00F00DA4C8AAF02AF9741928FE740339FF9C
:1020BC0022C0E0C0D0C082C083906183E0A2E05017
:1020CC0009E5BFA2E0500375BFFEE0A2E15009E5AF
:1020DC00BFA2E1500375BFFDE0A2E25009E5BFA22B
:1020EC00E2500375BFFBE0A2E35009E5BFA2E35049
:1020FC000375BFF7E0A2E45009E5BFA2E4500375F5
:10210C00BFEFE0A2E55009E5BFA2E5500375BFDFC4
:10211C00E0A2E65009E5BFA2E6500375BFBFD0832D
:10212C00D082D0D0D0E032C0E074F212188FE5A784
:10213C00A2E6500FE5A1A2E6500953A7BF75A1BFB7
:10214C00122187E5A7A2E5500CE5A1A2E5500653A4
:10215C00A7DF75A1DFE5A7A2E15009E5A1A2E15037
:10216C000375A1FDE5A7A2E2500CE5A1A2E2500681
:10217C0053A7FB75A1FB7F010218EE74F71217A38E
:10218C00751A019002E9E064067015120C2B8A8214
:10219C008B83A3A3A3A3A3A3E0FAA3E0FB120C6D70
:1021AC00A2AFE433FED2AF9002EFE0640170187A74
:1021BC00207B009002E8E0F91212F17A207B00906B
:1021CC0002E8E0F91211DD906182E0D2E6F09006AF
:1021DC0078E0602185C61B80169002EEE0640170E9
:1021EC0008E5C654F84405F5C653BEFC121F0C7422
:1021FC0001651A60E4EEA2E092AF7F0202184F7400
:10220C00F11217A38A088B098C0A8D0B9082EC783B
:10221C0008121546740F121713780C12157F908242
:10222C00EC780C1215467808790C12136C9082809D
:10223C0050107808790C12150B780812138C401476
:10224C00800E780C790812150B780C12138C500434
:10225C007901800279007F0802184F74ED1217A3E0
:10226C008A088B098C0A8D0B9082EC780812154623
:10227C007413121713780C12157F9082EC780C12D1
:10228C001546780C790812136C40117808790C12E9
:10229C00150BAA08AB09AC0AAD0B802275100075A2
:1022AC0011007512007513017810790C12150B784A
:1022BC001079081214D2AA10AB11AC12AD137F0C0A
:1022CC0002184FC082C083E9906000F0D083D082A6
:1022DC0022C0E074F212188FA2AFE433FED2AFC268
:1022EC00C0E5D1A2E4500675D10F12112FEEA2E079
:1022FC0092AF7F010218EEC0E0C0D0E8C0E0E9C0A8
:10230C00E0A9A8D2AFC2C7E9A2E7E433F8E9A2E793
:10231C0092AFD0E0F9D0E0F8D0D0D0E032C0E0C03D
:10232C00D0E8C0E0E9C0E0EAC0E0C082C083A2AF60
:10233C00E433FAD2AF900EDBE0F8A3E068700853F8
:10234C009AFBA374018022C2E9900EDBE0F87401C1
:10235C0028F0745B28F582E4340EF583E0F5C19027
:10236C000EDBE0C394804002E4F0EAA2E092AFD02E
:10237C0083D082D0E0FAD0E0F9D0E0F8D0D0D0E031
:07238C0032C2AF0200002283
:10239400FFFFFFFFFFFFFFFFD083D08202011F7406
:1023A400F6121737E990025CF09002BBE0F508756D
:1023B4000900740278081216B4AA08AB0912124F65
:1023C40090025D122D5690025D123143606F9002AF
:1023D400BBE075F003A4FAABF012124F90027A122C
:1023E4002D5690027A123143700B90025D12311413
:1023F400121255804890027A1240A87AFF7BFF128D
:1024040010697A0080198A08750900740278081224
:1024140016B4123B5074FF122556E4F0A3F00A9050
:1024240002BBE0F8EAC39840DD79051206CD9002BC
:102434005CE0F91205BF7A577B0712092B023BF3C4
:1024440074F41217378A088B09EB548060479002A2
:102454005CE0F91211BF8A0A8B0BAE0AAF0BEE4F88
:10246400602A8E828F83E064B0701A1206DFE960FE
:10247400148E828F83A3A3A3A3E0F9EE2405FAE4C8
:102484003FFB1206B5EEFAEFFB1211ADAA08E509FF
:102494006480FB80047A007B000226A674F2121783
:1024A4003774FB1216C7EAFEEBFFEE4F6045740368
:1024B400121713EEF0A3EFF0851882851983ECF060
:1024C400A3EDF07402121713E9F0AA18AB19120560
:1024D400B9E9F50870757413121713E0F50AA3E04F
:1024E400F50BE50A450B60638E828F83122ADFEEBB
:1024F4004F700575080280537A067B0012124F8ACA
:102504000C8B0DA80CA90DE8497005750813803BC8
:1025140088828983E4122556EEF0A3EF122672E531
:102524000AF0A3E50BF090026012266B9002606043
:1025340017E0FCA3E08003EAFCEBFD8C828D8312A0
:10254400266B70F38C828D8312376BA90874050295
:102554004328F0A312408AA32274F2121737890881
:10256400890C750D007403780C1216B4850C0A8559
:102574000D0B90025FF090025D12357612266960B1
:102584002E1212557900801D890C750D0074027885
:102594000C1216B490025D123A0F8882F583A3A33D
:1025A400E4F0A3F0099002BBE0F8E9C39840D990A5
:1025B40002BBE0FA850AF0A4CAA8F0850BF0A428AF
:1025C400FB12124F8A0C8B0DAE0CAF0DEE4F700345
:1025D40002265F9002BBE0FC850AF0A4CCA8F0853B
:1025E4000BF0A428FD79001211957C0080318D0C2C
:1025F400750D007403780C1216B48A828B8312262C
:102604006488828983E4F0122671A3A3F0A3F00DF9
:10261400EDC3950840D8EE250AFEEF350BFF0C906C
:1026240002BBE0F8ECC39850288C0C750D007402C2
:10263400780C1216B490025D122664E8240250014C
:1026440009FAE9FB8A828B83EEF0A3EFF07D008028
:10265400BFE50890025FF079008002791302432BF2
:10266400123A13F922A3A3123118EA4B22A31240FF
:102674008AA3A3A32274F41217377900EAA2E050C4
:102684001F75085E750982780812194A79107C044E
:102694007D007A5F7B1E1206C774021216DDE9F90B
:1026A40080007F04021809C082C083900260123146
:1026B40043601C88828983A3A3E06A7003A3E06B50
:1026C4008882898370E8A3A3A3A312311480047AB7
:1026D400007B0002239C74F212173774FD1216C794
:1026E400EAFEEBFF851882851983E4F0A3F07402F7
:1026F4001217137401F0123140701412087D121273
:102704004F900263122D56123140700302286C124E
:102714002E56EE2404F50AE43FF50B850A82F58370
:10272400E024FE603C24FC607424FE607E24FE7081
:10273400030227BC24FE70030227C924FE7003028F
:1027440027D624FE70030227E324FE70030227F039
:1027540024FC700302281124FE7003022829022895
:102764006512087D900265EAF0A3EB122878120244
:102774004DE960030228659002651219618E828F0B
:1027840083A3A3A3A3A31240A88508828509831267
:10279400311412069D74021216DD022865AC18ADC0
:1027A40019EEFAEFFB1206E5022834AC18AD19EE67
:1027B400FAEFFB1206EB8078AC18AD19EEFAEFFBDA
:1027C4001206F1806BAC18AD19EEFAEFFB1206F7A6
:1027D400805EAC18AD19EEFAEFFB1206FD8051AC29
:1027E40018AD19EEFAEFFB120703804474021217B6
:1027F4001D880C890D780C12194A740212172DEEDB
:10280400FAEFFB12070974021216DD8023AC18AD2F
:1028140019EEFAEFFB12070FE9F87016740212179B
:1028240013E4F0803CAC18AD19EEFAEFFB12071577
:10283400E9F8E8602C8E828F83A3E064146022851B
:102844000A82850B83E0900265F0851882851983DE
:10285400123114900266122D56E8A312287812023F
:1028640047EEFAEFFB1206737402121713E0F974C1
:1028740003024328F07C657D028508828509831262
:1028840031182274E812173774FA1216C774041236
:102894001713ECF0A3EDF08A128B13EA2405F50E5E
:1028A400E43513F50FEA2402F510E43513F5118528
:1028B4001082F5831231141203798A0A8B0B75087E
:1028C400007C037D0079007A657B02121195E50E88
:1028D4002402F516E4350FF517740212171D880C3F
:1028E400890D780C12194A850E82850F83A3A3A340
:1028F400A3E0F50C750D00780C12194AE50E2405B9
:10290400F50CE4350FF50D780C12194A85168285FD
:10291400178312341B1205D774061216DD8A0C8B2A
:102924000DE50C450D7003022AA8802085188285C8
:102934001983E088828983F00508851882851983C4
:10294400A3E0C0E0122AE9D0E0F00508E50A24FB80
:10295400FAE50B34FFFBC3E5089AE49B4003022A23
:10296400A87E007F00851282851383A3A3A3A3E01E
:10297400F509780912194EE4F514F51578141219AD
:102984004A751462751502781412194A900263127A
:1029940019617409121713121961E50A24F9F9ACC3
:1029A4000CAD0D85108285118312311412073F740A
:1029B400091216DDE96003022A49850E82850F8318
:1029C400A3A3A3A3A3A3A3E0F8900262E068707595
:1029D400E0F5148E15781412194A1240A5850E825A
:1029E400850F83A3A3A3A3A3A3A3A312311412113A
:1029F4008F74021216DDE9604C9002661231437046
:102A04003BE4F514781412194A7CFF7DFF7907859D
:102A140010828511831231141206AF74021216DD6E
:102A24001231497017850E82850F83124242740455
:102A3400121713123B0312344C022ADC850C8285D4
:102A44000D83122ADFA818A919881489157814127D
:102A5400194A740412171312196185168285178393
:102A6400122D4C1205E374041216DD8A0C8B0DEE44
:102A74004F7003022925122AE9EE122AF4123402B5
:102A8400EF122AF4F8A3E03400F9E50C450D6003D5
:102A94000229308882898374FFF00508122AE974B8
:102AA400FFF00508E508601A1313543F122D5C1259
:102AB4000259E96009900266123114121207790072
:102AC4008016850E82850F831242427404121713F6
:102AD400123B0312376B790A0233D5A3A3A3A3E0F5
:102AE400FEA3E0FF22A808900266E0281234022226
:102AF400F0050808900266E0282274E8121737747B
:102B0400FA1216C77402121713122D5674041217F0
:102B140013ECF0A3EDF07402121713E02405123342
:102B2400EBE0F50CA3E0F50D7402121713E0240298
:102B3400F510A3E03400F511851082F583123114E9
:102B4400120379750800750900EA24FCFEEB34FFD2
:102B5400FF8008050CE50C7002050DA808C3EE986B
:102B6400EF94005003022D08A818A919880E890FA4
:102B7400780E12194A851482851583A3A3A3A31280
:102B840040AC12194AE5142405F50EE43515F50F89
:102B9400780E12194A851482851583122D4A12055E
:102BA400D774061216DD8A0E8B0FEA450F700302E6
:102BB4002D08EA2404F516E4350FF517851682F579
:102BC40083E0F50CA3E0F50D851882851983124086
:102BD400A88A828B83A3A3A3E0F98510828511833D
:102BE4001231141205C5E9F5096003022D087402B7
:102BF400121713123412F509780912194EE4F5125A
:102C0400F513781212194A751262751302781212AA
:102C1400194A900263121961740712171312196189
:102C2400EEF9AC0EAD0F85108285118312311412AA
:102C3400073F74091216DDE9F5096003022D08E562
:102C440008703FE4F50EF50F780E12194A7CFF7DEB
:102C5400FF79098510828511831231141206AF742D
:102C6400021216DD123438700D7404121713122D6B
:102C74003F7911022D3C900262E02402900266F03A
:102C84008014900266E0FA900262E0790024025017
:102C940001096A497072A808900262E0FAE82AFA07
:102CA400E43400FBEE9AEF9B405A85168285178325
:102CB400E0C0E0900267122AEED0E0F00508851625
:102CC40082851783A3E0C0E008900267122AEED041
:102CD400E0F005089002621240AC12194A1240A5B5
:102CE400A8081233DF12117D74021216DD900262FD
:102CF400E02508F50874FF650C700474FF650D6029
:102D040003022B57E508601F900266E0F5F0E50822
:102D140084122D5C12025FE960099002671231147B
:102D240012120779008011E509700375090A740409
:102D3400121713122D3FA9090233D512357AE50C67
:102D4400F0A3E50DF022A3A3124337AA0CAB0D2286
:102D5400A3A3EAF0A3EBF022900265F07C657D0268
:102D64008510828511831231182274EC121737747E
:102D7400FC1216C712387B740212172D12310E1270
:102D840005DD8A0C8B0DEA450D7003022E46122ECA
:102D940056A818A91988108911781012194A7CFFAD
:102DA4007DFF790B8508828509831231141206AFE1
:102DB40074021216DD122F4C700C850A82850B8367
:102DC400123449022E538E828F83A3A3A3A3E0F56A
:102DD40012781212194EE4F512F513781212194AE8
:102DE400751265751302781212194A781012194A6D
:102DF40074091217131219617409121713E0F9AC4C
:102E04000CAD0D85088285098312311412073F74B5
:102E1400091216DDE9FE70157C657D028508828540
:102E24000983123114120265E97009802074166E48
:102E340070027E00900266123114121207EE7004C2
:102E4400800B7E01850A82850B83123768EEF902B6
:102E5400377DEE2402F508E43FF5092274EC1217DD
:102E64003774FC1216C7EAFEEBFF8C0E8D0FEE24AE
:102E740005F508E43FF509740212172D85088285CB
:102E840009831231141205DD8A0C8B0DEA450D708D
:102E940003022F3CEE2402F50AE43FF50BA818A91F
:102EA4001988108911781012194A7CFF7DFF790D59
:102EB40012310E1206AF74021216DD122F4C700B73
:102EC400850882850983123449807A8E828F83A390
:102ED400A3A3A3E0F512781212194E85088285097E
:102EE40083A3A3121961751265751302781212195E
:102EF4004A781012194A74091217131219617409C5
:102F0400121713E0F912310A12073F74091216DD81
:102F1400E9FE700F7C657D0212310E12026BE970BE
:102F240009802074166E70027E00900266123114BD
:102F3400121207EE7004800B7E01850882850983D6
:102F4400123768EEF902377D123153F510A3E0F51C
:102F540011EA45112274E812173774FE1216C78A53
:102F6400168B178C148D15EA2405F50CE43517F52A
:102F74000DEA2402F50EE43517F50F850E82F5836C
:102F84001231141203798A088B09750B007C037DB6
:102F94000079007A657B02121195750A00E5081420
:102FA400F5100424FFF508E50934FFF50980549071
:102FB4000265E0FA900262E0F8EA28F8E43400F9E5
:102FC400E50898E50999500D900265E0F8E510C30D
:102FD40098900262F0E0F512751300781212194A03
:102FE4001240A5900266E02AFAA3E03400FB121115
:102FF4007D74021216DD900262E0F8900265E0280A
:10300400F0050A850C82850D83A3A3123A1F4003A1
:103014000230EF900265E0C39508E495094003028D
:1030240030EFAE0AEE2EFEE433FF12312EAC18ADB3
:10303400191240C0E439FB1205DD8A128B13AC125D
:10304400AD13EC4D701B750B0112311E12376C90D1
:10305400026612266B6003121207A90B7402023374
:10306400D7851682851783A3A3A3A3E0F50B780B5A
:1030740012194EE4F512F513781212194A751262F8
:10308400751302781212194A9002631219617407B7
:10309400121713121961A910850E82850F8312313C
:1030A4001412073F74091216DDE9F50B709B9002A8
:1030B400661231436003022FB3E4F512F51378125C
:1030C40012194A7CFF7DFF790F850E82850F8312CA
:1030D40031141206AF74021216DD12314960030274
:1030E4002FB312311E12344D0230607C657D02858F
:1030F4000E82850F83123114120271E960030230CB
:10310400537900023060AC0CAD0D850A82850B83C7
:1031140012311822E0FAA3E0FB2212312EE0FAA3C6
:10312400E0F9EA85148285158322850C82850D8356
:10313400E02EF8A3E03FF98882898322900263128B
:103144004246E84922123153F8A3E0F9E8492290B3
:103154000266EAF0A3EBF0900266E02274E812172C
:103164003774FA1216C77404121713122D568C16DC
:103174008D177404121713E02405F50EA3E0340030
:10318400F50F7404121713E024021233EB123114F6
:103194001203798A0A8B0B7F007E00A818A919886C
:1031A400088909780812194A850E82850F83A3A31A
:1031B400A3A3E0F5088E09780812194AE50E240540
:1031C400F508E4350FF509780812194A850E828549
:1031D4000F83A3A312341B1205D774061216DD8ABB
:1031E4000C8B0D802912340CF00F12340CF00F905C
:1031F400026212375712194A1240A5EFF81233DF50
:1032040012117D74021216DD900262E02FFFE50CAC
:10321400450D700302329B85188285198312388DFF
:10322400A3A3A3E0F9851482851583123114120532
:10323400C5E9FEE50C2404F510E4350DF511EE7036
:10324400507404121713123412F508780812194E28
:10325400E4F508F509780812194A75086275090237
:10326400780812194A90026312196174071217132D
:10327400121961E50A24FAF9AC0CAD0D85148285A6
:10328400158312311412073F74091216DDE9FE602A
:103294003912342812376BEF70030233C29002667E
:1032A400E0F5F0EF84900265F07C657D0285148280
:1032B400851583123114120277E9600990026712AE
:1032C400311412120779000233D58F08EF703BE4F2
:1032D400F512F513781212194A7CFF7DFF791185D6
:1032E40014828515831231141206AF74021216DD8E
:1032F400123438700912342812344C0233D5900237
:1033040062E02404900266F08035900262E0F89056
:103314000266E0FAE82404FCE43400FDEC6A4D6043
:10332400030232A1E50A24FAFAE50B34FFFBE508AF
:1033340028F8E43400F9EA98EB9950030232A185A5
:103344001082851183E0C0E0900267E02FF8A3E0CB
:1033540034008882F583D0E0F00F851082851183D4
:10336400A3E0C0E01233F9D0E0F00F740212171D8D
:1033740088088909780812194A7402121713121955
:1033840061850E82850F83122D4A1205E37404129F
:1033940016DD8A0C8B0DEA450D70030231E97402C7
:1033A400121713E0C0E01233F9D0E0F00F740212E8
:1033B4001713A3E0C0E01233F9D0E00231F1EE704C
:1033C400027E0A850E82850F8312342E12376BEE2D
:1033D400F974061216DD7F10021809900267E028BE
:1033E400FAA3E03400FB22F514A3E03400F51585BC
:1033F4001482F583221233FD22900267E02FFAA390
:10340400E034008A82F583221233FD74FF221235E0
:103414007AA3A3A3A3E022124337850E82850F83E8
:103424001231182285108285118312424685168234
:1034340085178322900267EAF0A3EBF090026712EB
:103444004246E84922123771E8F0A3E9F0791122E3
:1034540074EA12173774FE1216C78A088B098C1285
:103464008D13EA2405FEE43509FFAC18AD198E82EC
:103474008F831231141205DD8A0C8B0DEE2406F5B0
:103484000EE43FF50FEA450D700302354CE50824C0
:1034940002F50AE43509F50B8A828B83A3A3A3E022
:1034A400A2E5502885188285198312311412073336
:1034B4008A108B11EA45116020791212310A8510A5
:1034C40082851183121735E9F50C707F850E82858C
:1034D4000F83E0600979528011750C0E806D8508A8
:1034E40082850983A3A3A3A3E0F9E4F508F5097889
:1034F4000812194A8E828F83A3A3E0F50878081274
:10350400194A8E828F83A3A3A31219618E828F839B
:103514001240A812310E12074574061216DDE9F5A1
:103524000C7011850E82850F83E0702D12310E12FE
:10353400027D80257416650C7011750C00741812C8
:103544001713123576E48010750C0112423E851271
:1035540082851383E8F0A3E9F0850E82850F83E06A
:10356400600479008002A90C74021216DD7F0E0239
:10357400180912357A22E0F8A3E0F58388822274D0
:10358400EC12173774F71216C78A0A8B0B8C108D3E
:1035940011EA2405FEE4350BFF750C00AC18AD19D7
:1035A4008E828F831231141205DD8A088B09EA4555
:1035B400097003023742E50A2402F50A5002050B9A
:1035C4008A828B83A3A3A3E0A2E5502F851882856A
:1035D40019831231141207338A0C8B0DEA450D60DE
:1035E4004F7912AC08AD0912310E850C82850D831A
:1035F400121735E9F50C6003023745850A82850BFD
:1036040083E0F508A3E0F509AA08FB120727EA4BB3
:1036140070197AFF7BFF120727EA4B7003023738D1
:103624008A828B83E508F0A3E509F0750800800819
:10363400750C0E023745050890025FE0F8E508C3F3
:1036440098400302373885080E750F007403780E0E
:103654001216B48A828B83A3A3E0250EF8A3E03567
:103664000F123B0C70D08E828F83123760122D564E
:103674008E828F83A3A3123760122D54EE2404F597
:1036840008E43FF509850882F583E088828983A3ED
:10369400A3A3A3F0A3E4F0EE2405F50EE43FF50F95
:1036A400850E82F583123760A3A3A3A3122D54754C
:1036B4001207751300781212194AEEFCEFFD740418
:1036C40012172512117D74021216DDE4F512781218
:1036D40012194A850882850983E0FC7D0079171256
:1036E400310E1206AF74021216DD7407121713128C
:1036F4002D567407121713E0FA4B603D8508828536
:10370400098312375712194A850E82850F83124096
:10371400A812117D74021216DD740212172D1231D3
:103724000E120283E9602674071217131231141261
:1037340012078019750C098008750C118003750C2B
:103744000112423E85108285118312376BA90C74D5
:10375400098028E0F50875090078082212311888D4
:1037640082898322123771E8F0A3E9F022E0F8A3FA
:10377400E0F9850E82850F832274041216DD7F0C16
:1037840002180974EC12173712387B751000EE24F6
:1037940002F50CE43FF50D850C82F5831231141209
:1037A40007278A088B09EA4509700302385F850AEE
:1037B40082850B83E064016003023854AC08AD09D0
:1037C400AA0AAB0B12071BE9606E85088285098380
:1037D400122AE1EE2406F50AE43FF50B8E828F836C
:1037E400A3A31219618E828F83A3A3A3A3121961C9
:1037F400850A82850B8312196179188E828F831250
:10380400388D12311412074574061216DDE9F87466
:103814001668700B850A82850B83E4F0A38014E894
:1038240060128E828F83123114850E82850F83EA93
:10383400F0A3EBF088108018780E12194AAC08AD8A
:1038440009EEFAEFFB12072174021216DDE9F510F6
:10385400AA08AB0912072DE510700E850C82850DA0
:10386400831231141202898009741665107003756D
:103874001000A910023782EAFEEBFF8C0E8D0FEECA
:103884002405F50AE43FF50B22124337850C8285A3
:103894000D832274EA1217377508007509007E003B
:1038A4007F00750A00EC2402F510E43DF511803523
:1038B400EC65087003ED6509600302394C88828960
:1038C40083A3A3E06A7003A3E06B707C888289837E
:1038D400A3A3A3A3124242EE28FEEF39FFEA28FA7B
:1038E400EB39FB050A123A1C503A850A0C750D0097
:1038F4007403780C1216B4851082851183123A0F62
:10390400123B0C601FE508450970A58C088D0988D9
:10391400828983122ADF88828983A3A3E02EFAA3F3
:10392400E03F80BEE50AC394025003023A0A7508D8
:1039340000750900EE4F6010EEFAEFFB1212018AD7
:103944000E8B0FEA450F70057900023A0C750B00D7
:103954000239DF850B0C750D007403780C1216B454
:10396400851082851183E0250CF50CA3E0350DF557
:103974000DE50C2406F514E4350DF515851482F5D2
:1039840083123B116042E50C2404F512E4350DF575
:1039940013851282F583121961E50E2508FAE50FE5
:1039A4003509FB12117D74021216DD85128285130E
:1039B40083E02508F508A3E03509F5098514828517
:1039C4001583123114121207E50B600D7C087D007B
:1039D4007900AA0CAB0D121195050BE50BC3950AE2
:1039E400500302395785108285118312424288821E
:1039F4008983A3A3A3A3A3A3E50EF0A3E50F122633
:103A040072EEF0A3EFF07901023571123A1322E05D
:103A1400250CF8A3E0350D2290025FE0F8E50AC317
:103A2400982274F01217378A0E8B0F8C0A8D0B753F
:103A34000D00750C0080507916EE2406F508E43F5D
:103A4400F5098E828F83A3A31219618E828F83A3BB
:103A5400A3A3A312196185088285098312196185BC
:103A64000E82850F83A3A312311412074574061224
:103A740016DDE9F50D7416650D706C8508828509EF
:103A840083E4F0A3F0050C90025FE0F8E50CC39822
:103A94005066AA0C8A08750900740378081216B4D3
:103AA400850A82850B83A3A3123B5BE8FEE9FF8EA4
:103AB400828F83123B116040EA2401F508E434004C
:103AC400F50990025FE065087002E50960148882D8
:103AD4008983A3A3A3A3A3A3A3A3123143600302D3
:103AE4003A3B7918023A3DE9609B12423E74101247
:103AF4001713123B0312376BA90D7F08021809E054
:103B0400FAA3E0F5838A8222F988828983124337F3
:103B1400EC4D2274F61217377C0080010C9002BB26
:103B2400E0F8ECC398501E8C0875090074027808FC
:103B34001216B4123B50E06A7003A3E06B70DDE828
:103B4400FAE9FB80047A007B00023BF390025D12E9
:103B54003B5B8882898322E02508F8A3E03509F9D4
:103B64002274F21217378A088B09750A0080278E8F
:103B7400828F83A3A3A3A312266960031212077C76
:103B8400087D007900EEFAEFFB1211958E828F8387
:103B9400E4F0A3F0050A123A1C5027850A0C750DAF
:103BA400007403780C1216B4850882850983A3A3D4
:103BB400E0250CFEA3E0350DFF8E828F8312314386
:103BC40070AD85088285098374FFF0A3F002432B4E
:103BD40074F61217371206D98A828B83E5824583DD
:103BE40070067A007B008007A3A3A3A31231147F7D
:103BF4000202180974F412173789088C828D83E045
:103C04006402703C1241E1FEA3E0F9EEF87402682C
:103C140070037429697029750A02750B00780A12F9
:103C2400194A74101217131219617410121713120F
:103C34001961A90812106F74061216DDE9F98002E1
:103C440079010226A674E812173774FB1216C7E925
:103C5400851882851983F08A168B17ECFEEDFF75A3
:103C640010008E828F83A3A3A3E0A2E4502D741DC1
:103C74001217131231141207338A828B83E582459B
:103C8400837003024080790AEEFCEFFDAA16AB179D
:103C9400121735E9F5106003024083741F121713DD
:103CA400E0F508A3E0F5097421121713E0F50AA35F
:103CB400E0F50B7423121713E0F50EA3E0F50F8E55
:103CC400828F83E064026003024021A31242428592
:103CD4000882850983A3858212858313EE2406F561
:103CE4000CE43FF50D888289831240C0F514E43951
:103CF400F51578141219D4010000280128233D0772
:103D0400000228E83D0328563D0029173F012942B7
:103D14003F0229E33E0329173F0429BB3F2140E525
:103D24000E450F600302401C850C82850D831242F0
:103D340042E8FAE9FB8A828B83E0850A82850B8359
:103D44001240CB12194A8A828B83A3E0FCA3E002BF
:103D54003FA5E50E450F600302401C850A82850BD2
:103D6400837401F01240B5850882850983F07C00D4
:103D74007D008E828F83A3A3A3A3E02401FAA3E092
:103D84003400FB1205DDEA4B60408A828B83E02419
:103D940002F8850A82850B83E028F0EA2404F8E41B
:103DA4003BF988828983E08512828513831240D986
:103DB4001240CB12194A8A828B83A31240A8E508C9
:103DC4002403FAE43509FB023FAA850A82850B83A2
:103DD400E02404F07C047D007900AA12AB131211D4
:103DE40095024083E50E450F600302401C1240B566
:103DF400FEA3E0FF850A82850B837404F0EE850838
:103E040082850983F0EF851282851383F07403128F
:103E1400172DEEFAEFFB1205DD8A0C8B0DEA450D2A
:103E24007003023EC68A828B83A3A3122ADF740125
:103E340012171D880E890F780E12194A740512176D
:103E4400131219617CFF7DFF1205E374041216DD61
:103E54008B0FEA450F7033850C82850D831240ACBD
:103E640012194A850C82850D83A31219617C027D87
:103E7400007A0F7B8312036774041216DDE9700A5B
:103E8400740112171374FFF0A3F08E828F83E06421
:103E9400027039750C02750D00780C12194A8E8265
:103EA4008F83A31240A8E5082404FAE43509FB1221
:103EB400117D74021216DD850A82850B83E02402CB
:103EC40080097401121713EEF0A3EFF074011217B6
:103ED4001312409A7401121713124091024016E50E
:103EE4000E450F600302401C850C82850D8312432E
:103EF40030AA16AB17121075850A82850B837402DB
:103F0400F0850882850983EAF0851282851383EBA4
:103F1400024019E50E450F600302401C1240B5F83B
:103F2400A3E0F9850A82850B837402F0E885088290
:103F3400850983F0E9851282851383024019850C73
:103F440082850D83123114121177EAFAF8C3950EA3
:103F5400E4950F405CE8650E450F70047A008021FB
:103F6400851882851983E0FCE50E2CFCE4350FFDF1
:103F7400C3EC98ED94005003E08005E50ECAC39AA3
:103F8400FAEA850A82850B83F08A0A750B00780A9F
:103F940012194A850C82850D83E0250EFCA3E035B9
:103FA4000FFDAA08AB0912117D74021216DD02403E
:103FB40083751007024083E50E450F705B850C8204
:103FC400850D83124242850A82850B837407F0882B
:103FD40082898312409212408AE08512828513837B
:103FE400F0E82402FAE439FB8A828B8312409A8A2D
:103FF400828B83124091A3A312267112409FF0E892
:104004002405F85001098882898312409FA3124035
:10401400D9A3A3A3A3F0806775100B8062741D124B
:1040240017131231141206D98A828B83E5824583D1
:10403400604A124242880C890DE8450D603E7425A1
:10404400121713E0F510781012194E780E12194A4F
:10405400780A12194A780812194A7407121713E0D9
:10406400F9EEFCEFFDAA16AB17850C82850D8312C1
:10407400173574071216DDE9F510800375100EA9C3
:104084001074050233D7F088828983A322A3E085C4
:104094000882850983221240E0F0221240E0A3A3A3
:1040A4002290026312433722E0F50E750F00780E5A
:1040B40022850C82850D8312357AE022E0FAA3E092
:1040C400F8E4C8F9EA2822F08A828B83E0F50A75BD
:1040D4000B00780A2212408A1240E022E08508820E
:1040E400850983A3A32274EE12173774FE1216C730
:1040F4008A088B09ECFEEDFF890AAC18AD19EEFABB
:10410400EFFB1205DD8A0C8B0DEA450D70030241AD
:10411400D28518828519831231141206D98A828BAA
:1041240083E582458370030241CDA3A312424288F2
:104134000E890FE8450F70030241CD741412171352
:10414400E0F510A3E0F511E50AF50B780B12194E12
:104154007419121713121961781012194A741B1268
:104164001713E0F9AC0CAD0DAA08AB09850E8285D6
:104174000F8312173574051216DDE9F50B705274AE
:10418400FE650A604C850C82850D83E064027041F3
:104194001241E1FAA3E0F9EAF874026870037429A1
:1041A40069702E8510828511831240C0F50CE439A4
:1041B400F50D780C12194AEEFCEFFDAA08AB0912B2
:1041C400075D74021216DD8008750B0E8003750BF3
:1041D40001A90B74021216DD7F0A021809A3124208
:1041E4004688828983E02274F612173774FE121609
:1041F400C7740C121713124242E88518828519837A
:10420400F07401121713E9F0E4F508F509780812BF
:10421400194A750802780812194A740412171D887D
:10422400088909780812194A79FE1207457406129A
:1042340016DD74021216DD023BF38E828F83124266
:104244004622E0F8A3E0F92274F7121737EAFEEBEE
:10425400FF890890027A1240A8121075EA5402608D
:104264000BA908EEFAEFFB1205D1800279017F0158
:1042740002180974F212173774FE1216C7EAFEEB1D
:10428400FF890A7401650A60147402650A600302F6
:1042940043267901120949E96003024326EEFAEF45
:1042A400FB120727EA4B600312072DA818A91988E7
:1042B400088909780812194A7508027509007808EE
:1042C40012194A7508FF750982780812194A7CFF89
:1042D4007DFF7A017B001205D774061216DD803843
:1042E400850882850983A3A3A3A3A3A3124330EE65
:1042F400FAEFFB121069E4F50CF50D780C12194A6B
:1043040074021217131219617CFF7DFFAA08AB090E
:104314001205E374041216DD8A088B09E5084509C1
:1043240070BE74021216DD7F0602180912357A1265
:10433400433722E0FCA3E0FD2274F41217378A0805
:104344008B09ECFEEDFF901E5DE0F4604B7A097B77
:10435400001211A7EA4B60408A828B8374B1F0A3E8
:10436400E412439FF08A828B83A3A3E508F0A3E5BC
:104374000912439FA3EEF0A3EFF0740C121713126B
:1043840042428A828B83A3A3A3A3A3A3A312376B62
:10439400901E5DE0F91211B30226A6F08A828B8387
:1043A400A3A3A3A322C082C0839061907404F0A34A
:1043B4007448F0A37402F09061807440F09061BC82
:1043C4007403F09061877419F0906265741BF09027
:1043D4006249E0C3941390619C40107409F09060AA
:1043E400667401F090619F7428800D740BF09060E6
:1043F40066E4F090619F742CF01245947009C291A8
:104404009002ED746780059002ED7461F01245E648
:10441400902394E493F46006E493F9120A3F790537
:10442400120D57024828C082C083E9540FF99061E5
:1044340085E0696012E5C654B84441F5C6E59E546A
:1044440047644170F8E9F053C6B8E59E544770FAE2
:10445400024828C082C083A8A853A87E906181E442
:10446400F0A3F0A3F0C2BA539AFEC289759B00C2AE
:10447400C275E90075910075BF0075A91175B9057C
:10448400906181F0A374C0F0A3E4F0D2BA439A011E
:1044940074805842A8024828F0024828C082C08389
:1044A40074F81216C79002EB125BA6700302458CD7
:1044B4009002EBE0544060177908AA18AB19120B6C
:1044C4004DAA18AB191207BD9002EBE054BFF0E0FF
:1044D40054806010790C7A9C7B06120B4D9002EB91
:1044E400E0547FF0E0A2E0501E1245947009C2919E
:1044F4009002ED746780059002ED7461F01207C3B9
:104504009002EBE054FEF0E05402601E1245D970B4
:1045140009D2919002ED747180059002ED746AF0F5
:104524001207C39002EBE054FDF0E05404601090D5
:1045340023981245E91207C99002EBE054FBF0E01E
:10454400540860109023991245E91207C99002EBB0
:10455400E054F7F0E05410600D1245E61207C990DC
:1045640002EBE054EFF0E05420600A1207C9900215
:10457400EBE054DFF0A3E05401600D120A5D120772
:10458400CF9002ECE054FEF074081216DD024828C5
:1045940090619A1247DB900676E0640122C082C0E3
:1045A40083E9600514601780291245947009C2914B
:1045B4009002ED7467801A9002ED746180131245C5
:1045C400D97009D2919002ED747180059002ED7456
:1045D4006AF002482890619A1247CD900676E0640A
:1045E400012290239AE493906186F02274EA1217D0
:1045F4003774F41216C79082D0AC18AD1974041233
:1046040015DA90239893F46003024762907808E0E7
:10461400C394025003024746908256740412172D25
:1046240074081215DAA818A91988148915740412C3
:10463400171D88088909AE08AF097510FF7511FFA9
:10464400750EFF7C00750C48750D78801274086C2B
:1046540070030246DC74096C607E740A6C607985B0
:104664000C82850D83780812157F8E828F83A909A9
:10467400E50AC9F888127418780812149AE51245E4
:1046840008F8C3E098A3E099850C82850D83780827
:1046940012157F40188E828F837418780812149A2A
:1046A400E5124508F8E0C398F8A3E0801A74187876
:1046B4000812149AE5124508FAE9FB8E828F8312D8
:1046C4004EFDEAC398F8EB99F9C3E89510E9951102
:1046D4005006881089118C0E0CE50C2404F50C503E
:1046E40002050DECC39413500302465174FF651088
:1046F400700474FF65116024850E08740278081232
:1047040016B474482508F58274783509F583780859
:1047140012157F851482851583E508F0EE2402FEC8
:1047240050010F851482851583A385821485831512
:10473400740C121713E5826E7003E5836F60030235
:10474400463E750801750900780812194A74021268
:10475400172D7AE67B081210BD74021216DD740C54
:104764001216DD7F0E021809C082C0839061AE74F8
:1047740068F0A3746AF090624574FBF0A304F053EC
:10478400F4FD43FE029006767401F09061A0E064AB
:104794003A90619A70191247DB740164017009C27E
:1047A400919002ED7467801E9002ED74618017127F
:1047B40047CD740164017009D2919002ED74718047
:1047C400059002ED746A02449C743FF0A3745AF09D
:1047D4009061A0747FF0227433F0A37455F090615B
:1047E400A0743AF0227F04021809C082C0839006A4
:1047F40054E06401701190065AE064016019E0709D
:1048040006A3E06401601090066BE06401700C90F4
:104814000671E064017004790C800279008005E07F
:10482400F91222CFD083D08202011FE0C433335463
:10483400C02288828983124DBEA882A983222414AF
:10484400F582E438F58322C082C08390065E742525
:10485400F090065C7401F0A3E4F07A01FB120CD32F
:10486400124897241AF582E438F5837481F0A3740E
:104874000AF090065BE06401701690065AE070102E
:104884007901120D33120D03120D2D7900120D3F13
:1048940002482890064A124C202274F612173774E4
:1048A400FA1216C7900653E064017008120A699060
:1048B4000653E4F075E1F11248972415F582E438C3
:1048C400F5837401F0900655E06401704B9082709A
:1048D400AC18AD1974061215DA75D90D90064C1280
:1048E400482F4403F5D975824D758306124DBAE5F8
:1048F4008264537004E583640670F1A818A9191240
:1049040048367406121713E582687003E5836970EC
:10491400EE75E195790180027900120CD9901E811F
:1049240012498474E9F0A3740BF0A3124984124968
:1049340084124AF274EFF0A3740B124B0790064CE6
:10494400E0F97A4D7B06120CB590065EE0F912226E
:10495400CF7901120CDF9082E012159D120CF790B2
:10496400827C12159D120CC17900120D4B124897CE
:104974001248427416F09002E97405F00402501FC4
:1049840074E3F0A3740BF0A32274F71217378908A9
:10499400A808E875F00DA4C8AAF02AF9741928FE2D
:1049A400740339FF900663E0F97A647B06120CB550
:1049B400900671E070257900120D15EE240CF58235
:1049C400EF3401F583E07004790080027901EE246C
:1049D40006FAEF3401FB120CBB80057901120D15A8
:1049E40075E1F175D92390066312482F4405F5D972
:1049F400758264758306124DBAE582646A7004E5B3
:104A040083640670F175D90075D90075D90075D91C
:104A14000075D90075D900EE2422124E73124E92FD
:104A24007003E9658370F6EE2426124E7E2403F8A3
:104A3400E43583F9124E927003E9658370F6EE242F
:104A44002B124E87242C124E87242D124E87242E8F
:104A5400124E87242F124E872430124E872431128F
:104A64004E872432124E872433124E87245D124E11
:104A74007E2405F8E43583F9124E927003E96583C8
:104A840070F6EE2437125A25541FF8EE242A125ACF
:104A940025C43354E048F5D975E195901E8174B36B
:104AA400F0A3740BF0A374B9F0A3740B124AE97465
:104AB400BFF0A3740B124B07900670E0F91222CFDB
:104AC4009082E012159D120CF790827C12159D12B3
:104AD4000CC190600DE4F07901120D4B9002E97461
:104AE40006F002525BF0A3124AF2124AF222124A70
:104AF400F62274ADF0A3740BF0A374ADF0A3740BA1
:104B0400F0A322124B0B22F0901E8F124B17A3120C
:104B14004B1722124AF674ADF0A3740BF02274EC16
:104B240012173790066112567B781012157F900683
:104B340072E0FAF875F00DA4C8ACF02C1257F7FF28
:104B4400EE2EFEEF33FF8E0CF50D750E00750F0083
:104B540085100885110985120A85130B9082C07887
:104B6400081214E57808121946851008851109857C
:104B7400120A85130B7808790C1214D27810790C68
:104B840012142BE4F50EF50F7808790C12150B8A24
:104B94000C750D007403780C1216B47808790C1295
:104BA40014D29082EC7808121546AA08AB09AC0A14
:104BB400AD0B12226774041216DD8A088B09A8084B
:104BC400A909C3EE98EF995006E82EF8E93FF9E8F1
:104BD40090600EF0E9A3F0EEA3F0EFA3F090600D67
:104BE40074C1F07F0C021809C082C08390064A1277
:104BF4004C0C90065E024823C082C083900661126A
:104C04004C0C900670024823124C20124C16F0A350
:104C1400F0222406F582E438F583E422E0F8A3E0E8
:104C2400C82202011F74F6121737124DC3600478AC
:104C34000480027800E8240EF8ECC3985003024C78
:104C4400F77C0C90067CE4F0EA2476F582E43BF5EC
:104C540083E090067DF0EA2477124CFC90067E12E5
:104C64004D0690067FF0EA2479124CFC90068012DF
:104C74004D06900681F0EA247B124CFC90068212C9
:104C84004D06900683F0EA247D124CFC90068412B3
:104C94004D06900685F0EA2474F8E43BF98A828B89
:104CA40083A3A3A3A3A3E0FEA3E0FF88828983E0F8
:104CB4002EF0A3E03F125399900686124D069006FB
:104CC40087124DE7601775087C7509067808121974
:104CD4004A7903120BA174021216DD7C1012502DB6
:104CE400ECFE124DBADEFB75E1957904120CFD79E8
:104CF4000180027900025022F8E43BF9888289831A
:104D0400E02212539EA3E02274F6121737124DC309
:104D14006004780480027800E8240AF8ECC3985010
:104D240003024DB57E0890067C7401F07C407D063C
:104D3400787D79067F05124DD1A882A983DFF7EA31
:104D44002480FCE43BFD8A828B83A3A3A3A3A3E07A
:104D5400F508A3E0F5098C828D83E02508F0A3E033
:104D64003509F0124DD108A9838C828D83E08882A5
:104D74008983124DE7601975087C75090678081255
:104D8400194A7C087903120BA174021216DD7E0CF9
:104D940074012EF5D975D90375827C758306EEFFEF
:104DA400124DBADFFB75E1957904120CFD7901808F
:104DB400027900025022124DBE22E0F5D9A32290BE
:104DC40061D0E0F87480C398FC124DEC22124DD5EA
:104DD400228C828D83E088828983125BE3888289B6
:104DE40083A322F0124DEC22EA2483F582E43BF5FE
:104DF40083E02274F7121737EAFEEBFF9061D0E0EC
:104E0400706875D91875D90375D903EE249C124EB0
:104E140099124E927003E9658370F6EE24A4124E43
:104E24008724A5124E872494124E99124E92700331
:104E3400E9658370F6EE2488124E73124E92700365
:104E4400E9658370F675E1957908EE2494FAE43FF8
:104E5400FB120B417904EE2488FAE43FFB120B4168
:104E64007904120CFD124FA78002790002525B12E2
:104E74004E7E2404F8E43583F922F582E43FF58379
:104E8400E58222F582E43FF583E0F5D9EE22124D66
:104E9400BEE8658222124E7E2408F8E43583F922A6
:104EA40074F6121737EAFEEBFF90067C7406124F75
:104EB4005012194A7C017903120BA174021216DDF7
:104EC40075D90675D90375827C758306124F4870AF
:104ED40004E583640670F575E1959002E9E06408E1
:104EE4007010EE246FF582E43F124EFBEE24711233
:104EF40059B47901025022F583125BB22274F6127E
:104F04001737EAFEEBFF9061D0E0703390067C74B3
:104F14000A124F5012194A7C017903120BA1740230
:104F24001216DD75D90675D90375827C7583061250
:104F34004F487004E583640670F5124FA48002792B
:104F440000025022124DBEE582648122F075087C75
:104F540075090678082274F6121737EAFEEBFF90FB
:104F640061D0E07036780190067C740BF09002E911
:104F7400E06407701975087C750906780812194AE7
:104F84007C017903120BA174021216DD780512510B
:104F9400EF124DBADAFB124FA480027900025022BC
:104FA40075E195EE246F125BACEE2471F582E43F5B
:104FB400F583E8F0A3E9F079012274F612173712A9
:104FC40050F06004780480027800E8240BF8EAC307
:104FD4009840447C0990067C740812503C12504B53
:104FE400DDFB125A22601B75087C750906780812CD
:104FF400194A7903EEFAEFFB120BA174021216DDC3
:105004007C0D1250271250E870FB75E1957904125B
:105014000CFD124FA78002790080031216DD7F0277
:1050240002180912502D8C082274012CF5D975D957
:105034000375827C75830622F0EE24E5F8E43FF9DB
:105044007A7D7B067D082288828983E08A828B832D
:1050540012539EA3A882A9838A828B83A3AA82ABBC
:10506400832274F61217371250F060047804800219
:105074007800E82408F8EAC3984064780690067C2F
:10508400740CF0900306E090067DF0900307E09026
:10509400067EF0900308E090067FF0900309E0900C
:1050A4000680F090030AE090068112517F601B7520
:1050B400087C750906780812194A7C067903EEFA09
:1050C400120BA174021216DD780A1251791250E8FB
:1050D40070FB75E1957904120CFD124FA7800279DB
:1050E40000025022124DBE1508E50822EAFEEBFF2D
:1050F4009061D0E0F87480C398FA1251842274F657
:105104001217371250F06004780480027800E82403
:1051140004F8EAC398404B780290067CE8F0EE2449
:10512400F7125A2590067D12517F601B75087C7515
:105134000906780812194A7C027903EEFA120BA1C7
:1051440074021216DD78061251791250E870FB755C
:10515400E19512516B7904120CFDEE240D124FAA45
:1051640080027900025022EE241DF582E43FF5838B
:10517400E4F0A3F0221251F5880822F0125184229F
:10518400EE2483F582E43FF583E02274F6121737A8
:10519400124DC36004780480027800E82404F8EC1B
:1051A400C3984042780290067C7407F0EA24F8F52C
:1051B40082E43BF583E090067D124DE760197508A3
:1051C4007C750906780812194A7C027903120BA12E
:1051D40074021216DD78061251EF124DBADAFB751D
:1051E400E1957901800279000250221251F5E8FA22
:1051F40022740128F5D975D90375827C758306223A
:1052040074F7121737E9FFA2AFE433FEC2AF7C0094
:1052140080010C1252AC5010ECF8EA28F8E43BF987
:105224001259106F70EC8016EA246EF8E43BF9E032
:10523400FCEA2CFAE43BFB125249EF125393EEA220
:10524400E092AF8012EA246AF582E43BF58322F00F
:10525400EEA2E092AF79007F01021809C082C083F8
:10526400A2AFE433FDC2AF1252B414F07C00801D2F
:10527400ECF8EA28F8E43BF9E8246B125913C0E08F
:10528400E8246AF582E439F583D0E0F00C1252ACDC
:1052940040DEEA246DF582E43BF58374FF1252D9B3
:1052A400EDA2E092AF0248281252B4F8ECC398225F
:1052B400EA246EF582E43BF583E022C082C083A831
:1052C400A8C2AF125249E91252D9E8A2E7E433FA6C
:1052D400E8A2E780CEF0EA2469F582E43BF583E4B2
:1052E400F02274F3121737EAFEEBFFECFAEDFB8AB7
:1052F400828B83A3A3A3A3E0541FF0EE2436F5828C
:10530400E43FF583E4F0750A00EE245DFCE43FFD20
:105314008A828B83E08C828D83F0750B00E50A33DF
:10532400333354F8F50C8A828B83E0F50875090051
:10533400E50B7808121695E508A2E05027EE24360E
:10534400F8E43FF988828983E0F508EE2508F5083A
:10535400E43FF509E5082438F582E43509F583E5E9
:105364000C125393050B050CE50BC3940840B705C9
:105374000A8A828B83A3AA82AB838C828D83A3AC9B
:1053840082AD83E50AC3940540867F05021809129D
:10539400539904F02212539EE022F08882898322DA
:1053A40074F7121737900315E06403700302554134
:1053B4007C0075821B758303E0600302552BECF8B7
:1053C40075F00DA4C8AAF02AF9741928FA740339DF
:1053D400FB8A828B83A3A37401125563E4F0EC8AE5
:1053E400828B83A3A3A3A3F0125B2D7401F0EA24A0
:1053F40067F582E43BF583740112555DE4F0A31272
:10540400555DA3A3125573240FF582E43BF5837411
:1054140001F0EA24351255482418125578241C1238
:105424005548241D12556C247F1255482473125577
:105434004824821255482468F582E43BF58374803D
:105444001252D9EA246E12554824ED12554824EE1E
:1054540012554824EF12554824F012554824F112ED
:10546400556C24F312556C24F612554824831255B6
:105474004824D312554824D412554824D5125578BB
:1054840024D912557824DF12554824E112554824B2
:10549400DD12554824E212554824E312554824F9F4
:1054A40012556C24FB12556C24FD12556C24FF120A
:1054B400556C240C125552240612555224071255C9
:1054C4005224081255522409125552240A125552D4
:1054D400240B12555212524A74FF7804F0A3D8FCDC
:1054E400EA245DF8E43BF97C407D0612558C644562
:1054F4007003ED640670F4EA24E5F8E43BF97CFDFE
:105504007D0212558C64057003ED640370F49003FE
:1055140015E004F0640170298A828B83A3A3A3A3FA
:10552400E0900317F0801A0CE582240DF582E583E0
:105534003401F583ECC3940350030253BC7A007B1B
:105544000002525BF582E43BF583E4F0EA22F58243
:10555400EB3401F583E4F0EA22125563A3A322F0AD
:105564008A828B83A3A3A322F582E43BF583E4F030
:10557400A3F0EA22F582E43BF583125583EA22E4A0
:10558400F0A3F0A3F0A3F022124DD5A882A983ECD6
:1055940022C082C0838A828B83A3A3A3E0600F8A84
:1055A400828B83A3A3A3E4F0900316E014F090038A
:1055B40015E014F0700690031774FFF08A828B8351
:1055C400A3A3E4F0900645E0700D900316E0640197
:1055D40070057900120CC7024828C082C083781B6A
:1055E400790388828983A3E412539EF01257E1E879
:1055F40064427003E9640670E9900315E4F0A3F0D3
:10560400A374FFF075E1F102482874F51217377599
:105614000800750900750A007E197F038E828F8346
:10562400A3A3A3E0602BE5084509601D85088285D6
:10563400098312567B12195D12567712159D122298
:105644000B74041216DDE97008EEF8EFF988088986
:1056540009050AEE240DFEEF3401FFE50AC39403A5
:1056640040BA850882850983A3A3A3A3E0F97F0335
:105674000218098E828F83125B50A3A32274EE1248
:1056840017378A0A8B0B8C08890C900316E0F8E90B
:10569400C39850627AFF7BFF7C0078197903888273
:1056A4008983A3A3A3E0603F74FF6A700374FF6B54
:1056B400700CE82473125913640170218012E824D9
:1056C400731259136401700DE824791257EA5017C4
:1056D400E82479800BE8242E1257EA500AE8242E95
:1056E400125913FAA3E0FB0C1257E1ECC3940340E4
:1056F400ADEAFEEB8018E96010A3E0F875F00DA4A4
:10570400C8AAF02A1257F78005EA2AFEEB33FF8E67
:105714000E8F0F7403780E1216A5900316E0F8C3CB
:10572400E50E98E50F940050030257CDE50A25E0F5
:10573400F50AE50B33F50BE50825E0F508ED33F53F
:1057440009AC0AAD0B8007EC2402FCE43DFDC3E583
:10575400089CE5099D4060C3EC9EED9F403FECF83A
:10576400EDF9EEFAEFFB12163C8B0FEA450F6006DB
:105774008E0E8F0F8006750E00750F00ECF8EDF994
:10578400EEFAEFFB12163C8A108B11EC9510F8ED33
:105794009511F9E8250EFCE9350FFD801AE0F8E5CE
:1057A4000CC3985012EEF8EFF9ECFAEDFB12163C2C
:1057B4008B0FEA450F7090C3EC950AED950B4009E9
:1057C400C3E5089CE5099D50067AFF7BFF8009EC40
:1057D400FAEDC313FBEA13FA7F0A021809E8240D51
:1057E400F8E93401F922F582E439F583C3E09AA398
:1057F400E09B22F9744728F582740339F583E0FEAF
:10580400A3E02274F612173774FC1216C7EAFEEBF3
:10581400FF8044EE2463F8E43FF97A007B00A2AFF2
:10582400E433F508C2AF88828983E0FCA3E0FDEC91
:105834004D600F125B6B700A88828983A3A3E4F026
:10584400A3F0E508A2E092AF121207900646E00426
:10585400F0900647E004F0EE2463F582E43FF5831C
:10586400125BA670AE900647E060358E828F83A3EC
:10587400A3A3A3E0851882851983F0A3E4F090061E
:1058840047E0F87402121713E8F0A3E4F07402126C
:10589400172DAA18AB19790112082F900647E4F0C6
:1058A400EEFAEFFB120AEDEEFAEFFB120C2574048C
:1058B40002501F74F7121737EAFEEBFF8E828F83B4
:1058C400A3A3A3A3E0FA7B00120805EEFAEFFB12F0
:1058D4000B05120C0702525BC082C0837A00781950
:1058E400790388828983A3A3A3E06011E8246E125C
:1058F4005913600912591070047901800C0A125767
:10590400E1EAC3940340DB7900024828E8246AF5FD
:1059140082E439F583E022C082C083E49002FD78FA
:1059240008F0A3D8FC9002FD0402449C74F71217FB
:105934003774FC1216C78518828519831255831291
:105944000B47E9851882851983F0120B47740112FD
:105954001713E9F0120B477402121713E9F08518B4
:105964008285198312159D74041216DD02525B742C
:10597400F6121737EAFEEBFFEC2403F8E43DF9884E
:10598400088909EC2407F8E43DF9E8FCE9FD12591B
:10599400C012163CEE240D1259B41259C012163C12
:1059A4008B09EA45096006EE240D1259D3025022F0
:1059B400F582E43FF583E8F0A3E9F0228C828D833D
:1059C400125BB2850882850983E0FAA3E0FB22F525
:1059D40082E43FF583E02401F0A3E03400F0227474
:1059E400F6121737EAFEEBFFEE242E125A25FCA31B
:1059F400E0FD780079FAECFAEDFB12163CEE246F28
:105A04001259B4780079FAECFAEDFB12163C8B09C2
:105A1400EA45096006EE246F1259D3025022EE249F
:105A240083F582E43FF583E02274F4121737EAFE2B
:105A3400EBFF120C978A088B098C0A8D0B9082BCA1
:105A440078081214E59082EC78081215467808124A
:105A5400194612567712159D12220B74041216DD84
:105A6400E96003025B178E828F83E02402F8A3E0CF
:105A74003400F9E8FAE9FB740C12171378081215CC
:105A84007F8A828B8378081214F89082EC7808124B
:105A9400157F8A828B837808121559EE240BF582C0
:105AA400E43FF583C082C0838E828F83A3A3A3A324
:105AB400A3E02401F8A3E03400F9D083D082E068A5
:105AC4007003A3E06970047901804A8E828F83A3F6
:105AD400A3A3A3A3A3A31259D9EE2473125A256432
:105AE400017013EE2474125B1C7003A3E06970064A
:105AF400EE24741259D3EE247F125A2564017013D4
:105B0400EE2480125B1C7003A3E0697006EE24800F
:105B14001259D379000247E9125BAC8E828F83A3BA
:105B2400A3A3A3A3A3A3E06822EA2462F582E43B2F
