:020000040000FA
:060000000201070220E1ED
:03002B0002252982
:0300330002250B98
:03004B0002255536
:0300530002215730
:03006B000224E587
:10008300021F37E5C754F84401F5C7790122000080
:100093000080FB120086B900030200F1E4792178A5
:1000A30008B800028004F709D8FCE479297802B87B
:1000B30000028004F709D8FCE490028178BA79132E
:1000C3008002F0A3D8FCD9FA7A3A7B1590013778ED
:1000D3006979038015E493A3AD82AE838A828B830F
:1000E300F0A3AA82AB838D828E83D8E9D9E7758288
:1000F3005175839D74031201197582917583007480
:100103000012011975D00075814F75188175190298
:10011300759F00020096C09FF59FE473D09F22D085
:1001230083D082C09FE493C0E0740193C0E0740263
:1001330093F59F22FF0000B4000028002800283018
:1001430075A000A000A000A00000080008E001F0D6
:10015300001000100010001000100010005000509C
:1001630000500010001000D0070000000000000F36
:100173000001000500307507001000010081FF0039
:10018300000000FFFFFFBB05D905C105FD05FF0208
:10019300020208025000A0000000E803025581019A
:1001A300000042810269810100009515025181011D
:1001B3000000BD02026981010000961502678101FA
:1001C3000000D302026981010000971502498101F1
:1001D3000000D502026981010000981502538108CD
:1001E3000000D602026981010000991502458101D0
:1001F30000009A15FF0100FF17006F0C6F0C6F0CC6
:100203006F0C6F0C6F0C6F0C6F0C6F0C6F0C6F0C13
:100213006F0C6F0C150F270F0F0F01E803057710F5
:100223000AFFFFFF000853746172742054696D65FF
:100233007220436F6E7400024765742054696D65C4
:100243007220436F756E74200008537461727420BA
:100253004761732043616C696272000247657420D1
:10026300476173204D6F6E69746F72200008416C93
:1002730061726D20636F6E74726F6C2020200002B8
:1002830054303030303031446576696365204E61D7
:100293006D65206368617200025581010000B980B9
:1002A3000269810100002B16025B81030000B9146F
:1002B300024D810100002C160269810100003D16E8
:1002C300025D81030000BA14024D810100003E1655
:1002D3000269810100004F16025F81030000BE1412
:1002E300024D810100005016026981010000611670
:1002F300026181010000BF14024D810100006216FA
:100303000269810100007316026381030000C314B4
:10031300024D8101000074160269810100008516F7
:100323000265810100008616024D810100008D16D1
:100333000130750302010600000000000000000008
:1003430000000000000000000000000000000000AA
:10035300000000FFFF0600800CE8030A0950414D2E
:100363006F6E69746F72051201000100020A0002C8
:1003730001060302F0FF0AFF0D0D54303030303018
:100383003153696D706C6520424C4520506572692C
:1003930070686572616C3B13000041131201224FB8
:1003A300F90212012262F90212012293F9021201E7
:1003B30022CDF90212012226FA021201226DFA025B
:1003C300120122B5FA02120122E4FA0212012213E7
:1003D300FB021201224AFB0212012291FB021201CB
:1003E30022AAFB02120122FFFB021201222DFC02B0
:1003F30012012267FC02120122ACA802120122AFF1
:10040300A902120122E8A9021201220BAA02120177
:10041300221DAA021201225BAA02120122D7AA02FA
:100423001201229FAB02120122C1AB021201225818
:10043300AC02120122AAAC02120122DBAC021201AD
:1004430022E8AC0212012252AD02120122A9AD022E
:10045300120122ACAD02120122E5AD02120122E823
:10046300AD02120122F2AD0212012246AE021201C6
:100473002287AE02120122BAAE02120122F7AE02A5
:10048300120122F9AF021201229DB00212012206CB
:10049300B10212012244B102120122D2ED02120171
:1004A30022FAED0212012227EE021201225FEE026E
:1004B300120122BDEE0212012209EF021201227083
:1004C300EF02120122B0EF02120122EDEF0212013C
:1004D300221BF002120122C5F002120122CFF00208
:1004E300120122DCF0021201220FF1021201221B7F
:1004F300F10212012233F1021201223DF102120133
:10050300225E99031201226C99031201228499033A
:100513001201229B9903120122E66D00120122901F
:100523006E00120122A36F001201221F700012013C
:10053300223D71001201227971001201221472000E
:10054300120122F87200120122C473001201225216
:100553007500120122C375001201227D760012017B
:10056300226F7700120122AF770012012263780015
:100573001201229578001201228B7A00120122CDFA
:100583007A00120122EB7A00120122517B00120140
:1005930022207C00120122E47C00120122037F004E
:1005A3001201226DC10212012257C202120122025C
:1005B300C30212012253C30212012203C402120115
:1005C3002274C40212012259C5021201228DC502EE
:1005D30012012286C602120122C3C6021201229F01
:1005E300C702120122DEC702120122FAC702120158
:1005F30022518A03120122D58A03120122008B039E
:100603001201221A8C03120122CBF102120122E100
:10061300F102120122FFF10212012210F302120170
:10062300221AF30212012245F4021201223CF502BE
:10063300120122A9F5021201223893031201227535
:100643009403120122FA93011201228694011201EA
:1006530022EA9501120122F6950112012231960137
:10066300120122A09601120122A99701120122B2BE
:100673009801120122799901120122D69A011201DD
:1006830022F49A01120122119B01120122DC9B0127
:10069300120122049C01120122CE9E01120122D3D7
:1006A3009E01120122ECA0011201223AA1011201C2
:1006B30022AAA101120122E8A101120122C4A2016E
:1006C30012012284A301120122D0A301120122D319
:1006D300A30112012217A4011201225FA401120136
:1006E300229EA401120122C0A401120122F4A4013A
:1006F30012012257A501120122DBD202120122E9C3
:10070300D2021201223CD3021201225BD302120154
:1007130022A0D302120122E4D4021201227FD502C5
:10072300120122C3D502120122EDD5021201225C6D
:10073300D602120122A2D60212012219D7021201F5
:1007430022CAD7021201228025001201229025001D
:100753001201223126001201228D26001201224AA3
:1007630027001201226B28001201229A280012018D
:1007730022472A00120122BE2C001201222E2F0032
:10078300120122203000120122193100120122200D
:1007930033001201221436001201224337001201E2
:1007A30022473900120122573A00120122E63B0088
:1007B300120122D73C00120122253D00120122948E
:1007C3003D00120122B83D001201225942001201DC
:1007D300225A4300120122BB4300120122E64300C6
:1007E300120122AC4400120122C9CD02120122D30C
:1007F300CD0212012218CE021201222CCE021201C6
:1008030022BCCE02120122F5CE0212012230CF0207
:1008130012012259CF02120122ADCF02120122C2CC
:10082300CF02120122E4CF02120122F9CF021201F8
:10083300220DD00212012222D0021201225CD00228
:1008430012012288D002120122B6D0021201220123
:10085300D10212012263D102120122D5D102120167
:10086300221BD2021201225ED20212012288D2027C
:10087300120122B3D2021201225096031201221056
:100883008B02120122F38B021201226E8C021201DF
:1008930022A98C02120122FA8D02120122888E02F1
:1008A3001201221A9102120122CC9102120122D8C2
:1008B30092021201224B9402120122A49402120109
:1008C3002226E10212012269E102120122EDE10274
:1008D300120122C4E402120122DD85031201228FD8
:1008E30086031201228B8703120122CA8703120196
:1008F30022248803120122498C03120122AC8C03A7
:10090300120122498D031201227E8D03120122AEB0
:100913008D03120122E98D03120122098E031201B4
:1009230022DCD70212012268D80212012227D9023F
:100933001201223FDA0212012259DC021201228340
:10094300F101120122A8F10112012275F201120133
:100953002249F301120122B6F301120122F6F30137
:1009630012012292F401120122C6F501120122A101
:10097300F60112012200F7011201228CF701120184
:1009830022FAF70112012286F801120122CCF801A2
:100993001201223EF901120122D0F9011201227142
:1009A300FA0112012291FA01120122D9FA0112016C
:1009B3002222FB011201223EFB0112012264FB01F0
:1009C300120122DEFB01120122ECFB011201227B48
:1009D300FC01120122E4FC0112012290DC0212014B
:1009E3002215DD0212012257DD021201223BDE0233
:1009F300120122A8DE02120122ECDE0212012230D1
:100A0300DF021201225DDF0212012285DF021201E1
:100A130022BDDF02120122FBDF0212012222E002C9
:100A23001201229CE002120122E6E0021201226C72
:100A330081011201220B830112012243850112015C
:100A430022978501120122C285011201229E86018D
:100A5300120122CE8601120122FD8601120122100B
:100A630087011201225187011201227E870112019F
:100A730022CC87011201220888011201224D88012C
:100A83001201229A880112012214890112012255AE
:100A93008B011201223F8D011201227B8D01120174
:100AA300220A8F011201224F8F01120122C28F01EC
:100AB3001201221790011201221C9001120122C57A
:100AC30090011201229191011201221B9201120144
:100AD30022A79201120122C69301120122D7930188
:100AE3001201220D9F02120122869F02120122404F
:100AF300A5021201224BA602120122F4A70212013F
:100B03002282A802120122B25900120122335A0092
:100B1300120122605A00120122A95A00120122AACC
:100B23005B00120122EE5B00120122245C00120121
:100B330022A05D00120122225E001201223D5E000E
:100B4300120122AE5E001201226B5F001201222EFF
:100B53006000120122BC60001201227361001201C5
:100B6300228661001201221F6200120122B6620076
:100B7300120122DD6200120122466300120122905B
:100B83006300120122DE630012012283640012015A
:100B930022216500120122AE65001201221F6600A8
:100BA300120122666600120122BE6600120122F0C3
:100BB3006600120122AA6700120122B16800120125
:100BC30022FA680012012217690012012236690015
:100BD300120122696A00120122206B0012012245D0
:100BE3006B001201225A6B00120122CA6B00120120
:100BF300220B6C001201222F6D00120122B06D0036
:100C03001201224D9502120122989502120122A48B
:100C130095021201227896021201228F9602120186
:100C230022CC9602120122FD96021201223597026E
:100C33001201228B9702120122A19702120122DDD7
:100C43009702120122F09702120122179802120151
:100C5300224B9802120122719902120122BB9A02BD
:100C6300120122B79B02120122D49C02120122FA22
:100C73007F0012012251B8011201228CB801120126
:100C830022DEBB011201223ABD01120122F9BD018C
:100C930012012260C1011201224AC20112012296ED
:100CA300C201120122B0C201120122EDC2011201DE
:100CB30022F8C20112012237C30112012240C301EB
:100CC300120122EAC301120122C1C4011201221539
:100CD300C50112012272C501120122E4C5011201EC
:100CE300222FA6011201228EA90112012294A90129
:100CF300120122C5B001120122CCB401120122005B
:100D03008003120122DD80031201222181031201DB
:100D1300225B8103120122F3810312012262820307
:100D23001201226B820312012277820312012291A4
:100D33008203120122BB8203120122EB82031201FE
:100D43002276E50212012283E5021201229DE502C9
:100D5300120122D0E5021201220EE60212012273D1
:100D6300E60212012288E60212012293E602120130
:100D730022A0E602120122B7E602120122C5E60210
:100D8300120122D0E602120122DCE602120122EB5A
:100D9300E602120122F6E60212012219E70212010B
:100DA30022BDE702120122CDE702120122E7E70288
:100DB30012012204E8021201221FE8021201224456
:100DC300E8021201224FE80212012264E802120132
:100DD3002278E802120122D9E802120122DFE80296
:100DE300120122E5E802120122EBE80212012203BA
:100DF300E90212012236E90212012200E401120182
:100E03002297E4011201222FE5011201221FE601BC
:100E130012012256E60112012269E601120122D7CC
:100E2300E60112012272E80112012299E80112017E
:100E3300223BE90112012270E90112012281E90139
:100E4300120122FAE9011201221BEA0112012233E3
:100E5300EA011201228BEB0112012294ED0112012E
:100E630022E4EF01120122E7F00112012236F1011F
:100E730012012233C70112012230C8011201221BC1
:100E8300C90112012225C90112012247C901120118
:100E93002253C901120122A5CA01120122D4CA0197
:100EA30012012204CC0112012246CC01120122724A
:100EB300CD0112012248CE011201229ACE01120164
:100EC30022F9CE0112012230CF011201226BCF0190
:100ED30012012206D3011201221FD301120122A102
:100EE300D301120122AFD30112012204D401120152
:100EF3002212D4011201227FD401120122F1D40162
:100F030012012237D501120122008002120122228E
:100F130080021201220C8202120122B18502120107
:100F230022F48602120122CE8702120122E48F03E9
:100F33001201220990031201227A90031201226AFC
:100F4300B10212012273B1021201227CB102120119
:100F530022ADB202120122CCB40212012202B50266
:100F63001201223CB50212012272B502120122AC17
:100F7300B502120122E0B5021201220CB6021201DF
:100F83002255B6021201228FB602120122D7B602EF
:100F93001201222DB70212012262B702120122BDF1
:100FA300B702120122F7B70212012248B802120156
:100FB300227EB802120122B8B802120122E6B80258
:100FC30012012209B902120122DF9A031201220B34
:100FD3009B03120122669B03120122709B031201E1
:100FE30022809B03120122A99E03120122A49D03C6
:100FF3001201221845001201227C470012012233FC
:101003004900120122904900120122924A00120162
:10101300221A4B00120122A14B00120122C64B00DF
:10102300120122BB4E00120122314F001201222075
:1010330050001201225A50001201229A500012014C
:10104300223A52001201228F5200120122DC520076
:101053001201224A53001201227053001201228A04
:101063005300120122A05400120122B054001201B5
:10107300223656001201225656001201228C5600C7
:101083001201221058001201224F58001201228D22
:101093005900120122178E031201227B8E031201C3
:1010A300222A8F03120122498F031201229D8F03EB
:1010B3001201222B9A031201223C9A03120122EEFF
:1010C3009D031201222D9E03120122E97F001201CA
:1010D300228A9B031201229A9B03120122AF9B03D4
:1010E300120122179C03120122649703120122E8C2
:1010F30097031201224E9803120122D29403120184
:1011030022FB9403120122689503120122BC95036A
:10111300120122159603120122B3F502120122CA0B
:10112300F50212012243F60212012218F7021201FC
:1011330022EAF802120122107F00120122397F00F5
:10114300120122627F00120122A47F001201225B9E
:10115300C80212012265C802120122A5C8021201A7
:1011630022EEC80212012228C9021201227EC902FC
:101173001201229DC902120122A6C902120122F7FD
:10118300C90212012220CA0212012235CA02120127
:1011930022A5CA0212012233CB0212012277CB020B
:1011A3001201229FCB021201221ECC0212012261E4
:1011B300CC021201229ECC02120122B0CC021201F7
:1011C30022CFCC02120122D8CC021201229DCD02E1
:1011D3001201229A9103120122EB9103120122744C
:1011E3009203120122DA92031201221983031201DC
:1011F300224383031201223D84031201226C8403E0
:10120300120122F284031201226798031201224F72
:101213008803120122858803120122BE880312016A
:1012230022178A031201221A9C03120122309C0303
:101233001201223A9C03120122F29C03120122970B
:10124300B90212012254BA021201228FBA02120108
:1012530022B7BA0212012219BB0212012265BB0294
:10126300120122D0BB021201224CBC0212012248FD
:10127300BD02120122CFBE0212012252BF0212018D
:1012830022B6BF02120122CDBF02120122C3C00245
:101293001201220FC102120122B8E902120122CD6A
:1012A300E90212012280EA02120122C0EA021201BB
:1012B30022D9EA021201220CEB0212012259EB029B
:1012C3001201228DEB02120122CFEB02120122C581
:1012D300ED0212012207FD011201222EFD0112016E
:1012E300224BFD01120122A7FD0112012292FE01F0
:1012F300120122C0D50112012277D901120122095C
:10130300DB0112012260DB011201227FDB011201EA
:1013130022FDDB011201228FDD0112012273DE01A6
:1013230012012284E20112012258E301120122CFA9
:10133300FC021201226EFE021201220FFF021201B1
:1013430022B9FF02120122909C03120122AE9C03D8
:10135300120122C89C03120122379E031201227D2F
:101363009E03120122D39E03E066701008A3E06679
:10137300700A08A3E066700408A3E06622C3E79638
:101383000809E7960809E7960809E79622C3E09655
:1013930008A3E09608A3E09608A3E09622C008C33A
:1013A300E096F50808A3E096420808A3E0964208F1
:1013B30008A3E09645087001D3D00822080808EA7C
:1013C300C0E0EBC0E086F0E7A4FA180986F0E7A4D2
:1013D3002AFA180986F0E7A42AFA180986F0E7A47E
:1013E3002AFA1986F0E7A4FBE5F02AFA190886F031
:1013F300E7A42BFBE5F03AFA190886F0E7A42BFBE8
:10140300E5F03AFA18180986F0E7A4C5F02BFBE4D7
:101413003AFA1908E7C5F0C6A426F6E5F03BFBE463
:101423003AFA1886F0E7A4F6E5F00826F6E43B0856
:10143300F6E43A08F6D0E0FBD0E0FA22E4CFC0E0CD
:10144300E4CEC0E0E4CDC0E0E4CCC0E075F020E63B
:1014530026F608E633F608E633F608E633F61818F8
:1014630018EC33FCED33FDEE33FEEF33FFC3EC97A3
:1014730009ED9709EE9709EF97191919400FFFEC3A
:1014830097FC09ED97FD09EE97FE191906D5F0BFF4
:10149300ECF709EDF709EEF709EFF7191919D0E0A1
:1014A300FCD0E0FDD0E0FED0E0FF22601608080883
:1014B300C6C313C618C613C618C613C618C613C6A2
:1014C300D5E0EA227009080808226016181818C621
:1014D300C333C608C633C608C633C608C633C6D523
:1014E300E0EA22E627F60809E637F60809E637F6C2
:1014F3000809E637F622E026F608A3E036F608A345
:10150300E036F608A3E036F622E026F008A3E0363C
:10151300F008A3E036F008A3E036F022C3E697F61E
:101523000809E697F60809E697F60809E697F6220A
:10153300C3E096F008A3E096F008A3E096F008A3B2
:10154300E096F022E056F608A3E056F608A3E0562C
:10155300F608A3E056F622E056F008A3E056F0089A
:10156300A3E056F008A3E056F022E0F608A3E0F665
:1015730008A3E0F608A3E0F622E6F008A3E6F008E5
:10158300A3E6F008A3E6F022E0FAA3E0FBA3E0FC65
:10159300A3E0FD22E0F8A3E0F9A3E0FAA3E0FB2235
:1015A300E8F0A3E9F0A3EAF0A3EBF022CAC0E0E677
:1015B300F0A308DAFAD0E0FA22CAC0E0E0A3C582B9
:1015C300CCC582C583CDC583F0A3C582CCC582C5F6
:1015D30083CDC583DAE6D0E0CA22C3E498F8E49960
:1015E300F912161E8026C3E49AFAE49BFBE920E76E
:1015F300E912161EE498F8E499F922C3E498F8E492
:1016030099F912161EE498F8E499F9C3E49AFAE4F6
:101613009BFB22EB20E7CFE920E7E0B90010BB00FA
:1016230008E88AF084F8AAF022E4FBC8FA22EB70F7
:10163300227B10C833C8C933C9335007C39AC3DBED
:10164300F280069A50012ADBEAC833F4C8C933F49E
:10165300C9FA2275F008E4C833C8C933C933C99A33
:10166300C99B5004C92AC93BD5F0ECFBC833F4C865
:10167300E4C9FA22600D08C6A2E713C618C613C64A
:10168300D5E0F322600C08C6C313C618C613C6D52B
:10169300E0F422700422600D18C6C333C608C633B3
:1016A300C6D5E0F41822251810AF08F518400C151C
:1016B300198008F51840021519D2AF2200C0D025B1
:1016C3001810AF08F518500C05198008F5185002CA
:1016D3000519D2AFD0D0222518F58210AF08F5181E
:1016E300400C15198008F51840021519D2AF851959
:1016F30083222518F582E43519F583222518F8E4A9
:101703003519F9222518FAE43519FB222518FCE4CA
:101713003519FD22E4732518C582C0E0E51934FFAD
:10172300C583C0E0E518C3958224F810AF0885830C
:10173300198582188008858319858218D2AFCEF067
:10174300A3E520F0A37808E608F0A3DEFAEFF0A300
:10175300E58124FAF8E608F0A3E608F0A3E608F02A
:10176300A30808E608F0A3E608F0A315811581D0C5
:10177300E0FED0E0F8158115811581E8C0E0EEC0E8
:10178300E0222518C582C0E0E51934FFC583C0E017
:10179300E518C3958224F910AF088583198582184B
:1017A3008008858319858218D2AFCEF0A3E520F097
:1017B300A37808E608F0A3DEFAEFF0A3E58124FBA3
:1017C300F8E608F0A3E608F0A30808E608F0A3E6A5
:1017D30008F0A315811581D0E0FED0E0F81581153E
:1017E30081E8C0E0EEC0E022851983851882E0A37A
:1017F300FEE0A3F5207808E0A3F608DFFAE0A3FFF4
:10180300E0A3C0E0E0A3C0E0E0A3C0E0E0A3C0E049
:10181300E0A3C0E010AF088582188583198008858E
:101823008218858319D2AFD083D08202011F851914
:1018330083851882E0A3FEE0A3F5207808E0A3F6F1
:1018430008DFFAE0A3FFE0A3C0E0E0A3C0E0E0A369
:10185300C0E0E0A3C0E010AF08858218858319803B
:1018630008858218858319D2AFD083D08222C0D055
:101873002518C582C0E0E51934FFC583C0E0E5182B
:10188300C3958224F310AF088583198582188008D5
:10189300858319858218D2AFC8F0A3E9F0A3EAF0D3
:1018A300A3EBF0A37908E709F0A3D8FAECF0A3EDD2
:1018B300F0A3EEF0A3EFF0A3D0E0F0A3D0E0F0A309
:1018C300D0E0F0A3E520F0A3E5F0F0A3228519838F
:1018D300851882E0C0E0A3E0F9A3E0FAA3E0FBA34C
:1018E3007808E0F608A3DFFAE0FCA3E0FDA3E0FE3E
:1018F300A3E0FFA3E0C0E0A3E0C0E0A3E0F5D0A332
:10190300E0F520A3E0A3F5F010AF088583198582E5
:10191300188008858319858218D2AFD082D083D0EE
:10192300E0F8D0E03274048006740280027401C0CF
:10193300E0F4041216DAD0E01215AF227404800426
:1019430074028000CCC0E0EDC0E0E518C39CCCADD0
:101953001950011D10AF068C188D1980068C188D37
:1019630019D2AF1215BCD0E0FDD0E0FC22D083D059
:1019730082E9C0E0E493A3C386F0C5F095F0F908CB
:10198300E493A386F0C5F095F0700BE493A3C39999
:101993004005E9048002A3E475F002A42582F582E0
:1019A300E5F03583F583D0E0F9E493A3C0E0E49355
:1019B300C0E022D083D082ECC0E0EDC0E0E493A38A
:1019C300FCE493A3FDED4C600D121A02EC24FFFC22
:1019D300ED34FFFD80EFE493A3FCE493A3FDED4C12
:1019E300600D121A41EC24FFFCED34FFFD80EFD0B3
:1019F300E0FDD0E0FCE493A3C0E0E493C0E022C0A8
:101A0300E0C3E49396087401939618400FE4936639
:101A1300700808740193661870007019A3A3C3E4D7
:101A23009396087401939618A3A3400DD0E0D0E0D9
:101A3300D0E00219F2A3A3A3A3A3A3D0E022C0E0A2
:101A4300C0F088F0E4936670080874019366187018
:101A530000A8F0A3A3700BD0F0D0E0D0E0D0E00258
:101A630019F2A3A3D0F0D0E02274F6121785EAFE90
:101A7300EBFF8C088D09EE2434F8E43FF9E8FCE928
:101A8300FDEE2435121D7FFAEE2437121D7FF885F3
:101A930008F0A4C885F00A8509F0A4250AF9EA2804
:101AA300F8E439F97A257B0012161EEA8C828D83BD
:101AB300F0FA131313541FF8EE28F8E43FF9E8245F
:101AC3005DF582E439F583E0C0E074075AF8D0E0AD
:101AD300B800028004C313D8FCA2E0EE50082434FB
:101AE300F582E43F80182436121D7FF5F0EA84A8BE
:101AF300F0EE28F8E43FF9E82438F582E439F58379
:101B0300E0F97F0302183174F7121785EAFEEBFF41
:101B1300EE2434121D7FC0E0EE2435F582E43FF558
:101B230083D0E0F08E828F83A3A3A3A3A3A3A3C038
:101B330082C0838E828F83A3A3A3A3A3E0F8A3E031
:101B4300F9D083D082E0C398F508A3E099F509EEB4
:101B5300247F121D7F6401703EEE2480F582E43FF2
:101B6300F583C082C0838E828F83A3A3A3A3A3E044
:101B7300240108A3E03400F9D083D082E068700325
:101B8300A3E06970127CAF7D04120BAFEE247FF5E6
:101B930082E43FF583E4F0AC08AD09EEFAEFFB1203
:101BA3001A6CE9F91224D77F02021831C082C0836C
:101BB300851882851983E0F8A3E0F9C3EA9CEB9DBD
:101BC3005010C3EC98ED99401BC3EA98EB9950145D
:101BD300800EC3EA98EB994007C3EC98ED99400453
:101BE300790180027900D083D08222EAC39CFAEB88
:101BF3009DFB2274EF121785900374E0640860055F
:101C0300E06407702A9061C8E060249003A2E0F4C6
:101C1300601DE0F875F00BA4C8AAF02AF974A42893
:101C2300FE740339FF8E828F83A3A3A3E0700302A4
:101C33001D04906060E0C0E0EE2468F582E43FF5A7
:101C430083D0E0F0750C1F750D057508007509004C
:101C5300E5D914F50AE5D95403F50E60127403654A
:101C63000E6043E50A600AEE2467121D7F7002804E
:101C73007590051AE06401601F121D7C60047A04EC
:101C830080027A00E50AC39AFA95E0FB120A418AB8
:101C9300088B09EA45097005120DDD8064121D7C6D
:101CA30070048A0C8B0DE50A6012850C82850D8306
:101CB300F50BE5D9F0A3150BE50B70F6121D7C604F
:101CC3004474FC250AF50A780C12192CAC0AA90EE7
:101CD300EEFAEFFB120C6974021216BFE97026AA22
:101CE30008AB091211D9793D8E828F83A3A3A3A3D5
:101CF300E0FA7B001208A3EEFAEFFB120BD3120CEF
:101D03007B7900806F7403650E6051850A1075112D
:101D130000781012192CAC0CAD0DAA08AB09120CEB
:101D23002D74021216BFEE2468121D7F64807004A6
:101D3300747F8001E0F50C780C121930E50EF50C78
:101D4300780C121930A90AAC08AD099003A2E0FA85
:101D53007B0012087974021216BF8013900374E09B
:101D63006408600BAC0CAD0DEEFAEFFB120CF31232
:101D73000DE979017F0A021831EE2483F582E43FED
:101D8300F583E02274F212178574FC1216A9EAFE99
:101D9300EBFF8909A2AFE433F508C2AF021E51E09D
:101DA300601B780C12192CAC0BA90EEEFAEFFB1288
:101DB3000C6374021216BF7404250BF50B74012512
:101DC3000BF5D9850ED9E50B6018F50A850C8285CC
:101DD3000D83E0F5D9A385820C85830D150AE50AE9
:101DE30070EA75E195EE2463F8E43FF97A007B002D
:101DF300A2AFE433F50BC2AF88828983E0FCA3E092
:101E0300FDEC4D603A88828983E0FAA3E0FB8A8285
:101E13008B83E0FCA3E0FD88828983ECF0A3EDF0E3
:101E23008A828B83E4F0A3F088828983E0FCA3E0B9
:101E3300FDEC4D700A88828983A3A3E4F0A3F0E547
:101E43000BA2E092AF1211D99004B6E004F0EE2495
:101E530063121D7FF8A3E0F9E8496064EE2463127E
:101E63001D7F2402F8A3E03400F988828983E58288
:101E73002402F50CE43583F50DE0F50BA3E0F50E34
:101E8300EE2462121D7F640170369061D0E0F81277
:101E93001D7C60047C0480027C007480C398FA95E6
:101EA300E0FBE50B2CF8E43400F9E82402F85001D8
:101EB30009C3EA98EB99A2D265D0334003021DA26D
:101EC3009004B6E0604D9004B7E0F89004B6E0C328
:101ED30098500C74026509703A9004B8E060348E2F
:101EE300828F83A3A3A3A3E0851882851983121F7E
:101EF3002674021216F5E8121F269004B5E028F0A6
:101F0300740212170FAA18AB1979011208CD9004A5
:101F1300B6E4F0E508A2E092AF74041216BF7F079F
:101F2300021831F0A3E4F09004B6E0F8228521878B
:101F33008522C622C0E074EB121871A2AFE433F518
:101F430008C2AF759B00906182E0A2E05030E5913A
:101F5300A2E0502A7591FE7401652170211220CAF6
:101F6300120D351220B812193F1222817404121671
:101F7300BFE9640170057901120D71121BF69061BE
:101F830082E0A2E5505DE591A2E550577591DF909F
:101F93000374E064076005E06408702F1220CA74BC
:101FA300016521703E120D351220B812193F12221D
:101FB3008174041216BFE9640170057901120D7171
:101FC3007901EEFAEFFB121D878018E0640D7013A0
:101FD300900396E004F064287002E4F07A00E0F9DC
:101FE300120DEF906182E0A2E6400302208DE5919D
:101FF300A2E6400302208D7591BF900374E064054F
:102003007008120D1D120D298003120D2375210076
:10201300120D7DE9900375F07900120D71120B1901
:102023007A017B00900373E0F91211A9907803E021
:102033006442705690051EE014F0704EC2AF122039
:102043004400782AD0E0F618D0E0F6E59F5407F86C
:102053007005750DFF8003750D7FC4C0E07829E618
:10206300F50A08E6550DF50B740B780A121687D09E
:10207300E0250AF8906270E0A2E740F8E8C33390E5
:102083006272F0906270E0D2E0F0906181E0A2E3CE
:102093005009E5E9A2E3500375E9F7A3E0A2E7508D
:1020A30009E591A2E7500375917FE508A2E092AF9D
:1020B3007F080218D08E828F83E0F8A3E0C824162D
:1020C300F582E438F583229003A2E0F875F00BA4BF
:1020D300C8AAF02AF974A428FE740339FF22C0E0C9
:1020E300C0D0C082C083906183E0A2E05009E5BF05
:1020F300A2E0500375BFFEE0A2E15009E5BFA2E1F3
:10210300500375BFFDE0A2E25009E5BFA2E2500310
:1021130075BFFBE0A2E35009E5BFA2E3500375BF1F
:10212300F7E0A2E45009E5BFA2E4500375BFEFE076
:10213300A2E55009E5BFA2E5500375BFDFE0A2E6C3
:102143005009E5BFA2E6500375BFBFD083D082D04C
:10215300D0D0E032C0E074F2121871E5A7A2E650C5
:102163000FE5A1A2E6500953A7BF75A1BF1221AB8A
:10217300E5A7A2E5500CE5A1A2E5500653A7DF753C
:10218300A1DFE5A7A2E15009E5A1A2E1500375A1F2
:10219300FDE5A7A2E2500CE5A1A2E2500653A7FB7E
:1021A30075A1FB7F010218D074F712178575210101
:1021B300900374E064067015120C9F8A828B83A3CC
:1021C300A3A3A3A3A3E0FAA3E0FB120D0BA2AFE426
:1021D30033FED2AF90037AE0640170187A207B005B
:1021E300900373E0F91212BD7A207B00900373E031
:1021F300F91211AF906182E0D2E6F090051BE06026
:102203002185C6228016900379E064017008E5C633
:1022130054F84405F5C653BEFC121F307401652102
:1022230060E4EEA2E092AF7F02021831008E238FAA
:1022330024858228858327851882851983E0CEA388
:10224300E0CF852882852783EBC9EAC8EDCBECCAAA
:1022530075F010C3E833C8E933C9EA33CAEB33CBAB
:10226300C3EA9EF526EB9FF525B35004AB25AA26BA
:10227300EC33CCED33CDD5F0DAAE23AF242274F1B9
:102283001217858A088B098C0A8D0B90810A7808AE
:10229300121547740F1216F5780C12156D90810AFA
:1022A300780C1215477808790C1213809081065028
:1022B300107808790C12151F78081213A0401480A7
:1022C3000E780C790812151F780C1213A05004799C
:1022D30001800279007F0802183174ED1217858A94
:1022E300088B098C0A8D0B90810A780812154774A4
:1022F300131216F5780C12156D90810A780C1215CD
:1023030047780C790812138040117808790C12155C
:102313001FAA08AB09AC0AAD0B802275100075111A
:10232300007512007513017810790C12151F7810BF
:1023330079081214E6AA10AB11AC12AD137F0C028C
:10234300183190810A780812156D8A828B83780878
:1023530012155A7F0402183174F51217858C828D79
:1023630083780812156D8A828B83780812153312CD
:1023730023B3C3E09CF0A3E09D1223A540229081E8
:1023830026780812156D8A828B83780812150C8AB9
:10239300828B83A3A3A3A3E02420F0A3E0344EF015
:1023A30080A0F088828983C3E09420A3E0944E2226
:1023B300EA2404F8E43BF98C828D83A3A3A3A3E06E
:1023C300FCA3E0FD888289832274F5121785E9FE58
:1023D3009004D1E0FAA3E0FBEE29F8E433F9749119
:1023E30028F582748039F583E02AF508A3E03BF5EC
:1023F30009780812192C90812212158B122230743D
:10240300021216BF8A088B098C0A8D0B7410780888
:102413001214AEAA08AB097F0402183174F1121723
:10242300858A0C8B0D8C0E8D0F74111216F51219F3
:102433004374111216F5E02401F508A3E03400F506
:1024430009E4F50AF50B780C79081213BF90811291
:10245300780812156D780C79081213BFAA0CAB0D0E
:10246300AC0EAD0F12223074021216BF8B09EA456F
:102473000960047A0180027A00EC2AFCE43DFD74D1
:10248300131216F5E0F8A3E0F9E8FEE9FFECF8ED26
:10249300F97A717B0212161E88088909E4F50AF598
:1024A3000B8E828F83780812157CECF8EDF97A7124
:1024B3007B0212161E8A088B097405780812169679
:1024C3008E828F83A3A3A3A3E508F0A3E509F07F7E
:1024D30008021831C082C083E9906000F0D083D035
:1024E3008222C0E074F2121871A2AFE433FED2AFBD
:1024F300E589A2E15003121113758900C2C5EEA24A
:10250300E092AF7F010218D0C0E074F2121871A2FA
:10251300AFE433FED2AFE58BA2E050031211137583
:102523008B00C2E880D8C0E0C0D0E8C0E0E9C0E0DA
:10253300A9A8D2AFC2C7E9A2E7E433F8E9A2E792B8
:10254300AFD0E0F9D0E0F8D0D0D0E032C2AF020093
:102553000022C0E0C0D0C082C083E5AFA2E0500C2F
:10256300901538E02401F0A3E03400F0D083D0824A
:10257300D0D0D0E032FFFFFFFFFFFFFFFFC082C0DC
:1025830083E99015FDF0D083D08202011F74F61207
:102593001719E99002E6F0900346E0F50875090083
:1025A30074027808121696AA08AB0912121B90023D
:1025B300E7122F169002E7123303606F900346E091
:1025C30075F003A4FAABF012121B900304122F163A
:1025D300900304123303700B9002E71232D41212E9
:1025E3002180489003041242177AFF7BFF12109553
:1025F3007A0080198A087509007402780812169601
:10260300123D1074FF122743E4F0A3F00A9003462F
:10261300E0F8EAC39840DD790512075F9002E6E02F
:10262300F91206517ADD7B071209E1023DB374F416
:102633001217198A088B09EB548060479002E6E071
:10264300F91211918A0A8B0BAE0AAF0BEE4F602A77
:102653008E828F83E064B0701A12076BE960148E68
:10266300828F83A3A3A3A3E0F9EE2405FAE43FFB3F
:10267300120741EEFAEFFB12117FAA08E509648005
:10268300FB80047A007B0002286674F21217197427
:10269300FB1216A9EAFEEBFFEE4F60457403121618
:1026A300F5EEF0A3EFF0851882851983ECF0A3ED26
:1026B300F074021216F5E9F0AA18AB1912064BE9E9
:1026C300F508707574131216F5E0F50AA3E0F50B1F
:1026D300E50A450B60638E828F83122C9FEE4F7049
:1026E3000575080280537A067B0012121B8A0C8B35
:1026F3000DA80CA90DE8497005750813803B888265
:102703008983E4122743EEF0A3EF12285FE50AF072
:10271300A3E50BF09002EA1228589002EA6017E052
:10272300FCA3E08003EAFCEBFD8C828D8312285826
:1027330070F38C828D8312392BA908740502449798
:10274300F0A31241F9A32274F21217198908890C14
:10275300750D007403780C121696850C0A850D0B03
:102763009002E9F09002E7123736122856602E12D3
:1027730012217900801D890C750D007402780C12EA
:1027830016969002E7123BCF8882F583A3A3E4F069
:10279300A3F009900346E0F8E9C39840D9900346B3
:1027A300E0FA850AF0A4CAA8F0850BF0A428FB126E
:1027B300121B8A0C8B0DAE0CAF0DEE4F700302286B
:1027C3004C900346E0FC850AF0A4CCA8F0850BF0FE
:1027D300A428FD790012116D7C0080318D0C750DDC
:1027E300007403780C1216968A828B831228518800
:1027F300828983E4F012285EA3A3F0A3F00DEDC356
:10280300950840D8EE250AFEEF350BFF0C900346E2
:10281300E0F8ECC39850288C0C750D007402780C0A
:102823001216969002E7122851E82402500109FA81
:10283300E9FB8A828B83EEF0A3EFF07D0080BFE596
:10284300089002E9F079008002791302449A123B5E
:10285300D3F922A3A31232D8EA4B22A31241F9A33C
:10286300A3A3227F040217EBC082C0839002EA1263
:102873003303601C88828983A3A3E06A7003A3E007
:102883006B8882898370E8A3A3A3A31232D4800444
:102893007A007B0002258974F212171974FD12164F
:1028A300A9EAFEEBFF851882851983E4F0A3F0748F
:1028B300021216F57401F0123300701412091B1280
:1028C300121B9002ED122F161233007003022A2CF2
:1028D300123016EE2404F50AE43FF50B850A82F55F
:1028E30083E024FE603C24FC607424FE607E24FEAE
:1028F300700302297C24FE700302298924FE7003DD
:1029030002299624FE70030229A324FE70030229E0
:10291300B024FC70030229D124FE70030229E902CA
:102923002A2512091B9002EFEAF0A3EB122A3812B0
:1029330003ABE96003022A259002EF1219438E824A
:102943008F83A3A3A3A3A3124217850882850983B8
:102953001232D412072974021216BF022A25AC18A8
:10296300AD19EEFAEFFB1207710229F4AC18AD1999
:10297300EEFAEFFB1207778078AC18AD19EEFAEF99
:10298300FB12077D806BAC18AD19EEFAEFFB120753
:1029930083805EAC18AD19EEFAEFFB120789805104
:1029A300AC18AD19EEFAEFFB12078F8044740212D4
:1029B30016FF880C890D780C12192C740212170F4C
:1029C300EEFAEFFB12079574021216BF8023AC18C0
:1029D300AD19EEFAEFFB12079BE9F87016740212B9
:1029E30016F5E4F0803CAC18AD19EEFAEFFB1207D4
:1029F300A1E9F8E8602C8E828F83A3E0641460223F
:102A0300850A82850B83E09002EFF0851882851991
:102A1300831232D49002F0122F16E8A3122A38122E
:102A230003A5EEFAEFFB1206FF74021216F5E0F9A6
:102A33007403024497F07CEF7D0285088285098345
:102A43001232D82274E812171974FA1216A97404F0
:102A53001216F5ECF0A3EDF08A128B13EA2405F5B8
:102A63000EE43513F50FEA2402F510E43513F511DE
:102A7300851082F5831232D41204958A0A8B0B7562
:102A830008007C037D0079007AEF7B0212116DE56B
:102A93000E2402F516E4350FF51774021216FF889B
:102AA3000C890D780C12192C850E82850F83A3A334
:102AB300A3A3E0F50C750D00780C12192CE50E2478
:102AC30005F50CE4350FF50D780C12192C851682DB
:102AD3008517831235DB12066974061216BF8A0C3A
:102AE3008B0DE50C450D7003022C68802085188240
:102AF300851983E088828983F00508851882851902
:102B030083A3E0C0E0122CA9D0E0F00508E50A2475
:102B1300FBFAE50B34FFFBC3E5089AE49B40030291
:102B23002C687E007F00851282851383A3A3A3A351
:102B3300E0F5097809121930E4F514F51578141243
:102B4300192C7514EC751502781412192C9002EDDA
:102B530012194374091216F5121943E50A24F9F9F7
:102B6300AC0CAD0D8510828511831232D41207C5CA
:102B730074091216BFE96003022C09850E82850FC2
:102B830083A3A3A3A3A3A3A3E0F89002ECE068703C
:102B930075E0F5148E15781412192C124214850E53
:102BA30082850F83A3A3A3A3A3A3A3A31232D41247
:102BB300116774021216BFE9604C9002F0123303DE
:102BC300703BE4F514781412192C7CFF7DFF790710
:102BD3008510828511831232D412073B74021216B8
:102BE300BF1233097017850E82850F831243B174A8
:102BF300041216F5123CC312360C022C9C850C826F
:102C0300850D83122C9FA818A91988148915781487
:102C130012192C74041216F512194385168285179E
:102C230083122F0C12067574041216BF8A0C8B0DB7
:102C3300EE4F7003022AE5122CA9EE122CB41235C2
:102C4300C2EF122CB4F8A3E03400F9E50C450D6093
:102C530003022AF08882898374FFF00508122CA9E5
:102C630074FFF00508E508601A1313543F122F1C74
:102C73001203B7E960099002F01232D41211D97924
:102C8300008016850E82850F831243B174041216D9
:102C9300F5123CC312392B790A023595A3A3A3A3DA
:102CA300E0FEA3E0FF22A8089002F0E0281235C25C
:102CB30022F00508089002F0E0282274E8121719A0
:102CC30074FA1216A974021216F5122F167404124E
:102CD30016F5ECF0A3EDF074021216F5E0240512DC
:102CE30035ABE0F50CA3E0F50D74021216F5E02404
:102CF30002F510A3E03400F511851082F58312323A
:102D0300D4120495750800750900EA24FCFEEB341F
:102D1300FFFF8008050CE50C7002050DA808C3EE43
:102D230098EF94005003022EC8A818A919880E8999
:102D33000F780E12192C851482851583A3A3A3A3E0
:102D430012421B12192CE5142405F50EE43515F572
:102D53000F780E12192C851482851583122F0A12EF
:102D6300066974061216BF8A0E8B0FEA450F7003AD
:102D7300022EC8EA2404F516E4350FF517851682EA
:102D8300F583E0F50CA3E0F50D8518828519831210
:102D930042178A828B83A3A3A3E0F985108285114E
:102DA300831232D4120657E9F5096003022EC87460
:102DB300021216F51235D2F5097809121930E4F525
:102DC30012F513781212192C7512EC75130278127E
:102DD30012192C9002ED12194374071216F51219E9
:102DE30043EEF9AC0EAD0F8510828511831232D4F8
:102DF3001207C574091216BFE9F5096003022EC84C
:102E0300E508703FE4F50EF50F780E12192C7CFFE0
:102E13007DFF79098510828511831232D412073B15
:102E230074021216BF1235F8700D74041216F512DF
:102E33002EFF7911022EFC9002ECE024029002F0A6
:102E4300F080149002F0E0FA9002ECE079002402A2
:102E53005001096A497072A8089002ECE0FAE82A66
:102E6300FAE43400FBEE9AEF9B405A8516828517ED
:102E730083E0C0E09002F1122CAED0E0F0050885AB
:102E83001682851783A3E0C0E0089002F1122CAEEE
:102E9300D0E0F005089002EC12421B12192C1242EA
:102EA30014A80812359F12115574021216BF90020E
:102EB300ECE02508F50874FF650C700474FF650DDC
:102EC3006003022D17E508601F9002F0E0F5F0E5BE
:102ED3000884122F1C1203BDE960099002F112321B
:102EE300D41211D979008011E509700375090A74A8
:102EF300041216F5122EFFA90902359512373AE589
:102F03000CF0A3E50DF022A3A31244A6AA0CAB0D6B
:102F130022A3A3EAF0A3EBF0229002EFF07CEF7D73
:102F2300028510828511831232D82274EC1217198C
:102F330074FC1216A9123A3B740212170F1232CE06
:102F430012066F8A0C8B0DEA450D700302300612D0
:102F53003016A818A91988108911781012192C7C19
:102F6300FF7DFF790B8508828509831232D412070E
:102F73003B74021216BF12310C700C850A82850B4A
:102F8300831236090230138E828F83A3A3A3A3E097
:102F9300F5127812121930E4F512F513781212199A
:102FA3002C7512EF751302781212192C781012195E
:102FB3002C74091216F512194374091216F5E0F967
:102FC300AC0CAD0D8508828509831232D41207C576
:102FD30074091216BFE9FE70157CEF7D0285088225
:102FE3008509831232D41203C3E970098020741651
:102FF3006E70027E009002F01232D41211D9EE707C
:1030030004800B7E01850A82850B83123928EEF931
:1030130002393DEE2402F508E43FF5092274EC126F
:10302300171974FC1216A9EAFEEBFF8C0E8D0FEE36
:103033002405F508E43FF509740212170F85088289
:103043008509831232D412066F8A0C8B0DEA450D63
:1030530070030230FCEE2402F50AE43FF50BA818D6
:10306300A91988108911781012192C7CFF7DFF791A
:103073000D1232CE12073B74021216BF12310C70BE
:103083000B850882850983123609807A8E828F83A5
:10309300A3A3A3A3E0F51278121219308508828541
:1030A3000983A3A31219437512EF75130278121241
:1030B300192C781012192C74091216F5121943746D
:1030C300091216F5E0F91232CA1207C5740912166D
:1030D300BFE9FE700F7CEF7D021232CE1203C9E905
:1030E3007009802074166E70027E009002F0123216
:1030F300D41211D9EE7004800B7E018508828509F4
:1031030083123928EEF902393D123313F510A3E087
:10311300F511EA45112274E812171974FE1216A963
:103123008A168B178C148D15EA2405F50CE43517D4
:10313300F50DEA2402F50EE43517F50F850E82F539
:10314300831232D41204958A088B09750B007C0311
:103153007D0079007AEF7B0212116D750A00E50894
:1031630014F5100424FFF508E50934FFF50980542C
:103173009002EFE0FA9002ECE0F8EA28F8E4340079
:10318300F9E50898E50999500D9002EFE0F8E5108C
:10319300C3989002ECF0E0F512751300781212193F
:1031A3002C1242149002F0E02AFAA3E03400FB123E
:1031B300115574021216BF9002ECE0F89002EFE092
:1031C30028F0050A850C82850D83A3A3123BDF40FB
:1031D300030232AF9002EFE0C39508E49509400380
:1031E3000232AFAE0AEE2EFEE433FF1232EEAC181B
:1031F300AD1912422FE439FB12066F8A128B13ACFE
:1032030012AD13EC4D701B750B011232DE12392C0B
:103213009002F012285860031211D9A90B7402020C
:103223003597851682851783A3A3A3A3E0F50B78AF
:103233000B121930E4F512F513781212192C7512CA
:10324300EC751302781212192C9002ED12194374C3
:10325300071216F5121943A910850E82850F8312E2
:1032630032D41207C574091216BFE9F50B709B908F
:1032730002F01233036003023173E4F512F513789D
:103283001212192C7CFF7DFF790F850E82850F8327
:103293001232D412073B74021216BF1233096003B1
:1032A3000231731232DE12360D0232207CEF7D02C0
:1032B300850E82850F831232D41203CFE960030295
:1032C30032137900023220AC0CAD0D850A82850BD6
:1032D300831232D822E0FAA3E0FB221232EEE0FAA4
:1032E300A3E0F9EA85148285158322850C82850D76
:1032F30083E02EF8A3E03FF988828983229002EDD0
:103303001243B5E84922123313F8A3E0F9E849223E
:103313009002F0EAF0A3EBF09002F0E02274E812DE
:10332300171974FA1216A974041216F5122F168CB3
:10333300168D1774041216F5E02405F50EA3E03478
:1033430000F50F74041216F5E024021235AB1232A5
:10335300D41204958A0A8B0B7F007E00A818A91942
:1033630088088909780812192C850E82850F83A392
:10337300A3A3A3E0F5088E09780812192CE50E24FF
:1033830005F508E4350FF509780812192C850E8226
:10339300850F83A3A31235DB12066974061216BFC9
:1033A3008A0C8B0D80291235CCF00F1235CCF00F1F
:1033B3009002EC12391712192C124214EFF812353D
:1033C3009F12115574021216BF9002ECE02FFFE515
:1033D3000C450D700302345B851882851983123AFC
:1033E3004DA3A3A3E0F98514828515831232D41269
:1033F3000657E9FEE50C2404F510E4350DF511EE4E
:10340300705074041216F51235D2F50878081219A3
:1034130030E4F508F509780812192C7508EC7509DC
:1034230002780812192C9002ED1219437407121630
:10343300F5121943E50A24FAF9AC0CAD0D85148293
:103443008515831232D41207C574091216BFE9FE1B
:1034530060391235E812392BEF700302358290027E
:10346300F0E0F5F0EF849002EFF07CEF7D0285143D
:10347300828515831232D41203D5E960099002F1D3
:103483001232D41211D979000235958F08EF703BAF
:10349300E4F512F513781212192C7CFF7DFF7911D4
:1034A3008514828515831232D412073B74021216D7
:1034B300BF1235F870091235E812360C02359590B3
:1034C30002ECE024049002F0F080359002ECE0F886
:1034D3009002F0E0FAE82404FCE43400FDEC6A4DC9
:1034E3006003023461E50A24FAFAE50B34FFFBE5D5
:1034F3000828F8E43400F9EA98EB995003023461A0
:10350300851082851183E0C0E09002F1E02FF8A3DB
:10351300E034008882F583D0E0F00F8510828511B6
:1035230083A3E0C0E01235B9D0E0F00F74021216A5
:10353300FF88088909780812192C74021216F512EB
:103543001943850E82850F83122F0A1206757404A0
:103553001216BF8A0C8B0DEA450D70030233A97452
:10356300021216F5E0C0E01235B9D0E0F00F740294
:103573001216F5A3E0C0E01235B9D0E00233B1EE84
:1035830070027E0A850E82850F831235EE12392B67
:10359300EEF974061216BF7F100217EB9002F1E0EA
:1035A30028FAA3E03400FB22F514A3E03400F51558
:1035B300851482F583221235BD229002F1E02FFAA1
:1035C300A3E034008A82F583221235BD74FF2212F0
:1035D300373AA3A3A3A3E0221244A6850E82850F44
:1035E300831232D8228510828511831243B5851642
:1035F30082851783229002F1EAF0A3EBF09002F1A7
:103603001243B5E84922123931E8F0A3E9F0791100
:103613002274EA12171974FE1216A98A088B098CF0
:10362300128D13EA2405FEE43509FFAC18AD198E9B
:10363300828F831232D412066F8A0C8B0DEE24060E
:10364300F50EE43FF50FEA450D700302370CE5086C
:103653002402F50AE43509F50B8A828B83A3A3A31D
:10366300E0A2E550288518828519831232D4120707
:10367300BF8A108B11EA4511602079121232CA8574
:103683001082851183121717E9F50C707F850E825E
:10369300850F83E0600979528011750C0E806D856A
:1036A3000882850983A3A3A3A3E0F9E4F508F50938
:1036B300780812192C8E828F83A3A3E0F50878086B
:1036C30012192C8E828F83A3A3A31219438E828F88
:1036D300831242171232CE1207CB74061216BFE9B9
:1036E300F50C7011850E82850F83E0702D1232CE9A
:1036F3001203DB80257416650C7011750C007418A9
:103703001216F5123736E48010750C011243AD859D
:103713001282851383E8F0A3E9F0850E82850F8377
:10372300E0600479008002A90C74021216BF7F0EB8
:103733000217EB12373A22E0F8A3E0F583888222DE
:1037430074EC12171974F71216A98A0A8B0B8C10D2
:103753008D11EA2405FEE4350BFF750C00AC18ADA2
:10376300198E828F831232D412066F8A088B09EA6C
:1037730045097003023902E50A2402F50A500205DD
:103783000B8A828B83A3A3A3E0A2E5502F85188223
:103793008519831232D41207BF8A0C8B0DEA450DAB
:1037A300604F7912AC08AD091232CE850C82850DBB
:1037B30083121717E9F50C6003023905850A828520
:1037C3000B83E0F508A3E0F509AA08FB1207B3EAA7
:1037D3004B70197AFF7BFF1207B3EA4B7003023871
:1037E300F88A828B83E508F0A3E509F07508008069
:1037F30008750C0E02390505089002E9E0F8E508A2
:10380300C39840030238F885080E750F00740378D7
:103813000E1216968A828B83A3A3E0250EF8A3E0EB
:10382300350F123CCC70D08E828F83123920122F29
:10383300168E828F83A3A3123920122F14EE240431
:10384300F508E43FF509850882F583E088828983DA
:10385300A3A3A3A3F0A3E4F0EE2405F50EE43FF540
:103863000F850E82F583123920A3A3A3A3122F146D
:10387300751207751300781212192CEEFCEFFD7404
:103883000412170712115574021216BFE4F51278C9
:103893001212192C850882850983E0FC7D007917B3
:1038A3001232CE12073B74021216BF74071216F5BA
:1038B300122F1674071216F5E0FA4B603D85088245
:1038C30085098312391712192C850E82850F8312ED
:1038D300421712115574021216BF740212170F12F7
:1038E30032CE1203E1E9602674071216F51232D4C0
:1038F3001211D98019750C098008750C1180037594
:103903000C011243AD85108285118312392BA90C4A
:1039130074098028E0F5087509007808221232D866
:103923008882898322123931E8F0A3E9F022E0F892
:10393300A3E0F9850E82850F832274041216BF7FDC
:103943000C0217EB74EC121719123A3B751000EEC8
:103953002402F50CE43FF50D850C82F5831232D475
:103963001207B38A088B09EA45097003023A1F85D7
:103973000A82850B83E064016003023A14AC08AD4C
:1039830009AA0AAB0B1207A7E9606E8508828509AD
:1039930083122CA1EE2406F50AE43FF50B8E828FE9
:1039A30083A3A31219438E828F83A3A3A3A3121904
:1039B30043850A82850B8312194379188E828F837C
:1039C300123A4D1232D41207CB74061216BFE9F81D
:1039D300741668700B850A82850B83E4F0A3801448
:1039E300E860128E828F831232D4850E82850F8314
:1039F300EAF0A3EBF088108018780E12192CAC08AB
:103A0300AD09EEFAEFFB1207AD74021216BFE9F52A
:103A130010AA08AB091207B9E510700E850C828550
:103A23000D831232D41203E78009741665107003F4
:103A3300751000A910023942EAFEEBFF8C0E8D0FC0
:103A4300EE2405F50AE43FF50B221244A6850C8209
:103A5300850D832274EA1217197508007509007E13
:103A6300007F00750A00EC2402F510E43DF5118097
:103A730035EC65087003ED65096003023B0C888231
:103A83008983A3A3E06A7003A3E06B707C888289B7
:103A930083A3A3A3A31243B1EE28FEEF39FFEA28C1
:103AA300FAEB39FB050A123BDC503A850A0C750D1B
:103AB300007403780C121696851082851183123BCD
:103AC300CF123CCC601FE508450970A58C088D0911
:103AD30088828983122C9F88828983A3A3E02EFA8C
:103AE300A3E03F80BEE50AC394025003023BCA75BC
:103AF3000800750900EE4F6010EEFAEFFB1211D3C8
:103B03008A0E8B0FEA450F70057900023BCC750BCB
:103B130000023B9F850B0C750D007403780C121685
:103B230096851082851183E0250CF50CA3E0350DF5
:103B3300F50DE50C2406F514E4350DF51585148211
:103B4300F583123CD16042E50C2404F512E4350DF3
:103B5300F513851282F583121943E50E2508FAE55C
:103B63000F3509FB12115574021216BF8512828597
:103B73001383E02508F508A3E03509F509851482C8
:103B83008515831232D41211D9E50B600D7C087DA3
:103B9300007900AA0CAB0D12116D050BE50BC39553
:103BA3000A5003023B178510828511831243B188A3
:103BB300828983A3A3A3A3A3A3E50EF0A3E50F1216
:103BC300285FEEF0A3EFF07901023731123BD322E5
:103BD300E0250CF8A3E0350D229002E9E0F8E50AB0
:103BE300C3982274F01217198A0E8B0F8C0A8D0B4F
:103BF300750D00750C0080507916EE2406F508E467
:103C03003FF5098E828F83A3A31219438E828F837C
:103C1300A3A3A3A312194385088285098312194319
:103C2300850E82850F83A3A31232D41207CB7406A9
:103C33001216BFE9F50D7416650D706C8508828543
:103C43000983E4F0A3F0050C9002E9E0F8E50CC366
:103C5300985066AA0C8A087509007403780812162E
:103C630096850A82850B83A3A3123D1BE8FEE9FF19
:103C73008E828F83123CD16040EA2401F508E4343C
:103C830000F5099002E9E065087002E5096014880F
:103C9300828983A3A3A3A3A3A3A3A31233036003D0
:103CA300023BFB7918023BFDE9609B1243AD7410A4
:103CB3001216F5123CC312392BA90D7F080217EB1C
:103CC300E0FAA3E0F5838A8222F988828983124489
:103CD300A6EC4D2274F61217197C0080010C900398
:103CE30046E0F8ECC398501E8C08750900740278FE
:103CF30008121696123D10E06A7003A3E06B70DDA4
:103D0300E8FAE9FB80047A007B00023DB39002E706
:103D1300123D1B8882898322E02508F8A3E0350938
:103D2300F92274F21217198A088B09750A00802781
:103D33008E828F83A3A3A3A312285660031211D9E3
:103D43007C087D007900EEFAEFFB12116D8E828FF5
:103D530083E4F0A3F0050A123BDC5027850A0C75B7
:103D63000D007403780C121696850882850983A3C7
:103D7300A3E0250CFEA3E0350DFF8E828F83123363
:103D83000370AD85088285098374FFF0A3F00244B4
:103D93009A74F61217191207658A828B83E5824596
:103DA3008370067A007B008007A3A3A3A31232D4F7
:103DB3007F020217EB74E812171974FB1216A9E9B4
:103DC300851882851983F08A168B17ECFEEDFF7533
:103DD30010008E828F83A3A3A3E0A2E4502D741D51
:103DE3001216F51232D41207BF8A828B83E58245FD
:103DF3008370030241EF790AEEFCEFFDAA16AB17BD
:103E0300121717E9F51060030241F2741F1216F539
:103E1300E0F508A3E0F50974211216F5E0F50AA30D
:103E2300E0F50B74231216F5E0F50EA3E0F50F8E03
:103E3300828F83E064026003024190A31243B18541
:103E43000882850983A3858212858313EE2406F5F0
:103E53000CE43FF50D8882898312422FF514E4396F
:103E6300F51578141219B6010000280128923E07AF
:103E7300000228573F0328C53E002986400129B187
:103E830040022952400329864004292A419041E5F2
:103E93000E450F600302418B850C82850D8312430F
:103EA300B1E8FAE9FB8A828B83E0850A82850B837A
:103EB30012423A12192C8A828B83A3E0FCA3E002FC
:103EC3004114E50E450F600302418B850A82850B81
:103ED300837401F0124224850882850983F07C00F3
:103EE3007D008E828F83A3A3A3A3E02401FAA3E022
:103EF3003400FB12066FEA4B60408A828B83E02416
:103F030002F8850A82850B83E028F0EA2404F8E4AA
:103F13003BF988828983E0851282851383124248A4
:103F230012423A12192C8A828B83A3124217E50894
:103F33002403FAE43509FB024119850A82850B83C0
:103F4300E02404F07C047D007900AA12AB13121163
:103F53006D0241F2E50E450F600302418B124224CC
:103F6300FEA3E0FF850A82850B837404F0EE8508C7
:103F730082850983F0EF851282851383F07403121F
:103F8300170FEEFAEFFB12066F8A0C8B0DEA450D45
:103F930070030240358A828B83A3A3122C9F740182
:103FA3001216FF880E890F780E12192C740512163B
:103FB300F51219437CFF7DFF12067574041216BFB8
:103FC3008B0FEA450F7033850C82850D8312421BDC
:103FD30012192C850C82850D83A31219437C027D53
:103FE300007A4F7B8112048374041216BFE9700AAE
:103FF30074011216F574FFF0A3F08E828F83E064D0
:10400300027039750C02750D00780C12192C8E8212
:104013008F83A3124217E5082404FAE43509FB123F
:10402300115574021216BF850A82850B83E02402A0
:10403300800974011216F5EEF0A3EFF07401121665
:10404300F512420974011216F5124200024185E588
:104053000E450F600302418B850C82850D8312444C
:104063009FAA16AB171210A1850A82850B837402CF
:10407300F0850882850983EAF0851282851383EB34
:10408300024188E50E450F600302418B124224F87A
:10409300A3E0F9850A82850B837402F0E885088220
:1040A300850983F0E9851282851383024188850C93
:1040B30082850D831232D412114FEAFAF8C3950E9A
:1040C300E4950F405CE8650E450F70047A0080218B
:1040D300851882851983E0FCE50E2CFCE4350FFD81
:1040E300C3EC98ED94005003E08005E50ECAC39A33
:1040F300FAEA850A82850B83F08A0A750B00780A2F
:1041030012192C850C82850D83E0250EFCA3E03566
:104113000FFDAA08AB0912115574021216BF024112
:10412300F27510070241F2E50E450F705B850C82B4
:10413300850D831243B1850A82850B837407F0884A
:104143008289831242011241F9E085128285138329
:10415300F0E82402FAE439FB8A828B831242098A4B
:10416300828B83124200A3A312285E12420EF0E850
:104173002405F85001098882898312420EA3124252
:1041830048A3A3A3A3F0806775100B8062741D126C
:1041930016F51232D41207658A828B83E582458332
:1041A300604A1243B1880C890DE8450D603E7425C1
:1041B3001216F5E0F5107810121930780E12192C3A
:1041C300780A12192C780812192C74071216F5E0C4
:1041D300F9EEFCEFFDAA16AB17850C82850D831251
:1041E300171774071216BFE9F510800375100EA98F
:1041F300107405023597F088828983A322A3E08592
:1042030008828509832212424FF02212424FA3A350
:10421300229002ED1244A622E0F50E750F00780EEF
:1042230022850C82850D8312373AE022E0FAA3E05F
:10423300F8E4C8F9EA2822F08A828B83E0F50A754C
:104243000B00780A221241F912424F22E0850882BC
:10425300850983A3A32274EE12171974FE1216A9FB
:104263008A088B09ECFEEDFF890AAC18AD19EEFA4A
:10427300EFFB12066F8A0C8B0DEA450D70030243A8
:10428300418518828519831232D41207658A828B7D
:1042930083E5824583700302433CA3A31243B188A1
:1042A3000E890FE8450F700302433C74141216F590
:1042B300E0F510A3E0F511E50AF50B780B121930C0
:1042C30074191216F5121943781012192C741B1253
:1042D30016F5E0F9AC0CAD0DAA08AB09850E828585
:1042E3000F8312171774051216BFE9F50B7052747A
:1042F300FE650A604C850C82850D83E06402704183
:10430300124350FAA3E0F9EAF874026870037429BF
:1043130069702E85108285118312422FF50CE439C2
:10432300F50D780C12192CEEFCEFFDAA08AB09125F
:1043330007E374021216BF8008750B0E8003750B1A
:1043430001A90B74021216BF7F0A0217EBA31243D3
:10435300B588828983E02274F612171974FE121647
:10436300A9740C1216F51243B1E8851882851983D6
:10437300F074011216F5E9F0E4F508F5097808126E
:10438300192C750802780812192C74041216FF8868
:10439300088909780812192C79FE1207CB740612C2
:1043A30016BF74021216BF023DB38E828F8312436F
:1043B300B522E0F8A3E0F92274F7121719EAFEEB2D
:1043C300FF89089003041242171210A1EA540260F5
:1043D3000BA908EEFAEFFB120663800279017F0155
:1043E3000217EB74F212171974FE1216A9EAFEEB08
:1043F300FF890A7401650A60147402650A60030286
:10440300449579011209FFE96003024495EEFAEF3E
:10441300FB1207B3EA4B60031207B9A818A919885E
:10442300088909780812192C75080275090078089B
:1044330012192C75084B750981780812192C7CFF09
:104443007DFF7A017B0012066974061216BF80385D
:10445300850882850983A3A3A3A3A3A312449FEE84
:10446300FAEFFB121095E4F50CF50D780C12192CEC
:1044730074021216F51219437CFF7DFFAA08AB09DB
:1044830012067574041216BF8A088B09E5084509DC
:1044930070BE74021216BF7F060217EB12373A1270
:1044A30044A622E0FCA3E0FD2274F41217198A0843
:1044B3008B09ECFEEDFF9015FDE0F4604B7A097B70
:1044C30000121179EA4B60408A828B8374B1F0A3A6
:1044D300E412450EF08A828B83A3A3E508F0A3E5DB
:1044E3000912450EA3EEF0A3EFF0740C1216F512A9
:1044F30043B18A828B83A3A3A3A3A3A3A312392BC0
:104503009015FDE0F9121185022866F08A828B83EB
:10451300A3A3A3A32274F012171974FA1216A9897C
:1045230009ECFEEDFF7508008A0A8B0B780A121955
:10453300700004103E475B4579459345AB45C9453B
:10454300E14504461C4630465A46D546E646FD46F6
:1045530018473E473E4770467401650960030247AA
:10456300398E828F83E0F8C394034003024739E80E
:104573009016200247157402650960030247398EBD
:10458300828F83124E9C901621E8F0A3E90247150F
:104593007401650960030247391247664003024705
:1045A30039E890074702471574016509600302471C
:1045B300398E828F83E0F8C394054003024739E8BC
:1045C30090074802471574016509600302473912D1
:1045D30047664003024739E89007490247157410BC
:1045E30065096003024739750A10750B00780A12D2
:1045F300192C7A4A7B0712115574021216BF02470F
:104603005F7401650960030247391247664003027C
:104613004739E890075A0247157401650960030298
:1046230047398E828F83E090162402471574046500
:104633000960030247398E828F83780C12156D90BF
:104643008122780C1213A0500302473990075C783B
:104653000C12157C02475FE9600302473912061BFF
:10466300E9700512105980559007EF806174076552
:10467300096003024739750A06750B00780A121997
:104683002C8E828F83A3AC82AD8374021217071220
:10469300115B74021216BF7C007D00AA18AB198E41
:1046A300828F83E0F9121005E9FEC3940A400302E6
:1046B300475C12061BE9700CEEF912105F79501279
:1046C3001293806D74F02EF582E43407F583740140
:1046D300804074016509705E1247665059E890077F
:1046E3005B802F74016509704D8E828F83E0F8C360
:1046F300940A5042E89016238018740165097036B5
:104703008E828F83E0F874F928C3940A5028E890C6
:104713001625F0804774016509701B9007EEE0F8D9
:104723008E828F83E09007EEF0E87030E0640170D2
:104733002B12104D80267508188021C3EA9427EBAD
:104743009400501574026509700F8E828F8312597D
:104753007C12049BE9F5088003750802A908740616
:10476300024A8A8E828F83E0F8C3940222A90880CA
:10477300031216BF7F040217EB74F012171974B1FA
:104783001216A98C0A8D0B9080C8742012170F740F
:10479300061215BC742012170F121005E9FF745F7F
:1047A3001216F5E0F509EFC3940A40030248FE75BB
:1047B300F006EFA4F508744112170F7A0E74202542
:1047C30008F912128DE97009744D1216F5E0FE8096
:1047D300027E00901620E064027005750E018003CE
:1047E300750E007408650970047422800274212513
:1047F30008F50D7C1B7D0079007426121707121132
:104803006D742612170F7A1BA90D12128DE9702DE4
:1048130074401216F5E024F9C3940A5020E50EF50E
:104823000D780D121930742712170FEEA2E0E4333E
:10483300F9AA0AAB0B12053D74011216BF7C147D55
:10484300007900740C12170712116D740C12170FF4
:104853007A1074242508F912128DE970347C1079CA
:10486300FF740C1217071211CDE97025741C121670
:10487300F5AC82AD837A0474252508F912128D7480
:104883000C12170FEEA2E0E433F9AA0AAB0B1205E0
:1048930025AC18AD197A0C74702FF912128DE970CA
:1048A30049AA18AB191210357F00EF75F003A4F86D
:1048B300A9F0851882851983E58228F8E5831250CB
:1048C30053125234601D88828983A3A3E0F50E75C9
:1048D3000F00780E12192CAA0AAB0B1207D174021F
:1048E3001216BF0FEFC3940440C0EEA2E1500C9028
:1048F3000746E0F9AA0AAB0B1207D77404650970DF
:1049030028901620E0640270207A0090075AE06035
:10491300027A01900747E06004780480027800E897
:104923004AF9AA0AAB0B1205F17900744F024A8ABD
:1049330074F712171912061BE9704F9007EFE06422
:104943000170151210599007EFE4F07C0AFDF97A13
:10495300F07B0712116D802A750800A80874F028EF
:10496300FEE43407FF8E828F83E06401700BA90895
:1049730012105F8E828F83E4F00508E508C3940A62
:1049830040D9795012129312104D02536B74F012E6
:10499300171974F01216A9EAFEEBFF8C088D09753E
:1049A3000A0AE9600C14600914603B14607D024A32
:1049B30086121047E9F50AC3940A4003024A86E5C2
:1049C3000845097003024A86750C06750D00780CBC
:1049D30012192CEEFCEFFDAA08AB09121155740253
:1049E3001216BF024A86750C00750E06750F007805
:1049F3000E12192CEEFCEFFDE50C75F00EA4F8A9D0
:104A0300F0746828FA740739FB12116774021216DE
:104A1300BFE9700B050CE50CC3940A506680CA8588
:104A23000C0AE50AC3940A505A8049750C00AC1865
:104A3300AD197A1075F006E50CA42423F912128D32
:104A4300E9701C7C1079FFAA18AB191211CDE9701B
:104A53000EEEFCEFFDAA18AB19120501E9600B0578
:104A63000CE50CC3940A501B80C4850C0AE50AC3E9
:104A7300940A500FE50845096009AA08AB09A90A79
:104A8300121041A90A74101216BF7F080217EB74A3
:104A9300F4121719890975081574FF6A700374FFF6
:104AA3006B70277E00AC097A027B00EEF9121023AB
:104AB300E960037508000EEEC3940A40E8E5096057
:104AC300537A717B10120A23804A1209F38A0A8BE4
:104AD3000BAE0AAF0BEE4F60387C007D00EE240571
:104AE300FAE43FFB8E828F83A3A3A3A3E0F9121002
:104AF30005E9F9C3940A500CAC097A027B00121041
:104B030023750800E509600CEEFAEFFB12107180C3
:104B13000375081402477074F2121719ECFEEDFFC7
:104B2300750815740E1216F5E0F50AA3E0F50B747B
:104B3300FF6A700374FF6B7021750900AC0AAD0B3B
:104B4300EEFAEFFBA909121029E9600375080005C5
:104B530009E509C3940A503F80E21209F38A828B64
:104B630083E5824583602D7C007D00E5822405FA80
:104B7300E43583FBA3A3A3A3E0F9121005E9F9C36A
:104B8300940A5013AC0AAD0BEEFAEFFB1210297521
:104B930008008003750814A9087F060217EBC0827A
:104BA300C083900760EAF0A3EBF0900746E0FC7D3A
:104BB300007A267B0012049B900746E0F912074710
:104BC30002568574EE12171974EC1216A98A088B13
:104BD30009EA240CF510E43509F5118A828B83A3C5
:104BE30085820C85830DEA2405F50EE43509F50F5E
:104BF300EA2409F50AE43509F50BEA2403FEE43552
:104C030009FF8A828B83A3A3E024FA7003024E8AEE
:104C130024FD7003024DAA147003024CA414601007
:104C230024FD7003024D8D147003024DE2024E9079
:104C33001259826044E0F5838882124E9C880C8965
:104C43000DE8450D6033851082851183E0F50E78FC
:104C53000E121930EA240BF582E43509F583E0F9E5
:104C63001259760A0A0AEFFB850C82850D83121707
:104C73001774011216BF024E90850A82850B8312A8
:104C8300194390075C12158B12053774021216BF75
:104C9300E97003024E907901850A82850B83024EE7
:104CA3005A750A00850C82850D83E06003024D5A14
:104CB300850E82850F83E0A2E04003024D5A9007E0
:104CC300FA1259856003024D5A7C0E7D007900AAC1
:104CD30018AB1912116D851082851183125650EA93
:104CE3004B6010750A06750B00780A12192CEA241A
:104CF30010801B12564C1209F3EA4B7003024E90BC
:104D0300750A06750B00780A12192CEA2405FCE4CF
:104D13003BFD740212170712115574021216BF8558
:104D23000E82850F83E0A2E25004D2F08002C2F02B
:104D3300A2F0E433F8740C1216F512580412103B67
:104D4300E970117A027B00900746E0F91211A97904
:104D530000024E92750A151259827003024E901288
:104D63004EB17003024E90850C82850D83E0FC7971
:104D730001124EA2121717E50A7003024E90FC7936
:104D83000312564C125607024E85125982700302C3
:104D93004E90124EB17003024E90850C82850D83A6
:104DA300E0FC7902024E827C007D00EA2404FAE4EE
:104DB3003509FB8E828F83E0F9121005E9F8C3945D
:104DC3000A4003024E90E508240AFCE43509FD7A03
:104DD3000475F006E8A42425F9121287024E9012F6
:104DE300564C90075BE06007901623E0F9806B90C8
:104DF3001620E07004790580611209F38A0C8B0D8B
:104E0300A80CA90DE8497003024E90E82404F50CA0
:104E1300E439F50D850882850983A3A3A3A3A3A37E
:104E2300A3E0A2E05039850C82850D83E0F508608C
:104E33002E850A82850B83A3E054027022740E121E
:104E4300170FE82405FAE439FBA908121005E970E5
:104E53000E79038E828F83125650120531802EAC49
:104E63000EAD0F850C82850D83E0F912564C12109E
:104E73007D1259826017124EB160127C00790012C4
:104E83004EA2121717800612564C120FFF790174A7
:104E9300141216BF7F0A0217EBE0F8A3E0F9228E83
:104EA300828F83E0FAA3E0FB88828509832212566E
:104EB30015F98909E845092274F512171974F212D4
:104EC30016A9EAFE8C0A75F006E9A42420F508ACBD
:104ED30018AD197A0EF912128DE970467C0679FF26
:104EE300AA18AB191211CDE97038740C1216F51209
:104EF3005650EAF8E50A6005EEC8488004EEF4C8A7
:104F030058F8EA687001EB6015740C1216F5E8F0B6
:104F1300A3E4F0AC18AD197A0EA90812128779012F
:104F230080027900740E1216BF7F030217EB74F22E
:104F330012171974E61216A9890A8A088B09ECFE5E
:104F4300EDFF740C12170F7A0E75F006E9A42420F6
:104F5300F912128DE960030250167C0679FF740C76
:104F63001217071211CDE960030250167470250A57
:104F7300F50BAC18AD197A0CF912128DE960030226
:104F83005012AA18AB19121035E5084509701D7C9B
:104F93000C7900AA18AB191211CDE970727C0C7D43
:104FA300007900AA18AB1912116D8051AC18AD1914
:104FB300AA08AB0912102F8A0C8B0DA80CA90DE8B7
:104FC300497022EE4F604CAC18AD197A007B001289
:104FD300102FEAF8EBF9EA4B603988828983E508F8
:104FE300F0A3E509F012508FFAEE6A7001EF601F2B
:104FF300EEF04F700888828983E4F0A3F0AA18AB1F
:1050030019121035AC18AD197A0CA90B1212877945
:105013000180027900741A1216BF024B9C74F712B6
:1050230017197E00EE75F003A4F8A9F0EC28F8ED4B
:10503300125053E06A7003A3E06B7006E8FAE9FBD1
:10504300800B0EEEC3940440DB7A007B0002536BAB
:1050530039F9888289832274F71217197C00EC7559
:10506300F003A4F8A9F0EA28F8EB125053E0F4FE99
:10507300A3E0F4FF88828983EEF0A3EFF012508F50
:10508300F4F00CECC3940440D502536BE82402F50E
:1050930082E439F583E02274F412171974F41216BA
:1050A300A9EAFEEBFF8C088D099007FA1259857067
:1050B3004FEE4F7003025213EC4509700302521373
:1050C300121047E9901626F0C3940A4033750B007B
:1050D3007C0679FFE50B75F00EA4FAABF074622A37
:1050E300FA74073BFB1211CDE96003025174050BFF
:1050F300E50BC3940A40D9750A0AE50A901626F00F
:10510300901626E0C3940A400302521375F006E09A
:10511300A4FB9007FA125985705CEEFCEFFD7A0E42
:1051230074202BF91212877C0C7D0079FFAA18AB2F
:105133001912116DAC18AD197A0C901626E0247073
:10514300F9121287750A0E750B00780A12192CEEE4
:10515300FCEFFD901626E01252CC12115574021288
:1051630016BF9007FAE508F0A3E509F079000252AB
:1051730015850B0A8084E0C8240612522E60197A22
:105183001B74212BF912128712521A2406F582E49A
:1051930038F583E4F0A380D312521A240A12522E54
:1051A30060107A1B74222BF912128712521A240AE6
:1051B30080DB12521A240C12522E60107A107423C0
:1051C3002BF912128712521A240C80C11252231285
:1051D300522E60307A1074242BF912128712522344
:1051E300F582E438F583E02410FCA3E03400FD7A73
:1051F3000475F006901626E0A42425F912128712EE
:10520300522380899007EEE0600312108312107717
:105213007901740C0247749007FAE0F8A3E0C822FE
:105223009007FAE0F8A3E0C8240822F582E438F5F1
:105233008312597CEC4D2274F412171974F212166E
:10524300A9EAFEEBFFE9C3940A5004EE4F70047918
:10525300028034AC18AD197A0E75F006E9A4242047
:10526300F912128DE9F508701C750A06750B0078A2
:105273000A12192C740212170FEEFAEFFB121155D2
:1052830074021216BFA908740E02477474F412173D
:1052930019EAFEEBFF750800750A06750B00780A1C
:1052A30012192CEEFCEFFDE5081252CC12116774B3
:1052B300021216BFE96004A908800B0508E508C3BC
:1052C300940A40D4790A02477775F00EA4F8A9F03E
:1052D300746228FA740739FB2274F71217197508D8
:1052E30000E50875F00EA4F8A9F0746228FE7407AF
:1052F30039FFEEFCEFFD7A0E75F006E508A42420D5
:10530300F912128DE960297C067D0079FFEEFAEF30
:10531300FB12116D7C067D0079FFEE2CFAE43FFB56
:1053230012116DEE240CF582E43FF583E4F0A3F053
:105333000508E508C3940A40A89007EEE06003124D
:105343001083121077802174F71217197E007F00E3
:105353007C06EF1252CC79FF1211CDE970010E0FCA
:10536300EFC3940A40EAEEF97F010217EB74F712D8
:1053730017197E00EEF912105FE9F90EEEC3940AD5
:105383005003E960EF80E174F312171974CB12161E
:10539300A98908901626E06508701B7A017B0090A6
:1053A3000746E0F91211AF7A027B00900746E0F955
:1053B3001211AF12108F75F006E508A4FF74202FA9
:1053C300FE742712170F7A0EEEF912128DE960039D
:1053D3000254927C0679FF74271217071211CDE944
:1053E30060030254927C0E7D0079FF742712170725
:1053F30012116D7C1B7D0079FF740C1217071211BB
:105403006D7C0C7D0079FFAA18AB1912116D7427FE
:1054130012170F7A0EEEF9121287E9FE740C1217A7
:105423000F7A1B74212FF9121287E9F509740C12F4
:10543300170F7A1B74222FF9121287E9F50A740CDD
:1054430012170F7A1074232FF9121287E9F50B74D0
:105453000C12170F7A1074242FF9121287E9F50C26
:10546300740C12170F7A0474252FF9121287E9FFAF
:10547300AC18AD197A0C74702508F9121287E9F883
:10548300E509450A450B450C4F48CE4EFE80027E8A
:1054930000EEF974351216BF7F050217EB74F7128D
:1054A3001719E9900746F012104D02536B74F2126C
:1054B3001719EAFEEBFF5480700302556F900746FD
:1054C300E0F91211918A088B09EA45097003025524
:1054D300687A01E5082405F50AE43509F50BE508C2
:1054E3002404F8E43509F9880C890D8508828B8337
:1054F300E02450603614600624E16058805D8882A1
:105503008983E070598508828B83A3A3A3A3A3A3F4
:10551300A31219431259768508828B83A3A31256CB
:105523005012101174021216BF803388828983E0EF
:10553300641E700F79008508828B83A3A3125650D3
:1055430012100B850C82850D83E0F9AA0AAB0B12AE
:105553000741800AAA0812101DE9FAEA6007AA089F
:10556300AB0912117FEEFAEF6480802AEE540260D9
:1055730028EE6402FE7C007D007A007B0012103B63
:10558300E960047A0180027A027B00900746E0F921
:105593001211A9EEFAEFFB8068EEA2E05055640108
:1055A300F508EFF509125625121089E960331259EF
:1055B30082602912561D124E9CE8FEE9FFEE4F60F1
:1055C3001B7C0079011256258E828F831217177C5C
:1055D30000790312562512560712171712108F80DF
:1055E3000C7A017B00900746E0F91211A9AA08ABD7
:1055F30009800E54046006EE6404FA80047A007B8A
:1056030000024B9C900760E0F8A3125615F58388BF
:10561300822212561DE0F8A3E022E0F5838882A3DC
:10562300A3229007FA125966E0FAA3E0FB227F0255
:105633000217EBC082C083900746E0F98A828B830E
:10564300A31256501207D780398E828F83E0FAA3B4
:10565300E0FB22C082C08374FF1216A9121053E923
:10566300C3940285188285198340047402800274EE
:105673000AF0AC18AD197A017905120639740112D2
:1056830016BFD083D08202011F74F012171974E879
:105693001216A9EAFEEBFF890A8C088D097C187D96
:1056A300007900AA18AB1912116D85188285198328
:1056B300EEF0A3EFF0900748E0C0E074021216F595
:1056C300D0E0F0900749E0C0E074031216F5D0E093
:1056D300F0901625E0C0E074171216F5D0E0F090B4
:1056E3001624E0A2E0E433FCE0A2E15004D2F0800F
:1056F30002C2F0A2F0E433F8E0A2E45004D2F08056
:1057030002C2F0A2F0E433FAE0A2E55004D2F08042
:1057130002C2F0A2F0E433F50E750F00E0A2E650EA
:1057230004D2F08002C2F0A2F0E433F50C750D0050
:10573300E0A2E25004D2F08002C2F074151216F512
:10574300E054FEFEA3E0FFEE4CFCEFFDEC54FDFC49
:10575300E828F8EC48F8ED54FEF9EAFBE94BF9E8E0
:10576300FAE954FDFB7409780E121696EB450F54B3
:10577300FBFB740A780C121696EAF8EB450DF9E870
:1057830054FBFAA2F0E433F50C750D007402780CA7
:10579300121696EA450CF874151216F5E8F0A3E90B
:1057A300F0900749E0601D750C10780C12192C7CE1
:1057B3004A7D0774061216F5AA82AB83121155743B
:1057C300021216BF90075AE06011E50A60097415CA
:1057D3001216F5E04402F078018002780074141286
:1057E30016F5E048F0900747E060047804800278FB
:1057F3000074141216F512580412052B7418024A79
:105803008AE048F0AC08AD09AA18AB192274F71264
:10581300171912082B750800E50875F00EA4F8A9EE
:10582300F0746228FE740739FF7C0679FFEEFAEF05
:10583300FB1211CDE97009EEFAEFFB790012083182
:105843000508E508C3940A40CF02536B74F6121798
:105853001974FD1216A9EAFEEBFF9007FC12598595
:1058630070397508FE750907780812192C75080236
:10587300750900780812192C75084B750981780889
:1058830012192C7CFF7DFF7A017B001206697406D6
:105893001216BF9007FCEAF0A3EBF09007FC125935
:1058A3008570030259587508FF7808121930E4F51A
:1058B30008F509780812192C74051216FF8808894F
:1058C30009780812192C74051216FF8808890978BB
:1058D3000812192C9007FE12194379029007FC1243
:1058E300596E1207C574091216BFE97036851882FE
:1058F300851983E0FA74011216F5E0F8E4C8F9EAB1
:1059030028F508E439F509EA4509601778081219FA
:105913002C9007FC125966A312596E1210117402CF
:105923001216BFE4F508F509780812192C9007FE42
:105933001219437CFF7DFF9007FC12565012067527
:1059430074041216BF9007FCEAF0A3EBF09007FC77
:10595300125985700479018002790074031216BF0D
:10596300025631E0F8A312561DA32212597CEEFA17
:10597300EFFB22850A82850B83E0FCA3E0FD2290E6
:105983000760E0F8A3E0F9E84922C082C0839007EA
:10599300FA12598560109007FA12565012117F902F
:1059A30007FAE4F0A3F0901626740AF0025685C0B5
:1059B30082C0839061907404F0A37448F0A37402CE
:1059C300F09061807440F09061BC7403F090618743
:1059D3007419F0906265741BF0906249E0C39413EC
:1059E30090619C40107409F09060667401F09061BE
:1059F3009F7428800D740BF0906066E4F090619FB3
:105A0300742CF0125B9D7009C291900378746780C7
:105A1300059003787461F0125C0F902578E493F499
:105A23006006E493F9120B0D7905120DD1025C1D8A
:105A3300C082C083E9540FF9906185E0696012E583
:105A4300C654B84441F5C6E59E5447644170F8E92D
:105A5300F053C6B8E59E544770FA025C1DC082C07D
:105A630083A8A853A87E906181E412689EC2BA53AA
:105A73009AFEC289759B00C2C275E90075910075D3
:105A8300BF0075A91175B905906181F0A374C0F0C9
:105A9300A3E4F0D2BA439A0174805842A8025C1D71
:105AA300F0A3F0025C1DC082C08374F81216A990A3
:105AB3000376126D9E7003025B95900376E054406B
:105AC30060177908AA18AB19120C0FAA18AB191290
:105AD3000861900376E054BFF0E054806010790CC5
:105AE3007A3F7B05120C0F900376E0547FF0E0A21F
:105AF300E0501E125B9D7009C29190037874678019
:105B0300059003787461F0120867900376E054FE01
:105B1300F0E05402601E125BE17009D291900378A9
:105B230074718005900378746AF0120867900376A5
