:020000040000FA
:060000000201070220517D
:03002B0002249913
:0300330002247B29
:03004B000224C5C7
:030053000220C7C1
:03006B0002245517
:10008300021EA7E5C754F84401F5C7790122000011
:100093000080FB120086B900030200F1E4792178A5
:1000A30008B800028004F709D8FCE479297802B87B
:1000B30000028004F709D8FCE4900281789979134F
:1000C3008002F0A3D8FCD9FA7A197B15900137780E
:1000D3006479038015E493A3AD82AE838A828B8314
:1000E300F0A3AA82AB838D828E83D8E9D9E7758288
:1000F3000A758399740312011975829175830074CB
:100103000012011975D00075814F75188175190298
:10011300759F00020096C09FF59FE473D09F22D085
:1001230083D082C09FE493C0E0740193C0E0740263
:1001330093F59F22FF0000B4000028002800283018
:1001430075A000A000A000A00000080008E001F0D6
:10015300001000100010001000100010005000509C
:1001630000500010001000D0070000000000000F36
:100173000001000500307507001000010081FF0039
:10018300000000FFFFFFB605D405BC05F805FF021C
:10019300020208025000A0000000E803025581019A
:1001A300000042810269810100007415025181013E
:1001B3000000BD020269810100007515026781011B
:1001C3000000D30202698101000076150249810112
:1001D3000000D502026981010000771502538108EE
:1001E3000000D602026981010000781502458101F1
:1001F30000007915FF0100FF17006A0C6A0C6A0CF6
:100203006A0C6A0C6A0C6A0C6A0C6A0C6A0C6A0C3B
:100213006A0C6A0C100F220F0A0F01E8030577100E
:100223000AFFFFFF000853746172742054696D65FF
:100233007220436F6E7400024765742054696D65C4
:100243007220436F756E74200008537461727420BA
:100253004761732043616C696272000247657420D1
:10026300476173204D6F6E69746F72200008416C93
:1002730061726D20636F6E74726F6C2020200002B8
:10028300446576696365204E616D652063686172BC
:1002930000025581010000B9800269810100000A52
:1002A30016025B810300009314024D810100000BD1
:1002B300160269810100001C16025D81030000948F
:1002C30014024D810100001D160269810100002EF8
:1002D30016025F810300009814024D810100002F74
:1002E3001602698101000040160261810100009934
:1002F30014024D8101000041160269810100005280
:10030300160263810300009D14024D810100005316
:100313001602698101000064160265810100009ED6
:1003230014024D81010000651601307503020106B8
:1003330000000000000000000000000000000000BA
:10034300000000000000000000000000FFFF0600A6
:10035300800CE8030A0950414D6F6E69746F720592
:100363001201000100020A000201060302F0FF0C61
:10037300FF0D0D20013030310000000053696D7016
:100383006C6520424C4520506572697068657261E6
:100393006C181300001E1312012256F102120122DF
:1003A30069F1021201229AF102120122D4F102121E
:1003B30001222DF20212012274F202120122BCF276
:1003C30002120122EBF2021201221AF3021201229B
:1003D30051F30212012298F302120122B1F3021225
:1003E300012206F40212012234F4021201226EF4F5
:1003F30002120122ACA802120122AFA902120122A9
:10040300E8A9021201220BAA021201221DAA02125A
:1004130001225BAA02120122D7AA021201229FAB78
:1004230002120122C1AB0212012258AC02120122B4
:10043300AAAC02120122DBAC02120122E8AC0212C6
:10044300012252AD02120122A9AD02120122ACAD6A
:1004530002120122E5AD02120122E8AD02120122CD
:10046300F2AD0212012246AE0212012287AE02123F
:100473000122BAAE02120122F7AE02120122F9AF33
:10048300021201229DB00212012206B102120122C0
:1004930044B10212012275E9021201229DE90212FE
:1004A3000122CAE90212012202EA0212012260EACF
:1004B30002120122ACEA0212012213EB0212012200
:1004C30053EB0212012290EB02120122BEEB021245
:1004D300012268EC0212012272EC021201227FEC6B
:1004E30002120122B2EC02120122BEEC021201221C
:1004F300D6EC02120122E0EC021201221C95031237
:1005030001222A95031201224295031201225995D1
:1005130003120122C3A5011201226DA601120122B9
:1005230080A701120122FCA7011201221AA90112BC
:10053300012256A901120122F1A901120122D5AA11
:1005430001120122A1AB011201222FAD01120122DE
:10055300A0AD011201225AAE011201224CAF0112C9
:1005630001228CAF0112012240B00112012272B0AC
:100573000112012268B201120122AAB20112012260
:10058300C8B2011201222EB301120122FDB30112DE
:100593000122C1B401120122E0B6011201226DC190
:1005A3000212012257C20212012202C302120122C5
:1005B30053C30212012203C40212012274C40212A1
:1005C300012259C5021201228DC50212012286C6DB
:1005D30002120122C3C6021201229FC70212012284
:1005E300DEC702120122FAC7021201223685031264
:1005F3000122BA8503120122E58503120122FF8637
:10060300031201226EED0212012284ED0212012275
:10061300A2ED02120122B3EE02120122BDEE02127A
:100623000122E8EF02120122DFF0021201224CF153
:10063300021201221D8E031201225A8F031201227C
:100643006C8101120122F881011201225C830112E3
:100653000122688301120122A38301120122128461
:10066300011201221B85011201222486011201229B
:10067300EB860112012248880112012266880112C9
:1006830001228388011201224E89011201227689F7
:1006930001120122408C01120122458C0112012218
:1006A3005E8E01120122AC8E011201221C8F0112F7
:1006B30001225A8F01120122369001120122F69073
:1006C30001120122429101120122459101120122DC
:1006D300899101120122D19101120122109201127A
:1006E3000122329201120122669201120122C99261
:1006F30001120122DBD202120122E9D202120122EB
:100703003CD3021201225BD302120122A0D30212B4
:100713000122E4D4021201227FD502120122C3D5A1
:1007230002120122EDD5021201225CD6021201222D
:10073300A2D60212012219D702120122CAD702122B
:100743000122F02400120122002500120122A1251A
:1007530000120122FD2500120122BA2600120122F5
:10076300DB27001201220A2800120122B7290012F6
:1007730001222E2C001201229E2E00120122902F04
:10078300001201228930001201229032001201224C
:10079300843500120122B33600120122B738001249
:1007A3000122C73900120122563B00120122473CA5
:1007B30000120122953C00120122043D0012012285
:1007C300283D00120122C94100120122CA4200122F
:1007D30001222B43001201225643001201221C4422
:1007E30000120122C9CD02120122D3CD021201222D
:1007F30018CE021201222CCE02120122BCCE02120A
:100803000122F5CE0212012230CF0212012259CF6A
:1008130002120122ADCF02120122C2CF0212012223
:10082300E4CF02120122F9CF021201220DD00212EB
:10083300012222D0021201225CD00212012288D0AE
:1008430002120122B6D00212012201D102120122A8
:1008530063D102120122D5D1021201221BD202124C
:1008630001225ED20212012288D202120122B3D2E5
:1008730002120122359103120122108B021201226E
:10088300F38B021201226E8C02120122A98C021236
:100893000122FA8D02120122888E021201221A917C
:1008A30002120122CC9102120122D89202120122D9
:1008B3004B9402120122A49402120122A3FB0112FF
:1008C3000122E6FB011201226AFC0112012241FF0F
:1008D30001120122C4820312012276830312012230
:1008E300728403120122B184031201220B850312C5
:1008F30001222E87031201229187031201222E88DF
:100903000312012263880312012293880312012236
:10091300CE8803120122EE8803120122DCD70212D1
:10092300012268D80212012227D9021201223FDADA
:100933000212012259DC021201221FF001120122CC
:1009430044F00112012211F101120122E5F1011219
:10095300012252F20112012292F2011201222EF31C
:100963000112012262F4011201223DF5011201225A
:100973009CF50112012228F60112012296F60112BA
:10098300012222F70112012268F701120122DAF78C
:10099300011201226CF8011201220DF90112012248
:1009A3002DF90112012275F901120122BEF901127A
:1009B3000122DAF90112012200FA011201227AFA64
:1009C3000112012288FA0112012217FB01120122EE
:1009D30080FB0112012290DC0212012215DD0212BA
:1009E300012257DD021201223BDE02120122A8DEA0
:1009F30002120122ECDE0212012230DF0212012276
:100A03005DDF0212012285DF02120122BDDF021225
:100A13000122FBDF0212012222E0021201229CE0EA
:100A230002120122E6E002120122566D0012012297
:100A3300F56E001201222D71001201228171001244
:100A43000122AC7100120122887200120122B872D5
:100A530000120122E77200120122FA72001201222F
:100A63003B7300120122687300120122B673001255
:100A73000122F273001201223774001201228474DE
:100A830000120122FE74001201223F77001201229C
:100A9300297900120122657900120122F47A0012E9
:100AA3000122397B00120122AC7B00120122017C5E
:100AB30000120122067C00120122AF7C00120122E7
:100AC3007B7D00120122057E00120122917E00121D
:100AD3000122B07F00120122C17F001201220D9F6B
:100AE30002120122869F0212012240A50212012254
:100AF3004BA602120122F4A70212012282A80212BB
:100B03000122225900120122A35900120122D059B5
:100B130000120122195A001201221A5B001201224B
:100B23005E5B00120122945B00120122105D001231
:100B33000122925D00120122AD5D001201221E5EB0
:100B430000120122DB5E001201229E5F00120122CD
:100B53002C6000120122E36000120122F6600012F1
:100B630001228F61001201222662001201224D62CE
:100B730000120122B6620012012200630012012258
:100B83004E6300120122F3630012012291640012EA
:100B930001221E65001201228F6500120122D66513
:100BA300001201222E660012012260660012012249
:100BB3001A67001201222168001201226A680012DA
:100BC3000122876800120122A66800120122D96956
:100BD30000120122906A00120122B56A001201225A
:100BE300CA6A001201223A6B001201227B6B0012C7
:100BF30001229F6C00120122206D001201224D95EB
:100C030002120122989502120122A49502120122D6
:100C13007896021201228F9602120122CC960212BA
:100C23000122FD96021201223597021201228B97AF
:100C330002120122A19702120122DD970212012260
:100C4300F097021201221798021201224B98021206
:100C53000122719902120122BB9A02120122B79B4F
:100C630002120122D49C02120122F57F00120122FA
:100C7300EDB60112012228B7011201227ABA01123C
:100C83000122D6BB0112012295BC01120122FCBF35
:100C930001120122E6C00112012232C10112012216
:100CA3004CC10112012289C10112012294C1011216
:100CB3000122D3C101120122DCC10112012286C229
:100CC300011201225DC301120122B1C301120122EB
:100CD3000EC40112012280C401120122A193011248
:100CE3000122009701120122069701120122379E69
:100CF300011201223EA201120122F5F70212012282
:100D0300D2F80212012216F90212012250F902123C
:100D13000122E8F90212012257FA0212012260FAB3
:100D2300021201226CFA0212012286FA0212012235
:100D3300B0FA02120122E0FA0212012226E10212A3
:100D4300012233E1021201224DE10212012280E16C
:100D530002120122BEE10212012223E20212012247
:100D630038E20212012243E20212012250E202128D
:100D7300012267E20212012275E20212012280E2DD
:100D8300021201228CE2021201229BE202120122D0
:100D9300A6E202120122C9E2021201226DE302124B
:100DA30001227DE30212012297E302120122B4E33E
:100DB30002120122CFE302120122F4E30212012202
:100DC300FFE30212012214E40212012228E40212B8
:100DD300012289E4021201228FE40212012295E426
:100DE300021201229BE402120122B3E40212012245
:100DF300E6E4021201229CE20112012233E3011212
:100E03000122CBE301120122BBE401120122F2E42D
:100E13000112012205E50112012273E501120122EB
:100E23000EE70112012235E701120122D7E7011271
:100E330001220CE8011201221DE80112012296E8A9
:100E430001120122B7E801120122CFE801120122A7
:100E530027EA0112012230EC0112012280EE011275
:100E6300012283EF01120122D2EF01120122CFC529
:100E730001120122CCC601120122B7C701120122BD
:100E8300C1C701120122E3C701120122EFC70112F8
:100E9300012241C90112012270C901120122A0CA13
:100EA30001120122E2CA011201220ECC0112012217
:100EB300E4CC0112012236CD0112012295CD01129B
:100EC3000122CCCD0112012207CE01120122A2D1AF
:100ED30001120122BBD1011201223DD201120122D2
:100EE3004BD201120122A0D201120122AED2011271
:100EF30001221BD3011201228DD301120122D3D36C
:100F03000112012200800212012222800212012218
:100F13000C8202120122B18502120122F48602120E
:100F23000122CE8702120122C98A03120122EE8A0C
:100F3300031201225F8B031201226AB10212012202
:100F430073B1021201227CB102120122ADB202126C
:100F53000122CCB40212012202B5021201223CB5D5
:100F63000212012272B502120122ACB50212012251
:100F7300E0B5021201220CB60212012255B602128A
:100F830001228FB602120122D7B6021201222DB717
:100F93000212012262B702120122BDB7021201221C
:100FA300F7B70212012248B8021201227EB80212D8
:100FB3000122B8B802120122E6B80212012209B9CD
:100FC300021201229D9603120122C99603120122E5
:100FD3002497031201222E97031201223E97031234
:100FE3000122629A031201225D99031201228844AD
:100FF30000120122EC4600120122A3480012012232
:10100300004900120122024A001201228A4A0012F8
:101013000122114B00120122364B001201222B4EEA
:1010230000120122A14E00120122904F0012012250
:10103300CA4F001201220A5000120122AA510012C3
:101043000122FF51001201224C5200120122BA5216
:1010530000120122E05200120122FA520012012270
:10106300105400120122205400120122A65500122E
:101073000122C65500120122FC550012012280579D
:1010830000120122BF5700120122FD580012012253
:10109300FC88031201226089031201220F8A0312C2
:1010A30001222E8A03120122828A03120122E99568
:1010B30003120122FA9503120122A79903120122B6
:1010C300E69903120122E47F0012012248970312DA
:1010D30001225897031201226A9703120122D09723
:1010E30003120122499203120122CD92031201221B
:1010F300339303120122B78F03120122E08F0312ED
:1011030001224D9003120122A19003120122FA90B1
:1011130003120122AA9A0312012243940312012209
:101123006C9403120122959403120122D7940312A3
:1011330001225BC80212012265C802120122A5C85E
:1011430002120122EEC80212012228C90212012250
:101153007EC9021201229DC902120122A6C90212EE
:101163000122F7C90212012220CA0212012235CA42
:1011730002120122A5CA0212012233CB021201225A
:1011830077CB021201229FCB021201221ECC021244
:10119300012261CC021201229ECC02120122B0CCA8
:1011A30002120122CFCC02120122D8CC0212012258
:1011B3009DCD021201227F8C03120122D08C0312D7
:1011C3000122598D03120122BF8D031201220080D7
:1011D300031201222A800312012224810312012215
:1011E300538103120122D981031201224C9303126A
:1011F3000122FAFD0212012230FE0212012269FECF
:1012030002120122C2FF02120122D397031201220A
:10121300E99703120122F39703120122AB980312F9
:10122300012297B90212012254BA021201228FBA83
:1012330002120122B7BA0212012219BB02120122C1
:1012430065BB02120122D0BB021201224CBC021266
:10125300012248BD02120122CFBE0212012252BF57
:1012630002120122B6BF02120122CDBF02120122D5
:10127300C3C0021201220FC10212012268E5021249
:1012830001227DE50212012230E60212012270E6FC
:101293000212012289E602120122BCE60212012295
:1012A30009E7021201223DE7021201227FE702123F
:1012B30001220EFB0212012235FB0212012252FB14
:1012C30002120122AEFB0212012299FC0212012238
:1012D3005CD40112012213D801120122A5D90112F3
:1012E3000122FCD9011201221BDA0112012299DA2F
:1012F300011201222BDC011201220FDD0112012256
:1013030020E101120122F4E101120122D6F40212BA
:10131300012275F60212012216F702120122C0F70A
:101323000212012249980312012267980312012233
:10133300819803120122F09903120122369A0312B3
:1013430001228C9A03E066701008A3E066700A0815
:10135300A3E066700408A3E06622C3E7960809E7E2
:10136300960809E7960809E79622C3E09608A3E0E2
:101373009608A3E09608A3E09622C008C3E096F57A
:101383000808A3E096420808A3E096420808A3E0F1
:101393009645087001D3D00822080808EAC0E0EB9C
:1013A300C0E086F0E7A4FA180986F0E7A42AFA1841
:1013B3000986F0E7A42AFA180986F0E7A42AFA199D
:1013C30086F0E7A4FBE5F02AFA190886F0E7A42BD8
:1013D300FBE5F03AFA190886F0E7A42BFBE5F03AAF
:1013E300FA18180986F0E7A4C5F02BFBE43AFA19BA
:1013F30008E7C5F0C6A426F6E5F03BFBE43AFA1885
:1014030086F0E7A4F6E5F00826F6E43B08F6E43AAE
:1014130008F6D0E0FBD0E0FA226016080808C6C33D
:1014230013C618C613C618C613C618C613C6D5E006
:10143300EA227009080808226016181818C6C33370
:10144300C608C633C608C633C608C633C6D5E0EADF
:1014530022E627F60809E637F60809E637F608090B
:10146300E637F622E026F608A3E036F608A3E036D0
:10147300F608A3E036F622E026F008A3E036F008EB
:10148300A3E036F008A3E036F022C3E697F6080996
:10149300E697F60809E697F60809E697F622C3E009
:1014A30096F008A3E096F008A3E096F008A3E09670
:1014B300F022E056F608A3E056F608A3E056F60835
:1014C300A3E056F622E056F008A3E056F008A3E0A6
:1014D30056F008A3E056F022E0F608A3E0F608A3CE
:1014E300E0F608A3E0F622E6F008A3E6F008A3E698
:1014F300F008A3E6F022E0FAA3E0FBA3E0FCA3E0FC
:10150300FD22E0F8A3E0F9A3E0FAA3E0FB22E8F070
:10151300A3E9F0A3EAF0A3EBF022CAC0E0E6F0A34C
:1015230008DAFAD0E0FA22CAC0E0E0A3C582CCC54B
:1015330082C583CDC583F0A3C582CCC582C583CDC7
:10154300C583DAE6D0E0CA22C3E498F8E499F91235
:10155300158C8026C3E49AFAE49BFBE920E7E912A1
:10156300158CE498F8E499F922C3E498F8E499F91E
:1015730012158CE498F8E499F9C3E49AFAE49BFB16
:1015830022EB20E7CFE920E7E0B90010BB0008E831
:101593008AF084F8AAF022E4FBC8FA22EB70227BDB
:1015A30010C833C8C933C9335007C39AC3DBF280A9
:1015B300069A50012ADBEAC833F4C8C933F4C9FADE
:1015C3002275F008E4C833C8C933C933C99AC99B23
:1015D3005004C92AC93BD5F0ECFBC833F4C8E4C9AD
:1015E300FA22600D08C6A2E713C618C613C6D5E0D3
:1015F300F322600C08C6C313C618C613C6D5E0F49D
:1016030022700422600D18C6C333C608C633C6D57C
:10161300E0F41822251810AF08F518400C151980AE
:1016230008F51840021519D2AF2200C0D0251810B2
:10163300AF08F518500C05198008F5185002051964
:10164300D2AFD0D0222518F58210AF08F518400C80
:1016530015198008F51840021519D2AF8519832290
:101663002518F582E43519F583222518F8E4351990
:10167300F9222518FAE43519FB222518FCE435195B
:10168300FD22E4732518C582C0E0E51934FFC58344
:10169300C0E0E518C3958224F810AF088583198547
:1016A30082188008858319858218D2AFCEF0A3E50E
:1016B30020F0A37808E608F0A3DEFAEFF0A3E581B3
:1016C30024FAF8E608F0A3E608F0A3E608F0A30876
:1016D30008E608F0A3E608F0A315811581D0E0FE23
:1016E300D0E0F8158115811581E8C0E0EEC0E02255
:1016F3002518C582C0E0E51934FFC583C0E0E518AD
:10170300C3958224F910AF08858319858218800850
:10171300858319858218D2AFCEF0A3E520F0A37894
:1017230008E608F0A3DEFAEFF0A3E58124FBF8E670
:1017330008F0A3E608F0A30808E608F0A3E608F01B
:10174300A315811581D0E0FED0E0F815811581E85D
:10175300C0E0EEC0E022851983851882E0A3FEE095
:10176300A3F5207808E0A3F608DFFAE0A3FFE0A3DF
:10177300C0E0E0A3C0E0E0A3C0E0E0A3C0E0E0A3DA
:10178300C0E010AF08858218858319800885821808
:10179300858319D2AFD083D08202011F8519838537
:1017A3001882E0A3FEE0A3F5207808E0A3F608DFA3
:1017B300FAE0A3FFE0A3C0E0E0A3C0E0E0A3C0E041
:1017C300E0A3C0E010AF08858218858319800885DF
:1017D3008218858319D2AFD083D08222C0D0251836
:1017E300C582C0E0E51934FFC583C0E0E518C395A1
:1017F3008224F310AF0885831985821880088583B6
:1018030019858218D2AFC8F0A3E9F0A3EAF0A3EBDD
:10181300F0A37908E709F0A3D8FAECF0A3EDF0A35D
:10182300EEF0A3EFF0A3D0E0F0A3D0E0F0A3D0E07C
:10183300F0A3E520F0A3E5F0F0A322851983851832
:1018430082E0C0E0A3E0F9A3E0FAA3E0FBA37808F9
:10185300E0F608A3DFFAE0FCA3E0FDA3E0FEA3E0CB
:10186300FFA3E0C0E0A3E0C0E0A3E0F5D0A3E0F570
:1018730020A3E0A3F5F010AF0885831985821880B3
:1018830008858319858218D2AFD082D083D0E0F83F
:10189300D0E03274048006740280027401C0E0F464
:1018A30004121648D0E012151D2274048004740239
:1018B3008000CCC0E0EDC0E0E518C39CCCAD19506E
:1018C300011D10AF068C188D1980068C188D19D246
:1018D300AF12152AD0E0FDD0E0FC22D083D082E9FC
:1018E300C0E0E493A3C386F0C5F095F0F908E49350
:1018F300A386F0C5F095F0700BE493A3C39940055C
:10190300E9048002A3E475F002A42582F582E5F0E0
:101913003583F583D0E0F9E493A3C0E0E493C0E01A
:1019230022D083D082ECC0E0EDC0E0E493A3FCE4DA
:1019330093A3FDED4C600D121970EC24FFFCED3404
:10194300FFFD80EFE493A3FCE493A3FDED4C600D56
:101953001219AFEC24FFFCED34FFFD80EFD0E0FD66
:10196300D0E0FCE493A3C0E0E493C0E022C0E0C372
:10197300E49396087401939618400FE493667008F5
:1019830008740193661870007019A3A3C3E49396B7
:10199300087401939618A3A3400DD0E0D0E0D0E0E3
:1019A300021960A3A3A3A3A3A3D0E022C0E0C0F0C5
:1019B30088F0E4936670080874019366187000A8B1
:1019C300F0A3A3700BD0F0D0E0D0E0D0E002196018
:0719D300A3A3D0F0D0E02235
:1019DC0074F61216F3EAFEEBFF8C088D09EE243434
:1019EC00F8E43FF9E8FCE9FDEE2435121CEFFAEEC1
:1019FC002437121CEFF88508F0A4C885F00A850975
:101A0C00F0A4250AF9EA28F8E439F97A257B0012C2
:101A1C00158CEA8C828D83F0FA131313541FF8EE95
:101A2C0028F8E43FF9E8245DF582E439F583E0C059
:101A3C00E074075AF8D0E0B800028004C313D8FC55
:101A4C00A2E0EE50082434F582E43F8018243612CC
:101A5C001CEFF5F0EA84A8F0EE28F8E43FF9E8244E
:101A6C0038F582E439F583E0F97F0302179F74F7A8
:101A7C001216F3EAFEEBFFEE2434121CEFC0E0EE7C
:101A8C002435F582E43FF583D0E0F08E828F83A37A
:101A9C00A3A3A3A3A3A3C082C0838E828F83A3A37B
:101AAC00A3A3A3E0F8A3E0F9D083D082E0C398F518
:101ABC0008A3E099F509EE247F121CEF6401703E37
:101ACC00EE2480F582E43FF583C082C0838E828F42
:101ADC0083A3A3A3A3A3E0240108A3E03400F9D0BB
:101AEC0083D082E0687003A3E06970127CAF7D0440
:101AFC00120BAAEE247FF582E43FF583E4F0AC08E8
:101B0C00AD09EEFAEFFB1219DCE9F91224477F025A
:101B1C0002179FC082C083851882851983E0F8A3C1
:101B2C00E0F9C3EA9CEB9D5010C3EC98ED99401B77
:101B3C00C3EA98EB995014800EC3EA98EB994007CE
:101B4C00C3EC98ED994004790180027900D083D0E0
:101B5C008222EAC39CFAEB9DFB2274EF1216F390DF
:101B6C000374E064086005E06407702A9061C8E0C3
:101B7C0060249003A2E0F4601DE0F875F00BA4C89B
:101B8C00AAF02AF974A428FE740339FF8E828F837D
:101B9C00A3A3A3E07003021C74906060E0C0E0EEAD
:101BAC002468F582E43FF583D0E0F0750C1F750DC9
:101BBC0005750800750900E5D914F50AE5D9540333
:101BCC00F50E60127403650E6043E50A600AEE249C
:101BDC0067121CEF7002807590051AE06401601F9B
:101BEC00121CEC60047A0480027A00E50AC39AFAAB
:101BFC0095E0FB120A3C8A088B09EA45097005122C
:101C0C000DD88064121CEC70048A0C8B0DE50A60F4
:101C1C0012850C82850D83F50BE5D9F0A3150BE528
:101C2C000B70F6121CEC604474FC250AF50A780C57
:101C3C0012189AAC0AA90EEEFAEFFB120C6474029D
:101C4C0012162DE97026AA08AB091211BC793D8E2B
:101C5C00828F83A3A3A3A3E0FA7B0012089EEEFA63
:101C6C00EFFB120BCE120C767900806F7403650EAD
:101C7C006051850A10751100781012189AAC0CADD1
:101C8C000DAA08AB09120C28740212162DEE24684A
:101C9C00121CEF64807004747F8001E0F50C780CEA
:101CAC0012189EE50EF50C780C12189EA90AAC08B9
:101CBC00AD099003A2E0FA7B0012087474021216AC
:101CCC002D8013900374E06408600BAC0CAD0DEE2A
:101CDC00FAEFFB120CEE120DE479017F0A02179F4A
:101CEC00EE2483F582E43FF583E02274F21216F3BE
:101CFC0074FC121617EAFEEBFF8909A2AFE433F568
:101D0C0008C2AF021DC1E0601B780C12189AAC0B14
:101D1C00A90EEEFAEFFB120C5E740212162D74046F
:101D2C00250BF50B7401250BF5D9850ED9E50B6048
:101D3C0018F50A850C82850D83E0F5D9A385820CF4
:101D4C0085830D150AE50A70EA75E195EE2463F8B2
:101D5C00E43FF97A007B00A2AFE433F50BC2AF8805
:101D6C00828983E0FCA3E0FDEC4D603A8882898394
:101D7C00E0FAA3E0FB8A828B83E0FCA3E0FD88827F
:101D8C008983ECF0A3EDF08A828B83E4F0A3F088D6
:101D9C00828983E0FCA3E0FDEC4D700A8882898384
:101DAC00A3A3E4F0A3F0E50BA2E092AF1211BC9058
:101DBC0004B6E004F0EE2463121CEFF8A3E0F9E89B
:101DCC00496064EE2463121CEF2402F8A3E0340093
:101DDC00F988828983E5822402F50CE43583F50DBC
:101DEC00E0F50BA3E0F50EEE2462121CEF6401701B
:101DFC00369061D0E0F8121CEC60047C0480027C0C
:101E0C00007480C398FA95E0FBE50B2CF8E43400E1
:101E1C00F9E82402F8500109C3EA98EB99A2D265BB
:101E2C00D0334003021D129004B6E0604D9004B70D
:101E3C00E0F89004B6E0C398500C74026509703A4F
:101E4C009004B8E060348E828F83A3A3A3A3E085B3
:101E5C001882851983121E967402121663E8121EDC
:101E6C00969004B5E028F0740212167DAA18AB19EE
:101E7C0079011208C89004B6E4F0E508A2E092AF2C
:101E8C00740412162D7F0702179FF0A3E4F0900440
:101E9C00B6E0F8228521878522C622C0E074EB12B9
:101EAC0017DFA2AFE433F508C2AF759B00906182D7
:101EBC00E0A2E05030E591A2E0502A7591FE740149
:101ECC006521702112203A120D301220281218AD03
:101EDC001221F1740412162DE964017005790112B6
:101EEC000D6C121B66906182E0A2E5505DE591A23B
:101EFC00E550577591DF900374E064076005E0646A
:101F0C0008702F12203A74016521703E120D3012A8
:101F1C0020281218AD1221F1740412162DE9640157
:101F2C0070057901120D6C7901EEFAEFFB121CF7BA
:101F3C008018E0640D7013900396E004F064287030
:101F4C0002E4F07A00E0F9120DEA906182E0A2E678
:101F5C004003021FFDE591A2E64003021FFD7591AF
:101F6C00BF900374E064057008120D18120D2480E4
:101F7C0003120D1E752100120D78E9900375F0798E
:101F8C0000120D6C120B147A017B00900373E0F9B4
:101F9C0012118C907803E06442705690051EE01488
:101FAC00F0704EC2AF121FB400782AD0E0F618D0F1
:101FBC00E0F6E59F5407F87005750DFF8003750D6D
:101FCC007FC4C0E07829E6F50A08E6550DF50B74D8
:101FDC000B780A1215F5D0E0250AF8906270E0A291
:101FEC00E740F8E8C333906272F0906270E0D2E0A0
:101FFC00F0906181E0A2E35009E5E9A2E35003759A
:10200C00E9F7A3E0A2E75009E591A2E75003759127
:10201C007FE508A2E092AF7F0802183E8E828F8384
:10202C00E0F8A3E0C82416F582E438F58322900387
:10203C00A2E0F875F00BA4C8AAF02AF974A428FE43
:10204C00740339FF22C0E0C0D0C082C0839061838A
:10205C00E0A2E05009E5BFA2E0500375BFFEE0A28C
:10206C00E15009E5BFA2E1500375BFFDE0A2E250CB
:10207C0009E5BFA2E2500375BFFBE0A2E35009E5FE
:10208C00BFA2E3500375BFF7E0A2E45009E5BFA27D
:10209C00E4500375BFEFE0A2E55009E5BFA2E5509F
:1020AC000375BFDFE0A2E65009E5BFA2E650037559
:1020BC00BFBFD083D082D0D0D0E032C0E074F21257
:1020CC0017DFE5A7A2E6500FE5A1A2E6500953A73A
:1020DC00BF75A1BF12211BE5A7A2E5500CE5A1A27B
:1020EC00E5500653A7DF75A1DFE5A7A2E15009E58E
:1020FC00A1A2E1500375A1FDE5A7A2E2500CE5A158
:10210C00A2E2500653A7FB75A1FB7F0102183E7497
:10211C00F71216F3752101900374E0640670151222
:10212C000C9A8A828B83A3A3A3A3A3A3E0FAA3E0B4
:10213C00FB120D06A2AFE433FED2AF90037AE0643B
:10214C000170187A207B00900373E0F91212A07AC8
:10215C00207B00900373E0F9121192906182E0D21F
:10216C00E6F090051BE0602185C62280169003796D
:10217C00E064017008E5C654F84405F5C653BEFC8E
:10218C00121EA07401652160E4EEA2E092AF7F0202
:10219C0002179F008E238F2485822885832785181C
:1021AC0082851983E0CEA3E0CF852882852783EB37
:1021BC00C9EAC8EDCBECCA75F010C3E833C8E933F3
:1021CC00C9EA33CAEB33CBC3EA9EF526EB9FF52560
:1021DC00B35004AB25AA26EC33CCED33CDD5F0DAD5
:1021EC00AE23AF242274F11216F38A088B098C0AE1
:1021FC008D0B90810A78081214B5740F121663783F
:10220C000C1214DB90810A780C1214B57808790C36
:10221C0012135D90810650107808790C12148D7889
:10222C000812137D4014800E780C790812148D78E6
:10223C000C12137D50047901800279007F0802177B
:10224C009F74ED1216F38A088B098C0A8D0B908102
:10225C000A78081214B57413121663780C1214DB76
:10226C0090810A780C1214B5780C790812135D4021
:10227C00117808790C12148DAA08AB09AC0AAD0BB5
:10228C0080227510007511007512007513017810FD
:10229C00790C12148D78107908121454AA10AB1101
:1022AC00AC12AD137F0C02179F90810A78081214A0
:1022BC00DB8A828B8378081214C87F0402179F7400
:1022CC00F51216F38C828D8378081214DB8A828BBC
:1022DC008378081214A1122323C3E09CF0A3E09D81
:1022EC00122315402290812678081214DB8A828BE7
:1022FC0083780812147A8A828B83A3A3A3A3E02485
:10230C0020F0A3E0344EF080A0F088828983C3E0F3
:10231C009420A3E0944E22EA2404F8E43BF98C8246
:10232C008D83A3A3A3A3E0FCA3E0FD888289832271
:10233C0074F51216F3E9FE9004D1E0FAA3E0FBEE7B
:10234C0029F8E433F9749128F582748039F583E027
:10235C002AF508A3E03BF509780812189A90812217
:10236C001214F91221A0740212162D8A088B098CF2
:10237C000A8D0B7410780812141CAA08AB097F0480
:10238C0002179F74F11216F38A0C8B0D8C0E8D0FA5
:10239C0074111216631218B17411121663E0240131
:1023AC00F508A3E03400F509E4F50AF50B780C798F
:1023BC000812139C90811278081214DB780C79089F
:1023CC0012139CAA0CAB0DAC0EAD0F1221A0740213
:1023DC0012162D8B09EA450960047A0180027A00F5
:1023EC00EC2AFCE43DFD7413121663E0F8A3E0F94B
:1023FC00E8FEE9FFECF8EDF97A717B0212158C8896
:10240C00088909E4F50AF50B8E828F83780812147B
:10241C00EAECF8EDF97A717B0212158C8A088B09BB
:10242C00740578081216048E828F83A3A3A3A3E5E8
:10243C0008F0A3E509F07F0802179FC082C083E96A
:10244C00906000F0D083D08222C0E074F21217DFCB
:10245C00A2AFE433FED2AFE589A2E1500312110E14
:10246C00758900C2C5EEA2E092AF7F0102183EC092
:10247C00E074F21217DFA2AFE433FED2AFE58BA209
:10248C00E0500312110E758B00C2E880D8C0E0C07A
:10249C00D0E8C0E0E9C0E0A9A8D2AFC2C7E9A2E782
:1024AC00E433F8E9A2E792AFD0E0F9D0E0F8D0D06D
:1024BC00D0E032C2AF02000022C0E0C0D0C082C067
:1024CC0083E5AFA2E0500C901517E02401F0A3E0D7
:1024DC003400F0D083D082D0D0D0E032FFFFFFFFA9
:1024EC00FFFFFFFFC082C083E99015DCF0D083D0E2
:1024FC008202011F74F6121687E99002E6F090032F
:10250C0046E0F50875090074027808121604AA084A
:10251C00AB091211FE9002E7122E869002E71232DE
:10252C0073606F900346E075F003A4FAABF01211E0
:10253C00FE900304122E86900304123273700B90DB
:10254C0002E71232441212048048900304124187AD
:10255C007AFF7BFF1210907A0080198A08750900A7
:10256C0074027808121604123C8074FF1226B3E42D
:10257C00F0A3F00A900346E0F8EAC39840DD790531
:10258C0012075A9002E6E0F912064C7AD87B071231
:10259C0009DC023D2374F41216878A088B09EB546C
:1025AC008060479002E6E0F91211748A0A8B0BAE38
:1025BC000AAF0BEE4F602A8E828F83E064B0701AE4
:1025CC00120766E960148E828F83A3A3A3A3E0F99C
:1025DC00EE2405FAE43FFB12073CEEFAEFFB121176
:1025EC0062AA08E5096480FB80047A007B0002275C
:1025FC00D674F212168774FB121617EAFEEBFFEE76
:10260C004F60457403121663EEF0A3EFF085188249
:10261C00851983ECF0A3EDF07402121663E9F0AAAD
:10262C0018AB19120646E9F5087075741312166387
:10263C00E0F50AA3E0F50BE50A450B60638E828F8B
:10264C0083122C0FEE4F700575080280537A067BAF
:10265C00001211FE8A0C8B0DA80CA90DE84970050F
:10266C00750813803B88828983E41226B3EEF0A3AD
:10267C00EF1227CFE50AF0A3E50BF09002EA122740
:10268C00C89002EA6017E0FCA3E08003EAFCEBFDD3
:10269C008C828D831227C870F38C828D8312389BA9
:1026AC00A9087405024407F0A3124169A32274F22D
:1026BC001216878908890C750D007403780C121694
:1026CC0004850C0A850D0B9002E9F09002E7123696
:1026DC00A61227C6602E1212047900801D890C7573
:1026EC000D007402780C1216049002E7123B3F881E
:1026FC0082F583A3A3E4F0A3F009900346E0F8E984
:10270C00C39840D9900346E0FA850AF0A4CAA8F011
:10271C00850BF0A428FB1211FE8A0C8B0DAE0CAFAE
:10272C000DEE4F70030227BC900346E0FC850AF0C7
:10273C00A4CCA8F0850BF0A428FD79001211507CD4
:10274C000080318D0C750D007403780C1216048A00
:10275C00828B831227C188828983E4F01227CEA34F
:10276C00A3F0A3F00DEDC3950840D8EE250AFEEFBB
:10277C00350BFF0C900346E0F8ECC39850288C0CFA
:10278C00750D007402780C1216049002E71227C122
:10279C00E82402500109FAE9FB8A828B83EEF0A34C
:1027AC00EFF07D0080BFE5089002E9F0790080022F
:1027BC00791302440A123B43F922A3A3123248EACA
:1027CC004B22A3124169A3A3A3227F04021759C071
:1027DC0082C0839002EA123273601C88828983A3C0
:1027EC00A3E06A7003A3E06B8882898370E8A3A3DB
:1027FC00A3A312324480047A007B000224F974F201
:10280C0012168774FD121617EAFEEBFF85188285E7
:10281C001983E4F0A3F074021216637401F01232FF
:10282C007070141209161211FE9002ED122E8612FF
:10283C003270700302299C122F86EE2404F50AE4F0
:10284C003FF50B850A82F583E024FE603C24FC6096
:10285C007424FE607E24FE70030228EC24FE7003B8
:10286C000228F924FE700302290624FE70030229B3
:10287C001324FE700302292024FC70030229412436
:10288C00FE70030229590229951209169002EFEAEB
:10289C00F0A3EB1229A81203A6E960030229959074
:1028AC0002EF1218B18E828F83A3A3A3A3A31241AC
:1028BC008785088285098312324412072474021218
:1028CC00162D022995AC18AD19EEFAEFFB12076C18
:1028DC00022964AC18AD19EEFAEFFB12077280787E
:1028EC00AC18AD19EEFAEFFB120778806BAC18AD93
:1028FC0019EEFAEFFB12077E805EAC18AD19EEFAFA
:10290C00EFFB1207848051AC18AD19EEFAEFFB12F5
:10291C00078A8044740212166D880C890D780C128B
:10292C00189A740212167DEEFAEFFB1207907402DD
:10293C0012162D8023AC18AD19EEFAEFFB12079688
:10294C00E9F870167402121663E4F0803CAC18AD12
:10295C0019EEFAEFFB12079CE9F8E8602C8E828FD7
:10296C0083A3E064146022850A82850B83E09002C5
:10297C00EFF08518828519831232449002F0122EE2
:10298C0086E8A31229A81203A0EEFAEFFB1206FAAE
:10299C007402121663E0F97403024407F07CEF7DB5
:1029AC00028508828509831232482274E812168740
:1029BC0074FA1216177404121663ECF0A3EDF08A75
:1029CC00128B13EA2405F50EE43513F50FEA2402F5
:1029DC00F510E43513F511851082F583123244128B
:1029EC0004908A0A8B0B7508007C037D0079007AB1
:1029FC00EF7B02121150E50E2402F516E4350FF5AB
:102A0C0017740212166D880C890D780C12189A85A1
:102A1C000E82850F83A3A3A3A3E0F50C750D00789C
:102A2C000C12189AE50E2405F50CE4350FF50D780B
:102A3C000C12189A85168285178312354B12066470
:102A4C00740612162D8A0C8B0DE50C450D700302C5
:102A5C002BD88020851882851983E088828983F0A1
:102A6C000508851882851983A3E0C0E0122C19D0C3
:102A7C00E0F00508E50A24FBFAE50B34FFFBC3E59F
:102A8C00089AE49B4003022BD87E007F00851282BB
:102A9C00851383A3A3A3A3E0F509780912189EE478
:102AAC00F514F515781412189A7514EC751502783E
:102ABC001412189A9002ED1218B1740912166312BE
:102ACC0018B1E50A24F9F9AC0CAD0D85108285110D
:102ADC00831232441207C0740912162DE9600302E6
:102AEC002B79850E82850F83A3A3A3A3A3A3A3E0B5
:102AFC00F89002ECE0687075E0F5148E15781412FD
:102B0C00189A124184850E82850F83A3A3A3A3A3D5
:102B1C00A3A3A312324412114A740212162DE960B7
:102B2C004C9002F0123273703BE4F51478141218C6
:102B3C009A7CFF7DFF7907851082851183123244C0
:102B4C00120736740212162D1232797017850E8206
:102B5C00850F831243217404121663123C33123511
:102B6C007C022C0C850C82850D83122C0FA818A9C5
:102B7C001988148915781412189A74041216631291
:102B8C0018B1851682851783122E7C120670740478
:102B9C0012162D8A0C8B0DEE4F7003022A55122C37
:102BAC0019EE122C24123532EF122C24F8A3E03437
:102BBC0000F9E50C450D6003022A60888289837454
:102BCC00FFF00508122C1974FFF00508E508601ACF
:102BDC001313543F122E8C1203B2E960099002F0C9
:102BEC001232441211BC79008016850E82850F8337
:102BFC001243217404121663123C3312389B790A67
:102C0C00023505A3A3A3A3E0FEA3E0FF22A808902E
:102C1C0002F0E02812353222F00508089002F0E0AC
:102C2C00282274E812168774FA12161774021216F8
:102C3C0063122E867404121663ECF0A3EDF074028A
:102C4C00121663E0240512351BE0F50CA3E0F50D1C
:102C5C007402121663E02402F510A3E03400F5119F
:102C6C00851082F5831232441204907508007509A0
:102C7C0000EA24FCFEEB34FFFF8008050CE50C7029
:102C8C0002050DA808C3EE98EF94005003022E38ED
:102C9C00A818A919880E890F780E12189A85148213
:102CAC00851583A3A3A3A312418B12189AE51424B0
:102CBC0005F50EE43515F50F780E12189A85148269
:102CCC00851583122E7A120664740612162D8A0E3E
:102CDC008B0FEA450F7003022E38EA2404F516E434
:102CEC00350FF517851682F583E0F50CA3E0F50D8D
:102CFC008518828519831241878A828B83A3A3A3AB
:102D0C00E0F9851082851183123244120652E9F5DE
:102D1C00096003022E387402121663123542F5094B
:102D2C00780912189EE4F512F513781212189A7598
:102D3C0012EC751302781212189A9002ED1218B157
:102D4C0074071216631218B1EEF9AC0EAD0F8510A4
:102D5C00828511831232441207C0740912162DE9B0
:102D6C00F5096003022E38E508703FE4F50EF50F07
:102D7C00780E12189A7CFF7DFF79098510828511D7
:102D8C0083123244120736740212162D12356870F3
:102D9C000D7404121663122E6F7911022E6C9002B0
:102DAC00ECE024029002F0F080149002F0E0FA9033
:102DBC0002ECE0790024025001096A497072A808FB
:102DCC009002ECE0FAE82AFAE43400FBEE9AEF9B6E
:102DDC00405A851682851783E0C0E09002F1122CD0
:102DEC001ED0E0F00508851682851783A3E0C0E0AD
:102DFC00089002F1122C1ED0E0F005089002EC12A3
:102E0C00418B12189A124184A80812350F121138EE
:102E1C00740212162D9002ECE02508F50874FF657B
:102E2C000C700474FF650D6003022C87E508601FAD
:102E3C009002F0E0F5F0E50884122E8C1203B8E94C
:102E4C0060099002F11232441211BC79008011E534
:102E5C0009700375090A7404121663122E6FA909FE
:102E6C000235051236AAE50CF0A3E50DF022A3A35A
:102E7C00124416AA0CAB0D22A3A3EAF0A3EBF0228A
:102E8C009002EFF07CEF7D02851082851183123267
:102E9C00482274EC12168774FC1216171239AB7494
:102EAC000212167D12323E12066A8A0C8B0DEA450E
:102EBC000D7003022F76122F86A818A91988108975
:102ECC0011781012189A7CFF7DFF790B850882858A
:102EDC000983123244120736740212162D12307CFA
:102EEC00700C850A82850B83123579022F838E82B2
:102EFC008F83A3A3A3A3E0F512781212189EE4F516
:102F0C0012F513781212189A7512EF7513027812C3
:102F1C0012189A781012189A74091216631218B1B2
:102F2C007409121663E0F9AC0CAD0D8508828509A5
:102F3C00831232441207C0740912162DE9FE701563
:102F4C007CEF7D028508828509831232441203BE10
:102F5C00E97009802074166E70027E009002F012E7
:102F6C0032441211BCEE7004800B7E01850A8285FE
:102F7C000B83123898EEF90238ADEE2402F508E412
:102F8C003FF5092274EC12168774FC121617EAFE30
:102F9C00EBFF8C0E8D0FEE2405F508E43FF509745C
:102FAC000212167D85088285098312324412066A44
:102FBC008A0C8B0DEA450D700302306CEE2402F581
:102FCC000AE43FF50BA818A919881089117810127A
:102FDC00189A7CFF7DFF790D12323E12073674026F
:102FEC0012162D12307C700B8508828509831235E0
:102FFC0079807A8E828F83A3A3A3A3E0F512781233
:10300C0012189E850882850983A3A31218B1751224
:10301C00EF751302781212189A781012189A740914
:10302C001216631218B17409121663E0F912323ACF
:10303C001207C0740912162DE9FE700F7CEF7D0289
:10304C0012323E1203C4E97009802074166E7002AD
:10305C007E009002F01232441211BCEE7004800B10
:10306C007E01850882850983123898EEF90238AD05
:10307C00123283F510A3E0F511EA45112274E8121F
:10308C00168774FE1216178A168B178C148D15EA78
:10309C002405F50CE43517F50DEA2402F50EE4359C
:1030AC0017F50F850E82F5831232441204908A08AC
:1030BC008B09750B007C037D0079007AEF7B021283
:1030CC001150750A00E50814F5100424FFF508E505
:1030DC000934FFF50980549002EFE0FA9002ECE01D
:1030EC00F8EA28F8E43400F9E50898E50999500D58
:1030FC009002EFE0F8E510C3989002ECF0E0F512C6
:10310C00751300781212189A1241849002F0E02A7A
:10311C00FAA3E03400FB121138740212162D90023F
:10312C00ECE0F89002EFE028F0050A850C82850DA2
:10313C0083A3A3123B4F400302321F9002EFE0C364
:10314C009508E49509400302321FAE0AEE2EFEE408
:10315C0033FF12325EAC18AD1912419FE439FB12E9
:10316C00066A8A128B13AC12AD13EC4D701B750BE7
:10317C000112324E12389C9002F01227C8600312D2
:10318C0011BCA90B7402023507851682851783A31F
:10319C00A3A3A3E0F50B780B12189EE4F512F5131C
:1031AC00781212189A7512EC751302781212189A7A
:1031BC009002ED1218B174071216631218B1A9100F
:1031CC00850E82850F831232441207C074091216C1
:1031DC002DE9F50B709B9002F012327360030230F4
:1031EC00E3E4F512F513781212189A7CFF7DFF793F
:1031FC000F850E82850F8312324412073674021229
:10320C00162D12327960030230E312324E12357DE4
:10321C000231907CEF7D02850E82850F8312324441
:10322C001203CAE960030231837900023190AC0CBD
:10323C00AD0D850A82850B8312324822E0FAA3E099
:10324C00FB2212325EE0FAA3E0F9EA8514828515BE
:10325C008322850C82850D83E02EF8A3E03FF9884C
:10326C00828983229002ED124325E849221232838F
:10327C00F8A3E0F9E849229002F0EAF0A3EBF09011
:10328C0002F0E02274E812168774FA12161774040E
:10329C00121663122E868C168D177404121663E0A8
:1032AC002405F50EA3E03400F50F7404121663E048
:1032BC00240212351B1232441204908A0A8B0B7FA3
:1032CC00007E00A818A91988088909780812189A8C
:1032DC00850E82850F83A3A3A3A3E0F5088E09783E
:1032EC000812189AE50E2405F508E4350FF509784F
:1032FC000812189A850E82850F83A3A312354B12E0
:10330C000664740612162D8A0C8B0D802912353C1E
:10331C00F00F12353CF00F9002EC12388712189A0D
:10332C00124184EFF812350F121138740212162D57
:10333C009002ECE02FFFE50C450D70030233CB85BA
:10334C0018828519831239BDA3A3A3E0F9851482D1
:10335C00851583123244120652E9FEE50C2404F55D
:10336C0010E4350DF511EE7050740412166312351D
:10337C0042F508780812189EE4F508F50978081249
:10338C00189A7508EC750902780812189A9002EDD3
:10339C001218B174071216631218B1E50A24FAF95F
:1033AC00AC0CAD0D8514828515831232441207C006
:1033BC00740912162DE9FE603912355812389BEF3C
:1033CC0070030234F29002F0E0F5F0EF849002EF1B
:1033DC00F07CEF7D02851482851583123244120332
:1033EC00D0E960099002F11232441211BC7900024A
:1033FC0035058F08EF703BE4F512F51378121218AF
:10340C009A7CFF7DFF7911851482851583123244D5
:10341C00120736740212162D1235687009123558BF
:10342C0012357C0235059002ECE024049002F0F099
:10343C0080359002ECE0F89002F0E0FAE82404FC0D
:10344C00E43400FDEC6A4D60030233D1E50A24FA42
:10345C00FAE50B34FFFBE50828F8E43400F9EA98A8
:10346C00EB9950030233D1851082851183E0C0E0C3
:10347C009002F1E02FF8A3E034008882F583D0E0CD
:10348C00F00F851082851183A3E0C0E0123529D09E
:10349C00E0F00F740212166D88088909780812186A
:1034AC009A74021216631218B1850E82850F83125C
:1034BC002E7A120670740412162D8A0C8B0DEA45A6
:1034CC000D70030233197402121663E0C0E012355A
:1034DC0029D0E0F00F7402121663A3E0C0E012359D
:1034EC0029D0E0023321EE70027E0A850E82850F10
:1034FC008312355E12389BEEF9740612162D7F106E
:10350C000217599002F1E028FAA3E03400FB22F5EF
:10351C0014A3E03400F515851482F5832212352DA1
:10352C00229002F1E02FFAA3E034008A82F5832284
:10353C0012352D74FF221236AAA3A3A3A3E02212E4
:10354C004416850E82850F8312324822851082859F
:10355C001183124325851682851783229002F1EA86
:10356C00F0A3EBF09002F1124325E849221238A1A6
:10357C00E8F0A3E9F079112274EA12168774FE12AE
:10358C0016178A088B098C128D13EA2405FEE43574
:10359C0009FFAC18AD198E828F8312324412066A61
:1035AC008A0C8B0DEE2406F50EE43FF50FEA450D63
:1035BC00700302367CE5082402F50AE43509F50BA4
:1035CC008A828B83A3A3A3E0A2E550288518828569
:1035DC0019831232441207BA8A108B11EA45116012
:1035EC0020791212323A851082851183121685E9E0
:1035FC00F50C707F850E82850F83E060097952800F
:10360C0011750C0E806D850882850983A3A3A3A375
:10361C00E0F9E4F508F509780812189A8E828F8380
:10362C00A3A3E0F508780812189A8E828F83A3A3BF
:10363C00A31218B18E828F8312418712323E120769
:10364C00C6740612162DE9F50C7011850E82850FC5
:10365C0083E0702D12323E1203D680257416650C51
:10366C007011750C0074181216631236A6E48010D3
:10367C00750C0112431D851282851383E8F0A3E9B2
:10368C00F0850E82850F83E0600479008002A90C1E
:10369C00740212162D7F0E0217591236AA22E0F868
:1036AC00A3E0F58388822274EC12168774F7121645
:1036BC00178A0A8B0B8C108D11EA2405FEE4350B4E
:1036CC00FF750C00AC18AD198E828F831232441228
:1036DC00066A8A088B09EA45097003023872E50A02
:1036EC002402F50A5002050B8A828B83A3A3A3E064
:1036FC00A2E5502F8518828519831232441207BA1D
:10370C008A0C8B0DEA450D604F7912AC08AD09128D
:10371C00323E850C82850D83121685E9F50C60030B
:10372C00023875850A82850B83E0F508A3E0F5095C
:10373C00AA08FB1207AEEA4B70197AFF7BFF12073F
:10374C00AEEA4B70030238688A828B83E508F0A3DB
:10375C00E509F07508008008750C0E02387505082F
:10376C009002E9E0F8E508C3984003023868850840
:10377C000E750F007403780E1216048A828B83A3C5
:10378C00A3E0250EF8A3E0350F123C3C70D08E82DE
:10379C008F83123890122E868E828F83A3A31238B9
:1037AC0090122E84EE2404F508E43FF50985088276
:1037BC00F583E088828983A3A3A3A3F0A3E4F0EEAE
:1037CC002405F50EE43FF50F850E82F58312389033
:1037DC00A3A3A3A3122E84751207751300781212DB
:1037EC00189AEEFCEFFD740412167512113874025F
:1037FC0012162DE4F512781212189A850882850992
:10380C0083E0FC7D00791712323E120736740212E7
:10381C00162D7407121663122E867407121663E0A7
:10382C00FA4B603D85088285098312388712189AF5
:10383C00850E82850F83124187121138740212167D
:10384C002D740212167D12323E1203DCE9602674CE
:10385C00071216631232441211BC8019750C0980C0
:10386C0008750C118003750C0112431D851082859F
:10387C00118312389BA90C74098028E0F50875098E
:10388C000078082212324888828983221238A1E8F3
:10389C00F0A3E9F022E0F8A3E0F9850E82850F830E
:1038AC0022740412162D7F0C02175974EC12168711
:1038BC001239AB751000EE2402F50CE43FF50D85C2
:1038CC000C82F5831232441207AE8A088B09EA4542
:1038DC0009700302398F850A82850B83E0640160CD
:1038EC0003023984AC08AD09AA0AAB0B1207A2E992
:1038FC00606E850882850983122C11EE2406F50A68
:10390C00E43FF50B8E828F83A3A31218B18E828FA6
:10391C0083A3A3A3A31218B1850A82850B83121863
:10392C00B179188E828F831239BD1232441207C6B8
:10393C00740612162DE9F8741668700B850A8285C8
:10394C000B83E4F0A38014E860128E828F83123212
:10395C0044850E82850F83EAF0A3EBF08810801863
:10396C00780E12189AAC08AD09EEFAEFFB1207A804
:10397C00740212162DE9F510AA08AB091207B4E56A
:10398C0010700E850C82850D831232441203E28076
:10399C0009741665107003751000A9100238B2EA8C
:1039AC00FEEBFF8C0E8D0FEE2405F50AE43FF50BB4
:1039BC0022124416850C82850D832274EA12168716
:1039CC007508007509007E007F00750A00EC240262
:1039DC00F510E43DF5118035EC65087003ED6509D3
:1039EC006003023A7C88828983A3A3E06A7003A3F4
:1039FC00E06B707C88828983A3A3A3A3124321EE7E
:103A0C0028FEEF39FFEA28FAEB39FB050A123B4C8A
:103A1C00503A850A0C750D007403780C1216048547
:103A2C001082851183123B3F123C3C601FE5084518
:103A3C000970A58C088D0988828983122C0F8882C5
:103A4C008983A3A3E02EFAA3E03F80BEE50AC394CA
:103A5C00025003023B3A750800750900EE4F6010E6
:103A6C00EEFAEFFB1211B68A0E8B0FEA450F7005BA
:103A7C007900023B3C750B00023B0F850B0C750D5E
:103A8C00007403780C121604851082851183E025CE
:103A9C000CF50CA3E0350DF50DE50C2406F514E43E
:103AAC00350DF515851482F583123C416042E50C09
:103ABC002404F512E4350DF513851282F5831218E2
:103ACC00B1E50E2508FAE50F3509FB121138740221
:103ADC0012162D851282851383E02508F508A3E0C4
:103AEC003509F5098514828515831232441211BCEF
:103AFC00E50B600D7C087D007900AA0CAB0D121152
:103B0C0050050BE50BC3950A5003023A87851082CA
:103B1C0085118312432188828983A3A3A3A3A3A322
:103B2C00E50EF0A3E50F1227CFEEF0A3EFF079012D
:103B3C000236A1123B4322E0250CF8A3E0350D22FE
:103B4C009002E9E0F8E50AC3982274F01216878A0D
:103B5C000E8B0F8C0A8D0B750D00750C0080507937
:103B6C0016EE2406F508E43FF5098E828F83A3A395
:103B7C001218B18E828F83A3A3A3A31218B1850848
:103B8C00828509831218B1850E82850F83A3A31237
:103B9C0032441207C6740612162DE9F50D7416651B
:103BAC000D706C850882850983E4F0A3F0050C90F8
:103BBC0002E9E0F8E50CC3985066AA0C8A0875096E
:103BCC000074037808121604850A82850B83A3A35C
:103BDC00123C8BE8FEE9FF8E828F83123C416040E1
:103BEC00EA2401F508E43400F5099002E9E06508DF
:103BFC007002E509601488828983A3A3A3A3A3A3FD
:103C0C00A3A31232736003023B6B7918023B6DE97C
:103C1C00609B12431D7410121663123C3312389BB6
:103C2C00A90D7F08021759E0FAA3E0F5838A8222D6
:103C3C00F988828983124416EC4D2274F612168789
:103C4C007C0080010C900346E0F8ECC398501E8C6D
:103C5C000875090074027808121604123C80E06A98
:103C6C007003A3E06B70DDE8FAE9FB80047A007B5B
:103C7C0000023D239002E7123C8B8882898322E06C
:103C8C002508F8A3E03509F92274F21216878A0880
:103C9C008B09750A0080278E828F83A3A3A3A3129E
:103CAC0027C660031211BC7C087D007900EEFAEF88
:103CBC00FB1211508E828F83E4F0A3F0050A123BA5
:103CCC004C5027850A0C750D007403780C121604E1
:103CDC00850882850983A3A3E0250CFEA3E0350D9E
:103CEC00FF8E828F8312327370AD850882850983B3
:103CFC0074FFF0A3F002440A74F6121687120760E0
:103D0C008A828B83E582458370067A007B0080076C
:103D1C00A3A3A3A31232447F0202175974E812160C
:103D2C008774FB121617E9851882851983F08A1699
:103D3C008B17ECFEEDFF7510008E828F83A3A3A36F
:103D4C00E0A2E4502D741D1216631232441207BA0D
:103D5C008A828B83E5824583700302415F790AEE88
:103D6C00FCEFFDAA16AB17121685E9F510600302DD
:103D7C004162741F121663E0F508A3E0F509742183
:103D8C00121663E0F50AA3E0F50B7423121663E038
:103D9C00F50EA3E0F50F8E828F83E06402600302C0
:103DAC004100A3124321850882850983A3858212D1
:103DBC00858313EE2406F50CE43FF50D8882898388
:103DCC0012419FF514E439F51578141219240100E9
:103DDC0000280128023E07000228C73E0328353E72
:103DEC000029F63F012921400229C23F0329F63F51
:103DFC0004299A400041E50E450F60030240FB8503
:103E0C000C82850D83124321E8FAE9FB8A828B83AD
:103E1C00E0850A82850B831241AA12189A8A828B3A
:103E2C0083A3E0FCA3E0024084E50E450F6003028F
:103E3C0040FB850A82850B837401F012419485083E
:103E4C0082850983F07C007D008E828F83A3A3A3DF
:103E5C00A3E02401FAA3E03400FB12066AEA4B60EB
:103E6C00408A828B83E02402F8850A82850B83E0EA
:103E7C0028F0EA2404F8E43BF988828983E085126F
:103E8C00828513831241B81241AA12189A8A828B26
:103E9C0083A3124187E5082403FAE43509FB0240A9
:103EAC0089850A82850B83E02404F07C047D0079EB
:103EBC0000AA12AB13121150024162E50E450F60BD
:103ECC00030240FB124194FEA3E0FF850A82850B9E
:103EDC00837404F0EE850882850983F0EF851282E5
:103EEC00851383F0740312167DEEFAEFFB12066A4B
:103EFC008A0C8B0DEA450D7003023FA58A828B83D9
:103F0C00A3A3122C0F740112166D880E890F780E54
:103F1C0012189A74051216631218B17CFF7DFF12E9
:103F2C000670740412162D8B0FEA450F7033850C36
:103F3C0082850D8312418B12189A850C82850D8314
:103F4C00A31218B17C027D007A4F7B8112047E741F
:103F5C000412162DE9700A740112166374FFF0A393
:103F6C00F08E828F83E064027039750C02750D003F
:103F7C00780C12189A8E828F83A3124187E508243D
:103F8C0004FAE43509FB121138740212162D850A55
:103F9C0082850B83E0240280097401121663EEF013
:103FAC00A3EFF074011216631241797401121663B7
:103FBC001241700240F5E50E450F60030240FB858F
:103FCC000C82850D8312440FAA16AB1712109C8518
:103FDC000A82850B837402F0850882850983EAF0D6
:103FEC00851282851383EB0240F8E50E450F6003C2
:103FFC000240FB124194F8A3E0F9850A82850B83F9
:10400C007402F0E8850882850983F0E985128285BF
:10401C0013830240F8850C82850D831232441211F1
:10402C0032EAFAF8C3950EE4950F405CE8650E454C
:10403C000F70047A008021851882851983E0FCE5D5
:10404C000E2CFCE4350FFDC3EC98ED94005003E00E
:10405C008005E50ECAC39AFAEA850A82850B83F0BD
:10406C008A0A750B00780A12189A850C82850D83C2
:10407C00E0250EFCA3E0350FFDAA08AB09121138A0
:10408C00740212162D024162751007024162E50E90
:10409C00450F705B850C82850D83124321850A8246
:1040AC00850B837407F088828983124171124169F0
:1040BC00E0851282851383F0E82402FAE439FB8A46
:1040CC00828B831241798A828B83124170A3A31253
:1040DC0027CE12417EF0E82405F850010988828928
:1040EC008312417EA31241B8A3A3A3A3F0806775EA
:1040FC00100B8062741D1216631232441207608A10
:10410C00828B83E5824583604A124321880C890D9A
:10411C00E8450D603E7425121663E0F51078101218
:10412C00189E780E12189A780A12189A7808121893
:10413C009A7407121663E0F9EEFCEFFDAA16AB17A2
:10414C00850C82850D83121685740712162DE9F5E0
:10415C0010800375100EA9107405023507F08882C3
:10416C008983A322A3E0850882850983221241BF9B
:10417C00F0221241BFA3A3229002ED12441622E0BA
:10418C00F50E750F00780E22850C82850D83123684
:10419C00AAE022E0FAA3E0F8E4C8F9EA2822F08ABF
:1041AC00828B83E0F50A750B00780A2212416912A2
:1041BC0041BF22E0850882850983A3A32274EE12F5
:1041CC00168774FE1216178A088B09ECFEEDFF8910
:1041DC000AAC18AD19EEFAEFFB12066A8A0C8B0DBD
:1041EC00EA450D70030242B185188285198312329B
:1041FC00441207608A828B83E582458370030242F6
:10420C00ACA3A3124321880E890FE8450F7003025B
:10421C0042AC7414121663E0F510A3E0F511E50A34
:10422C00F50B780B12189E74191216631218B178CC
:10423C001012189A741B121663E0F9AC0CAD0DAA8F
:10424C0008AB09850E82850F83121685740512162C
:10425C002DE9F50B705274FE650A604C850C828555
:10426C000D83E0640270411242C0FAA3E0F9EAF84F
:10427C007402687003742969702E8510828511830D
:10428C0012419FF50CE439F50D780C12189AEEFCDE
:10429C00EFFDAA08AB091207DE740212162D800876
:1042AC00750B0E8003750B01A90B740212162D7F72
:1042BC000A021759A312432588828983E02274F6D7
:1042CC0012168774FE121617740C12166312432101
:1042DC00E8851882851983F07401121663E9F0E4FD
:1042EC00F508F509780812189A750802780812185A
:1042FC009A740412166D88088909780812189A792C
:10430C00FE1207C6740612162D740212162D023DEB
:10431C00238E828F8312432522E0F8A3E0F92274C6
:10432C00F7121687EAFEEBFF890890030412418707
:10433C0012109CEA5402600BA908EEFAEFFB12066D
:10434C005E800279017F0102175974F2121687748C
:10435C00FE121617EAFEEBFF890A7401650A601457
:10436C007402650A600302440579011209FAE960D6
:10437C0003024405EEFAEFFB1207AEEA4B600312A0
:10438C0007B4A818A91988088909780812189A7509
:10439C000802750900780812189A75084B7509817E
:1043AC00780812189A7CFF7DFF7A017B0012066454
:1043BC00740612162D8038850882850983A3A3A361
:1043CC00A3A3A312440FEEFAEFFB121090E4F50C2A
:1043DC00F50D780C12189A74021216631218B17C2F
:1043EC00FF7DFFAA08AB09120670740412162D8A01
:1043FC00088B09E508450970BE740212162D7F065C
:10440C000217591236AA12441622E0FCA3E0FD2230
:10441C0074F41216878A088B09ECFEEDFF9015DCFC
:10442C00E0F4604B7A097B0012115CEA4B60408A25
:10443C00828B8374B1F0A3E412447EF08A828B8366
:10444C00A3A3E508F0A3E50912447EA3EEF0A3EFC5
:10445C00F0740C1216631243218A828B83A3A3A3DC
:10446C00A3A3A3A312389B9015DCE0F912116802E8
:10447C0027D6F08A828B83A3A3A3A32274F01216EF
:10448C008774FA1216178909ECFEEDFF7508008A7D
:10449C000A8B0B780A1218DE000410AE46CB44E9E6
:1044AC004403451B453945514574458C45A045CAC7
:1044BC0045454656466D468846AE46AE46E0457482
:1044CC0001650960030246A98E828F83E0F8C394CC
:1044DC000340030246A9E89015FF02468574026565
:1044EC000960030246A98E828F83124E0C9016002F
:1044FC00E8F0A3E90246857401650960030246A948
:10450C001246D640030246A9E89007470246857436
:10451C0001650960030246A98E828F83E0F8C3947B
:10452C000540030246A9E8900748024685740165D8
:10453C000960030246A91246D640030246A9E89038
:10454C0007490246857410650960030246A9750A7D
:10455C0010750B00780A12189A7A4A7B07121138D8
:10456C00740212162D0246CF7401650960030246CF
:10457C00A91246D640030246A9E890075A0246857E
:10458C007401650960030246A98E828F83E0901640
:10459C00030246857404650960030246A98E828F66
:1045AC0083780C1214DB908122780C12137D50034B
:1045BC000246A990075C780C1214EA0246CFE96017
:1045CC00030246A9120616E9700512105480559084
:1045DC0007EF80617407650960030246A9750A0636
:1045EC00750B00780A12189A8E828F83A3AC82AD59
:1045FC0083740212167512113E740212162D7C0071
:10460C007D00AA18AB198E828F83E0F9121000E995
:10461C00FEC3940A40030246CC120616E9700CEE57
:10462C00F912105A7950121276806D74F02EF582B0
:10463C00E43407F5837401804074016509705E12DF
:10464C0046D65059E890075B802F74016509704D70
:10465C008E828F83E0F8C3940A5042E89016028051
:10466C00187401650970368E828F83E0F874F9280E
:10467C00C3940A5028E8901604F080477401650929
:10468C00701B9007EEE0F88E828F83E09007EEF0BF
:10469C00E87030E06401702B121048802675081801
:1046AC008021C3EA9427EB940050157402650970BD
:1046BC000F8E828F831258EC120496E9F508800352
:1046CC00750802A90874060249FA8E828F83E0F8F5
:1046DC00C3940222A908800312162D7F04021759D5
:1046EC0074F012168774B11216178C0A8D0B908009
:1046FC00C8742012167D740612152A742012167DA9
:10470C00121000E9FF745F121663E0F509EFC39411
:10471C000A400302486E75F006EFA4F508744112C6
:10472C00167D7A0E74202508F9121270E97009743E
:10473C004D121663E0FE80027E009015FFE06402CD
:10474C007005750E018003750E0074086509700400
:10475C007422800274212508F50D7C1B7D007900E4
:10476C007426121675121150742612167D7A1BA916
:10477C000D121270E9702D7440121663E024F9C307
:10478C00940A5020E50EF50D780D12189E74271220
:10479C00167DEEA2E0E433F9AA0AAB0B12053874CD
:1047AC000112162D7C147D007900740C12167512F2
:1047BC001150740C12167D7A1074242508F91212FB
:1047CC0070E970347C1079FF740C1216751211B0EC
:1047DC00E97025741C121663AC82AD837A047425BF
:1047EC002508F9121270740C12167DEEA2E0E43357
:1047FC00F9AA0AAB0B120520AC18AD197A0C74701F
:10480C002FF9121270E97049AA18AB191210307FE7
:10481C0000EF75F003A4F8A9F0851882851983E5DB
:10482C008228F8E583124FC31251A4601D88828937
:10483C0083A3A3E0F50E750F00780E12189AAA0A3E
:10484C00AB0B1207CC740212162D0FEFC39404405D
:10485C00C0EEA2E1500C900746E0F9AA0AAB0B128D
:10486C0007D27404650970289015FFE0640270206B
:10487C007A0090075AE060027A01900747E06004E2
:10488C00780480027800E84AF9AA0AAB0B1205EC0E
:10489C007900744F0249FA74F7121687120616E95A
:1048AC00704F9007EFE0640170151210549007EFF1
:1048BC00E4F07C0AFDF97AF07B07121150802A751E
:1048CC000800A80874F028FEE43407FF8E828F835A
:1048DC00E06401700BA90812105A8E828F83E4F0E9
:1048EC000508E508C3940A40D979501212761210C3
:1048FC00480252DB74F012168774F0121617EAFE97
:10490C00EBFF8C088D09750A0AE9600C1460091418
:10491C00603B14607D0249F6121042E9F50AC3941B
:10492C000A40030249F6E508450970030249F67589
:10493C000C06750D00780C12189AEEFCEFFDAA0807
:10494C00AB09121138740212162D0249F6750C00BF
:10495C00750E06750F00780E12189AEEFCEFFDE539
:10496C000C75F00EA4F8A9F0746828FA740739FBDA
:10497C0012114A740212162DE9700B050CE50CC3CA
:10498C00940A506680CA850C0AE50AC3940A505AE8
:10499C008049750C00AC18AD197A1075F006E50C51
:1049AC00A42423F9121270E9701C7C1079FFAA1848
:1049BC00AB191211B0E9700EEEFCEFFDAA18AB1991
:1049CC001204FCE9600B050CE50CC3940A501B8027
:1049DC00C4850C0AE50AC3940A500FE50845096022
:1049EC0009AA08AB09A90A12103CA90A74101216DC
:1049FC002D7F0802175974F412168789097508154A
:104A0C0074FF6A700374FF6B70277E00AC097A0226
:104A1C007B00EEF912101EE960037508000EEEC360
:104A2C00940A40E8E50960537A6C7B10120A1E80E8
:104A3C004A1209EE8A0A8B0BAE0AAF0BEE4F6038A6
:104A4C007C007D00EE2405FAE43FFB8E828F83A36D
:104A5C00A3A3A3E0F9121000E9F9C3940A500CAC1B
:104A6C00097A027B0012101E750800E509600CEE35
:104A7C00FAEFFB12106C80037508140246E074F216
:104A8C00121687ECFEEDFF750815740E121663E016
:104A9C00F50AA3E0F50B74FF6A700374FF6B7021C9
:104AAC00750900AC0AAD0BEEFAEFFBA90912102444
:104ABC00E960037508000509E509C3940A503F80B5
:104ACC00E21209EE8A828B83E5824583602D7C009D
:104ADC007D00E5822405FAE43583FBA3A3A3A3E0C0
:104AEC00F9121000E9F9C3940A5013AC0AAD0BEE9D
:104AFC00FAEFFB1210247508008003750814A9083E
:104B0C007F06021759C082C083900760EAF0A3EBBE
:104B1C00F0900746E0FC7D007A267B00120496900C
:104B2C000746E0F91207420255F574EE1216877427
:104B3C00EC1216178A088B09EA240CF510E43509D7
:104B4C00F5118A828B83A385820C85830DEA24055B
:104B5C00F50EE43509F50FEA2409F50AE43509F5F3
:104B6C000BEA2403FEE43509FF8A828B83A3A3E0BE
:104B7C0024FA7003024DFA24FD7003024D1A1470CE
:104B8C0003024C1414601024FD7003024CFD1470CD
:104B9C0003024D52024E001258F26044E0F5838835
:104BAC0082124E0C880C890DE8450D6033851082FD
:104BBC00851183E0F50E780E12189EEA240BF5820F
:104BCC00E43509F583E0F91258E60A0A0AEFFB8589
:104BDC000C82850D83121685740112162D024E005F
:104BEC00850A82850B831218B190075C1214F91296
:104BFC000532740212162DE97003024E00790185FC
:104C0C000A82850B83024DCA750A00850C82850DBC
:104C1C0083E06003024CCA850E82850F83E0A2E01C
:104C2C004003024CCA9007FA1258F56003024CCAB2
:104C3C007C0E7D007900AA18AB19121150851082D8
:104C4C008511831255C0EA4B6010750A06750B006E
:104C5C00780A12189AEA2410801B1255BC1209EE1D
:104C6C00EA4B7003024E00750A06750B00780A12A7
:104C7C00189AEA2405FCE43BFD7402121675121115
:104C8C0038740212162D850E82850F83E0A2E25035
:104C9C0004D2F08002C2F0A2F0E433F8740C1216C5
:104CAC0063125774121036E970117A027B00900768
:104CBC0046E0F912118C7900024E02750A15125851
:104CCC00F27003024E00124E217003024E00850C4E
:104CDC0082850D83E0FC7901124E12121685E50ACD
:104CEC007003024E00FC79031255BC125577024D2D
:104CFC00F51258F27003024E00124E217003024E50
:104D0C0000850C82850D83E0FC7902024DF27C005B
:104D1C007D00EA2404FAE43509FB8E828F83E0F9E6
:104D2C00121000E9F8C3940A4003024E00E508246F
:104D3C000AFCE43509FD7A0475F006E8A42425F98B
:104D4C0012126A024E001255BC90075BE06007908D
:104D5C001602E0F9806B9015FFE070047905806114
:104D6C001209EE8A0C8B0DA80CA90DE849700302F0
:104D7C004E00E82404F50CE439F50D85088285090C
:104D8C0083A3A3A3A3A3A3A3E0A2E05039850C8221
:104D9C00850D83E0F508602E850A82850B83A3E0E0
:104DAC0054027022740E12167DE82405FAE439FBC5
:104DBC00A908121000E9700E79038E828F831255A8
:104DCC00C012052C802EAC0EAD0F850C82850D8388
:104DDC00E0F91255BC1210781258F26017124E21DD
:104DEC0060127C007900124E121216858006125544
:104DFC00BC120FFA7901741412162D7F0A0217597E
:104E0C00E0F8A3E0F9228E828F83E0FAA3E0FB881E
:104E1C008285098322125585F98909E8450922748E
:104E2C00F512168774F2121617EAFE8C0A75F00644
:104E3C00E9A42420F508AC18AD197A0EF9121270F9
:104E4C00E970467C0679FFAA18AB191211B0E9700B
:104E5C0038740C1216631255C0EAF8E50A6005EEB8
:104E6C00C8488004EEF4C858F8EA687001EB601585
:104E7C00740C121663E8F0A3E4F0AC18AD197A0EBA
:104E8C00A90812126A790180027900740E12162D8B
:104E9C007F0302175974F212168774E612161789DB
:104EAC000A8A088B09ECFEEDFF740C12167D7A0E43
:104EBC0075F006E9A42420F9121270E96003024F80
:104ECC00867C0679FF740C1216751211B0E960031A
:104EDC00024F867470250AF50BAC18AD197A0CF9D3
:104EEC00121270E96003024F82AA18AB191210302B
:104EFC00E5084509701D7C0C7900AA18AB19121134
:104F0C00B0E970727C0C7D007900AA18AB191211F3
:104F1C00508051AC18AD19AA08AB0912102A8A0C92
:104F2C008B0DA80CA90DE8497022EE4F604CAC1803
:104F3C00AD197A007B0012102AEAF8EBF9EA4B6003
:104F4C003988828983E508F0A3E509F0124FFFFA4E
:104F5C00EE6A7001EF601FEEF04F70088882898353
:104F6C00E4F0A3F0AA18AB19121030AC18AD197AF2
:104F7C000CA90B12126A790180027900741A1216AC
:104F8C002D024B0C74F71216877E00EE75F003A4FD
:104F9C00F8A9F0EC28F8ED124FC3E06A7003A3E017
:104FAC006B7006E8FAE9FB800B0EEEC3940440DB51
:104FBC007A007B000252DB39F9888289832274F7EC
:104FCC001216877C00EC75F003A4F8A9F0EA28F817
:104FDC00EB124FC3E0F4FEA3E0F4FF88828983EE6A
:104FEC00F0A3EFF0124FFFF4F00CECC3940440D597
:104FFC000252DBE82402F582E439F583E02274F4F2
:10500C0012168774F4121617EAFEEBFF8C088D0942
:10501C009007FA1258F5704FEE4F7003025183EC63
:10502C0045097003025183121042E9901605F0C332
:10503C00940A4033750B007C0679FFE50B75F00E76
:10504C00A4FAABF074622AFA74073BFB1211B0E9B4
:10505C0060030250E4050BE50BC3940A40D9750AB2
:10506C000AE50A901605F0901605E0C3940A400371
:10507C0002518375F006E0A4FB9007FA1258F57004
:10508C005CEEFCEFFD7A0E74202BF912126A7C0C8C
:10509C007D0079FFAA18AB19121150AC18AD197A12
:1050AC000C901605E02470F912126A750A0E750B35
:1050BC0000780A12189AEEFCEFFD901605E01252D9
:1050CC003C121138740212162D9007FAE508F0A361
:1050DC00E509F07900025185850B0A8084E0C8242B
:1050EC000612519E60197A1B74212BF912126A1246
:1050FC00518A2406F582E438F583E4F0A380D312B8
:10510C00518A240A12519E60107A1B74222BF912B8
:10511C00126A12518A240A80DB12518A240C125111
:10512C009E60107A1074232BF912126A12518A2481
:10513C000C80C112519312519E60307A1074242B42
:10514C00F912126A125193F582E438F583E02410B7
:10515C00FCA3E03400FD7A0475F006901605E0A47B
:10516C002425F912126A12519380899007EEE0609F
:10517C000312107E1210727901740C0246E490072F
:10518C00FAE0F8A3E0C8229007FAE0F8A3E0C824FC
:10519C000822F582E438F5831258ECEC4D2274F4B5
:1051AC0012168774F2121617EAFEEBFFE9C3940A83
:1051BC005004EE4F700479028034AC18AD197A0E9D
:1051CC0075F006E9A42420F9121270E9F508701C98
:1051DC00750A06750B00780A12189A740212167D5D
:1051EC00EEFAEFFB121138740212162DA908740E88
:1051FC000246E474F4121687EAFEEBFF750800759C
:10520C000A06750B00780A12189AEEFCEFFDE508F9
:10521C0012523C12114A740212162DE96004A908AC
:10522C00800B0508E508C3940A40D4790A0246E7C6
:10523C0075F00EA4F8A9F0746228FA740739FB22F1
:10524C0074F7121687750800E50875F00EA4F8A916
:10525C00F0746228FE740739FFEEFCEFFD7A0E75D0
:10526C00F006E508A42420F9121270E960297C06E6
:10527C007D0079FFEEFAEFFB1211507C067D007970
:10528C00FFEE2CFAE43FFB121150EE240CF582E4F5
:10529C003FF583E4F0A3F00508E508C3940A40A8A1
:1052AC009007EEE0600312107E121072802174F7EA
:1052BC001216877E007F007C06EF12523C79FF129B
:1052CC0011B0E970010E0FEFC3940A40EAEEF97FBA
:1052DC000102175974F71216877E00EEF912105A54
:1052EC00E9F90EEEC3940A5003E960EF80E174F320
:1052FC0012168774CB1216178908901605E06508EC
:10530C00701B7A017B00900746E0F91211927A0229
:10531C007B00900746E0F912119212108A75F00684
:10532C00E508A4FF74202FFE742712167D7A0EEE6A
:10533C00F9121270E960030254027C0679FF74279B
:10534C001216751211B0E960030254027C0E7D0036
:10535C0079FF74271216751211507C1B7D0079FF92
:10536C00740C1216751211507C0C7D0079FFAA1862
:10537C00AB19121150742712167D7A0EEEF9121217
:10538C006AE9FE740C12167D7A1B74212FF9121225
:10539C006AE9F509740C12167D7A1B74222FF91226
:1053AC00126AE9F50A740C12167D7A1074232FF91F
:1053BC0012126AE9F50B740C12167D7A1074242FF4
:1053CC00F912126AE9F50C740C12167D7A04742524
:1053DC002FF912126AE9FFAC18AD197A0C7470250A
:1053EC0008F912126AE9F8E509450A450B450C4F14
:1053FC0048CE4EFE80027E00EEF9743512162D7FDB
:10540C000502175974F7121687E9900746F0121027
:10541C00480252DB74F2121687EAFEEBFF548070DE
:10542C00030254DF900746E0F91211748A088B09C5
:10543C00EA450970030254D87A01E5082405F50AF7
:10544C00E43509F50BE5082404F8E43509F9880C72
:10545C00890D8508828B83E0245060361460062405
:10546C00E16058805D88828983E070598508828B61
:10547C0083A3A3A3A3A3A3A31218B11258E6850870
:10548C00828B83A3A31255C012100C740212162D1A
:10549C00803388828983E0641E700F7900850882CE
:1054AC008B83A3A31255C0121006850C82850D8325
:1054BC00E0F9AA0AAB0B12073C800AAA08121018D2
:1054CC00E9FAEA6007AA08AB09121162EEFAEF6476
:1054DC0080802AEE54026028EE6402FE7C007D007F
:1054EC007A007B00121036E960047A0180027A029D
:1054FC007B00900746E0F912118CEEFAEFFB806806
:10550C00EEA2E050556401F508EFF509125595121D
:10551C001084E960331258F2602912558D124E0C2A
:10552C00E8FEE9FFEE4F601B7C0079011255958E69
:10553C00828F831216857C0079031255951255774C
:10554C0012168512108A800C7A017B00900746E0B7
:10555C00F912118CAA08AB09800E54046006EE6493
:10556C0004FA80047A007B00024B0C900760E0F890
:10557C00A3125585F58388822212558DE0F8A3E09D
:10558C0022E0F5838882A3A3229007FA1258D6E072
:10559C00FAA3E0FB227F02021759C082C083900756
:1055AC0046E0F98A828B83A31255C01207D2803948
:1055BC008E828F83E0FAA3E0FB22C082C08374FF4B
:1055CC0012161712104EE9C394028518828519839E
:1055DC00400474028002740AF0AC18AD197A017997
:1055EC0005120634740112162DD083D08202011FCD
:1055FC0074F012168774E8121617EAFEEBFF890A8C
:10560C008C088D097C187D007900AA18AB19121131
:10561C0050851882851983EEF0A3EFF0900748E0CF
:10562C00C0E07402121663D0E0F0900749E0C0E0CD
:10563C007403121663D0E0F0901604E0C0E0741707
:10564C00121663D0E0F0901603E0A2E0E433FCE025
:10565C00A2E15004D2F08002C2F0A2F0E433F8E0F0
:10566C00A2E45004D2F08002C2F0A2F0E433FAE0DB
:10567C00A2E55004D2F08002C2F0A2F0E433F50EA1
:10568C00750F00E0A2E65004D2F08002C2F0A2F046
:10569C00E433F50C750D00E0A2E25004D2F0800268
:1056AC00C2F07415121663E054FEFEA3E0FFEE4C3C
:1056BC00FCEFFDEC54FDFCE828F8EC48F8ED54FE4A
:1056CC00F9EAFBE94BF9E8FAE954FDFB7409780EA9
:1056DC00121604EB450F54FBFB740A780C121604DB
:1056EC00EAF8EB450DF9E854FBFAA2F0E433F50CBB
:1056FC00750D007402780C121604EA450CF874153A
:10570C00121663E8F0A3E9F0900749E0601D750CF0
:10571C0010780C12189A7C4A7D077406121663AA2C
:10572C0082AB83121138740212162D90075AE06066
:10573C0011E50A60097415121663E04402F0780151
:10574C00800278007414121663E048F0900747E06A
:10575C006004780480027800741412166312577473
:10576C0012052674180249FAE048F0AC08AD09AAF3
:10577C0018AB192274F7121687120826750800E563
:10578C000875F00EA4F8A9F0746228FE740739FFAE
:10579C007C0679FFEEFAEFFB1211B0E97009EEFA14
:1057AC00EFFB790012082C0508E508C3940A40CFDA
:1057BC000252DB74F612168774FD121617EAFEEB12
:1057CC00FF9007FC1258F570397508FE75090778BB
:1057DC000812189A750802750900780812189A753B
:1057EC00084B750981780812189A7CFF7DFF7A01A5
:1057FC007B00120664740612162D9007FCEAF0A3C7
:10580C00EBF09007FC1258F570030258C87508FFAE
:10581C00780812189EE4F508F509780812189A749D
:10582C000512166D88088909780812189A740512E1
:10583C00166D88088909780812189A9007FE1218B4
:10584C00B179029007FC1258DE1207C074091216C7
:10585C002DE97036851882851983E0FA74011216C9
:10586C0063E0F8E4C8F9EA28F508E439F509EA45F3
:10587C00096017780812189A9007FC1258D6A312D0
:10588C0058DE12100C740212162DE4F508F5097886
:10589C000812189A9007FE1218B17CFF7DFF900732
:1058AC00FC1255C0120670740412162D9007FCEAF7
:1058BC00F0A3EBF09007FC1258F57004790180020C
:1058CC007900740312162D0255A1E0F8A312558D20
:1058DC00A3221258ECEEFAEFFB22850A82850B8389
:1058EC00E0FCA3E0FD22900760E0F8A3E0F9E849B2
:1058FC0022C082C0839007FA1258F560109007FA04
:10590C001255C01211629007FAE4F0A3F09016053C
:10591C00740AF00255F5C082C0839061907404F053
:10592C00A37448F0A37402F09061807440F090610D
:10593C00BC7403F09061877419F0906265741BF06D
:10594C00906249E0C3941390619C40107409F090EC
:10595C0060667401F090619F7428800D740BF09058
:10596C006066E4F090619F742CF0125B0D7009C2BC
:10597C0091900378746780059003787461F0125BE2
:10598C007F9024E8E493F46006E493F9120B087911
:10599C0005120DCC025B8DC082C083E9540FF990C7
:1059AC006185E0696012E5C654B84441F5C6E59ED0
:1059BC005447644170F8E9F053C6B8E59E544770FB
:1059CC00FA025B8DC082C083A8A853A87E90618127
:1059DC00E412680EC2BA539AFEC289759B00C2C209
:1059EC0075E90075910075BF0075A91175B9059021
:1059FC006181F0A374C0F0A3E4F0D2BA439A0174AD
:105A0C00805842A8025B8DF0A3F0025B8DC082C06F
:105A1C008374F8121617900376126D0E7003025BE6
:105A2C0005900376E0544060177908AA18AB191258
:105A3C000C0AAA18AB1912085C900376E054BFF05C
:105A4C00E054806010790C7A3F7B05120C0A9003AD
:105A5C0076E0547FF0E0A2E0501E125B0D7009C29C
:105A6C0091900378746780059003787461F0120844
:105A7C0062900376E054FEF0E05402601E125B511B
:105A8C007009D29190037874718005900378746AD0
:105A9C00F0120862900376E054FDF0E054046010BC
:105AAC009024EC125B82120868900376E054FBF0B1
:105ABC00E0540860109024ED125B82120868900389
:105ACC0076E054F7F0E05410600D125B7F1208681A
:105ADC00900376E054EFF0E05420600A12086890CE
:105AEC000376E054DFF0A3E05401600D120B2C128E
:105AFC00086E900377E054FEF0740812162D025BCA
:105B0C008D90619A125D7F900519E0640122C0822C
:105B1C00C083E960051460178029125B0D7009C2FF
:105B2C00919003787467801A9003787461801312D3
