:020000040000FA
:0600000002010702213598
:03002B0002237B32
:03003B000223A1FC
:0300430002235540
:030053000221ABDC
:10008300021F8BE5C754F84401F5C779012200002C
:100093000080FB120086B900030200F1E4791A78AC
:1000A30002B800028004F709D8FCE4791C7802B88E
:1000B30000028004F709D8FCE49001817835791CAB
:1000C3008002F0A3D8FCD9FA7AB57B1C900137786B
:1000D300E279018015E493A3AD82AE838A828B8398
:1000E300F0A3AA82AB838D828E83D8E9D9E7758288
:1000F300537583CD7403120119758291758300744E
:100103000012011975D00075814F75188175190199
:10011300759F00020096C09FF59FE473D09F22D085
:1001230083D082C09FE493C0E0740193C0E0740263
:1001330093F59F2292039E03D403CE03FF0000B4E2
:10014300000028002800283075A000A000A000A00F
:100153000000080008E001F000100010001000107B
:10016300001000100050005000500010001000D08C
:10017300070000000000000F0001000500307507B4
:10018300001000010081FF00000000FFFFFF0202DA
:1001930002E283010000CD8302D8830100000F1D1A
:1001A30002D283010000B80102D883010000101DB0
:1001B30002E683010000CE01FFFF0100FF2002E2FF
:1001C30083010000CA8302D8830100003E1D02D0D0
:1001D30083000000000002D683030000FA01170029
:1001E300DE0BDE0BDE0BDE0BDE0BDE0BDE0BDE0BC4
:1001F300DE0BDE0BDE0BDE0BDE0BBE0DDC0DB80DF6
:1002030001E803057710020AFFFFFF005331313085
:10021300303031FEFF120122C8C003120122DBC0BD
:1002230003120122FCC00312012267C1031201223F
:10023300A8C103120122C9C1031201220AC2031277
:10024300012252C2031201224EA70312012261A707
:100253000312012292A703120122CCA70312012247
:1002630025A8031201226CA803120122B4A80312C9
:100273000122E3A80312012212A90312012249A9B0
:100283000312012290A903120122A9A90312012238
:10029300FEA9031201222CAA0312012266AA031249
:1002A3000122F7F401120122FAF50112012227F6C5
:1002B3000112012278F6011201229BF6011201229A
:1002C300ADF601120122B0F601120122EEF601127F
:1002D300012262F701120122CEF70112012296F8E0
:1002E30001120122B2F801120122E9F801120122DE
:1002F30023F901120122BAF9011201220CFA0112A7
:1003030001223DFA011201226EFA011201227BFA47
:1003130001120122E5FA01120122E8FA0112012277
:100323003FFB0112012242FB011201227BFB01125E
:1003330001227EFB01120122B2FB01120122B5FB55
:100343000112012209FC0112012252FC01120122B5
:1003530062FC0112012295FC01120122A2FC01128E
:100363000122A5FC011201220DFD011201220FFE43
:1003730001120122B3FE011201221CFF011201220C
:100383005AFF0112012247B70212012244B8021296
:100393000122DAB80212012225B90212012289B917
:1003A3000212012213BA02120122CCBA0212012252
:1003B300EEBD021201226BBF021201228EBF021296
:1003C300012297FB021201223CFD021201225CFD75
:1003D300021201227DFE02120122D0FE021201222C
:1003E300D19B03120122F99B03120122269C0312C3
:1003F30001225E9C03120122BC9C03120122089D70
:10040300031201226F9D03120122AF9D03120122E9
:10041300EC9D031201221A9E03120122C49E0312B1
:100423000122CE9E03120122DB9E031201220E9FA4
:10043300031201221A9F03120122329F0312012287
:100443003C9F03120122CAC903120122D8C9031215
:100453000122F0C90312012208CA031201221FCA92
:100463000312012294D6011201223ED70112012266
:10047300BAD701120122D8D80112012214D90112CC
:100483000122AFD90112012293DA0112012256DBB4
:1004930001120122CEDB011201225CDD01120122D5
:1004A300CDDD0112012287DE0112012279DF011263
:1004B3000122B9DF011201226DE0011201229FE046
:1004C3000112012295E201120122D7E20112012257
:1004D300F5E2011201227AE3011201223EE4011244
:1004E30001225DE601120122CA9F03120122E09F4D
:1004F30003120122FE9F031201220FA10312012204
:1005030019A10312012244A2031201223BA30312E5
:100513000122A8A303120122008003120122A48056
:1005230003120122DB800312012232810312012212
:1005330047830312012234AF01120122E5AF0112F6
:100543000122FAAF01120122C3B001120122DDB070
:1005530001120122B3B101120122A5B2011201223B
:100563005CB3011201226AB60112012259B80112C9
:1005730001220BB901120122D4B90112012219BDC2
:1005830001120122C3BD01120122ECBE011201229C
:10059300A8C00112012248C10112012296C1011211
:1005A3000122D5C101120122A8C201120122DCC21B
:1005B3000112012269C3011201225FC40112012247
:1005C300EBC4011201224FC6011201225BC60112C4
:1005D300012296C60112012205C7011201220EC88B
:1005E3000112012217C901120122DEC901120122DF
:1005F3003BCB0112012259CB0112012276CB01120E
:10060300012241CC0112012269CC0112012233CF14
:100613000112012238CF0112012251D1011201220C
:100623009FD1011201220FD2011201224DD20112D8
:10063300012229D301120122E9D30112012235D467
:100643000112012238D4011201227CD401120122A9
:10065300C4D40112012203D50112012225D50112AE
:10066300012259D501120122BCD5011201228DF6B6
:100673000212012296F602120122A4F602120122AC
:10068300F7F60212012216F7021201225BF7021299
:1006930001229FF8021201223AF9021201227EF985
:1006A30002120122A8F90212012217FA02120122F0
:1006B3005DFA02120122D4FA0212012285FB021210
:1006C30001221B2400120122BC240012012218253E
:1006D30000120122D52500120122F1260012012267
:1006E300232700120122522700120122FF280012A1
:1006F3000122762B00120122E62D00120122D82EB0
:1007030000120122D12F00120122D831001201223E
:10071300CC3400120122FB3500120122FF370012F4
:1007230001220F39001201229E3A001201228F3B4F
:1007330000120122DD3B001201224C3C0012012277
:10074300703C00120122C13C0012012262410012DE
:100753000122634200120122C44200120122EF422D
:1007630000120122B54300120122F6840312012272
:1007730000850312012245850312012259850312C4
:100783000122E985031201221186031201224C86FC
:1007930003120122758603120122A9860312012284
:1007A300BE86031201222987031201224A870312FC
:1007B30001225E8703120122738703120122AD8790
:1007C30003120122D187031201221C880312012282
:1007D300A48803120122EA88031201222D8903123D
:1007E3000122578903120122938903120122BCC6F5
:1007F30003120122FB7400120122DE750012012292
:10080300597600120122947600120122E577001234
:1008130001226E7800120122867A00120122187DCD
:1008230000120122CA7D00120122E97E0012012278
:10083300427F001201226AF102120122ADF102127B
:10084300012231F20212012204F302120122DBF52A
:10085300021201227CB40312012229B503120122E0
:1008630036B60312012275B603120122CFB6031264
:1008730001225ABD03120122BDBD031201225ABE39
:100883000312012288BE03120122A9BE0312012210
:10089300E4BE0312012204BF03120122BB89031227
:1008A3000122478A03120122068B031201221E8CA6
:1008B30003120122388E0312012293AD0212012288
:1008C300B8AD021201228CAE02120122F9AE02125D
:1008D30001224FAF02120122EBAF021201221FB11C
:1008E30002120122FAB10212012259B202120122AA
:1008F3002AB302120122B6B302120122B9B30212C1
:10090300012203B40212012275B40212012220B59E
:100913000212012240B50212012288B502120122FD
:10092300A4B5021201221EB6021201222CB6021233
:100933000122BBB60212012224B702120122219323
:1009430003120122A69303120122E8930312012248
:10095300CC94031201223995031201227D950312CF
:100963000122C19503120122EE950312012216966C
:10097300031201224E96031201228C9603120122C6
:10098300B396031201222D970312012277970312C4
:100993000122214400120122EE4500120122DC470C
:1009A300001201223048001201225B48001201228A
:1009B3000949001201223949001201226849001233
:1009C30001227B4900120122BC4900120122E8499D
:1009D30000120122364A001201226D4A001201223E
:1009E300B94A00120122184B00120122AB4B00122C
:1009F3000122954C00120122844D00120122644F02
:100A030000120122835400120122DC54001201223D
:100A1300C55600120122945800120122995800125F
:100A230001224059001201227F5A00120122125B57
:100A330000120122605C00120122715C001201228B
:100A43001AB70312012205B80312012248B8031290
:100A5300012297B803120122E8B80312012239B91F
:100A630003120122945C00120122155D001201227F
:100A7300425D001201228B5D001201228C5E001286
:100A83000122D15E00120122FD5E00120122796073
:100A930000120122FB6000120122586100120122A0
:100AA300AB61001201229A62001201222F6400122C
:100AB3000122F96400120122096500120122336543
:100AC300001201223665001201221966001201226A
:100AD300046700120122B167001201220E6800129E
:100AE3000122676800120122CB6800120122736998
:100AF300001201220F6A001201229C6A00120122D5
:100B0300116B001201226D6B00120122CC6B0012DB
:100B13000122F36B00120122B16C00120122A26EBA
:100B230000120122EB6E001201221B6F0012012240
:100B33008E6F00120122147100120122C47100127F
:100B43000122E971001201222872001201223D7272
:100B530000120122807200120122F072001201229F
:100B63003A7300120122447400120122C574001268
:100B73000122D3A3021201221EA4021201222AA4DB
:100B830002120122FEA40212012215A50212012261
:100B930052A50212012283A502120122BBA5021251
:100BA300012211A60212012227A60212012263A624
:100BB3000212012276A6021201229DA6021201222E
:100BC300D1A602120122F7A70212012241A90212A1
:100BD30001223DAA021201225AAB02120122F7FF9F
:100BE300011201223DEC02120122EBEF021201225B
:100BF3001FF102120122888D021201224B90021270
:100C030001225190021201220E93021201226895D1
:100C1300021201226F8E03120122068F0312012298
:100C2300C48F03120122EE8F0312012224920312B6
:100C33000122E98301120122248401120122788E08
:100C430001120122E48F01120122E190011201221B
:100C53006694011201224C9501120122989501120A
:100C63000122B29501120122F39501120122FC9592
:100C730001120122AC96011201227C97011201227A
:100C8300C397011201222998011201229B98011294
:100C9300012263B10312012240B20312012284B282
:100CA30003120122BEB20312012256B30312012220
:100CB300C5B303120122CEB303120122DAB3031226
:100CC3000122F4B3031201221EB4031201224EB413
:100CD300031201227FE0021201228CE002120122A0
:100CE300A6E002120122D9E00212012217E1021248
:100CF30001227CE10212012291E102120122A8E108
:100D030002120122B6E102120122C5E102120122FE
:100D1300DAE102120122EFE102120122FAE10212E8
:100D2300012206E20212012213E20212012222E24E
:100D3300021201222DE20212012252E202120122C8
:100D4300F6E2021201220BE30212012220E3021255
:100D530001223AE30212012257E30212012274E351
:100D6300021201227FE3021201222BE4021201226A
:100D73000CE50212012231E5021201223CE50212C6
:100D8300012251E50212012265E502120122C6E5A4
:100D930002120122CCE502120122D2E50212012243
:100DA300D8E502120122F0E50212012223E6021223
:100DB30001227B99021201229D9902120122659A56
:100DC300021201221F9D02120122359E02120122EC
:100DD300569F0212012230A002120122DFA002124A
:100DE30001220580021201229C8002120122348119
:100DF300021201222482021201225B8202120122C8
:100E03006E8202120122DC82021201227784021214
:100E130001229E840212012240850212012275855D
:100E230002120122868502120122FF85021201228B
:100E330020860212012238860212012290870212B2
:100E43000122998902120122E98B02120122EC8C00
:100E5300021201223B8D021201226AE601120122D3
:100E630067E70112012252E8011201225CE8011234
:100E730001227EE8011201228AE801120122DCE943
:100E8300011201220BEA011201223BEB01120122A2
:100E93007DEB01120122A9EC011201227FED011267
:100EA3000122D1ED0112012230EE0112012267EE7F
:100EB30001120122A2EE011201223DF201120122CE
:100EC30056F201120122D8F201120122E6F20112B6
:100ED30001223BF30112012249F301120122B6F36D
:100EE3000112012228F4011201226EF401120122DF
:100EF30012BF0312012237BF03120122A8BF03123C
:100F03000122B7C802120122C0C802120122C9C8B5
:100F130002120122FAC90212012219CC0212012281
:100F23004FCC0212012289CC02120122BFCC021241
:100F33000122F9CC021201222DCD0212012259CD38
:100F430002120122A2CD02120122DCCD02120122E1
:100F530024CE021201227ACE02120122AFCE021255
:100F630001220ACF0212012244CF0212012295CF9D
:100F730002120122CBCF0212012205D0021201225A
:100F830028D00212012273CB031201229FCB03123A
:100F93000122FACB0312012204CC0312012214CC46
:100FA30003120122A5E602120122E4E60212012243
:100FB3006DE70212012282E702120122CDE702123B
:100FC30001220CE802120122C1E8021201221AE9ED
:100FD3000212012269E902120122C2E9021201226C
:100FE300CFEA02120122C8EB0212012205EC02121F
:100FF300012294CC03120122E79901120122679C7A
:1010030001120122DB9D01120122389E01120122ED
:10101300E19E01120122DE9F0112012266A001124C
:101023000122F2A00112012293A30112012204A4BE
:1010330001120122F0A4011201222AA501120122A8
:101043006AA5011201220AA7011201223BA701127C
:10105300012290A701120122DDA7011201224EA84D
:101063000112012271A8011201228BA8011201228F
:10107300A1A901120122B1A90112012242AB01125D
:10108300012262AB0112012298AB011201221CADB5
:101093000112012295AD01120122D4AD01120122E8
:1010A30006AF011201228DBB03120122F1BB031211
:1010B3000122A0BC03120122BFBC0312012213BDF3
:1010C300031201227BCE03120122A6CD03120122B9
:1010D300E5CD03120122EB7F0012012280FF0112F2
:1010E300012290FF01120122A5FF01120122EEFF4E
:1010F30001120122D0C70312012254C80312012294
:10110300BAC803120122FAFF01120122B2A3031289
:101113000122C9A30312012242A40312012217A52B
:1011230003120122E9A60312012229AE03120122AE
:10113300BBAE0312012239AF03120122C0AF031267
:10114300012252B003120122A9B003120122B3B04B
:1011530003120122C2B003120122D8B003120122EA
:10116300EBB0031201224CB10312012260B103124E
:1011730001228DC503120122F7C50312012202C603
:101183000312012212C6031201221DC603120122F9
:1011930039C60312012244C6031201221BC40312DF
:1011A300012244C4031201226DC40312012206C5A5
:1011B3000312012248C503120122B6D002120122F2
:1011C300C0D00212012200D10212012249D102121F
:1011D300012283D102120122D9D102120122F8D1B4
:1011E300021201227DD40212012286D402120122AC
:1011F300D7D40212012200D50212012215D5021200
:10120300012285D50212012213D60212012257D6DA
:10121300021201227FD602120122FED602120122FD
:1012230041D7021201227ED70212012290D7021265
:101233000122AFD702120122B8D7021201227DD8B0
:10124300021201227DC203120122CEC20312012225
:1012530057C303120122BDC303120122CEAA0312F4
:101263000122F8AA03120122F2AB0312012217ACE6
:1012730003120122B8AC031201223EAD0312012274
:10128300D3C8031201228BB903120122C1B903127D
:101293000122FAB90312012253BB031201221ECC0D
:1012A3000312012234CC031201223ECC0312012289
:1012B300F4CC03120122A9D80212012266D9021228
:1012C3000122A1D902120122C9D9021201222BDA69
:1012D3000212012277DA02120122E2DA0212012259
:1012E3005EDB021201225ADC02120122E1DD02124C
:1012F300012264DE02120122C8DE02120122DFDEB5
:1013030002120122D5DF0212012221E00212012280
:10131300B79703120122CC97031201227F9803127D
:101323000122BF9803120122D898031201220B99BC
:10133300031201225899031201228C9903120122EC
:10134300CE9903120122C49B03120122AFCA0312D6
:101353000122CACA03120122E5CA031201220BCBDE
:1013630003120122B1C0021201224CC10212012256
:1013730055C10212012253C20212012271C202128A
:1013830001222FC402120122CAC40212012246C53D
:101393000212012286C5021201228FC50212012206
:1013A3000AC6021201228CC60212012254C702127B
:1013B300012237C80212012226CE03120122EFCDE9
:1013C3000312012252CE03120122DDFF02E06670F6
:1013D3001008A3E066700A08A3E066700408A3E09F
:1013E3006622C3E7960809E7960809E7960809E71E
:1013F3009622C3E09608A3E09608A3E09608A3E02C
:101403009622C008C3E096F50808A3E096420808B0
:10141300A3E096420808A3E09645087001D3D008DC
:1014230022080808EAC0E0EBC0E086F0E7A4FA1857
:101433000986F0E7A42AFA180986F0E7A42AFA181D
:101443000986F0E7A42AFA1986F0E7A4FBE5F02A57
:10145300FA190886F0E7A42BFBE5F03AFA19088697
:10146300F0E7A42BFBE5F03AFA18180986F0E7A495
:10147300C5F02BFBE43AFA1908E7C5F0C6A426F633
:10148300E5F03BFBE43AFA1886F0E7A4F6E5F0084A
:1014930026F6E43B08F6E43A08F6D0E0FBD0E0FA9F
:1014A30022E4CFC0E0E4CEC0E0E4CDC0E0E4CCC0B1
:1014B300E075F020E626F608E633F608E633F6088C
:1014C300E633F6181818EC33FCED33FDEE33FEEF7C
:1014D30033FFC3EC9709ED9709EE9709EF971919B5
:1014E30019400FFFEC97FC09ED97FD09EE97FE19E4
:1014F3001906D5F0BFECF709EDF709EEF709EFF799
:10150300191919D0E0FCD0E0FDD0E0FED0E0FF22B5
:101513006016080808C6C313C618C613C618C61330
:10152300C618C613C6D5E0EA227009080808226067
:1015330016181818C6C333C608C633C608C633C63A
:1015430008C633C6D5E0EA22E627F60809E637F6E9
:101553000809E637F60809E637F622E026F608A377
:10156300E036F608A3E036F608A3E036F622E026D6
:10157300F008A3E036F008A3E036F008A3E036F065
:1015830022C3E697F60809E697F60809E697F608F0
:1015930009E697F622C3E096F008A3E096F008A3C5
:1015A300E096F008A3E096F022E657F60809E6571E
:1015B300F60809E657F60809E657F622E056F60854
:1015C300A3E056F608A3E056F608A3E056F622E099
:1015D30056F008A3E056F008A3E056F008A3E0563F
:1015E300F022E066F608A3E066F608A3E066F608D4
:1015F300A3E066F622E0F608A3E0F608A3E0F60807
:10160300A3E0F622E6F008A3E6F008A3E6F008A3B9
:10161300E6F022E0FAA3E0FBA3E0FCA3E0FD22EA6C
:10162300F0A3EBF0A3ECF0A3EDF022E0F8A3E0F9D4
:10163300A3E0FAA3E0FB22E8F0A3E9F0A3EAF0A316
:10164300EBF022CAC0E0E6F0A308DAFAD0E0FA220F
:10165300CAC0E0E0A3C582CCC582C583CDC583F0F3
:10166300A3C582CCC582C583CDC583DAE6D0E0CAE3
:1016730022C3E498F8E499F91216B58026C3E49AD4
:10168300FAE49BFBE920E7E91216B5E498F8E4993C
:10169300F922C3E498F8E499F91216B5E498F8E44A
:1016A30099F9C3E49AFAE49BFB22EB20E7CFE92004
:1016B300E7E0B90010BB0008E88AF084F8AAF0223A
:1016C300E4FBC8FA22EB70227B10C833C8C933C9C4
:1016D300335007C39AC3DBF280069A50012ADBEA30
:1016E300C833F4C8C933F4C9FA2275F008E4C8331F
:1016F300C8C933C933C99AC99B5004C92AC93BD540
:10170300F0ECFBC833F4C8E4C9FA22600D08C6A2A2
:10171300E713C618C613C6D5E0F322600C08C6C388
:1017230013C618C613C6D5E0F422700422600D1840
:10173300C6C333C608C633C6D5E0F418222518102D
:10174300AF08F518400C15198008F5184002151953
:10175300D2AF2200C0D0251810AF08F518500C05E1
:10176300198008F51850020519D2AFD0D0222518D8
:10177300F58210AF08F518400C15198008F51840CC
:10178300021519D2AF851983222518F582E435197C
:10179300F583222518F8E43519F9222518FAE435DA
:1017A30019FB222518FCE43519FD22E4732518C51D
:1017B30082C0E0E51934FFC583C0E0E518C3958214
:1017C30024F810AF0885831985821880088583194A
:1017D300858218D2AFCEF0A3E520F0A37808E608FF
:1017E300F0A3DEFAEFF0A3E58124FAF8E608F0A30C
:1017F300E608F0A3E608F0A30808E608F0A3E60865
:10180300F0A315811581D0E0FED0E0F81581158194
:101813001581E8C0E0EEC0E0222518C582C0E0E5EE
:101823001934FFC583C0E0E518C3958224F910AFCE
:10183300088583198582188008858319858218D2C3
:10184300AFCEF0A3E520F0A37808E608F0A3DEFA14
:10185300EFF0A3E58124FBF8E608F0A3E608F0A384
:101863000808E608F0A3E608F0A315811581D0E087
:10187300FED0E0F815811581E8C0E0EEC0E02285D6
:101883001983851882E0A3FEE0A3F5207808E0A37E
:10189300F608DFFAE0A3FFE0A3C0E0E0A3C0E0E0C6
:1018A300A3C0E0E0A3C0E0E0A3C0E010AF088582DE
:1018B300188583198008858218858319D2AFD08350
:1018C300D08202011F851983851882E0A3FEE0A35D
:1018D300F5207808E0A3F608DFFAE0A3FFE0A3C051
:1018E300E0E0A3C0E0E0A3C0E0E0A3C0E010AF08E5
:1018F3008582188583198008858218858319D2AF5C
:10190300D083D08222C0D02518C582C0E0E5193427
:10191300FFC583C0E0E518C3958224F310AF0885A3
:1019230083198582188008858319858218D2AFC8E8
:10193300F0A3E9F0A3EAF0A3EBF0A37908E709F039
:10194300A3D8FAECF0A3EDF0A3EEF0A3EFF0A3D04D
:10195300E0F0A3D0E0F0A3D0E0F0A3E520F0A3E50E
:10196300F0F0A322851983851882E0C0E0A3E0F993
:10197300A3E0FAA3E0FBA37808E0F608A3DFFAE00C
:10198300FCA3E0FDA3E0FEA3E0FFA3E0C0E0A3E02F
:10199300C0E0A3E0F5D0A3E0F520A3E0A3F5F010A9
:1019A300AF08858319858218800885831985821875
:1019B300D2AFD082D083D0E0F8D0E0327404800676
:1019C300740280027401C0E0F404121771D0E012B3
:1019D3001646227404800474028000CCC0E0EDC07B
:1019E300E0E518C39CCCAD1950011D10AF068C184F
:1019F3008D1980068C188D19D2AF121653D0E0FDC5
:101A0300D0E0FC22D083D082E9C0E0E493A3C38674
:101A1300F0C5F095F0F908E493A386F0C5F095F0CE
:101A2300700BE493A3C3994005E9048002A3E47512
:101A3300F002A42582F582E5F03583F583D0E0F941
:101A4300E493A3C0E0E493C0E022D083D082ECC04F
:101A5300E0EDC0E0E493A3FCE493A3FDED4C600D43
:101A6300121A99EC24FFFCED34FFFD80EFE493A3FD
:101A7300FCE493A3FDED4C600D121AD8EC24FFFC9B
:101A8300ED34FFFD80EFD0E0FDD0E0FCE493A3C094
:101A9300E0E493C0E022C0E0C3E4939608740193AA
:101AA3009618400FE49366700808740193661870E3
:101AB300007019A3A3C3E49396087401939618A323
:101AC300A3400DD0E0D0E0D0E0021A89A3A3A3A3E2
:101AD300A3A3D0E022C0E0C0F088F0E493667008CE
:101AE3000874019366187000A8F0A3A3700BD0F0DC
:101AF300D0E0D0E0D0E0021A89A3A3D0F0D0E02256
:101B040074F612181CEAFEEBFF8C088D09EE2434DF
:101B1400F8E43FF9E8FCE9FDEE2435121DD0FAEEB5
:101B24002437121DD0F88508F0A4C885F00A850969
:101B3400F0A4250AF9EA28F8E439F97A257B001299
:101B440016B5EA8C828D83F0FA131313541FF8EE42
:101B540028F8E43FF9E8245DF582E439F583E0C030
:101B6400E074075AF8D0E0B800028004C313D8FC2C
:101B7400A2E0EE50082434F582E43F8018243612A3
:101B84001DD0F5F0EA84A8F0EE28F8E43FF9E82443
:101B940038F582E439F583E0F97F030218C874F755
:101BA40012181CEAFEEBFFEE2434121DD0C0E0EE46
:101BB4002435F582E43FF583D0E0F08E828F83A351
:101BC400A3A3A3A3A3A3C082C0838E828F83A3A352
:101BD400A3A3A3E0F8A3E0F9D083D082E0C398F5EF
:101BE40008A3E099F509EE247F121DD06401703E2C
:101BF400EE2480F582E43FF583C082C0838E828F19
:101C040083A3A3A3A3A3E0240108A3E03400F9D091
:101C140083D082E0687003A3E06970127CC07D0504
:101C2400120B12EE247FF582E43FF583E4F0AC0856
:101C3400AD09EEFAEFFB121B04E9F91223477F0208
:101C44000218C874EF12181C900269E06408600559
:101C5400E06407702A9061C8E06024900297E0F481
:101C6400601DE0F875F00DA4C8AAF02AF97499284B
:101C7400FE740239FF8E828F83A3A3A3E070030254
:101C84001D55906060E0C0E0EE2468F582E43FF505
:101C940083D0E0F0750CFC750D057508007509001E
:101CA400E5D914F50AE5D95403F50E6012740365F9
:101CB4000E6043E50A600AEE2467121DD0700280AC
:101CC400759005F7E06401601F121DCD60047A046D
:101CD40080027A00E50AC39AFA95E0FB1209A48A05
:101CE400088B09EA45097005120D948064121DCD14
:101CF40070048A0C8B0DE50A6012850C82850D83B5
:101D0400F50BE5D9F0A3150BE50B70F6121DCD60AC
:101D14004474FC250AF50A780C1219C3AC0AA90EFE
:101D2400EEFAEFFB120BD87402121756E97026AACA
:101D340008AB0912124A793D8E828F83A3A3A3A311
:101D4400E0FA7B0012081EEEFAEFFB120B36120CBF
:101D5400387900806F7403650E6051850A1075111F
:101D64000078101219C3AC0CAD0DAA08AB09120B04
:101D74009C7402121756EE2468121DD064807004FD
:101D8400747F8001E0F50C780C1219C7E50EF50C90
:101D9400780C1219C7A90AAC08AD09900297E0FAA9
:101DA4007B001207EE74021217568013900269E04A
:101DB4006408700BAC0CAD0DEEFAEFFB120C0812BC
:101DC4000DA079017F0A0218C8EE2483F582E43F4E
:101DD400F583E02274F212181C74FC121740EAFE18
:101DE400EBFF8909A2AFE433F508C2AF021EA2E0FB
:101DF400601B780C1219C3AC0BA90EEEFAEFFB12A0
:101E04000BD274021217567404250BF50B740125BA
:101E14000BF5D9850ED9E50B6018F50A850C82857A
:101E24000D83E0F5D9A385820C85830D150AE50A97
:101E340070EA75E195EE2463F8E43FF97A007B00DB
:101E4400A2AFE433F50BC2AF88828983E0FCA3E040
:101E5400FDEC4D603A88828983E0FAA3E0FB8A8234
:101E64008B83E0FCA3E0FD88828983ECF0A3EDF092
:101E74008A828B83E4F0A3F088828983E0FCA3E068
:101E8400FDEC4D700A88828983A3A3E4F0A3F0E5F6
:101E94000BA2E092AF12124A9005C7E004F0EE24C0
:101EA40063121DD0F8A3E0F9E8496064EE246312DC
:101EB4001DD02402F8A3E03400F988828983E582E6
:101EC4002402F50CE43583F50DE0F50BA3E0F50EE3
:101ED400EE2462121DD0640170369061D0E0F812D5
:101EE4001DCD60047C0480027C007480C398FA9544
:101EF400E0FBE50B2CF8E43400F9E82402F8500187
:101F040009C3EA98EB99A2D265D0334003021DF3CA
:101F14009005C7E0604D9005C8E0F89005C7E0C3A0
:101F240098500C74026509703A9005C9E060348ECB
:101F3400828F83A3A3A3A3E0851882851983121F2C
:101F440077740212178CE8121F779005C6E028F008
:101F540074021217A6AA18AB197901120848900541
:101F6400C7E4F0E508A2E092AF74041217567F07A5
:101F74000218C8F0A3E4F09005C7E0F822000000BE
:101F8400851A87851BC622C0E074EB121908A2AF1C
:101F9400E433F508C2AF759B00906182E0A2E05083
:101FA40030E591A2E0502A7591FE7401651A702102
:101FB40012211E120CC812210C1219D6122283747B
:101FC40004121756E9640170057901120CF8121C09
:101FD40047906182E0A2E5505DE591A2E550577516
:101FE40091DF900269E064076005E06408702F12D5
:101FF400211E7401651A703E120CC812210C1219AC
:10200400D61222837404121756E96401700579010B
:10201400120CF87901EEFAEFFB121DD88018E06477
:102024000D701390028BE004F064287002E4F07ADF
:1020340000E0F9120DA6906182E0A2E640030220BE
:10204400E1E591A2E640030220E17591BF900269A7
:10205400E064057008120CB0120CBC8003120CB6BC
:10206400751A00120D16E990026AF07900120CF844
:10207400120A767A017B00900268E0F912121A9033
:102084007803E0644270569005FBE014F0704EC291
:10209400AF12209800781DD0E0F618D0E0F6E59F46
:1020A4005407F87005750DFF8003750D7FC4C0E0FB
:1020B400781CE6F50A08E6550DF50B740B780A1240
:1020C400171ED0E0250AF8906270E0A2E740F8E815
:1020D400C333906272F0906270E0D2E0F09061815C
:1020E400E0A2E35009E5E9A2E3500375E9F7A3E0B0
:1020F400A2E75009E591A2E7500375917FE508A294
:10210400E092AF7F080219678E828F83E0F8A3E024
:10211400C82416F582E438F58322900297E0F87516
:10212400F00DA4C8AAF02AF9749928FE740239FFA4
:1021340022C0E0C0D0C082C083906183E0A2E0509E
:1021440009E5BFA2E0500375BFFEE0A2E15009E536
:10215400BFA2E1500375BFFDE0A2E25009E5BFA2B2
:10216400E2500375BFFBE0A2E35009E5BFA2E350D0
:102174000375BFF7E0A2E45009E5BFA2E45003757C
:10218400BFEFE0A2E55009E5BFA2E5500375BFDF4C
:10219400E0A2E65009E5BFA2E6500375BFBFD083B5
:1021A400D082D0D0D0E032C0E074F2121908E5A792
:1021B400A2E6500FE5A1A2E6500953A7BF75A1BF3F
:1021C4001221FFE5A7A2E5500CE5A1A2E5500653B4
:1021D400A7DF75A1DFE5A7A2E15009E5A1A2E150BF
:1021E4000375A1FDE5A7A2E2500CE5A1A2E2500609
:1021F40053A7FB75A1FB7F0102196774F712181C22
:10220400751A01900269E064067015120C5C8A82EA
:102214008B83A3A3A3A3A3A3E0FAA3E0FB120C9EC6
:10222400A2AFE433FED2AF90026FE0640170187A7B
:10223400207B00900268E0F91213347A207B00902E
:102244000268E0F9121220906182E0D2E6F0900573
:10225400F8E0602185C61B801690026EE064017070
:1022640008E5C654F84405F5C653BEFC121F847431
:1022740001651A60E4EEA2E092AF7F020218C8740E
:10228400F112181C8A088B098C0A8D0B90835C78D8
:10229400081215BF740F12178C780C1215F890835E
:1022A4005C780C1215BF7808790C1213E59083B48E
:1022B40050107808790C121584780812140540140B
:1022C400800E780C7908121584780C1214055004C9
:1022D4007901800279007F080218C874ED12181C75
:1022E4008A088B098C0A8D0B90835C78081215BFC1
:1022F400741312178C780C1215F890835C780C12F6
:1023040015BF780C79081213E540117808790C127E
:102314001584AA08AB09AC0AAD0B802275100075B0
:1023240011007512007513017810790C1215847858
:1023340010790812154BAA10AB11AC12AD137F0C17
:102344000218C8C082C083E9906000F0D083D082B4
:1023540022C0E074F2121908A2AFE433FED2AFC275
:10236400C0E5D1A2E4500675D10F12116CEEA2E0C3
:1023740092AF7F01021967C0E0C0D0E8C0E0E9C0B5
:10238400E0A9A8D2AFC2C7E9A2E7E433F8E9A2E71B
:1023940092AFD0E0F9D0E0F8D0D0D0E032C0E0C0C5
:1023A400D0E8C0E0E9C0E0EAC0E0C082C083A2AFE8
:1023B400E433FAD2AF900E5BE0F8A3E06870085300
:1023C4009AFBA374018022C2E9900E5BE0F87401C9
:1023D40028F074DB28F582E4340DF583E0F5C19030
:1023E4000E5BE0C394804002E4F0EAA2E092AFD036
:1023F40083D082D0E0FAD0E0F9D0E0F8D0D0D0E0B9
:0724040032C2AF020000220A
:10240C00FFFFFFFFFFFFFFFFD083D08202011F748D
:10241C00F61217B0E99001DCF090023BE0F508757C
:10242C0009007402780812172DAA08AB091212922F
:10243C009001DD122DCE9001DD1231BB606F900248
:10244C003BE075F003A4FAABF01212929001FA1271
:10245C002DCE9001FA1231BB700B9001DD12318C34
:10246C0012129880489001FA1241207AFF7BFF12D9
:10247C0010A67A0080198A0875090074027808126F
:10248C00172D123BC874FF1225CEE4F0A3F00A906E
:10249C00023BE0F8EAC39840DD79051206D49001BE
:1024AC00DCE0F91205C67A5E7B07120944023C6B2C
:1024BC0074F41217B08A088B09EB548060479001B2
:1024CC00DCE0F91212028A0A8B0BAE0AAF0BEE4F4C
:1024DC00602A8E828F83E064B0701A1206E6E9607F
:1024EC00148E828F83A3A3A3A3E0F9EE2405FAE450
:1024FC003FFB1206BCEEFAEFFB1211F0AA08E5093D
:10250C006480FB80047A007B0002271E74F2121791
:10251C00B074FB121740EAFEEBFFEE4F60457403FC
:10252C0012178CEEF0A3EFF0851882851983ECF06E
:10253C00A3EDF0740212178CE9F0AA18AB1912056E
:10254C00C0E9F5087075741312178CE0F50AA3E056
:10255C00F50BE50A450B60638E828F83122B57EEC9
:10256C004F700575080280537A067B001212928A0E
:10257C000C8B0DA80CA90DE8497005750813803B50
:10258C0088828983E41225CEEEF0A3EF1226EAE5C9
:10259C000AF0A3E50BF09001E01226E39001E06055
:1025AC0017E0FCA3E08003EAFCEBFD8C828D831228
:1025BC0026E370F38C828D831237E3A9087405022D
:1025CC0043A0F0A3124102A32274F21217B089089F
:1025DC00890C750D007403780C12172D850C0A8567
:1025EC000D0B9001DFF09001DD1235EE1226E1604B
:1025FC002E1212987900801D890C750D00740278CA
:10260C000C12172D9001DD123A878882F583A3A353
:10261C00E4F0A3F00990023BE0F8E9C39840D990AC
:10262C00023BE0FA850AF0A4CAA8F0850BF0A428B6
:10263C00FB1212928A0C8B0DAE0CAF0DEE4F700389
:10264C000226D790023BE0FC850AF0A4CCA8F085CA
:10265C000BF0A428FD79001211D87C0080318D0C70
:10266C00750D007403780C12172D8A828B83122639
:10267C00DC88828983E4F01226E9A3A3F0A3F00D91
:10268C00EDC3950840D8EE250AFEEF350BFF0C90F4
:10269C00023BE0F8ECC39850288C0C750D007402CA
:1026AC00780C12172D9001DD1226DCE82402500163
:1026BC0009FAE9FB8A828B83EEF0A3EFF07D0080B0
:1026CC00BFE5089001DFF07900800279130243A383
:1026DC00123A8BF922A3A3123190EA4B22A3124196
:1026EC0002A3A3A32274F41217B07900EAA2E0505B
:1026FC001F75084175098378081219C379107C0479
:10270C007D007A3F7B1D1206CE7402121756E9F932
:10271C0080007F04021882C082C0839001E01231D5
:10272C00BB601C88828983A3A3E06A7003A3E06B5F
:10273C008882898370E8A3A3A3A312318C80047AC6
:10274C00007B0002241474F21217B074FD121740AF
:10275C00EAFEEBFF851882851983E4F0A3F074027E
:10276C0012178C7401F01231B870141208961212F0
:10277C00929001E3122DCE1231B870030228E412AC
:10278C002ECEEE2404F50AE43FF50B850A82F58380
:10279C00E024FE603C24FC607424FE607E24FE7009
:1027AC000302283424FE700302284124FE70030225
:1027BC00284E24FE700302285B24FE700302286856
:1027CC0024FC700302288924FE70030228A102282D
:1027DC00DD1208969001E5EAF0A3EB1228F0120244
:1027EC0054E960030228DD9001E51219DA8E828F1C
:1027FC0083A3A3A3A3A31241208508828509831276
:10280C00318C1206A474021217560228DDAC18ADD6
:10281C0019EEFAEFFB1206EC0228ACAC18AD19EE6F
:10282C00FAEFFB1206F28078AC18AD19EEFAEFFB5A
:10283C001206F8806BAC18AD19EEFAEFFB1206FE1F
:10284C00805EAC18AD19EEFAEFFB1207048051ACA8
:10285C0018AD19EEFAEFFB12070A80447402121736
:10286C0096880C890D780C1219C374021217A6EEF7
:10287C00FAEFFB12071074021217568023AC18AD36
:10288C0019EEFAEFFB120716E9F87016740212171C
:10289C008CE4F0803CAC18AD19EEFAEFFB12071C7F
:1028AC00E9F8E8602C8E828F83A3E06414602285A3
:1028BC000A82850B83E09001E5F0851882851983E7
:1028CC0012318C9001E6122DCEE8A31228F01202E0
:1028DC004EEEFAEFFB12067A740212178CE0F974C2
:1028EC00030243A0F07CE57D0185088285098312F3
:1028FC0031902274E81217B074FA12174074041253
:10290C00178CECF0A3EDF08A128B13EA2405F50E6C
:10291C00E43513F50FEA2402F510E43513F51185AF
:10292C001082F58312318C1203808A0A8B0B750886
:10293C00007C037D0079007AE57B011211D8E50E4D
:10294C002402F516E4350FF5177402121796880C4D
:10295C00890D780C1219C3850E82850F83A3A3A34E
:10296C00A3E0F50C750D00780C1219C3E50E2405C7
:10297C00F50CE4350FF50D780C1219C3851682850C
:10298C0017831234931205DE74061217568A0C8BB9
:10299C000DE50C450D7003022B20802085188285D7
:1029AC001983E088828983F005088518828519834C
:1029BC00A3E0C0E0122B61D0E0F00508E50A24FB8F
:1029CC00FAE50B34FFFBC3E5089AE49B4003022BAA
:1029DC00207E007F00851282851383A3A3A3A3E02E
:1029EC00F50978091219C7E4F514F51578141219BC
:1029FC00C37514E275150178141219C39001E31212
:102A0C0019DA740912178C1219DAE50A24F9F9ACDF
:102A1C000CAD0D85108285118312318C1207467412
:102A2C0009121756E96003022AC1850E82850F83AD
:102A3C00A3A3A3A3A3A3A3E0F89001E2E06870759D
:102A4C00E0F5148E1578141219C312411D850E82EF
:102A5C00850F83A3A3A3A3A3A3A3A312318C121149
:102A6C00D27402121756E9604C9001E61231BB7019
:102A7C003BE4F51478141219C37CFF7DFF790785AC
:102A8C00108285118312318C1206B67402121756FD
:102A9C001231C17017850E82850F831242BA7404ED
:102AAC0012178C123B7B1234C4022B54850C82857A
:102ABC000D83122B57A818A919881489157814128C
:102ACC0019C3740412178C1219DA851682851783B0
:102ADC00122DC41205EA74041217568A0C8B0DEED3
:102AEC004F700302299D122B61EE122B6C12347A5B
:102AFC00EF122B6CF8A3E03400F9E50C450D6003E4
:102B0C000229A88882898374FFF00508122B61744E
:102B1C00FFF00508E508601A1313543F122DD41268
:102B2C000260E960099001E612318C12124A7900B8
:102B3C008016850E82850F831242BA740412178C8C
:102B4C00123B7B1237E3790A02344DA3A3A3A3E013
:102B5C00FEA3E0FF22A8089001E6E02812347A22B6
:102B6C00F00508089001E6E0282274E81217B0740A
:102B7C00FA121740740212178C122DCE740412170D
:102B8C008CECF0A3EDF0740212178CE024051234D7
:102B9C0063E0F50CA3E0F50D740212178CE024022F
:102BAC00F510A3E03400F511851082F58312318CF9
:102BBC00120380750800750900EA24FCFEEB34FF53
:102BCC00FF8008050CE50C7002050DA808C3EE98F3
:102BDC00EF94005003022D80A818A919880E890FB4
:102BEC00780E1219C3851482851583A3A3A3A3128F
:102BFC0041241219C3E5142405F50EE43515F50F1F
:102C0C00780E1219C3851482851583122DC21205F4
:102C1C00DE74061217568A0E8B0FEA450F700302EC
:102C2C002D80EA2404F516E4350FF517851682F588
:102C3C0083E0F50CA3E0F50D85188285198312410C
:102C4C00208A828B83A3A3A3E0F98510828511834C
:102C5C0012318C1205CCE9F5096003022D80740247
:102C6C0012178C12348AF50978091219C7E4F51277
:102C7C00F51378121219C37512E27513017812123A
:102C8C0019C39001E31219DA740712178C1219DAAE
:102C9C00EEF9AC0EAD0F85108285118312318C12BA
:102CAC0007467409121756E9F5096003022D80E5F1
:102CBC0008703FE4F50EF50F780E1219C37CFF7DFA
:102CCC00FF790985108285118312318C1206B67436
:102CDC00021217561234B0700D740412178C122D88
:102CEC00B77911022DB49001E2E024029001E6F0D4
:102CFC0080149001E6E0FA9001E2E07900240250A1
:102D0C0001096A497072A8089001E2E0FAE82AFA0F
:102D1C00E43400FBEE9AEF9B405A851682851783AC
:102D2C00E0C0E09001E7122B66D0E0F005088516B4
:102D3C0082851783A3E0C0E0089001E7122B66D0D0
:102D4C00E0F005089001E21241241219C312411D52
:102D5C00A8081234571211C074021217569001E2CF
:102D6C00E02508F50874FF650C700474FF650D60B0
:102D7C0003022BCFE508601F9001E6E0F5F0E508B3
:102D8C0084122DD4120266E960099001E712318C8D
:102D9C0012124A79008011E509700375090A74044E
:102DAC0012178C122DB7A90902344D1235F2E50C0D
:102DBC00F0A3E50DF022A3A31243AFAA0CAB0D2296
:102DCC00A3A3EAF0A3EBF0229001E5F07CE57D01F2
:102DDC008510828511831231902274EC1217B07415
:102DEC00FC1217401238F374021217A61231861215
:102DFC0005E48A0C8B0DEA450D7003022EBE122ED3
:102E0C00CEA818A9198810891178101219C37CFF43
:102E1C007DFF790B85088285098312318C1206B6E9
:102E2C007402121756122FC4700C850A82850B83FC
:102E3C001234C1022ECB8E828F83A3A3A3A3E0F501
:102E4C001278121219C7E4F512F51378121219C37D
:102E5C007512E575130178121219C378101219C383
:102E6C00740912178C1219DA740912178CE0F9AC68
:102E7C000CAD0D85088285098312318C12074674BE
:102E8C0009121756E9FE70157CE57D0185088285CF
:102E9C00098312318C12026CE97009802074166E51
:102EAC0070027E009001E612318C12124AEE700410
:102EBC00800B7E01850A82850B831237E0EEF902C6
:102ECC0037F5EE2402F508E43FF5092274EC1217ED
:102EDC00B074FC121740EAFEEBFF8C0E8D0FEE2443
:102EEC0005F508E43FF50974021217A685088285DA
:102EFC00098312318C1205E48A0C8B0DEA450D7096
:102F0C0003022FB4EE2402F50AE43FF50BA818A92E
:102F1C00198810891178101219C37CFF7DFF790D67
:102F2C001231861206B67402121756122FC4700B89
:102F3C008508828509831234C1807A8E828F83A39F
:102F4C00A3A3A3E0F51278121219C785088285098C
:102F5C0083A3A31219DA7512E575130178121219ED
:102F6C00C378101219C3740912178C1219DA740968
:102F7C0012178CE0F9123182120746740912175697
:102F8C00E9FE700F7CE57D01123186120272E97048
:102F9C0009802074166E70027E009001E612318C4E
:102FAC0012124AEE7004800B7E018508828509831B
:102FBC001237E0EEF90237F51231CBF510A3E0F53C
:102FCC0011EA45112274E81217B074FE1217408AE8
:102FDC00168B178C148D15EA2405F50CE43517F5B2
:102FEC000DEA2402F50EE43517F50F850E82F583F4
:102FFC0012318C1203808A088B09750B007C037DBF
:10300C000079007AE57B011211D8750A00E50814E5
:10301C00F5100424FFF508E50934FFF509805490F8
:10302C0001E5E0FA9001E2E0F8EA28F8E43400F96E
:10303C00E50898E50999500D9001E5E0F8E510C315
:10304C00989001E2F0E0F51275130078121219C392
:10305C0012411D9001E6E02AFAA3E03400FB1211A4
:10306C00C074021217569001E2E0F89001E5E028D6
:10307C00F0050A850C82850D83A3A3123A974003B1
:10308C000231679001E5E0C39508E495094003021D
:10309C003167AE0AEE2EFEE433FF1231A6AC18AD4A
:1030AC0019124138E439FB1205E48A128B13AC1265
:1030BC00AD13EC4D701B750B011231961237E49069
:1030CC0001E61226E3600312124AA90B74020234C1
:1030DC004F851682851783A3A3A3A3E0F50B780B6A
:1030EC001219C7E4F512F51378121219C37512E20E
:1030FC0075130178121219C39001E31219DA7407CF
:10310C0012178C1219DAA910850E82850F831231D1
:10311C008C1207467409121756E9F50B709B900137
:10312C00E61231BB600302302BE4F512F513781272
:10313C001219C37CFF7DFF790F850E82850F8312D8
:10314C00318C1206B674021217561231C16003028A
:10315C00302B1231961234C50230D87CE57D0185B6
:10316C000E82850F8312318C120278E960030230D3
:10317C00CB79000230D8AC0CAD0D850A82850B835F
:10318C0012319022E0FAA3E0FB221231A6E0FAA35E
:10319C00E0F9EA85148285158322850C82850D83DE
:1031AC00E02EF8A3E03FF988828983229001E31294
:1031BC0042BEE849221231CBF8A3E0F9E84922904B
:1031CC0001E6EAF0A3EBF09001E6E02274E81217B6
:1031DC00B074FA121740740412178C122DCE8C1680
:1031EC008D17740412178CE02405F50EA3E034003F
:1031FC00F50F740412178CE0240212346312318C14
:10320C001203808A0A8B0B7F007E00A818A91988EC
:10321C0008890978081219C3850E82850F83A3A328
:10322C00A3A3E0F5088E0978081219C3E50E24054E
:10323C00F508E4350FF50978081219C3850E828557
:10324C000F83A3A31234931205DE74061217568A49
:10325C000C8B0D8029123484F00F123484F00F90F3
:10326C0001E21237CF1219C312411DEFF812345775
:10327C001211C074021217569001E2E02FFFE50CF8
:10328C00450D700302331385188285198312390595
:10329C00A3A3A3E0F985148285158312318C120542
:1032AC00CCE9FEE50C2404F510E4350DF511EE70B7
:1032BC0050740412178C12348AF50878081219C746
:1032CC00E4F508F50978081219C37508E2750901C7
:1032DC0078081219C39001E31219DA740712178CCB
:1032EC001219DAE50A24FAF9AC0CAD0D85148285B5
:1032FC00158312318C1207467409121756E9FE60B9
:10330C00391234A01237E3EF700302343A9001E61D
:10331C00E0F5F0EF849001E5F07CE57D0185148209
:10332C0085158312318C12027EE960099001E71237
:10333C00318C12124A790002344D8F08EF703BE445
:10334C00F512F51378121219C37CFF7DFF791185E4
:10335C00148285158312318C1206B674021217561C
:10336C001234B070091234A01234C402344D9001DE
:10337C00E2E024049001E6F080359001E2E0F89060
:10338C0001E6E0FAE82404FCE43400FDEC6A4D604C
:10339C0003023319E50A24FAFAE50B34FFFBE508BE
:1033AC0028F8E43400F9EA98EB99500302331985B4
:1033BC001082851183E0C0E09001E7E02FF8A3E0D4
:1033CC0034008882F583D0E0F00F8510828511835C
:1033DC00A3E0C0E0123471D0E0F00F740212179623
:1033EC008808890978081219C3740212178C1219EB
:1033FC00DA850E82850F83122DC21205EA7404122F
:10340C0017568A0C8B0DEA450D700302326174025B
:10341C0012178CE0C0E0123471D0E0F00F7402127D
:10342C00178CA3E0C0E0123471D0E0023269EE7068
:10343C00027E0A850E82850F831234A61237E3EEC4
:10344C00F974061217567F100218829001E7E028D3
:10345C00FAA3E03400FB22F514A3E03400F5158543
:10346C001482F58322123475229001E7E02FFAA31F
:10347C00E034008A82F5832212347574FF221235EF
:10348C00F2A3A3A3A3E0221243AF850E82850F8380
:10349C00123190228510828511831242BE851682CC
:1034AC00851783229001E7EAF0A3EBF09001E71275
:1034BC0042BEE849221237E9E8F0A3E9F07911227B
:1034CC0074EA1217B074FE1217408A088B098C121A
:1034DC008D13EA2405FEE43509FFAC18AD198E8274
:1034EC008F8312318C1205E48A0C8B0DEE2406F5B9
:1034FC000EE43FF50FEA450D70030235C4E50824D0
:10350C0002F50AE43509F50B8A828B83A3A3A3E0A9
:10351C00A2E5502885188285198312318C12073A3E
:10352C008A108B11EA4511602079121231828510B4
:10353C00828511831217AEE9F50C707F850E82859A
:10354C000F83E0600979528011750C0E806D85082F
:10355C0082850983A3A3A3A3E0F9E4F508F5097810
:10356C00081219C38E828F83A3A3E0F50878081282
:10357C0019C38E828F83A3A3A31219DA8E828F8331
:10358C0012412012318612074C7406121756E9F5B7
:10359C000C7011850E82850F83E0702D123186120E
:1035AC00028480257416650C7011750C0074181249
:1035BC00178C1235EEE48010750C011242B6851290
:1035CC0082851383E8F0A3E9F0850E82850F83E0F2
:1035DC00600479008002A90C74021217567F0E0247
:1035EC0018821235F222E0F8A3E0F5838882227467
:1035FC00EC1217B074F71217408A0A8B0B8C108DD3
:10360C0011EA2405FEE4350BFF750C00AC18AD195E
:10361C008E828F8312318C1205E48A088B09EA455D
:10362C000970030237BAE50A2402F50A5002050BA9
:10363C008A828B83A3A3A3E0A2E5502F85188285F1
:10364C00198312318C12073A8A0C8B0DEA450D60E6
:10365C004F7912AC08AD09123186850C82850D8329
:10366C001217AEE9F50C60030237BD850A82850B93
:10367C0083E0F508A3E0F509AA08FB12072EEA4B34
:10368C0070197AFF7BFF12072EEA4B70030237B0DA
:10369C008A828B83E508F0A3E509F07508008008A1
:1036AC00750C0E0237BD05089001DFE0F8E508C384
:1036BC009840030237B085080E750F007403780E1E
:1036CC0012172D8A828B83A3A3E0250EF8A3E03575
:1036DC000F123B8470D08E828F831237D8122DCE6E
:1036EC008E828F83A3A31237D8122DCCEE2404F52F
:1036FC0008E43FF509850882F583E088828983A375
:10370C00A3A3A3F0A3E4F0EE2405F50EE43FF50F1C
:10371C00850E82F5831237D8A3A3A3A3122DCC75E3
:10372C00120775130078121219C3EEFCEFFD740426
:10373C0012179E1211C07402121756E4F512781269
:10374C001219C3850882850983E0FC7D0079171264
:10375C0031861206B67402121756740712178C12A1
:10376C002DCE740712178CE0FA4B603D85088285CC
:10377C0009831237CF1219C3850E82850F8312412C
:10378C00201211C0740212175674021217A61231AD
:10379C008612028AE96026740712178C12318C1279
:1037AC00124A8019750C098008750C118003750C70
:1037BC00011242B68510828511831237E3A90C746D
:1037CC00098028E0F50875090078082212319088E4
:1037DC00828983221237E9E8F0A3E9F022E0F8A30A
:1037EC00E0F9850E82850F832274041217567F0C24
:1037FC0002188274EC1217B01238F3751000EE2414
:10380C0002F50CE43FF50D850C82F58312318C1218
:10381C00072E8A088B09EA450970030238D7850AF6
:10382C0082850B83E0640160030238CCAC08AD09DF
:10383C00AA0AAB0B120722E9606E85088285098300
:10384C00122B59EE2406F50AE43FF50B8E828F837A
:10385C00A3A31219DA8E828F83A3A3A3A31219DA5E
:10386C00850A82850B831219DA79188E828F83125E
:10387C00390512318C12074C7406121756E9F8747C
:10388C001668700B850A82850B83E4F0A38014E81C
:10389C0060128E828F8312318C850E82850F83EAA3
:1038AC00F0A3EBF088108018780E1219C3AC08AD99
:1038BC0009EEFAEFFB1207287402121756E9F510FD
:1038CC00AA08AB09120734E510700E850C82850D21
:1038DC008312318C12029080097416651070037576
:1038EC001000A9100237FAEAFEEBFF8C0E8D0FEEDA
:1038FC002405F50AE43FF50B221243AF850C8285B3
:10390C000D832274EA1217B07508007509007E0049
:10391C007F00750A00EC2402F510E43DF5118035AA
:10392C00EC65087003ED650960030239C48882896F
:10393C0083A3A3E06A7003A3E06B707C8882898305
:10394C00A3A3A3A31242BAEE28FEEF39FFEA28FA8A
:10395C00EB39FB050A123A94503A850A0C750D00A6
:10396C007403780C12172D851082851183123A87F7
:10397C00123B84601FE508450970A58C088D0988E9
:10398C00828983122B5788828983A3A3E02EFAA302
:10399C00E03F80BEE50AC394025003023A827508E8
:1039AC0000750900EE4F6010EEFAEFFB1212448A1C
:1039BC000E8B0FEA450F70057900023A84750B00E7
:1039CC00023A57850B0C750D007403780C12172DE9
:1039DC00851082851183E0250CF50CA3E0350DF5DF
:1039EC000DE50C2406F514E4350DF515851482F55A
:1039FC0083123B896042E50C2404F512E4350DF585
:103A0C0013851282F5831219DAE50E2508FAE50FF3
:103A1C003509FB1211C074021217568512828513D8
:103A2C0083E02508F508A3E03509F509851482859E
:103A3C00158312318C12124AE50B600D7C087D0047
:103A4C007900AA0CAB0D1211D8050BE50BC3950A26
:103A5C0050030239CF8510828511831242BA8882B5
:103A6C008983A3A3A3A3A3A3E50EF0A3E50F1226BA
:103A7C00EAEEF0A3EFF079010235E9123A8B22E07D
:103A8C00250CF8A3E0350D229001DFE0F8E50AC320
:103A9C00982274F01217B08A0E8B0F8C0A8D0B754E
:103AAC000D00750C0080507916EE2406F508E43FE5
:103ABC00F5098E828F83A3A31219DA8E828F83A3CA
:103ACC00A3A3A31219DA8508828509831219DA8552
:103ADC000E82850F83A3A312318C12074C7406122D
:103AEC001756E9F50D7416650D706C8508828509FD
:103AFC0083E4F0A3F0050C9001DFE0F8E50CC3982B
:103B0C005066AA0C8A087509007403780812172DE0
:103B1C00850A82850B83A3A3123BD3E8FEE9FF8EB3
:103B2C00828F83123B896040EA2401F508E434005B
:103B3C00F5099001DFE065087002E50960148882E0
:103B4C008983A3A3A3A3A3A3A3A31231BB600302E2
:103B5C003AB37918023AB5E9609B1242B674101266
:103B6C00178C123B7B1237E3A90D7F08021882E0F9
:103B7C00FAA3E0F5838A8222F9888289831243AF03
:103B8C00EC4D2274F61217B07C0080010C90023BB5
:103B9C00E0F8ECC398501E8C087509007402780884
:103BAC0012172D123BC8E06A7003A3E06B70DDE8BE
:103BBC00FAE9FB80047A007B00023C6B9001DD1279
:103BCC003BD38882898322E02508F8A3E03509F9E4
:103BDC002274F21217B08A088B09750A0080278E9E
:103BEC00828F83A3A3A3A31226E1600312124A7C43
:103BFC00087D007900EEFAEFFB1211D88E828F83CC
:103C0C00E4F0A3F0050A123A945027850A0C750DBE
:103C1C00007403780C12172D850882850983A3A3E1
:103C2C00E0250CFEA3E0350DFF8E828F831231BB95
:103C3C0070AD85088285098374FFF0A3F00243A35D
:103C4C0074F61217B01206E08A828B83E5824583E4
:103C5C0070067A007B008007A3A3A3A312318C7F8C
:103C6C000202188274F41217B089088C828D83E0DA
:103C7C006402703C124259FEA3E0F9EEF87402683B
:103C8C0070037429697029750A02750B00780A1281
:103C9C0019C3741012178C1219DA741012178C12B3
:103CAC0019DAA9081210AC7406121756E9F9800239
:103CBC00790102271E74E81217B074FB121740E941
:103CCC00851882851983F08A168B17ECFEEDFF752B
:103CDC0010008E828F83A3A3A3E0A2E4502D741D49
:103CEC0012178C12318C12073A8A828B83E582452B
:103CFC008370030240F8790AEEFCEFFDAA16AB17AD
:103D0C001217AEE9F51060030240FB741F12178CFA
:103D1C00E0F508A3E0F509742112178CE0F50AA36D
:103D2C00E0F50B742312178CE0F50EA3E0F50F8E63
:103D3C00828F83E064026003024099A31242BA8529
:103D4C000882850983A3858212858313EE2406F5E8
:103D5C000CE43FF50D88828983124138F514E4395F
:103D6C00F5157814121A4D0100002801289B3D0707
:103D7C00000228603E0328CE3D00298F3F0129BA5E
:103D8C003F02295B3F03298F3F042933409940E5CB
:103D9C000E450F6003024094850C82850D83124200
:103DAC00BAE8FAE9FB8A828B83E0850A82850B8369
:103DBC001241431219C38A828B83A3E0FCA3E00255
:103DCC00401DE50E450F6003024094850A82850B69
:103DDC00837401F012412D850882850983F07C00E3
:103DEC007D008E828F83A3A3A3A3E02401FAA3E01A
:103DFC003400FB1205E4EA4B60408A828B83E0249A
:103E0C0002F8850A82850B83E028F0EA2404F8E4A2
:103E1C003BF988828983E085128285138312415194
:103E2C001241431219C38A828B83A3124120E508E5
:103E3C002403FAE43509FB024022850A82850B83B0
:103E4C00E02404F07C047D007900AA12AB1312115B
:103E5C00D80240FBE50E450F600302409412412D41
:103E6C00FEA3E0FF850A82850B837404F0EE8508BF
:103E7C0082850983F0EF851282851383F074031217
:103E8C0017A6EEFAEFFB1205E48A0C8B0DEA450D32
:103E9C007003023F3E8A828B83A3A3122B577401BB
:103EAC00121796880E890F780E1219C37405121703
:103EBC008C1219DA7CFF7DFF1205EA740412175676
:103ECC008B0FEA450F7033850C82850D83124124CC
:103EDC001219C3850C82850D83A31219DA7C027D1D
:103EEC00007ADE7B8312036E7404121756E9700A93
:103EFC00740112178C74FFF0A3F08E828F83E06430
:103F0C00027039750C02750D00780C1219C38E8273
:103F1C008F83A3124120E5082404FAE43509FB122F
:103F2C0011C07402121756850A82850B83E0240295
:103F3C008009740112178CEEF0A3EFF074011217C4
:103F4C008C124112740112178C12410902408EE539
:103F5C000E450F6003024094850C82850D8312433D
:103F6C00A8AA16AB171210B2850A82850B837402AD
:103F7C00F0850882850983EAF0851282851383EB2C
:103F8C00024091E50E450F600302409412412DF85A
:103F9C00A3E0F9850A82850B837402F0E885088218
:103FAC00850983F0E9851282851383024091850C83
:103FBC0082850D8312318C1211BAEAFAF8C3950E70
:103FCC00E4950F405CE8650E450F70047A00802183
:103FDC00851882851983E0FCE50E2CFCE4350FFD79
:103FEC00C3EC98ED94005003E08005E50ECAC39A2B
:103FFC00FAEA850A82850B83F08A0A750B00780A27
:10400C001219C3850C82850D83E0250EFCA3E035C7
:10401C000FFDAA08AB091211C07402121756024008
:10402C00FB7510070240FBE50E450F705B850C829B
:10403C00850D831242BA850A82850B837407F0883A
:10404C0082898312410A124102E085128285138310
:10405C00F0E82402FAE439FB8A828B831241128A3B
:10406C00828B83124109A3A31226E9124117F0E8AF
:10407C002405F850010988828983124117A3124143
:10408C0051A3A3A3A3F0806775100B8062741D125B
:10409C00178C12318C1206E08A828B83E582458361
:1040AC00604A1242BA880C890DE8450D603E7425B1
:1040BC0012178CE0F51078101219C7780E1219C36C
:1040CC00780A1219C378081219C3740712178CE0F6
:1040DC00F9EEFCEFFDAA16AB17850C82850D831249
:1040EC0017AE7407121756E9F510800375100EA958
:1040FC0010740502344FF088828983A322A3E085D3
:10410C00088285098322124158F022124158A3A338
:10411C00229001E31243AF22E0F50E750F00780EEA
:10412C0022850C82850D831235F2E022E0FAA3E0A1
:10413C00F8E4C8F9EA2822F08A828B83E0F50A7544
:10414C000B00780A2212410212415822E0850882A3
:10415C00850983A3A32274EE1217B074FE121740C4
:10416C008A088B09ECFEEDFF890AAC18AD19EEFA42
:10417C00EFFB1205E48A0C8B0DEA450D700302422D
:10418C004A85188285198312318C1206E08A828B3B
:10419C0083E58245837003024245A3A31242BA8889
:1041AC000E890FE8450F7003024245741412178CE8
:1041BC00E0F510A3E0F511E50AF50B780B1219C721
:1041CC00741912178C1219DA78101219C3741B1285
:1041DC00178CE0F9AC0CAD0DAA08AB09850E8285E5
:1041EC000F831217AE7405121756E9F50B70527443
:1041FC00FE650A604C850C82850D83E0640270417B
:10420C00124259FAA3E0F9EAF874026870037429AF
:10421C0069702E851082851183124138F50CE439B2
:10422C00F50D780C1219C3EEFCEFFDAA08AB0912C0
:10423C00076474021217568008750B0E8003750BF9
:10424C0001A90B74021217567F0A021882A312429C
:10425C00BE88828983E02274F61217B074FE12179E
:10426C0040740C12178C1242BAE885188285198397
:10427C00F0740112178CE9F0E4F508F509780812CE
:10428C0019C375080278081219C37404121796889A
:10429C0008890978081219C379FE12074C740612A2
:1042AC0017567402121756023C6B8E828F83124281
:1042BC00BE22E0F8A3E0F92274F71217B0EAFEEB85
:1042CC00FF89089001FA1241201210B2EA540260E0
:1042DC000BA908EEFAEFFB1205D8800279017F01D9
:1042EC0002188274F21217B074FE121740EAFEEB39
:1042FC00FF890A7401650A60147402650A6003027E
:10430C00439E7901120962E9600302439EEEFAEFC3
:10431C00FB12072EEA4B6003120734A818A9198860
:10432C0008890978081219C37508027509007808FC
:10433C001219C37508D675098378081219C37CFF46
:10434C007DFF7A017B001205DE7406121756803849
:10435C00850882850983A3A3A3A3A3A31243A8EE74
:10436C00FAEFFB1210A6E4F50CF50D780C1219C33C
:10437C00740212178C1219DA7CFF7DFFAA08AB09A4
:10438C001205EA74041217568A088B09E5084509C8
:10439C0070BE74021217567F060218821235F21282
:1043AC0043AF22E0FCA3E0FD2274F41217B08A089C
:1043BC008B09ECFEEDFF901D3DE0F4604B7A097B20
:1043CC00001211EAEA4B60408A828B8374B1F0A32D
:1043DC00E4124417F08A828B83A3A3E508F0A3E5CB
:1043EC0009124417A3EEF0A3EFF0740C12178C1201
:1043FC0042BA8A828B83A3A3A3A3A3A3A31237E3FA
:10440C00901D3DE0F91211F602271EF08A828B8373
:10441C00A3A3A3A32274F41217B0E9900268F012BC
:10442C000CD4907800E0C4540F54076403700479E2
:10443C003F8002797F75080675090078081219C348
:10444C007C567D027AEA7B071210F474021217561E
:10445C00900256E0F47049A3E0F47044A3E0F470C9
:10446C003FA3E0F4703AA3E0F47035A3E0F47030AD
:10447C0090780EE0900256F090780FE0900257F092
:10448C00907810E0900258F0907811E0900259F07A
:10449C00907812E090025AF0907813E090025BF062
:1044AC0090025C1245DC125A299002867406F0A325
:1044BC00740D124C8F7442F0A37401F09005CD1260
:1044CC0045DC9005CCE4F09005D304124C8F1245DA
:1044DC00CAE4F0A304F0A3124C8F124C8DF090059B
:1044EC00E41245DC9005E3E4F09005EA04F0A3E463
:1044FC001245CA124C8DF0A37405F09005F474FFAC
:10450C00F0A3E4F09005F6F09005F804F09005F9AE
:10451C007490F0A37401F0120A881209AA120C927A
:10452C0079017AFB7B05120B7E9005FBE075F0148C
:10453C0084E5F004F0790C7A1C7B06120B7E120BCE
:10454C00967A00900268E0F91212AA907803E0645F
:10455C004270569005FBE014F0704EC2AF12456CE1
:10456C0000781DD0E0F618D0E0F6E59F5407F870FF
:10457C00057509FF800375097FC4C0E0781CE6F55A
:10458C000808E65509F509740B780812171ED0E0D7
:10459C002508F8906270E0A2E740F8E8C333906217
:1045AC0072F0906270E0D2E0F0900293E4F0A3F02D
:1045BC007A80FB900268E0F912121A024A31124515
:1045CC00D31245D3F0A322F0A37480F0A37402227B
:1045DC001245E3F0A3F02274FFF0A3F0A3F0A3F0D4
:1045EC00A32274F41217B0EAFEEBFFEEA2E05040E7
:1045FC0090026AE0C39480E0500F25E0F8E433F9B0
:10460C00746128F582741D800EF425E0F8E433F90A
:10461C00746F28F582741D39F58312540A1217AE83
:10462C007A00900268E0F91212AAEE64010247D0F7
:10463C00540870030246D89005F2E0F875F00DA40A
:10464C00C8AAF02AF9749928FA740239FB75080083
:10465C0078081219C7EA2432F582E43BF583125329
:10466C00F67404780812171E78081219C3EA24305D
:10467C00F582E43BF5831219DAEA242EF582E43B49
:10468C00F583E0F508A3E0C313F509E50813F50875
:10469C0078081219C3EA2406F508EB3401F50978F9
:1046AC00081219C3EA240CF582EB125C39FD7C006C
:1046BC008A828B83A3A3A3A3E0FA7B007900120860
:1046CC00187409121756EE64080247D0EE541060A5
:1046DC003775080078081219C7E4F509780812191B
:1046EC00C378081219C378081219C378081219C3B1
:1046FC007D007C007A007B00790212081874091284
:10470C001756EE64100247D0EE548060369005F9CF
:10471C00124F5EE849602679001212A49005F91236
:10472C0053F6E4F50AF50B78081219BF7A007B01F1
:10473C00900268E0F91213287404121756EE648084
:10474C000247D0EF5401600C79011212A4EEFAEF7B
:10475C0064018072EF5402600AC2AF75C9AB75C9AF
:10476C005B80FEEF5404600A122405EEFAEF640439
:10477C00805490026FE06401704FEE5420604A90B8
:10478C000269E024FB600924FE601B146018803170
:10479C009005DBE0FA79001209F89005DBE0FA7974
:1047AC00011209F8801B793F900297E0FA75F00D21
:1047BC00A4CAA8F028FB74992AFA74023BFB120BCA
:1047CC003CEE6420FAEFFB80047A007B00024A3155
:1047DC0074F61217B0EA540F600478018002780066
:1047EC00E8F98A088B097404780812171EE5082961
:1047FC00F5087509007404780812172DE5082408CB
:10480C00FAE43509FB1212448A088B09A808A90995
:10481C00E8496009E82404FAE439FB80047A007B57
:10482C0000024A6274F61217B0EA2405FA50010B22
:10483C001212448A088B09A808A909E8496009E8FA
:10484C002405FAE439FB80047A007B00024A62C03A
:10485C0082C083C2AF120CB6E5E170FC75E10112A7
:10486C000A7075E1F1120CE0120A647907120D76E8
:10487C007901120D7C7902120CFE120D34120D5EB0
:10488C007900120D707901120D709083501216166A
:10489C00120CF29005D4E4F09005EBF0120B2412FC
:1048AC000C32120B487900120D829005C01245E3B0
:1048BC00741FF0906012E4F0A3F0906063F0751A2E
:1048CC0000900269F09005C5F09005C6740CF0904C
:1048DC0005C7E4F09005C804F09005C9E4F0900217
:1048EC006BF0A3F090026EF090026F04F0900285D2
:1048FC0004F09005F7E4F0D2AFF90254D5C082C0B1
:10490C0083900256124AB2900257124A90F09002CB
:10491C0058124A9B900259124AA190025A124AA666
:10492C0090025B124A90A3A3A3A30254D2C082C0EC
:10493C00838A828B83E090025C125875E090025D52
:10494C00124A6790025E125A0E90025F125A1A9027
:10495C000260125A15E09002610254D2C082C083E8
:10496C00120A94E9F97005120D3479000254D574C9
:10497C00F71217B0EAFEEBFF8908120A94E9F970F6
:10498C002CE508600A74016508600A7912801E7CA7
:10499C0000790080047C007901EEFAEFFB120D3AED
:1049AC00E9F874036870047907800279000256C034
:1049BC0074F61217B0EA4B600EEC4D600A740A12D2
:1049CC00178C12585270047912800F78081219C380
:1049DC00120B9074021217567900807A74F4121725
:1049EC00B0EAFEEBFF8908900269E064096014E00C
:1049FC00640A600FE0640B600AE0640C6005E0641C
:104A0C000D7004790C801E120C5C8B0BEA450B703C
:104A1C000BA908EEFAEFFB120B7E800990026BE0FB
:104A2C004440F0790D7F0402188274F61217B0EA34
:104A3C004B6003E970047912801CEAFEEBFF8908D5
:104A4C00120B78E98E828F83F0A3AE82AF831508A8
:104A5C00E50870EC79007F02021882125875A3E009
:104A6C0022C082C083E9F8740168700B9005F7745A
:104A7C0001F079000254D5E870069005F7E480F156
:104A8C00791280F0124A9422E08A828B83A322123C
:104A9C004A94A3F022124AACF022124AACA3F022A0
:104AAC00124A94A3A322E08A828B83F02274F71219
:104ABC0017B0900269E0640C701290618EE0F8748B
:104ACC00806870368C828D83747F803AC3EB940F30
:104ADC00502412587C501F125A6A125C537004797D
:104AEC0002802675F00DEBA42EFB740128F5827460
:104AFC00033BF58380C77912800F90026DE0F9E8D3
:104B0C00C3998C828D83F079000256C074F712170A
:104B1C00B0E9FE74056E601E74136E601974146E29
:104B2C00601474156E600F741A6E600A74296E60CE
:104B3C0005743B6E7037C3EB940F503112587C5098
:104B4C002C125C3F700479028037125884EA246975
:104B5C00F582E43BF583E06401701EEA246AF58279
:104B6C00E43BF583E064027008793A801479128092
:104B7C0010124B90120B0C8006124B90120B0079FA
:104B8C00000256C0EA24F7F582E43BF583EEF0EA26
:104B9C00241DF582E43BF583E4F0A3F07902227442
:104BAC00F51217B0EAFEEBFF890AEC4D6014E9C36D
:104BBC00941C500E740B12178CE0FA600A74016A84
:104BCC0060057912024C73C3EF940F502DC3EE9411
:104BDC0003EF94005024124C78125C537004790249
:104BEC00801A124C78F9749928F508740239F50971
:104BFC009005C6E070087907806D79128069EC2405
:104C0C00FEFCED34FFFD8C828D83E50AF0EA700426
:104C1C00740280027401A3F0EC24FEFCED34FFFD61
:104C2C00E5082463FAE43509FB120B66A9A8C2AFA8
:104C3C009005C6E014F0E9A2E7E433F8E9A2E792A4
:104C4C00AF900269E064086005E064077017900299
:104C5C0097E06E7001EF700D7900AA08AB09121D78
:104C6C00D89061D0E079007F03021882EEF8EFF95A
:104C7C00E875F00DA4C8ABF02BFB75F00DE9A42B77
:104C8C00227425F0A3E4F0A32274F71217B0E9FF05
:104C9C00600574016F7037740912178CE0FE6005A3
:104CAC0074016E7029EA24FCF8EB124D80501FEC55
:104CBC0024FCF8ED124D805015C3EA9CEB9D400E80
:104CCC00740A12178CE0F8600A7401686005791296
:104CDC00024D7D9005D4E064017005790C024D7D88
:104CEC00EFA3F0E89005DAF0EE9005CC702FE4F02D
:104CFC00900256E09005CDF0900257E09005CEF072
:104D0C00900258E09005CFF0900259E09005D0F059
:104D1C0090025AE09005D1F090025B802E7401F065
:104D2C0090025CE09005CDF090025DE09005CEF035
:104D3C0090025EE09005CFF090025FE09005D0F01D
:104D4C00900260E09005D1F0900261E09005D2F005
:104D5C009005D6EAF0A3EBF0A3ECF0A3EDF0E8702D
:104D6C00047900800774016870057901120D40798F
:104D7C00000256C012544C2274F01217B0E9FEEA2D
:104D8C00FF900269E064097003024E8CE0640A70C3
:104D9C0003024E8CE0640B7003024E8CE0640C70CA
:104DAC0003024E8CE0640D7003024E8C9005D5E02E
:104DBC00600764016003024F599005CCE060076402
:104DCC00016003024F599005D61254424003024F22
:104DDC0059A31254424003024F599005D6C08290F9
:104DEC0005D8124F5E758305D082C3E098A3E09975
:104DFC005003024F59EF600874016F6003024F5962
:104E0C00EE6077146003024F599005D4E0640160A2
:104E1C006F7902120C509005CAEAF0A3EBF09005E2
:104E2C00D47401F09005D3F0EF9005DBF09002699B
:104E3C00E07042120AA0120CC88A0C8B0D8C0E8DDD
:104E4C000F908354780C12155E90835C780C1215BD
:104E5C00BF9005CA1254021216079005CA1254309C
:104E6C009005D812542312154B9005CA12541312E4
:104E7C001607120C387900025A099005D4E0700418
:104E8C00792180F3A2AFE433F50AC2AF120C5C8A2D
:104E9C00828B83E58245836005E0F5088003750805
:104EAC00FF9005D4E4F07ACA7B05120C56120C68FC
:104EBC00E9F5096009740265086003024F50120C91
:104ECC00B6906182E0C2E6F0E5E170FC75E1017537
:104EDC0091BF7901120D7C75E1F17A017B00900292
:104EEC0068E0F91212209005DAE064017005120DE9
:104EFC005E8017A3E0640170119005DAE0700B126C
:104F0C000D34120D5E7901120D6AE50AA2E092AF22
:104F1C00E509702D90026FE0640170187A207B0017
:104F2C00900268E0F91213347A207B00900268E05A
:104F3C00F91212207A00900268E0F91212AA024EBD
:104F4C0081024E7EE50AA2E092AF024E81791202F6
:104F5C004E83E0F8A3E0F92274E81217B074FB1248
:104F6C001740740312178CEAF0A3EBF074011217BC
:104F7C008CECF0A3EDF0E9851882851983F090058F
:104F8C00EBE0640160267904120C62E96401601C98
:104F9C00900269E064096014E0640A600FE0640B3D
:104FAC00600AE0640C6005E0640D70057921025321
:104FBC00D3740312178C12544240030251CC740167
:104FCC0012178C12544240030251CC740312178CEA
:104FDC00C082C083740112178C124F5ED083D082B2
:104FEC00C3E098A3E09950030251CC741E12178CA5
:104FFC001253F6851882851983E0600964016003F9
:10500C000251CC8009E508450970030251CC741D8E
:10501C0012178CE06007640160030251CC742012FB
:10502C00178CE06007640160030251CC742B1217DB
:10503C008CC082C083742912178C124F5ED083D01F
:10504C0082C3E098A3E09950030251CC742112174B
:10505C008CE024FAF8A3E01253DD40030251CC7427
:10506C002312178CE0FEA3E0FFEE24FAF8EF1253A4
:10507C00DD40030251CC742112178C124F5EC3EE2B
:10508C0098EF9950030251CC742512178CC3E094FD
:10509C00F4A3E0940140030251CC742712178C1234
:1050AC00584824F6F8E50B125A5A9477E9940C40B8
:1050BC00030251CC850A0C850B0D7403780C121766
:1050CC002DF50EF50F742512178CE02401F514A3A1
:1050DC00E03400F515E4F516F517EEF8EFF9E82EC7
:1050EC00F8E933F988108911E4F512F5137814797D
:1050FC0010121424780C79141213E55042120B423E
:10510C00E964017005793A0253D37900EEFCEFFDA6
:10511C00742112178C125A64120B308A0C8B0D747A
:10512C00FF650C700474FF650D7005793B0253D359
:10513C00851882851983E07008E50845097002809E
:10514C007F120B188A0E8B0FAE0EAF0FEE4F700541
:10515C0079090253D38E828F83A3A3A3A3E0900576
:10516C00F2F0740312178C124F5E9005EC12547708
:10517C00740112178C124F5E9005EE12547785183D
:10518C0082851983E09005F1F0EE245DF8E43FF997
:10519C007AC07B0512585A64C57003EB640570F431
:1051AC00EE245DFCE43FFDEEFAEFFB120B12EE2455
:1051BC00361253E6C39402500CEEFAEFFB120B1EA0
:1051CC0079120253D3850882850983E0C0E0EE246E
:1051DC00061253EED0E0125468E0C0E0EE24071241
:1051EC0053EED0E012545FE0C0E0EE24081253EE10
:1051FC00D0E012545FA3E0C0E0EE24091253EED0CD
:10520C00E012547DE0C0E0EE240A1253EED0E0121E
:10521C00547DA3E0C0E0EE240B1253EED0E0F0740A
:10522C002012178CE09005E3F0742012178CE070BC
:10523C002D900256E09005E4F0900257E09005E5C1
:10524C00F0900258E09005E6F0900259E09005E7E6
:10525C00F090025AE09005E8F090025B802B9002EF
:10526C005CE09005E4F090025DE09005E5F09002C2
:10527C005EE09005E6F090025FE09005E7F09002AA
:10528C0060E09005E8F0900261E09005E9F0741D93
:10529C0012178CE0C0E0EE240C1253EED0E0F012AA
:1052AC000B4EEAF8EBF9ECFAEDFBEE2426F582E472
:1052BC003FF58312163A120A40EE2422F582E43F9F
:1052CC00F583121622EE242EF582E43FF583E50CCD
:1052DC00F0A3E50DF0EE2432F582E43FF583E50A08
:1052EC00F0A3E50BF0742512178C124F5EEE2430F0
:1052FC001254719005F3E0C0E0EE242AF582E43FED
:10530C00F583D0E0F0EE242BF582E43FF5837402B4
:10531C00F0120B78E975F00C84E5F02405C0E0EE92
:10532C002437F582E43FF583D0E0F09005F0742546
:10533C00F0900296E0C3940240057901120CF879C2
:10534C0004120C509005E1EAF0A3EBF09005EB741D
:10535C0001125455241AF582E438F58374B8F0A37D
:10536C00740A1254552414F582E438F5837417F03A
:10537C00900269E0704F120CC88A0C8B0D8C0E8D4C
:10538C000F908374780C12155E90835C780C121558
:10539C00BF9005E11254021216079005E112543029
:1053AC009005EE12542312154B9005E11254131272
:1053BC0016078E828F83A3A3A3A3E0F9120AA61269
:1053CC000AAC120C38790074051217567F100218AB
:1053DC0082125A5E947BE9940C22F582E43FF583A9
:1053EC00E022F582EF3401F583221253FA22E0F524
:1053FC0008A3E0F5092212540AA3A3780C22E0F8C2
:10540C00A3E0F583888222E0F8A3E0C8240EF5829D
:10541C00E438F583780C221253FAE4F50AF50B788C
:10542C000C790822E0F8A3E0C82406F582E438F5EC
:10543C0083E4F0A3F022E024FCF8A3E012544C2205
:10544C00125A5E94FDE9943F22F09005E1E0F8A336
:10545C00E0C82212546322125468A322F0850882F9
:10546C00850983A322F582E43FF583E8F0A3E9F0F4
:10547C0022125463A3A322C082C0839005EBE06088
:10548C00087904120C62E97004790C80379005EBF2
:10549C00E4F0120C68E9702A90026FE06401701855
:1054AC007A207B00900268E0F91213347A207B009A
:1054BC00900268E0F91212207A00900268E0F9126A
:1054CC0012AA79008003F07900D083D08202011FE8
:1054DC0074E81217B0EAF8EBF9ECFAEDFB900269FC
:1054EC00E064086005790C0256A9EA24FAFCEB3456
:1054FC00FFFDC3EC947BED940C40030256347418FE
:10550C0012178CE0FCA3E0FDEC24FAFEED34FFFF57
:10551C00C3EE947BEF940C4003025634C3EC9AED2B
:10552C009B5003025634741A12178CE0F516A3E044
:10553C00F517C3E51694F4E51794014003025634AD
:10554C00741C12178CE0FEA3E0FFEE24F6F508EFB6
:10555C0034FFF509C3E5089477E509940C40030280
:10556C005634C3E9940F5079C3E89403E99400507E
:10557C00708808E875F00DA4C50885F00A250AF5B1
:10558C000A75F00DE9A4250AF509749C2508F58225
:10559C0074023509F583E0700479028046E875F0F1
:1055AC000DA4C885F0082508F50875F00DE9A425AB
:1055BC0008F9749928F514740239F515E514246E5C
:1055CC001256ACE0600AE514246A1256ACE0600C8A
:1055DC00E51424731256ACE06401700A793A025651
:1055EC00A979120256A98E088F097403780812172C
:1055FC002DF50AF50BE5162401F510E43517F51118
:10560C00E4F512F513ECF8EDF9E82CF8E933F98828
:10561C000C890DE4F50EF50F7810790C1214247822
:10562C000879101213E54004791280717901120B7C
:10563C003074FF6A700374FF6B7004793B805EE515
:10564C001424761256AC7402F0E51424771256AC7E
:10565C00E4F0A3F0E5142430F582E435151256B4C9
:10566C00E5142474F582E43515125475E514247987
:10567C001256ACEAF0A3EBF0E514247B1256ACE521
:10568C0016F0A3E517F0E514247D1256ACEEF0A34A
:10569C00EFF07900AA14AB15120B0079000253D865
:1056AC00F582E43515F58322F583E02407F8A3E0B1
:1056BC003400F9227F0102188274F31217B09002A1
:1056CC0069E064086005790C02582FEC4D60167483
:1056DC000D12178C125848450B600A740F12178C58
:1056EC001258527005791202582FC3EB940F504E7A
:1056FC0012587C5049125A6A125C53700479028019
:10570C003F75F00DEBA42EFB749928FE74023BFF41
:10571C00EE24E41253E67017EE24E5F8E43FF97A30
:10572C007D7B0212585A64857003EB640270F4EEB0
:10573C0024E51253E6A2E0400A791102582F79129F
:10574C0002582FEE249CF8E43FF9EC2408FAE43DCF
:10575C00FB8C828D83E088828983125B0BAC82ADDB
:10576C008388828983A3A882A983EA6C7002EB6D7B
:10577C0070DF850A82850B83E0C0E0EE24A4F582FD
:10578C00E43FF583D0E0F0850A82850B83A3E0C06B
:10579C00E0EE24A5F582E43FF583D0E0F07C00A890
:1057AC0008A90988828983E0C0E0ECFAC3E49AFA7C
:1057BC0095E0FBEE2AFAEF3BFBEA24D2F582E43BC0
:1057CC00F583D0E0F00C88828983A3A882A983ECAE
:1057DC00C3941040CEEE2494FAE43FFB120B84EEFB
:1057EC002488FAE43FFB120B8A90026BE04480F0B1
:1057FC00EE246212583E24D312583E24D412583E42
:10580C0024831253E66401700A1258347401F0793F
:10581C000A8007125834E4F07903EEFAEFFB120B0E
:10582C000079007F05021882EE24DDF582E43FF555
:10583C008322F582E43FF583E4F0EE22E0F50AA33F
:10584C00E0F50BE50A221253FAE5084509228A8293
:10585C008B83E088828983125875AA82AB838882F5
:10586C008983A3A882A983EA22F08A828B83A3224C
:10587C00C3EA9403EB94002275F00DEBA42CFB749B
:10588C009928FA74023BFB22790C02011F74F01266
:10589C0017B0890AEAFEEBFF120C5C8A088B09121E
:1058AC000CC88A0C8B0D8C0E8D0F8E828F8374011D
:1058BC00F0E50A600A7401650A600479128072E5E9
:1058CC00084509604D780C1219BF8508828509833B
:1058DC00A3A31216161222837404121756E9603908
:1058EC00908384C082C083780C1219BF850882858E
:1058FC000983A3A31216161222DF74041217568AF8
:10590C000C8B0D8C0E8D0FD083D082780C1214055D
:10591C005007A90A120A7C8016E50A90026B7005E2
:10592C00E044018003E04402F08E828F83E4F0793E
:10593C0000025A0974F01217B0890AEAFEEBFF1242
:10594C000C5C8A088B09120CC88A0C8B0D8C0E8D82
:10595C000F8E828F837401F0E50A60117401650A61
:10596C00600B7402650A60057912025A09E5084554
:10597C0009604D780C1219BF850882850983A3A391
:10598C001216161222837404121756E9603990838A
:10599C0084C082C083780C1219BF85088285098364
:1059AC00A3A31216161222DF74041217568A0C8B3C
:1059BC000D8C0E8D0FD083D082780C1214055007ED
:1059CC00A90A120A828034E50A600B146010146074
:1059DC001514601A801F90026BE04404801690022C
:1059EC006BE04408800E90026BE04410800690023D
:1059FC006BE04420F08E828F83E4F079007F080204
:105A0C001882125875A3A3E022125A1FA322125A0D
:105A1C001FE022F08A828B83A3A3A3A322900256B9
:105A2C00E0900262F0900257E0900263F09002580E
:105A3C00E0900264F0900259E0900265F090025AF6
:105A4C00E0900266F090025BE0900267F022125A3E
:105A5C005E2234FFF9C3E822E0FAA3E0FB22EAF865
:105A6C00EBF9E875F00DA4C8AEF02EFE75F00DE95B
:105A7C00A42E2274F01217B0EAFEEBFF120C5C8A13
:105A8C00088B09120CC88A0C8B0D8C0E8D0F8E8214
:105A9C008F837401F0E5084509604D780C1219BF2D
:105AAC00850882850983A3A3121616122283740417
:105ABC00121756E96037908384C082C083780C1229
:105ACC0019BF850882850983A3A31216161222DF3B
:105ADC0074041217568A088B098C0A8D0BD083D04C
:105AEC008278081214055005120A8E800D90026CF3
:105AFC00E04401F08E828F83E4F07900025A09F0C1
:105B0C008C828D83A32274F71217B074FF12174086
:105B1C00EA4B60078A828B837403F0EC4D6009902A
:105B2C000296E08C828D83F0740A12178C125A64E0
