:020000040000FA
:0600000002011A02214575
:03002B0002288721
:0300330002286937
:030053000221BBCC
:03006B0002284028
:10008300021F9BE5C754F84401F5C779012200001C
:100093000080FB120086B90003020104E479217891
:1000A30008B800028004F709D8FCE479297802B87B
:1000B30000028004F709D8FCE490028178BB79132D
:1000C3008002F0A3D8FCD9FA781A90014A7A01BACF
:1000D30000028007E493A3F608DAF97A3B7B1590D4
:1000E300014B785E79038015E493A3AD82AE838AD6
:1000F300828B83F0A3AA82AB838D828E83D8E9D9C6
:10010300E77582A77583A4740312012C7582917518
:100113008300740012012C75D00075814F7518810E
:10012300751902759F00020096C09FF59FE473D076
:100133009F22D083D082C09FE493C0E0740193C018
:10014300E0740293F59F2201FF0000B40000280031
:100153002800283075A000A000A000A0000008001F
:1001630008E001F000100010001000100010001053
:100173000050005000500010001000D00700000095
:100183000000000F0001000500307507001000019A
:100193000081FF00000000FFFFFFC405E205CA0560
:1001A3000606FF02020208025000A0000000E80356
:1001B300027181010000B980026B81010000961574
:1001C300026581010000BD02026B810100009715E9
:1001D300026381010000D302026B810100009815C4
:1001E300026181010000D502026B810100009915B3
:1001F300028381080000D602026B810100009A1578
:10020300026F810100009B15FF0100FF1700780CAE
:10021300780C780C780C780C780C780C780C780CBB
:10022300780C780C780C780C360F480F300F01E8F7
:10023300030577100AFFFFFF0008537461727420EF
:1002430054696D657220436F6E74000247657420B4
:1002530054696D657220436F756E74200008537482
:10026300617274204761732043616C69627200029A
:1002730047657420476173204D6F6E69746F7220F8
:100283000008416C61726D20636F6E74726F6C2035
:1002930020200002543030303030324465766963B8
:1002A30065204E616D652063686172000271810192
:1002B30000005E81026B810100002C16027781032E
:1002C3000000BC140269810100002D16026B81013C
:1002D30000003E16027981030000BD14026981010A
:1002E30000003F16026B810100005016027B810360
:1002F3000000C1140269810100005116026B8101E3
:1003030000006216027D81030000C21402698101AC
:1003130000006316026B810100007416027F8103E3
:100323000000C6140269810100007516026B810189
:10033300000086160281810100008716026981018F
:1003430000008E1601307503020106000000000054
:10035300000000000000000000000000000000009A
:1003630000000000000000FFFF0600800CE8030A05
:100373000950414D6F6E69746F720512500020036E
:10038300020A000201060302F0FF53696D706C65F7
:1003930020424C45205065726970686572616C9E9D
:1003A300130000A4131201350080031201351380DA
:1003B300031201354480031201357E800312013597
:1003C300D780031201351E810312013566810312A2
:1003D3000135958103120135C48103120135FB8177
:1003E300031201354282031201355B820312013588
:1003F300B08203120135DE82031201351883031222
:100403000135ACA802120135AFA902120135E8A9E2
:10041300021201350BAA021201351DAA021201357F
:100423005BAA02120135D7AA021201359FAB021251
:100433000135C1AB0212013558AC02120135AAAC29
:1004430002120135DBAC02120135E8AC02120135B0
:1004530052AD02120135A9AD02120135ACAD021243
:100463000135E5AD02120135E8AD02120135F2ADF9
:100473000212013546AE0212013587AE0212013572
:10048300BAAE02120135F7AE02120135F9AF02120C
:1004930001359DB00212013506B10212013544B196
:1004A3000212013544F2021201356CF202120135D7
:1004B30099F202120135D1F2021201352FF3021221
:1004C30001357BF302120135E2F30212013522F406
:1004D300021201355FF4021201358DF40212013567
:1004E30037F50212013541F5021201354EF50212BC
:1004F300013581F5021201358DF502120135A5F59D
:1005030002120135AFF50212013575A1031201354F
:1005130083A1031201359BA103120135B2A103127A
:1005230001356DB80112013517B9011201352ABA27
:1005330001120135A6BA01120135C4BB01120135FE
:1005430000BC011201359BBC011201357FBD0112B4
:1005530001354BBE01120135D9BF011201354AC025
:100563000112013504C101120135F6C10112013531
:1005730036C201120135EAC2011201351CC3011250
:10058300013512C50112013554C50112013572C579
:1005930001120135D8C501120135A7C60112013573
:1005A3006BC7011201358AC9011201356DC10212EF
:1005B300013557C20212013502C30212013553C37A
:1005C3000212013503C40212013574C4021201354B
:1005D30059C5021201358DC50212013586C60212B4
:1005E3000135C3C6021201359FC702120135DEC7AA
:1005F30002120135FAC702120135B18E0312013519
:10060300358F03120135608F031201357A9003127F
:1006130001353DF60212013553F60212013571F62A
:100623000212013582F7021201358CF702120135ED
:10063300B7F802120135AEF9021201351BFA0212A4
:100643000135159B03120135529C03120135169493
:1006530001120135A29401120135069601120135EA
:100663001296011201354D9601120135BC96011205
:100673000135C59701120135CE98011201359599BF
:1006830001120135F29A01120135109B0112013555
:100693002D9B01120135F89B01120135209C01129B
:1006A3000135EA9E01120135EF9E0112013508A1C1
:1006B3000112013556A101120135C6A101120135FE
:1006C30004A201120135E0A201120135A0A3011217
:1006D3000135ECA301120135EFA30112013533A457
:1006E300011201357BA401120135BAA401120135AF
:1006F300DCA40112013510A50112013573A5011205
:100703000135E0D202120135EED20212013541D396
:100713000212013560D302120135A5D3021201354D
:10072300E9D40212013584D502120135C8D502126B
:100733000135F2D50212013561D602120135A7D671
:10074300021201351ED702120135CFD7021201352D
:10075300C02800120135D02800120135712900127A
:100763000135CD29001201358A2A00120135AB2B40
:1007730000120135DA2B00120135872D00120135E5
:10078300FE2F001201356E32001201356033001264
:1007930001355934001201356036001201355439E0
:1007A30000120135833A00120135873C00120135EE
:1007B300973D00120135263F001201351740001204
:1007C3000135654000120135D44000120135F8406F
:1007D300001201359945001201359A460012013580
:1007E300FB4600120135264700120135EC47001283
:1007F3000135CECD02120135D8CD021201351DCE01
:100803000212013531CE02120135C1CE0212013579
:10081300FACE0212013535CF021201355ECF021234
:100823000135B2CF02120135C7CF02120135E9CF2C
:1008330002120135FECF0212013512D00212013528
:1008430027D00212013561D0021201358DD0021278
:100853000135BBD00212013506D10212013568D130
:1008630002120135DAD10212013520D2021201350A
:1008730063D2021201358DD202120135B8D20212AF
:100883000135AF9C03120135108B02120135F38B36
:10089300021201356E8C02120135A98C0212013548
:1008A300FA8D02120135888E021201351A91021255
:1008B3000135CC9102120135D892021201354B94C5
:1008C30002120135A49402120135B0E5021201357A
:1008D300F3E50212013577E6021201354EE9021201
:1008E30001353F8C03120135F18C03120135ED8D77
:1008F300031201352C8E03120135868E0312013546
:10090300839203120135E692031201358393031296
:100913000135B89303120135E8930312013523948B
:1009230003120135439403120135E1D70212013555
:100933006DD8021201352CD90212013544DA0212A4
:1009430001355EDC021201353CF40112013561F41C
:10095300011201352EF50112013502F6011201359E
:100963006FF601120135AFF6011201354BF7011293
:1009730001357FF8011201355AF901120135B9F930
:100983000112013545FA01120135B3FA011201359D
:100993003FFB0112013585FB01120135F7FB011203
:1009A300013589FC011201352AFD011201354AFD89
:1009B3000112013592FD01120135DBFD01120135F2
:1009C300F7FD011201351DFE0112013597FE0112DB
:1009D3000135A5FE0112013534FF011201359DFFDA
:1009E3000112013595DC021201351ADD02120135BF
:1009F3005CDD0212013540DE02120135ADDE02126A
:100A03000135F1DE0212013535DF0212013562DFF5
:100A1300021201358ADF02120135C2DF02120135EB
:100A230000E00212013527E002120135A1E00212B3
:100A33000135EBE00212013588810112013527836C
:100A4300011201355F8501120135B38501120135AC
:100A5300DE8501120135BA8601120135EA860112DB
:100A630001351987011201352C87011201356D8774
:100A7300011201359A8701120135E8870112013508
:100A8300248801120135698801120135B6880112E3
:100A93000135308901120135718B011201355B8DEE
:100AA30001120135978D01120135268F011201358F
:100AB3006B8F01120135DE8F011201353390011264
:100AC3000135389001120135E19001120135AD91E4
:100AD30001120135379201120135C392011201351A
:100AE300E29301120135F393011201350D9F0212B6
:100AF3000135869F0212013540A5021201354BA62E
:100B030002120135F4A70212013582A8021201353F
:100B1300F25C00120135735D00120135A05D001215
:100B23000135E95D00120135EA5E001201352E5FE1
:100B330000120135645F00120135E06000120135D7
:100B43006261001201357D6100120135EE61001210
:100B53000135AB62001201356E6300120135FC638F
:100B630000120135B36400120135C6640012013569
:100B73005F6500120135F665001201351D6600122E
:100B83000135866600120135D066001201351E67F5
:100B930000120135C3670012013561680012013587
:100BA300EE68001201355F6900120135A669001273
:100BB3000135FE6900120135306A00120135EA6A17
:100BC30000120135F16B001201353A6C0012013548
:100BD300576C00120135766C00120135A96D0012B5
:100BE3000135606E00120135856E001201359A6E73
:100BF300001201350A6F001201354B6F00120135E7
:100C03006F7000120135F070001201354D9502121C
:100C13000135989502120135A49502120135789693
:100C2300021201358F9602120135CC96021201355C
:100C3300FD96021201353597021201358B97021288
:100C43000135A19702120135DD9702120135F097A4
:100C5300021201351798021201354B980212013521
:100C6300719902120135BB9A02120135B79B021228
:100C73000135D49C02120135F27F0012013597C968
:100C830001120135D2C90112013524CD01120135FA
:100C930080CE011201353FCF01120135A6D20112D8
:100CA300013590D301120135DCD301120135F6D39E
:100CB3000112013533D4011201353ED4011201353D
:100CC3007DD40112013586D40112013530D50112CC
:100CD300013507D6011201355BD601120135B8D6AD
:100CE300011201352AD7011201354BA60112013534
:100CF300AAA901120135B0A901120135E1B001120F
:100D03000135E8B40112013525FA02120135BBFAA7
:100D130002120135D1FA021201352AFB0212013502
:100D23006EFB02120135A8FB0212013540FC0212D0
:100D33000135AFFC02120135B8FC02120135C4FCC7
:100D430002120135DEFC0212013508FD02120135E3
:100D53001DFD021201357FFD02120135A6FD0212AF
:100D6300013500EA021201350DEA0212013527EAC4
:100D7300021201355AEA0212013598EA02120135CC
:100D8300FDEA0212013512EB021201351DEB0212CC
:100D930001352AEB0212013541EB021201354FEB0B
:100DA300021201355AEB0212013566EB02120135CC
:100DB30075EB0212013580EB02120135A3EB02122F
:100DC300013547EC0212013557EC0212013571EC83
:100DD300021201358EEC02120135A9EC0212013523
:100DE300CEEC02120135D9EC02120135EEEC0212FF
:100DF300013502ED0212013563ED0212013569ED91
:100E0300021201356FED0212013575ED0212013543
:100E13008DED02120135C0ED02120135B9E6011262
:100E2300013550E701120135E8E701120135D8E831
:100E3300011201350FE90112013522E901120135D1
:100E430090E9011201352BEB0112013552EB01122E
:100E53000135F4EB0112013529EC011201353AECAD
:100E630001120135B3EC01120135D4EC0112013545
:100E7300ECEC0112013544EE011201354DF0011283
:100E830001359DF201120135A0F301120135EFF393
:100E9300011201352671001201352372001201354A
:100EA3000E73001201351873001201353A730012E4
:100EB3000135467300120135987400120135C77469
:100EC30000120135F775001201353976001201352C
:100ED3006577001201353B78001201358D780012D9
:100EE3000135EC78001201352379001201355E7962
:100EF30000120135F97C00120135127D0012013513
:100F0300947D00120135A27D00120135F77D001298
:100F13000135057E00120135727E00120135E47E33
:100F2300001201352A7F00120135008002120135BB
:100F33002280021201350C8202120135B1850212A0
:100F43000135F48602120135CE87021201351E9651
:100F530003120135439603120135B496031201358A
:100F63006AB10212013573B1021201357CB102126A
:100F73000135ADB202120135CCB40212013502B50E
:100F8300021201353CB50212013572B50212013568
:100F9300ACB502120135E0B5021201350CB60212EE
:100FA300013555B6021201358FB602120135D7B697
:100FB300021201352DB70212013562B70212013553
:100FC300BDB702120135F7B70212013548B8021254
:100FD30001357EB802120135B8B802120135E6B800
:100FE3000212013509B902120135F6A203120135C5
:100FF30022A3031201357DA30312013587A3031234
:10100300013597A303120135D6FF02120135FFA460
:1010130003120135584800120135BC4A001201354C
:10102300734C00120135D04C00120135D24D001221
:1010330001355A4E00120135E14E00120135064FBB
:1010430000120135FB5100120135715200120135B6
:101053006053001201359A5300120135DA5300121E
:1010630001357A5500120135CF55001201351C5652
:10107300001201358A5600120135B05600120135AF
:10108300CA5600120135E05700120135F05700121D
:101093000135765900120135965900120135CC59A4
:1010A30000120135505B001201358F5B00120135D0
:1010B300CD5C00120135519403120135B59403122E
:1010C3000135649503120135839503120135D795D4
:1010D3000312013542A20312013553A20312013553
:1010E30049A50312013588A503120135ECFF01124E
:1010F3000135BD9F03120135CD9F03120135E29FD8
:101103000312013596A003120135C39D0312013565
:10111300479E03120135AD9E03120135D497031286
:101123000135FD9703120135639803120135829847
:1011330003120135D698031201352F990312013595
:101143006A99031201356D990312013542EE0212B9
:10115300013559EE02120135D2EE02120135A7EF25
:101163000212013579F102120135DEF10212013565
:1011730031F202120135F87F00120135A9900312F2
:1011830001351F92031201358092031201359CA091
:1011930003120135C5A003120135EEA00312013578
:1011A30030A1031201355BC80212013565C8021272
:1011B3000135A5C802120135EEC80212013528C94E
:1011C300021201357EC9021201359DC90212013591
:1011D300A6C902120135F7C90212013520CA02124B
:1011E300013535CA02120135A5CA0212013533CBC6
:1011F3000212013577CB021201359FCB0212013562
:101203001ECC0212013561CC021201359ECC0212B2
:101213000135B0CC02120135CFCC02120135D8CC46
:1012230002120135A2CD021201357799031201355D
:10123300C89903120135519A03120135B79A031263
:1012430001357B8903120135A589031201359F8A74
:1012530003120135CE8A03120135548B0312013573
:10126300C69E03120135D4FD021201350AFE021295
:10127300013543FE021201359CFF02120135A1A381
:1012830003120135B7A303120135C1A303120135BC
:1012930017A40312013548A40312013597B90212AA
:1012A300013554BA021201358FBA02120135B7BAA9
:1012B3000212013519BB0212013565BB0212013559
:1012C300D0BB021201354CBC0212013548BD0212DB
:1012D3000135CFBE0212013552BF02120135B6BF2E
:1012E30002120135CDBF02120135C3C0021201350E
:1012F3000FC1021201352BE10212013540E1021246
:101303000135F0E10212013530E20212013549E202
:10131300021201357CE202120135C9E202120135E3
:10132300FDE2021201353FE3021201353DE50212EF
:101333000135A3E502120135AF8603120135D686C6
:1013430003120135F386031201354F87031201356A
:1013530016880312013579D80112013530DC0112E8
:101363000135C2DD0112013519DE0112013538DE06
:1013730001120135B6DE0112013548E001120135D3
:101383002CE1011201353DE50112013511E601128F
:101393000135808303120135398503120135DA855E
:1013A300031201357A8603120135B37F001201352A
:1013B300BC7F00120135C17F0012013592A50312D3
:1013C3000135C0FF01120135D8A503E0667010088E
:1013D300A3E066700A08A3E066700408A3E066222F
:1013E300C3E7960809E7960809E7960809E79622EE
:1013F300C3E09608A3E09608A3E09608A3E096222C
:10140300C008C3E096F50808A3E096420808A3E0E5
:1014130096420808A3E09645087001D3D008220835
:101423000808EAC0E0EBC0E086F0E7A4FA180986F2
:10143300F0E7A42AFA180986F0E7A42AFA1809861D
:10144300F0E7A42AFA1986F0E7A4FBE5F02AFA19D3
:101453000886F0E7A42BFBE5F03AFA190886F0E7D3
:10146300A42BFBE5F03AFA18180986F0E7A4C5F0B7
:101473002BFBE43AFA1908E7C5F0C6A426F6E5F013
:101483003BFBE43AFA1886F0E7A4F6E5F00826F603
:10149300E43B08F6E43A08F6D0E0FBD0E0FA22E4B5
:1014A300CFC0E0E4CEC0E0E4CDC0E0E4CCC0E07562
:1014B300F020E626F608E633F608E633F608E633C8
:1014C300F6181818EC33FCED33FDEE33FEEF33FF63
:1014D300C3EC9709ED9709EE9709EF97191919408E
:1014E3000FFFEC97FC09ED97FD09EE97FE1919061E
:1014F300D5F0BFECF709EDF709EEF709EFF7191986
:1015030019D0E0FCD0E0FDD0E0FED0E0FF22601671
:10151300080808C6C313C618C613C618C613C618C8
:10152300C613C6D5E0EA2270090808082260161817
:101533001818C6C333C608C633C608C633C608C69A
:1015430033C6D5E0EA22E627F60809E637F60809A6
:10155300E637F60809E637F622E026F608A3E03672
:10156300F608A3E036F608A3E036F622E026F008F4
:10157300A3E036F008A3E036F008A3E036F022C378
:10158300E697F60809E697F60809E697F60809E6E6
:1015930097F622C3E096F008A3E096F008A3E0963E
:1015A300F008A3E096F022E056F608A3E056F6080A
:1015B300A3E056F608A3E056F622E056F008A3E0AF
:1015C30056F008A3E056F008A3E056F022E0F60830
:1015D300A3E0F608A3E0F608A3E0F622E6F008A3EA
:1015E300E6F008A3E6F008A3E6F022E0FAA3E0FBA6
:1015F300A3E0FCA3E0FD22E0F8A3E0F9A3E0FAA353
:10160300E0FB22E8F0A3E9F0A3EAF0A3EBF022CA9F
:10161300C0E0E6F0A308DAFAD0E0FA22CAC0E0E0BC
:10162300A3C582CCC582C583CDC583F0A3C582CCB7
:10163300C582C583CDC583DAE6D0E0CA22C3E49868
:10164300F8E499F91216818026C3E49AFAE49BFB25
:10165300E920E7E9121681E498F8E499F922C3E452
:1016630098F8E499F9121681E498F8E499F9C3E437
:101673009AFAE49BFB22EB20E7CFE920E7E0B900ED
:1016830010BB0008E88AF084F8AAF022E4FBC8FA49
:1016930022EB70227B10C833C8C933C9335007C348
:1016A3009AC3DBF280069A50012ADBEAC833F4C8F6
:1016B300C933F4C9FA2275F008E4C833C8C933C979
:1016C30033C99AC99B5004C92AC93BD5F0ECFBC85E
:1016D30033F4C8E4C9FA22600D08C6A2E713C6189A
:1016E300C613C6D5E0F322600C08C6C313C618C6DA
:1016F30013C6D5E0F422700422600D18C6C333C6A6
:1017030008C633C6D5E0F41822251810AF08F5181B
:10171300400C15198008F51840021519D2AF2200A4
:10172300C0D0251810AF08F518500C05198008F51E
:101733001850020519D2AFD0D0222518F58210AF68
:1017430008F518400C15198008F51840021519D230
:10175300AF851983222518F582E43519F5832225EF
:1017630018F8E43519F9222518FAE43519FB22256E
:1017730018FCE43519FD22E4732518C582C0E0E5A1
:101783001934FFC583C0E0E518C3958224F810AF70
:10179300088583198582188008858319858218D264
:1017A300AFCEF0A3E520F0A37808E608F0A3DEFAB5
:1017B300EFF0A3E58124FAF8E608F0A3E608F0A326
:1017C300E608F0A30808E608F0A3E608F0A31581ED
:1017D3001581D0E0FED0E0F8158115811581E8C0B0
:1017E300E0EEC0E0222518C582C0E0E51934FFC54C
:1017F30083C0E0E518C3958224F910AF08858319E7
:101803008582188008858319858218D2AFCEF0A30C
:10181300E520F0A37808E608F0A3DEFAEFF0A3E5ED
:101823008124FBF8E608F0A3E608F0A30808E6081D
:10183300F0A3E608F0A315811581D0E0FED0E0F80F
:1018430015811581E8C0E0EEC0E022851983851873
:1018530082E0A3FEE0A3F5207808E0A3F608DFFA10
:10186300E0A3FFE0A3C0E0E0A3C0E0E0A3C0E0E0AA
:10187300A3C0E0E0A3C0E010AF08858218858319F8
:101883008008858218858319D2AFD083D082020164
:1018930032851983851882E0A3FEE0A3F52078083A
:1018A300E0A3F608DFFAE0A3FFE0A3C0E0E0A3C0F3
:1018B300E0E0A3C0E0E0A3C0E010AF088582188594
:1018C30083198008858218858319D2AFD083D0828B
:1018D30022C0D02518C582C0E0E51934FFC583C0F6
:1018E300E0E518C3958224F310AF08858319858238
:1018F300188008858319858218D2AFC8F0A3E9F050
:10190300A3EAF0A3EBF0A37908E709F0A3D8FAEC74
:10191300F0A3EDF0A3EEF0A3EFF0A3D0E0F0A3D09B
:10192300E0F0A3D0E0F0A3E520F0A3E5F0F0A322DC
:10193300851983851882E0C0E0A3E0F9A3E0FAA348
:10194300E0FBA37808E0F608A3DFFAE0FCA3E0FDE0
:10195300A3E0FEA3E0FFA3E0C0E0A3E0C0E0A3E0B8
:10196300F5D0A3E0F520A3E0A3F5F010AF0885833D
:10197300198582188008858319858218D2AFD08291
:10198300D083D0E0F8D0E032740480067402800281
:101993007401C0E0F40412173DD0E0121612227451
:1019A30004800474028000CCC0E0EDC0E0E518C3FD
:1019B3009CCCAD1950011D10AF068C188D198006F3
:1019C3008C188D19D2AF12161FD0E0FDD0E0FC2287
:1019D300D083D082E9C0E0E493A3C386F0C5F09539
:1019E300F0F908E493A386F0C5F095F0700BE49347
:1019F300A3C3994005E9048002A3E475F002A4257A
:101A030082F582E5F03583F583D0E0F9E493A3C052
:101A1300E0E493C0E022D083D082ECC0E0EDC0E0EC
:101A2300E493A3FCE493A3FDED4C600D121A65EC63
:101A330024FFFCED34FFFD80EFE493A3FCE493A3C8
:101A4300FDED4C600D121AA4EC24FFFCED34FFFDF8
:101A530080EFD0E0FDD0E0FCE493A3C0E0E493C0CA
:101A6300E022C0E0C3E49396087401939618400FF4
:101A7300E49366700808740193661870007019A3E4
:101A8300A3C3E49396087401939618A3A3400DD0BF
:101A9300E0D0E0D0E0021A55A3A3A3A3A3A3D0E010
:101AA30022C0E0C0F088F0E49366700808740193E4
:101AB30066187000A8F0A3A3700BD0F0D0E0D0E0BC
:0C1AC300D0E0021A55A3A3D0F0D0E0221E
:101AD00074F61217E8EAFEEBFF8C088D09EE243449
:101AE000F8E43FF9E8FCE9FDEE2435121DE3FAEED7
:101AF0002437121DE3F88508F0A4C885F00A85098B
:101B0000F0A4250AF9EA28F8E439F97A257B0012CD
:101B10001681EA8C828D83F0FA131313541FF8EEAA
:101B200028F8E43FF9E8245DF582E439F583E0C064
:101B3000E074075AF8D0E0B800028004C313D8FC60
:101B4000A2E0EE50082434F582E43F8018243612D7
:101B50001DE3F5F0EA84A8F0EE28F8E43FF9E82464
:101B600038F582E439F583E0F97F0302189474F7BD
:101B70001217E8EAFEEBFFEE2434121DE3C0E0EE9C
:101B80002435F582E43FF583D0E0F08E828F83A385
:101B9000A3A3A3A3A3A3C082C0838E828F83A3A386
:101BA000A3A3A3E0F8A3E0F9D083D082E0C398F523
:101BB00008A3E099F509EE247F121DE36401703E4D
:101BC000EE2480F582E43FF583C082C0838E828F4D
:101BD00083A3A3A3A3A3E0240108A3E03400F9D0C6
:101BE00083D082E0687003A3E06970127CAF7D044B
:101BF000120BB8EE247FF582E43FF583E4F0AC08E5
:101C0000AD09EEFAEFFB121AD0E9F91228327F0281
:101C1000021894C082C083851882851983E0F8A3D6
:101C2000E0F9C3EA9CEB9D5010C3EC98ED99401B82
:101C3000C3EA98EB995014800EC3EA98EB994007D9
:101C4000C3EC98ED994004790180027900D083D0EB
:101C50008222EAC39CFAEB9DFB2274EF1217E890F4
:101C60000374E064086005E06407702A9061C8E0CE
:101C700060249003A2E0F4601DE0F875F00BA4C8A6
:101C8000AAF02AF974A428FE740339FF8E828F8388
:101C9000A3A3A3E07003021D68906060E0C0E0EEC3
:101CA0002468F582E43FF583D0E0F0750C1F750DD4
:101CB00005750800750900E5D914F50AE5D954033E
:101CC000F50E60127403650E6043E50A600AEE24A7
:101CD00067121DE37002807590051AE06401601FB1
:101CE000121DE060047A0480027A00E50AC39AFAC1
:101CF00095E0FB120A4A8A088B09EA450970051229
:101D00000DFE8064121DE070048A0C8B0DE50A60E4
:101D100012850C82850D83F50BE5D9F0A3150BE533
:101D20000B70F6121DE0604474FC250AF50A780C6D
:101D300012198FAC0AA90EEEFAEFFB120C727402A4
:101D4000121722E97026AA08AB09121230793D8ECB
:101D5000828F83A3A3A3A3E0FA7B001208ACEEFA60
:101D6000EFFB120BDC120C847900806F7403650E9C
:101D70006051850A10751100781012198FAC0CADE6
:101D80000DAA08AB09120C367402121722EE246851
:101D9000121DE364807004747F8001E0F50C780C00
:101DA000121993E50EF50C780C121993A90AAC08D8
:101DB000AD099003A2E0FA7B0012088274021217A8
:101DC000228013900374E06408600BAC0CAD0DEE40
:101DD000FAEFFB120CFC120E0A79017F0A0218942A
:101DE000EE2483F582E43FF583E02274F21217E8D3
:101DF00074FC12170CEAFEEBFF8909A2AFE433F57D
:101E000008C2AF021EB5E0601B780C12198FAC0B34
:101E1000A90EEEFAEFFB120C6C7402121722740476
:101E2000250BF50B7401250BF5D9850ED9E50B6053
:101E300018F50A850C82850D83E0F5D9A385820CFF
:101E400085830D150AE50A70EA75E195EE2463F8BD
:101E5000E43FF97A007B00A2AFE433F50BC2AF8810
:101E6000828983E0FCA3E0FDEC4D603A888289839F
:101E7000E0FAA3E0FB8A828B83E0FCA3E0FD88828A
:101E80008983ECF0A3EDF08A828B83E4F0A3F088E1
:101E9000828983E0FCA3E0FDEC4D700A888289838F
:101EA000A3A3E4F0A3F0E50BA2E092AF12123090EE
:101EB00004B6E004F0EE2463121DE3F8A3E0F9E8B1
:101EC000496064EE2463121DE32402F8A3E03400A9
:101ED000F988828983E5822402F50CE43583F50DC7
:101EE000E0F50BA3E0F50EEE2462121DE364017031
:101EF000369061D0E0F8121DE060047C0480027C22
:101F0000007480C398FA95E0FBE50B2CF8E43400EC
:101F1000F9E82402F8500109C3EA98EB99A2D265C6
:101F2000D0334003021E069004B6E0604D9004B723
:101F3000E0F89004B6E0C398500C74026509703A5A
:101F40009004B8E060348E828F83A3A3A3A3E085BE
:101F50001882851983121F8A7402121758E8121FFB
:101F60008A9004B5E028F07402121772AA18AB190F
:101F700079011208D69004B6E4F0E508A2E092AF29
:101F800074041217227F07021894F0A3E4F090045F
:101F9000B6E0F8228521878522C622C0E074EB12C4
:101FA00018D4A2AFE433F508C2AF759B00906182EC
:101FB000E0A2E05030E591A2E0502A7591FE740154
:101FC0006521702112212E120D4A12211C1219A214
:101FD0001225DC7404121722E964017005790112DC
:101FE0000D92121C5A906182E0A2E5505DE591A22B
:101FF000E550577591DF900374E064076005E06475
:1020000008702F12212E74016521703E120D4A12A4
:10201000211C1219A21225DC7404121722E9640192
:1020200070057901120D927901EEFAEFFB121DEBAA
:102030008018E0640D7013900396E004F06428703B
:1020400002E4F07A00E0F9120E10906182E0A2E65C
:1020500040030220F1E591A2E640030220F17591D0
:10206000BF900374E064057008120D32120D3E80BB
:1020700003120D38752100120D9EE9900375F07959
:1020800000120D92120B227A017B00900373E0F98B
:10209000121200907803E06442705690051EE0141E
:1020A000F0704EC2AF1220A800782AD0E0F618D007
:1020B000E0F6E59F5407F87005750DFF8003750D78
:1020C0007FC4C0E07829E6F50A08E6550DF50B74E3
:1020D0000B780A1216EAD0E0250AF8906270E0A2A6
:1020E000E740F8E8C333906272F0906270E0D2E0AB
:1020F000F0906181E0A2E35009E5E9A2E3500375A5
:10210000E9F7A3E0A2E75009E591A2E75003759132
:102110007FE508A2E092AF7F080219338E828F8399
:10212000E0F8A3E0C82416F582E438F58322900392
:10213000A2E0F875F00BA4C8AAF02AF974A428FE4E
:10214000740339FF22C0E0C0D0C082C08390618395
:10215000E0A2E05009E5BFA2E0500375BFFEE0A297
:10216000E15009E5BFA2E1500375BFFDE0A2E250D6
:1021700009E5BFA2E2500375BFFBE0A2E35009E509
:10218000BFA2E3500375BFF7E0A2E45009E5BFA288
:10219000E4500375BFEFE0A2E55009E5BFA2E550AA
:1021A0000375BFDFE0A2E65009E5BFA2E650037564
:1021B000BFBFD083D082D0D0D0E032C0E074F21262
:1021C00018D4E5A7A2E6500FE5A1A2E6500953A74F
:1021D000BF75A1BF12220FE5A7A2E5500CE5A1A291
:1021E000E5500653A7DF75A1DFE5A7A2E15009E599
:1021F000A1A2E1500375A1FDE5A7A2E2500CE5A163
:10220000A2E2500653A7FB75A1FB7F0102193374AC
:10221000F71217E8752101900374E0640670151237
:102220000CA88A828B83A3A3A3A3A3A3E0FAA3E0B1
:10223000FB120D20A2AFE433FED2AF90037AE0642C
:102240000170187A207B00900373E0F912131A7A58
:10225000207B00900373E0F9121206906182E0D2B5
:10226000E6F090051BE0602185C622801690037978
:10227000E064017008E5C654F84405F5C653BEFC99
:10228000121F947401652160E4EEA2E092AF7F0218
:10229000021894008E238F24858228858327851831
:1022A00082851983E0CEA3E0CF852882852783EB42
:1022B000C9EAC8EDCBECCA75F010C3E833C8E933FE
:1022C000C9EA33CAEB33CBC3EA9EF526EB9FF5256B
:1022D000B35004AB25AA26EC33CCED33CDD5F0DAE0
:1022E000AE23AF242274E91217E874FA12170CEA2D
:1022F000FEEBFF8C0A8D0B120D56EAF8EBF9ECFAA7
:10230000EDFB8E828F83121606900374E024F7C3D0
:102310009405500675140102244C120CA88A088BEF
:1023200009EA45097003022449EEFCEFFDAA18AB47
:1023300019120D50850882850983A3A3780C121504
:10234000D09080EA780C1215AA85188285198378B6
:10235000101215D09080EA78101215AA780C791016
:102360001213E3501F780C791012158290810678B1
:102370000C1214034047850C14850D15850E168527
:102380000F1780459081068510148511158512164A
:102390008513177814790C121582781412140350CF
:1023A0001C751400751500751600751701781479E1
:1023B000101215827814790C121549800C751401CD
:1023C0007515007516007517007409781412152A12
:1023D000908152780C1215D07814790C1214A285C1
:1023E0000882850983A3A3A3A3A3A312246A1216B8
:1023F00081880C890DE4F50EF50F7814790C12150F
:1024000049740412175812246A121681E8FA8A0CC9
:10241000E4F50D7814790C1213E350077814790C55
:10242000121582900374E06408600AE06406600597
:10243000E06405702090810A7814121403501690FD
:10244000810E781412155C800C75140075150075DA
:102450001600751700850A82850B8378141215DF24
:1024600074061217227F10021894E0F8A3E0F97A9C
:10247000D07B032274F71217E8120D68900519E05B
:1024800064017010906245E4F0A3F053F4F343FE4E
:102490000C5390F3120D0EE5C654B84441F5C6E551
:1024A0009E5447644170F8906185740FF090051751
:1024B000E0F47002A3E0604E900518E0600814603C
:1024C0001B14602E8040750801750900900517E007
:1024D00078081216F9E508F45280802A750801750B
:1024E0000900900517E078081216F9E508F45290F3
:1024F0008014750801750900900517E07808121618
:10250000F9E508F452A079007F0202189474F712DA
:1025100017E8E9FEEAFF120D6874016E700C7A800C
:102520007B00900373E0F91212009028B8E493F452
:102530006008E493F9120B16800953C6B8E59E545F
:102540004770FA120D14900519E064017003120B24
:102550003A900517E0F47002A3E0604B900518E094
:10256000600814601A14602C803D7508017509001C
:10257000900517E078081216F9E508428080287562
:102580000801750900900517E078081216F9E508AA
:1025900042908013750801750900900517E07808CE
:1025A0001216F9E50842A0120CA88A088B09A8089F
:1025B000A909E8496014E5E170FCE82414F582E417
:1025C00039F583E0F46003E0F5E174016F700A7A95
:1025D00001900373E0F912128A02250874F11217B0
:1025E000E88A088B098C0A8D0B9080EA780812150E
:1025F000AA740F121758780C1215D09080EA780C34
:102600001215AA7808790C1213E3908106501078FD
:1026100008790C12158278081214034014800E7881
:102620000C7908121582780C121403500479018079
:102630000279007F0802189474ED1217E88A088B5B
:10264000098C0A8D0B9080EA78081215AA7413126F
:102650001758780C1215D09080EA780C1215AA78C9
:102660000C79081213E340117808790C121582AA2C
:1026700008AB09AC0AAD0B8022751000751100750E
:1026800012007513017810790C12158278107908F0
:10269000121549AA10AB11AC12AD137F0C0218949D
:1026A0009080EA78081215D08A828B8378081215F8
:1026B000BD7F0402189474F51217E88C828D83781C
:1026C000081215D08A828B83780812159612270E6D
:1026D000C3E09CF0A3E09D122700402290812E7859
:1026E000081215D08A828B83780812156F8A828B24
:1026F00083A3A3A3A3E02420F0A3E0344EF080A0A2
:10270000F088828983C3E09420A3E0944E22EA24D7
:1027100004F8E43BF98C828D83A3A3A3A3E0FCA37C
:10272000E0FD888289832274F51217E8E9FE90049F
:10273000D1E0FAA3E0FBEE29F8E433F9749128F52F
:1027400082748039F583E02AF508A3E03BF5097827
:102750000812198F90812A1215EE12229474021217
:1027600017228A088B098C0A8D0B741078081215B1
:1027700011AA08AB097F0402189474F11217E88AB1
:102780000C8B0D8C0E8D0F74111217581219A67424
:1027900011121758E02401F508A3E03400F509E40C
:1027A000F50AF50B780C790812142290811A780832
:1027B0001215D0780C7908121422AA0CAB0DAC0EAD
:1027C000AD0F12229474021217228B09EA45096098
:1027D000047A0180027A00EC2AFCE43DFD741312B5
:1027E0001758E0F8A3E0F9E8FEE9FFECF8EDF97A14
:1027F000717B0212168188088909E4F50AF50B8EAF
:10280000828F8378081215DFECF8EDF97A717B027C
:102810001216818A088B09740578081216F98E82BF
:102820008F83A3A3A3A3E508F0A3E509F07F080223
:102830001894C082C083E9906000F0D083D08222D7
:10284000C0E074F21218D4A2AFE433FED2AFE5892F
:10285000A2E1500312113A758900C2C5751A00EE43
:10286000A2E092AF7F01021933C0E074F21218D4D3
:10287000A2AFE433FED2AFE58BA2E0500312113ACF
:10288000758B00C2E880D5C0E0C0D0E8C0E0E9C0E8
:10289000E0A9A8D2AFC2C7751A00E9A2E7E433F8ED
:1028A000E9A2E792AFD0E0F9D0E0F8D0D0D0E032A2
:0628B000C2AF020000228D
:1028B800FFFFFFFFFFFFFFFFC082C083E99015FE07
:1028C800F0D083D08202013274F612177CE99002AC
:1028D800E6F0900346E0F5087509007402780812DE
:1028E80016F9AA08AB091212729002E71232569032
:1028F80002E7123643606F900346E075F003A4FACE
:10290800ABF012127290030412325690030412367E
:1029180043700B9002E71236141212788048900325
:10292800041245577AFF7BFF1210B67A0080198A85
:1029380008750900740278081216F912405074FFDD
:10294800122A83E4F0A3F00A900346E0F8EAC39859
:1029580040DD79051207689002E6E0F912065A7A16
:10296800E67B071209EA0240F374F412177C8A081E
:102978008B09EB548060479002E6E0F91211E88A6F
:102988000A8B0BAE0AAF0BEE4F602A8E828F83E064
:1029980064B0701A120774E960148E828F83A3A33F
:1029A800A3A3E0F9EE2405FAE43FFB12074AEEFA86
:1029B800EFFB1211D6AA08E5096480FB80047A00AF
:1029C8007B00022BA674F212177C74FB12170CEA18
:1029D800FEEBFFEE4F60457403121758EEF0A3EFBD
:1029E800F0851882851983ECF0A3EDF074021217B4
:1029F80058E9F0AA18AB19120654E9F5087075746D
:102A080013121758E0F50AA3E0F50BE50A450B6029
:102A1800638E828F83122FDFEE4F70057508028058
:102A2800537A067B001212728A0C8B0DA80CA90D22
:102A3800E8497005750813803B88828983E4122A67
:102A480083EEF0A3EF122B9FE50AF0A3E50BF090BD
:102A580002EA122B989002EA6017E0FCA3E08003D8
:102A6800EAFCEBFD8C828D83122B9870F38C828D9F
:102A780083123C6BA90874050247D7F0A3124539A5
:102A8800A32274F212177C8908890C750D0074034F
:102A9800780C1216F9850C0A850D0B9002E9F09056
:102AA80002E7123A76122B96602E1212787900807D
:102AB8001D890C750D007402780C1216F99002E746
:102AC800123F0F8882F583A3A3E4F0A3F0099003D3
:102AD80046E0F8E9C39840D9900346E0FA850AF041
:102AE800A4CAA8F0850BF0A428FB1212728A0C8BDA
:102AF8000DAE0CAF0DEE4F7003022B8C900346E029
:102B0800FC850AF0A4CCA8F0850BF0A428FD790078
:102B18001211C47C0080318D0C750D007403780C83
:102B28001216F98A828B83122B9188828983E4F0AA
:102B3800122B9EA3A3F0A3F00DEDC3950840D8EE89
:102B4800250AFEEF350BFF0C900346E0F8ECC3981E
:102B580050288C0C750D007402780C1216F990022E
:102B6800E7122B91E82402500109FAE9FB8A828BCB
:102B780083EEF0A3EFF07D0080BFE5089002E9F056
:102B88007900800279130247DA123F13F922A3A3CE
:102B9800123618EA4B22A3124539A3A3A3227F04B5
:102BA80002184EC082C0839002EA123643601C8825
:102BB800828983A3A3E06A7003A3E06B8882898378
:102BC80070E8A3A3A3A312361480047A007B000242
:102BD80028C974F212177C74FD12170CEAFEEBFF79
:102BE800851882851983E4F0A3F0740212175874CB
:102BF80001F012364070141209241212729002ED7C
:102C08001232561236407003022D6C123356EE24DF
:102C180004F50AE43FF50B850A82F583E024FE609B
:102C28003C24FC607424FE607E24FE7003022CBCED
:102C380024FE7003022CC924FE7003022CD624FE45
:102C48007003022CE324FE7003022CF024FC7003B2
:102C5800022D1124FE7003022D29022D651209246C
:102C68009002EFEAF0A3EB122D781203B4E96003A7
:102C7800022D659002EF1219A68E828F83A3A3A35B
:102C8800A3A31245578508828509831236141207B3
:102C9800327402121722022D65AC18AD19EEFAEF44
:102CA800FB12077A022D34AC18AD19EEFAEFFB12BD
:102CB80007808078AC18AD19EEFAEFFB1207868012
:102CC8006BAC18AD19EEFAEFFB12078C805EAC18EE
:102CD800AD19EEFAEFFB1207928051AC18AD19EE60
:102CE800FAEFFB12079880447402121762880C8965
:102CF8000D780C12198F7402121772EEFAEFFB128C
:102D0800079E74021217228023AC18AD19EEFAEF51
:102D1800FB1207A4E9F870167402121758E4F08041
:102D28003CAC18AD19EEFAEFFB1207AAE9F8E86017
:102D38002C8E828F83A3E064146022850A82850B1F
:102D480083E09002EFF0851882851983123614907B
:102D580002F0123256E8A3122D781203AEEEFAEF03
:102D6800FB1207087402121758E0F974030247D7D8
:102D7800F07CEF7D0285088285098312361822745B
:102D8800E812177C74FA12170C7404121758ECF036
:102D9800A3EDF08A128B13EA2405F50EE43513F53A
:102DA8000FEA2402F510E43513F511851082F58336
:102DB80012361412049E8A0A8B0B7508007C037D58
:102DC8000079007AEF7B021211C4E50E2402F51691
:102DD800E4350FF5177402121762880C890D780C08
:102DE80012198F850E82850F83A3A3A3A3E0F50C88
:102DF800750D00780C12198FE50E2405F50CE435D5
:102E08000FF50D780C12198F8516828517831239E4
:102E18001B12067274061217228A0C8B0DE50C45DC
:102E28000D7003022FA88020851882851983E088F9
:102E3800828983F00508851882851983A3E0C0E09C
:102E4800122FE9D0E0F00508E50A24FBFAE50B3477
:102E5800FFFBC3E5089AE49B4003022FA87E007F8E
:102E680000851282851383A3A3A3A3E0F50978093B
:102E7800121993E4F514F515781412198F7514ECDA
:102E8800751502781412198F9002ED1219A674099B
:102E98001217581219A6E50A24F9F9AC0CAD0D85DC
:102EA80010828511831236141207CE740912172264
:102EB800E96003022F49850E82850F83A3A3A3A38C
:102EC800A3A3A3E0F89002ECE0687075E0F5148E17
:102ED80015781412198F124554850E82850F83A315
:102EE800A3A3A3A3A3A3A31236141211BE740212A0
:102EF8001722E9604C9002F0123643703BE4F51457
:102F0800781412198F7CFF7DFF790785108285114F
:102F180083123614120744740212172212364970AB
:102F280017850E82850F831246F174041217581202
:102F3800400312394C022FDC850C82850D83122F39
:102F4800DFA818A91988148915781412198F740420
:102F58001217581219A685168285178312324C1239
:102F6800067E74041217228A0C8B0DEE4F70030232
:102F78002E25122FE9EE122FF4123902EF122FF438
:102F8800F8A3E03400F9E50C450D6003022E308803
:102F980082898374FFF00508122FE974FFF0050891
:102FA800E508601A1313543F12325C1203C0E9603B
:102FB800099002F012361412123079008016850E2C
:102FC80082850F831246F1740412175812400312B7
:102FD8003C6B790A0238D5A3A3A3A3E0FEA3E0FFC4
:102FE80022A8089002F0E02812390222F005080809
:102FF8009002F0E0282274E812177C74FA12170C79
:1030080074021217581232567404121758ECF0A3AF
:10301800EDF07402121758E024051238EBE0F50CB5
:10302800A3E0F50D7402121758E02402F510A3E08E
:103038003400F511851082F58312361412049E753A
:103048000800750900EA24FCFEEB34FFFF80080540
:103058000CE50C7002050DA808C3EE98EF9400501B
:1030680003023208A818A919880E890F780E1219B8
:103078008F851482851583A3A3A3A312455B121918
:103088008FE5142405F50EE43515F50F780E1219A1
:103098008F85148285158312324A120672740612BD
:1030A80017228A0E8B0FEA450F7003023208EA24B2
:1030B80004F516E4350FF517851682F583E0F50C4F
:1030C800A3E0F50D8518828519831245578A828BEE
:1030D80083A3A3A3E0F98510828511831236141205
:1030E8000660E9F5096003023208740212175812E3
:1030F8003912F5097809121993E4F512F5137812C3
:1031080012198F7512EC751302781212198F90022A
:10311800ED1219A674071217581219A6EEF9AC0E7B
:10312800AD0F8510828511831236141207CE7409EB
:10313800121722E9F5096003023208E508703FE436
:10314800F50EF50F780E12198F7CFF7DFF79098532
:103158001082851183123614120744740212172242
:10316800123938700D740412175812323F7911024F
:10317800323C9002ECE024029002F0F080149002BD
:10318800F0E0FA9002ECE0790024025001096A4963
:103198007072A8089002ECE0FAE82AFAE43400FB1E
:1031A800EE9AEF9B405A851682851783E0C0E0901F
:1031B80002F1122FEED0E0F00508851682851783FC
:1031C800A3E0C0E0089002F1122FEED0E0F005086D
:1031D8009002EC12455B12198F124554A808123858
:1031E800DF1211AC74021217229002ECE02508F5E8
:1031F8000874FF650C700474FF650D600302305796
:10320800E508601F9002F0E0F5F0E5088412325CF2
:103218001203C6E960099002F112361412123079CD
:10322800008011E509700375090A74041217581211
:10323800323FA9090238D5123A7AE50CF0A3E50D18
:10324800F022A3A31247E6AA0CAB0D22A3A3EAF02F
:10325800A3EBF0229002EFF07CEF7D0285108285CF
:1032680011831236182274EC12177C74FC12170C96
:10327800123D7B740212177212360E1206788A0CEF
:103288008B0DEA450D7003023346123356A818A970
:103298001988108911781012198F7CFF7DFF790B1E
:1032A800850882850983123614120744740212179E
:1032B8002212344C700C850A82850B83123949021C
:1032C80033538E828F83A3A3A3A3E0F5127812123F
:1032D8001993E4F512F513781212198F7512EF7518
:1032E8001302781212198F781012198F7409121795
:1032F800581219A67409121758E0F9AC0CAD0D85CF
:1033080008828509831236141207CE74091217220F
:10331800E9FE70157CEF7D028508828509831236E7
:10332800141203CCE97009802074166E70027E00B6
:103338009002F0123614121230EE7004800B7E01E7
:10334800850A82850B83123C68EEF9023C7DEE24E7
:1033580002F508E43FF5092274EC12177C74FC129C
:10336800170CEAFEEBFF8C0E8D0FEE2405F508E432
:103378003FF509740212177285088285098312368F
:10338800141206788A0C8B0DEA450D700302343C42
:10339800EE2402F50AE43FF50BA818A9198810894C
:1033A80011781012198F7CFF7DFF790D12360E12DD
:1033B8000744740212172212344C700B8508828558
:1033C8000983123949807A8E828F83A3A3A3A3E04D
:1033D800F5127812121993850882850983A3A3121E
:1033E80019A67512EF751302781212198F78101238
:1033F800198F74091217581219A67409121758E070
:10340800F912360A1207CE7409121722E9FE700F54
:103418007CEF7D0212360E1203D2E9700980207407
:10342800166E70027E009002F0123614121230EE00
:103438007004800B7E01850882850983123C68EE42
:10344800F9023C7D123653F510A3E0F511EA451157
:103458002274E812177C74FE12170C8A168B178CCC
:10346800148D15EA2405F50CE43517F50DEA240248
:10347800F50EE43517F50F850E82F5831236141212
:10348800049E8A088B09750B007C037D0079007AFD
:10349800EF7B021211C4750A00E50814F510042424
:1034A800FFF508E50934FFF50980549002EFE0FACA
:1034B8009002ECE0F8EA28F8E43400F9E50898E529
:1034C8000999500D9002EFE0F8E510C3989002ECCE
:1034D800F0E0F512751300781212198F1245549006
:1034E80002F0E02AFAA3E03400FB1211AC740212D5
:1034F80017229002ECE0F89002EFE028F0050A8528
:103508000C82850D83A3A3123F1F40030235EF9061
:1035180002EFE0C39508E4950940030235EFAE0ACF
:10352800EE2EFEE433FF12362EAC18AD1912456F9D
:10353800E439FB1206788A128B13AC12AD13EC4DEA
:10354800701B750B0112361E123C6C9002F0122B88
:10355800986003121230A90B74020238D7851682BC
:10356800851783A3A3A3A3E0F50B780B121993E4A3
:10357800F512F513781212198F7512EC751302787B
:103588001212198F9002ED1219A674071217581209
:1035980019A6A910850E82850F831236141207CE3C
:1035A8007409121722E9F50B709B9002F01236434A
:1035B80060030234B3E4F512F513781212198F7C04
:1035C800FF7DFF790F850E82850F8312361412074F
:1035D80044740212172212364960030234B31236B9
:1035E8001E12394D0235607CEF7D02850E82850FF3
:1035F800831236141203D8E96003023553790002A6
:103608003560AC0CAD0D850A82850B831236182205
:10361800E0FAA3E0FB2212362EE0FAA3E0F9EA85ED
:10362800148285158322850C82850D83E02EF8A3EC
:10363800E03FF988828983229002ED1246F5E84935
:1036480022123653F8A3E0F9E849229002F0EAF092
:10365800A3EBF09002F0E02274E812177C74FA12DF
:10366800170C74041217581232568C168D177404DE
:10367800121758E02405F50EA3E03400F50F740482
:10368800121758E024021238EB12361412049E8ADC
:103698000A8B0B7F007E00A818A919880889097869
:1036A8000812198F850E82850F83A3A3A3A3E0F5C3
:1036B800088E09780812198FE50E2405F508E435F7
:1036C8000FF509780812198F850E82850F83A3A339
:1036D80012391B12067274061217228A0C8B0D807F
:1036E8002912390CF00F12390CF00F9002EC123C31
:1036F8005712198F124554EFF81238DF1211AC74B3
:10370800021217229002ECE02FFFE50C450D700322
:1037180002379B851882851983123D8DA3A3A3E0E8
:10372800F9851482851583123614120660E9FEE5C0
:103738000C2404F510E4350DF511EE7050740412E4
:103748001758123912F5087808121993E4F508F594
:1037580009780812198F7508EC750902780812198A
:103768008F9002ED1219A674071217581219A6E5C0
:103778000A24FAF9AC0CAD0D85148285158312362E
:10378800141207CE7409121722E9FE60391239287B
:10379800123C6BEF70030238C29002F0E0F5F0EFD4
:1037A800849002EFF07CEF7D0285148285158312E8
:1037B80036141203DEE960099002F112361412126F
:1037C8003079000238D58F08EF703BE4F512F51315
:1037D800781212198F7CFF7DFF7911851482851567
:1037E80083123614120744740212172212393870E1
:1037F8000912392812394C0238D59002ECE0240419
:103808009002F0F080359002ECE0F89002F0E0FAD7
:10381800E82404FCE43400FDEC6A4D60030237A19F
:10382800E50A24FAFAE50B34FFFBE50828F8E43446
:1038380000F9EA98EB9950030237A18510828511A7
:1038480083E0C0E09002F1E02FF8A3E03400888222
:10385800F583D0E0F00F851082851183A3E0C0E0E6
:103868001238F9D0E0F00F7402121762880889093B
:10387800780812198F74021217581219A6850E8229
:10388800850F8312324A12067E74041217228A0C9C
:103898008B0DEA450D70030236E97402121758E0E1
:1038A800C0E01238F9D0E0F00F7402121758A3E004
:1038B800C0E01238F9D0E00236F1EE70027E0A85D7
:1038C8000E82850F8312392E123C6BEEF9740612A4
:1038D80017227F1002184E9002F1E028FAA3E03474
:1038E80000FB22F514A3E03400F515851482F58356
:1038F800221238FD229002F1E02FFAA3E034008A68
:1039080082F583221238FD74FF22123A7AA3A3A308
:10391800A3E0221247E6850E82850F83123618220D
:103928008510828511831246F585168285178322B4
:103938009002F1EAF0A3EBF09002F11246F5E849A3
:1039480022123C71E8F0A3E9F079112274EA121707
:103958007C74FE12170C8A088B098C128D13EA24CA
:1039680005FEE43509FFAC18AD198E828F83123637
:10397800141206788A0C8B0DEE2406F50EE43FF53A
:103988000FEA450D7003023A4CE5082402F50AE4F3
:103998003509F50B8A828B83A3A3A3E0A2E55028FF
:1039A8008518828519831236141207C88A108B115C
:1039B800EA45116020791212360A85108285118332
:1039C80012177AE9F50C707F850E82850F83E06007
:1039D8000979528011750C0E806D850882850983DE
:1039E800A3A3A3A3E0F9E4F508F509780812198F51
:1039F8008E828F83A3A3E0F508780812198F8E8230
:103A08008F83A3A3A31219A68E828F831245571200
:103A1800360E1207D47406121722E9F50C701185B8
:103A28000E82850F83E0702D12360E1203E4802576
:103A38007416650C7011750C007418121758123A28
:103A480076E48010750C011246ED85128285138389
:103A5800E8F0A3E9F0850E82850F83E06004790021
:103A68008002A90C74021217227F0E02184E123A15
:103A78007A22E0F8A3E0F58388822274EC12177C9E
:103A880074F712170C8A0A8B0B8C108D11EA240517
:103A9800FEE4350BFF750C00AC18AD198E828F83D0
:103AA8001236141206788A088B09EA45097003024F
:103AB8003C42E50A2402F50A5002050B8A828B83F0
:103AC800A3A3A3E0A2E5502F851882851983123697
:103AD800141207C88A0C8B0DEA450D604F7912AC99
:103AE80008AD0912360E850C82850D8312177AE906
:103AF800F50C6003023C45850A82850B83E0F508D6
:103B0800A3E0F509AA08FB1207BCEA4B70197AFF73
:103B18007BFF1207BCEA4B7003023C388A828B8316
:103B2800E508F0A3E509F07508008008750C0E0299
:103B38003C4505089002E9E0F8E508C3984003020F
:103B48003C3885080E750F007403780E1216F98A32
:103B5800828B83A3A3E0250EF8A3E0350F12400C57
:103B680070D08E828F83123C601232568E828F8381
:103B7800A3A3123C60123254EE2404F508E43FF586
:103B880009850882F583E088828983A3A3A3A3F02B
:103B9800A3E4F0EE2405F50EE43FF50F850E82F55B
:103BA80083123C60A3A3A3A31232547512077513A2
:103BB80000781212198FEEFCEFFD740412176A12C6
:103BC80011AC7402121722E4F512781212198F85BB
:103BD8000882850983E0FC7D00791712360E1207EA
:103BE80044740212172274071217581232567407B7
:103BF800121758E0FA4B603D850882850983123C0C
:103C08005712198F850E82850F831245571211ACF2
:103C18007402121722740212177212360E1203EA75
:103C2800E9602674071217581236141212308019D8
:103C3800750C098008750C118003750C011246ED8E
:103C4800851082851183123C6BA90C74098028E0C9
:103C5800F5087509007808221236188882898322A7
:103C6800123C71E8F0A3E9F022E0F8A3E0F9850E30
:103C780082850F832274041217227F0C02184E7457
:103C8800EC12177C123D7B751000EE2402F50CE453
:103C98003FF50D850C82F5831236141207BC8A088D
:103CA8008B09EA45097003023D5F850A82850B830B
:103CB800E064016003023D54AC08AD09AA0AAB0BED
:103CC8001207B0E9606E850882850983122FE1EE3C
:103CD8002406F50AE43FF50B8E828F83A3A31219FD
:103CE800A68E828F83A3A3A3A31219A6850A828511
:103CF8000B831219A679188E828F83123D8D123686
:103D0800141207D47406121722E9F8741668700B97
:103D1800850A82850B83E4F0A38014E860128E8202
:103D28008F83123614850E82850F83EAF0A3EBF099
:103D380088108018780E12198FAC08AD09EEFAEFCA
:103D4800FB1207B67402121722E9F510AA08AB098C
:103D58001207C2E510700E850C82850D8312361489
:103D68001203F08009741665107003751000A9100D
:103D7800023C82EAFEEBFF8C0E8D0FEE2405F50A5D
:103D8800E43FF50B221247E6850C82850D832274E9
:103D9800EA12177C7508007509007E007F00750A15
:103DA80000EC2402F510E43DF5118035EC6508704F
:103DB80003ED65096003023E4C88828983A3A3E072
:103DC8006A7003A3E06B707C88828983A3A3A3A392
:103DD8001246F1EE28FEEF39FFEA28FAEB39FB0527
:103DE8000A123F1C503A850A0C750D007403780CB2
:103DF8001216F9851082851183123F0F12400C604C
:103E08001FE508450970A58C088D098882898312E9
:103E18002FDF88828983A3A3E02EFAA3E03F80BE28
:103E2800E50AC394025003023F0A750800750900A9
:103E3800EE4F6010EEFAEFFB12122A8A0E8B0FEA91
:103E4800450F70057900023F0C750B00023EDF85B7
:103E58000B0C750D007403780C1216F98510828509
:103E68001183E0250CF50CA3E0350DF50DE50C24C8
:103E780006F514E4350DF515851482F58312401105
:103E88006042E50C2404F512E4350DF51385128221
:103E9800F5831219A6E50E2508FAE50F3509FB1278
:103EA80011AC7402121722851282851383E025084B
:103EB800F508A3E03509F5098514828515831236BE
:103EC80014121230E50B600D7C087D007900AA0CF5
:103ED800AB0D1211C4050BE50BC3950A5003023E46
:103EE800578510828511831246F188828983A3A39E
:103EF800A3A3A3A3E50EF0A3E50F122B9FEEF0A357
:103F0800EFF07901023A71123F1322E0250CF8A371
:103F1800E0350D229002E9E0F8E50AC3982274F032
:103F280012177C8A0E8B0F8C0A8D0B750D00750C81
:103F38000080507916EE2406F508E43FF5098E82D4
:103F48008F83A3A31219A68E828F83A3A3A3A31280
:103F580019A68508828509831219A6850E82850F00
:103F680083A3A31236141207D47406121722E9F594
:103F78000D7416650D706C850882850983E4F0A3BD
:103F8800F0050C9002E9E0F8E50CC3985066AA0C1D
:103F98008A08750900740378081216F9850A82855B
:103FA8000B83A3A312405BE8FEE9FF8E828F831286
:103FB80040116040EA2401F508E43400F509900254
:103FC800E9E065087002E509601488828983A3A383
:103FD800A3A3A3A3A3A31236436003023F3B79180C
:103FE800023F3DE9609B1246ED74101217581240CB
:103FF80003123C6BA90D7F0802184EE0FAA3E0F506
:10400800838A8222F9888289831247E6EC4D2274DA
:10401800F612177C7C0080010C900346E0F8ECC394
:1040280098501E8C08750900740278081216F91247
:104038004050E06A7003A3E06B70DDE8FAE9FB80AA
:10404800047A007B000240F39002E712405B88820A
:10405800898322E02508F8A3E03509F92274F212D1
:10406800177C8A088B09750A0080278E828F83A3A4
:10407800A3A3A3122B9660031212307C087D00794B
:1040880000EEFAEFFB1211C48E828F83E4F0A3F0E6
:10409800050A123F1C5027850A0C750D0074037819
:1040A8000C1216F9850882850983A3A3E0250CFE66
:1040B800A3E0350DFF8E828F8312364370AD8508DD
:1040C8008285098374FFF0A3F00247DA74F61217A9
:1040D8007C12076E8A828B83E582458370067A009C
:1040E8007B008007A3A3A3A31236147F0202184EF5
:1040F80074E812177C74FB12170CE985188285196D
:1041080083F08A168B17ECFEEDFF7510008E828FF8
:1041180083A3A3A3E0A2E4502D741D1217581236EE
:10412800141207C88A828B83E5824583700302458F
:104138002F790AEEFCEFFDAA16AB1712177AE9F5EC
:10414800106003024532741F121758E0F508A3E007
:10415800F5097421121758E0F50AA3E0F50B74234A
:10416800121758E0F50EA3E0F50F8E828F83E064F6
:104178000260030244D0A31246F1850882850983B0
:10418800A3858212858313EE2406F50CE43FF50D12
:104198008882898312456FF514E439F5157814126D
:1041A8001A19010000280128D24107000228974265
:1041B800032805420029C6430129F14302299243F5
:1041C8000329C64304296A44D044E50E450F600319
:1041D8000244CB850C82850D831246F1E8FAE9FB8F
:1041E8008A828B83E0850A82850B8312457A1219AD
:1041F8008F8A828B83A3E0FCA3E0024454E50E453A
:104208000F60030244CB850A82850B837401F01288
:104218004564850882850983F07C007D008E828F45
:1042280083A3A3A3A3E02401FAA3E03400FB1206AE
:1042380078EA4B60408A828B83E02402F8850A8200
:10424800850B83E028F0EA2404F8E43BF9888289A6
:1042580083E085128285138312458812457A1219E4
:104268008F8A828B83A3124557E5082403FAE43525
:1042780009FB024459850A82850B83E02404F07CFB
:10428800047D007900AA12AB131211C4024532E56D
:104298000E450F60030244CB124564FEA3E0FF8580
:1042A8000A82850B837404F0EE850882850983F001
:1042B800EF851282851383F07403121772EEFAEFFA
:1042C800FB1206788A0C8B0DEA450D7003024375C4
:1042D8008A828B83A3A3122FDF7401121762880EC0
:1042E800890F780E12198F74051217581219A67CA7
:1042F800FF7DFF12067E74041217228B0FEA450F0A
:104308007033850C82850D8312455B12198F850CDD
:1043180082850D83A31219A67C027D007A6D7B81AC
:1043280012048C7404121722E9700A7401121758C7
:1043380074FFF0A3F08E828F83E064027039750CED
:1043480002750D00780C12198F8E828F83A3124587
:1043580057E5082404FAE43509FB1211AC7402127B
:104368001722850A82850B83E024028009740112D2
:104378001758EEF0A3EFF07401121758124549745C
:10438800011217581245400244C5E50E450F600357
:104398000244CB850C82850D831247DFAA16AB1722
:1043A8001210C2850A82850B837402F08508828503
:1043B8000983EAF0851282851383EB0244C8E50E6F
:1043C800450F60030244CB124564F8A3E0F9850A5F
:1043D80082850B837402F0E8850882850983F0E9F9
:1043E8008512828513830244C8850C82850D831249
:1043F80036141211A6EAFAF8C3950EE4950F405C3C
:10440800E8650E450F70047A0080218518828519A9
:1044180083E0FCE50E2CFCE4350FFDC3EC98ED942D
:10442800005003E08005E50ECAC39AFAEA850A82BD
:10443800850B83F08A0A750B00780A12198F850C90
:1044480082850D83E0250EFCA3E0350FFDAA08AB9D
:10445800091211AC740212172202453275100702B4
:104468004532E50E450F705B850C82850D8312463B
:10447800F1850A82850B837407F088828983124547
:1044880041124539E0851282851383F0E82402FA47
:10449800E439FB8A828B831245498A828B831245D1
:1044A80040A3A3122B9E12454EF0E82405F85001B4
:1044B800098882898312454EA3124588A3A3A3A322
:1044C800F0806775100B8062741D1217581236142D
:1044D80012076E8A828B83E5824583604A1246F111
:1044E800880C890DE8450D603E7425121758E0F5D3
:1044F800107810121993780E12198F780A12198FE2
:10450800780812198F7407121758E0F9EEFCEFFDBE
:10451800AA16AB17850C82850D8312177A740712B9
:104528001722E9F510800375100EA91074050238DA
:10453800D7F088828983A322A3E08508828509832E
:104548002212458FF02212458FA3A3229002ED126A
:1045580047E622E0F50E750F00780E22850C82855D
:104568000D83123A7AE022E0FAA3E0F8E4C8F9EA07
:104578002822F08A828B83E0F50A750B00780A22DC
:1045880012453912458F22E0850882850983A3A345
:104598002274EE12177C74FE12170C8A088B09EC31
:1045A800FEEDFF890AAC18AD19EEFAEFFB1206789A
:1045B8008A0C8B0DEA450D700302468185188285A9
:1045C800198312361412076E8A828B83E58245831B
:1045D800700302467CA3A31246F1880E890FE845B2
:1045E8000F700302467C7414121758E0F510A3E00C
:1045F800F511E50AF50B780B12199374191217586F
:104608001219A6781012198F741B121758E0F9ACFA
:104618000CAD0DAA08AB09850E82850F8312177A97
:104628007405121722E9F50B705274FE650A604C86
:10463800850C82850D83E064027041124690FAA3CE
:10464800E0F9EAF87402687003742969702E85101D
:104658008285118312456FF50CE439F50D780C123B
:10466800198FEEFCEFFDAA08AB091207EC740212D1
:1046780017228008750B0E8003750B01A90B7402B5
:104688001217227F0A02184EA31246F588828983E0
:10469800E02274F612177C74FE12170C740C1217B1
:1046A800581246F1E8851882851983F074011217AB
:1046B80058E9F0E4F508F509780812198F75080229
:1046C800780812198F740412176288088909780803
:1046D80012198F79FE1207D4740612172274021267
:1046E80017220240F38E828F831246F522E0F8A348
:1046F800E0F92274F712177CEAFEEBFF89089003B1
:10470800041245571210C2EA5402600BA908EEFAC7
:10471800EFFB12066C800279017F0102184E74F2D9
:1047280012177C74FE12170CEAFEEBFF890A74015B
:10473800650A60147402650A60030247D57901129C
:104748000A08E960030247D5EEFAEFFB1207BCEA54
:104758004B60031207C2A818A919880889097808A4
:1047680012198F750802750900780812198F7508D3
:1047780067750981780812198F7CFF7DFF7A017BA4
:10478800001206727406121722803885088285097D
:1047980083A3A3A3A3A3A31247DFEEFAEFFB121090
:1047A800B6E4F50CF50D780C12198F74021217582F
:1047B8001219A67CFF7DFFAA08AB0912067E7404B5
:1047C8001217228A088B09E508450970BE7402127F
:1047D80017227F0602184E123A7A1247E622E0FCA8
:1047E800A3E0FD2274F412177C8A088B09ECFEED15
:1047F800FF9015FEE0F4604B7A097B001211D0EAB5
:104808004B60408A828B8374B1F0A3E412484EF067
:104818008A828B83A3A3E508F0A3E50912484EA377
:10482800EEF0A3EFF0740C1217581246F18A828B3F
:1048380083A3A3A3A3A3A3A3123C6B9015FEE0F943
:104848001211DC022BA6F08A828B83A3A3A3A322D6
:1048580074F012177C74FA12170C8909ECFEEDFF3C
:104868007508008A0A8B0B780A1219D30004107E87
:104878004A9B48B948D348EB480949214944495C0F
:104888004970499A49154A264A3D4A584A7E4A7EFD
:104898004AB049740165096003024A798E828F83A0
:1048A800E0F8C394034003024A79E8901621024ACB
:1048B80055740265096003024A798E828F8312510A
:1048C800DC901622E8F0A3E9024A557401650960F4
:1048D80003024A79124AA64003024A79E890074738
:1048E800024A55740165096003024A798E828F83F2
:1048F800E0F8C394054003024A79E8900748024A61
:1049080055740165096003024A79124AA6400302F8
:104918004A79E8900749024A55741065096003020C
:104928004A79750A10750B00780A12198F7A4A7B32
:10493800071211AC7402121722024A9F740165090A
:104948006003024A79124AA64003024A79E89007AE
:104958005A024A55740165096003024A798E828FAA
:1049680083E0901625024A55740465096003024ADB
:10497800798E828F83780C1215D090812A780C1248
:1049880014035003024A7990075C780C1215DF0271
:104998004A9FE96003024A79120624E97005121059
:1049A8007A80559007EF8061740765096003024AB1
:1049B80079750A06750B00780A12198F8E828F8313
:1049C800A3AC82AD83740212176A1211B274021278
:1049D80017227C007D00AA18AB198E828F83E0F91C
:1049E800121026E9FEC3940A4003024A9C120624C8
:1049F800E9700CEEF912108079501212F0806D7483
:104A0800F02EF582E43407F5837401804074016563
:104A180009705E124AA65059E890075B802F74010E
:104A28006509704D8E828F83E0F8C3940A5042E87E
:104A380090162480187401650970368E828F83E081
:104A4800F874F928C3940A5028E8901626F080478D
:104A580074016509701B9007EEE0F88E828F83E081
:104A68009007EEF0E87030E06401702B12106E8051
:104A7800267508188021C3EA9427EB940050157412
:104A8800026509700F8E828F83125CBC1204A4E940
:104A9800F5088003750802A9087406024DCA8E82BB
:104AA8008F83E0F8C3940222A90880031217227F9B
:104AB8000402184E74F012177C74B112170C8C0A89
:104AC8008D0B9080C87420121772740612161F740A
:104AD80020121772121026E9FF745F121758E0F5BA
:104AE80009EFC3940A4003024C3E75F006EFA4F5A3
:104AF8000874411217727A0E74202508F91212EA06
:104B0800E97009744D121758E0FE80027E00901675
:104B180021E064027005750E018003750E007408AB
:104B2800650970047422800274212508F50D7C1B28
:104B38007D007900742612176A1211C474261217A0
:104B4800727A1BA90D1212EAE9702D7440121758D7
:104B5800E024F9C3940A5020E50EF50D780D1219DA
:104B6800937427121772EEA2E0E433F9AA0AAB0B8A
:104B780012054674011217227C147D007900740C0A
:104B880012176A1211C4740C1217727A1074242541
:104B980008F91212EAE970347C1079FF740C1217C4
:104BA8006A121224E97025741C121758AC82AD835E
:104BB8007A0474252508F91212EA740C121772EE99
:104BC800A2E0E433F9AA0AAB0B12052EAC18AD1912
:104BD8007A0C74702FF91212EAE97049AA18AB1905
:104BE8001210567F00EF75F003A4F8A9F08518821B
:104BF800851983E58228F8E583125393125574606A
:104C08001D88828983A3A3E0F50E750F00780E1224
:104C1800198FAA0AAB0B1207DA74021217220FEFC8
:104C2800C3940440C0EEA2E1500C900746E0F9AAF4
:104C38000AAB0B1207E0740465097028901621E08E
:104C4800640270207A0090075AE060027A019007A7
:104C580047E06004780480027800E84AF9AA0AABC1
:104C68000B1205FA7900744F024DCA74F712177CBB
:104C7800120624E9704F9007EFE0640170151210D6
:104C88007A9007EFE4F07C0AFDF97AF07B071211BD
:104C9800C4802A750800A80874F028FEE43407FFC9
:104CA8008E828F83E06401700BA9081210808E82B7
:104CB8008F83E4F00508E508C3940A40D9795012B7
:104CC80012F012106E0256AB74F012177C74F012C8
:104CD800170CEAFEEBFF8C088D09750A0AE9600CCF
:104CE80014600914603B14607D024DC6121068E917
:104CF800F50AC3940A4003024DC6E5084509700346
:104D0800024DC6750C06750D00780C12198FEEFC55
:104D1800EFFDAA08AB091211AC7402121722024D5A
:104D2800C6750C00750E06750F00780E12198FEEF9
:104D3800FCEFFDE50C75F00EA4F8A9F0746828FAEC
:104D4800740739FB1211BE7402121722E9700B05A1
:104D58000CE50CC3940A506680CA850C0AE50AC3A0
:104D6800940A505A8049750C00AC18AD197A107520
:104D7800F006E50CA42423F91212EAE9701C7C1051
:104D880079FFAA18AB19121224E9700EEEFCEFFD98
:104D9800AA18AB1912050AE9600B050CE50CC394B7
:104DA8000A501B80C4850C0AE50AC3940A500FE513
:104DB8000845096009AA08AB09A90A121062A90ADC
:104DC80074101217227F0802184E74F412177C8987
:104DD8000975081574FF6A700374FF6B70277E00ED
:104DE800AC097A027B00EEF9121044E960037508F9
:104DF800000EEEC3940A40E8E50960537A927B10EE
:104E0800120A2C804A1209FC8A0A8B0BAE0AAF0BD5
:104E1800EE4F60387C007D00EE2405FAE43FFB8EFF
:104E2800828F83A3A3A3A3E0F9121026E9F9C39400
:104E38000A500CAC097A027B00121044750800E590
:104E480009600CEEFAEFFB12109280037508140249
:104E58004AB074F212177CECFEEDFF750815740E5B
:104E6800121758E0F50AA3E0F50B74FF6A70037493
:104E7800FF6B7021750900AC0AAD0BEEFAEFFBA9C8
:104E88000912104AE960037508000509E509C39489
:104E98000A503F80E21209FC8A828B83E5824583AF
:104EA800602D7C007D00E5822405FAE43583FBA3B0
:104EB800A3A3A3E0F9121026E9F9C3940A5013AC8E
:104EC8000AAD0BEEFAEFFB12104A75080080037565
:104ED8000814A9087F0602184EC082C08390076094
:104EE800EAF0A3EBF0900746E0FC7D007A267B0011
:104EF8001204A4900746E0F91207500259C574EE4F
:104F080012177C74EC12170C8A088B09EA240CF52A
:104F180010E43509F5118A828B83A385820C858379
:104F28000DEA2405F50EE43509F50FEA2409F50A1A
:104F3800E43509F50BEA2403FEE43509FF8A828B80
:104F480083A3A3E024FA70030251CA24FD7003026C
:104F580050EA147003024FE414601024FD70030239
:104F680050CD1470030251220251D0125CC2604429
:104F7800E0F58388821251DC880C890DE8450D60C4
:104F880033851082851183E0F50E780E121993EAA5
:104F9800240BF582E43509F583E0F9125CB60A0AB8
:104FA8000AEFFB850C82850D8312177A740112179C
:104FB800220251D0850A82850B831219A690075CBC
:104FC8001215EE1205407402121722E970030251FD
:104FD800D07901850A82850B8302519A750A00856A
:104FE8000C82850D83E0600302509A850E82850F3E
:104FF80083E0A2E0400302509A9007FA125CC56071
:105008000302509A7C0E7D007900AA18AB19121180
:10501800C4851082851183125990EA4B6010750A75
:1050280006750B00780A12198FEA2410801B125992
:105038008C1209FCEA4B70030251D0750A06750BF5
:1050480000780A12198FEA2405FCE43BFD74021269
:10505800176A1211AC7402121722850E82850F830B
:10506800E0A2E25004D2F08002C2F0A2F0E433F8E9
:10507800740C121758125B4412105CE970117A0212
:105088007B00900746E0F912120079000251D275B0
:105098000A15125CC270030251D01251F17003025A
:1050A80051D0850C82850D83E0FC79011251E21202
:1050B800177AE50A70030251D0FC790312598C1251
:1050C80059470251C5125CC270030251D01251F106
:1050D80070030251D0850C82850D83E0FC790202B1
:1050E80051C27C007D00EA2404FAE43509FB8E8273
:1050F8008F83E0F9121026E9F8C3940A400302519D
:10510800D0E508240AFCE43509FD7A0475F006E8C0
:10511800A42425F91212E40251D012598C90075B8D
:10512800E06007901624E0F9806B901621E0700487
:10513800790580611209FC8A0C8B0DA80CA90DE871
:105148004970030251D0E82404F50CE439F50D85C3
:105158000882850983A3A3A3A3A3A3A3E0A2E05085
:1051680039850C82850D83E0F508602E850A8285D5
:105178000B83A3E054027022740E121772E8240500
:10518800FAE439FBA908121026E9700E79038E8219
:105198008F8312599012053A802EAC0EAD0F850CF4
:1051A80082850D83E0F912598C12109E125CC26040
:1051B800171251F160127C0079001251E212177A2D
:1051C800800612598C121020790174141217227F4C
:1051D8000A02184EE0F8A3E0F9228E828F83E0FAE3
:1051E800A3E0FB888285098322125955F98909E8C9
:1051F80045092274F512177C74F212170CEAFE8C1A
:105208000A75F006E9A42420F508AC18AD197A0E41
:10521800F91212EAE970467C0679FFAA18AB19124E
:105228001224E97038740C121758125990EAF8E5EC
:105238000A6005EEC8488004EEF4C858F8EA6870B9
:1052480001EB6015740C121758E8F0A3E4F0AC18E1
:10525800AD197A0EA9081212E47901800279007456
:105268000E1217227F0302184E74F212177C74E68E
:1052780012170C890A8A088B09ECFEEDFF740C12D0
:1052880017727A0E75F006E9A42420F91212EAE9D9
:1052980060030253567C0679FF740C12176A1212C7
:1052A80024E960030253567470250AF50BAC18AD57
:1052B800197A0CF91212EAE96003025352AA18ABE0
:1052C80019121056E5084509701D7C0C7900AA18BA
:1052D800AB19121224E970727C0C7D007900AA18AF
:1052E800AB191211C48051AC18AD19AA08AB091238
:1052F80010508A0C8B0DA80CA90DE8497022EE4FAE
:10530800604CAC18AD197A007B00121050EAF8EB2B
:10531800F9EA4B603988828983E508F0A3E509F04A
:105328001253CFFAEE6A7001EF601FEEF04F70086B
:1053380088828983E4F0A3F0AA18AB19121056AC3E
:1053480018AD197A0CA90B1212E4790180027900C0
:10535800741A121722024EDC74F712177C7E00EEC4
:1053680075F003A4F8A9F0EC28F8ED125393E06A5D
:105378007003A3E06B7006E8FAE9FB800B0EEEC33E
:10538800940440DB7A007B000256AB39F9888289A5
:10539800832274F712177C7C00EC75F003A4F8A93B
:1053A800F0EA28F8EB125393E0F4FEA3E0F4FF8848
:1053B800828983EEF0A3EFF01253CFF4F00CECC324
:1053C800940440D50256ABE82402F582E439F5830B
:1053D800E02274F412177C74F412170CEAFEEBFF47
:1053E8008C088D099007FA125CC5704FEE4F700358
:1053F800025553EC45097003025553121068E990A1
:105408001627F0C3940A4033750B007C0679FFE534
:105418000B75F00EA4FAABF074622AFA74073BFB22
:10542800121224E960030254B4050BE50BC3940A75
:1054380040D9750A0AE50A901627F0901627E0C3A6
:10544800940A400302555375F006E0A4FB9007FA4E
:10545800125CC5705CEEFCEFFD7A0E74202BF9121D
:1054680012E47C0C7D0079FFAA18AB191211C4ACA8
:1054780018AD197A0C901627E02470F91212E47509
:105488000A0E750B00780A12198FEEFCEFFD9016C4
:1054980027E012560C1211AC74021217229007FA68
:1054A800E508F0A3E509F07900025555850B0A8057
:1054B80084E0C8240612556E60197A1B74212BF9F2
:1054C8001212E412555A2406F582E438F583E4F002
:1054D800A380D312555A240A12556E60107A1B7491
:1054E800222BF91212E412555A240A80DB12555A5B
:1054F800240C12556E60107A1074232BF91212E4E2
:1055080012555A240C80C112556312556E60307AB8
:105518001074242BF91212E4125563F582E438F55D
:1055280083E02410FCA3E03400FD7A0475F00690B3
:105538001627E0A42425F91212E4125563808990F5
:1055480007EEE060031210A41210987901740C029F
:105558004AB49007FAE0F8A3E0C8229007FAE0F806
:10556800A3E0C8240822F582E438F583125CBCEC79
:105578004D2274F412177C74F212170CEAFEEBFF3A
:10558800E9C3940A5004EE4F700479028034AC18D1
:10559800AD197A0E75F006E9A42420F91212EAE989
:1055A800F508701C750A06750B00780A12198F74B5
:1055B80002121772EEFAEFFB1211AC7402121722E4
:1055C800A908740E024AB474F412177CEAFEEBFFC1
:1055D800750800750A06750B00780A12198FEEFC1B
:1055E800EFFDE50812560C1211BE7402121722E9DB
:1055F8006004A908800B0508E508C3940A40D4791B
:105608000A024AB775F00EA4F8A9F0746228FA7471
:105618000739FB2274F712177C750800E50875F046
:105628000EA4F8A9F0746228FE740739FFEEFCEFA7
:10563800FD7A0E75F006E508A42420F91212EAE9AD
:1056480060297C067D0079FFEEFAEFFB1211C47C1D
:10565800067D0079FFEE2CFAE43FFB1211C4EE241C
:105668000CF582E43FF583E4F0A3F00508E508C3F0
:10567800940A40A89007EEE060031210A412109854
:10568800802174F712177C7E007F007C06EF12568B
:105698000C79FF121224E970010E0FEFC3940A402F
:1056A800EAEEF97F0102184E74F712177C7E00EEBD
:1056B800F9121080E9F90EEEC3940A5003E960EF7D
:1056C80080E174F312177C74CB12170C89089016BA
:1056D80027E06508701B7A017B00900746E0F91205
:1056E80012067A027B00900746E0F91212061210A1
:1056F800B075F006E508A4FF74202FFE7427121772
:10570800727A0EEEF91212EAE960030257D27C06A9
:1057180079FF742712176A121224E960030257D21C
:105728007C0E7D0079FF742712176A1211C47C1B46
:105738007D0079FF740C12176A1211C47C0C7D006D
:1057480079FFAA18AB191211C474271217727A0EAE
:10575800EEF91212E4E9FE740C1217727A1B742126
:105768002FF91212E4E9F509740C1217727A1B74F6
:10577800222FF91212E4E9F50A740C1217727A1042
:1057880074232FF91212E4E9F50B740C1217727ACC
:105798001074242FF91212E4E9F50C740C12177224
:1057A8007A0474252FF91212E4E9FFAC18AD197ABE
:1057B8000C74702508F91212E4E9F8E509450A4560
:1057C8000B450C4F48CE4EFE80027E00EEF9743534
:1057D8001217227F0502184E74F712177CE99007FA
:1057E80046F012106E0256AB74F212177CEAFEEB0A
:1057F800FF548070030258AF900746E0F91211E891
:105808008A088B09EA450970030258A87A01E50855
:105818002405F50AE43509F50BE5082404F8E43510
:1058280009F9880C890D8508828B83E0245060363D
:1058380014600624E16058805D88828983E070598D
:105848008508828B83A3A3A3A3A3A3A31219A612DB
:105858005CB68508828B83A3A31259901210327408
:1058680002121722803388828983E0641E700F79C0
:10587800008508828B83A3A312599012102C850CE3
:1058880082850D83E0F9AA0AAB0B12074A800AAA9F
:105898000812103EE9FAEA6007AA08AB091211D605
:1058A800EEFAEF6480802AEE54026028EE6402FE6D
:1058B8007C007D007A007B0012105CE960047A01AC
:1058C80080027A027B00900746E0F9121200EEFA95
:1058D800EFFB8068EEA2E050556401F508EFF5098A
:1058E8001259651210AAE96033125CC26029125974
:1058F8005D1251DCE8FEE9FFEE4F601B7C00790188
:105908001259658E828F8312177A7C007903125997
:105918006512594712177A1210B0800C7A017B0071
:10592800900746E0F9121200AA08AB09800E540449
:105938006006EE6404FA80047A007B00024EDC9074
:105948000760E0F8A3125955F58388822212595D41
:10595800E0F8A3E022E0F5838882A3A3229007FA67
:10596800125CA6E0FAA3E0FB227F0202184EC08276
:10597800C083900746E0F98A828B83A3125990125C
:1059880007E080398E828F83E0FAA3E0FB22C08291
:10599800C08374FF12170C121074E9C3940285189F
:1059A80082851983400474028002740AF0AC18AD31
:1059B800197A0179051206427401121722D083D090
:1059C8008202013274F012177C74E812170CEAFE96
:1059D800EBFF890A8C088D097C187D007900AA18CC
:1059E800AB191211C4851882851983EEF0A3EFF064
:1059F800900748E0C0E07402121758D0E0F0900712
:105A080049E0C0E07403121758D0E0F0901626E081
:105A1800C0E07417121758D0E0F0901625E0A2E005
:105A2800E433FCE0A2E15004D2F08002C2F0A2F01C
:105A3800E433F8E0A2E45004D2F08002C2F0A2F00D
:105A4800E433FAE0A2E55004D2F08002C2F0A2F0FA
:105A5800E433F50E750F00E0A2E65004D2F08002A0
:105A6800C2F0A2F0E433F50C750D00E0A2E2500498
:105A7800D2F08002C2F07415121758E054FEFEA34B
:105A8800E0FFEE4CFCEFFDEC54FDFCE828F8EC4898
:105A9800F8ED54FEF9EAFBE94BF9E8FAE954FDFBA5
:105AA8007409780E1216F9EB450F54FBFB740A784B
:105AB8000C1216F9EAF8EB450DF9E854FBFAA2F0D6
:105AC800E433F50C750D007402780C1216F9EA45EA
:105AD8000CF87415121758E8F0A3E9F0900749E09C
:105AE800601D750C10780C12198F7C4A7D0774069E
:105AF800121758AA82AB831211AC740212172290A3
:105B0800075AE06011E50A60097415121758E04455
:105B180002F07801800278007414121758E048F0F7
:105B2800900747E060047804800278007414121724
