:020000040000FA
:060000000201070220F9D5
:03002B0002233F6E
:03003B0002236538
:030043000223197C
:0300530002216F18
:10008300021F4FE5C754F84401F5C7790122000068
:100093000080FB120086B900030200F1E4791A78AC
:1000A30002B800028004F709D8FCE4791C7802B88E
:1000B30000028004F709D8FCE49001817826791CBA
:1000C3008002F0A3D8FCD9FA7AA67B1C900137787A
:1000D300E279018015E493A3AD82AE838A828B8398
:1000E300F0A3AA82AB838D828E83D8E9D9E7758288
:1000F3003B7583C57403120119758291758300746E
:100103000012011975D00075814F75188175190199
:10011300759F00020096C09FF59FE473D09F22D085
:1001230083D082C09FE493C0E0740193C0E0740263
:1001330093F59F2292039E03D403CE03FF0000B4E2
:10014300000028002800283075A000A000A000A00F
:100153000000080008E001F000100010001000107B
:10016300001000100050005000500010001000D08C
:10017300070000000000000F0001000500307507B4
:10018300001000010081FF00000000FFFFFF0202DA
:10019300025D810100004F81026781010000001DA3
:1001A300025B81010000B801026781010000011DAB
:1001B300025581010000CE01FFFF0100FF20025D17
:1001C300810100004C810267810100002F1D02574D
:1001D300810000000000025F81030000FA011700A4
:1001E300DE0BDE0BDE0BDE0BDE0BDE0BDE0BDE0BC4
:1001F300DE0BDE0BDE0BDE0BDE0BBE0DDC0DB80DF6
:1002030001E803057710020AFFFFFF005331313085
:10021300303031FEFF12012253BB0312012266BBB1
:100223000312012287BB03120122F2BB0312012234
:1002330033BC0312012254BC0312012295BC0312E6
:100243000122DDBC03120122D9A103120122ECA178
:10025300031201221DA20312012257A2031201223B
:10026300B0A203120122F7A2031201223FA3031239
:1002730001226EA3031201229DA303120122D4A320
:10028300031201221BA40312012234A4031201222C
:1002930089A403120122B7A403120122F1A40312B9
:1002A3000122888D021201228B8E02120122B88E46
:1002B30002120122098F021201222C8F0212012243
:1002C3003E8F02120122418F021201227F8F0212FE
:1002D3000122F38F021201225F9002120122279161
:1002E300021201224391021201227A910212012287
:1002F300B491021201224B92021201229D92021228
:100303000122CE9202120122FF92021201220C93C9
:100313000212012276930212012279930212012220
:10032300D09302120122D393021201220C940212DF
:1003330001220F94021201224394021201224694D5
:10034300021201229A9402120122E3940212012260
:10035300F39402120122269502120122339502120E
:1003630001223695021201229E9502120122A096C5
:1003730002120122449702120122AD9702120122B6
:10038300EB9702120122DDB502120122DAB6021244
:10039300012270B702120122BBB7021201221FB859
:1003A30002120122A9B80212012262B90212012229
:1003B30084BC0212012201BE0212012224BE0212D7
:1003C3000122FC8D03120122A18F03120122C18F8E
:1003D30003120122E290031201223591031201223A
:1003E3005C9603120122849603120122B196031232
:1003F3000122E996031201224797031201229397E0
:1004030003120122FA97031201223A9803120122DE
:10041300779803120122A598031201224F99031220
:100423000122599903120122669903120122999913
:1004330003120122A59903120122BD99031201227D
:10044300C7990312012215FF0212012223FF021290
:1004530001223BFF0212012253FF021201226AFF13
:100463000212012217D401120122C1D40112012266
:100473003DD5011201225BD60112012297D601124A
:10048300012232D70112012216D801120122D9D832
:100493000112012251D901120122DFDA01120122D4
:1004A30050DB011201220ADC01120122FCDC0112E1
:1004B30001223CDD01120122F0DD0112012222DEC4
:1004C3000112012218E0011201225AE00112012255
:1004D30078E001120122FDE001120122C1E10112C3
:1004E3000122E0E301120122559A031201226B9AC1
:1004F30003120122899A031201229A9B03120122F9
:10050300A49B03120122CF9C03120122C69D031256
:100513000122339E0312012277F0021201221BF102
:100523000212012252F102120122A9F10212012246
:10053300BEF302120122B7AC0112012268AD01120F
:1005430001227DAD0112012246AE0112012260AEED
:100553000112012236AF0112012228B00112012239
:10056300DFB001120122EDB301120122DCB5011249
:1005730001228EB60112012257B7011201229CBA41
:100583000112012246BB011201226FBC011201229A
:100593002BBE01120122CBBE0112012219BF01128F
:1005A300012258BF011201222BC0011201225FC098
:1005B30001120122ECC001120122E2C10112012247
:1005C3006EC201120122D2C301120122DEC3011243
:1005D300012219C40112012288C40112012291C50A
:1005E300011201229AC60112012261C701120122DE
:1005F300BEC801120122DCC801120122F9C801128E
:100603000122C4C901120122ECC901120122B6CC94
:1006130001120122BBCC01120122D4CE011201220C
:1006230022CF0112012292CF01120122D0CF011257
:100633000122ACD0011201226CD101120122B8D1E6
:1006430001120122BBD101120122FFD101120122A9
:1006530047D20112012286D201120122A8D201122D
:100663000122DCD2011201223FD3011201226DEBE0
:100673000212012276EB0212012284EB0212012202
:10068300D7EB02120122F6EB021201223BEC02121B
:1006930001227FED021201221AEE021201225EEE06
:1006A3000212012288EE02120122F7EE0212012247
:1006B3003DEF02120122B4EF0212012265F0021291
:1006C3000122DF2300120122802400120122DC24F4
:1006D30000120122992500120122B52600120122DF
:1006E300E72600120122162700120122C328001256
:1006F30001223A2B00120122AA2D001201229C2E64
:1007030000120122952F001201229C3100120122B6
:10071300903400120122BF3500120122C3370012A8
:100723000122D33800120122623A00120122533B04
:1007330000120122A13B00120122103C00120122EF
:10074300343C00120122853C001201222641001292
:100753000122274200120122884200120122B342E1
:100763000012012279430012012250FA02120122DF
:100773005AFA021201229FFA02120122B3FA02125A
:10078300012243FB021201226BFB02120122A6FB90
:1007930002120122CFFB0212012203FC02120122E8
:1007A30018FC0212012283FC02120122A4FC021291
:1007B3000122B8FC02120122CDFC0212012207FD24
:1007C300021201222BFD0212012276FD02120122E6
:1007D300FEFD0212012244FE0212012287FE0212D2
:1007E3000122B1FE02120122EDFE02120122A6BE77
:1007F30003120122BF7400120122A275001201220A
:100803001D7600120122587600120122A9770012E8
:1008130001223278001201224A7A00120122DC7C82
:10082300001201228E7D00120122AD7E00120122F0
:10083300067F001201224AE6021201228DE602120D
:10084300012211E702120122E4E702120122BBEAAC
:100853000212012207AF03120122B4AF03120122D5
:10086300C1B00312012200B1031201225AB10312D3
:100873000122E5B70312012248B803120122E5B8A9
:100883000312012213B90312012234B90312012204
:100893006FB9031201228FB90312012200800312E0
:1008A30001228C80031201224B81031201226382F5
:1008B300031201227D840312012229AC02120122B8
:1008C3004EAC0212012222AD021201228FAD02129E
:1008D3000122E5AD0212012281AE02120122B5AF5F
:1008E3000212012290B002120122EFB00212012281
:1008F300C0B1021201224CB2021201224FB2021203
:10090300012299B2021201220BB302120122B6B3E1
:1009130002120122D6B3021201221EB402120122D4
:100923003AB402120122B4B402120122C2B4021276
:10093300012251B502120122BAB5021201226689BF
:1009430003120122EB89031201222D8A03120122D1
:10095300118B031201227E8B03120122C28B03121D
:100963000122068C03120122338C031201225B8CB9
:1009730003120122938C03120122D18C0312012250
:10098300F88C03120122728D03120122BC8D031213
:100993000122E54300120122B24500120122A047C1
:1009A30000120122F447001201221F480012012203
:1009B300CD4800120122FD48001201222C490012E9
:1009C30001223F4900120122804900120122AC4951
:1009D30000120122FA4900120122314A00120122B7
:1009E3007D4A00120122DC4A001201226F4B0012E1
:1009F3000122594C00120122484D00120122284FB6
:100A030000120122475400120122A05400120122B5
:100A13008956001201225858001201225D58001213
:100A23000122045900120122435A00120122D65A0C
:100A330000120122245C00120122355C0012012203
:100A4300A5B10312012290B203120122D3B2031201
:100A5300012222B30312012273B303120122C4B38E
:100A630003120122585C00120122D95C00120122F8
:100A7300065D001201224F5D00120122505E00123A
:100A83000122955E00120122C15E001201223D6027
:100A930000120122BF60001201221C610012012218
:100AA3006F61001201225E6200120122F3630012E1
:100AB3000122BD6400120122CD6400120122F764F9
:100AC30000120122FA6400120122DD6500120122E4
:100AD300C86600120122756700120122D267001254
:100AE30001222B68001201228F680012012237694C
:100AF30000120122D36900120122606A001201224E
:100B0300D56A00120122316B00120122906B001290
:100B13000122B76B00120122756C00120122666E6E
:100B230000120122AF6E00120122DF6E00120122B9
:100B3300526F00120122D870001201228871001234
:100B43000122AD7100120122EC7100120122017227
:100B530000120122447200120122B4720012012217
:100B6300FE7200120122087400120122897400121D
:100B7300012269A202120122B4A202120122C0A21E
:100B83000212012294A302120122ABA30212012238
:100B9300E8A30212012219A40212012251A4021293
:100BA3000122A7A402120122BDA402120122F9A468
:100BB300021201220CA50212012233A50212012204
:100BC30067A5021201228DA602120122D7A70212E3
:100BD3000122D3A802120122F0A902120122FB7FF3
:100BE300001201221DE102120122CBE402120122B2
:100BF300FFE5021201227AF2011201223DF50112F0
:100C0300012243F50112012200F8011201225AFACE
:100C130001120122B484031201224B850312012223
:100C23000986031201223386031201226988031203
:100C330001226C8101120122A78101120122FB8B87
:100C430001120122678D01120122648E0112012219
:100C5300E99101120122CF92011201221B93011289
:100C630001223593011201227693011201227F930F
:100C7300011201222F9401120122FF940112012279
:100C8300469501120122AC95011201221E96011212
:100C93000122EEAB03120122CBAC031201220FADF2
:100CA3000312012249AD03120122E1AD0312012215
:100CB30050AE0312012259AE0312012265AE031294
:100CC30001227FAE03120122A9AE03120122D9AE83
:100CD3000312012289D50212012296D502120122A2
:100CE300B0D502120122E3D50212012221D602124B
:100CF300012286D6021201229BD602120122B2D60B
:100D030002120122C0D602120122CFD60212012200
:100D1300E4D602120122F9D60212012204D70212EA
:100D2300012210D7021201221DD7021201222CD751
:100D33000212012237D7021201225CD702120122CA
:100D430000D80212012215D8021201222AD8021257
:100D5300012244D80212012261D8021201227ED854
:100D63000212012289D80212012235D9021201226C
:100D730016DA021201223BDA0212012246DA0212C9
:100D830001225BDA021201226FDA02120122D0DAA7
:100D930002120122D6DA02120122DCDA0212012245
:100DA300E2DA02120122FADA021201222DDB021226
:100DB3000122119802120122339802120122FB9898
:100DC30002120122B59B02120122CB9C02120122C4
:100DD300EC9D02120122C69E02120122759F02128D
:100DE30001220580021201229C8002120122348119
:100DF300021201222482021201225B8202120122C8
:100E03006E8202120122DC82021201227784021214
:100E130001229E840212012240850212012275855D
:100E230002120122868502120122FF85021201228B
:100E330020860212012238860212012290870212B2
:100E43000122998902120122E98B02120122EC8C00
:100E5300021201223B8D02120122EDE30112012253
:100E6300EAE401120122D5E501120122DFE50112B4
:100E7300012201E6011201220DE6011201225FE7C0
:100E8300011201228EE701120122BEE801120122A2
:100E930000E9011201222CEA0112012202EB0112E4
:100EA300012254EB01120122B3EB01120122EAEBFE
:100EB3000112012225EC01120122C0EF01120122CD
:100EC300D9EF011201225BF00112012269F0011234
:100ED3000122BEF001120122CCF00112012239F1EC
:100EE30001120122ABF101120122F1F101120122DF
:100EF3009DB903120122C2B90312012233BA0312AC
:100F0300012247BF0212012250BF0212012259BF20
:100F1300021201228AC002120122A9C20212012274
:100F2300DFC20212012219C3021201224FC30212AD
:100F3300012289C302120122BDC302120122E9C3A5
:100F43000212012232C4021201226CC402120122D3
:100F5300B4C4021201220AC5021201223FC50212C1
:100F630001229AC502120122D4C50212012225C60A
:100F7300021201225BC60212012295C6021201224D
:100F8300B8C60212012244C30312012270C3031222
:100F93000122CBC303120122D5C303120122E5C3ED
:100FA300031201226DF502120122ACF50212012295
:100FB30035F6021201224AF60212012295F60212B6
:100FC3000122D4F6021201222DF7021201227CF72C
:100FD30002120122D5F702120122E2F802120122C3
:100FE300DBF90212012218FA0212012290FF011208
:100FF30001226A9701120122EA99011201225E9BE2
:1010030001120122BB9B01120122649C01120122E5
:10101300619D01120122E99D01120122759E0112B7
:10102300012216A10112012287A10112012273A23A
:1010330001120122ADA201120122EDA2011201222D
:101043008DA401120122BEA40112012213A50112D3
:10105300012260A501120122D1A501120122F4A5EA
:10106300011201220EA60112012224A7011201225C
:1010730034A701120122C5A801120122E5A8011219
:1010830001221BA9011201229FAA0112012218ABFE
:101093000112012257AB0112012289AC0112012274
:1010A30018B6031201227CB6031201222BB70312D6
:1010B30001224AB7031201229EB703120122EBC594
:1010C30003120122AF7F00120122EE7F00120122E0
:1010D300D8C503120122EFC303120122FFC3031277
:1010E300012214C4031201225DC403120122BABFF8
:1010F300031201223EC003120122A4C003120122E3
:10110300F87F001201223D9E03120122549E031216
:101113000122CD9E03120122A29F0312012274A178
:1011230003120122B4A80312012246A903120122C9
:10113300C4A9031201224BAA03120122DDAA03123E
:10114300012234AB031201223EAB031201224DAB49
:101153000312012263AB0312012276AB03120122B5
:10116300D7AB03120122EBAB031201228DC2031290
:101173000122F7C20312012202C30312012212C386
:10118300031201221DC30312012239C303120122D8
:10119300B4C103120122DDC10312012206C20312EC
:1011A300012248C203120122AFDB02120122B9DB82
:1011B30002120122F9DB0212012242DC0212012295
:1011C3007CDC02120122D2DC02120122F1DC0212C7
:1011D3000122FADC021201224BDD0212012274DD2C
:1011E3000212012289DD02120122F9DD021201221B
:1011F30087DE02120122CBDE02120122F3DE02128B
:10120300012272DF02120122B5DF02120122F2DF94
:101213000212012204E00212012223E0021201223F
:101223002CE002120122F1E00212012208BD031296
:10123300012259BD03120122E2BD0312012248BE5D
:101243000312012259A50312012283A503120122CD
:101253007DA603120122A2A60312012243A70312B1
:101263000122C9A703120122BDC00312012216B431
:10127300031201224CB40312012285B4031201228A
:10128300DEB50312012266C4031201227CC40312D9
:10129300012286C403120122DCC40312012246C7C1
:1012A3000212012203C8021201223EC802120122C5
:1012B30066C802120122C8C80212012214C902120E
:1012C30001227FC902120122FBC902120122F7CABD
:1012D300021201227ECC0212012201CD021201224E
:1012E30065CD021201227CCD0212012272CE0212BE
:1012F3000122BECE02120122429203120122579210
:10130300031201220A93031201224A9303120122B8
:10131300639303120122969303120122E3930312B0
:1013230001221794031201225994031201224F96AA
:10133300031201226DFE0112012288FE0112012215
:10134300A3FE01120122C9FE011201221CCF0212C7
:101353000122B5CF02120122CCCF0212012296D074
:1013630002120122F9D10212012296D202120122A3
:10137300D4D202120122DDD20212012250D3021270
:101383000122A4D4021201228EC503120122BAC57E
:1013930003E066701008A3E066700A08A3E06670B5
:1013A3000408A3E06622C3E7960809E7960809E75D
:1013B300960809E79622C3E09608A3E09608A3E0FF
:1013C3009608A3E09622C008C3E096F50808A3E0B8
:1013D30096420808A3E096420808A3E096450870E1
:1013E30001D3D00822080808EAC0E0EBC0E086F089
:1013F300E7A4FA180986F0E7A42AFA180986F0E7A1
:10140300A42AFA180986F0E7A42AFA1986F0E7A4B1
:10141300FBE5F02AFA190886F0E7A42BFBE5F03A7E
:10142300FA190886F0E7A42BFBE5F03AFA18180935
:1014330086F0E7A4C5F02BFBE43AFA1908E7C5F0F8
:10144300C6A426F6E5F03BFBE43AFA1886F0E7A4D7
:10145300F6E5F00826F6E43B08F6E43A08F6D0E0B1
:10146300FBD0E0FA22E4CFC0E0E4CEC0E0E4CDC09C
:10147300E0E4CCC0E075F020E626F608E633F60893
:10148300E633F608E633F6181818EC33FCED33FDB3
:10149300EE33FEEF33FFC3EC9709ED9709EE97099F
:1014A300EF97191919400FFFEC97FC09ED97FD0908
:1014B300EE97FE191906D5F0BFECF709EDF709EE23
:1014C300F709EFF7191919D0E0FCD0E0FDD0E0FEE1
:1014D300D0E0FF226016080808C6C313C618C61357
:1014E300C618C613C618C613C6D5E0EA2270090883
:1014F3000808226016181818C6C333C608C633C6B0
:1015030008C633C608C633C6D5E0EA22E627F6087E
:1015130009E637F60809E637F60809E637F622E062
:1015230026F608A3E036F608A3E036F608A3E0366D
:10153300F622E026F008A3E036F008A3E036F00830
:10154300A3E036F022C3E697F60809E697F6080902
:10155300E697F60809E697F622C3E096F008A3E0BB
:1015630096F008A3E096F008A3E096F022E657F67B
:101573000809E657F60809E657F60809E657F6227A
:10158300E056F608A3E056F608A3E056F608A3E0F3
:1015930056F622E056F008A3E056F008A3E056F012
:1015A30008A3E056F022E066F608A3E066F608A377
:1015B300E066F608A3E066F622E0F608A3E0F60884
:1015C300A3E0F608A3E0F622E6F008A3E6F008A3FA
:1015D300E6F008A3E6F022E0FAA3E0FBA3E0FCA315
:1015E300E0FD22EAF0A3EBF0A3ECF0A3EDF022E0A0
:1015F300F8A3E0F9A3E0FAA3E0FB22E8F0A3E9F003
:10160300A3EAF0A3EBF022CAC0E0E6F0A308DAFAFB
:10161300D0E0FA22CAC0E0E0A3C582CCC582C5836C
:10162300CDC583F0A3C582CCC582C583CDC583DA7E
:10163300E6D0E0CA22C3E498F8E499F91216798057
:1016430026C3E49AFAE49BFBE920E7E9121679E45E
:1016530098F8E499F922C3E498F8E499F912167911
:10166300E498F8E499F9C3E49AFAE49BFB22EB20AB
:10167300E7CFE920E7E0B90010BB0008E88AF0846F
:10168300F8AAF022E4FBC8FA22EB70227B10C833DD
:10169300C8C933C9335007C39AC3DBF280069A50D3
:1016A300012ADBEAC833F4C8C933F4C9FA2275F056
:1016B30008E4C833C8C933C933C99AC99B5004C99C
:1016C3002AC93BD5F0ECFBC833F4C8E4C9FA22605D
:1016D3000D08C6A2E713C618C613C6D5E0F32260E9
:1016E3000C08C6C313C618C613C6D5E0F42270048B
:1016F30022600D18C6C333C608C633C6D5E0F41836
:1017030022251810AF08F518400C15198008F51894
:1017130040021519D2AF2200C0D0251810AF08F52A
:1017230018500C05198008F51850020519D2AFD0CE
:10173300D0222518F58210AF08F518400C15198032
:1017430008F51840021519D2AF851983222518F51B
:1017530082E43519F583222518F8E43519F9222591
:1017630018FAE43519FB222518FCE43519FD22E4A7
:10177300732518C582C0E0E51934FFC583C0E0E5D1
:1017830018C3958224F810AF0885831985821880C1
:1017930008858319858218D2AFCEF0A3E520F0A384
:1017A3007808E608F0A3DEFAEFF0A3E58124FAF85F
:1017B300E608F0A3E608F0A3E608F0A30808E608A5
:1017C300F0A3E608F0A315811581D0E0FED0E0F880
:1017D300158115811581E8C0E0EEC0E0222518C50A
:1017E30082C0E0E51934FFC583C0E0E518C39582E4
:1017F30024F910AF08858319858218800885831919
:10180300858218D2AFCEF0A3E520F0A37808E608CE
:10181300F0A3DEFAEFF0A3E58124FBF8E608F0A3DA
:10182300E608F0A30808E608F0A3E608F0A315818C
:101833001581D0E0FED0E0F815811581E8C0E0EE17
:10184300C0E022851983851882E0A3FEE0A3F5207A
:101853007808E0A3F608DFFAE0A3FFE0A3C0E0E026
:10186300A3C0E0E0A3C0E0E0A3C0E0E0A3C0E010B9
:10187300AF088582188583198008858218858319A6
:10188300D2AFD083D08202011F851983851882E0ED
:10189300A3FEE0A3F5207808E0A3F608DFFAE0A3AF
:1018A300FFE0A3C0E0E0A3C0E0E0A3C0E0E0A3C08A
:1018B300E010AF0885821885831980088582188512
:1018C3008319D2AFD083D08222C0D02518C582C05D
:1018D300E0E51934FFC583C0E0E518C3958224F31E
:1018E30010AF08858319858218800885831985823E
:1018F30018D2AFC8F0A3E9F0A3EAF0A3EBF0A37901
:1019030008E709F0A3D8FAECF0A3EDF0A3EEF0A3F7
:10191300EFF0A3D0E0F0A3D0E0F0A3D0E0F0A3E594
:1019230020F0A3E5F0F0A322851983851882E0C097
:10193300E0A3E0F9A3E0FAA3E0FBA37808E0F6084C
:10194300A3DFFAE0FCA3E0FDA3E0FEA3E0FFA3E036
:10195300C0E0A3E0C0E0A3E0F5D0A3E0F520A3E05E
:10196300A3F5F010AF088583198582188008858355
:1019730019858218D2AFD082D083D0E0F8D0E0327C
:1019830074048006740280027401C0E0F404121728
:1019930035D0E012160A227404800474028000CC4D
:1019A300C0E0EDC0E0E518C39CCCAD1950011D109B
:1019B300AF068C188D1980068C188D19D2AF1216AC
:1019C30017D0E0FDD0E0FC22D083D082E9C0E0E470
:1019D30093A3C386F0C5F095F0F908E493A386F0CA
:1019E300C5F095F0700BE493A3C3994005E9048017
:1019F30002A3E475F002A42582F582E5F03583F5B0
:101A030083D0E0F9E493A3C0E0E493C0E022D08361
:101A1300D082ECC0E0EDC0E0E493A3FCE493A3FD2B
:101A2300ED4C600D121A5DEC24FFFCED34FFFD80DC
:101A3300EFE493A3FCE493A3FDED4C600D121A9C19
:101A4300EC24FFFCED34FFFD80EFD0E0FDD0E0FCA3
:101A5300E493A3C0E0E493C0E022C0E0C3E4939620
:101A6300087401939618400FE49366700808740194
:101A730093661870007019A3A3C3E49396087401C6
:101A8300939618A3A3400DD0E0D0E0D0E0021A4D06
:101A9300A3A3A3A3A3A3D0E022C0E0C0F088F0E4F3
:101AA300936670080874019366187000A8F0A3A3E6
:101AB300700BD0F0D0E0D0E0D0E0021A4DA3A3D059
:041AC300F0D0E0225D
:101AC80074F61217E0EAFEEBFF8C088D09EE243459
:101AD800F8E43FF9E8FCE9FDEE2435121D94FAEE2E
:101AE8002437121D94F88508F0A4C885F00A8509E2
:101AF800F0A4250AF9EA28F8E439F97A257B0012D6
:101B08001679EA8C828D83F0FA131313541FF8EEBA
:101B180028F8E43FF9E8245DF582E439F583E0C06C
:101B2800E074075AF8D0E0B800028004C313D8FC68
:101B3800A2E0EE50082434F582E43F8018243612DF
:101B48001D94F5F0EA84A8F0EE28F8E43FF9E824BB
:101B580038F582E439F583E0F97F0302188C74F7CD
:101B68001217E0EAFEEBFFEE2434121D94C0E0EEFB
:101B78002435F582E43FF583D0E0F08E828F83A38D
:101B8800A3A3A3A3A3A3C082C0838E828F83A3A38E
:101B9800A3A3A3E0F8A3E0F9D083D082E0C398F52B
:101BA80008A3E099F509EE247F121D946401703EA4
:101BB800EE2480F582E43FF583C082C0838E828F55
:101BC80083A3A3A3A3A3E0240108A3E03400F9D0CE
:101BD80083D082E0687003A3E06970127CC07D0541
:101BE800120B12EE247FF582E43FF583E4F0AC0893
:101BF800AD09EEFAEFFB121AC8E9F912230B7F02BE
:101C080002188C74EF1217E0900269E0640860050E
:101C1800E06407702A9061C8E06024900297E0F4BD
:101C2800601DE0F875F00DA4C8AAF02AF974992887
:101C3800FE740239FF8E828F83A3A3A3E070030290
:101C48001D19906060E0C0E0EE2468F582E43FF57D
:101C580083D0E0F0750CFC750D057508007509005A
:101C6800E5D914F50AE5D95403F50E601274036535
:101C78000E6043E50A600AEE2467121D9470028024
:101C8800759005F7E06401601F121D9160047A04E5
:101C980080027A00E50AC39AFA95E0FB1209A48A41
:101CA800088B09EA45097005120D948064121D918C
:101CB80070048A0C8B0DE50A6012850C82850D83F1
:101CC800F50BE5D9F0A3150BE50B70F6121D916025
:101CD8004474FC250AF50A780C121987AC0AA90E77
:101CE800EEFAEFFB120BD8740212171AE97026AA43
:101CF80008AB09121232793D8E828F83A3A3A3A366
:101D0800E0FA7B0012081EEEFAEFFB120B36120CFB
:101D1800387900806F7403650E6051850A1075115B
:101D2800007810121987AC0CAD0DAA08AB09120B7C
:101D38009C740212171AEE2468121D9464807004B1
:101D4800747F8001E0F50C780C12198BE50EF50C08
:101D5800780C12198BA90AAC08AD09900297E0FA21
:101D68007B001207EE740212171A8013900269E0C2
:101D78006408700BAC0CAD0DEEFAEFFB120C0812F8
:101D88000DA079017F0A02188CEE2483F582E43FC6
:101D9800F583E02274F21217E074FC121704EAFECD
:101DA800EBFF8909A2AFE433F508C2AF021E66E073
:101DB800601B780C121987AC0BA90EEEFAEFFB1218
:101DC8000BD2740212171A7404250BF50B74012533
:101DD8000BF5D9850ED9E50B6018F50A850C8285B7
:101DE8000D83E0F5D9A385820C85830D150AE50AD4
:101DF80070EA75E195EE2463F8E43FF97A007B0018
:101E0800A2AFE433F50BC2AF88828983E0FCA3E07C
:101E1800FDEC4D603A88828983E0FAA3E0FB8A8270
:101E28008B83E0FCA3E0FD88828983ECF0A3EDF0CE
:101E38008A828B83E4F0A3F088828983E0FCA3E0A4
:101E4800FDEC4D700A88828983A3A3E4F0A3F0E532
:101E58000BA2E092AF1212329005C7E004F0EE2414
:101E680063121D94F8A3E0F9E8496064EE24631254
:101E78001D942402F8A3E03400F988828983E5825E
:101E88002402F50CE43583F50DE0F50BA3E0F50E1F
:101E9800EE2462121D94640170369061D0E0F8124D
:101EA8001D9160047C0480027C007480C398FA95BC
:101EB800E0FBE50B2CF8E43400F9E82402F85001C3
:101EC80009C3EA98EB99A2D265D0334003021DB743
:101ED8009005C7E0604D9005C8E0F89005C7E0C3DD
:101EE80098500C74026509703A9005C9E060348E08
:101EF800828F83A3A3A3A3E0851882851983121F69
:101F08003B7402121750E8121F3B9005C6E028F0F8
:101F1800740212176AAA18AB1979011208489005B9
:101F2800C7E4F0E508A2E092AF740412171A7F071D
:101F380002188CF0A3E4F09005C7E0F82200000036
:101F4800851A87851BC622C0E074EB1218CCA2AF95
:101F5800E433F508C2AF759B00906182E0A2E050BF
:101F680030E591A2E0502A7591FE7401651A70213E
:101F78001220E2120CC81220D012199A12224774A9
:101F88000412171AE9640170057901120CF8121C81
:101F98000B906182E0A2E5505DE591A2E55057758E
:101FA80091DF900269E064076005E06408702F1211
:101FB80020E27401651A703E120CC81220D0121962
:101FC8009A122247740412171AE9640170057901FC
:101FD800120CF87901EEFAEFFB121D9C8018E064F0
:101FE8000D701390028BE004F064287002E4F07A1C
:101FF80000E0F9120DA6906182E0A2E640030220FB
:10200800A5E591A2E640030220A57591BF9002695B
:10201800E064057008120CB0120CBC8003120CB6F8
:10202800751A00120D16E990026AF07900120CF880
:10203800120A767A017B00900268E0F91212029087
:102048007803E0644270569005FBE014F0704EC2CD
:10205800AF12205C00781DD0E0F618D0E0F6E59FBE
:102068005407F87005750DFF8003750D7FC4C0E037
:10207800781CE6F50A08E6550DF50B740B780A127C
:1020880016E2D0E0250AF8906270E0A2E740F8E88E
:10209800C333906272F0906270E0D2E0F090618198
:1020A800E0A2E35009E5E9A2E3500375E9F7A3E0EC
:1020B800A2E75009E591A2E7500375917FE508A2D0
:1020C800E092AF7F0802192B8E828F83E0F8A3E09D
:1020D800C82416F582E438F58322900297E0F87553
:1020E800F00DA4C8AAF02AF9749928FE740239FFE1
:1020F80022C0E0C0D0C082C083906183E0A2E050DB
:1021080009E5BFA2E0500375BFFEE0A2E15009E572
:10211800BFA2E1500375BFFDE0A2E25009E5BFA2EE
:10212800E2500375BFFBE0A2E35009E5BFA2E3500C
:102138000375BFF7E0A2E45009E5BFA2E4500375B8
:10214800BFEFE0A2E55009E5BFA2E5500375BFDF88
:10215800E0A2E65009E5BFA2E6500375BFBFD083F1
:10216800D082D0D0D0E032C0E074F21218CCE5A70B
:10217800A2E6500FE5A1A2E6500953A7BF75A1BF7B
:102188001221C3E5A7A2E5500CE5A1A2E55006532C
:10219800A7DF75A1DFE5A7A2E15009E5A1A2E150FB
:1021A8000375A1FDE5A7A2E2500CE5A1A2E2500645
:1021B80053A7FB75A1FB7F0102192B74F71217E0D7
:1021C800751A01900269E064067015120C5C8A8227
:1021D8008B83A3A3A3A3A3A3E0FAA3E0FB120C9E03
:1021E800A2AFE433FED2AF90026FE0640170187AB8
:1021F800207B00900268E0F912131C7A207B009083
:102208000268E0F9121208906182E0D2E6F09005C7
:10221800F8E0602185C61B801690026EE0640170AC
:1022280008E5C654F84405F5C653BEFC121F4874A9
:1022380001651A60E4EEA2E092AF7F0202188C7486
:10224800F11217E08A088B098C0A8D0B9080EC78C4
:1022580008121583740F121750780C1215BC908051
:10226800EC780C1215837808790C1213A990812048
:1022780050107808790C12154878081213C94014C0
:10228800800E780C7908121548780C1213C950047E
:102298007901800279007F0802188C74ED1217E02A
:1022A8008A088B098C0A8D0B9080EC7808121583AC
:1022B8007413121750780C1215BC9080EC780C121D
:1022C8001583780C79081213A940117808790C1233
:1022D8001548AA08AB09AC0AAD0B80227510007529
:1022E80011007512007513017810790C12154878D1
:1022F80010790812150FAA10AB11AC12AD137F0C90
:1023080002188CC082C083E9906000F0D083D0822C
:1023180022C0E074F21218CCA2AFE433FED2AFC2EE
:10232800C0E5D1A2E4500675D10F121166EEA2E005
:1023380092AF7F0102192BC0E0C0D0E8C0E0E9C02D
:10234800E0A9A8D2AFC2C7E9A2E7E433F8E9A2E757
:1023580092AFD0E0F9D0E0F8D0D0D0E032C0E0C001
:10236800D0E8C0E0E9C0E0EAC0E0C082C083A2AF24
:10237800E433FAD2AF900E5BE0F8A3E0687008533C
:102388009AFBA374018022C2E9900E5BE0F8740105
:1023980028F074DB28F582E4340DF583E0F5C1906C
:1023A8000E5BE0C394804002E4F0EAA2E092AFD072
:1023B80083D082D0E0FAD0E0F9D0E0F8D0D0D0E0F5
:0723C80032C2AF0200002247
:1023D000FFFFFFFFFFFFFFFFD083D08202011F74CA
:1023E000F6121774E99001DCF090023BE0F50875F5
:1023F0000900740278081216F1AA08AB0912127AC1
:102400009001DD122D929001DD12317F606F9002FC
:102410003BE075F003A4FAABF012127A9001FA12C5
:102420002D929001FA12317F700B9001DD12315024
:1024300012128080489001FA1240E47AFF7BFF126A
:1024400010A07A0080198A087509007402780812B1
:1024500016F1123B8C74FF122592E4F0A3F00A905F
:10246000023BE0F8EAC39840DD79051206D49001FA
:10247000DCE0F91205C67A5E7B07120944023C2FA4
:1024800074F41217748A088B09EB5480604790012A
:10249000DCE0F91211EA8A0A8B0BAE0AAF0BEE4FA1
:1024A000602A8E828F83E064B0701A1206E6E960BB
:1024B000148E828F83A3A3A3A3E0F9EE2405FAE48C
:1024C0003FFB1206BCEEFAEFFB1211D8AA08E50991
:1024D0006480FB80047A007B000226E274F212170B
:1024E0007474FB121704EAFEEBFFEE4F60457403B1
:1024F000121750EEF0A3EFF0851882851983ECF0E7
:10250000A3EDF07402121750E9F0AA18AB191205E6
:10251000C0E9F50870757413121750E0F50AA3E0CE
:10252000F50BE50A450B60638E828F83122B1BEE41
:102530004F700575080280537A067B0012127A8A62
:102540000C8B0DA80CA90DE8497005750813803B8C
:1025500088828983E4122592EEF0A3EF1226AEE57D
:102560000AF0A3E50BF09001E01226A79001E060CD
:1025700017E0FCA3E08003EAFCEBFD8C828D831264
:1025800026A770F38C828D831237A7A908740502E1
:102590004364F0A31240C6A32274F2121774890890
:1025A000890C750D007403780C1216F1850C0A85E0
:1025B0000D0B9001DFF09001DD1235B21226A560FF
:1025C0002E1212807900801D890C750D007402781E
:1025D0000C1216F19001DD123A4B8882F583A3A309
:1025E000E4F0A3F00990023BE0F8E9C39840D990E9
:1025F000023BE0FA850AF0A4CAA8F0850BF0A428F3
:10260000FB12127A8A0C8B0DAE0CAF0DEE4F7003DD
:1026100002269B90023BE0FC850AF0A4CCA8F08542
:102620000BF0A428FD79001211C67C0080318D0CBE
:10263000750D007403780C1216F18A828B831226B2
:10264000A088828983E4F01226ADA3A3F0A3F00D45
:10265000EDC3950840D8EE250AFEEF350BFF0C9030
:10266000023BE0F8ECC39850288C0C750D00740206
:10267000780C1216F19001DD1226A0E82402500118
:1026800009FAE9FB8A828B83EEF0A3EFF07D0080EC
:10269000BFE5089001DFF0790080027913024367FB
:1026A000123A4FF922A3A3123154EA4B22A312404B
:1026B000C6A3A3A32274F41217747900EAA2E0500F
:1026C0001F7508BE750980780812198779107C0477
:1026D0007D007A307B1D1206CE740212171AE9F9BA
:1026E00080007F04021846C082C0839001E012314E
:1026F0007F601C88828983A3A3E06A7003A3E06BD8
:102700008882898370E8A3A3A3A312315080047A3E
:10271000007B000223D874F212177474FD121704A0
:10272000EAFEEBFF851882851983E4F0A3F07402BA
:102730001217507401F012317C70141208961212A4
:102740007A9001E3122D9212317C70030228A812B4
:102750002E92EE2404F50AE43FF50B850A82F583F8
:10276000E024FE603C24FC607424FE607E24FE7045
:10277000030227F824FE700302280524FE700302DA
:10278000281224FE700302281F24FE700302282C46
:1027900024FC700302284D24FE70030228650228E1
:1027A000A11208969001E5EAF0A3EB1228B41202F8
:1027B00054E960030228A19001E512199E8E828FD0
:1027C00083A3A3A3A3A31240E485088285098312EF
:1027D00031501206A4740212171A0228A1AC18ADC7
:1027E00019EEFAEFFB1206EC022870AC18AD19EEE8
:1027F000FAEFFB1206F28078AC18AD19EEFAEFFB97
:102800001206F8806BAC18AD19EEFAEFFB1206FE5B
:10281000805EAC18AD19EEFAEFFB1207048051ACE4
:1028200018AD19EEFAEFFB12070A80447402121772
:102830005A880C890D780C121987740212176AEEE7
:10284000FAEFFB120710740212171A8023AC18ADAE
:1028500019EEFAEFFB120716E9F870167402121758
:1028600050E4F0803CAC18AD19EEFAEFFB12071CF7
:10287000E9F8E8602C8E828F83A3E06414602285DF
:102880000A82850B83E09001E5F085188285198323
:102890001231509001E6122D92E8A31228B41202D0
:1028A0004EEEFAEFFB12067A7402121750E0F9743A
:1028B00003024364F07CE57D01850882850983126B
:1028C00031542274E812177474FA12170474041243
:1028D0001750ECF0A3EDF08A128B13EA2405F50EE5
:1028E000E43513F50FEA2402F510E43513F51185EC
:1028F0001082F5831231501203808A0A8B0B7508FF
:10290000007C037D0079007AE57B011211C6E50E9B
:102910002402F516E4350FF517740212175A880CC5
:10292000890D780C121987850E82850F83A3A3A3C6
:10293000A3E0F50C750D00780C121987E50E24053F
:10294000F50CE4350FF50D780C1219878516828584
:1029500017831234571205DE740612171A8A0C8B6D
:102960000DE50C450D7003022AE480208518828550
:102970001983E088828983F0050885188285198388
:10298000A3E0C0E0122B25D0E0F00508E50A24FB07
:10299000FAE50B34FFFBC3E5089AE49B4003022AE7
:1029A000E47E007F00851282851383A3A3A3A3E0A6
:1029B000F509780912198BE4F514F5157814121934
:1029C000877514E275150178141219879001E312C6
:1029D000199E740912175012199EE50A24F9F9ACD0
:1029E0000CAD0D851082851183123150120746748B
:1029F0000912171AE96003022A85850E82850F8362
:102A0000A3A3A3A3A3A3A3E0F89001E2E0687075D9
:102A1000E0F5148E1578141219871240E1850E82A4
:102A2000850F83A3A3A3A3A3A3A3A31231501211C1
:102A3000C0740212171AE9604C9001E612317F70DF
:102A40003BE4F51478141219877CFF7DFF79078524
:102A500010828511831231501206B6740212171AB1
:102A60001231857017850E82850F8312427E7404A1
:102A7000121750123B3F123488022B18850C8285A6
:102A80000D83122B1BA818A9198814891578141204
:102A90001987740412175012199E851682851783A0
:102AA000122D881205EA740412171A8A0C8B0DEE87
:102AB0004F7003022961122B25EE122B3012343E87
:102AC000EF122B30F8A3E03400F9E50C450D60035C
:102AD00002296C8882898374FFF00508122B257403
:102AE000FFF00508E508601A1313543F122D9812E1
:102AF0000260E960099001E6123150121232790049
:102B00008016850E82850F8312427E740412175040
:102B1000123B3F1237A7790A023411A3A3A3A3E003
:102B2000FEA3E0FF22A8089001E6E02812343E222E
:102B3000F00508089001E6E0282274E81217747482
:102B4000FA1217047402121750122D9274041217FD
:102B500050ECF0A3EDF07402121750E0240512348B
:102B600027E0F50CA3E0F50D7402121750E02402E3
:102B7000F510A3E03400F511851082F58312315071
:102B8000120380750800750900EA24FCFEEB34FF8F
:102B9000FF8008050CE50C7002050DA808C3EE982F
:102BA000EF94005003022D44A818A919880E890F2C
:102BB000780E121987851482851583A3A3A3A31207
:102BC00040E8121987E5142405F50EE43515F50FD4
:102BD000780E121987851482851583122D861205A9
:102BE000DE740612171A8A0E8B0FEA450F70030265
:102BF0002D44EA2404F516E4350FF517851682F501
:102C000083E0F50CA3E0F50D851882851983124049
:102C1000E48A828B83A3A3A3E0F9851082851183C4
:102C20001231501205CCE9F5096003022D447402FB
:102C300012175012344EF509780912198BE4F51267
:102C4000F51378121219877512E2751301781212B2
:102C500019879001E312199E740712175012199EDA
:102C6000EEF9AC0EAD0F8510828511831231501232
:102C70000746740912171AE9F5096003022D44E5A5
:102C800008703FE4F50EF50F780E1219877CFF7D72
:102C9000FF79098510828511831231501206B674AE
:102CA0000212171A123474700D7404121750122D78
:102CB0007B7911022D789001E2E024029001E6F088
:102CC00080149001E6E0FA9001E2E07900240250DD
:102CD00001096A497072A8089001E2E0FAE82AFA4C
:102CE000E43400FBEE9AEF9B405A851682851783E9
:102CF000E0C0E09001E7122B2AD0E0F0050885162D
:102D000082851783A3E0C0E0089001E7122B2AD048
:102D1000E0F005089001E21240E81219871240E144
:102D2000A80812341B1211AE740212171A9001E295
:102D3000E02508F50874FF650C700474FF650D60EC
:102D400003022B93E508601F9001E6E0F5F0E5082B
:102D500084122D98120266E960099001E712315041
:102D600012123279008011E509700375090A7404A2
:102D7000121750122D7BA9090234111235B6E50C39
:102D8000F0A3E50DF022A3A3124373AA0CAB0D220E
:102D9000A3A3EAF0A3EBF0229001E5F07CE57D012E
:102DA0008510828511831231542274EC12177474C9
:102DB000FC1217041238B7740212176A12314A1241
:102DC00005E48A0C8B0DEA450D7003022E82122E4B
:102DD00092A818A9198810891178101219877CFFF8
:102DE0007DFF790B8508828509831231501206B662
:102DF000740212171A122F88700C850A82850B83B1
:102E0000123485022E8F8E828F83A3A3A3A3E0F5B5
:102E100012781212198BE4F512F513781212198731
:102E20007512E57513017812121987781012198737
:102E3000740912175012199E7409121750E0F9AC58
:102E40000CAD0D8508828509831231501207467436
:102E50000912171AE9FE70157CE57D018508828547
:102E6000098312315012026CE97009802074166EC9
:102E700070027E009001E6123150121232EE7004A0
:102E8000800B7E01850A82850B831237A4EEF9023E
:102E900037B9EE2402F508E43FF5092274EC121765
:102EA0007474FC121704EAFEEBFF8C0E8D0FEE24F7
:102EB00005F508E43FF509740212176A8508828552
:102EC00009831231501205E48A0C8B0DEA450D700E
:102ED00003022F78EE2402F50AE43FF50BA818A9A7
:102EE000198810891178101219877CFF7DFF790DE0
:102EF00012314A1206B6740212171A122F88700B7A
:102F0000850882850983123485807A8E828F83A317
:102F1000A3A3A3E0F512781212198B850882850904
:102F200083A3A312199E7512E57513017812121965
:102F3000877810121987740912175012199E740994
:102F4000121750E0F9123146120746740912171A87
:102F5000E9FE700F7CE57D0112314A120272E970C0
:102F600009802074166E70027E009001E6123150C6
:102F7000121232EE7004800B7E018508828509836F
:102F80001237A4EEF90237B912318FF510A3E0F52C
:102F900011EA45112274E812177474FE1217048A9C
:102FA000168B178C148D15EA2405F50CE43517F5EE
:102FB0000DEA2402F50EE43517F50F850E82F58330
:102FC0001231501203808A088B09750B007C037D37
:102FD0000079007AE57B011211C6750A00E5081434
:102FE000F5100424FFF508E50934FFF50980549035
:102FF00001E5E0FA9001E2E0F8EA28F8E43400F9AB
:10300000E50898E50999500D9001E5E0F8E510C351
:10301000989001E2F0E0F51275130078121219870A
:103020001240E19001E6E02AFAA3E03400FB12111D
:10303000AE740212171A9001E2E0F89001E5E02860
:10304000F0050A850C82850D83A3A3123A5B400329
:1030500002312B9001E5E0C39508E4950940030295
:10306000312BAE0AEE2EFEE433FF12316AAC18ADFE
:10307000191240FCE439FB1205E48A128B13AC12DE
:10308000AD13EC4D701B750B0112315A1237A8901D
:1030900001E61226A76003121232A90B7402023451
:1030A00013851682851783A3A3A3A3E0F50B780BE2
:1030B00012198BE4F512F51378121219877512E2C2
:1030C00075130178121219879001E312199E740783
:1030D00012175012199EA910850E82850F83123186
:1030E00050120746740912171AE9F50B709B9001EC
:1030F000E612317F6003022FEFE4F512F513781228
:103100001219877CFF7DFF790F850E82850F831250
:1031100031501206B6740212171A1231856003027A
:103120002FEF12315A12348902309C7CE57D0185E3
:103130000E82850F83123150120278E9600302304B
:103140008F790002309CAC0CAD0D850A82850B8313
:1031500012315422E0FAA3E0FB2212316AE0FAA312
:10316000E0F9EA85148285158322850C82850D831A
:10317000E02EF8A3E03FF988828983229001E312D0
:103180004282E8492212318FF8A3E0F9E8492290FF
:1031900001E6EAF0A3EBF09001E6E02274E81217F2
:1031A0007474FA1217047404121750122D928C16AC
:1031B0008D177404121750E02405F50EA3E03400B7
:1031C000F50F7404121750E0240212342712315004
:1031D0001203808A0A8B0B7F007E00A818A9198829
:1031E0000889097808121987850E82850F83A3A3A1
:1031F000A3A3E0F5088E097808121987E50E2405C7
:10320000F508E4350FF5097808121987850E8285CF
:103210000F83A3A31234571205DE740612171A8AFD
:103220000C8B0D8029123448F00F123448F00F90A7
:1032300001E21237931219871240E1EFF812341BA2
:103240001211AE740212171A9001E2E02FFFE50C82
:10325000450D70030232D78518828519831238C94B
:10326000A3A3A3E0F98514828515831231501205BA
:10327000CCE9FEE50C2404F510E4350DF511EE70F3
:1032800050740412175012344EF508780812198B36
:10329000E4F508F50978081219877508E27509013F
:1032A00078081219879001E312199E7407121750BB
:1032B00012199EE50A24FAF9AC0CAD0D851482852D
:1032C0001583123150120746740912171AE9FE606D
:1032D000391234641237A7EF70030233FE9001E60F
:1032E000E0F5F0EF849001E5F07CE57D0185148246
:1032F00085158312315012027EE960099001E712B0
:10330000315012123279000234118F08EF703BE411
:10331000F512F51378121219877CFF7DFF7911855C
:1033200014828515831231501206B6740212171AD0
:10333000123474700912346412348802341190010A
:10334000E2E024049001E6F080359001E2E0F8909C
:1033500001E6E0FAE82404FCE43400FDEC6A4D6088
:10336000030232DDE50A24FAFAE50B34FFFBE50837
:1033700028F8E43400F9EA98EB9950030232DD852D
:103380001082851183E0C0E09001E7E02FF8A3E010
:1033900034008882F583D0E0F00F85108285118398
:1033A000A3E0C0E0123435D0E0F00F740212175AD7
:1033B000880889097808121987740212175012199F
:1033C0009E850E82850F83122D861205EA740412E3
:1033D000171A8A0C8B0DEA450D7003023225740210
:1033E000121750E0C0E0123435D0E0F00F74021232
:1033F0001750A3E0C0E0123435D0E002322DEE7059
:10340000027E0A850E82850F8312346A1237A7EE78
:10341000F9740612171A7F100218469001E7E02887
:10342000FAA3E03400FB22F514A3E03400F515857F
:103430001482F58322123439229001E7E02FFAA397
:10344000E034008A82F5832212343974FF22123567
:10345000B6A3A3A3A3E022124373850E82850F8334
:103460001231542285108285118312428285168280
:10347000851783229001E7EAF0A3EBF09001E712B1
:103480004282E849221237ADE8F0A3E9F07911222F
:1034900074EA12177474FE1217048A088B098C12CE
:1034A0008D13EA2405FEE43509FFAC18AD198E82B0
:1034B0008F831231501205E48A0C8B0DEE2406F531
:1034C0000EE43FF50FEA450D7003023588E5082448
:1034D00002F50AE43509F50B8A828B83A3A3A3E0E6
:1034E000A2E5502885188285198312315012073AB7
:1034F0008A108B11EA45116020791212314685102D
:1035000082851183121772E9F50C707F850E828512
:103510000F83E0600979528011750C0E806D85086B
:1035200082850983A3A3A3A3E0F9E4F508F509784C
:10353000081219878E828F83A3A3E0F508780812FA
:1035400019878E828F83A3A3A312199E8E828F83E5
:103550001240E412314A12074C740612171AE9F5A8
:103560000C7011850E82850F83E0702D12314A1286
:10357000028480257416650C7011750C0074181285
:1035800017501235B2E48010750C0112427A851280
:1035900082851383E8F0A3E9F0850E82850F83E02E
:1035A000600479008002A90C740212171A7F0E02BF
:1035B00018461235B622E0F8A3E0F583888222741B
:1035C000EC12177474F71217048A0A8B0B8C108D87
:1035D00011EA2405FEE4350BFF750C00AC18AD199B
:1035E0008E828F831231501205E48A088B09EA45D6
:1035F00009700302377EE50A2402F50A5002050B22
:103600008A828B83A3A3A3E0A2E5502F851882852D
:10361000198312315012073A8A0C8B0DEA450D605E
:103620004F7912AC08AD0912314A850C82850D83A1
:10363000121772E9F50C6003023781850A82850B47
:1036400083E0F508A3E0F509AA08FB12072EEA4B70
:1036500070197AFF7BFF12072EEA4B700302377452
:103660008A828B83E508F0A3E509F07508008008DD
:10367000750C0E02378105089001DFE0F8E508C3FC
:1036800098400302377485080E750F007403780E96
:103690001216F18A828B83A3A3E0250EF8A3E035EE
:1036A0000F123B4870D08E828F8312379C122D925E
:1036B0008E828F83A3A312379C122D90EE2404F5E3
:1036C00008E43FF509850882F583E088828983A3B1
:1036D000A3A3A3F0A3E4F0EE2405F50EE43FF50F59
:1036E000850E82F58312379CA3A3A3A3122D907598
:1036F00012077513007812121987EEFCEFFD74049F
:103700001217621211AE740212171AE4F51278122F
:10371000121987850882850983E0FC7D00791712DC
:10372000314A1206B6740212171A74071217501291
:103730002D927407121750E0FA4B603D8508828580
:103740000983123793121987850E82850F831240E1
:10375000E41211AE740212171A740212176A1231AF
:103760004A12028AE9602674071217501231501269
:1037700012328019750C098008750C118003750CC4
:103780000112427A8510828511831237A7A90C7421
:10379000098028E0F508750900780822123154885C
:1037A000828983221237ADE8F0A3E9F022E0F8A382
:1037B000E0F9850E82850F8322740412171A7F0C9C
:1037C00002184674EC1217741238B7751000EE2404
:1037D00002F50CE43FF50D850C82F5831231501291
:1037E000072E8A088B09EA4509700302389B850A6F
:1037F00082850B83E064016003023890AC08AD0958
:10380000AA0AAB0B120722E9606E8508828509833C
:10381000122B1DEE2406F50AE43FF50B8E828F83F2
:10382000A3A312199E8E828F83A3A3A3A312199E12
:10383000850A82850B8312199E79188E828F8312D6
:1038400038C912315012074C740612171AE9F8746D
:103850001668700B850A82850B83E4F0A38014E858
:1038600060128E828F83123150850E82850F83EA1B
:10387000F0A3EBF088108018780E121987AC08AD11
:1038800009EEFAEFFB120728740212171AE9F51075
:10389000AA08AB09120734E510700E850C82850D5D
:1038A00083123150120290800974166510700375EE
:1038B0001000A9100237BEEAFEEBFF8C0E8D0FEE52
:1038C0002405F50AE43FF50B22124373850C82852B
:1038D0000D832274EA1217747508007509007E00C2
:1038E0007F00750A00EC2402F510E43DF5118035E7
:1038F000EC65087003ED65096003023988888289E8
:1039000083A3A3E06A7003A3E06B707C8882898341
:10391000A3A3A3A312427EEE28FEEF39FFEA28FA02
:10392000EB39FB050A123A58503A850A0C750D001E
:103930007403780C1216F1851082851183123A4BAC
:10394000123B48601FE508450970A58C088D098861
:10395000828983122B1B88828983A3A3E02EFAA37A
:10396000E03F80BEE50AC394025003023A46750860
:1039700000750900EE4F6010EEFAEFFB12122C8A70
:103980000E8B0FEA450F70057900023A48750B005F
:10399000023A1B850B0C750D007403780C1216F19E
:1039A000851082851183E0250CF50CA3E0350DF51B
:1039B0000DE50C2406F514E4350DF515851482F596
:1039C00083123B4D6042E50C2404F512E4350DF5FD
:1039D00013851282F58312199EE50E2508FAE50F6C
:1039E0003509FB1211AE740212171A851282851363
:1039F00083E02508F508A3E03509F50985148285DB
:103A00001583123150121232E50B600D7C087D00D7
:103A10007900AA0CAB0D1211C6050BE50BC3950A74
:103A2000500302399385108285118312427E888269
:103A30008983A3A3A3A3A3A3E50EF0A3E50F1226F6
:103A4000AEEEF0A3EFF079010235AD123A4F22E06D
:103A5000250CF8A3E0350D229001DFE0F8E50AC35C
:103A6000982274F01217748A0E8B0F8C0A8D0B75C6
:103A70000D00750C0080507916EE2406F508E43F21
:103A8000F5098E828F83A3A312199E8E828F83A342
:103A9000A3A3A312199E85088285098312199E8506
:103AA0000E82850F83A3A312315012074C740612A5
:103AB000171AE9F50D7416650D706C850882850975
:103AC00083E4F0A3F0050C9001DFE0F8E50CC39867
:103AD0005066AA0C8A08750900740378081216F15A
:103AE000850A82850B83A3A3123B97E8FEE9FF8E2C
:103AF000828F83123B4D6040EA2401F508E43400D4
:103B0000F5099001DFE065087002E509601488821C
:103B10008983A3A3A3A3A3A3A3A312317F6003025A
:103B20003A777918023A79E9609B12427A74101256
:103B30001750123B3F1237A7A90D7F08021846E025
:103B4000FAA3E0F5838A8222F9888289831243737B
:103B5000EC4D2274F61217747C0080010C90023B2D
:103B6000E0F8ECC398501E8C0875090074027808C0
:103B70001216F1123B8CE06A7003A3E06B70DDE873
:103B8000FAE9FB80047A007B00023C2F9001DD12F1
:103B90003B978882898322E02508F8A3E03509F95C
:103BA0002274F21217748A088B09750A0080278E16
:103BB000828F83A3A3A3A31226A560031212327CD3
:103BC000087D007900EEFAEFFB1211C68E828F831A
:103BD000E4F0A3F0050A123A585027850A0C750D37
:103BE000007403780C1216F1850882850983A3A35B
:103BF000E0250CFEA3E0350DFF8E828F8312317F0E
:103C000070AD85088285098374FFF0A3F0024367D5
:103C100074F61217741206E08A828B83E58245835C
:103C200070067A007B008007A3A3A3A31231507F04
:103C30000202184674F412177489088C828D83E08E
:103C40006402703C12421DFEA3E0F9EEF8740268B3
:103C500070037429697029750A02750B00780A12BD
:103C60001987741012175012199E741012175012DF
:103C7000199EA9081210A6740612171AE9F98002F3
:103C800079010226E274E812177474FB121704E932
:103C9000851882851983F08A168B17ECFEEDFF7567
:103CA00010008E828F83A3A3A3E0A2E4502D741D85
:103CB00012175012315012073A8A828B83E58245DF
:103CC0008370030240BC790AEEFCEFFDAA16AB1725
:103CD000121772E9F51060030240BF741F121750EB
:103CE000E0F508A3E0F5097421121750E0F50AA3E6
:103CF000E0F50B7423121750E0F50EA3E0F50F8EDC
:103D0000828F83E06402600302405DA312427E85DD
:103D10000882850983A3858212858313EE2406F524
:103D20000CE43FF50D888289831240FCF514E439D8
:103D3000F5157814121A110100002801285F3D07BB
:103D4000000228243E0328923D0029533F01297E8A
:103D50003F02291F3F0329533F0429F73F5D40E5F8
:103D60000E450F6003024058850C82850D83124278
:103D70007EE8FAE9FB8A828B83E0850A82850B83E1
:103D80001241071219878A828B83A3E0FCA3E00209
:103D90003FE1E50E450F6003024058850A82850B1E
:103DA000837401F01240F1850882850983F07C005C
:103DB0007D008E828F83A3A3A3A3E02401FAA3E056
:103DC0003400FB1205E4EA4B60408A828B83E024D6
:103DD00002F8850A82850B83E028F0EA2404F8E4DF
:103DE0003BF988828983E08512828513831241150D
:103DF0001241071219878A828B83A31240E4E508D7
:103E00002403FAE43509FB023FE6850A82850B8329
:103E1000E02404F07C047D007900AA12AB13121197
:103E2000C60240BFE50E450F60030240581240F144
:103E3000FEA3E0FF850A82850B837404F0EE8508FB
:103E400082850983F0EF851282851383F074031253
:103E5000176AEEFAEFFB1205E48A0C8B0DEA450DAA
:103E60007003023F028A828B83A3A3122B1B74016F
:103E700012175A880E890F780E12198774051217B7
:103E80005012199E7CFF7DFF1205EA740412171A66
:103E90008B0FEA450F7033850C82850D831240E845
:103EA000121987850C82850D83A312199E7C027DD1
:103EB000007A657B8112036E740412171AE9700A86
:103EC000740112175074FFF0A3F08E828F83E064A8
:103ED000027039750C02750D00780C1219878E82EC
:103EE0008F83A31240E4E5082404FAE43509FB12A9
:103EF00011AE740212171A850A82850B83E0240220
:103F000080097401121750EEF0A3EFF0740112173C
:103F1000501240D674011217501240CD024052E5A3
:103F20000E450F6003024058850C82850D831243B5
:103F30006CAA16AB171210AC850A82850B8374022B
:103F4000F0850882850983EAF0851282851383EB68
:103F5000024055E50E450F60030240581240F1F84B
:103F6000A3E0F9850A82850B837402F0E885088254
:103F7000850983F0E9851282851383024055850CFB
:103F800082850D831231501211A8EAFAF8C3950EFA
:103F9000E4950F405CE8650E450F70047A008021BF
:103FA000851882851983E0FCE50E2CFCE4350FFDB5
:103FB000C3EC98ED94005003E08005E50ECAC39A67
:103FC000FAEA850A82850B83F08A0A750B00780A63
:103FD000121987850C82850D83E0250EFCA3E03540
:103FE0000FFDAA08AB091211AE740212171A024093
:103FF000BF7510070240BFE50E450F705B850C8250
:10400000850D8312427E850A82850B837407F088B2
:104010008289831240CE1240C6E0851282851383C6
:10402000F0E82402FAE439FB8A828B831240D68AB4
:10403000828B831240CDA3A31226AD1240DBF0E8A1
:104040002405F8500109888289831240DBA31241BC
:1040500015A3A3A3A3F0806775100B8062741D12D3
:1040600017501231501206E08A828B83E582458315
:10407000604A12427E880C890DE8450D603E742529
:10408000121750E0F510781012198B780E1219875C
:10409000780A12198778081219877407121750E0E6
:1040A000F9EEFCEFFDAA16AB17850C82850D831285
:1040B0001772740712171AE9F510800375100EA90C
:1040C000107405023413F088828983A322A3E0854B
:1040D00008828509832212411CF02212411CA3A3ED
:1040E000229001E312437322E0F50E750F00780E63
:1040F00022850C82850D831235B6E022E0FAA3E01A
:10410000F8E4C8F9EA2822F08A828B83E0F50A7580
:104110000B00780A221240C612411C22E085088258
:10412000850983A3A32274EE12177474FE12170478
:104130008A088B09ECFEEDFF890AAC18AD19EEFA7E
:10414000EFFB1205E48A0C8B0DEA450D7003024269
:104150000E8518828519831231501206E08A828BEF
:1041600083E58245837003024209A3A312427E883D
:104170000E890FE8450F700302420974141217509C
:10418000E0F510A3E0F511E50AF50B780B12198B99
:10419000741912175012199E7810121987741B1275
:1041A0001750E0F9AC0CAD0DAA08AB09850E82855D
:1041B0000F83121772740512171AE9F50B705274F7
:1041C000FE650A604C850C82850D83E064027041B7
:1041D00012421DFAA3E0F9EAF87402687003742928
:1041E00069702E8510828511831240FCF50CE4392C
:1041F000F50D780C121987EEFCEFFDAA08AB091239
:104200000764740212171A8008750B0E8003750B71
:1042100001A90B740212171A7F0A021846A3124250
:104220008288828983E02274F612177474FE121752
:1042300004740C12175012427EE885188285198387
:10424000F07401121750E9F0E4F508F50978081246
:1042500019877508027808121987740412175A888A
:10426000088909780812198779FE12074C7406121A
:10427000171A740212171A023C2F8E828F83124271
:104280008222E0F8A3E0F92274F7121774EAFEEB39
:10429000FF89089001FA1240E41210ACEA5402605F
:1042A0000BA908EEFAEFFB1205D8800279017F0115
:1042B00002184674F212177474FE121704EAFEEB29
:1042C000FF890A7401650A60147402650A600302BA
:1042D00043627901120962E96003024362EEFAEF78
:1042E000FB12072EEA4B6003120734A818A919889D
:1042F0000889097808121987750802750900780875
:1043000012198775085F75098178081219877CFF73
:104310007DFF7A017B001205DE740612171A8038C1
:10432000850882850983A3A3A3A3A3A312436CEEEC
:10433000FAEFFB1210A0E4F50CF50D780C121987BA
:10434000740212175012199E7CFF7DFFAA08AB0958
:104350001205EA740412171A8A088B09E508450940
:1043600070BE740212171A7F060218461235B61272
:10437000437322E0FCA3E0FD2274F41217748A0850
:104380008B09ECFEEDFF901D2EE0F4604B7A097B6B
:10439000001211D2EA4B60408A828B8374B1F0A381
:1043A000E41243DBF08A828B83A3A3E508F0A3E544
:1043B000091243DBA3EEF0A3EFF0740C12175012B6
:1043C000427E8A828B83A3A3A3A3A3A3A31237A7AE
:1043D000901D2EE0F91211DE0226E2F08A828B8314
:1043E000A3A3A3A32274F4121774E9900268F01235
:1043F0000CD4907800E0C4540F540764037004791F
:104400003F8002797F7508067509007808121987C0
:104410007C567D027AEA7B071210EE740212171A9C
:10442000900256E0F47049A3E0F47044A3E0F47005
:104430003FA3E0F4703AA3E0F47035A3E0F47030E9
:1044400090780EE0900256F090780FE0900257F0CE
:10445000907810E0900258F0907811E0900259F0B6
:10446000907812E090025AF0907813E090025BF09E
:1044700090025C1245A01259ED9002867406F0A3DA
:10448000740D124C537442F0A37401F09005CD12D8
:1044900045A09005CCE4F09005D304124C5312458E
:1044A0008EE4F0A304F0A3124C53124C51F090058B
:1044B000E41245A09005E3E4F09005EA04F0A3E4DB
:1044C00012458E124C51F0A37405F09005F474FF60
:1044D000F0A3E4F09005F6F09005F804F09005F9EB
:1044E0007490F0A37401F0120A881209AA120C92B7
:1044F00079017AFB7B05120B7E9005FBE075F014C9
:1045000084E5F004F0790C7A1C7B06120B7E120B0A
:10451000967A00900268E0F9121292907803E064B3
:104520004270569005FBE014F0704EC2AF12453059
:1045300000781DD0E0F618D0E0F6E59F5407F8703B
:10454000057509FF800375097FC4C0E0781CE6F596
:104550000808E65509F509740B78081216E2D0E050
:104560002508F8906270E0A2E740F8E8C333906253
:1045700072F0906270E0D2E0F0900293E4F0A3F069
:104580007A80FB900268E0F91212020249F51245A6
:1045900097124597F0A322F0A37480F0A37402222F
:1045A0001245A7F0A3F02274FFF0A3F0A3F0A3F04C
:1045B000A32274F4121774EAFEEBFFEEA2E050405F
:1045C00090026AE0C39480E0500F25E0F8E433F9EC
:1045D000745228F582741D800EF425E0F8E433F956
:1045E000746028F582741D39F5831253CE12177248
:1045F0007A00900268E0F9121292EE640102479488
:104600005408700302469C9005F2E0F875F00DA482
:10461000C8AAF02AF9749928FA740239FB750800BF
:10462000780812198BEA2432F582E43BF5831253A1
:10463000BA740478081216E27808121987EA24304E
:10464000F582E43BF58312199EEA242EF582E43BC1
:10465000F583E0F508A3E0C313F509E50813F508B1
:104660007808121987EA2406F508EB3401F5097871
:1046700008121987EA240CF582EB125BFDFD7C0021
:104680008A828B83A3A3A3A3E0FA7B00790012089C
:1046900018740912171AEE6408024794EE54106059
:1046A00037750800780812198BE4F5097808121993
:1046B00087780812198778081219877808121987DD
:1046C0007D007C007A007B007902120818740912C0
:1046D000171AEE6410024794EE548060369005F984
:1046E000124F22E8496026790012128C9005F912C7
:1046F00053BAE4F50AF50B78081219837A007B01A6
:10470000900268E0F9121310740412171AEE648014
:10471000024794EF5401600C790112128CEEFAEF0B
:1047200064018072EF5402600AC2AF75C9AB75C9EB
:104730005B80FEEF5404600A1223C9EEFAEF6404B2
:10474000805490026FE06401704FEE5420604A90F4
:104750000269E024FB600924FE601B1460188031AC
:104760009005DBE0FA79001209F89005DBE0FA79B0
:10477000011209F8801B793F900297E0FA75F00D5D
:10478000A4CAA8F028FB74992AFA74023BFB120B06
:104790003CEE6420FAEFFB80047A007B000249F5CE
:1047A00074F6121774EA540F6004780180027800DE
:1047B000E8F98A088B09740478081216E2E50829DA
:1047C000F508750900740478081216F1E508240844
:1047D000FAE43509FB12122C8A088B09A808A909EA
:1047E000E8496009E82404FAE439FB80047A007B94
:1047F00000024A2674F6121774EA2405FA50010BD7
:1048000012122C8A088B09A808A909E8496009E84E
:104810002405FAE439FB80047A007B00024A26C0B2
:1048200082C083C2AF120CB6E5E170FC75E10112E3
:104830000A7075E1F1120CE0120A647907120D7624
:104840007901120D7C7902120CFE120D34120D5EEC
:104850007900120D707901120D709080F81215DA3E
:10486000120CF29005D4E4F09005EBF0120B241238
:104870000C32120B487900120D829005C01245A728
:10488000741FF0906012E4F0A3F0906063F0751A6A
:1048900000900269F09005C5F09005C6740CF09088
:1048A00005C7E4F09005C804F09005C9E4F0900253
:1048B0006BF0A3F090026EF090026F04F09002850E
:1048C00004F09005F7E4F0D2AFF9025499C082C029
:1048D00083900256124A76900257124A54F0900280
:1048E00058124A5F900259124A6590025A124A6A57
:1048F00090025B124A54A3A3A3A3025496C082C0A1
:10490000838A828B83E090025C125839E090025DCA
:10491000124A2B90025E1259D290025F1259DE9019
:1049200002601259D9E0900261025496C082C0839D
:10493000120A94E9F97005120D3479000254997441
:10494000F7121774EAFEEBFF8908120A94E9F9706E
:104950002CE508600A74016508600A7912801E7CE3
:1049600000790080047C007901EEFAEFFB120D3A29
:10497000E9F87403687004790780027900025684AC
:1049800074F6121774EA4B600EEC4D600A740A124A
:10499000175012581670047912800F780812198770
:1049A000120B90740212171A7900807A74F412179D
:1049B00074EAFEEBFF8908900269E064096014E084
:1049C000640A600FE0640B600AE0640C6005E06458
:1049D0000D7004790C801E120C5C8B0BEA450B7079
:1049E0000BA908EEFAEFFB120B7E800990026BE038
:1049F0004440F0790D7F0402184674F6121774EAE9
:104A00004B6003E970047912801CEAFEEBFF890811
:104A1000120B78E98E828F83F0A3AE82AF831508E4
:104A2000E50870EC79007F02021846125839A3E0BD
:104A300022C082C083E9F8740168700B9005F77496
:104A400001F07900025499E870069005F7E480F1CE
:104A5000791280F0124A5822E08A828B83A32212B4
:104A60004A58A3F022124A70F022124A70A3F02290
:104A7000124A58A3A322E08A828B83F02274F71291
:104A80001774900269E0640C701290618EE0F87403
:104A9000806870368C828D83747F803AC3EB940F6C
:104AA0005024125840501F125A2E125C177004796D
:104AB00002802675F00DEBA42EFB740128F582749C
:104AC000033BF58380C77912800F90026DE0F9E80F
:104AD000C3998C828D83F0790002568474F7121783
:104AE00074E9FE74056E601E74136E601974146EA2
:104AF000601474156E600F741A6E600A74296E600B
:104B000005743B6E7037C3EB940F50311258405010
:104B10002C125C03700479028037125848EA246929
:104B2000F582E43BF583E06401701EEA246AF582B5
:104B3000E43BF583E064027008793A8014791280CE
:104B400010124B54120B0C8006124B54120B0079AE
:104B500000025684EA24F7F582E43BF583EEF0EA9E
:104B6000241DF582E43BF583E4F0A3F0790222747E
:104B7000F5121774EAFEEBFF890AEC4D6014E9C3E5
:104B8000941C500E740B121750E0FA600A74016AFC
:104B900060057912024C37C3EF940F502DC3EE9489
:104BA00003EF94005024124C3C125C1770047902FD
:104BB000801A124C3CF9749928F508740239F509E9
:104BC0009005C6E070087907806D79128069EC2441
:104BD000FEFCED34FFFD8C828D83E50AF0EA700463
:104BE000740280027401A3F0EC24FEFCED34FFFD9E
:104BF000E5082463FAE43509FB120B66A9A8C2AFE5
:104C00009005C6E014F0E9A2E7E433F8E9A2E792E0
:104C1000AF900269E064086005E0640770179002D5
:104C200097E06E7001EF700D7900AA08AB09121DB4
:104C30009C9061D0E079007F03021846EEF8EFF90E
:104C4000E875F00DA4C8ABF02BFB75F00DE9A42BB3
:104C5000227425F0A3E4F0A32274F7121774E9FF7D
:104C6000600574016F70377409121750E0FE60051B
:104C700074016E7029EA24FCF8EB124D44501FECCD
:104C800024FCF8ED124D445015C3EA9CEB9D400EF8
:104C9000740A121750E0F8600A740168600579120E
:104CA000024D419005D4E064017005790C024D413C
:104CB000EFA3F0E89005DAF0EE9005CC702FE4F069
:104CC000900256E09005CDF0900257E09005CEF0AE
:104CD000900258E09005CFF0900259E09005D0F096
:104CE00090025AE09005D1F090025B802E7401F0A2
:104CF00090025CE09005CDF090025DE09005CEF072
:104D000090025EE09005CFF090025FE09005D0F059
:104D1000900260E09005D1F0900261E09005D2F041
:104D20009005D6EAF0A3EBF0A3ECF0A3EDF0E87069
:104D3000047900800774016870057901120D4079CB
:104D4000000256841254102274F0121774E9FEEA1D
:104D5000FF900269E064097003024E50E0640A703B
:104D600003024E50E0640B7003024E50E0640C707E
:104D700003024E50E0640D7003024E509005D5E0E2
:104D8000600764016003024F1D9005CCE06007647A
:104D9000016003024F1D9005D61254064003024FD6
:104DA0001DA31254064003024F1D9005D6C08290E9
:104DB00005D8124F22758305D082C3E098A3E099ED
:104DC0005003024F1DEF600874016F6003024F1D16
:104DD000EE6077146003024F1D9005D4E06401601B
:104DE0006F7902120C509005CAEAF0A3EBF090051F
:104DF000D47401F09005D3F0EF9005DBF0900269D8
:104E0000E07042120AA0120CC88A0C8B0D8C0E8D19
:104E10000F9080F0780C1215229080EC780C12150F
:104E2000839005CA1253C61215CB9005CA1253F4CB
:104E30009005D81253E712150F9005CA1253D712D6
:104E400015CB120C3879000259CD9005D4E07004CE
:104E5000792180F3A2AFE433F50AC2AF120C5C8A69
:104E6000828B83E58245836005E0F5088003750841
:104E7000FF9005D4E4F07ACA7B05120C56120C6838
:104E8000E9F5096009740265086003024F14120C09
:104E9000B6906182E0C2E6F0E5E170FC75E1017573
:104EA00091BF7901120D7C75E1F17A017B009002CE
:104EB00068E0F91212089005DAE064017005120D3D
:104EC0005E8017A3E0640170119005DAE0700B12A8
:104ED0000D34120D5E7901120D6AE50AA2E092AF5F
:104EE000E509702D90026FE0640170187A207B0054
:104EF000900268E0F912131C7A207B00900268E0AF
:104F0000F91212087A00900268E0F9121292024E29
:104F100045024E42E50AA2E092AF024E45791202E6
:104F20004E47E0F8A3E0F92274E812177474FB12FC
:104F300017047403121750EAF0A3EBF07401121770
:104F400050ECF0A3EDF0E9851882851983F0900507
:104F5000EBE0640160267904120C62E96401601CD4
:104F6000900269E064096014E0640A600FE0640B79
:104F7000600AE0640C6005E0640D7005792102535D
:104F80009774031217501254064003025190740193
:104F90001217501254064003025190740312175016
:104FA000C082C0837401121750124F22D083D08266
:104FB000C3E098A3E0995003025190741E12175059
:104FC0001253BA851882851983E060096401600371
:104FD0000251908009E50845097003025190741D43
:104FE000121750E0600764016003025190742012B0
:104FF0001750E0600764016003025190742B121790
:1050000050C082C0837429121750124F22D083D00F
:1050100082C3E098A3E099500302519074211217C3
:1050200050E024FAF8A3E01253A140030251907417
:1050300023121750E0FEA3E0FFEE24FAF8EF12531C
:10504000A140030251907421121750124F22C3EE57
:1050500098EF9950030251907425121750C3E094B1
:10506000F4A3E094014003025190742712175012E8
:10507000580C24F6F8E50B125A1E9477E9940C406C
:1050800003025190850A0C850B0D7403780C1216DF
:10509000F1F50EF50F7425121750E02401F514A355
:1050A000E03400F515E4F516F517EEF8EFF9E82E03
:1050B000F8E933F988108911E4F512F513781479B9
:1050C000101213E8780C79141213A95042120B42F3
:1050D000E964017005793A0253977900EEFCEFFD1F
:1050E0007421121750125A28120B308A0C8B0D742F
:1050F000FF650C700474FF650D7005793B025397D2
:10510000851882851983E07008E5084509700280DA
:105110007F120B188A0E8B0FAE0EAF0FEE4F70057D
:1051200079090253978E828F83A3A3A3A3E09005EE
:10513000F2F07403121750124F229005EC12543BF8
:105140007401121750124F229005EE12543B85182D
:1051500082851983E09005F1F0EE245DF8E43FF9D3
:105160007AC07B0512581E64C57003EB640570F4A9
:10517000EE245DFCE43FFDEEFAEFFB120B12EE2491
:10518000361253AAC39402500CEEFAEFFB120B1E18
:105190007912025397850882850983E0C0E0EE24E6
:1051A000061253B2D0E012542CE0C0E0EE240712F5
:1051B00053B2D0E0125423E0C0E0EE24081253B200
:1051C000D0E0125423A3E0C0E0EE24091253B2D081
:1051D000E0125441E0C0E0EE240A1253B2D0E012D3
:1051E0005441A3E0C0E0EE240B1253B2D0E0F074BF
:1051F00020121750E09005E3F07420121750E07071
:105200002D900256E09005E4F0900257E09005E5FD
:10521000F0900258E09005E6F0900259E09005E722
:10522000F090025AE09005E8F090025B802B90022B
:105230005CE09005E4F090025DE09005E5F09002FE
:105240005EE09005E6F090025FE09005E7F09002E6
:1052500060E09005E8F0900261E09005E9F0741DCF
:10526000121750E0C0E0EE240C1253B2D0E0F0125E
:105270000B4EEAF8EBF9ECFAEDFBEE2426F582E4AE
:105280003FF5831215FE120A40EE2422F582E43F18
:10529000F5831215E6EE242EF582E43FF583E50C46
:1052A000F0A3E50DF0EE2432F582E43FF583E50A44
:1052B000F0A3E50BF07425121750124F22EE2430A4
:1052C0001254359005F3E0C0E0EE242AF582E43F65
:1052D000F583D0E0F0EE242BF582E43FF5837402F1
:1052E000F0120B78E975F00C84E5F02405C0E0EECF
:1052F0002437F582E43FF583D0E0F09005F0742583
:10530000F0900296E0C3940240057901120CF879FE
:1053100004120C509005E1EAF0A3EBF09005EB7459
:1053200001125419241AF582E438F58374B8F0A3F5
:10533000740A1254192414F582E438F5837417F0B2
:10534000900269E0704F120CC88A0C8B0D8C0E8D88
:105350000F9080DC780C1215229080EC780C1215DE
:10536000839005E11253C61215CB9005E11253F458
:105370009005EE1253E712150F9005E11253D71264
:1053800015CB8E828F83A3A3A3A3E0F9120AA612E2
:105390000AAC120C387900740512171A7F10021823
:1053A00046125A22947BE9940C22F582E43FF5835D
:1053B000E022F582EF3401F583221253BE22E0F59C
:1053C00008A3E0F509221253CEA3A3780C22E0F83B
:1053D000A3E0F583888222E0F8A3E0C8240EF582DA
:1053E000E438F583780C221253BEE4F50AF50B7805
:1053F0000C790822E0F8A3E0C82406F582E438F529
:1054000083E4F0A3F022E024FCF8A3E0125410227D
:10541000125A2294FDE9943F22F09005E1E0F8A3AE
:10542000E0C8221254272212542CA322F0850882AD
:10543000850983A322F582E43FF583E8F0A3E9F030
:1054400022125427A3A322C082C0839005EBE06000
:10545000087904120C62E97004790C80379005EB2E
:10546000E4F0120C68E9702A90026FE06401701891
:105470007A207B00900268E0F912131C7A207B00EE
:10548000900268E0F91212087A00900268E0F912BE
:10549000129279008003F07900D083D08202011F3C
:1054A00074E8121774EAF8EBF9ECFAEDFB90026974
:1054B000E064086005790C02566DEA24FAFCEB34CE
:1054C000FFFDC3EC947BED940C40030255F8741877
:1054D000121750E0FCA3E0FDEC24FAFEED34FFFFD0
:1054E000C3EE947BEF940C40030255F8C3EC9AEDA5
:1054F0009B50030255F8741A121750E0F516A3E0FA
:10550000F517C3E51694F4E517940140030255F826
:10551000741C121750E0FEA3E0FFEE24F6F508EF2E
:1055200034FFF509C3E5089477E509940C400302BC
:1055300055F8C3E9940F5079C3E89403E9940050F7
:10554000708808E875F00DA4C50885F00A250AF5ED
:105550000A75F00DE9A4250AF509749C2508F58261
:1055600074023509F583E0700479028046E875F02D
:105570000DA4C885F0082508F50875F00DE9A425E7
:1055800008F9749928F514740239F515E514246E98
:10559000125670E0600AE514246A125670E0600C3E
:1055A000E5142473125670E06401700A793A0256C9
:1055B0006D791202566D8E088F09740378081216E1
:1055C000F1F50AF50BE5162401F510E43517F51190
:1055D000E4F512F513ECF8EDF9E82CF8E933F98865
:1055E0000C890DE4F50EF50F7810790C1213E8789C
:1055F0000879101213A94004791280717901120BF5
:105600003074FF6A700374FF6B7004793B805EE551
:105610001424761256707402F0E514247712567032
:10562000E4F0A3F0E5142430F582E4351512567841
:10563000E5142474F582E43515125439E5142479FF
:10564000125670EAF0A3EBF0E514247B125670E5D5
:1056500016F0A3E517F0E514247D125670EEF0A3C2
:10566000EFF07900AA14AB15120B00790002539CDD
:10567000F582E43515F58322F583E02407F8A3E0ED
:105680003400F9227F0102184674F3121774900255
:1056900069E064086005790C0257F3EC4D601674FC
:1056A0000D12175012580C450B600A740F12175048
:1056B000125816700579120257F3C3EB940F504E2F
:1056C0001258405049125A2E125C17700479028009
:1056D0003F75F00DEBA42EFB749928FE74023BFF7E
:1056E000EE24E41253AA7017EE24E5F8E43FF97AA9
:1056F0007D7B0212581E64857003EB640270F4EE29
:1057000024E51253AAA2E0400A79110257F3791254
:105710000257F3EE249CF8E43FF9EC2408FAE43D48
:10572000FB8C828D83E088828983125ACFAC82AD54
:105730008388828983A3A882A983EA6C7002EB6DB7
:1057400070DF850A82850B83E0C0E0EE24A4F58239
:10575000E43FF583D0E0F0850A82850B83A3E0C0A7
:10576000E0EE24A5F582E43FF583D0E0F07C00A8CC
:1057700008A90988828983E0C0E0ECFAC3E49AFAB8
:1057800095E0FBEE2AFAEF3BFBEA24D2F582E43BFC
:10579000F583D0E0F00C88828983A3A882A983ECEA
:1057A000C3941040CEEE2494FAE43FFB120B84EE37
:1057B0002488FAE43FFB120B8A90026BE04480F0ED
:1057C000EE246212580224D312580224D412580232
:1057D00024831253AA6401700A1257F87401F079F5
:1057E0000A80071257F8E4F07903EEFAEFFB120B88
:1057F0000079007F05021846EE24DDF582E43FF5CE
:105800008322F582E43FF583E4F0EE22E0F50AA37B
:10581000E0F50BE50A221253BEE5084509228A820B
:105820008B83E088828983125839AA82AB8388826D
:105830008983A3A882A983EA22F08A828B83A32288
:10584000C3EA9403EB94002275F00DEBA42CFB74D7
:105850009928FA74023BFB22790C02011F74F012A2
:105860001774890AEAFEEBFF120C5C8A088B091296
:105870000CC88A0C8B0D8C0E8D0F8E828F83740159
:10588000F0E50A600A7401650A600479128072E525
:10589000084509604D780C121983850882850983B3
:1058A000A3A31215DA122247740412171AE96039F9
:1058B0009080E0C082C083780C12198385088285AD
:1058C0000983A3A31215DA1222A3740412171A8AE9
:1058D0000C8B0D8C0E8D0FD083D082780C1213C9D7
:1058E0005007A90A120A7C8016E50A90026B70051F
:1058F000E044018003E04402F08E828F83E4F0797B
:10590000000259CD74F0121774890AEAFEEBFF12F7
:105910000C5C8A088B09120CC88A0C8B0D8C0E8DBE
:105920000F8E828F837401F0E50A60117401650A9D
:10593000600B7402650A600579120259CDE50845CD
:1059400009604D780C121983850882850983A3A309
:105950001215DA122247740412171AE9603990807E
:10596000E0C082C083780C12198385088285098380
:10597000A3A31215DA1222A3740412171A8A0C8B2D
:105980000D8C0E8D0FD083D082780C1213C9500766
:10599000A90A120A828034E50A600B1460101460B0
:1059A0001514601A801F90026BE044048016900268
:1059B0006BE04408800E90026BE044108006900279
:1059C0006BE04420F08E828F83E4F079007F080240
:1059D0001846125839A3A3E0221259E3A322125900
:1059E000E3E022F08A828B83A3A3A3A32290025632
:1059F000E0900262F0900257E0900263F09002584B
:105A0000E0900264F0900259E0900265F090025A32
:105A1000E0900266F090025BE0900267F022125A7A
:105A2000222234FFF9C3E822E0FAA3E0FB22EAF8DD
:105A3000EBF9E875F00DA4C8AEF02EFE75F00DE997
:105A4000A42E2274F0121774EAFEEBFF120C5C8A8B
:105A5000088B09120CC88A0C8B0D8C0E8D0F8E8250
:105A60008F837401F0E5084509604D780C121983A5
:105A7000850882850983A3A31215DA1222477404CC
:105A800012171AE960379080E0C082C083780C1248
:105A90001983850882850983A3A31215DA1222A32C
:105AA000740412171A8A088B098C0A8D0BD083D0C4
:105AB0008278081213C95005120A8E800D90026C6C
:105AC000E04401F08E828F83E4F079000259CDF03A
:105AD0008C828D83A32274F712177474FF1217043B
:105AE000EA4B60078A828B837403F0EC4D60099067
:105AF0000296E08C828D83F0740A121750125A2895
:105B0000EA4B7003025BE77F007E00807B7401F04C
:105B1000E0C0E0EA2CF582E43BF583D0E0F0E82435
:105B200006125BFAC0E0125BF1D0E0F00FE8240748
