:020000040000FA
:060000000201070220EDE1
:03002B000223337A
:03003B0002235944
:0300430002230D88
:0300530002216324
:10008300021F43E5C754F84401F5C7790122000074
:100093000080FB120086B900030200F1E4791A78AC
:1000A30002B800028004F709D8FCE4791C7802B88E
:1000B30000028004F709D8FCE49001817821791CBF
:1000C3008002F0A3D8FCD9FA7AA17B1C900137787F
:1000D300DB79018015E493A3AD82AE838A828B839F
:1000E300F0A3AA82AB838D828E83D8E9D9E7758288
:1000F300A375837F7400120119758291758300744F
:100103000012011975D00075814F75188175190199
:10011300759F00020096C09FF59FE473D09F22D085
:1001230083D082C09FE493C0E0740193C0E0740263
:1001330093F59F228B039703CD03C703FF0000B4FE
:10014300000028002800283075A000A000A000A00F
:100153000000080008E001F000100010001000107B
:10016300001000100050005000500010001000D08C
:10017300070000000000000F0001000500307507B4
:10018300001000010081FF00000000FFFFFF0202DA
:10019300025A810100004F81026481010000FB1CAF
:1001A300025E81010000B801026481010000FC1CB1
:1001B300025281010000CE01FFFF0100FF20025A1D
:1001C300810100004C810264810100002A1D025C50
:1001D300810000000000025481030000FA011700AF
:1001E300D70BD70BD70BD70BD70BD70BD70BD70BFC
:1001F300D70BD70BD70BD70BD70BB70DD50DB10D2E
:1002030001E803057710020AFFFFFF00FEFF12015A
:100213002251B90312012264B90312012285B903E1
:10022300120122F0B90312012231BA031201225240
:10023300BA0312012293BA03120122DBBA03120199
:1002430022D9A103120122ECA1031201221DA20350
:1002530012012257A203120122B0A203120122F7B4
:10026300A2031201223FA3031201226EA303120170
:10027300229DA303120122D4A3031201221BA40370
:1002830012012234A40312012289A403120122B70A
:10029300A403120122F1A403120122F38B0212011F
:1002A30022F68C02120122238D02120122748D0286
:1002B300120122978D02120122A98D02120122AC92
:1002C3008D02120122EA8D021201225E8E021201B8
:1002D30022CA8E02120122928F02120122AE8F02D3
:1002E300120122E58F021201221F9002120122B68F
:1002F3009002120122089102120122399102120185
:10030300226A9102120122779102120122E19102E3
:10031300120122E491021201223B92021201223EB7
:1003230092021201227792021201227A92021201A0
:1003330022AE9202120122B192021201220593020D
:100343001201224E93021201225E930212012291A4
:1003530093021201229E9302120122A1930212011F
:10036300220994021201220B9502120122AF950277
:1003730012012218960212012256960212012248F5
:10038300B40212012245B502120122DBB5021201A9
:100393002226B6021201228AB60212012214B702E1
:1003A300120122CDB702120122EFBA021201226C0E
:1003B300BC021201228FBC02120122FC8D03120126
:1003C30022A18F03120122C18F03120122E29003A3
:1003D3001201223591031201225C96031201228439
:1003E3009603120122B19603120122E99603120128
:1003F30022479703120122939703120122FA9703CC
:100403001201223A9803120122779803120122A5BE
:1004130098031201224F99031201225999031201E1
:1004230022669903120122999903120122A59903C5
:10043300120122BD9903120122C79903120122530B
:10044300C10312012261C10312012279C103120106
:100453002291C103120122A8C10312012214D40163
:10046300120122BED4011201223AD50112012258EF
:10047300D60112012294D6011201222FD7011201B3
:100483002213D801120122D6D8011201224ED9011A
:10049300120122DCDA011201224DDB0112012207D3
:1004A300DC01120122F9DC0112012239DD01120102
:1004B30022EDDD011201221FDE0112012215E001EE
:1004C30012012257E00112012275E001120122FA02
:1004D300E001120122BEE101120122DDE30112015A
:1004E30022559A031201226B9A03120122899A035D
:1004F3001201229A9B03120122A49B03120122CF11
:100503009C03120122C69D03120122339E03120192
:100513002242F402120122E6F4021201221DF50224
:1005230012012274F50212012289F702120122B488
:10053300AC0112012265AD011201227AAD01120153
:100543002243AE011201225DAE0112012233AF013B
:1005530012012225B001120122DCB001120122EAAC
:10056300B301120122D9B5011201228BB601120186
:100573002254B70112012299BA0112012243BB018D
:100583001201226CBC0112012228BE01120122C8F1
:10059300BE0112012216BF0112012255BF01120131
:1005A3002228C0011201225CC001120122E9C0010C
:1005B300120122DFC1011201226BC201120122CFFB
:1005C300C301120122DBC30112012216C40112016D
:1005D3002285C4011201228EC50112012297C60190
:1005E3001201225EC701120122BBC801120122D9E6
:1005F300C801120122F6C801120122C1C901120168
:1006030022E9C901120122B3CC01120122B8CC01A3
:10061300120122D1CE011201221FCF011201228F1A
:10062300CF01120122CDCF01120122A9D001120163
:100633002269D101120122B5D101120122B8D101DF
:10064300120122FCD10112012244D20112012283A0
:10065300D201120122A5D201120122D9D201120123
:10066300223CD30112012238EF0212012241EF0290
:100673001201224FEF02120122A2EF02120122C144
:10068300EF0212012206F0021201224AF1021201C4
:1006930022E5F10212012229F20212012253F2028F
:1006A300120122C2F20212012208F3021201227F76
:1006B300F30212012230F402120122D323001201A9
:1006C30022742400120122D024001201228D25005D
:1006D300120122A92600120122DB26001201220A9E
:1006E3002700120122B728001201222E2B0012012B
:1006F300229E2D00120122902E00120122892F002A
:10070300120122903100120122843400120122B31B
:100713003500120122B73700120122C73800120137
:1007230022563A00120122473B00120122953B0058
:10073300120122043C00120122283C0012012279FA
:100743003C001201221A41001201221B4200120135
:10075300227C4200120122A742001201226D4300B3
:1007630012012238F90212012242F90212012287F0
:10077300F9021201229BF9021201222BFA02120141
:100783002253FA021201228EFA02120122B7FA024E
:10079300120122EBFA0212012200FB021201226B68
:1007A300FB021201228CFB02120122A0FB021201A6
:1007B30022B5FB02120122EFFB0212012213FC02FB
:1007C3001201225EFC02120122E6FC021201222C1B
:1007D300FD021201226FFD0212012299FD02120194
:1007E30022D5FD0212012245BE03120122B3740079
:1007F3001201229675001201221176001201224C79
:1008030076001201229D7700120122267800120140
:10081300223E7A00120122D07C00120122827D0046
:10082300120122A17E00120122FA7E00120122157A
:10083300EA0212012258EA02120122DCEA02120140
:1008430022AFEB0212012286EE0212012207AF034E
:10085300120122B4AF03120122C1B003120122001C
:10086300B1031201225AB103120122E3B5031201AB
:100873002246B603120122E3B60312012211B70383
:1008830012012232B7031201226DB7031201228D26
:10089300B7031201220080031201228C800312018C
:1008A300224B81031201226382031201227D8403FE
:1008B30012012294AA02120122B9AA021201228D64
:1008C300AB02120122FAAB0212012250AC02120156
:1008D30022ECAC0212012220AE02120122FBAE0274
:1008E3001201225AAF021201222BB002120122B7C7
:1008F300B002120122BAB00212012204B1021201A3
:100903002276B10212012221B20212012241B20265
:1009130012012289B202120122A5B2021201221F80
:10092300B3021201222DB302120122BCB30212013F
:100933002225B402120122668903120122EB8903E4
:100943001201222D8A03120122118B031201227E2E
:100953008B03120122C28B03120122068C031201A4
:1009630022338C031201225B8C03120122938C032A
:10097300120122D18C03120122F88C03120122727C
:100983008D03120122BC8D03120122D943001201EF
:1009930022A64500120122944700120122E84700D3
:1009A300120122134800120122C14800120122F150
:1009B300480012012220490012012233490012018A
:1009C30022744900120122A04900120122EE4900BB
:1009D300120122254A00120122714A00120122D07B
:1009E3004A00120122634B001201224D4C001201F6
:1009F300223C4D001201221C4F001201223B5400E5
:100A03001201229454001201227D56001201224C3D
:100A13005800120122515800120122F85800120105
:100A230022375A00120122CA5A00120122185C000E
:100A3300120122295C00120122A5B10312012290A6
:100A4300B203120122D3B20312012222B303120111
:100A53002273B303120122C4B3031201224C5C00BC
:100A6300120122CD5C00120122FA5C001201224322
:100A73005D00120122445E00120122895E00120110
:100A830022B55E00120122316000120122B3600020
:100A9300120122106100120122636100120122522D
:100AA3006200120122E76300120122B16400120105
:100AB30022C16400120122EB6400120122EE6400E1
:100AC300120122D16500120122BC660012012269C3
:100AD3006700120122C667001201221F680012017B
:100AE300228368001201222B6900120122C76900C8
:100AF300120122546A00120122C96A00120122253E
:100B03006B00120122846B00120122AB6B001201F5
:100B130022696C001201225A6E00120122A36E0098
:100B2300120122D36E00120122466F00120122CC61
:100B330070001201227C7100120122A171001201C6
:100B430022E07100120122F57100120122387200B5
:100B5300120122A87200120122F27200120122FC79
:100B630073001201227D7400120122D4A00212012B
:100B7300221FA1021201222BA102120122FFA102B4
:100B830012012216A20212012253A202120122848E
:100B9300A202120122BCA20212012212A30212011A
:100BA3002228A30212012264A30212012277A302C4
:100BB3001201229EA302120122D2A302120122F8E1
:100BC300A40212012242A6021201223EA70212012E
:100BD300225BA802120122F97F00120122E8E4023B
:100BE30012012296E802120122CAE902120122002E
:100BF3008002120122C38202120122C9820212015F
:100C030022868502120122E08702120122B48403A4
:100C13001201224B8503120122098603120122339A
:100C230086031201226988031201226981011201DC
:100C330022A48101120122F88B01120122648D0189
:100C4300120122618E01120122E69101120122CCCE
:100C5300920112012218930112012232930112010F
:100C6300227393011201227C93011201222C94011D
:100C7300120122FC9401120122439501120122A9BF
:100C830095011201221B9601120122EEAB03120100
:100C930022CBAC031201220FAD0312012249AD0393
:100CA300120122E1AD0312012250AE0312012259B7
:100CB300AE0312012265AE031201227FAE031201BD
:100CC30022A9AE03120122D9AE03120122CAD30212
:100CD300120122D7D302120122F1D30212012224DC
:100CE300D40212012262D402120122C7D4021201D9
:100CF30022DCD402120122F3D40212012201D50212
:100D030012012210D50212012225D5021201223A24
:100D1300D50212012245D50212012251D502120138
:100D2300225ED5021201226DD50212012278D5026C
:100D33001201229DD50212012241D602120122562E
:100D4300D6021201226BD60212012285D6021201AB
:100D530022A2D602120122BFD602120122CAD60251
:100D630012012276D70212012257D8021201227CE5
:100D7300D80212012287D8021201229CD802120142
:100D830022B0D80212012211D90212012217D9026C
:100D93001201221DD90212012223D9021201223B80
:100DA300D9021201226ED9021201227C960212018B
:100DB300229E9602120122669702120122209A02B3
:100DC300120122369B02120122579C021201223188
:100DD3009D02120122E09D021201227CF201120106
:100DE3002213F301120122ABF3011201229BF4013E
:100DF300120122D2F401120122E5F401120122535D
:100E0300F501120122EEF60112012215F70112017A
:100E130022B7F701120122ECF701120122FDF701BB
:100E230012012276F80112012297F801120122AF72
:100E3300F80112012207FA0112012210FC0112012A
:100E43002260FE0112012263FF01120122B2FF019F
:100E5300120122EAE301120122E7E401120122D284
:100E6300E501120122DCE501120122FEE501120176
:100E7300220AE6011201225CE7011201228BE7013B
:100E8300120122BBE801120122FDE801120122290D
:100E9300EA01120122FFEA0112012251EB011201C0
:100EA30022B0EB01120122E7EB0112012222EC0135
:100EB300120122BDEF01120122D6EF0112012258C5
:100EC300F00112012266F001120122BBF0011201AE
:100ED30022C9F00112012236F101120122A8F10107
:100EE300120122EEF1011201229BB703120122C06B
:100EF300B70312012231B803120122B2BD0212015B
:100F030022BBBD02120122C4BD02120122F5BE02A0
:100F130012012214C1021201224AC10212012284C7
:100F2300C102120122BAC102120122F4C10212014A
:100F33002228C20212012254C2021201229DC202BD
:100F4300120122D7C2021201221FC302120122750B
:100F5300C302120122AAC30212012205C402120112
:100F6300223FC40212012290C402120122C6C4020B
:100F730012012200C50212012223C502120122110D
:100F8300C3031201223DC30312012298C3031201BA
:100F930022A2C303120122B2C303120122F0D90217
:100FA3001201222FDA02120122BFDA021201220AEF
:100FB300DB0212012249DB02120122FEDB021201D3
:100FC3002257DC02120122A6DC02120122FFDC02FC
:100FD3001201220CDE0212012205DF02120122425B
:100FE300DF021201224CC50312012267970112018D
:100FF30022E799011201225B9B01120122B89B0196
:10100300120122619C011201225E9D01120122E65E
:101013009D01120122729E0112012213A1011201EC
:101023002284A10112012270A201120122AAA201AB
:10103300120122EAA2011201228AA401120122BB97
:10104300A40112012210A5011201225DA5011201C2
:1010530022CEA501120122F1A5011201220BA60144
:1010630012012221A70112012231A701120122C27A
:10107300A801120122E2A80112012218A9011201FA
:10108300229CAA0112012215AB0112012254AB01C9
:1010930012012286AC0112012216B4031201227A34
:1010A300B40312012229B50312012248B503120128
:1010B300229CB503120122B1C6031201220BC603FF
:1010C3001201224AC6031201229EC6031201225FA5
:1010D300C4031201226FC40312012284C403120148
:1010E30022CDC40312012259BF03120122DDBF0323
:1010F30012012243C003120122F67F001201223D96
:101103009E03120122549E03120122CD9E0312015B
:1011130022A29F0312012274A103120122B4A80385
:1011230012012246A903120122C4A9031201224B70
:10113300AA03120122DDAA0312012234AB03120116
:10114300223EAB031201224DAB0312012263AB0318
:1011530012012276AB03120122D7AB03120122EB59
:10116300AB03120122BCC30312012226C4031201E2
:101173002231C40312012241C40312012254C403C5
:1011830012012238C20312012261C2031201228A10
:10119300C203120122CCC2031201227ADF0212011E
:1011A3002284DF02120122C4DF021201220DE002B7
:1011B30012012247E0021201229DE002120122BC29
:1011C300E002120122C5E00212012216E10212011D
:1011D300223FE10212012254E102120122C4E10280
:1011E30012012252E20212012296E202120122BEEF
:1011F300E2021201223DE30212012280E302120104
:1012030022BDE302120122CFE302120122EEE30226
:10121300120122F7E302120122BCE402120122A707
:10122300BC03120122F8BC0312012281BD03120187
:1012330022E7BD0312012259A50312012283A5034C
:101243001201227DA603120122A2A6031201224348
:10125300A703120122C9A7031201225CC0031201D2
:1012630022FDFD0212012233FE021201226CFE0254
:10127300120122C5FF02120122D6C403120122EC7D
:10128300C403120122F6C403120122ACC5031201E6
:1012930022B1C5021201226EC602120122A9C602A0
:1012A300120122D1C60212012233C7021201227F88
:1012B300C702120122EAC70212012266C802120102
:1012C3002262C902120122E9CA021201226CCB0274
:1012D300120122D0CB02120122E7CB02120122DD3E
:1012E300CC0212012229CD021201224292031201E1
:1012F300225792031201220A93031201224A9303F3
:10130300120122639303120122969303120122E333
:101313009303120122179403120122599403120119
:10132300224F960312012206BB03120122DEBB03E6
:1013330012012247BC0312012287CD02120122208F
:10134300CE0212012237CE0212012208CF0212016D
:10135300220BCF021201222DD002120122CAD00287
:10136300120122D3D00212012246D1021201228D90
:10137300D2021201228AD30212012254C60312019D
:101383002280C603E066701008A3E066700A08A313
:10139300E066700408A3E06622C3E7960809E796AF
:1013A3000809E7960809E79622C3E09608A3E096A2
:1013B30008A3E09608A3E09622C008C3E096F508C8
:1013C30008A3E096420808A3E096420808A3E09623
:1013D30045087001D3D00822080808EAC0E0EBC032
:1013E300E086F0E7A4FA180986F0E7A42AFA1809B8
:1013F30086F0E7A42AFA180986F0E7A42AFA1986E0
:10140300F0E7A4FBE5F02AFA190886F0E7A42BFB22
:10141300E5F03AFA190886F0E7A42BFBE5F03AFA6F
:1014230018180986F0E7A4C5F02BFBE43AFA19086B
:10143300E7C5F0C6A426F6E5F03BFBE43AFA1886C6
:10144300F0E7A4F6E5F00826F6E43B08F6E43A08EC
:10145300F6D0E0FBD0E0FA22E4CFC0E0E4CEC0E077
:10146300E4CDC0E0E4CCC0E075F020E626F608E663
:1014730033F608E633F608E633F6181818EC33FCAF
:10148300ED33FDEE33FEEF33FFC3EC9709ED970920
:10149300EE9709EF97191919400FFFEC97FC09ED27
:1014A30097FD09EE97FE191906D5F0BFECF709ED84
:1014B300F709EEF709EFF7191919D0E0FCD0E0FDB1
:1014C300D0E0FED0E0FF226016080808C6C313C6AA
:1014D30018C613C618C613C618C613C6D5E0EA2223
:1014E3007009080808226016181818C6C333C608FE
:1014F300C633C608C633C608C633C6D5E0EA22E6F5
:1015030027F60809E637F60809E637F60809E63745
:10151300F622E026F608A3E036F608A3E036F6083E
:10152300A3E036F622E026F008A3E036F008A3E0B5
:1015330036F008A3E036F022C3E697F60809E697EB
:10154300F60809E697F60809E697F622C3E096F04F
:1015530008A3E096F008A3E096F008A3E096F02233
:10156300E657F60809E657F60809E657F60809E6C6
:1015730057F622E056F608A3E056F608A3E056F61F
:1015830008A3E056F622E056F008A3E056F008A3BD
:10159300E056F008A3E056F022E066F608A3E06602
:1015A300F608A3E066F608A3E066F622E0F608A3D1
:1015B300E0F608A3E0F608A3E0F622E6F008A3E6C7
:1015C300F008A3E6F008A3E6F022E0FAA3E0FBA309
:1015D300E0FCA3E0FD22EAF0A3EBF0A3ECF0A3ED23
:1015E300F022E0F8A3E0F9A3E0FAA3E0FB22E8F09D
:1015F300A3E9F0A3EAF0A3EBF022CAC0E0E6F0A36C
:1016030008DAFAD0E0FA22CAC0E0E0A3C582CCC56A
:1016130082C583CDC583F0A3C582CCC582C583CDE6
:10162300C583DAE6D0E0CA22C3E498F8E499F91254
:10163300166C8026C3E49AFAE49BFBE920E7E912DF
:10164300166CE498F8E499F922C3E498F8E499F95C
:1016530012166CE498F8E499F9C3E49AFAE49BFB54
:1016630022EB20E7CFE920E7E0B90010BB0008E850
:101673008AF084F8AAF022E4FBC8FA22EB70227BFA
:1016830010C833C8C933C9335007C39AC3DBF280C8
:10169300069A50012ADBEAC833F4C8C933F4C9FAFD
:1016A3002275F008E4C833C8C933C933C99AC99B42
:1016B3005004C92AC93BD5F0ECFBC833F4C8E4C9CC
:1016C300FA22600D08C6A2E713C618C613C6D5E0F2
:1016D300F322600C08C6C313C618C613C6D5E0F4BC
:1016E30022700422600D18C6C333C608C633C6D59C
:1016F300E0F41822251810AF08F518400C151980CE
:1017030008F51840021519D2AF2200C0D0251810D1
:10171300AF08F518500C05198008F5185002051983
:10172300D2AFD0D0222518F58210AF08F518400C9F
:1017330015198008F51840021519D2AF85198322AF
:101743002518F582E43519F583222518F8E43519AF
:10175300F9222518FAE43519FB222518FCE435197A
:10176300FD22E4732518C582C0E0E51934FFC58363
:10177300C0E0E518C3958224F810AF088583198566
:1017830082188008858319858218D2AFCEF0A3E52D
:1017930020F0A37808E608F0A3DEFAEFF0A3E581D2
:1017A30024FAF8E608F0A3E608F0A3E608F0A30895
:1017B30008E608F0A3E608F0A315811581D0E0FE42
:1017C300D0E0F8158115811581E8C0E0EEC0E02274
:1017D3002518C582C0E0E51934FFC583C0E0E518CC
:1017E300C3958224F910AF08858319858218800870
:1017F300858319858218D2AFCEF0A3E520F0A378B4
:1018030008E608F0A3DEFAEFF0A3E58124FBF8E68F
:1018130008F0A3E608F0A30808E608F0A3E608F03A
:10182300A315811581D0E0FED0E0F815811581E87C
:10183300C0E0EEC0E022851983851882E0A3FEE0B4
:10184300A3F5207808E0A3F608DFFAE0A3FFE0A3FE
:10185300C0E0E0A3C0E0E0A3C0E0E0A3C0E0E0A3F9
:10186300C0E010AF08858218858319800885821827
:10187300858319D2AFD083D08202011F8519838556
:101883001882E0A3FEE0A3F5207808E0A3F608DFC2
:10189300FAE0A3FFE0A3C0E0E0A3C0E0E0A3C0E060
:1018A300E0A3C0E010AF08858218858319800885FE
:1018B3008218858319D2AFD083D08222C0D0251855
:1018C300C582C0E0E51934FFC583C0E0E518C395C0
:1018D3008224F310AF0885831985821880088583D5
:1018E30019858218D2AFC8F0A3E9F0A3EAF0A3EBFD
:1018F300F0A37908E709F0A3D8FAECF0A3EDF0A37D
:10190300EEF0A3EFF0A3D0E0F0A3D0E0F0A3D0E09B
:10191300F0A3E520F0A3E5F0F0A322851983851851
:1019230082E0C0E0A3E0F9A3E0FAA3E0FBA3780818
:10193300E0F608A3DFFAE0FCA3E0FDA3E0FEA3E0EA
:10194300FFA3E0C0E0A3E0C0E0A3E0F5D0A3E0F58F
:1019530020A3E0A3F5F010AF0885831985821880D2
:1019630008858319858218D2AFD082D083D0E0F85E
:10197300D0E03274048006740280027401C0E0F483
:1019830004121728D0E01215FD2274048004740297
:101993008000CCC0E0EDC0E0E518C39CCCAD19508D
:1019A300011D10AF068C188D1980068C188D19D265
:1019B300AF12160AD0E0FDD0E0FC22D083D082E93A
:1019C300C0E0E493A3C386F0C5F095F0F908E4936F
:1019D300A386F0C5F095F0700BE493A3C39940057B
:1019E300E9048002A3E475F002A42582F582E5F000
:1019F3003583F583D0E0F9E493A3C0E0E493C0E03A
:101A030022D083D082ECC0E0EDC0E0E493A3FCE4F9
:101A130093A3FDED4C600D121A50EC24FFFCED3442
:101A2300FFFD80EFE493A3FCE493A3FDED4C600D75
:101A3300121A8FEC24FFFCED34FFFD80EFD0E0FDA4
:101A4300D0E0FCE493A3C0E0E493C0E022C0E0C391
:101A5300E49396087401939618400FE49366700814
:101A630008740193661870007019A3A3C3E49396D6
:101A7300087401939618A3A3400DD0E0D0E0D0E002
:101A8300021A40A3A3A3A3A3A3D0E022C0E0C0F003
:101A930088F0E4936670080874019366187000A8D0
:101AA300F0A3A3700BD0F0D0E0D0E0D0E0021A4056
:071AB300A3A3D0F0D0E02254
:101ABC0074F61217D3EAFEEBFF8C088D09EE243472
:101ACC00F8E43FF9E8FCE9FDEE2435121D88FAEE46
:101ADC002437121D88F88508F0A4C885F00A8509FA
:101AEC00F0A4250AF9EA28F8E439F97A257B0012E2
:101AFC00166CEA8C828D83F0FA131313541FF8EED4
:101B0C0028F8E43FF9E8245DF582E439F583E0C078
:101B1C00E074075AF8D0E0B800028004C313D8FC74
:101B2C00A2E0EE50082434F582E43F8018243612EB
:101B3C001D88F5F0EA84A8F0EE28F8E43FF9E824D3
:101B4C0038F582E439F583E0F97F0302187F74F7E6
:101B5C001217D3EAFEEBFFEE2434121D88C0E0EE20
:101B6C002435F582E43FF583D0E0F08E828F83A399
:101B7C00A3A3A3A3A3A3C082C0838E828F83A3A39A
:101B8C00A3A3A3E0F8A3E0F9D083D082E0C398F537
:101B9C0008A3E099F509EE247F121D886401703EBC
:101BAC00EE2480F582E43FF583C082C0838E828F61
:101BBC0083A3A3A3A3A3E0240108A3E03400F9D0DA
:101BCC0083D082E0687003A3E06970127CC07D054D
:101BDC00120B0BEE247FF582E43FF583E4F0AC08A6
:101BEC00AD09EEFAEFFB121ABCE9F91222FF7F02E3
:101BFC0002187F74EF1217D3900269E06408600535
:101C0C00E06407702A9061C8E06024900297E0F4C9
:101C1C00601DE0F875F00DA4C8AAF02AF974992893
:101C2C00FE740239FF8E828F83A3A3A3E07003029C
:101C3C001D0D906060E0C0E0EE2468F582E43FF595
:101C4C0083D0E0F0750CFC750D0575080075090066
:101C5C00E5D914F50AE5D95403F50E601274036541
:101C6C000E6043E50A600AEE2467121D887002803C
:101C7C00759005F7E06401601F121D8560047A04FD
:101C8C0080027A00E50AC39AFA95E0FB12099D8A54
:101C9C00088B09EA45097005120D8D8064121D85AB
:101CAC0070048A0C8B0DE50A6012850C82850D83FD
:101CBC00F50BE5D9F0A3150BE50B70F6121D85603D
:101CCC004474FC250AF50A780C12197AAC0AA90E90
:101CDC00EEFAEFFB120BD1740212170DE97026AA63
:101CEC0008AB09121225793D8E828F83A3A3A3A37F
:101CFC00E0FA7B00120817EEFAEFFB120B2F120C16
:101D0C00317900806F7403650E6051850A1075116E
:101D1C0000781012197AAC0CAD0DAA08AB09120B95
:101D2C0095740212170DEE2468121D8864807004DD
:101D3C00747F8001E0F50C780C12197EE50EF50C21
:101D4C00780C12197EA90AAC08AD09900297E0FA3A
:101D5C007B001207E7740212170D8013900269E0E2
:101D6C006408700BAC0CAD0DEEFAEFFB120C01120B
:101D7C000D9979017F0A02187FEE2483F582E43FE6
:101D8C00F583E02274F21217D374FC1216F7EAFEF4
:101D9C00EBFF8909A2AFE433F508C2AF021E5AE08B
:101DAC00601B780C12197AAC0BA90EEEFAEFFB1231
:101DBC000BCB740212170D7404250BF50B74012553
:101DCC000BF5D9850ED9E50B6018F50A850C8285C3
:101DDC000D83E0F5D9A385820C85830D150AE50AE0
:101DEC0070EA75E195EE2463F8E43FF97A007B0024
:101DFC00A2AFE433F50BC2AF88828983E0FCA3E089
:101E0C00FDEC4D603A88828983E0FAA3E0FB8A827C
:101E1C008B83E0FCA3E0FD88828983ECF0A3EDF0DA
:101E2C008A828B83E4F0A3F088828983E0FCA3E0B0
:101E3C00FDEC4D700A88828983A3A3E4F0A3F0E53E
:101E4C000BA2E092AF1212259005C7E004F0EE242D
:101E5C0063121D88F8A3E0F9E8496064EE2463126C
:101E6C001D882402F8A3E03400F988828983E58276
:101E7C002402F50CE43583F50DE0F50BA3E0F50E2B
:101E8C00EE2462121D88640170369061D0E0F81265
:101E9C001D8560047C0480027C007480C398FA95D4
:101EAC00E0FBE50B2CF8E43400F9E82402F85001CF
:101EBC0009C3EA98EB99A2D265D0334003021DAB5B
:101ECC009005C7E0604D9005C8E0F89005C7E0C3E9
:101EDC0098500C74026509703A9005C9E060348E14
:101EEC00828F83A3A3A3A3E0851882851983121F75
:101EFC002F7402121743E8121F2F9005C6E028F02A
:101F0C00740212175DAA18AB1979011208419005D9
:101F1C00C7E4F0E508A2E092AF740412170D7F0736
:101F2C0002187FF0A3E4F09005C7E0F8220000004F
:101F3C00851A87851BC622C0E074EB1218BFA2AFAE
:101F4C00E433F508C2AF759B00906182E0A2E050CB
:101F5C0030E591A2E0502A7591FE7401651A70214A
:101F6C001220D6120CC11220C412198D12223B74ED
:101F7C000412170DE9640170057901120CF1121BA2
:101F8C00FF906182E0A2E5505DE591A2E5505775A6
:101F9C0091DF900269E064076005E06408702F121D
:101FAC0020D67401651A703E120CC11220C412198D
:101FBC008D12223B740412170DE96401700579012E
:101FCC00120CF17901EEFAEFFB121D908018E0640F
:101FDC000D701390028BE004F064287002E4F07A28
:101FEC0000E0F9120D9F906182E0A2E6400302200E
:101FFC0099E591A2E640030220997591BF90026980
:10200C00E064057008120CA9120CB58003120CAF19
:10201C00751A00120D0FE990026AF07900120CF19A
:10202C00120A6F7A017B00900268E0F91211F590A8
:10203C007803E0644270569005FBE014F0704EC2D9
:10204C00AF12205000781DD0E0F618D0E0F6E59FD6
:10205C005407F87005750DFF8003750D7FC4C0E043
:10206C00781CE6F50A08E6550DF50B740B780A1288
:10207C0016D5D0E0250AF8906270E0A2E740F8E8A7
:10208C00C333906272F0906270E0D2E0F0906181A4
:10209C00E0A2E35009E5E9A2E3500375E9F7A3E0F8
:1020AC00A2E75009E591A2E7500375917FE508A2DC
:1020BC00E092AF7F0802191E8E828F83E0F8A3E0B6
:1020CC00C82416F582E438F58322900297E0F8755F
:1020DC00F00DA4C8AAF02AF9749928FE740239FFED
:1020EC0022C0E0C0D0C082C083906183E0A2E050E7
:1020FC0009E5BFA2E0500375BFFEE0A2E15009E57F
:10210C00BFA2E1500375BFFDE0A2E25009E5BFA2FA
:10211C00E2500375BFFBE0A2E35009E5BFA2E35018
:10212C000375BFF7E0A2E45009E5BFA2E4500375C4
:10213C00BFEFE0A2E55009E5BFA2E5500375BFDF94
:10214C00E0A2E65009E5BFA2E6500375BFBFD083FD
:10215C00D082D0D0D0E032C0E074F21218BFE5A724
:10216C00A2E6500FE5A1A2E6500953A7BF75A1BF87
:10217C001221B7E5A7A2E5500CE5A1A2E550065344
:10218C00A7DF75A1DFE5A7A2E15009E5A1A2E15007
:10219C000375A1FDE5A7A2E2500CE5A1A2E2500651
:1021AC0053A7FB75A1FB7F0102191E74F71217D3FD
:1021BC00751A01900269E064067015120C558A823A
:1021CC008B83A3A3A3A3A3A3E0FAA3E0FB120C9716
:1021DC00A2AFE433FED2AF90026FE0640170187AC4
:1021EC00207B00900268E0F912130F7A207B00909C
:1021FC000268E0F91211FB906182E0D2E6F09005E2
:10220C00F8E0602185C61B801690026EE0640170B8
:10221C0008E5C654F84405F5C653BEFC121F3C74C1
:10222C0001651A60E4EEA2E092AF7F0202187F749F
:10223C00F11217D38A088B098C0A8D0B9080EC78DD
:10224C0008121576740F121743780C1215AF908084
:10225C00EC780C1215767808790C12139C9081206E
:10226C0050107808790C12153B78081213BC4014E6
:10227C00800E780C790812153B780C1213BC5004A4
:10228C007901800279007F0802187F74ED1217D350
:10229C008A088B098C0A8D0B9080EC7808121576C5
:1022AC007413121743780C1215AF9080EC780C1243
:1022BC001576780C790812139C40117808790C1259
:1022CC00153BAA08AB09AC0AAD0B80227510007542
:1022DC0011007512007513017810790C12153B78EA
:1022EC00107908121502AA10AB11AC12AD137F0CA9
:1022FC0002187FC082C083E9906000F0D083D08246
:10230C0022C0E074F21218BFA2AFE433FED2AFC207
:10231C00C0E5D1A2E4500675D10F12115FEEA2E018
:10232C0092AF7F0102191EC0E0C0D0E8C0E0E9C046
:10233C00E0A9A8D2AFC2C7E9A2E7E433F8E9A2E763
:10234C0092AFD0E0F9D0E0F8D0D0D0E032C0E0C00D
:10235C00D0E8C0E0E9C0E0EAC0E0C082C083A2AF30
:10236C00E433FAD2AF900E5BE0F8A3E06870085348
:10237C009AFBA374018022C2E9900E5BE0F8740111
:10238C0028F074DB28F582E4340DF583E0F5C19078
:10239C000E5BE0C394804002E4F0EAA2E092AFD07E
:1023AC0083D082D0E0FAD0E0F9D0E0F8D0D0D0E001
:0723BC0032C2AF0200002253
:1023C400FFFFFFFFFFFFFFFFD083D08202011F74D6
:1023D400F6121767E99001DCF090023BE0F508750E
:1023E4000900740278081216E4AA08AB0912126DE7
:1023F4009001DD122D869001DD123173606F900221
:102404003BE075F003A4FAABF012126D9001FA12DE
:102414002D869001FA123173700B9001DD12314454
:1024240012127380489001FA1240D87AFF7BFF128F
:1024340010997A0080198A087509007402780812C4
:1024440016E4123B8074FF122586E4F0A3F00A9090
:10245400023BE0F8EAC39840DD79051206CD90010D
:10246400DCE0F91205BF7A577B0712093D023C23D1
:1024740074F41217678A088B09EB54806047900143
:10248400DCE0F91211DD8A0A8B0BAE0AAF0BEE4FBA
:10249400602A8E828F83E064B0701A1206DFE960CE
:1024A400148E828F83A3A3A3A3E0F9EE2405FAE498
:1024B4003FFB1206B5EEFAEFFB1211CBAA08E509B1
:1024C4006480FB80047A007B000226D674F2121723
:1024D4006774FB1216F7EAFEEBFFEE4F60457403D8
:1024E400121743EEF0A3EFF0851882851983ECF000
:1024F400A3EDF07402121743E9F0AA18AB19120500
:10250400B9E9F50870757413121743E0F50AA3E0EE
:10251400F50BE50A450B60638E828F83122B0FEE59
:102524004F700575080280537A067B0012126D8A7B
:102534000C8B0DA80CA90DE8497005750813803B98
:1025440088828983E4122586EEF0A3EF1226A2E5A1
:102554000AF0A3E50BF09001E012269B9001E060E5
:1025640017E0FCA3E08003EAFCEBFD8C828D831270
:10257400269B70F38C828D8312379BA90874050205
:102584004358F0A31240BAA32274F21217678908C1
:10259400890C750D007403780C1216E4850C0A85F9
:1025A4000D0B9001DFF09001DD1235A61226996023
:1025B4002E1212737900801D890C750D0074027837
:1025C4000C1216E49001DD123A3F8882F583A3A32E
:1025D400E4F0A3F00990023BE0F8E9C39840D990F5
:1025E400023BE0FA850AF0A4CAA8F0850BF0A428FF
:1025F400FB12126D8A0C8B0DAE0CAF0DEE4F7003F7
:1026040002268F90023BE0FC850AF0A4CCA8F0855A
:102614000BF0A428FD79001211B97C0080318D0CD7
:10262400750D007403780C1216E48A828B831226CB
:102634009488828983E4F01226A1A3A3F0A3F00D69
:10264400EDC3950840D8EE250AFEEF350BFF0C903C
:10265400023BE0F8ECC39850288C0C750D00740212
:10266400780C1216E49001DD122694E8240250013D
:1026740009FAE9FB8A828B83EEF0A3EFF07D0080F8
:10268400BFE5089001DFF079008002791302435B13
:10269400123A43F922A3A3123148EA4B22A312406F
:1026A400BAA3A3A32274F41217677900EAA2E05034
:1026B4001F7508BE750980780812197A79107C0490
:1026C4007D007A2B7B1D1206C7740212170DE9F9DF
:1026D40080007F04021839C082C0839001E0123167
:1026E40073601C88828983A3A3E06A7003A3E06BF0
:1026F4008882898370E8A3A3A3A312314480047A57
:10270400007B000223CC74F212176774FD1216F7D3
:10271400EAFEEBFF851882851983E4F0A3F07402C6
:102724001217437401F0123170701412088F1212D0
:102734006D9001E3122D86123170700302289C12F1
:102744002E86EE2404F50AE43FF50B850A82F58310
:10275400E024FE603C24FC607424FE607E24FE7051
:10276400030227EC24FE70030227F924FE700302FF
:10277400280624FE700302281324FE700302282076
:1027840024FC700302284124FE7003022859022805
:102794009512088F9001E5EAF0A3EB1228A8120223
:1027A4004DE960030228959001E51219918E828FFC
:1027B40083A3A3A3A3A31240D88508828509831207
:1027C400314412069D740212170D022895AC18ADFF
:1027D40019EEFAEFFB1206E5022864AC18AD19EE07
:1027E400FAEFFB1206EB8078AC18AD19EEFAEFFBAA
:1027F4001206F1806BAC18AD19EEFAEFFB1206F776
:10280400805EAC18AD19EEFAEFFB1206FD8051ACF8
:1028140018AD19EEFAEFFB12070380447402121785
:102824004D880C890D780C12197A740212175DEE1A
:10283400FAEFFB120709740212170D8023AC18ADCE
:1028440019EEFAEFFB12070FE9F87016740212176B
:1028540043E4F0803CAC18AD19EEFAEFFB12071517
:10286400E9F8E8602C8E828F83A3E06414602285EB
:102874000A82850B83E09001E5F08518828519832F
:102884001231449001E6122D86E8A31228A8120200
:1028940047EEFAEFFB1206737402121743E0F97461
:1028A40003024358F07CE57D018508828509831283
:1028B40031482274E812176774FA1216F774041276
:1028C4001743ECF0A3EDF08A128B13EA2405F50EFE
:1028D400E43513F50FEA2402F510E43513F51185F8
:1028E4001082F5831231441203798A0A8B0B75081E
:1028F400007C037D0079007AE57B011211B9E50EB5
:102904002402F516E4350FF517740212174D880CDE
:10291400890D780C12197A850E82850F83A3A3A3DF
:10292400A3E0F50C750D00780C12197AE50E240558
:10293400F50CE4350FF50D780C12197A851682859D
:10294400178312344B1205D7740612170D8A0C8B99
:102954000DE50C450D7003022AD880208518828568
:102964001983E088828983F0050885188285198394
:10297400A3E0C0E0122B19D0E0F00508E50A24FB1F
:10298400FAE50B34FFFBC3E5089AE49B4003022AF3
:10299400D87E007F00851282851383A3A3A3A3E0BE
:1029A400F509780912197EE4F514F515781412194D
:1029B4007A7514E2751501781412197A9001E312EC
:1029C40019917409121743121991E50A24F9F9AC03
:1029D4000CAD0D85108285118312314412073F74AA
:1029E4000912170DE96003022A79850E82850F8387
:1029F400A3A3A3A3A3A3A3E0F89001E2E0687075E6
:102A0400E0F5148E15781412197A1240D5850E82C9
:102A1400850F83A3A3A3A3A3A3A3A31231441211D9
:102A2400B3740212170DE9604C9001E61231737011
:102A34003BE4F514781412197A7CFF7DFF7907853D
:102A440010828511831231441206AF740212170DDD
:102A54001231797017850E82850F831242727404C5
:102A6400121743123B3312347C022B0C850C8285E3
:102A74000D83122B0FA818A919881489157814121C
:102A8400197A7404121743121991851682851783D3
:102A9400122D7C1205E3740412170D8A0C8B0DEEB3
:102AA4004F7003022955122B19EE122B24123432C3
:102AB400EF122B24F8A3E03400F9E50C450D600374
:102AC4000229608882898374FFF00508122B197427
:102AD400FFF00508E508601A1313543F122D8C12F9
:102AE4000259E960099001E6123144121225790075
:102AF4008016850E82850F83124272740412174366
:102B0400123B3312379B790A023405A3A3A3A3E033
:102B1400FEA3E0FF22A8089001E6E0281234322246
:102B2400F00508089001E6E0282274E8121767749B
:102B3400FA1216F77402121743122D867404121730
:102B440043ECF0A3EDF07402121743E024051234B1
:102B54001BE0F50CA3E0F50D7402121743E0240208
:102B6400F510A3E03400F511851082F58312314489
:102B7400120379750800750900EA24FCFEEB34FFA2
:102B8400FF8008050CE50C7002050DA808C3EE983B
:102B9400EF94005003022D38A818A919880E890F44
:102BA400780E12197A851482851583A3A3A3A31220
:102BB40040DC12197AE5142405F50EE43515F50FF9
:102BC400780E12197A851482851583122D7A1205CE
:102BD400D7740612170D8A0E8B0FEA450F70030285
:102BE4002D38EA2404F516E4350FF517851682F519
:102BF40083E0F50CA3E0F50D851882851983124056
:102C0400D88A828B83A3A3A3E0F9851082851183DC
:102C14001231441205C5E9F5096003022D38740226
:102C2400121743123442F509780912197EE4F51299
:102C3400F513781212197A7512E2751301781212CB
:102C4400197A9001E312199174071217431219911A
:102C5400EEF9AC0EAD0F851082851183123144124A
:102C6400073F740912170DE9F5096003022D38E5D1
:102C740008703FE4F50EF50F780E12197A7CFF7D8B
:102C8400FF79098510828511831231441206AF74CD
:102C94000212170D123468700D7404121743122DAA
:102CA4006F7911022D6C9001E2E024029001E6F0AC
:102CB40080149001E6E0FA9001E2E07900240250E9
:102CC40001096A497072A8089001E2E0FAE82AFA58
:102CD400E43400FBEE9AEF9B405A851682851783F5
:102CE400E0C0E09001E7122B1ED0E0F00508851645
:102CF40082851783A3E0C0E0089001E7122B1ED061
:102D0400E0F005089001E21240DC12197A1240D575
:102D1400A80812340F1211A1740212170D9001E2C7
:102D2400E02508F50874FF650C700474FF650D60F8
:102D340003022B87E508601F9001E6E0F5F0E50843
:102D440084122D8C12025FE960099001E71231446C
:102D540012122579008011E509700375090A7404BB
:102D6400121743122D6FA9090234051235AAE50C76
:102D7400F0A3E50DF022A3A3124367AA0CAB0D2226
:102D8400A3A3EAF0A3EBF0229001E5F07CE57D013A
:102D94008510828511831231482274EC12176774EE
:102DA400FC1216F71238AB740212175D12313E1280
:102DB40005DD8A0C8B0DEA450D7003022E76122E6A
:102DC40086A818A91988108911781012197A7CFF1D
:102DD4007DFF790B8508828509831231441206AF81
:102DE400740212170D122F7C700C850A82850B83D6
:102DF400123479022E838E828F83A3A3A3A3E0F5DA
:102E040012781212197EE4F512F513781212197A57
:102E14007512E5751301781212197A781012197A5D
:102E240074091217431219917409121743E0F9AC8B
:102E34000CAD0D85088285098312314412073F7455
:102E44000912170DE9FE70157CE57D018508828560
:102E54000983123144120265E97009802074166EE8
:102E640070027E009001E6123144121225EE7004C5
:102E7400800B7E01850A82850B83123798EEF90256
:102E840037ADEE2402F508E43FF5092274EC12177D
:102E94006774FC1216F7EAFEEBFF8C0E8D0FEE241E
:102EA40005F508E43FF509740212175D850882856B
:102EB40009831231441205DD8A0C8B0DEA450D702D
:102EC40003022F6CEE2402F50AE43FF50BA818A9BF
:102ED4001988108911781012197A7CFF7DFF790DF9
:102EE40012313E1206AF740212170D122F7C700BB2
:102EF400850882850983123479807A8E828F83A330
:102F0400A3A3A3E0F512781212197E85088285091D
:102F140083A3A31219917512E5751301781212197E
:102F24007A781012197A74091217431219917409D4
:102F3400121743E0F912313A12073F740912170DC0
:102F4400E9FE700F7CE57D0112313E12026BE970DF
:102F540009802074166E70027E009001E6123144DE
:102F6400121225EE7004800B7E0185088285098388
:102F7400123798EEF90237AD123183F510A3E0F55C
:102F840011EA45112274E812176774FE1216F78AC3
:102F9400168B178C148D15EA2405F50CE43517F5FA
:102FA4000DEA2402F50EE43517F50F850E82F5833C
:102FB4001231441203798A088B09750B007C037D56
:102FC4000079007AE57B011211B9750A00E508144D
:102FD400F5100424FFF508E50934FFF50980549041
:102FE40001E5E0FA9001E2E0F8EA28F8E43400F9B7
:102FF400E50898E50999500D9001E5E0F8E510C35E
:10300400989001E2F0E0F512751300781212197A23
:103014001240D59001E6E02AFAA3E03400FB121135
:10302400A1740212170D9001E2E0F89001E5E02886
:10303400F0050A850C82850D83A3A3123A4F400341
:1030440002311F9001E5E0C39508E49509400302AD
:10305400311FAE0AEE2EFEE433FF12315EAC18AD22
:10306400191240F0E439FB1205DD8A128B13AC12FD
:10307400AD13EC4D701B750B0112314E12379C9041
:1030840001E612269B6003121225A90B7402023476
:1030940007851682851783A3A3A3A3E0F50B780BFA
:1030A40012197EE4F512F513781212197A7512E2E8
:1030B400751301781212197A9001E31219917407A9
:1030C400121743121991A910850E82850F831231AC
:1030D4004412073F740912170DE9F50B709B900118
:1030E400E61231736003022FE3E4F512F51378124C
:1030F40012197A7CFF7DFF790F850E82850F83126A
:1031040031441206AF740212170D123179600302B2
:103114002FE312314E12347D0230907CE57D01851F
:103124000E82850F83123144120271E9600302306A
:10313400837900023090AC0CAD0D850A82850B8337
:1031440012314822E0FAA3E0FB2212315EE0FAA336
:10315400E0F9EA85148285158322850C82850D8326
:10316400E02EF8A3E03FF988828983229001E312DC
:103174004276E84922123183F8A3E0F9E849229023
:1031840001E6EAF0A3EBF09001E6E02274E81217FE
:103194006774FA1216F77404121743122D868C16EC
:1031A4008D177404121743E02405F50EA3E03400D0
:1031B400F50F7404121743E0240212341B12314435
:1031C4001203798A0A8B0B7F007E00A818A919883C
:1031D400088909780812197A850E82850F83A3A3BA
:1031E400A3A3E0F5088E09780812197AE50E2405E0
:1031F400F508E4350FF509780812197A850E8285E9
:103204000F83A3A312344B1205D7740612170D8A29
:103214000C8B0D802912343CF00F12343CF00F90CB
:1032240001E212378712197A1240D5EFF812340FDF
:103234001211A1740212170D9001E2E02FFFE50CA8
:10324400450D70030232CB8518828519831238BD6F
:10325400A3A3A3E0F98514828515831231441205D2
:10326400C5E9FEE50C2404F510E4350DF511EE7006
:10327400507404121743123442F508780812197E68
:10328400E4F508F509780812197A7508E275090158
:10329400780812197A9001E31219917407121743EE
:1032A400121991E50A24FAF9AC0CAD0D8514828546
:1032B400158312314412073F740912170DE9FE6099
:1032C4003912345812379BEF70030233F29001E63F
:1032D400E0F5F0EF849001E5F07CE57D0185148252
:1032E400851583123144120277E960099001E712CF
:1032F400314412122579000234058F08EF703BE443
:10330400F512F513781212197A7CFF7DFF79118575
:1033140014828515831231441206AF740212170DFC
:10332400123468700912345812347C023405900146
:10333400E2E024049001E6F080359001E2E0F890A8
:1033440001E6E0FAE82404FCE43400FDEC6A4D6094
:10335400030232D1E50A24FAFAE50B34FFFBE5084F
:1033640028F8E43400F9EA98EB9950030232D18545
:103374001082851183E0C0E09001E7E02FF8A3E01C
:1033840034008882F583D0E0F00F851082851183A4
:10339400A3E0C0E0123429D0E0F00F740212174DFC
:1033A40088088909780812197A74021217431219C5
:1033B40091850E82850F83122D7A1205E37404120F
:1033C400170D8A0C8B0DEA450D7003023219740235
:1033D400121743E0C0E0123429D0E0F00F74021257
:1033E4001743A3E0C0E0123429D0E0023221EE708A
:1033F400027E0A850E82850F8312345E12379BEE9D
:10340400F9740612170D7F100218399001E7E028AD
:10341400FAA3E03400FB22F514A3E03400F515858B
:103424001482F5832212342D229001E7E02FFAA3AF
:10343400E034008A82F5832212342D74FF2212357F
:10344400AAA3A3A3A3E022124367850E82850F8358
:1034540012314822851082851183124276851682A4
:10346400851783229001E7EAF0A3EBF09001E712BD
:103474004276E849221237A1E8F0A3E9F079112253
:1034840074EA12176774FE1216F78A088B098C12F5
:103494008D13EA2405FEE43509FFAC18AD198E82BC
:1034A4008F831231441205DD8A0C8B0DEE2406F550
:1034B4000EE43FF50FEA450D700302357CE5082460
:1034C40002F50AE43509F50B8A828B83A3A3A3E0F2
:1034D400A2E55028851882851983123144120733D6
:1034E4008A108B11EA45116020791212313A851045
:1034F40082851183121765E9F50C707F850E82852C
:103504000F83E0600979528011750C0E806D850877
:1035140082850983A3A3A3A3E0F9E4F508F5097858
:103524000812197A8E828F83A3A3E0F50878081213
:10353400197A8E828F83A3A3A31219918E828F830B
:103544001240D812313E120745740612170DE9F5E0
:103554000C7011850E82850F83E0702D12313E129E
:10356400027D80257416650C7011750C0074181298
:1035740017431235A6E48010750C0112426E8512B1
:1035840082851383E8F0A3E9F0850E82850F83E03A
:10359400600479008002A90C740212170D7F0E02D8
:1035A40018391235AA22E0F8A3E0F5838882227440
:1035B400EC12176774F71216F78A0A8B0B8C108DAE
:1035C40011EA2405FEE4350BFF750C00AC18AD19A7
:1035D4008E828F831231441205DD8A088B09EA45F5
:1035E400097003023772E50A2402F50A5002050B3A
:1035F4008A828B83A3A3A3E0A2E5502F851882853A
:1036040019831231441207338A0C8B0DEA450D607D
:103614004F7912AC08AD0912313E850C82850D83B9
:10362400121765E9F50C6003023775850A82850B6C
:1036340083E0F508A3E0F509AA08FB120727EA4B83
:1036440070197AFF7BFF120727EA4B700302376871
:103654008A828B83E508F0A3E509F07508008008E9
:10366400750C0E02377505089001DFE0F8E508C314
:1036740098400302376885080E750F007403780EAE
:103684001216E48A828B83A3A3E0250EF8A3E03507
:103694000F123B3C70D08E828F83123790122D868E
:1036A4008E828F83A3A3123790122D84EE2404F507
:1036B40008E43FF509850882F583E088828983A3BD
:1036C400A3A3A3F0A3E4F0EE2405F50EE43FF50F65
:1036D400850E82F583123790A3A3A3A3122D8475BC
:1036E4001207751300781212197AEEFCEFFD7404B8
:1036F4001217551211A1740212170DE4F512781263
:1037040012197A850882850983E0FC7D00791712F5
:10371400313E1206AF740212170D740712174312CA
:103724002D867407121743E0FA4B603D85088285A5
:10373400098312378712197A850E82850F83124006
:10374400D81211A1740212170D740212175D1231EE
:103754003E120283E96026740712174312314412A1
:1037640012258019750C098008750C118003750CDD
:103774000112426E85108285118312379BA90C7445
:10378400098028E0F5087509007808221231488874
:10379400828983221237A1E8F0A3E9F022E0F8A39A
:1037A400E0F9850E82850F8322740412170D7F0CB5
:1037B40002183974EC1217671238AB751000EE2436
:1037C40002F50CE43FF50D850C82F58312314412A9
:1037D40007278A088B09EA4509700302388F850A8E
:1037E40082850B83E064016003023884AC08AD0970
:1037F400AA0AAB0B12071BE9606E85088285098350
:10380400122B11EE2406F50AE43FF50B8E828F830A
:10381400A3A31219918E828F83A3A3A3A312199138
:10382400850A82850B8312199179188E828F8312EF
:1038340038BD123144120745740612170DE9F874A5
:103844001668700B850A82850B83E4F0A38014E864
:1038540060128E828F83123144850E82850F83EA33
:10386400F0A3EBF088108018780E12197AAC08AD2A
:1038740009EEFAEFFB120721740212170DE9F51095
:10388400AA08AB0912072DE510700E850C82850D70
:10389400831231441202898009741665107003750D
:1038A4001000A9100237B2EAFEEBFF8C0E8D0FEE6A
:1038B4002405F50AE43FF50B22124367850C828543
:1038C4000D832274EA1217677508007509007E00DB
:1038D4007F00750A00EC2402F510E43DF5118035F3
:1038E400EC65087003ED6509600302397C88828900
:1038F40083A3A3E06A7003A3E06B707C888289834E
:10390400A3A3A3A3124272EE28FEEF39FFEA28FA1A
:10391400EB39FB050A123A4C503A850A0C750D0036
:103924007403780C1216E4851082851183123A3FD1
:10393400123B3C601FE508450970A58C088D098879
:10394400828983122B0F88828983A3A3E02EFAA392
:10395400E03F80BEE50AC394025003023A3A750878
:1039640000750900EE4F6010EEFAEFFB12121F8A89
:103974000E8B0FEA450F70057900023A3C750B0077
:10398400023A0F850B0C750D007403780C1216E4C3
:10399400851082851183E0250CF50CA3E0350DF527
:1039A4000DE50C2406F514E4350DF515851482F5A2
:1039B40083123B416042E50C2404F512E4350DF515
:1039C40013851282F583121991E50E2508FAE50F85
:1039D4003509FB1211A1740212170D851282851389
:1039E40083E02508F508A3E03509F50985148285E7
:1039F4001583123144121225E50B600D7C087D00FD
:103A04007900AA0CAB0D1211B9050BE50BC3950A8D
:103A1400500302398785108285118312427288828D
:103A24008983A3A3A3A3A3A3E50EF0A3E50F122602
:103A3400A2EEF0A3EFF079010235A1123A4322E09D
:103A4400250CF8A3E0350D229001DFE0F8E50AC368
:103A5400982274F01217678A0E8B0F8C0A8D0B75DF
:103A64000D00750C0080507916EE2406F508E43F2D
:103A7400F5098E828F83A3A31219918E828F83A35B
:103A8400A3A3A3121991850882850983121991852C
:103A94000E82850F83A3A3123144120745740612C4
:103AA400170DE9F50D7416650D706C85088285098E
:103AB40083E4F0A3F0050C9001DFE0F8E50CC39873
:103AC4005066AA0C8A08750900740378081216E473
:103AD400850A82850B83A3A3123B8BE8FEE9FF8E44
:103AE400828F83123B416040EA2401F508E43400EC
:103AF400F5099001DFE065087002E5096014888229
:103B04008983A3A3A3A3A3A3A3A312317360030272
:103B14003A6B7918023A6DE9609B12426E74101286
:103B24001743123B3312379BA90D7F08021839E063
:103B3400FAA3E0F5838A8222F98882898312436793
:103B4400EC4D2274F61217677C0080010C90023B46
:103B5400E0F8ECC398501E8C0875090074027808CC
:103B64001216E4123B80E06A7003A3E06B70DDE898
:103B7400FAE9FB80047A007B00023C239001DD1209
:103B84003B8B8882898322E02508F8A3E03509F974
:103B94002274F21217678A088B09750A0080278E2F
:103BA400828F83A3A3A3A312269960031212257CF8
:103BB400087D007900EEFAEFFB1211B98E828F8333
:103BC400E4F0A3F0050A123A4C5027850A0C750D4F
:103BD400007403780C1216E4850882850983A3A374
:103BE400E0250CFEA3E0350DFF8E828F8312317326
:103BF40070AD85088285098374FFF0A3F002435BEE
:103C040074F61217671206D98A828B83E58245837C
:103C140070067A007B008007A3A3A3A31231447F1C
:103C24000202183974F412176789088C828D83E0B4
:103C34006402703C124211FEA3E0F9EEF8740268CB
:103C440070037429697029750A02750B00780A12C9
:103C5400197A74101217431219917410121743121F
:103C64001991A90812109F740612170DE9F9800220
:103C740079010226D674E812176774FB1216F7E965
:103C8400851882851983F08A168B17ECFEEDFF7573
:103C940010008E828F83A3A3A3E0A2E4502D741D91
:103CA4001217431231441207338A828B83E582450B
:103CB4008370030240B0790AEEFCEFFDAA16AB173D
:103CC400121765E9F51060030240B3741F1217431D
:103CD400E0F508A3E0F5097421121743E0F50AA3FF
:103CE400E0F50B7423121743E0F50EA3E0F50F8EF5
:103CF400828F83E064026003024051A31242728502
:103D04000882850983A3858212858313EE2406F530
:103D14000CE43FF50D888289831240F0F514E439F0
:103D2400F5157814121A04010000280128533D07E0
:103D3400000228183E0328863D0029473F012972C6
:103D44003F0229133F0329473F0429EB3F5140E534
:103D54000E450F600302404C850C82850D83124290
:103D640072E8FAE9FB8A828B83E0850A82850B83F9
:103D74001240FB12197A8A828B83A3E0FCA3E0022F
:103D84003FD5E50E450F600302404C850A82850B42
:103D9400837401F01240E5850882850983F07C0074
:103DA4007D008E828F83A3A3A3A3E02401FAA3E062
:103DB4003400FB1205DDEA4B60408A828B83E024E9
:103DC40002F8850A82850B83E028F0EA2404F8E4EB
:103DD4003BF988828983E085128285138312410925
:103DE4001240FB12197A8A828B83A31240D8E50809
:103DF4002403FAE43509FB023FDA850A82850B8342
:103E0400E02404F07C047D007900AA12AB131211A3
:103E1400B90240B3E50E450F600302404C1240E581
:103E2400FEA3E0FF850A82850B837404F0EE850807
:103E340082850983F0EF851282851383F07403125F
:103E4400175DEEFAEFFB1205DD8A0C8B0DEA450DCA
:103E54007003023EF68A828B83A3A3122B0F740194
:103E640012174D880E890F780E12197A74051217DD
:103E7400431219917CFF7DFF1205E3740412170DA0
:103E84008B0FEA450F7033850C82850D831240DC5D
:103E940012197A850C82850D83A31219917C027DF7
:103EA400007A587B81120367740412170DE9700AB3
:103EB400740112174374FFF0A3F08E828F83E064C1
:103EC400027039750C02750D00780C12197A8E8205
:103ED4008F83A31240D8E5082404FAE43509FB12C1
:103EE40011A1740212170D850A82850B83E0240246
:103EF40080097401121743EEF0A3EFF07401121756
:103F0400431240CA74011217431240C1024046E5ED
:103F14000E450F600302404C850C82850D831243CD
:103F240060AA16AB171210A5850A82850B8374024A
:103F3400F0850882850983EAF0851282851383EB74
:103F4400024049E50E450F600302404C1240E5F87B
:103F5400A3E0F9850A82850B837402F0E885088260
:103F6400850983F0E9851282851383024049850C13
:103F740082850D8312314412119BEAFAF8C3950E1F
:103F8400E4950F405CE8650E450F70047A008021CB
:103F9400851882851983E0FCE50E2CFCE4350FFDC1
:103FA400C3EC98ED94005003E08005E50ECAC39A73
:103FB400FAEA850A82850B83F08A0A750B00780A6F
:103FC40012197A850C82850D83E0250EFCA3E03559
:103FD4000FFDAA08AB091211A1740212170D0240B9
:103FE400B37510070240B3E50E450F705B850C8274
:103FF400850D83124272850A82850B837407F088CB
:104004008289831240C21240BAE0851282851383EA
:10401400F0E82402FAE439FB8A828B831240CA8ACC
:10402400828B831240C1A3A31226A11240CFF0E8D1
:104034002405F8500109888289831240CFA31241D4
:1040440009A3A3A3A3F0806775100B8062741D12EB
:1040540017431231441206D98A828B83E582458341
:10406400604A124272880C890DE8450D603E742541
:10407400121743E0F510781012197E780E12197A8F
:10408400780A12197A780812197A7407121743E019
:10409400F9EEFCEFFDAA16AB17850C82850D831291
:1040A4001765740712170DE9F510800375100EA932
:1040B400107405023407F088828983A322A3E08563
:1040C400088285098322124110F022124110A3A311
:1040D400229001E312436722E0F50E750F00780E7B
:1040E40022850C82850D831235AAE022E0FAA3E032
:1040F400F8E4C8F9EA2822F08A828B83E0F50A758D
:104104000B00780A221240BA12411022E08508827C
:10411400850983A3A32274EE12176774FE1216F79F
:104124008A088B09ECFEEDFF890AAC18AD19EEFA8A
:10413400EFFB1205DD8A0C8B0DEA450D700302427C
:10414400028518828519831231441206D98A828B1A
:1041540083E582458370030241FDA3A31242728862
:104164000E890FE8450F70030241FD7414121743C2
:10417400E0F510A3E0F511E50AF50B780B12197EB2
:104184007419121743121991781012197A741B12A8
:104194001743E0F9AC0CAD0DAA08AB09850E828576
:1041A4000F83121765740512170DE9F50B7052741D
:1041B400FE650A604C850C82850D83E064027041C3
:1041C400124211FAA3E0F9EAF87402687003742940
:1041D40069702E8510828511831240F0F50CE43944
:1041E400F50D780C12197AEEFCEFFDAA08AB091252
:1041F400075D740212170D8008750B0E8003750B92
:1042040001A90B740212170D7F0A021839A3124276
:104214007688828983E02274F612176774FE121678
:10422400F7740C121743124272E8851882851983B9
:10423400F07401121743E9F0E4F508F5097808125F
:10424400197A750802780812197A740412174D88BD
:10425400088909780812197A79FE1207457406123A
:10426400170D740212170D023C238E828F831242A3
:104274007622E0F8A3E0F92274F7121767EAFEEB5E
:10428400FF89089001FA1240D81210A5EA5402607E
:104294000BA908EEFAEFFB1205D1800279017F0128
:1042A40002183974F212176774FE1216F7EAFEEB5D
:1042B400FF890A7401650A60147402650A600302C6
:1042C4004356790112095BE96003024356EEFAEFA3
:1042D400FB120727EA4B600312072DA818A91988B7
:1042E400088909780812197A75080275090078088E
:1042F40012197A750854750981780812197A7CFFA5
:104304007DFF7A017B001205D7740612170D8038E1
:10431400850882850983A3A3A3A3A3A3124360EE04
:10432400FAEFFB121099E4F50CF50D780C12197ADA
:1043340074021217431219917CFF7DFFAA08AB097E
:104344001205E3740412170D8A088B09E508450960
:1043540070BE740212170D7F060218391235AA12A4
:10436400436722E0FCA3E0FD2274F41217678A0875
:104374008B09ECFEEDFF901D29E0F4604B7A097B7C
:10438400001211C5EA4B60408A828B8374B1F0A39A
:10439400E41243CFF08A828B83A3A3E508F0A3E55C
:1043A400091243CFA3EEF0A3EFF0740C12174312DB
:1043B40042728A828B83A3A3A3A3A3A3A312379BD2
:1043C400901D29E0F91211D10226D6F08A828B833E
:1043D400A3A3A3A32274F4121767E9900268F0124E
:1043E4000CCD907800E0C4540F5407640370047932
:1043F4003F8002797F750806750900780812197ADA
:104404007C567D027AEA7B071210E7740212170DBC
:10441400900256E0F47049A3E0F47044A3E0F47011
:104424003FA3E0F4703AA3E0F47035A3E0F47030F5
:1044340090780EE0900256F090780FE0900257F0DA
:10444400907810E0900258F0907811E0900259F0C2
:10445400907812E090025AF0907813E090025BF0AA
:1044640090025C1245941259E19002867406F0A3FE
:10447400740D124C477442F0A37401F09005CD12F0
:1044840045949005CCE4F09005D304124C471245B2
:1044940082E4F0A304F0A3124C47124C45F09005BB
:1044A400E41245949005E3E4F09005EA04F0A3E4F3
:1044B400124582124C45F0A37405F09005F474FF84
:1044C400F0A3E4F09005F6F09005F804F09005F9F7
:1044D4007490F0A37401F0120A811209A3120C8BD8
:1044E40079017AFB7B05120B779005FBE075F014DC
:1044F40084E5F004F0790C7A1C7B06120B77120B1E
:104504008F7A00900268E0F9121285907803E064D3
:104514004270569005FBE014F0704EC2AF12452471
:1045240000781DD0E0F618D0E0F6E59F5407F87047
:10453400057509FF800375097FC4C0E0781CE6F5A2
:104544000808E65509F509740B78081216D5D0E069
:104554002508F8906270E0A2E740F8E8C33390625F
:1045640072F0906270E0D2E0F0900293E4F0A3F075
:104574007A80FB900268E0F91211F50249E91245CC
:104584008B12458BF0A322F0A37480F0A374022253
:1045940012459BF0A3F02274FFF0A3F0A3F0A3F064
:1045A400A32274F4121767EAFEEBFFEEA2E0504078
:1045B40090026AE0C39480E0500F25E0F8E433F9F8
:1045C400744D28F582741D800EF425E0F8E433F967
:1045D400745B28F582741D39F5831253C212176572
:1045E4007A00900268E0F9121285EE6401024788AD
:1045F400540870030246909005F2E0F875F00DA49B
:10460400C8AAF02AF9749928FA740239FB750800CB
:10461400780812197EEA2432F582E43BF5831253BA
:10462400AE740478081216D5780812197AEA243080
:10463400F582E43BF583121991EA242EF582E43BDA
:10464400F583E0F508A3E0C313F509E50813F508BD
:10465400780812197AEA2406F508EB3401F509788A
:104664000812197AEA240CF582EB125BF1FD7C0046
:104674008A828B83A3A3A3A3E0FA7B0079001208A8
:1046840011740912170DEE6408024788EE54106085
:1046940037750800780812197EE4F50978081219AC
:1046A4007A780812197A780812197A780812197A1D
:1046B4007D007C007A007B007902120811740912D3
:1046C400170DEE6410024788EE548060369005F9A9
:1046D400124F16E8496026790012127F9005F912EC
:1046E40053AEE4F50AF50B78081219767A007B01CB
:1046F400900268E0F9121303740412170DEE64803B
:10470400024788EF5401600C790112127FEEFAEF30
:1047140064018072EF5402600AC2AF75C9AB75C9F7
:104724005B80FEEF5404600A1223BDEEFAEF6404CA
:10473400805490026FE06401704FEE5420604A9000
:104744000269E024FB600924FE601B1460188031B8
:104754009005DBE0FA79001209F19005DBE0FA79C3
:10476400011209F1801B793F900297E0FA75F00D70
:10477400A4CAA8F028FB74992AFA74023BFB120B12
:1047840035EE6420FAEFFB80047A007B000249E9ED
:1047940074F6121767EA540F6004780180027800F7
:1047A400E8F98A088B09740478081216D5E50829F3
:1047B400F508750900740478081216E4E50824085D
:1047C400FAE43509FB12121F8A088B09A808A90903
:1047D400E8496009E82404FAE439FB80047A007BA0
:1047E40000024A1A74F6121767EA2405FA50010BFC
:1047F40012121F8A088B09A808A909E8496009E868
:104804002405FAE439FB80047A007B00024A1AC0CA
:1048140082C083C2AF120CAFE5E170FC75E10112F6
:104824000A6975E1F1120CD9120A5D7907120D6F4C
:104834007901120D757902120CF7120D2D120D5714
:104844007900120D697901120D699080F81215CD65
:10485400120CEB9005D4E4F09005EBF0120B1D1252
:104864000C2B120B417900120D7B9005C012459B55
:10487400741FF0906012E4F0A3F0906063F0751A76
:1048840000900269F09005C5F09005C6740CF09094
:1048940005C7E4F09005C804F09005C9E4F090025F
:1048A4006BF0A3F090026EF090026F04F09002851A
:1048B40004F09005F7E4F0D2AFF902548DC082C041
:1048C40083900256124A6A900257124A48F09002A4
:1048D40058124A53900259124A5990025A124A5E87
:1048E40090025B124A48A3A3A3A302548AC082C0C5
:1048F400838A828B83E090025C12582DE090025DE3
:10490400124A1F90025E1259C690025F1259D29049
:1049140002601259CDE090026102548AC082C083C1
:10492400120A8DE9F97005120D2D790002548D7467
:10493400F7121767EAFEEBFF8908120A8DE9F9708E
:104944002CE508600A74016508600A7912801E7CEF
:1049540000790080047C007901EEFAEFFB120D333C
:10496400E9F87403687004790780027900025678C4
:1049740074F6121767EA4B600EEC4D600A740A1263
:10498400174312580A70047912800F780812197AA2
:10499400120B89740212170D7900807A74F41217BD
:1049A40067EAFEEBFF8908900269E064096014E09D
:1049B400640A600FE0640B600AE0640C6005E06464
:1049C4000D7004790C801E120C558B0BEA450B708C
:1049D4000BA908EEFAEFFB120B77800990026BE04B
:1049E4004440F0790D7F0402183974F6121767EA0F
:1049F4004B6003E970047912801CEAFEEBFF89081E
:104A0400120B71E98E828F83F0A3AE82AF831508F7
:104A1400E50870EC79007F0202183912582DA3E0E2
:104A240022C082C083E9F8740168700B9005F774A2
:104A340001F0790002548DE870069005F7E480F1E6
:104A4400791280F0124A4C22E08A828B83A32212CC
:104A54004A4CA3F022124A64F022124A64A3F022C0
:104A6400124A4CA3A322E08A828B83F02274F712A9
:104A74001767900269E0640C701290618EE0F8741C
:104A8400806870368C828D83747F803AC3EB940F78
:104A94005024125834501F125A22125C0B7004799D
:104AA40002802675F00DEBA42EFB740128F58274A8
:104AB400033BF58380C77912800F90026DE0F9E81B
:104AC400C3998C828D83F0790002567874F712179B
:104AD40067E9FE74056E601E74136E601974146EBB
:104AE400601474156E600F741A6E600A74296E6017
:104AF40005743B6E7037C3EB940F50311258345029
:104B04002C125BF770047902803712583CEA24694E
:104B1400F582E43BF583E06401701EEA246AF582C1
:104B2400E43BF583E064027008793A8014791280DA
:104B340010124B48120B058006124B48120AF979E1
:104B440000025678EA24F7F582E43BF583EEF0EAB6
:104B5400241DF582E43BF583E4F0A3F0790222748A
:104B6400F5121767EAFEEBFF890AEC4D6014E9C3FE
:104B7400941C500E740B121743E0FA600A74016A15
:104B840060057912024C2BC3EF940F502DC3EE94A1
:104B940003EF94005024124C30125C0B7004790221
:104BA400801A124C30F9749928F508740239F50901
:104BB4009005C6E070087907806D79128069EC244D
:104BC400FEFCED34FFFD8C828D83E50AF0EA70046F
:104BD400740280027401A3F0EC24FEFCED34FFFDAA
:104BE400E5082463FAE43509FB120B5FA9A8C2AFF8
:104BF4009005C6E014F0E9A2E7E433F8E9A2E792ED
:104C0400AF900269E064086005E0640770179002E1
:104C140097E06E7001EF700D7900AA08AB09121DC0
:104C2400909061D0E079007F03021839EEF8EFF933
:104C3400E875F00DA4C8ABF02BFB75F00DE9A42BBF
:104C4400227425F0A3E4F0A32274F7121767E9FF96
:104C5400600574016F70377409121743E0FE600534
:104C640074016E7029EA24FCF8EB124D38501FECE5
:104C740024FCF8ED124D385015C3EA9CEB9D400E10
:104C8400740A121743E0F8600A7401686005791227
:104C9400024D359005D4E064017005790C024D3560
:104CA400EFA3F0E89005DAF0EE9005CC702FE4F075
:104CB400900256E09005CDF0900257E09005CEF0BA
:104CC400900258E09005CFF0900259E09005D0F0A2
:104CD40090025AE09005D1F090025B802E7401F0AE
:104CE40090025CE09005CDF090025DE09005CEF07E
:104CF40090025EE09005CFF090025FE09005D0F066
:104D0400900260E09005D1F0900261E09005D2F04D
:104D14009005D6EAF0A3EBF0A3ECF0A3EDF0E87075
:104D2400047900800774016870057901120D3979DE
:104D3400000256781254042274F0121767E9FEEA4E
:104D4400FF900269E064097003024E44E0640A7053
:104D540003024E44E0640B7003024E44E0640C70A2
:104D640003024E44E0640D7003024E449005D5E006
:104D7400600764016003024F119005CCE060076492
:104D8400016003024F119005D61253FA4003024FFB
:104D940011A31253FA4003024F119005D6C082901A
:104DA40005D8124F16758305D082C3E098A3E09905
:104DB4005003024F11EF600874016F6003024F113A
:104DC400EE6077146003024F119005D4E064016033
:104DD4006F7902120C499005CAEAF0A3EBF0900532
:104DE400D47401F09005D3F0EF9005DBF0900269E4
:104DF400E07042120A99120CC18A0C8B0D8C0E8D34
:104E04000F9080F0780C1215159080EC780C121528
:104E1400769005CA1253BA1215BE9005CA1253E809
:104E24009005D81253DB1215029005CA1253CB1207
:104E340015BE120C3179000259C19005D4E07004FA
:104E4400792180F3A2AFE433F50AC2AF120C558A7C
:104E5400828B83E58245836005E0F508800375084D
:104E6400FF9005D4E4F07ACA7B05120C4F120C6152
:104E7400E9F5096009740265086003024F08120C21
:104E8400AF906182E0C2E6F0E5E170FC75E1017586
:104E940091BF7901120D7575E1F17A017B009002E1
:104EA40068E0F91211FB9005DAE064017005120D57
:104EB400578017A3E0640170119005DAE0700B12BB
:104EC4000D2D120D577901120D63E50AA2E092AF80
:104ED400E509702D90026FE0640170187A207B0060
:104EE400900268E0F912130F7A207B00900268E0C8
:104EF400F91211FB7A00900268E0F9121285024E51
:104F040039024E36E50AA2E092AF024E3979120216
:104F14004E3BE0F8A3E0F92274E812176774FB1221
:104F240016F77403121743EAF0A3EBF07401121797
:104F340043ECF0A3EDF0E9851882851983F0900520
:104F4400EBE0640160267904120C5BE96401601CE7
:104F5400900269E064096014E0640A600FE0640B85
:104F6400600AE0640C6005E0640D70057921025369
:104F74008B74031217431253FA40030251847401D1
:104F84001217431253FA4003025184740312174355
:104F9400C082C0837401121743124F16D083D0828B
:104FA400C3E098A3E0995003025184741E1217437E
:104FB4001253AE851882851983E060096401600389
:104FC4000251848009E50845097003025184741D67
:104FD400121743E0600764016003025184742012D5
:104FE4001743E0600764016003025184742B1217B5
:104FF40043C082C0837429121743124F16D083D042
:1050040082C3E098A3E099500302518474211217DB
:1050140043E024FAF8A3E012539540030251847448
:1050240023121743E0FEA3E0FFEE24FAF8EF125335
:105034009540030251847421121743124F16C3EE94
:1050440098EF9950030251847425121743C3E094D6
:10505400F4A3E0940140030251847427121743120D
:10506400580024F6F8E50B125A129477E9940C4090
:1050740003025184850A0C850B0D7403780C1216F7
:10508400E4F50EF50F7425121743E02401F514A37B
:10509400E03400F515E4F516F517EEF8EFF9E82E0F
:1050A400F8E933F988108911E4F512F513781479C5
:1050B400101213DB780C791412139C5042120B3B20
:1050C400E964017005793A02538B7900EEFCEFFD37
:1050D4007421121743125A1C120B298A0C8B0D745B
:1050E400FF650C700474FF650D7005793B02538BEA
:1050F400851882851983E07008E5084509700280E7
:105104007F120B118A0E8B0FAE0EAF0FEE4F700590
:10511400790902538B8E828F83A3A3A3A3E0900506
:10512400F2F07403121743124F169005EC12542F29
:105134007401121743124F169005EE12542F85185E
:1051440082851983E09005F1F0EE245DF8E43FF9DF
:105154007AC07B0512581264C57003EB640570F4C1
:10516400EE245DFCE43FFDEEFAEFFB120B0BEE24A4
:105174003612539EC39402500CEEFAEFFB120B1737
:10518400791202538B850882850983E0C0E0EE24FE
:10519400061253A6D0E0125420E0C0E0EE24071219
:1051A40053A6D0E0125417E0C0E0EE24081253A630
:1051B400D0E0125417A3E0C0E0EE24091253A6D0A5
:1051C400E0125435E0C0E0EE240A1253A6D0E012F7
:1051D4005435A3E0C0E0EE240B1253A6D0E0F074E3
:1051E40020121743E09005E3F07420121743E07097
:1051F4002D900256E09005E4F0900257E09005E50A
:10520400F0900258E09005E6F0900259E09005E72E
:10521400F090025AE09005E8F090025B802B900237
:105224005CE09005E4F090025DE09005E5F090020A
:105234005EE09005E6F090025FE09005E7F09002F2
:1052440060E09005E8F0900261E09005E9F0741DDB
:10525400121743E0C0E0EE240C1253A6D0E0F01283
:105264000B47EAF8EBF9ECFAEDFBEE2426F582E4C1
:105274003FF5831215F1120A39EE2422F582E43F38
:10528400F5831215D9EE242EF582E43FF583E50C5F
:10529400F0A3E50DF0EE2432F582E43FF583E50A50
:1052A400F0A3E50BF07425121743124F16EE2430C9
:1052B4001254299005F3E0C0E0EE242AF582E43F7D
:1052C400F583D0E0F0EE242BF582E43FF5837402FD
:1052D400F0120B71E975F00C84E5F02405C0E0EEE2
:1052E4002437F582E43FF583D0E0F09005F074258F
:1052F400F0900296E0C3940240057901120CF17912
:1053040004120C499005E1EAF0A3EBF09005EB746C
:105314000112540D241AF582E438F58374B1F0A314
:10532400740A12540D2414F582E438F5837417F0CA
:10533400900269E0704F120CC18A0C8B0D8C0E8D9B
:105344000F9080DC780C1215159080EC780C1215F7
:10535400769005E11253BA1215BE9005E11253E896
:105364009005EE1253DB1215029005E11253CB1295
:1053740015BE8E828F83A3A3A3A3E0F9120A9F1202
:105384000AA5120C317900740512170D7F1002184A
:1053940039125A16947BE9940C22F582E43FF58382
:1053A400E022F582EF3401F583221253B222E0F5B4
:1053B40008A3E0F509221253C2A3A3780C22E0F853
:1053C400A3E0F583888222E0F8A3E0C8240EF582E6
:1053D400E438F583780C221253B2E4F50AF50B781D
:1053E4000C790822E0F8A3E0C82406F582E438F535
:1053F40083E4F0A3F022E024FCF8A3E01254042296
:10540400125A1694FDE9943F22F09005E1E0F8A3C6
:10541400E0C82212541B22125420A322F0850882D1
:10542400850983A322F582E43FF583E8F0A3E9F03C
:105434002212541BA3A322C082C0839005EBE06018
:10544400087904120C5BE97004790C80379005EB41
:10545400E4F0120C61E9702A90026FE064017018A4
:105464007A207B00900268E0F912130F7A207B0007
:10547400900268E0F91211FB7A00900268E0F912D8
:10548400128579008003F07900D083D08202011F55
:1054940074E8121767EAF8EBF9ECFAEDFB9002698D
:1054A400E064086005790C025661EA24FAFCEB34E6
:1054B400FFFDC3EC947BED940C40030255EC74188F
:1054C400121743E0FCA3E0FDEC24FAFEED34FFFFE9
:1054D400C3EE947BEF940C40030255ECC3EC9AEDBD
:1054E4009B50030255EC741A121743E0F516A3E01F
:1054F400F517C3E51694F4E517940140030255EC3F
:10550400741C121743E0FEA3E0FFEE24F6F508EF47
:1055140034FFF509C3E5089477E509940C400302C8
:1055240055ECC3E9940F5079C3E89403E99400500F
:10553400708808E875F00DA4C50885F00A250AF5F9
:105544000A75F00DE9A4250AF509749C2508F5826D
:1055540074023509F583E0700479028046E875F039
:105564000DA4C885F0082508F50875F00DE9A425F3
:1055740008F9749928F514740239F515E514246EA4
:10558400125664E0600AE514246A125664E0600C62
:10559400E5142473125664E06401700A793A0256E1
:1055A4006179120256618E088F0974037808121605
:1055B400E4F50AF50BE5162401F510E43517F511A9
:1055C400E4F512F513ECF8EDF9E82CF8E933F98871
:1055D4000C890DE4F50EF50F7810790C1213DB78B5
:1055E40008791012139C4004791280717901120B0E
:1055F4002974FF6A700374FF6B7004793B805EE565
:105604001424761256647402F0E514247712566456
:10561400E4F0A3F0E5142430F582E4351512566C59
:10562400E5142474F582E4351512542DE514247917
:10563400125664EAF0A3EBF0E514247B125664E5F9
:1056440016F0A3E517F0E514247D125664EEF0A3DA
:10565400EFF07900AA14AB15120AF97900025390FD
:10566400F582E43515F58322F583E02407F8A3E0F9
:105674003400F9227F0102183974F312176790027B
:1056840069E064086005790C0257E7EC4D60167414
:105694000D121743125800450B600A740F1217437A
:1056A40012580A700579120257E7C3EB940F504E53
:1056B4001258345049125A22125C0B700479028039
:1056C4003F75F00DEBA42EFB749928FE74023BFF8A
:1056D400EE24E412539E7017EE24E5F8E43FF97AC1
:1056E4007D7B0212581264857003EB640270F4EE41
:1056F40024E512539EA2E0400A79110257E7791279
:105704000257E7EE249CF8E43FF9EC2408FAE43D60
:10571400FB8C828D83E088828983125AC3AC82AD6C
:105724008388828983A3A882A983EA6C7002EB6DC3
:1057340070DF850A82850B83E0C0E0EE24A4F58245
:10574400E43FF583D0E0F0850A82850B83A3E0C0B3
:10575400E0EE24A5F582E43FF583D0E0F07C00A8D8
:1057640008A90988828983E0C0E0ECFAC3E49AFAC4
:1057740095E0FBEE2AFAEF3BFBEA24D2F582E43B08
:10578400F583D0E0F00C88828983A3A882A983ECF6
:10579400C3941040CEEE2494FAE43FFB120B7DEE4A
:1057A4002488FAE43FFB120B8390026BE04480F000
:1057B400EE24621257F624D31257F624D41257F665
:1057C400248312539E6401700A1257EC7401F07919
:1057D4000A80071257ECE4F07903EEFAEFFB120AA1
:1057E400F979007F05021839EE24DDF582E43FF5EE
:1057F4008322F582E43FF583E4F0EE22E0F50AA388
:10580400E0F50BE50A221253B2E5084509228A8223
:105814008B83E08882898312582DAA82AB83888285
:105824008983A3A882A983EA22F08A828B83A32294
:10583400C3EA9403EB94002275F00DEBA42CFB74E3
:105844009928FA74023BFB22790C02011F74F012AE
:105854001767890AEAFEEBFF120C558A088B0912B6
:105864000CC18A0C8B0D8C0E8D0F8E828F8374016C
:10587400F0E50A600A7401650A600479128072E531
:10588400084509604D780C121976850882850983CC
:10589400A3A31215CD12223B740412170DE960392B
:1058A4009080E0C082C083780C12197685088285C6
:1058B4000983A3A31215CD122297740412170D8A1B
:1058C4000C8B0D8C0E8D0FD083D082780C1213BCF0
:1058D4005007A90A120A758016E50A90026B700532
:1058E400E044018003E04402F08E828F83E4F07987
:1058F400000259C174F0121767890AEAFEEBFF121D
:105904000C558A088B09120CC18A0C8B0D8C0E8DD8
:105914000F8E828F837401F0E50A60117401650AA9
:10592400600B7402650A600579120259C1E50845E5
:1059340009604D780C121976850882850983A3A322
:105944001215CD12223B740412170DE960399080B0
:10595400E0C082C083780C12197685088285098399
:10596400A3A31215CD122297740412170D8A0C8B5F
:105974000D8C0E8D0FD083D082780C1213BC50077F
:10598400A90A120A7B8034E50A600B1460101460C3
:105994001514601A801F90026BE044048016900274
:1059A4006BE04408800E90026BE044108006900285
:1059B4006BE04420F08E828F83E4F079007F08024C
:1059C400183912582DA3A3E0221259D7A322125931
:1059D400D7E022F08A828B83A3A3A3A3229002564A
:1059E400E0900262F0900257E0900263F090025857
:1059F400E0900264F0900259E0900265F090025A3F
:105A0400E0900266F090025BE0900267F022125A86
:105A1400162234FFF9C3E822E0FAA3E0FB22EAF8F5
:105A2400EBF9E875F00DA4C8AEF02EFE75F00DE9A3
:105A3400A42E2274F0121767EAFEEBFF120C558AAB
:105A4400088B09120CC18A0C8B0D8C0E8D0F8E8263
:105A54008F837401F0E5084509604D780C121976BE
:105A6400850882850983A3A31215CD12223B7404F1
:105A740012170DE960379080E0C082C083780C1261
:105A84001976850882850983A3A31215CD1222975E
:105A9400740412170D8A088B098C0A8D0BD083D0DD
:105AA4008278081213BC5005120A87800D90026C8C
:105AB400E04401F08E828F83E4F079000259C1F052
:105AC4008C828D83A32274F712176774FF1216F762
:105AD400EA4B60078A828B837403F0EC4D60099073
:105AE4000296E08C828D83F0740A121743125A1CBA
:105AF400EA4B7003025BDB7F007E00807B7401F065
:105B0400E0C0E0EA2CF582E43BF583D0E0F0E82441
:105B140006125BEEC0E0125BE5D0E0F00FE824076C
:105B2400125BEEC0E0125BE5D0E0F00FE82408124F
