:020000040000FA
:06000000020107022125A8
:03002B0002236B42
:03003B000223910C
:0300430002234550
:0300530002219BEC
:10008300021F7BE5C754F84401F5C779012200003C
:100093000080FB120086B900030200F1E4791A78AC
:1000A30002B800028004F709D8FCE4791C7802B88E
:1000B30000028004F709D8FCE4900181782D791CB3
:1000C3008002F0A3D8FCD9FA7AAD7B1C9001377873
:1000D300E279018015E493A3AD82AE838A828B8398
:1000E300F0A3AA82AB838D828E83D8E9D9E7758288
:1000F3007A7583C97403120119758291758300742B
:100103000012011975D00075814F75188175190199
:10011300759F00020096C09FF59FE473D09F22D085
:1001230083D082C09FE493C0E0740193C0E0740263
:1001330093F59F2292039E03D403CE03FF0000B4E2
:10014300000028002800283075A000A000A000A00F
:100153000000080008E001F000100010001000107B
:10016300001000100050005000500010001000D08C
:10017300070000000000000F0001000500307507B4
:10018300001000010081FF00000000FFFFFF0202DA
:100193000297810100008681028F81010000071D03
:1001A300028981010000B801028F81010000081D4E
:1001B300029181010000CE01FFFF0100FF200297A1
:1001C300810100008381028F81010000361D029F9F
:1001D300810000000000028D81030000FA01170076
:1001E300DE0BDE0BDE0BDE0BDE0BDE0BDE0BDE0BC4
:1001F300DE0BDE0BDE0BDE0BDE0BBE0DDC0DB80DF6
:1002030001E803057710020AFFFFFF005331313085
:10021300303031FEFF120122A7BD03120122BABD05
:1002230003120122DBBD0312012246BE0312012287
:1002330087BE03120122A8BE03120122E9BE0312E4
:10024300012231BF031201229EA603120122B1A68D
:1002530003120122E2A6031201221CA703120122A8
:1002630075A703120122BCA70312012204A80312DB
:10027300012233A80312012262A80312012299A8C2
:1002830003120122E0A803120122F9A8031201229A
:100293004EA9031201227CA903120122B6A903125B
:1002A3000122888D021201228B8E02120122B88E46
:1002B30002120122098F021201222C8F0212012243
:1002C3003E8F02120122418F021201227F8F0212FE
:1002D3000122F38F021201225F9002120122279161
:1002E300021201224391021201227A910212012287
:1002F300B491021201224B92021201229D92021228
:100303000122CE9202120122FF92021201220C93C9
:100313000212012276930212012279930212012220
:10032300D09302120122D393021201220C940212DF
:1003330001220F94021201224394021201224694D5
:10034300021201229A9402120122E3940212012260
:10035300F39402120122269502120122339502120E
:1003630001223695021201229E9502120122A096C5
:1003730002120122449702120122AD9702120122B6
:10038300EB9702120122DDB502120122DAB6021244
:10039300012270B702120122BBB7021201221FB859
:1003A30002120122A9B80212012262B90212012229
:1003B30084BC0212012201BE0212012224BE0212D7
:1003C3000122C19203120122669403120122869430
:1003D30003120122A79503120122FA9503120122A7
:1003E300219B03120122499B03120122769B0312D4
:1003F3000122AE9B031201220C9C03120122589C82
:1004030003120122BF9C03120122FF9C031201224B
:100413003C9D031201226A9D03120122149E0312C2
:1004230001221E9E031201222B9E031201225E9EB5
:10043300031201226A9E03120122829E03120122E9
:100443008C9E031201227AC50312012288C503126E
:100453000122A0C503120122B8C503120122CFC590
:10046300031201224DD401120122F7D401120122F9
:1004730073D50112012291D601120122CDD60112A8
:10048300012268D7011201224CD8011201220FD98F
:100493000112012287D90112012215DB0112012267
:1004A30086DB0112012240DC0112012232DD01123E
:1004B300012272DD0112012226DE0112012258DE21
:1004C300011201224EE00112012290E001120122E9
:1004D300AEE00112012233E101120122F7E1011220
:1004E300012216E4011201221A9F03120122309FF6
:1004F300031201224E9F031201225FA00312012265
:1005030069A00312012294A1031201228BA20312F8
:100513000122F8A2031201228EF80212012232F9FB
:100523000212012269F902120122C0F90212012208
:10053300D5FB02120122EDAC011201229EAD011284
:100543000122B3AD011201227CAE0112012296AE4B
:10055300011201226CAF011201225EB001120122CD
:1005630015B10112012223B40112012212B60112A4
:100573000122C4B6011201228DB701120122D2BA9F
:10058300011201227CBB01120122A5BC011201222E
:1005930061BE0112012201BF011201224FBF0112EC
:1005A30001228EBF0112012261C00112012295C0F6
:1005B3000112012222C10112012218C201120122D9
:1005C300A4C20112012208C40112012214C401129F
:1005D30001224FC401120122BEC401120122C7C568
:1005E30001120122D0C60112012297C70112012272
:1005F300F4C80112012212C9011201222FC90112EA
:100603000122FAC90112012222CA01120122ECCCF1
:1006130001120122F1CC011201220ACF011201229F
:1006230058CF01120122C8CF0112012206D00112B4
:100633000122E2D001120122A2D101120122EED144
:1006430001120122F1D10112012235D2011201223C
:100653007DD201120122BCD201120122DED201128B
:10066300012212D30112012275D30112012284F354
:10067300021201228DF3021201229BF302120122C4
:10068300EEF3021201220DF40212012252F40212BD
:10069300012296F50212012231F60212012275F6A9
:1006A300021201229FF6021201220EF70212012208
:1006B30054F702120122CBF7021201227CF8021234
:1006C30001220B2400120122AC240012012208256E
:1006D30000120122C52500120122E1260012012287
:1006E300132700120122422700120122EF280012D1
:1006F3000122662B00120122D62D00120122C82EE0
:1007030000120122C12F00120122C831001201225E
:10071300BC3400120122EB3500120122EF37001224
:100723000122FF38001201228E3A001201227F3B80
:1007330000120122CD3B001201223C3C0012012297
:10074300603C00120122B13C00120122524100120E
:100753000122534200120122B44200120122DF425D
:1007630000120122A543001201220080031201227C
:100773000A80031201224F800312012263800312B5
:100783000122F380031201221B81031201225681ED
:10079300031201227F8103120122B381031201227A
:1007A300C8810312012233820312012254820312ED
:1007B30001226882031201227D8203120122B78281
:1007C30003120122DB820312012226830312012278
:1007D300AE8303120122F48303120122378403122E
:1007E30001226184031201229D84031201226CC23F
:1007F30003120122EB7400120122CE7500120122B2
:10080300497600120122847600120122D577001264
:1008130001225E7800120122767A00120122087DFD
:1008230000120122BA7D00120122D97E0012012298
:10083300327F0012012261EE02120122A4EE0212A3
:10084300012228EF02120122FBEF02120122D2F24F
:1008530002120122CCB30312012279B40312012242
:1008630086B503120122C5B5031201221FB6031276
:10087300012239BA031201229CBA0312012239BBA5
:100883000312012267BB0312012288BB0312012258
:10089300C3BB03120122E3BB03120122C58403126B
:1008A3000122518503120122108603120122288797
:1008B3000312012242890312012229AC02120122EE
:1008C3004EAC0212012222AD021201228FAD02129E
:1008D3000122E5AD0212012281AE02120122B5AF5F
:1008E3000212012290B002120122EFB00212012281
:1008F300C0B1021201224CB2021201224FB2021203
:10090300012299B2021201220BB302120122B6B3E1
:1009130002120122D6B3021201221EB402120122D4
:100923003AB402120122B4B402120122C2B4021276
:10093300012251B502120122BAB5021201222B8EF5
:1009430003120122B08E03120122F28E031201223E
:10095300D68F0312012243900312012287900312C0
:100963000122CB9003120122F8900312012220915D
:1009730003120122589103120122969103120122BC
:10098300BD910312012237920312012281920312B5
:100993000122114400120122DE4500120122CC473C
:1009A300001201222048001201224B4800120122AA
:1009B300F948001201222949001201225849001264
:1009C30001226B4900120122AC4900120122D849CD
:1009D30000120122264A001201225D4A001201225E
:1009E300A94A00120122084B001201229B4B00125C
:1009F3000122854C00120122744D00120122544F32
:100A030000120122735400120122CC54001201225D
:100A1300B55600120122845800120122895800128F
:100A230001223059001201226F5A00120122025B87
:100A330000120122505C00120122615C00120122AB
:100A430084FD021201226FFE02120122B2FE021283
:100A5300012201FF0212012252FF02120122A3FF0F
:100A630002120122845C00120122055D00120122A0
:100A7300325D001201227B5D001201227C5E0012B6
:100A83000122C15E00120122ED5E001201226960A3
:100A930000120122EB6000120122486100120122C0
:100AA3009B61001201228A62001201221F6400125C
:100AB3000122E96400120122F96400120122236574
:100AC300001201222665001201220966001201228A
:100AD300F46600120122A16700120122FE670012D0
:100AE3000122576800120122BB68001201226369C8
:100AF30000120122FF69001201228C6A00120122F6
:100B0300016B001201225D6B00120122BC6B00120B
:100B13000122E36B00120122A16C00120122926EEA
:100B230000120122DB6E001201220B6F0012012260
:100B33007E6F00120122047100120122B4710012AF
:100B43000122D971001201221872001201222D72A2
:100B530000120122707200120122E07200120122BF
:100B63002A7300120122347400120122B574001298
:100B7300012269A202120122B4A202120122C0A21E
:100B83000212012294A302120122ABA30212012238
:100B9300E8A30212012219A40212012251A4021293
:100BA3000122A7A402120122BDA402120122F9A468
:100BB300021201220CA50212012233A50212012204
:100BC30067A5021201228DA602120122D7A70212E3
:100BD3000122D3A802120122F0A902120122F97FF5
:100BE3000012012234E902120122E2EC0212012274
:100BF30016EE02120122B0F20112012273F5011264
:100C0300012279F50112012236F80112012290FA2C
:100C130001120122798903120122108A031201228F
:100C2300CE8A03120122F88A031201222E8D0312A7
:100C33000122A28101120122DD8101120122318CE4
:100C4300011201229D8D011201229A8E01120122AD
:100C53001F920112012205930112012251930112E5
:100C630001226B9301120122AC9301120122B5936D
:100C7300011201226594011201223595011201220C
:100C83007C9501120122E295011201225496011270
:100C93000122B3B00312012290B103120122D4B195
:100CA300031201220EB203120122A6B20312012281
:100CB30015B3031201221EB3031201222AB3031236
:100CC300012244B3031201226EB3031201229EB325
:100CD3000312012276DD0212012283DD02120122B8
:100CE3009DDD02120122D0DD021201220EDE02126C
:100CF300012273DE0212012288DE021201229FDE2C
:100D030002120122ADDE02120122BCDE0212012216
:100D1300D1DE02120122E6DE02120122F1DE02120C
:100D23000122FDDE021201220ADF0212012219DF73
:100D33000212012224DF0212012249DF02120122E0
:100D4300EDDF0212012202E00212012217E0021279
:100D5300012231E0021201224EE0021201226BE075
:100D63000212012276E00212012222E10212012282
:100D730003E20212012228E20212012233E20212EA
:100D8300012248E2021201225CE202120122BDE2C8
:100D930002120122C3E202120122C9E2021201225B
:100DA300CFE202120122E7E2021201221AE3021247
:100DB3000122119802120122339802120122FB9898
:100DC30002120122B59B02120122CB9C02120122C4
:100DD300EC9D02120122C69E02120122759F02128D
:100DE30001220580021201229C8002120122348119
:100DF300021201222482021201225B8202120122C8
:100E03006E8202120122DC82021201227784021214
:100E130001229E840212012240850212012275855D
:100E230002120122868502120122FF85021201228B
:100E330020860212012238860212012290870212B2
:100E43000122998902120122E98B02120122EC8C00
:100E5300021201223B8D0212012223E4011201221C
:100E630020E5011201220BE60112012215E601120F
:100E7300012237E60112012243E60112012295E71E
:100E830001120122C4E701120122F4E80112012236
:100E930036E90112012262EA0112012238EB011242
:100EA30001228AEB01120122E9EB0112012220EC5B
:100EB300011201225BEC01120122F6EF0112012261
:100EC3000FF00112012291F0011201229FF0011291
:100ED3000122F4F00112012202F1011201226FF149
:100EE30001120122E1F10112012227F20112012272
:100EF300F1BB0312012216BC0312012287BC0312A9
:100F0300012247BF0212012250BF0212012259BF20
:100F1300021201228AC002120122A9C20212012274
:100F2300DFC20212012219C3021201224FC30212AD
:100F3300012289C302120122BDC302120122E9C3A5
:100F43000212012232C4021201226CC402120122D3
:100F5300B4C4021201220AC5021201223FC50212C1
:100F630001229AC502120122D4C50212012225C60A
:100F7300021201225BC60212012295C6021201224D
:100F8300B8C60212012223C7031201224FC703125C
:100F93000122AAC703120122B4C703120122C4C744
:100FA300031201229CE302120122DBE3021201225B
:100FB30064E40212012279E402120122C4E402125F
:100FC300012203E502120122B8E50212012211E611
:100FD3000212012260E602120122B9E60212012284
:100FE300C6E702120122BFE802120122FCE8021244
:100FF3000122BBC803120122A09701120122209AE9
:1010030001120122949B01120122F19B0112012280
:101013009A9C01120122979D011201221F9E011227
:101023000122AB9E011201224CA101120122BDA19A
:1010330001120122A9A201120122E3A2011201223B
:1010430023A301120122C3A401120122F4A4011259
:10105300012249A50112012296A50112012207A628
:10106300011201222AA60112012244A60112012221
:101073005AA7011201226AA701120122FBA8011239
:1010830001221BA90112012251A901120122D5AA91
:10109300011201224EAB011201228DAB011201227A
:1010A300BFAC011201226CB803120122D0B80312A3
:1010B30001227FB9031201229EB903120122F2B960
:1010C3000312012289CA03120122CDC9031201228C
:1010D3000CCA0312012276CA03120122CEC70312DD
:1010E3000122DEC703120122F3C7031201223CC807
:1010F3000312012280C30312012204C4031201223A
:101103006AC403120122FC7F0012012202A303120C
:10111300012219A30312012292A30312012267A43D
:101123000312012239A60312012279AD031201220F
:101133000BAE0312012289AE0312012210AF031278
:101143000122A2AF03120122F9AF0312012203B05D
:101153000312012212B00312012228B0031201224A
:101163003BB0031201229CB003120122B0B0031260
:101173000122A3FE011201220DFF0112012218FF19
:101183000112012228FF0112012233FF0112012261
:101193004FFF011201225AFF01120122FAC003126A
:1011A300012223C1031201224CC103120122E5C112
:1011B3000312012227C20312012246C7021201228F
:1011C30050C70212012290C702120122D9C702128C
:1011D300012213C80212012269C80212012288C81F
:1011E300021201220DCB0212012216CB021201229E
:1011F30067CB0212012290CB02120122A5CB02126D
:10120300012215CC02120122A3CC02120122E7CC47
:10121300021201220FCD021201228ECD02120122EF
:10122300D1CD021201220ECE0212012220CE0212D1
:1012330001223FCE0212012248CE021201220DCF1B
:10124300021201225CBF03120122ADBF031201226D
:1012530036C0031201229CC0031201221EAA0312EC
:10126300012248AA0312012242AB0312012267ABF7
:101273000312012208AC031201228EAC03120122D5
:1012830083C4031201226AB603120122A0B6031219
:101293000122D9B60312012232B80312012245C832
:1012A300031201225BC80312012265C80312012243
:1012B3001BC90312012239CF02120122F6CF0212F7
:1012C300012231D00212012259D002120122BBD0D5
:1012D3000212012207D10212012272D1021201224B
:1012E300EED102120122EAD20212012271D40212B9
:1012F3000122F4D40212012258D5021201226FD521
:101303000212012265D602120122B1D60212012273
:101313000797031201221C9703120122CF9703128E
:1013230001220F98031201222898031201225B98CD
:1013330003120122A89803120122DC98031201224E
:101343001E9903120122149B031201225FC603128A
:1013530001227AC60312012295C603120122BBC6DB
:10136300031201220FD7021201229DD7021201227A
:10137300B4D70212012285D80212012288D80212A0
:101383000122E2D9021201227FDA02120122BDDA1E
:1013930002120122C6DA0212012234DB02120122F6
:1013A30083DC02120122D2FF0112012216CA0312A8
:1013B30001224DCA03120122DB7F00E06670100890
:1013C300A3E066700A08A3E066700408A3E066223F
:1013D300C3E7960809E7960809E7960809E79622FE
:1013E300C3E09608A3E09608A3E09608A3E096223C
:1013F300C008C3E096F50808A3E096420808A3E0F6
:1014030096420808A3E09645087001D3D008220845
:101413000808EAC0E0EBC0E086F0E7A4FA18098602
:10142300F0E7A42AFA180986F0E7A42AFA1809862D
:10143300F0E7A42AFA1986F0E7A4FBE5F02AFA19E3
:101443000886F0E7A42BFBE5F03AFA190886F0E7E3
:10145300A42BFBE5F03AFA18180986F0E7A4C5F0C7
:101463002BFBE43AFA1908E7C5F0C6A426F6E5F023
:101473003BFBE43AFA1886F0E7A4F6E5F00826F613
:10148300E43B08F6E43A08F6D0E0FBD0E0FA22E4C5
:10149300CFC0E0E4CEC0E0E4CDC0E0E4CCC0E07572
:1014A300F020E626F608E633F608E633F608E633D8
:1014B300F6181818EC33FCED33FDEE33FEEF33FF73
:1014C300C3EC9709ED9709EE9709EF97191919409E
:1014D3000FFFEC97FC09ED97FD09EE97FE1919062E
:1014E300D5F0BFECF709EDF709EEF709EFF7191996
:1014F30019D0E0FCD0E0FDD0E0FED0E0FF22601682
:10150300080808C6C313C618C613C618C613C618D8
:10151300C613C6D5E0EA2270090808082260161827
:101523001818C6C333C608C633C608C633C608C6AA
:1015330033C6D5E0EA22E627F60809E637F60809B6
:10154300E637F60809E637F622E026F608A3E03682
:10155300F608A3E036F608A3E036F622E026F00804
:10156300A3E036F008A3E036F008A3E036F022C388
:10157300E697F60809E697F60809E697F60809E6F6
:1015830097F622C3E096F008A3E096F008A3E0964E
:10159300F008A3E096F022E657F60809E657F608A6
:1015A30009E657F60809E657F622E056F608A3E0DF
:1015B30056F608A3E056F608A3E056F622E056F0E6
:1015C30008A3E056F008A3E056F008A3E056F02283
:1015D300E066F608A3E066F608A3E066F608A3E073
:1015E30066F622E0F608A3E0F608A3E0F608A3E017
:1015F300F622E6F008A3E6F008A3E6F008A3E6F077
:1016030022E0FAA3E0FBA3E0FCA3E0FD22EAF0A3BF
:10161300EBF0A3ECF0A3EDF022E0F8A3E0F9A3E0F4
:10162300FAA3E0FB22E8F0A3E9F0A3EAF0A3EBF0CE
:1016330022CAC0E0E6F0A308DAFAD0E0FA22CAC070
:10164300E0E0A3C582CCC582C583CDC583F0A3C525
:1016530082CCC582C583CDC583DAE6D0E0CA22C376
:10166300E498F8E499F91216A38026C3E49AFAE4FD
:101673009BFBE920E7E91216A3E498F8E499F92221
:10168300C3E498F8E499F91216A3E498F8E499F9F5
:10169300C3E49AFAE49BFB22EB20E7CFE920E7E0DF
:1016A300B90010BB0008E88AF084F8AAF022E4FB32
:1016B300C8FA22EB70227B10C833C8C933C9335030
:1016C30007C39AC3DBF280069A50012ADBEAC833C8
:1016D300F4C8C933F4C9FA2275F008E4C833C8C999
:1016E30033C933C99AC99B5004C92AC93BD5F0EC05
:1016F300FBC833F4C8E4C9FA22600D08C6A2E71395
:10170300C618C613C6D5E0F322600C08C6C313C6B9
:1017130018C613C6D5E0F422700422600D18C6C3A0
:1017230033C608C633C6D5E0F41822251810AF080F
:10173300F518400C15198008F51840021519D2AF99
:101743002200C0D0251810AF08F518500C051980D9
:1017530008F51850020519D2AFD0D0222518F5820A
:1017630010AF08F518400C15198008F5184002153C
:1017730019D2AF851983222518F582E43519F5832B
:10178300222518F8E43519F9222518FAE43519FB4E
:10179300222518FCE43519FD22E4732518C582C0FF
:1017A300E0E51934FFC583C0E0E518C3958224F84A
:1017B30010AF08858319858218800885831985826F
:1017C30018D2AFCEF0A3E520F0A37808E608F0A383
:1017D300DEFAEFF0A3E58124FAF8E608F0A3E608C1
:1017E300F0A3E608F0A30808E608F0A3E608F0A3D0
:1017F30015811581D0E0FED0E0F8158115811581A2
:10180300E8C0E0EEC0E0222518C582C0E0E5193447
:10181300FFC583C0E0E518C3958224F910AF08859E
:1018230083198582188008858319858218D2AFCEE3
:10183300F0A3E520F0A37808E608F0A3DEFAEFF0C2
:10184300A3E58124FBF8E608F0A3E608F0A3080863
:10185300E608F0A3E608F0A315811581D0E0FED0D9
:10186300E0F815811581E8C0E0EEC0E02285198318
:10187300851882E0A3FEE0A3F5207808E0A3F6082C
:10188300DFFAE0A3FFE0A3C0E0E0A3C0E0E0A3C071
:10189300E0E0A3C0E0E0A3C0E010AF0885821885B4
:1018A30083198008858218858319D2AFD083D082AB
:1018B30002011F851983851882E0A3FEE0A3F520AA
:1018C3007808E0A3F608DFFAE0A3FFE0A3C0E0E0B6
:1018D300A3C0E0E0A3C0E0E0A3C0E010AF088582AE
:1018E300188583198008858218858319D2AFD08320
:1018F300D08222C0D02518C582C0E0E51934FFC5C7
:1019030083C0E0E518C3958224F310AF08858319DB
:101913008582188008858319858218D2AFC8F0A301
:10192300E9F0A3EAF0A3EBF0A37908E709F0A3D861
:10193300FAECF0A3EDF0A3EEF0A3EFF0A3D0E0F008
:10194300A3D0E0F0A3D0E0F0A3E520F0A3E5F0F00E
:10195300A322851983851882E0C0E0A3E0F9A3E000
:10196300FAA3E0FBA37808E0F608A3DFFAE0FCA300
:10197300E0FDA3E0FEA3E0FFA3E0C0E0A3E0C0E03E
:10198300A3E0F5D0A3E0F520A3E0A3F5F010AF08A2
:101993008583198582188008858319858218D2AFBB
:1019A300D082D083D0E0F8D0E03274048006740291
:1019B30080027401C0E0F40412175FD0E012163401
:1019C300227404800474028000CCC0E0EDC0E0E522
:1019D30018C39CCCAD1950011D10AF068C188D197E
:1019E30080068C188D19D2AF121641D0E0FDD0E0DD
:1019F300FC22D083D082E9C0E0E493A3C386F0C580
:101A0300F095F0F908E493A386F0C5F095F0700B18
:101A1300E493A3C3994005E9048002A3E475F002AB
:101A2300A42582F582E5F03583F583D0E0F9E493CC
:101A3300A3C0E0E493C0E022D083D082ECC0E0ED09
:101A4300C0E0E493A3FCE493A3FDED4C600D121AF4
:101A530087EC24FFFCED34FFFD80EFE493A3FCE46B
:101A630093A3FDED4C600D121AC6EC24FFFCED347C
:101A7300FFFD80EFD0E0FDD0E0FCE493A3C0E0E401
:101A830093C0E022C0E0C3E49396087401939618D0
:101A9300400FE49366700808740193661870007031
:101AA30019A3A3C3E49396087401939618A3A340C0
:101AB3000DD0E0D0E0D0E0021A77A3A3A3A3A3A3A1
:101AC300D0E022C0E0C0F088F0E4936670080874A8
:101AD300019366187000A8F0A3A3700BD0F0D0E0B8
:0E1AE300D0E0D0E0021A77A3A3D0F0D0E0222A
:101AF40074F612180AEAFEEBFF8C088D09EE243402
:101B0400F8E43FF9E8FCE9FDEE2435121DC0FAEED5
:101B14002437121DC0F88508F0A4C885F00A850989
:101B2400F0A4250AF9EA28F8E439F97A257B0012A9
:101B340016A3EA8C828D83F0FA131313541FF8EE64
:101B440028F8E43FF9E8245DF582E439F583E0C040
:101B5400E074075AF8D0E0B800028004C313D8FC3C
:101B6400A2E0EE50082434F582E43F8018243612B3
:101B74001DC0F5F0EA84A8F0EE28F8E43FF9E82463
:101B840038F582E439F583E0F97F030218B674F777
:101B940012180AEAFEEBFFEE2434121DC0C0E0EE78
:101BA4002435F582E43FF583D0E0F08E828F83A361
:101BB400A3A3A3A3A3A3C082C0838E828F83A3A362
:101BC400A3A3A3E0F8A3E0F9D083D082E0C398F5FF
:101BD40008A3E099F509EE247F121DC06401703E4C
:101BE400EE2480F582E43FF583C082C0838E828F29
:101BF40083A3A3A3A3A3E0240108A3E03400F9D0A2
:101C040083D082E0687003A3E06970127CC07D0514
:101C1400120B12EE247FF582E43FF583E4F0AC0866
:101C2400AD09EEFAEFFB121AF4E9F91223377F0239
:101C34000218B674EF12180A900269E0640860058D
:101C4400E06407702A9061C8E06024900297E0F491
:101C5400601DE0F875F00DA4C8AAF02AF97499285B
:101C6400FE740239FF8E828F83A3A3A3E070030264
:101C74001D45906060E0C0E0EE2468F582E43FF525
:101C840083D0E0F0750CFC750D057508007509002E
:101C9400E5D914F50AE5D95403F50E601274036509
:101CA4000E6043E50A600AEE2467121DC0700280CC
:101CB400759005F7E06401601F121DBD60047A048D
:101CC40080027A00E50AC39AFA95E0FB1209A48A15
:101CD400088B09EA45097005120D948064121DBD34
:101CE40070048A0C8B0DE50A6012850C82850D83C5
:101CF400F50BE5D9F0A3150BE50B70F6121DBD60CD
:101D04004474FC250AF50A780C1219B1AC0AA90E20
:101D1400EEFAEFFB120BD87402121744E97026AAEC
:101D240008AB0912124A793D8E828F83A3A3A3A321
:101D3400E0FA7B0012081EEEFAEFFB120B36120CCF
:101D4400387900806F7403650E6051850A1075112F
:101D54000078101219B1AC0CAD0DAA08AB09120B26
:101D64009C7402121744EE2468121DC0648070042F
:101D7400747F8001E0F50C780C1219B5E50EF50CB2
:101D8400780C1219B5A90AAC08AD09900297E0FACB
:101D94007B001207EE74021217448013900269E06C
:101DA4006408700BAC0CAD0DEEFAEFFB120C0812CC
:101DB4000DA079017F0A0218B6EE2483F582E43F70
:101DC400F583E02274F212180A74FC12172EEAFE4C
:101DD400EBFF8909A2AFE433F508C2AF021E92E01B
:101DE400601B780C1219B1AC0BA90EEEFAEFFB12C2
:101DF4000BD274021217447404250BF50B740125DD
:101E04000BF5D9850ED9E50B6018F50A850C82858A
:101E14000D83E0F5D9A385820C85830D150AE50AA7
:101E240070EA75E195EE2463F8E43FF97A007B00EB
:101E3400A2AFE433F50BC2AF88828983E0FCA3E050
:101E4400FDEC4D603A88828983E0FAA3E0FB8A8244
:101E54008B83E0FCA3E0FD88828983ECF0A3EDF0A2
:101E64008A828B83E4F0A3F088828983E0FCA3E078
:101E7400FDEC4D700A88828983A3A3E4F0A3F0E506
:101E84000BA2E092AF12124A9005C7E004F0EE24D0
:101E940063121DC0F8A3E0F9E8496064EE246312FC
:101EA4001DC02402F8A3E03400F988828983E58206
:101EB4002402F50CE43583F50DE0F50BA3E0F50EF3
:101EC400EE2462121DC0640170369061D0E0F812F5
:101ED4001DBD60047C0480027C007480C398FA9564
:101EE400E0FBE50B2CF8E43400F9E82402F8500197
:101EF40009C3EA98EB99A2D265D0334003021DE3EB
:101F04009005C7E0604D9005C8E0F89005C7E0C3B0
:101F140098500C74026509703A9005C9E060348EDB
:101F2400828F83A3A3A3A3E0851882851983121F3C
:101F340067740212177AE8121F679005C6E028F04A
:101F44007402121794AA18AB197901120848900563
:101F5400C7E4F0E508A2E092AF74041217447F07C7
:101F64000218B6F0A3E4F09005C7E0F822000000E0
:101F7400851A87851BC622C0E074EB1218F6A2AF3F
:101F8400E433F508C2AF759B00906182E0A2E05093
:101F940030E591A2E0502A7591FE7401651A702112
:101FA40012210E120CC81220FC1219C412227374CE
:101FB40004121744E9640170057901120CF8121C2B
:101FC40037906182E0A2E5505DE591A2E550577536
:101FD40091DF900269E064076005E06408702F12E5
:101FE400210E7401651A703E120CC81220FC1219DD
:101FF400C41222737404121744E964017005790150
:10200400120CF87901EEFAEFFB121DC88018E06497
:102014000D701390028BE004F064287002E4F07AEF
:1020240000E0F9120DA6906182E0A2E640030220CE
:10203400D1E591A2E640030220D17591BF900269D7
:10204400E064057008120CB0120CBC8003120CB6CC
:10205400751A00120D16E990026AF07900120CF854
:10206400120A767A017B00900268E0F912121A9043
:102074007803E0644270569005FBE014F0704EC2A1
:10208400AF12208800781DD0E0F618D0E0F6E59F66
:102094005407F87005750DFF8003750D7FC4C0E00B
:1020A400781CE6F50A08E6550DF50B740B780A1250
:1020B400170CD0E0250AF8906270E0A2E740F8E837
:1020C400C333906272F0906270E0D2E0F09061816C
:1020D400E0A2E35009E5E9A2E3500375E9F7A3E0C0
:1020E400A2E75009E591A2E7500375917FE508A2A4
:1020F400E092AF7F080219558E828F83E0F8A3E047
:10210400C82416F582E438F58322900297E0F87526
:10211400F00DA4C8AAF02AF9749928FE740239FFB4
:1021240022C0E0C0D0C082C083906183E0A2E050AE
:1021340009E5BFA2E0500375BFFEE0A2E15009E546
:10214400BFA2E1500375BFFDE0A2E25009E5BFA2C2
:10215400E2500375BFFBE0A2E35009E5BFA2E350E0
:102164000375BFF7E0A2E45009E5BFA2E45003758C
:10217400BFEFE0A2E55009E5BFA2E5500375BFDF5C
:10218400E0A2E65009E5BFA2E6500375BFBFD083C5
:10219400D082D0D0D0E032C0E074F21218F6E5A7B5
:1021A400A2E6500FE5A1A2E6500953A7BF75A1BF4F
:1021B4001221EFE5A7A2E5500CE5A1A2E5500653D4
:1021C400A7DF75A1DFE5A7A2E15009E5A1A2E150CF
:1021D4000375A1FDE5A7A2E2500CE5A1A2E2500619
:1021E40053A7FB75A1FB7F0102195574F712180A56
:1021F400751A01900269E064067015120C5C8A82FB
:102204008B83A3A3A3A3A3A3E0FAA3E0FB120C9ED6
:10221400A2AFE433FED2AF90026FE0640170187A8B
:10222400207B00900268E0F91213347A207B00903E
:102234000268E0F9121220906182E0D2E6F0900583
:10224400F8E0602185C61B801690026EE064017080
:1022540008E5C654F84405F5C653BEFC121F747451
:1022640001651A60E4EEA2E092AF7F020218B67430
:10227400F112180A8A088B098C0A8D0B9081477811
:10228400081215AD740F12177A780C1215E69081A6
:1022940047780C1215AD7808790C1213D390813B52
:1022A40050107808790C12157278081213F3401440
:1022B400800E780C7908121572780C1213F35004FE
:1022C4007901800279007F080218B674ED12180AA9
:1022D4008A088B098C0A8D0B90814778081215ADFA
:1022E400741312177A780C1215E6908147780C1241
:1022F40015AD780C79081213D340117808790C12B3
:102304001572AA08AB09AC0AAD0B802275100075D2
:1023140011007512007513017810790C121572787A
:10232400107908121539AA10AB11AC12AD137F0C39
:102334000218B6C082C083E9906000F0D083D082D6
:1023440022C0E074F21218F6A2AFE433FED2AFC298
:10235400C0E5D1A2E4500675D10F12116CEEA2E0D3
:1023640092AF7F01021955C0E0C0D0E8C0E0E9C0D7
:10237400E0A9A8D2AFC2C7E9A2E7E433F8E9A2E72B
:1023840092AFD0E0F9D0E0F8D0D0D0E032C0E0C0D5
:10239400D0E8C0E0E9C0E0EAC0E0C082C083A2AFF8
:1023A400E433FAD2AF900E5BE0F8A3E06870085310
:1023B4009AFBA374018022C2E9900E5BE0F87401D9
:1023C40028F074DB28F582E4340DF583E0F5C19040
:1023D4000E5BE0C394804002E4F0EAA2E092AFD046
:1023E40083D082D0E0FAD0E0F9D0E0F8D0D0D0E0C9
:0723F40032C2AF020000221B
:1023FC00FFFFFFFFFFFFFFFFD083D08202011F749E
:10240C00F612179EE99001DCF090023BE0F508759E
:10241C0009007402780812171BAA08AB0912129251
:10242C009001DD122DBE9001DD1231AB606F900278
:10243C003BE075F003A4FAABF01212929001FA1281
:10244C002DBE9001FA1231AB700B9001DD12317C74
:10245C0012129880489001FA1241107AFF7BFF12F9
:10246C0010A67A0080198A0875090074027808127F
:10247C00171B123BB874FF1225BEE4F0A3F00A90B0
:10248C00023BE0F8EAC39840DD79051206D49001CE
:10249C00DCE0F91205C67A5E7B07120944023C5B4C
:1024AC0074F412179E8A088B09EB548060479001D4
:1024BC00DCE0F91212028A0A8B0BAE0AAF0BEE4F5C
:1024CC00602A8E828F83E064B0701A1206E6E9608F
:1024DC00148E828F83A3A3A3A3E0F9EE2405FAE460
:1024EC003FFB1206BCEEFAEFFB1211F0AA08E5094D
:1024FC006480FB80047A007B0002270E74F21217B2
:10250C009E74FB12172EEAFEEBFFEE4F6045740330
:10251C0012177AEEF0A3EFF0851882851983ECF090
:10252C00A3EDF0740212177AE9F0AA18AB19120590
:10253C00C0E9F5087075741312177AE0F50AA3E078
:10254C00F50BE50A450B60638E828F83122B47EEE9
:10255C004F700575080280537A067B001212928A1E
:10256C000C8B0DA80CA90DE8497005750813803B60
:10257C0088828983E41225BEEEF0A3EF1226DAE5F9
:10258C000AF0A3E50BF09001E01226D39001E06075
:10259C0017E0FCA3E08003EAFCEBFD8C828D831238
:1025AC0026D370F38C828D831237D3A9087405025D
:1025BC004390F0A31240F2A32274F212179E8908E2
:1025CC00890C750D007403780C12171B850C0A8589
:1025DC000D0B9001DFF09001DD1235DE1226D1607B
:1025EC002E1212987900801D890C750D00740278DA
:1025FC000C12171B9001DD123A778882F583A3A386
:10260C00E4F0A3F00990023BE0F8E9C39840D990BC
:10261C00023BE0FA850AF0A4CAA8F0850BF0A428C6
:10262C00FB1212928A0C8B0DAE0CAF0DEE4F700399
:10263C000226C790023BE0FC850AF0A4CCA8F085EA
:10264C000BF0A428FD79001211D87C0080318D0C80
:10265C00750D007403780C12171B8A828B8312265B
:10266C00CC88828983E4F01226D9A3A3F0A3F00DC1
:10267C00EDC3950840D8EE250AFEEF350BFF0C9004
:10268C00023BE0F8ECC39850288C0C750D007402DA
:10269C00780C12171B9001DD1226CCE82402500195
:1026AC0009FAE9FB8A828B83EEF0A3EFF07D0080C0
:1026BC00BFE5089001DFF0790080027913024393A3
:1026CC00123A7BF922A3A3123180EA4B22A31240C7
:1026DC00F2A3A3A32274F412179E7900EAA2E0508D
:1026EC001F7508E875098078081219B179107C04F7
:1026FC007D007A377B1D1206CE7402121744E9F95D
:10270C0080007F04021870C082C0839001E01231F7
:10271C00AB601C88828983A3A3E06A7003A3E06B7F
:10272C008882898370E8A3A3A3A312317C80047AE6
:10273C00007B0002240474F212179E74FD12172EF3
:10274C00EAFEEBFF851882851983E4F0A3F074028E
:10275C0012177A7401F01231A87014120896121222
:10276C00929001E3122DBE1231A870030228D412EC
:10277C002EBEEE2404F50AE43FF50B850A82F583A0
:10278C00E024FE603C24FC607424FE607E24FE7019
:10279C000302282424FE700302283124FE70030255
:1027AC00283E24FE700302284B24FE700302285896
:1027BC0024FC700302287924FE700302289102285D
:1027CC00CD1208969001E5EAF0A3EB1228E0120274
:1027DC0054E960030228CD9001E51219C88E828F4E
:1027EC0083A3A3A3A3A31241108508828509831296
:1027FC00317C1206A474021217440228CDAC18AD19
:10280C0019EEFAEFFB1206EC02289CAC18AD19EE8F
:10281C00FAEFFB1206F28078AC18AD19EEFAEFFB6A
:10282C001206F8806BAC18AD19EEFAEFFB1206FE2F
:10283C00805EAC18AD19EEFAEFFB1207048051ACB8
:10284C0018AD19EEFAEFFB12070A80447402121746
:10285C0084880C890D780C1219B17402121794EE3D
:10286C00FAEFFB12071074021217448023AC18AD58
:10287C0019EEFAEFFB120716E9F87016740212172C
:10288C007AE4F0803CAC18AD19EEFAEFFB12071CA1
:10289C00E9F8E8602C8E828F83A3E06414602285B3
:1028AC000A82850B83E09001E5F0851882851983F7
:1028BC0012317C9001E6122DBEE8A31228E0120220
:1028CC004EEEFAEFFB12067A740212177AE0F974E4
:1028DC0003024390F07CE57D018508828509831213
:1028EC0031802274E812179E74FA12172E74041297
:1028FC00177AECF0A3EDF08A128B13EA2405F50E8F
:10290C00E43513F50FEA2402F510E43513F51185BF
:10291C001082F58312317C1203808A0A8B0B7508A6
:10292C00007C037D0079007AE57B011211D8E50E5D
:10293C002402F516E4350FF5177402121784880C6F
:10294C00890D780C1219B1850E82850F83A3A3A370
:10295C00A3E0F50C750D00780C1219B1E50E2405E9
:10296C00F50CE4350FF50D780C1219B1851682852E
:10297C0017831234831205DE74061217448A0C8BEB
:10298C000DE50C450D7003022B10802085188285F7
:10299C001983E088828983F005088518828519835C
:1029AC00A3E0C0E0122B51D0E0F00508E50A24FBAF
:1029BC00FAE50B34FFFBC3E5089AE49B4003022BBA
:1029CC00107E007F00851282851383A3A3A3A3E04E
:1029DC00F50978091219B5E4F514F51578141219DE
:1029EC00B17514E275150178141219B19001E31246
:1029FC0019C8740912177A1219C8E50A24F9F9AC26
:102A0C000CAD0D85108285118312317C1207467432
:102A1C0009121744E96003022AB1850E82850F83DF
:102A2C00A3A3A3A3A3A3A3E0F89001E2E0687075AD
:102A3C00E0F5148E1578141219B112410D850E8221
:102A4C00850F83A3A3A3A3A3A3A3A312317C121169
:102A5C00D27402121744E9604C9001E61231AB704B
:102A6C003BE4F51478141219B17CFF7DFF790785CE
:102A7C00108285118312317C1206B674021217442F
:102A8C001231B17017850E82850F831242AA74041D
:102A9C0012177A123B6B1234B4022B44850C8285CC
:102AAC000D83122B47A818A91988148915781412AC
:102ABC0019B1740412177A1219C8851682851783F6
:102ACC00122DB41205EA74041217448A0C8B0DEE05
:102ADC004F700302298D122B51EE122B5C12346AAB
:102AEC00EF122B5CF8A3E03400F9E50C450D600304
:102AFC000229988882898374FFF00508122B51747F
:102B0C00FFF00508E508601A1313543F122DC41288
:102B1C000260E960099001E612317C12124A7900D8
:102B2C008016850E82850F831242AA740412177ABE
:102B3C00123B6B1237D3790A02343DA3A3A3A3E053
:102B4C00FEA3E0FF22A8089001E6E02812346A22D6
:102B5C00F00508089001E6E0282274E812179E742C
:102B6C00FA12172E740212177A122DBE7404121751
:102B7C007AECF0A3EDF0740212177AE0240512340B
:102B8C0053E0F50CA3E0F50D740212177AE0240261
:102B9C00F510A3E03400F511851082F58312317C19
:102BAC00120380750800750900EA24FCFEEB34FF63
:102BBC00FF8008050CE50C7002050DA808C3EE9803
:102BCC00EF94005003022D70A818A919880E890FD4
:102BDC00780E1219B1851482851583A3A3A3A312B1
:102BEC0041141219B1E5142405F50EE43515F50F51
:102BFC00780E1219B1851482851583122DB2120527
:102C0C00DE74061217448A0E8B0FEA450F7003020E
:102C1C002D70EA2404F516E4350FF517851682F5A8
:102C2C0083E0F50CA3E0F50D85188285198312411C
:102C3C00108A828B83A3A3A3E0F98510828511836C
:102C4C0012317C1205CCE9F5096003022D70740277
:102C5C0012177A12347AF50978091219B5E4F512BB
:102C6C00F51378121219B17512E27513017812125C
:102C7C0019B19001E31219C8740712177A1219C806
:102C8C00EEF9AC0EAD0F85108285118312317C12DA
:102C9C0007467409121744E9F5096003022D70E523
:102CAC0008703FE4F50EF50F780E1219B17CFF7D1C
:102CBC00FF790985108285118312317C1206B67456
:102CCC00021217441234A0700D740412177A122DCC
:102CDC00A77911022DA49001E2E024029001E6F004
:102CEC0080149001E6E0FA9001E2E07900240250B1
:102CFC0001096A497072A8089001E2E0FAE82AFA20
:102D0C00E43400FBEE9AEF9B405A851682851783BC
:102D1C00E0C0E09001E7122B56D0E0F005088516D4
:102D2C0082851783A3E0C0E0089001E7122B56D0F0
:102D3C00E0F005089001E21241141219B112410D94
:102D4C00A8081234471211C074021217449001E201
:102D5C00E02508F50874FF650C700474FF650D60C0
:102D6C0003022BBFE508601F9001E6E0F5F0E508D3
:102D7C0084122DC4120266E960099001E712317CBD
:102D8C0012124A79008011E509700375090A74045E
:102D9C0012177A122DA7A90902343D1235E2E50C5F
:102DAC00F0A3E50DF022A3A312439FAA0CAB0D22B6
:102DBC00A3A3EAF0A3EBF0229001E5F07CE57D0102
:102DCC008510828511831231802274EC12179E7447
:102DDC00FC12172E1238E374021217941231761269
:102DEC0005E48A0C8B0DEA450D7003022EAE122EF3
:102DFC00BEA818A9198810891178101219B17CFF76
:102E0C007DFF790B85088285098312317C1206B609
:102E1C007402121744122FB4700C850A82850B832E
:102E2C001234B1022EBB8E828F83A3A3A3A3E0F531
:102E3C001278121219B5E4F512F51378121219B1B1
:102E4C007512E575130178121219B178101219B1B7
:102E5C00740912177A1219C8740912177AE0F9ACAE
:102E6C000CAD0D85088285098312317C12074674DE
:102E7C0009121744E9FE70157CE57D0185088285F1
:102E8C00098312317C12026CE97009802074166E71
:102E9C0070027E009001E612317C12124AEE700430
:102EAC00800B7E01850A82850B831237D0EEF902E6
:102EBC0037E5EE2402F508E43FF5092274EC12170D
:102ECC009E74FC12172EEAFEEBFF8C0E8D0FEE2477
:102EDC0005F508E43FF509740212179485088285FC
:102EEC00098312317C1205E48A0C8B0DEA450D70B6
:102EFC0003022FA4EE2402F50AE43FF50BA818A94F
:102F0C00198810891178101219B17CFF7DFF790D89
:102F1C001231761206B67402121744122FB4700BCB
:102F2C008508828509831234B1807A8E828F83A3BF
:102F3C00A3A3A3E0F51278121219B58508828509AE
:102F4C0083A3A31219C87512E5751301781212190F
:102F5C00B178101219B1740912177A1219C87409C0
:102F6C0012177AE0F91231721207467409121744DB
:102F7C00E9FE700F7CE57D01123176120272E97068
:102F8C0009802074166E70027E009001E612317C6E
:102F9C0012124AEE7004800B7E018508828509832B
:102FAC001237D0EEF90237E51231BBF510A3E0F57C
:102FBC0011EA45112274E812179E74FE12172E8A1C
:102FCC00168B178C148D15EA2405F50CE43517F5C2
:102FDC000DEA2402F50EE43517F50F850E82F58304
:102FEC0012317C1203808A088B09750B007C037DDF
:102FFC000079007AE57B011211D8750A00E50814F6
:10300C00F5100424FFF508E50934FFF50980549008
:10301C0001E5E0FA9001E2E0F8EA28F8E43400F97E
:10302C00E50898E50999500D9001E5E0F8E510C325
:10303C00989001E2F0E0F51275130078121219B1B4
:10304C0012410D9001E6E02AFAA3E03400FB1211C4
:10305C00C074021217449001E2E0F89001E5E028F8
:10306C00F0050A850C82850D83A3A3123A874003D1
:10307C000231579001E5E0C39508E495094003023D
:10308C003157AE0AEE2EFEE433FF123196AC18AD7A
:10309C0019124128E439FB1205E48A128B13AC1285
:1030AC00AD13EC4D701B750B011231861237D49099
:1030BC0001E61226D3600312124AA90B74020234E1
:1030CC003F851682851783A3A3A3A3E0F50B780B8A
:1030DC001219B5E4F512F51378121219B17512E242
:1030EC0075130178121219B19001E31219C8740703
:1030FC0012177A1219C8A910850E82850F83123106
:10310C007C1207467409121744E9F50B709B900169
:10311C00E61231AB600302301BE4F512F5137812A2
:10312C001219B17CFF7DFF790F850E82850F8312FA
:10313C00317C1206B674021217441231B1600302CC
:10314C00301B1231861234B50230C87CE57D018506
:10315C000E82850F8312317C120278E960030230F3
:10316C00BB79000230C8AC0CAD0D850A82850B838F
:10317C0012318022E0FAA3E0FB22123196E0FAA38E
:10318C00E0F9EA85148285158322850C82850D83EE
:10319C00E02EF8A3E03FF988828983229001E312A4
:1031AC0042AEE849221231BBF8A3E0F9E84922907B
:1031BC0001E6EAF0A3EBF09001E6E02274E81217C6
:1031CC009E74FA12172E740412177A122DBE8C16D6
:1031DC008D17740412177AE02405F50EA3E0340061
:1031EC00F50F740412177AE0240212345312317C56
:1031FC001203808A0A8B0B7F007E00A818A91988FD
:10320C0008890978081219B1850E82850F83A3A34A
:10321C00A3A3E0F5088E0978081219B1E50E240570
:10322C00F508E4350FF50978081219B1850E828579
:10323C000F83A3A31234831205DE74061217448A7B
:10324C000C8B0D8029123474F00F123474F00F9023
:10325C0001E21237BF1219B112410DEFF8123447C7
:10326C001211C074021217449001E2E02FFFE50C1A
:10327C00450D70030233038518828519831238F5C6
:10328C00A3A3A3E0F985148285158312317C120562
:10329C00CCE9FEE50C2404F510E4350DF511EE70C7
:1032AC0050740412177A12347AF50878081219B58A
:1032BC00E4F508F50978081219B17508E2750901E9
:1032CC0078081219B19001E31219C8740712177A11
:1032DC001219C8E50A24FAF9AC0CAD0D85148285D7
:1032EC00158312317C1207467409121744E9FE60EB
:1032FC00391234901237D3EF700302342A9001E65E
:10330C00E0F5F0EF849001E5F07CE57D0185148219
:10331C0085158312317C12027EE960099001E71257
:10332C00317C12124A790002343D8F08EF703BE475
:10333C00F512F51378121219B17CFF7DFF79118506
:10334C00148285158312317C1206B674021217444E
:10335C001234A070091234901234B402343D90012E
:10336C00E2E024049001E6F080359001E2E0F89070
:10337C0001E6E0FAE82404FCE43400FDEC6A4D605C
:10338C0003023309E50A24FAFAE50B34FFFBE508DE
:10339C0028F8E43400F9EA98EB99500302330985D4
:1033AC001082851183E0C0E09001E7E02FF8A3E0E4
:1033BC0034008882F583D0E0F00F8510828511836C
:1033CC00A3E0C0E0123461D0E0F00F740212178455
:1033DC008808890978081219B1740212177A12191F
:1033EC00C8850E82850F83122DB21205EA74041261
:1033FC0017448A0C8B0DEA450D700302325174028E
:10340C0012177AE0C0E0123461D0E0F00F740212AF
:10341C00177AA3E0C0E0123461D0E0023259EE70AA
:10342C00027E0A850E82850F831234961237D3EEF4
:10343C00F974061217447F100218709001E7E02807
:10344C00FAA3E03400FB22F514A3E03400F5158553
:10345C001482F58322123465229001E7E02FFAA33F
:10346C00E034008A82F5832212346574FF2212350F
:10347C00E2A3A3A3A3E02212439F850E82850F83B0
:10348C00123180228510828511831242AE851682FC
:10349C00851783229001E7EAF0A3EBF09001E71285
:1034AC0042AEE849221237D9E8F0A3E9F0791122AB
:1034BC0074EA12179E74FE12172E8A088B098C124E
:1034CC008D13EA2405FEE43509FFAC18AD198E8284
:1034DC008F8312317C1205E48A0C8B0DEE2406F5D9
:1034EC000EE43FF50FEA450D70030235B4E50824F0
:1034FC0002F50AE43509F50B8A828B83A3A3A3E0BA
:10350C00A2E5502885188285198312317C12073A5E
:10351C008A108B11EA4511602079121231728510D4
:10352C008285118312179CE9F50C707F850E8285BC
:10353C000F83E0600979528011750C0E806D85083F
:10354C0082850983A3A3A3A3E0F9E4F508F5097820
:10355C00081219B18E828F83A3A3E0F508780812A4
:10356C0019B18E828F83A3A3A31219C88E828F8365
:10357C0012411012317612074C7406121744E9F5F9
:10358C000C7011850E82850F83E0702D123176122E
:10359C00028480257416650C7011750C0074181259
:1035AC00177A1235DEE48010750C011242A68512D2
:1035BC0082851383E8F0A3E9F0850E82850F83E002
:1035CC00600479008002A90C74021217447F0E0269
:1035DC0018701235E222E0F8A3E0F5838882227499
:1035EC00EC12179E74F712172E8A0A8B0B8C108D07
:1035FC0011EA2405FEE4350BFF750C00AC18AD196F
:10360C008E828F8312317C1205E48A088B09EA457D
:10361C000970030237AAE50A2402F50A5002050BC9
:10362C008A828B83A3A3A3E0A2E5502F8518828501
:10363C00198312317C12073A8A0C8B0DEA450D6006
:10364C004F7912AC08AD09123176850C82850D8349
:10365C0012179CE9F50C60030237AD850A82850BC5
:10366C0083E0F508A3E0F509AA08FB12072EEA4B44
:10367C0070197AFF7BFF12072EEA4B70030237A0FA
:10368C008A828B83E508F0A3E509F07508008008B1
:10369C00750C0E0237AD05089001DFE0F8E508C3A4
:1036AC009840030237A085080E750F007403780E3E
:1036BC0012171B8A828B83A3A3E0250EF8A3E03597
:1036CC000F123B7470D08E828F831237C8122DBEAE
:1036DC008E828F83A3A31237C8122DBCEE2404F55F
:1036EC0008E43FF509850882F583E088828983A385
:1036FC00A3A3A3F0A3E4F0EE2405F50EE43FF50F2D
:10370C00850E82F5831237C8A3A3A3A3122DBC7513
:10371C00120775130078121219B1EEFCEFFD740448
:10372C0012178C1211C07402121744E4F51278129D
:10373C001219B1850882850983E0FC7D0079171286
:10374C0031761206B67402121744740712177A12E5
:10375C002DBE740712177AE0FA4B603D85088285FE
:10376C0009831237BF1219B1850E82850F8312415E
:10377C00101211C0740212174474021217941231F1
:10378C007612028AE96026740712177A12317C12BB
:10379C00124A8019750C098008750C118003750C80
:1037AC00011242A68510828511831237D3A90C749D
:1037BC00098028E0F5087509007808221231808804
:1037CC00828983221237D9E8F0A3E9F022E0F8A32A
:1037DC00E0F9850E82850F832274041217447F0C46
:1037EC0002187074EC12179E1238E3751000EE2458
:1037FC0002F50CE43FF50D850C82F58312317C1239
:10380C00072E8A088B09EA450970030238C7850A16
:10381C0082850B83E0640160030238BCAC08AD09FF
:10382C00AA0AAB0B120722E9606E85088285098310
:10383C00122B49EE2406F50AE43FF50B8E828F839A
:10384C00A3A31219C88E828F83A3A3A3A31219C892
:10385C00850A82850B831219C879188E828F831280
:10386C0038F512317C12074C7406121744E9F874BF
:10387C001668700B850A82850B83E4F0A38014E82C
:10388C0060128E828F8312317C850E82850F83EAC3
:10389C00F0A3EBF088108018780E1219B1AC08ADBB
:1038AC0009EEFAEFFB1207287402121744E9F5101F
:1038BC00AA08AB09120734E510700E850C82850D31
:1038CC008312317C12029080097416651070037596
:1038DC001000A9100237EAEAFEEBFF8C0E8D0FEEFA
:1038EC002405F50AE43FF50B2212439F850C8285D3
:1038FC000D832274EA12179E7508007509007E006C
:10390C007F00750A00EC2402F510E43DF5118035BA
:10391C00EC65087003ED650960030239B48882898F
:10392C0083A3A3E06A7003A3E06B707C8882898315
:10393C00A3A3A3A31242AAEE28FEEF39FFEA28FAAA
:10394C00EB39FB050A123A84503A850A0C750D00C6
:10395C007403780C12171B851082851183123A7729
:10396C00123B74601FE508450970A58C088D098809
:10397C00828983122B4788828983A3A3E02EFAA322
:10398C00E03F80BEE50AC394025003023A72750808
:10399C0000750900EE4F6010EEFAEFFB1212448A2C
:1039AC000E8B0FEA450F70057900023A74750B0007
:1039BC00023A47850B0C750D007403780C12171B1B
:1039CC00851082851183E0250CF50CA3E0350DF5EF
:1039DC000DE50C2406F514E4350DF515851482F56A
:1039EC0083123B796042E50C2404F512E4350DF5A5
:1039FC0013851282F5831219C8E50E2508FAE50F16
:103A0C003509FB1211C074021217448512828513FA
:103A1C0083E02508F508A3E03509F50985148285AE
:103A2C00158312317C12124AE50B600D7C087D0067
:103A3C007900AA0CAB0D1211D8050BE50BC3950A36
:103A4C0050030239BF8510828511831242AA8882E5
:103A5C008983A3A3A3A3A3A3E50EF0A3E50F1226CA
:103A6C00DAEEF0A3EFF079010235D9123A7B22E0BD
:103A7C00250CF8A3E0350D229001DFE0F8E50AC330
:103A8C00982274F012179E8A0E8B0F8C0A8D0B7570
:103A9C000D00750C0080507916EE2406F508E43FF5
:103AAC00F5098E828F83A3A31219C88E828F83A3EC
:103ABC00A3A3A31219C88508828509831219C88586
:103ACC000E82850F83A3A312317C12074C7406124D
:103ADC001744E9F50D7416650D706C85088285091F
:103AEC0083E4F0A3F0050C9001DFE0F8E50CC3983B
:103AFC005066AA0C8A087509007403780812171B03
:103B0C00850A82850B83A3A3123BC3E8FEE9FF8ED3
:103B1C00828F83123B796040EA2401F508E434007B
:103B2C00F5099001DFE065087002E50960148882F0
:103B3C008983A3A3A3A3A3A3A3A31231AB60030202
:103B4C003AA37918023AA5E9609B1242A6741012A6
:103B5C00177A123B6B1237D3A90D7F08021870E04D
:103B6C00FAA3E0F5838A8222F98882898312439F23
:103B7C00EC4D2274F612179E7C0080010C90023BD7
:103B8C00E0F8ECC398501E8C087509007402780894
:103B9C0012171B123BB8E06A7003A3E06B70DDE8F0
:103BAC00FAE9FB80047A007B00023C5B9001DD1299
:103BBC003BC38882898322E02508F8A3E03509F904
:103BCC002274F212179E8A088B09750A0080278EC0
:103BDC00828F83A3A3A3A31226D1600312124A7C63
:103BEC00087D007900EEFAEFFB1211D88E828F83DC
:103BFC00E4F0A3F0050A123A845027850A0C750DDF
:103C0C00007403780C12171B850882850983A3A303
:103C1C00E0250CFEA3E0350DFF8E828F831231ABB5
:103C2C0070AD85088285098374FFF0A3F00243937D
:103C3C0074F612179E1206E08A828B83E582458306
:103C4C0070067A007B008007A3A3A3A312317C7FAC
:103C5C000202187074F412179E89088C828D83E00E
:103C6C006402703C124249FEA3E0F9EEF87402685B
:103C7C0070037429697029750A02750B00780A1291
:103C8C0019B1741012177A1219C8741012177A120B
:103C9C0019C8A9081210AC7406121744E9F980026D
:103CAC00790102270E74E812179E74FB12172EE985
:103CBC00851882851983F08A168B17ECFEEDFF753B
:103CCC0010008E828F83A3A3A3E0A2E4502D741D59
:103CDC0012177A12317C12073A8A828B83E582455D
:103CEC008370030240E8790AEEFCEFFDAA16AB17CD
:103CFC0012179CE9F51060030240EB741F12177A3F
:103D0C00E0F508A3E0F509742112177AE0F50AA38F
:103D1C00E0F50B742312177AE0F50EA3E0F50F8E85
:103D2C00828F83E064026003024089A31242AA8559
:103D3C000882850983A3858212858313EE2406F5F8
:103D4C000CE43FF50D88828983124128F514E4397F
:103D5C00F5157814121A3B0100002801288B3D0739
:103D6C00000228503E0328BE3D00297F3F0129AAAE
:103D7C003F02294B3F03297F3F042923408940E51B
:103D8C000E450F6003024084850C82850D83124220
:103D9C00AAE8FAE9FB8A828B83E0850A82850B8389
:103DAC001241331219B18A828B83A3E0FCA3E00287
:103DBC00400DE50E450F6003024084850A82850B99
:103DCC00837401F012411D850882850983F07C0003
:103DDC007D008E828F83A3A3A3A3E02401FAA3E02A
:103DEC003400FB1205E4EA4B60408A828B83E024AA
:103DFC0002F8850A82850B83E028F0EA2404F8E4B3
:103E0C003BF988828983E0851282851383124141B4
:103E1C001241331219B18A828B83A3124110E50827
:103E2C002403FAE43509FB024012850A82850B83D0
:103E3C00E02404F07C047D007900AA12AB1312116B
:103E4C00D80240EBE50E450F600302408412411D81
:103E5C00FEA3E0FF850A82850B837404F0EE8508CF
:103E6C0082850983F0EF851282851383F074031227
:103E7C001794EEFAEFFB1205E48A0C8B0DEA450D54
:103E8C007003023F2E8A828B83A3A3122B477401EB
:103E9C00121784880E890F780E1219B17405121737
:103EAC007A1219C87CFF7DFF1205EA7404121744BC
:103EBC008B0FEA450F7033850C82850D83124114EC
:103ECC001219B1850C82850D83A31219C87C027D51
:103EDC00007A957B8112036E7404121744E9700A00
:103EEC00740112177A74FFF0A3F08E828F83E06452
:103EFC00027039750C02750D00780C1219B18E8296
:103F0C008F83A3124110E5082404FAE43509FB124F
:103F1C0011C07402121744850A82850B83E02402B7
:103F2C008009740112177AEEF0A3EFF074011217E6
:103F3C007A124102740112177A1240F902407EE59E
:103F4C000E450F6003024084850C82850D8312435D
:103F5C0098AA16AB171210B2850A82850B837402CD
:103F6C00F0850882850983EAF0851282851383EB3C
:103F7C00024081E50E450F600302408412411DF89A
:103F8C00A3E0F9850A82850B837402F0E885088228
:103F9C00850983F0E9851282851383024081850CA3
:103FAC0082850D8312317C1211BAEAFAF8C3950E90
:103FBC00E4950F405CE8650E450F70047A00802193
:103FCC00851882851983E0FCE50E2CFCE4350FFD89
:103FDC00C3EC98ED94005003E08005E50ECAC39A3B
:103FEC00FAEA850A82850B83F08A0A750B00780A37
:103FFC001219B1850C82850D83E0250EFCA3E035EA
:10400C000FFDAA08AB091211C0740212174402402A
:10401C00EB7510070240EBE50E450F705B850C82CB
:10402C00850D831242AA850A82850B837407F0885A
:10403C008289831240FA1240F2E085128285138342
:10404C00F0E82402FAE439FB8A828B831241028A5B
:10405C00828B831240F9A3A31226D9124107F0E8F0
:10406C002405F850010988828983124107A3124163
:10407C0041A3A3A3A3F0806775100B8062741D127B
:10408C00177A12317C1206E08A828B83E582458393
:10409C00604A1242AA880C890DE8450D603E7425D1
:1040AC0012177AE0F51078101219B5780E1219B1B2
:1040BC00780A1219B178081219B1740712177AE03C
:1040CC00F9EEFCEFFDAA16AB17850C82850D831259
:1040DC00179C7407121744E9F510800375100EA98C
:1040EC0010740502343FF088828983A322A3E085F3
:1040FC00088285098322124148F022124148A3A369
:10410C00229001E312439F22E0F50E750F00780E0A
:10411C0022850C82850D831235E2E022E0FAA3E0C1
:10412C00F8E4C8F9EA2822F08A828B83E0F50A7554
:10413C000B00780A221240F212414822E0850882D4
:10414C00850983A3A32274EE12179E74FE12172EF8
:10415C008A088B09ECFEEDFF890AAC18AD19EEFA52
:10416C00EFFB1205E48A0C8B0DEA450D700302423D
:10417C003A85188285198312317C1206E08A828B6B
:10418C0083E58245837003024235A3A31242AA88B9
:10419C000E890FE8450F7003024235741412177A1A
:1041AC00E0F510A3E0F511E50AF50B780B1219B543
:1041BC00741912177A1219C878101219B1741B12CB
:1041CC00177AE0F9AC0CAD0DAA08AB09850E828507
:1041DC000F8312179C7405121744E9F50B70527477
:1041EC00FE650A604C850C82850D83E0640270418B
:1041FC00124249FAA3E0F9EAF874026870037429D0
:10420C0069702E851082851183124128F50CE439D2
:10421C00F50D780C1219B1EEFCEFFDAA08AB0912E2
:10422C00076474021217448008750B0E8003750B1B
:10423C0001A90B74021217447F0A021870A31242D0
:10424C00AE88828983E02274F612179E74FE1217D0
:10425C002E740C12177A1242AAE8851882851983DB
:10426C00F0740112177AE9F0E4F508F509780812F0
:10427C0019B175080278081219B1740412178488E0
:10428C0008890978081219B179FE12074C740612C4
:10429C0017447402121744023C5B8E828F831242C5
:1042AC00AE22E0F8A3E0F92274F712179EEAFEEBB7
:1042BC00FF89089001FA1241101210B2EA54026000
:1042CC000BA908EEFAEFFB1205D8800279017F01E9
:1042DC0002187074F212179E74FE12172EEAFEEB7F
:1042EC00FF890A7401650A60147402650A6003028E
:1042FC00438E7901120962E9600302438EEEFAEFF4
:10430C00FB12072EEA4B6003120734A818A9198870
:10431C0008890978081219B175080275090078081E
:10432C001219B175088D75098178081219B17CFFC5
:10433C007DFF7A017B001205DE740612174480386B
:10434C00850882850983A3A3A3A3A3A3124398EE94
:10435C00FAEFFB1210A6E4F50CF50D780C1219B15E
:10436C00740212177A1219C87CFF7DFFAA08AB09D8
:10437C001205EA74041217448A088B09E5084509EA
:10438C0070BE74021217447F060218701235E212C6
:10439C00439F22E0FCA3E0FD2274F412179E8A08CE
:1043AC008B09ECFEEDFF901D35E0F4604B7A097B38
:1043BC00001211EAEA4B60408A828B8374B1F0A33D
:1043CC00E4124407F08A828B83A3A3E508F0A3E5EB
:1043DC0009124407A3EEF0A3EFF0740C12177A1233
:1043EC0042AA8A828B83A3A3A3A3A3A3A31237D32A
:1043FC00901D35E0F91211F602270EF08A828B839C
:10440C00A3A3A3A32274F412179EE9900268F012DE
:10441C000CD4907800E0C4540F54076403700479F2
:10442C003F8002797F75080675090078081219B16A
:10443C007C567D027AEA7B071210F4740212174440
:10444C00900256E0F47049A3E0F47044A3E0F470D9
:10445C003FA3E0F4703AA3E0F47035A3E0F47030BD
:10446C0090780EE0900256F090780FE0900257F0A2
:10447C00907810E0900258F0907811E0900259F08A
:10448C00907812E090025AF0907813E090025BF072
:10449C0090025C1245CC125A199002867406F0A355
:1044AC00740D124C7F7442F0A37401F09005CD1280
:1044BC0045CC9005CCE4F09005D304124C7F12450A
:1044CC00BAE4F0A304F0A3124C7F124C7DF09005DB
:1044DC00E41245CC9005E3E4F09005EA04F0A3E483
:1044EC001245BA124C7DF0A37405F09005F474FFDC
:1044FC00F0A3E4F09005F6F09005F804F09005F9BF
:10450C007490F0A37401F0120A881209AA120C928A
:10451C0079017AFB7B05120B7E9005FBE075F0149C
:10452C0084E5F004F0790C7A1C7B06120B7E120BDE
:10453C00967A00900268E0F91212AA907803E0646F
:10454C004270569005FBE014F0704EC2AF12455C01
:10455C0000781DD0E0F618D0E0F6E59F5407F8700F
:10456C00057509FF800375097FC4C0E0781CE6F56A
:10457C000808E65509F509740B780812170CD0E0F9
:10458C002508F8906270E0A2E740F8E8C333906227
:10459C0072F0906270E0D2E0F0900293E4F0A3F03D
:1045AC007A80FB900268E0F912121A024A21124535
:1045BC00C31245C3F0A322F0A37480F0A3740222AB
:1045CC001245D3F0A3F02274FFF0A3F0A3F0A3F0F4
:1045DC00A32274F412179EEAFEEBFFEEA2E0504009
:1045EC0090026AE0C39480E0500F25E0F8E433F9C0
:1045FC00745928F582741D800EF425E0F8E433F923
:10460C00746728F582741D39F5831253FA12179CBE
:10461C007A00900268E0F91212AAEE64010247C017
:10462C00540870030246C89005F2E0F875F00DA42A
:10463C00C8AAF02AF9749928FA740239FB75080093
:10464C0078081219B5EA2432F582E43BF58312534B
:10465C00E67404780812170C78081219B1EA2430A1
:10466C00F582E43BF5831219C8EA242EF582E43B6B
:10467C00F583E0F508A3E0C313F509E50813F50885
:10468C0078081219B1EA2406F508EB3401F509781B
:10469C00081219B1EA240CF582EB125C29FD7C009E
:1046AC008A828B83A3A3A3A3E0FA7B007900120870
:1046BC00187409121744EE64080247C0EE541060D7
:1046CC003775080078081219B5E4F509780812193D
:1046DC00B178081219B178081219B178081219B109
:1046EC007D007C007A007B00790212081874091294
:1046FC001744EE64100247C0EE548060369005F902
:10470C00124F4EE849602679001212A49005F91256
:10471C0053E6E4F50AF50B78081219AD7A007B0123
:10472C00900268E0F91213287404121744EE6480A6
:10473C000247C0EF5401600C79011212A4EEFAEF9B
:10474C0064018072EF5402600AC2AF75C9AB75C9BF
:10475C005B80FEEF5404600A1223F5EEFAEF64045A
:10476C00805490026FE06401704FEE5420604A90C8
:10477C000269E024FB600924FE601B146018803180
:10478C009005DBE0FA79001209F89005DBE0FA7984
:10479C00011209F8801B793F900297E0FA75F00D31
:1047AC00A4CAA8F028FB74992AFA74023BFB120BDA
:1047BC003CEE6420FAEFFB80047A007B00024A2175
:1047CC0074F612179EEA540F600478018002780088
:1047DC00E8F98A088B097404780812170CE5082983
:1047EC00F5087509007404780812171BE5082408ED
:1047FC00FAE43509FB1212448A088B09A808A909A6
:10480C00E8496009E82404FAE439FB80047A007B67
:10481C0000024A5274F612179EEA2405FA50010B54
:10482C001212448A088B09A808A909E8496009E80A
:10483C002405FAE439FB80047A007B00024A52C05A
:10484C0082C083C2AF120CB6E5E170FC75E10112B7
:10485C000A7075E1F1120CE0120A647907120D76F8
:10486C007901120D7C7902120CFE120D34120D5EC0
:10487C007900120D707901120D7090812B121604B3
:10488C00120CF29005D4E4F09005EBF0120B24120C
:10489C000C32120B487900120D829005C01245D3D0
:1048AC00741FF0906012E4F0A3F0906063F0751A3E
:1048BC0000900269F09005C5F09005C6740CF0905C
:1048CC0005C7E4F09005C804F09005C9E4F0900227
:1048DC006BF0A3F090026EF090026F04F0900285E2
:1048EC0004F09005F7E4F0D2AFF90254C5C082C0D1
:1048FC0083900256124AA2900257124A80F09002FC
:10490C0058124A8B900259124A9190025A124A96A6
:10491C0090025B124A80A3A3A3A30254C2C082C01C
:10492C00838A828B83E090025C125865E090025D72
:10493C00124A5790025E1259FE90025F125A0A9068
:10494C000260125A05E09002610254C2C082C08318
:10495C00120A94E9F97005120D3479000254C574E9
:10496C00F712179EEAFEEBFF8908120A94E9F97018
:10497C002CE508600A74016508600A7912801E7CB7
:10498C0000790080047C007901EEFAEFFB120D3AFD
:10499C00E9F874036870047907800279000256B054
:1049AC0074F612179EEA4B600EEC4D600A740A12F4
:1049BC00177A12584270047912800F78081219B1C4
:1049CC00120B9074021217447900807A74F4121747
:1049DC009EEAFEEBFF8908900269E064096014E02E
:1049EC00640A600FE0640B600AE0640C6005E0642C
:1049FC000D7004790C801E120C5C8B0BEA450B704D
:104A0C000BA908EEFAEFFB120B7E800990026BE00B
:104A1C004440F0790D7F0402187074F612179EEA68
:104A2C004B6003E970047912801CEAFEEBFF8908E5
:104A3C00120B78E98E828F83F0A3AE82AF831508B8
:104A4C00E50870EC79007F02021870125865A3E03B
:104A5C0022C082C083E9F8740168700B9005F7746A
:104A6C0001F079000254C5E870069005F7E480F176
:104A7C00791280F0124A8422E08A828B83A322125C
:104A8C004A84A3F022124A9CF022124A9CA3F022E0
:104A9C00124A84A3A322E08A828B83F02274F71239
:104AAC00179E900269E0640C701290618EE0F874AD
:104ABC00806870368C828D83747F803AC3EB940F40
:104ACC00502412586C501F125A5A125C43700479BD
:104ADC0002802675F00DEBA42EFB740128F5827470
:104AEC00033BF58380C77912800F90026DE0F9E8E3
:104AFC00C3998C828D83F079000256B074F712172B
:104B0C009EE9FE74056E601E74136E601974146E4B
:104B1C00601474156E600F741A6E600A74296E60DE
:104B2C0005743B6E7037C3EB940F503112586C50B8
:104B3C002C125C2F700479028037125874EA2469A5
:104B4C00F582E43BF583E06401701EEA246AF58289
:104B5C00E43BF583E064027008793A8014791280A2
:104B6C0010124B80120B0C8006124B80120B00792A
:104B7C00000256B0EA24F7F582E43BF583EEF0EA46
:104B8C00241DF582E43BF583E4F0A3F07902227452
:104B9C00F512179EEAFEEBFF890AEC4D6014E9C38F
:104BAC00941C500E740B12177AE0FA600A74016AA6
:104BBC0060057912024C63C3EF940F502DC3EE9431
:104BCC0003EF94005024124C68125C437004790279
:104BDC00801A124C68F9749928F508740239F50991
:104BEC009005C6E070087907806D79128069EC2415
:104BFC00FEFCED34FFFD8C828D83E50AF0EA700437
:104C0C00740280027401A3F0EC24FEFCED34FFFD71
:104C1C00E5082463FAE43509FB120B66A9A8C2AFB8
:104C2C009005C6E014F0E9A2E7E433F8E9A2E792B4
:104C3C00AF900269E064086005E0640770179002A9
:104C4C0097E06E7001EF700D7900AA08AB09121D88
:104C5C00C89061D0E079007F03021870EEF8EFF98C
:104C6C00E875F00DA4C8ABF02BFB75F00DE9A42B87
:104C7C00227425F0A3E4F0A32274F712179EE9FF27
:104C8C00600574016F7037740912177AE0FE6005C5
:104C9C0074016E7029EA24FCF8EB124D70501FEC75
:104CAC0024FCF8ED124D705015C3EA9CEB9D400EA0
:104CBC00740A12177AE0F8600A74016860057912B8
:104CCC00024D6D9005D4E064017005790C024D6DB8
:104CDC00EFA3F0E89005DAF0EE9005CC702FE4F03D
:104CEC00900256E09005CDF0900257E09005CEF082
:104CFC00900258E09005CFF0900259E09005D0F06A
:104D0C0090025AE09005D1F090025B802E7401F075
:104D1C0090025CE09005CDF090025DE09005CEF045
:104D2C0090025EE09005CFF090025FE09005D0F02D
:104D3C00900260E09005D1F0900261E09005D2F015
:104D4C009005D6EAF0A3EBF0A3ECF0A3EDF0E8703D
:104D5C00047900800774016870057901120D40799F
:104D6C00000256B012543C2274F012179EE9FEEA6F
:104D7C00FF900269E064097003024E7CE0640A70E3
:104D8C0003024E7CE0640B7003024E7CE0640C70FA
:104D9C0003024E7CE0640D7003024E7C9005D5E05E
:104DAC00600764016003024F499005CCE060076422
:104DBC00016003024F499005D61254324003024F52
:104DCC0049A31254324003024F499005D6C0829039
:104DDC0005D8124F4E758305D082C3E098A3E09995
:104DEC005003024F49EF600874016F6003024F4992
:104DFC00EE6077146003024F499005D4E0640160C3
:104E0C006F7902120C509005CAEAF0A3EBF09005F2
:104E1C00D47401F09005D3F0EF9005DBF0900269AB
:104E2C00E07042120AA0120CC88A0C8B0D8C0E8DED
:104E3C000F90816F780C12154C908147780C1215DD
:104E4C00AD9005CA1253F21215F59005CA125420F2
:104E5C009005D81254131215399005CA1254031226
:104E6C0015F5120C3879000259F99005D4E070044C
:104E7C00792180F3A2AFE433F50AC2AF120C5C8A3D
:104E8C00828B83E58245836005E0F5088003750815
:104E9C00FF9005D4E4F07ACA7B05120C56120C680C
:104EAC00E9F5096009740265086003024F40120CB1
:104EBC00B6906182E0C2E6F0E5E170FC75E1017547
:104ECC0091BF7901120D7C75E1F17A017B009002A2
:104EDC0068E0F91212209005DAE064017005120DF9
:104EEC005E8017A3E0640170119005DAE0700B127C
:104EFC000D34120D5E7901120D6AE50AA2E092AF33
:104F0C00E509702D90026FE0640170187A207B0027
:104F1C00900268E0F91213347A207B00900268E06A
:104F2C00F91212207A00900268E0F91212AA024ECD
:104F3C0071024E6EE50AA2E092AF024E7179120236
:104F4C004E73E0F8A3E0F92274E812179E74FB127A
:104F5C00172E740312177AEAF0A3EBF074011217F0
:104F6C007AECF0A3EDF0E9851882851983F09005B1
:104F7C00EBE0640160267904120C62E96401601CA8
:104F8C00900269E064096014E0640A600FE0640B4D
:104F9C00600AE0640C6005E0640D70057921025331
:104FAC00C3740312177A12543240030251BC7401B9
:104FBC0012177A12543240030251BC740312177A3E
:104FCC00C082C083740112177A124F4ED083D082E4
:104FDC00C3E098A3E09950030251BC741E12177AD7
:104FEC001253E6851882851983E060096401600319
:104FFC000251BC8009E508450970030251BC741DBF
:10500C0012177AE06007640160030251BC7420122D
:10501C00177AE06007640160030251BC742B12170D
:10502C007AC082C083742912177A124F4ED083D063
:10503C0082C3E098A3E09950030251BC742112176B
:10504C007AE024FAF8A3E01253CD40030251BC7469
:10505C002312177AE0FEA3E0FFEE24FAF8EF1253C6
:10506C00CD40030251BC742112177A124F4EC3EE7D
:10507C0098EF9950030251BC742512177AC3E0942F
:10508C00F4A3E0940140030251BC742712177A1266
:10509C00583824F6F8E50B125A4A9477E9940C40E8
:1050AC00030251BC850A0C850B0D7403780C121786
:1050BC001BF50EF50F742512177AE02401F514A3D5
:1050CC00E03400F515E4F516F517EEF8EFF9E82ED7
:1050DC00F8E933F988108911E4F512F5137814798D
:1050EC0010121412780C79141213D35042120B4272
:1050FC00E964017005793A0253C37900EEFCEFFDC7
:10510C00742112177A125A54120B308A0C8B0D74AC
:10511C00FF650C700474FF650D7005793B0253C379
:10512C00851882851983E07008E5084509700280AE
:10513C007F120B188A0E8B0FAE0EAF0FEE4F700551
:10514C0079090253C38E828F83A3A3A3A3E0900596
:10515C00F2F0740312177A124F4E9005EC1254674A
:10516C00740112177A124F4E9005EE12546785187F
:10517C0082851983E09005F1F0EE245DF8E43FF9A7
:10518C007AC07B0512584A64C57003EB640570F451
:10519C00EE245DFCE43FFDEEFAEFFB120B12EE2465
:1051AC00361253D6C39402500CEEFAEFFB120B1EC0
:1051BC0079120253C3850882850983E0C0E0EE248E
:1051CC00061253DED0E0125458E0C0E0EE24071271
:1051DC0053DED0E012544FE0C0E0EE24081253DE50
:1051EC00D0E012544FA3E0C0E0EE24091253DED0FD
:1051FC00E012546DE0C0E0EE240A1253DED0E0124F
:10520C00546DA3E0C0E0EE240B1253DED0E0F0743A
:10521C002012177AE09005E3F0742012177AE070F0
:10522C002D900256E09005E4F0900257E09005E5D1
:10523C00F0900258E09005E6F0900259E09005E7F6
:10524C00F090025AE09005E8F090025B802B9002FF
:10525C005CE09005E4F090025DE09005E5F09002D2
:10526C005EE09005E6F090025FE09005E7F09002BA
:10527C0060E09005E8F0900261E09005E9F0741DA3
:10528C0012177AE0C0E0EE240C1253DED0E0F012DC
:10529C000B4EEAF8EBF9ECFAEDFBEE2426F582E482
:1052AC003FF583121628120A40EE2422F582E43FC1
:1052BC00F583121610EE242EF582E43FF583E50CEF
:1052CC00F0A3E50DF0EE2432F582E43FF583E50A18
:1052DC00F0A3E50BF0742512177A124F4EEE243022
:1052EC001254619005F3E0C0E0EE242AF582E43F0D
:1052FC00F583D0E0F0EE242BF582E43FF5837402C5
:10530C00F0120B78E975F00C84E5F02405C0E0EEA2
:10531C002437F582E43FF583D0E0F09005F0742556
:10532C00F0900296E0C3940240057901120CF879D2
:10533C0004120C509005E1EAF0A3EBF09005EB742D
:10534C0001125445241AF582E438F58374B8F0A39D
:10535C00740A1254452414F582E438F5837417F05A
:10536C00900269E0704F120CC88A0C8B0D8C0E8D5C
:10537C000F90813F780C12154C908147780C1215C8
:10538C00AD9005E11253F21215F59005E11254207F
:10539C009005EE1254131215399005E112540312B4
:1053AC0015F58E828F83A3A3A3A3E0F9120AA6128C
:1053BC000AAC120C38790074051217447F100218CD
:1053CC0070125A4E947BE9940C22F582E43FF583DB
:1053DC00E022F582EF3401F583221253EA22E0F544
:1053EC0008A3E0F509221253FAA3A3780C22E0F8E3
:1053FC00A3E0F583888222E0F8A3E0C8240EF582AE
:10540C00E438F583780C221253EAE4F50AF50B78AC
:10541C000C790822E0F8A3E0C82406F582E438F5FC
:10542C0083E4F0A3F022E024FCF8A3E012543C2225
:10543C00125A4E94FDE9943F22F09005E1E0F8A356
:10544C00E0C82212545322125458A322F085088229
:10545C00850983A322F582E43FF583E8F0A3E9F004
:10546C0022125453A3A322C082C0839005EBE060A8
:10547C00087904120C62E97004790C80379005EB02
:10548C00E4F0120C68E9702A90026FE06401701865
:10549C007A207B00900268E0F91213347A207B00AA
:1054AC00900268E0F91212207A00900268E0F9127A
:1054BC0012AA79008003F07900D083D08202011FF8
:1054CC0074E812179EEAF8EBF9ECFAEDFB9002691E
:1054DC00E064086005790C025699EA24FAFCEB3476
:1054EC00FFFDC3EC947BED940C400302562474181E
:1054FC0012177AE0FCA3E0FDEC24FAFEED34FFFF7A
:10550C00C3EE947BEF940C4003025624C3EC9AED4B
:10551C009B5003025624741A12177AE0F516A3E076
:10552C00F517C3E51694F4E51794014003025624CD
:10553C00741C12177AE0FEA3E0FFEE24F6F508EFD8
:10554C0034FFF509C3E5089477E509940C40030290
:10555C005624C3E9940F5079C3E89403E99400509E
:10556C00708808E875F00DA4C50885F00A250AF5C1
:10557C000A75F00DE9A4250AF509749C2508F58235
:10558C0074023509F583E0700479028046E875F001
:10559C000DA4C885F0082508F50875F00DE9A425BB
:1055AC0008F9749928F514740239F515E514246E6C
:1055BC0012569CE0600AE514246A12569CE0600CBA
:1055CC00E514247312569CE06401700A793A025671
:1055DC009979120256998E088F097403780812175C
:1055EC001BF50AF50BE5162401F510E43517F5113A
:1055FC00E4F512F513ECF8EDF9E82CF8E933F98839
:10560C000C890DE4F50EF50F7810790C1214127844
:10561C000879101213D34004791280717901120B9E
:10562C003074FF6A700374FF6B7004793B805EE525
:10563C0014247612569C7402F0E514247712569CAE
:10564C00E4F0A3F0E5142430F582E435151256A4E9
:10565C00E5142474F582E43515125465E5142479A7
:10566C0012569CEAF0A3EBF0E514247B12569CE551
:10567C0016F0A3E517F0E514247D12569CEEF0A36A
:10568C00EFF07900AA14AB15120B0079000253C885
:10569C00F582E43515F58322F583E02407F8A3E0C1
:1056AC003400F9227F0102187074F312179E9002D5
:1056BC0069E064086005790C02581FEC4D601674A3
:1056CC000D12177A125838450B600A740F12177A9C
:1056DC001258427005791202581FC3EB940F504EAA
:1056EC0012586C5049125A5A125C43700479028059
:1056FC003F75F00DEBA42EFB749928FE74023BFF52
:10570C00EE24E41253D67017EE24E5F8E43FF97A50
:10571C007D7B0212584A64857003EB640270F4EED0
:10572C0024E51253D6A2E0400A791102581F7912CF
:10573C0002581FEE249CF8E43FF9EC2408FAE43DEF
:10574C00FB8C828D83E088828983125AFBAC82ADFC
:10575C008388828983A3A882A983EA6C7002EB6D8B
:10576C0070DF850A82850B83E0C0E0EE24A4F5820D
:10577C00E43FF583D0E0F0850A82850B83A3E0C07B
:10578C00E0EE24A5F582E43FF583D0E0F07C00A8A0
:10579C0008A90988828983E0C0E0ECFAC3E49AFA8C
:1057AC0095E0FBEE2AFAEF3BFBEA24D2F582E43BD0
:1057BC00F583D0E0F00C88828983A3A882A983ECBE
:1057CC00C3941040CEEE2494FAE43FFB120B84EE0B
:1057DC002488FAE43FFB120B8A90026BE04480F0C1
:1057EC00EE246212582E24D312582E24D412582E82
:1057FC0024831253D66401700A1258247401F07970
:10580C000A8007125824E4F07903EEFAEFFB120B2E
:10581C000079007F05021870EE24DDF582E43FF577
:10582C008322F582E43FF583E4F0EE22E0F50AA34F
:10583C00E0F50BE50A221253EAE5084509228A82B3
:10584C008B83E088828983125865AA82AB83888215
:10585C008983A3A882A983EA22F08A828B83A3225C
:10586C00C3EA9403EB94002275F00DEBA42CFB74AB
:10587C009928FA74023BFB22790C02011F74F01276
:10588C00179E890AEAFEEBFF120C5C8A088B091240
:10589C000CC88A0C8B0D8C0E8D0F8E828F8374012D
:1058AC00F0E50A600A7401650A600479128072E5F9
:1058BC00084509604D780C1219AD8508828509835D
:1058CC00A3A31216041222737404121744E960394C
:1058DC0090811FC082C083780C1219AD8508828517
:1058EC000983A3A31216041222CF74041217448A3C
:1058FC000C8B0D8C0E8D0FD083D082780C1213F381
:10590C005007A90A120A7C8016E50A90026B7005F2
:10591C00E044018003E04402F08E828F83E4F0794E
:10592C00000259F974F012179E890AEAFEEBFF1275
:10593C000C5C8A088B09120CC88A0C8B0D8C0E8D92
:10594C000F8E828F837401F0E50A60117401650A71
:10595C00600B7402650A600579120259F9E5084575
:10596C0009604D780C1219AD850882850983A3A3B3
:10597C001216041222737404121744E960399081D0
:10598C001FC082C083780C1219AD850882850983EB
:10599C00A3A31216041222CF74041217448A0C8B80
:1059AC000D8C0E8D0FD083D082780C1213F3500710
:1059BC00A90A120A828034E50A600B146010146084
:1059CC001514601A801F90026BE04404801690023C
:1059DC006BE04408800E90026BE04410800690024D
:1059EC006BE04420F08E828F83E4F079007F080214
:1059FC001870125865A3A3E022125A0FA322125A50
:105A0C000FE022F08A828B83A3A3A3A322900256D9
:105A1C00E0900262F0900257E0900263F09002581E
:105A2C00E0900264F0900259E0900265F090025A06
:105A3C00E0900266F090025BE0900267F022125A4E
:105A4C004E2234FFF9C3E822E0FAA3E0FB22EAF885
:105A5C00EBF9E875F00DA4C8AEF02EFE75F00DE96B
:105A6C00A42E2274F012179EEAFEEBFF120C5C8A35
:105A7C00088B09120CC88A0C8B0D8C0E8D0F8E8224
:105A8C008F837401F0E5084509604D780C1219AD4F
:105A9C00850882850983A3A3121604122273740449
:105AAC00121744E9603790811FC082C083780C12B2
:105ABC0019AD850882850983A3A31216041222CF7F
:105ACC0074041217448A088B098C0A8D0BD083D06E
:105ADC008278081213F35005120A8E800D90026C16
:105AEC00E04401F08E828F83E4F079000259F9F0E2
:105AFC008C828D83A32274F712179E74FF12172EBB
:105B0C00EA4B60078A828B837403F0EC4D6009903A
:105B1C000296E08C828D83F0740A12177A125A5412
:105B2C00EA4B7003025C137F007E00807B7401F0F3
