:020000040000FA
:060000000201070220C10D
:03002B00022307A6
:03003B0002232D70
:030043000222E1B5
:0300530002213750
:10008300021F17E5C754F84401F5C77901220000A0
:100093000080FB120086B900030200F1E4791A78AC
:1000A30002B800028004F709D8FCE4791C7802B88E
:1000B30000028004F709D8FCE49001817812791DCD
:1000C3008002F0A3D8FCD9FA7A927B1D900137788D
:1000D300DB79018015E493A3AD82AE838A828B839F
:1000E300F0A3AA82AB838D828E83D8E9D9E7758288
:1000F300B17583C1740312011975829175830074FC
:100103000012011975D00075814F75188175190199
:10011300759F00020096C09FF59FE473D09F22D085
:1001230083D082C09FE493C0E0740193C0E0740263
:1001330093F59F228B039703CD03C703FF0000B4FE
:10014300000028002800283075A000A000A000A00F
:100153000000080008E001F000100010001000107B
:10016300001000100050005000500010001000D08C
:10017300070000000000000F0001000500307507B4
:10018300001000010081FF00000000FFFFFF0202DA
:10019300026A810100005781026281010000EC1DA7
:1001A300027081010000B801026281010000ED1DAF
:1001B300026681010000CE01FFFF0100FF20026AF9
:1001C300810100005D810262810100001B1E02604B
:1001D300810000000000027481030000FA0117008F
:1001E300AD0BAD0BAD0BAD0BAD0BAD0BAD0BAD0B4C
:1001F300AD0BAD0BAD0BAD0BAD0B8D0DAB0D870D7E
:1002030001E803057710020AFFFFFF00FEFF12015A
:100213002273B70312012286B703120122A7B70381
:1002230012012212B80312012253B80312012274DD
:10023300B803120122B5B803120122FDB80312015B
:100243002212A10312012225A10312012256A103A6
:1002530012012290A103120122E9A103120122300B
:10026300A20312012278A203120122A7A203120100
:1002730022D6A2031201220DA30312012254A303C7
:100283001201226DA303120122C2A303120122F061
:10029300A3031201222AA403120122F08A021201EB
:1002A30022F38B02120122208C02120122718C0292
:1002B300120122948C02120122A68C02120122A99D
:1002C3008C02120122E78C021201225B8D021201C1
:1002D30022C78D021201228F8E02120122AB8E02DF
:1002E300120122E28E021201221C8F02120122B39A
:1002F3008F0212012205900212012236900212018E
:1003030022679002120122749002120122DE9002EF
:10031300120122E190021201223891021201223BC2
:1003230091021201227491021201227791021201A9
:1003330022AB9102120122AE910212012202920219
:100343001201224B92021201225B92021201228EAF
:1003530092021201229B92021201229E9202120128
:1003630022069302120122089402120122AC940283
:100373001201221595021201225395021201224500
:10038300B30212012242B402120122D8B4021201B2
:100393002223B50212012287B50212012211B602ED
:1003A300120122CAB602120122ECB9021201226919
:1003B300BB021201228CBB021201224889031201E3
:1003C30022ED8A031201220D8B031201222E8C03CC
:1003D300120122818C03120122A89103120122D05F
:1003E3009103120122FD910312012235920312019E
:1003F30022939203120122DF9203120122469303F6
:10040300120122869303120122C39303120122F1E4
:1004130093031201229B9403120122A59403120158
:1004230022B29403120122E59403120122F19403F0
:10043300120122099503120122139503120122C00E
:10044300BC03120122CEBC03120122E6BC0312013B
:1004530022FEBC0312012215BD0312012222D40184
:10046300120122CCD40112012248D50112012266C5
:10047300D601120122A2D6011201223DD701120197
:100483002221D801120122E4D8011201225CD901F0
:10049300120122EADA011201225BDB0112012215A9
:1004A300DC0112012207DD0112012247DD011201E5
:1004B30022FBDD011201222DDE0112012223E001C4
:1004C30012012265E00112012283E00112012208D8
:1004D300E101120122CCE101120122EBE30112013D
:1004E300228E9903120122A49903120122C29903B5
:1004F300120122D39A03120122DD9A031201220868
:100503009C03120122FF9C031201226C9D03120122
:100513002242EE02120122E6EE021201221DEF0236
:1005230012012274EF0212012289F102120122C286
:10053300AC0112012273AD0112012288AD01120137
:100543002251AE011201226BAE0112012241AF0111
:1005530012012233B001120122EAB001120122F882
:10056300B301120122E7B50112012299B60112016A
:100573002262B701120122A7BA0112012251BB0163
:100583001201227ABC0112012236BE01120122D6C7
:10059300BE0112012224BF0112012263BF01120115
:1005A3002236C0011201226AC001120122F7C001E2
:1005B300120122EDC10112012279C201120122DDD1
:1005C300C301120122E9C30112012224C401120151
:1005D3002293C4011201229CC501120122A5C60166
:1005E3001201226CC701120122C9C801120122E7BC
:1005F300C80112012204C901120122CFC90112014B
:1006030022F7C901120122C1CC01120122C6CC0179
:10061300120122DFCE011201222DCF011201229DF0
:10062300CF01120122DBCF01120122B7D001120147
:100633002277D101120122C3D101120122C6D101B5
:100643001201220AD20112012252D2011201229175
:10065300D201120122B3D201120122E7D201120107
:10066300224AD30112012238E90212012241E9028E
:100673001201224FE902120122A2E902120122C150
:10068300E90212012206EA021201224AEB021201D6
:1006930022E5EB0212012229EC0212012253EC02A1
:1006A300120122C2EC0212012208ED021201227F82
:1006B300ED0212012230EE02120122A723001201E1
:1006C30022482400120122A42400120122612500E1
:1006D3001201227D2600120122AF2600120122DE22
:1006E30026001201228B2800120122022B00120184
:1006F30022722D00120122642E001201225D2F00AE
:10070300120122643100120122583400120122879F
:1007130035001201228B37001201229B380012018F
:10072300222A3A001201221B3B00120122693B00DC
:10073300120122D83B00120122FC3B001201224D80
:100743003C00120122EE4000120122EF410012018F
:10075300225042001201227B420012012241430037
:10076300120122A19503120122AB9503120122F07B
:100773009503120122049603120122949603120197
:1007830022BC9603120122F796031201222097033B
:10079300120122549703120122699703120122D4F2
:1007A3009703120122F597031201220998031201FC
:1007B300221E9803120122589803120122BD9803A6
:1007C3001201220099031201222A990312012266BF
:1007D300990312012278FE01120122008002120104
:1007E30022E380021201225E810212012299810218
:1007F300120122EA82021201227383021201228B66
:1008030085021201221D8802120122CF88021201E1
:1008130022EE8902120122478A0212012215E40202
:1008230012012258E402120122DCE402120122AF77
:10083300E50212012286E80212012227AB0312010C
:1008430022D4AB03120122E1AC0312012220AD0337
:100853001201227AAD0312012205B40312012268A8
:10086300B40312012205B50312012233B5031201A9
:100873002254B5031201228FB503120122AFB5032F
:100883001201221BF802120122A7F80212012266AA
:10089300F9021201227EFA0212012298FC021201CD
:1008A3002291A902120122B6A9021201228AAA02E6
:1008B300120122F7AA021201224DAB02120122E910
:1008C300AB021201221DAD02120122F8AD02120188
:1008D3002257AE0212012228AF02120122B4AF0244
:1008E300120122B7AF0212012201B00212012273D8
:1008F300B0021201221EB1021201223EB102120104
:100903002286B102120122A2B1021201221CB202FA
:100913001201222AB202120122B9B20212012222C8
:10092300B302120122B2840312012237850312019A
:10093300227985031201225D8603120122CA8603EE
:100943001201220E87031201225287031201227F12
:100953008703120122A78703120122DF87031201F3
:10096300221D8803120122448803120122BE880338
:10097300120122088903120122F25B00120122BF35
:100983005D00120122AD5F0012012201600012011D
:10099300222C6000120122DA60001201220A610097
:1009A3001201223961001201224C61001201228DD1
:1009B3006100120122B961001201220762001201D3
:1009C300223E62001201228A6200120122E96200C1
:1009D3001201227C63001201226664001201225577
:1009E3006500120122356700120122546C001201C6
:1009F30022AD6C00120122966E0012012265700076
:100A0300120122E770001201223572001201224600
:100A13007200120122C5AD03120122B0AE0312010E
:100A230022F3AE0312012242AF0312012293AF035A
:100A3300120122E4AF03120122AD43001201222E60
:100A430044001201225B4400120122A4440012015B
:100A530022A54500120122F445001201227047002D
:100A6300120122F247001201224F4800120122A272
:100A73004800120122914900120122264B00120163
:100A830022F04B00120122004C001201222A4C00DA
:100A93001201222D4C00120122104D00120122FBE3
:100AA3004D00120122A84E00120122054F0012012F
:100AB300225E4F00120122C24F001201226A50002F
:100AC3001201220651001201229351001201220841
:100AD3005200120122645200120122C35200120179
:100AE30022EA5200120122A8530012012299550052
:100AF300120122E255001201221256001201228530
:100B030056001201220B5800120122BB5800120199
:100B130022E058001201221F590012012234590009
:100B2300120122775900120122E7590012012231E2
:100B33005A001201223B5B00120122BC5B0012012E
:100B430022D19F021201221CA00212012228A0021C
:100B5300120122FCA00212012213A102120122504F
:100B6300A10212012281A102120122B9A1021201E2
:100B7300220FA20212012225A20212012261A20265
:100B830012012274A2021201229BA202120122CF9D
:100B9300A202120122F5A3021201223FA5021201B1
:100BA300223BA60212012258A702120122F17F0062
:100BB300120122E8DE0212012296E202120122CA87
:100BC300E30212012285F20112012248F50112010A
:100BD300224EF5011201220BF80112012265FA01DE
:100BE3001201220080031201229780031201225571
:100BF30081031201227F8103120122B583031201B3
:100C030022778101120122B28101120122068C0195
:100C1300120122728D011201226F8E01120122F440
:100C23009101120122DA920112012226930112018B
:100C3300224093011201228193011201228A93011E
:100C43001201223A94011201220A95011201225142
:100C53009501120122B79501120122299601120171
:100C630022CFFC02120122ACFD02120122F0FD028E
:100C73001201222AFE02120122C2FE0212012231B5
:100C8300FF021201223AFF0212012246FF02120161
:100C93002260FF021201228AFF02120122BAFF021E
:100CA30012012254D30212012261D3021201227BC8
:100CB300D302120122AED302120122ECD30212019B
:100CC3002251D40212012266D4021201227DD402DF
:100CD3001201228BD4021201229AD402120122AFF2
:100CE300D402120122C4D402120122CFD40212016F
:100CF30022DBD402120122E8D402120122F7D40229
:100D030012012202D50212012227D502120122CB9F
:100D1300D502120122E0D502120122F5D5021201F9
:100D2300220FD6021201222CD60212012249D60228
:100D330012012254D60212012200D702120122E12B
:100D4300D70212012206D80212012211D80212017F
:100D53002226D8021201223AD8021201229BD8027B
:100D6300120122A1D802120122A7D802120122AD38
:100D7300D802120122C5D802120122F8D8021201A8
:100D8300227995021201229B950212012263960297
:100D93001201221D9902120122339A0212012254D6
:100DA3009B021201222E9C02120122DD9C021201DF
:100DB300226E72001201220573001201229D73003C
:100DC3001201228D7400120122C47400120122D771
:100DD3007400120122457500120122E0760012010F
:100DE30022077700120122A97700120122DE770081
:100DF300120122EF77001201226878001201228982
:100E03007800120122A17800120122F9790012015F
:100E130022027C00120122527E00120122557F0021
:100E2300120122A47F00120122F8E301120122F52C
:100E3300E401120122E0E501120122EAE5011201B7
:100E4300220CE60112012218E6011201226AE701CF
:100E530012012299E701120122C9E8011201220BB2
:100E6300E90112012237EA011201220DEB011201FD
:100E7300225FEB01120122BEEB01120122F5EB010D
:100E830012012230EC01120122CBEF01120122E404
:100E9300EF0112012266F00112012274F001120126
:100EA30022C9F001120122D7F00112012244F101FB
:100EB300120122B6F101120122FCF101120122BD3D
:100EC300B503120122E2B50312012253B603120144
:100ED30022AFBC02120122B8BC02120122C1BC0221
:100EE300120122F2BD0212012211C0021201224795
:100EF300C00212012281C002120122B7C0021201F4
:100F030022F1C00212012225C10212012251C102A3
:100F13001201229AC102120122D4C1021201221C1F
:100F2300C20212012272C202120122A7C2021201DC
:100F33002202C3021201223CC3021201228DC30208
:100F4300120122C3C302120122FDC3021201222095
:100F5300C4021201222ABF0312012256BF03120147
:100F630022B1BF03120122BBBF03120122CBBF0375
:100F730012012238F30212012277F3021201220036
:100F8300F40212012215F40212012260F40212018A
:100F9300229FF402120122F8F40212012247F50201
:100FA300120122A0F502120122ADF602120122A6BD
:100FB300F702120122E3F7021201228CFF01120150
:100FC30022759701120122F59901120122699B01F1
:100FD300120122C69B011201226F9C011201226C95
:100FE3009D01120122F49D01120122809E01120132
:100FF3002221A10112012292A1011201227EA2014A
:10100300120122B8A201120122F8A20112012298B0
:10101300A401120122C9A4011201221EA501120179
:10102300226BA501120122DCA501120122FFA501F9
:1010330012012219A6011201222FA7011201223F38
:10104300A701120122D0A801120122F0A801120166
:101053002226A901120122AAAA0112012223AB010D
:1010630012012262AB0112012294AC011201223857
:10107300B2031201229CB2031201224BB3031201E9
:10108300226AB303120122BEB303120122E8FF0254
:1010930012012204C20312012243C203120122ECF1
:1010A300FF0112012265C00312012275C003120160
:1010B300228AC003120122D3C003120122C6BA033B
:1010C3001201224ABB03120122B0BB03120122F414
:1010D3007F00120122769D031201228D9D031201CE
:1010E30022069E03120122DB9E03120122ADA003FE
:1010F300120122EDA7031201227FA803120122FD90
:10110300A80312012284A90312012216AA031201C1
:10111300226DAA0312012277AA0312012286AA03CF
:101123001201229CAA03120122AFAA031201221068
:10113300AB0312012224AB031201227EBE03120170
:1011430022E8BE03120122F3BE0312012203BF03EE
:101153001201220EBF03120122A5BD03120122CEEA
:10116300BD03120122F7BD0312012239BE0312018E
:10117300227AD90212012284D902120122C4D9028D
:101183001201220DDA0212012247DA021201229D14
:10119300DA02120122BCDA02120122C5DA021201BA
:1011A3002216DB021201223FDB0212012254DB0270
:1011B300120122C4DB0212012252DC021201229626
:1011C300DC02120122BEDC021201223DDD02120109
:1011D3002280DD02120122BDDD02120122CFDD02D7
:1011E300120122EEDD02120122F7DD02120122BCFE
:1011F300DE0212012228B90312012279B903120176
:101203002202BA0312012268BA0312012292A40332
:10121300120122BCA403120122B6A503120122DB90
:10122300A5031201227CA60312012202A7031201C5
:1012330022C9BB0312012236B0031201226CB00390
:10124300120122A5B003120122FEB103120122DC16
:10125300C003120122F2C003120122FCC0031201D7
:101263002252C103120122AEC4021201226BC50233
:10127300120122A6C502120122CEC502120122309A
:10128300C6021201227CC602120122E7C602120123
:101293002263C7021201225FC802120122E6C902B9
:1012A30012012269CA02120122CDCA02120122E4EA
:1012B300CA02120122DACB0212012226CC02120147
:1012C300228E8D03120122A38D03120122568E0357
:1012D300120122968E03120122AF8E03120122E223
:1012E3008E031201222F8F03120122638F03120137
:1012F30022A58F031201229B9103120122D5BF0362
:10130300120122F0BF0312012218C003120122842A
:10131300CC0212012278CD021201228FCD021201DA
:101323002259CE02120122BCCF0212012259D0024D
:1013330012012297D002120122A0D002120122131D
:10134300D10212012262D2021201224DC203120102
:101353002293C203120122BFC203E066701008A3E6
:10136300E066700A08A3E066700408A3E06622C37F
:10137300E7960809E7960809E7960809E79622C35E
:10138300E09608A3E09608A3E09608A3E09622C09F
:1013930008C3E096F50808A3E096420808A3E09680
:1013A300420808A3E09645087001D3D00822080834
:1013B30008EAC0E0EBC0E086F0E7A4FA180986F07B
:1013C300E7A42AFA180986F0E7A42AFA180986F08E
:1013D300E7A42AFA1986F0E7A4FBE5F02AFA19082C
:1013E30086F0E7A42BFBE5F03AFA190886F0E7A4A8
:1013F3002BFBE5F03AFA18180986F0E7A4C5F02BA1
:10140300FBE43AFA1908E7C5F0C6A426F6E5F03B73
:10141300FBE43AFA1886F0E7A4F6E5F00826F6E4CA
:101423003B08F6E43A08F6D0E0FBD0E0FA22E4CF3A
:10143300C0E0E4CEC0E0E4CDC0E0E4CCC0E075F0B1
:1014430020E626F608E633F608E633F608E633F632
:10145300181818EC33FCED33FDEE33FEEF33FFC306
:10146300EC9709ED9709EE9709EF97191919400FB2
:10147300FFEC97FC09ED97FD09EE97FE191906D5C8
:10148300F0BFECF709EDF709EEF709EFF7191919B2
:10149300D0E0FCD0E0FDD0E0FED0E0FF22601608F3
:1014A3000808C6C313C618C613C618C613C618C67B
:1014B30013C6D5E0EA227009080808226016181836
:1014C30018C6C333C608C633C608C633C608C633F0
:1014D300C6D5E0EA22E627F60809E637F60809E664
:1014E30037F60809E637F622E026F608A3E036F6D3
:1014F30008A3E036F608A3E036F622E026F008A3B8
:10150300E036F008A3E036F008A3E036F022C3E6A5
:1015130097F60809E697F60809E697F60809E697A5
:10152300F622C3E096F008A3E096F008A3E096F055
:1015330008A3E096F022E657F60809E657F60809ED
:10154300E657F60809E657F622E056F608A3E056F2
:10155300F608A3E056F608A3E056F622E056F00894
:10156300A3E056F008A3E056F008A3E056F022E00B
:1015730066F608A3E066F608A3E066F608A3E0664D
:10158300F622E0F608A3E0F608A3E0F608A3E0F6E7
:1015930022E6F008A3E6F008A3E6F008A3E6F022AB
:1015A300E0FAA3E0FBA3E0FCA3E0FD22EAF0A3EB57
:1015B300F0A3ECF0A3EDF022E0F8A3E0F9A3E0FA46
:1015C300A3E0FB22E8F0A3E9F0A3EAF0A3EBF02207
:1015D300CAC0E0E6F0A308DAFAD0E0FA22CAC0E013
:1015E300E0A3C582CCC582C583CDC583F0A3C582E4
:1015F300CCC582C583CDC583DAE6D0E0CA22C3E475
:1016030098F8E499F91216428026C3E49AFAE49B07
:10161300FBE920E7E9121642E498F8E499F922C3BA
:10162300E498F8E499F9121642E498F8E499F9C3B6
:10163300E49AFAE49BFB22EB20E7CFE920E7E0B949
:101643000010BB0008E88AF084F8AAF022E4FBC883
:10165300FA22EB70227B10C833C8C933C933500751
:10166300C39AC3DBF280069A50012ADBEAC833F43B
:10167300C8C933F4C9FA2275F008E4C833C8C933BA
:10168300C933C99AC99B5004C92AC93BD5F0ECFB9D
:10169300C833F4C8E4C9FA22600D08C6A2E713C62A
:1016A30018C613C6D5E0F322600C08C6C313C618C8
:1016B300C613C6D5E0F422700422600D18C6C333E6
:1016C300C608C633C6D5E0F41822251810AF08F5AE
:1016D30018400C15198008F51840021519D2AF22CD
:1016E30000C0D0251810AF08F518500C0519800854
:1016F300F51850020519D2AFD0D0222518F5821063
:10170300AF08F518400C15198008F5184002151993
:10171300D2AF851983222518F582E43519F5832282
:101723002518F8E43519F9222518FAE43519FB22AE
:101733002518FCE43519FD22E4732518C582C0E0A1
:10174300E51934FFC583C0E0E518C3958224F8107A
:10175300AF088583198582188008858319858218C7
:10176300D2AFCEF0A3E520F0A37808E608F0A3DE1D
:10177300FAEFF0A3E58124FAF8E608F0A3E608F00F
:10178300A3E608F0A30808E608F0A3E608F0A3150B
:10179300811581D0E0FED0E0F8158115811581E82F
:1017A300C0E0EEC0E0222518C582C0E0E51934FF91
:1017B300C583C0E0E518C3958224F910AF0885837B
:1017C300198582188008858319858218D2AFCEF0D7
:1017D300A3E520F0A37808E608F0A3DEFAEFF0A370
:1017E300E58124FBF8E608F0A3E608F0A30808E681
:1017F30008F0A3E608F0A315811581D0E0FED0E040
:10180300F815811581E8C0E0EEC0E02285198385D3
:101813001882E0A3FEE0A3F5207808E0A3F608DF32
:10182300FAE0A3FFE0A3C0E0E0A3C0E0E0A3C0E0D0
:10183300E0A3C0E0E0A3C0E010AF08858218858371
:10184300198008858218858319D2AFD083D082028C
:10185300011F851983851882E0A3FEE0A3F5207894
:1018630008E0A3F608DFFAE0A3FFE0A3C0E0E0A3EB
:10187300C0E0E0A3C0E0E0A3C0E010AF0885821899
:101883008583198008858218858319D2AFD083D0C8
:101893008222C0D02518C582C0E0E51934FFC58374
:1018A300C0E0E518C3958224F310AF08858319853A
:1018B30082188008858319858218D2AFC8F0A3E9FE
:1018C300F0A3EAF0A3EBF0A37908E709F0A3D8FAB1
:1018D300ECF0A3EDF0A3EEF0A3EFF0A3D0E0F0A3C0
:1018E300D0E0F0A3D0E0F0A3E520F0A3E5F0F0A36F
:1018F30022851983851882E0C0E0A3E0F9A3E0FA0A
:10190300A3E0FBA37808E0F608A3DFFAE0FCA3E07A
:10191300FDA3E0FEA3E0FFA3E0C0E0A3E0C0E0A3DB
:10192300E0F5D0A3E0F520A3E0A3F5F010AF088520
:1019330083198582188008858319858218D2AFD0D0
:1019430082D083D0E0F8D0E0327404800674028041
:10195300027401C0E0F4041216FED0E01215D32283
:101963007404800474028000CCC0E0EDC0E0E5188C
:10197300C39CCCAD1950011D10AF068C188D198076
:10198300068C188D19D2AF1215E0D0E0FDD0E0FC23
:1019930022D083D082E9C0E0E493A3C386F0C5F0EC
:1019A30095F0F908E493A386F0C5F095F0700BE485
:1019B30093A3C3994005E9048002A3E475F002A44C
:1019C3002582F582E5F03583F583D0E0F9E493A32E
:1019D300C0E0E493C0E022D083D082ECC0E0EDC04D
:1019E300E0E493A3FCE493A3FDED4C600D121A26EF
:1019F300EC24FFFCED34FFFD80EFE493A3FCE493C0
:101A0300A3FDED4C600D121A65EC24FFFCED34FFD1
:101A1300FD80EFD0E0FDD0E0FCE493A3C0E0E493CD
:101A2300C0E022C0E0C3E493960874019396184083
:101A33000FE49366700808740193661870007019B8
:101A4300A3A3C3E49396087401939618A3A3400D2C
:101A5300D0E0D0E0D0E0021A16A3A3A3A3A3A3D09F
:101A6300E022C0E0C0F088F0E493667008087401D7
:101A73009366187000A8F0A3A3700BD0F0D0E0D049
:101A8300E0D0E0021A16A3A3D0F0D0E02274F6123D
:101A930017A9EAFEEBFF8C088D09EE2434F8E43F26
:101AA300F9E8FCE9FDEE2435121D5CFAEE24371249
:101AB3001D5CF88508F0A4C885F00A8509F0A42503
:101AC3000AF9EA28F8E439F97A257B00121642EA82
:101AD3008C828D83F0FA131313541FF8EE28F8E465
:101AE3003FF9E8245DF582E439F583E0C0E074074B
:101AF3005AF8D0E0B800028004C313D8FCA2E0EE89
:101B030050082434F582E43F80182436121D5CF516
:101B1300F0EA84A8F0EE28F8E43FF9E82438F582E7
:101B2300E439F583E0F97F0302185574F71217A916
:101B3300EAFEEBFFEE2434121D5CC0E0EE2435F523
:101B430082E43FF583D0E0F08E828F83A3A3A3A327
:101B5300A3A3A3C082C0838E828F83A3A3A3A3A3C3
:101B6300E0F8A3E0F9D083D082E0C398F508A3E0BE
:101B730099F509EE247F121D5C6401703EEE24800A
:101B8300F582E43FF583C082C0838E828F83A3A353
:101B9300A3A3A3E0240108A3E03400F9D083D082F7
:101BA300E0687003A3E06970127CC07D05120AE14E
:101BB300EE247FF582E43FF583E4F0AC08AD09EE53
:101BC300FAEFFB121A90E9F91222D37F0202185599
:101BD30074EF1217A9900269E064086005E06407D6
:101BE300702A9061C8E06024900297E0F4601DE0E1
:101BF300F875F00DA4C8AAF02AF9749928FE7402A6
:101C030039FF8E828F83A3A3A3E07003021CE190AC
:101C13006060E0C0E0EE2468F582E43FF583D0E045
:101C2300F0750CFC750D05750800750900E5D914F0
:101C3300F50AE5D95403F50E60127403650E60438B
:101C4300E50A600AEE2467121D5C70028075900538
:101C5300F7E06401601F121D5960047A0480027A60
:101C630000E50AC39AFA95E0FB12098B8A088B09EF
:101C7300EA45097005120D638064121D5970048AC8
:101C83000C8B0DE50A6012850C82850D83F50BE53F
:101C9300D9F0A3150BE50B70F6121D59604474FCC3
:101CA300250AF50A780C121950AC0AA90EEEFAEFC0
:101CB300FB120BA774021216E3E97026AA08AB09FC
:101CC3001211FB793D8E828F83A3A3A3A3E0FA7B3A
:101CD30000120805EEFAEFFB120B05120C07790050
:101CE300806F7403650E6051850A107511007810BA
:101CF300121950AC0CAD0DAA08AB09120B6B740290
:101D03001216E3EE2468121D5C64807004747F80F5
:101D130001E0F50C780C121954E50EF50C780C1251
:101D23001954A90AAC08AD09900297E0FA7B001296
:101D330007D574021216E38013900269E0640870F9
:101D43000BAC0CAD0DEEFAEFFB120BD7120D6F7946
:101D5300017F0A021855EE2483F582E43FF583E000
:101D63002274F21217A974FC1216CDEAFEEBFF8956
:101D730009A2AFE433F508C2AF021E2EE0601B7860
:101D83000C121950AC0BA90EEEFAEFFB120BA17457
:101D9300021216E37404250BF50B7401250BF5D918
:101DA300850ED9E50B6018F50A850C82850D83E055
:101DB300F5D9A385820C85830D150AE50A70EA75AA
:101DC300E195EE2463F8E43FF97A007B00A2AFE4E7
:101DD30033F50BC2AF88828983E0FCA3E0FDEC4DB1
:101DE300603A88828983E0FAA3E0FB8A828B83E0EE
:101DF300FCA3E0FD88828983ECF0A3EDF08A828B5B
:101E030083E4F0A3F088828983E0FCA3E0FDEC4D3A
:101E1300700A88828983A3A3E4F0A3F0E50BA2E010
:101E230092AF1211FB9005C7E004F0EE2463121D7C
:101E33005CF8A3E0F9E8496064EE2463121D5C24B6
:101E430002F8A3E03400F988828983E5822402F54D
:101E53000CE43583F50DE0F50BA3E0F50EEE2462FB
:101E6300121D5C640170369061D0E0F8121D596058
:101E7300047C0480027C007480C398FA95E0FBE53F
:101E83000B2CF8E43400F9E82402F8500109C3EA02
:101E930098EB99A2D265D0334003021D7F9005C70A
:101EA300E0604D9005C8E0F89005C7E0C398500C7A
:101EB30074026509703A9005C9E060348E828F839D
:101EC300A3A3A3A3E0851882851983121F037402B9
:101ED300121719E8121F039005C6E028F0740212C6
:101EE3001733AA18AB19790112082F9005C7E4F02C
:101EF300E508A2E092AF74041216E37F07021855B7
:101F0300F0A3E4F09005C7E0F822000000851A87EB
:101F1300851BC622C0E074EB121895A2AFE433F51B
:101F230008C2AF759B00906182E0A2E05030E5915A
:101F3300A2E0502A7591FE7401651A70211220AA3D
:101F4300120C9712209812196312220F740412169E
:101F5300E3E9640170057901120CC7121BD3906188
:101F630082E0A2E5505DE591A2E550577591DF90BF
:101F73000269E064076005E06408702F1220AA7408
:101F830001651A703E120C971220981219631222DF
:101F93000F74041216E3E9640170057901120CC78A
:101FA3007901EEFAEFFB121D648018E0640D7013E3
:101FB30090028BE004F064287002E4F07A00E0F908
:101FC300120D75906182E0A2E6400302206DE59157
:101FD300A2E6400302206D7591BF900269E064059B
:101FE3007008120C7F120C8B8003120C85751A007B
:101FF300120CE5E990026AF07900120CC7120A4B41
:102003007A017B00900268E0F91211CB907803E02B
:10201300644270569005FBE014F0704EC2AF12207C
:102023002400781DD0E0F618D0E0F6E59F5407F8B9
:102033007005750DFF8003750D7FC4C0E0781CE645
:10204300F50A08E6550DF50B740B780A1216ABD09A
:10205300E0250AF8906270E0A2E740F8E8C3339005
:102063006272F0906270E0D2E0F0906181E0A2E3EE
:102073005009E5E9A2E3500375E9F7A3E0A2E750AD
:1020830009E591A2E7500375917FE508A2E092AFBD
:102093007F080218F48E828F83E0F8A3E0C8241629
:1020A300F582E438F58322900297E0F875F00DA4E9
:1020B300C8AAF02AF9749928FE740239FF22C0E0F5
:1020C300C0D0C082C083906183E0A2E05009E5BF25
:1020D300A2E0500375BFFEE0A2E15009E5BFA2E113
:1020E300500375BFFDE0A2E25009E5BFA2E2500331
:1020F30075BFFBE0A2E35009E5BFA2E3500375BF40
:10210300F7E0A2E45009E5BFA2E4500375BFEFE096
:10211300A2E55009E5BFA2E5500375BFDFE0A2E6E3
:102123005009E5BFA2E6500375BFBFD083D082D06C
:10213300D0D0E032C0E074F2121895E5A7A2E650C1
:102143000FE5A1A2E6500953A7BF75A1BF12218BCA
:10215300E5A7A2E5500CE5A1A2E5500653A7DF755C
:10216300A1DFE5A7A2E15009E5A1A2E1500375A112
:10217300FDE5A7A2E2500CE5A1A2E2500653A7FB9E
:1021830075A1FB7F010218F474F71217A9751A01E0
:10219300900269E064067015120C2B8A828B83A36C
:1021A300A3A3A3A3A3E0FAA3E0FB120C6DA2AFE4E5
:1021B30033FED2AF90026FE0640170187A207B0087
:1021C300900268E0F91212E57A207B00900268E041
:1021D300F91211D1906182E0D2E6F09005F8E06047
:1021E3002185C61B801690026EE064017008E5C667
:1021F30054F84405F5C653BEFC121F107401651A4A
:1022030060E4EEA2E092AF7F0202185574F1121758
:10221300A98A088B098C0A8D0B9080F77808121510
:102223004C740F121719780C1215859080F7780CDF
:1022330012154C7808790C1213729081275010787C
:1022430008790C12151178081213924014800E7835
:102253000C7908121511780C12139250047901802D
:102263000279007F0802185574ED1217A98A088BAA
:10227300098C0A8D0B9080F7780812154C74131291
:102283001719780C1215859080F7780C12154C7875
:102293000C790812137240117808790C121511AADF
:1022A30008AB09AC0AAD0B802275100075110075DF
:1022B30012007513017810790C1215117810790832
:1022C3001214D8AA10AB11AC12AD137F0C0218551F
:1022D300C082C083E9906000F0D083D08222C0E046
:1022E30074F2121895A2AFE433FED2AFC2C0E5D1A7
:1022F300A2E4500675D10F121135EEA2E092AF7F22
:10230300010218F4C0E0C0D0E8C0E0E9C0E0A9A829
:10231300D2AFC2C7E9A2E7E433F8E9A2E792AFD0AC
:10232300E0F9D0E0F8D0D0D0E032C0E0C0D0E8C0CF
:10233300E0E9C0E0EAC0E0C082C083A2AFE433FAC0
:10234300D2AF900E5BE0F8A3E0687008539AFBA34A
:1023530074018022C2E9900E5BE0F8740128F074E6
:10236300DB28F582E4340DF583E0F5C1900E5BE0E4
:10237300C394804002E4F0EAA2E092AFD083D0821B
:10238300D0E0FAD0E0F9D0E0F8D0D0D0E032C2AF5C
:042393000200002222
:10239800FFFFFFFFFFFFFFFFD083D08202011F7402
:1023A800F612173DE99001DCF090023BE0F5087564
:1023B8000900740278081216BAAA08AB0912124367
:1023C8009001DD122D5A9001DD123147606F9002A5
:1023D8003BE075F003A4FAABF01212439001FA1235
:1023E8002D5A9001FA123147700B9001DD12311805
:1023F80012124980489001FA1240AC7AFF7BFF1212
:10240800106F7A0080198A0875090074027808121A
:1024180016BA123B5474FF12255AE4F0A3F00A903E
:10242800023BE0F8EAC39840DD79051206CD900139
:10243800DCE0F91205BF7A577B0712092B023BF73C
:1024480074F412173D8A088B09EB54806047900199
:10245800DCE0F91211B38A0A8B0BAE0AAF0BEE4F10
:10246800602A8E828F83E064B0701A1206DFE960FA
:10247800148E828F83A3A3A3A3E0F9EE2405FAE4C4
:102488003FFB1206B5EEFAEFFB1211A1AA08E50907
:102498006480FB80047A007B000226AA74F212177B
:1024A8003D74FB1216CDEAFEEBFFEE4F6045740358
:1024B800121719EEF0A3EFF0851882851983ECF056
:1024C800A3EDF07402121719E9F0AA18AB19120556
:1024D800B9E9F50870757413121719E0F50AA3E045
:1024E800F50BE50A450B60638E828F83122AE3EEB3
:1024F8004F700575080280537A067B001212438AD2
:102508000C8B0DA80CA90DE8497005750813803BC4
:1025180088828983E412255AEEF0A3EF122676E525
:102528000AF0A3E50BF09001E012266F9001E0603D
:1025380017E0FCA3E08003EAFCEBFD8C828D83129C
:10254800266F70F38C828D8312376FA90874050289
:10255800432CF0A312408EA32274F212173D89086F
:10256800890C750D007403780C1216BA850C0A854F
:102578000D0B9001DFF09001DD12357A12266D60A7
:102588002E1212497900801D890C750D007402788D
:102598000C1216BA9001DD123A138882F583A3A3B0
:1025A800E4F0A3F00990023BE0F8E9C39840D99021
:1025B800023BE0FA850AF0A4CAA8F0850BF0A4282B
:1025C800FB1212438A0C8B0DAE0CAF0DEE4F70034D
:1025D80002266390023BE0FC850AF0A4CCA8F085B3
:1025E8000BF0A428FD790012118F7C0080318D0C2E
:1025F800750D007403780C1216BA8A828B83122622
:102608006888828983E4F0122675A3A3F0A3F00DED
:10261800EDC3950840D8EE250AFEEF350BFF0C9068
:10262800023BE0F8ECC39850288C0C750D0074023E
:10263800780C1216BA9001DD122668E824025001BF
:1026480009FAE9FB8A828B83EEF0A3EFF07D008024
:10265800BFE5089001DFF079008002791302432F6B
:10266800123A17F922A3A312311CEA4B22A31240F3
:102678008EA3A3A32274F412173D7900EAA2E050B6
:102688001F7508DF750980780812195079107C04C5
:102698007D007A1C7B1E1206C774021216E3E9F944
:1026A80080007F0402180FC082C0839001E01231BD
:1026B80047601C88828983A3A3E06A7003A3E06B48
:1026C8008882898370E8A3A3A3A312311880047AAF
:1026D800007B000223A074F212173D74FD1216CD80
:1026E800EAFEEBFF851882851983E4F0A3F07402F3
:1026F8001217197401F0123144701412087D121265
:10270800439001E3122D5A123144700302287012CB
:102718002E5AEE2404F50AE43FF50B850A82F58368
:10272800E024FE603C24FC607424FE607E24FE707D
:10273800030227C024FE70030227CD24FE70030283
:1027480027DA24FE70030227E724FE70030227F429
:1027580024FC700302281524FE700302282D022889
:102768006912087D9001E5EAF0A3EB12287C1202B9
:102778004DE960030228699001E51219678E828F7E
:1027880083A3A3A3A3A31240AC850882850983125F
:10279800311812069D74021216E3022869AC18ADAE
:1027A80019EEFAEFFB1206E5022838AC18AD19EE5F
:1027B800FAEFFB1206EB8078AC18AD19EEFAEFFBD6
:1027C8001206F1806BAC18AD19EEFAEFFB1206F7A2
:1027D800805EAC18AD19EEFAEFFB1206FD8051AC25
:1027E80018AD19EEFAEFFB120703804474021217B2
:1027F80023880C890D780C1219507402121733EEC5
:10280800FAEFFB12070974021216E38023AC18AD25
:1028180019EEFAEFFB12070FE9F870167402121797
:1028280019E4F0803CAC18AD19EEFAEFFB1207156D
:10283800E9F8E8602C8E828F83A3E0641460228517
:102848000A82850B83E09001E5F08518828519835B
:102858001231189001E6122D5AE8A312287C1202B0
:1028680047EEFAEFFB1206737402121719E0F974B7
:102878000302432CF07CE57D0185088285098312DB
:10288800311C2274E812173D74FA1216CD74041222
:102898001719ECF0A3EDF08A128B13EA2405F50E54
:1028A800E43513F50FEA2402F510E43513F5118524
:1028B8001082F5831231181203798A0A8B0B750876
:1028C800007C037D0079007AE57B0112118FE50E0B
:1028D8002402F516E4350FF5177402121723880C35
:1028E800890D780C121950850E82850F83A3A3A336
:1028F800A3E0F50C750D00780C121950E50E2405AF
:10290800F50CE4350FF50D780C12195085168285F3
:10291800178312341F1205D774061216E38A0C8B1C
:102928000DE50C450D7003022AAC802085188285C0
:102938001983E088828983F00508851882851983C0
:10294800A3E0C0E0122AEDD0E0F00508E50A24FB78
:10295800FAE50B34FFFBC3E5089AE49B4003022A1F
:10296800AC7E007F00851282851383A3A3A3A3E016
:10297800F5097809121954E4F514F51578141219A3
:10298800507514E275150178141219509001E3126C
:1029980019677409121719121967E50A24F9F9ACAD
:1029A8000CAD0D85108285118312311812073F7402
:1029B800091216E3E96003022A4D850E82850F830A
:1029C800A3A3A3A3A3A3A3E0F89001E2E068707512
:1029D800E0F5148E1578141219501240A9850E824C
:1029E800850F83A3A3A3A3A3A3A3A3123118121132
:1029F8008974021216E3E9604C9001E612314770BF
:102A08003BE4F51478141219507CFF7DFF79078593
:102A180010828511831231181206AF74021216E360
:102A280012314D7017850E82850F83124246740449
:102A3800121719123B07123450022AE0850C8285BE
:102A48000D83122AE3A818A9198814891578141275
:102A5800195074041217191219678516828517837D
:102A6800122D501205E374041216E38A0C8B0DEE36
:102A78004F7003022929122AEDEE122AF8123406A1
:102A8800EF122AF8F8A3E03400F9E50C450D6003CD
:102A98000229348882898374FFF00508122AED74AC
:102AA800FFF00508E508601A1313543F122D601251
:102AB8000259E960099001E61231181211FB7900F8
:102AC8008016850E82850F831242467404121719E8
:102AD800123B0712376F790A0233D9A3A3A3A3E0E5
:102AE800FEA3E0FF22A8089001E6E028123406229F
:102AF800F00508089001E6E0282274E812173D74F2
:102B0800FA1216CD7402121719122D5A74041217DC
:102B180019ECF0A3EDF07402121719E02405123332
:102B2800EFE0F50CA3E0F50D7402121719E024028A
:102B3800F510A3E03400F511851082F583123118E1
:102B4800120379750800750900EA24FCFEEB34FFCE
:102B5800FF8008050CE50C7002050DA808C3EE9867
:102B6800EF94005003022D0CA818A919880E890F9C
:102B7800780E121950851482851583A3A3A3A31276
:102B880040B0121950E5142405F50EE43515F50F7B
:102B9800780E121950851482851583122D4E120550
:102BA800D774061216E38A0E8B0FEA450F700302DC
:102BB8002D0CEA2404F516E4350FF517851682F571
:102BC80083E0F50CA3E0F50D851882851983124082
:102BD800AC8A828B83A3A3A3E0F985108285118335
:102BE8001231181205C5E9F5096003022D0C7402AB
:102BF800121719123416F5097809121954E4F51246
:102C0800F51378121219507512E275130178121221
:102C180019509001E31219677407121719121967EE
:102C2800EEF9AC0EAD0F85108285118312311812A2
:102C3800073F74091216E3E9F5096003022D0CE554
:102C480008703FE4F50EF50F780E1219507CFF7DE1
:102C5800FF79098510828511831231181206AF7425
:102C6800021216E312343C700D7404121719122D57
:102C7800437911022D409001E2E024029001E6F030
:102C880080149001E6E0FA9001E2E0790024025015
:102C980001096A497072A8089001E2E0FAE82AFA84
:102CA800E43400FBEE9AEF9B405A85168285178321
:102CB800E0C0E09001E7122AF2D0E0F0050885169E
:102CC80082851783A3E0C0E0089001E7122AF2D0BA
:102CD800E0F005089001E21240B01219501240A924
:102CE800A8081233E312117774021216E39001E276
:102CF800E02508F50874FF650C700474FF650D6025
:102D080003022B5BE508601F9001E6E0F5F0E5089B
:102D180084122D6012025FE960099001E7123118F0
:102D28001211FB79008011E509700375090A740412
:102D3800121719122D43A9090233D912357EE50C51
:102D4800F0A3E50DF022A3A312433BAA0CAB0D227E
:102D5800A3A3EAF0A3EBF0229001E5F07CE57D0166
:102D680085108285118312311C2274EC12173D7470
:102D7800FC1216CD12387F74021217331231121258
:102D880005DD8A0C8B0DEA450D7003022E4A122EC2
:102D98005AA818A9198810891178101219507CFF9F
:102DA8007DFF790B8508828509831231181206AFD9
:102DB80074021216E3122F50700C850A82850B8359
:102DC80012344D022E578E828F83A3A3A3A3E0F55E
:102DD800127812121954E4F512F5137812121950D8
:102DE8007512E575130178121219507810121950DE
:102DF80074091217191219677409121719E0F9AC36
:102E08000CAD0D85088285098312311812073F74AD
:102E1800091216E3E9FE70157CE57D0185088285B7
:102E28000983123118120265E97009802074166E40
:102E380070027E009001E61231181211FBEE700448
:102E4800800B7E01850A82850B8312376CEEF902AE
:102E58003781EE2402F508E43FF5092274EC1217D5
:102E68003D74FC1216CDEAFEEBFF8C0E8D0FEE249E
:102E780005F508E43FF509740212173385088285C1
:102E880009831231181205DD8A0C8B0DEA450D7085
:102E980003022F40EE2402F50AE43FF50BA818A917
:102EA800198810891178101219507CFF7DFF790D4F
:102EB8001231121206AF74021216E3122F50700B61
:102EC80085088285098312344D807A8E828F83A388
:102ED800A3A3A3E0F5127812121954850882850974
:102EE80083A3A31219677512E575130178121219D5
:102EF80050781012195074091217191219677409A9
:102F0800121719E0F912310E12073F74091216E36D
:102F1800E9FE700F7CE57D0112311212026BE97037
:102F280009802074166E70027E009001E612311836
:102F38001211FBEE7004800B7E01850882850983DF
:102F480012376CEEF9023781123157F510A3E0F50C
:102F580011EA45112274E812173D74FE1216CD8A43
:102F6800168B178C148D15EA2405F50CE43517F526
:102F78000DEA2402F50EE43517F50F850E82F58368
:102F88001231181203798A088B09750B007C037DAE
:102F98000079007AE57B0112118F750A00E50814A3
:102FA800F5100424FFF508E50934FFF5098054906D
:102FB80001E5E0FA9001E2E0F8EA28F8E43400F9E3
:102FC800E50898E50999500D9001E5E0F8E510C38A
:102FD800989001E2F0E0F51275130078121219507A
:102FE8001240A99001E6E02AFAA3E03400FB12118E
:102FF8007774021216E39001E2E0F89001E5E02808
:10300800F0050A850C82850D83A3A3123A23400399
:103018000230F39001E5E0C39508E4950940030206
:1030280030F3AE0AEE2EFEE433FF123132AC18ADA7
:10303800191240C4E439FB1205DD8A128B13AC1255
:10304800AD13EC4D701B750B0112312212377090C5
:1030580001E612266F60031211FBA90B74020233FA
:10306800DB851682851783A3A3A3A3E0F50B780B52
:10307800121954E4F512F51378121219507512E268
:1030880075130178121219509001E3121967740729
:10309800121719121967A910850E82850F8312312C
:1030A8001812073F74091216E3E9F50B709B90019B
:1030B800E61231476003022FB7E4F512F5137812D0
:1030C8001219507CFF7DFF790F850E82850F8312C0
:1030D80031181206AF74021216E312314D60030262
:1030E8002FB71231221234510230647CE57D0185FC
:1030F8000E82850F83123118120271E960030230C3
:10310800577900023064AC0CAD0D850A82850B83BB
:1031180012311C22E0FAA3E0FB22123132E0FAA3BA
:10312800E0F9EA85148285158322850C82850D8352
:10313800E02EF8A3E03FF988828983229001E31208
:10314800424AE84922123157F8A3E0F9E8492290A7
:1031580001E6EAF0A3EBF09001E6E02274E812172A
:103168003D74FA1216CD7404121719122D5A8C16C2
:103178008D177404121719E02405F50EA3E0340026
:10318800F50F7404121719E024021233EF123118E4
:103198001203798A0A8B0B7F007E00A818A9198868
:1031A8000889097808121950850E82850F83A3A310
:1031B800A3A3E0F5088E097808121950E50E240536
:1031C800F508E4350FF5097808121950850E82853F
:1031D8000F83A3A312341F1205D774061216E38AAD
:1031E8000C8B0D8029123410F00F123410F00F9050
:1031F80001E212375B1219501240A9EFF81233E3BB
:1032080012117774021216E39001E2E02FFFE50C29
:10321800450D700302329F851882851983123891F3
:10322800A3A3A3E0F985148285158312311812052A
:10323800C5E9FEE50C2404F510E4350DF511EE7032
:10324800507404121719123416F508780812195414
:10325800E4F508F50978081219507508E2750901AE
:1032680078081219509001E3121967740712171998
:10327800121967E50A24FAF9AC0CAD0D851482859C
:10328800158312311812073F74091216E3E9FE601C
:103298003912342C12376FEF70030233C69001E6EF
:1032A800E0F5F0EF849001E5F07CE57D018514827E
:1032B800851583123118120277E960099001E71227
:1032C80031181211FB79000233D98F08EF703BE4F3
:1032D800F512F51378121219507CFF7DFF791185CC
:1032E80014828515831231181206AF74021216E380
:1032F80012343C700912342C1234500233D9900124
:10330800E2E024049001E6F080359001E2E0F890D4
:1033180001E6E0FAE82404FCE43400FDEC6A4D60C0
:10332800030232A5E50A24FAFAE50B34FFFBE508A7
:1033380028F8E43400F9EA98EB9950030232A5859D
:103348001082851183E0C0E09001E7E02FF8A3E048
:1033580034008882F583D0E0F00F851082851183D0
:10336800A3E0C0E01233FDD0E0F00F74021217237F
:103378008808890978081219507402121719121945
:1033880067850E82850F83122D4E1205E374041291
:1033980016E38A0C8B0DEA450D70030231ED7402B9
:1033A800121719E0C0E01233FDD0E0F00F740212DA
:1033B8001719A3E0C0E01233FDD0E00231F5EE703A
:1033C800027E0A850E82850F8312343212376FEE21
:1033D800F974061216E37F1002180F9001E7E0282F
:1033E800FAA3E03400FB22F514A3E03400F51585B8
:1033F8001482F58322123401229001E7E02FFAA308
:10340800E034008A82F5832212340174FF221235D7
:103418007EA3A3A3A3E02212433B850E82850F83DC
:1034280012311C2285108285118312424A85168228
:10343800851783229001E7EAF0A3EBF09001E712E9
:10344800424AE84922123775E8F0A3E9F0791122D7
:1034580074EA12173D74FE1216CD8A088B098C1275
:103468008D13EA2405FEE43509FFAC18AD198E82E8
:103478008F831231181205DD8A0C8B0DEE2406F5A8
:103488000EE43FF50FEA450D7003023550E50824B8
:1034980002F50AE43509F50B8A828B83A3A3A3E01E
:1034A800A2E550288518828519831231181207332E
:1034B8008A108B11EA45116020791212310E85109D
:1034C8008285118312173BE9F50C707F850E828582
:1034D8000F83E0600979528011750C0E806D8508A4
:1034E80082850983A3A3A3A3E0F9E4F508F5097885
:1034F800081219508E828F83A3A3E0F5087808126A
:1035080019508E828F83A3A3A31219678E828F838B
:103518001240AC12311212074574061216E3E9F58F
:103528000C7011850E82850F83E0702D12311212F6
:10353800027D80257416650C7011750C00741812C4
:10354800171912357AE48010750C0112424285125F
:1035580082851383E8F0A3E9F0850E82850F83E066
:10356800600479008002A90C74021216E37F0E022F
:10357800180F12357E22E0F8A3E0F58388822274C2
:10358800EC12173D74F71216CD8A0A8B0B8C108D2E
:1035980011EA2405FEE4350BFF750C00AC18AD19D3
:1035A8008E828F831231181205DD8A088B09EA454D
:1035B800097003023746E50A2402F50A5002050B92
:1035C8008A828B83A3A3A3E0A2E5502F8518828566
:1035D80019831231181207338A0C8B0DEA450D60D6
:1035E8004F7912AC08AD09123112850C82850D8312
:1035F80012173BE9F50C6003023749850A82850BEF
:1036080083E0F508A3E0F509AA08FB120727EA4BAF
:1036180070197AFF7BFF120727EA4B700302373CC9
:103628008A828B83E508F0A3E509F0750800800815
:10363800750C0E02374905089001DFE0F8E508C36C
:1036480098400302373C85080E750F007403780E06
:103658001216BA8A828B83A3A3E0250EF8A3E0355D
:103668000F123B1070D08E828F83123764122D5A3E
:103678008E828F83A3A3123764122D58EE2404F58B
:1036880008E43FF509850882F583E088828983A3E9
:10369800A3A3A3F0A3E4F0EE2405F50EE43FF50F91
:1036A800850E82F583123764A3A3A3A3122D587540
:1036B80012077513007812121950EEFCEFFD74040E
:1036C80012172B12117774021216E3E4F51278120E
:1036D800121950850882850983E0FC7D007917124C
:1036E80031121206AF74021216E374071217191278
:1036F8002D5A7407121719E0FA4B603D8508828528
:10370800098312375B121950850E82850F83124088
:10371800AC12117774021216E374021217331231C5
:1037280012120283E960267407121719123118124F
:1037380011FB8019750C098008750C118003750C34
:103748000112424285108285118312376FA90C74C9
:10375800098028E0F50875090078082212311C88CC
:1037680082898322123775E8F0A3E9F022E0F8A3F2
:10377800E0F9850E82850F832274041216E37F0C0C
:1037880002180F74EC12173D12387F751000EE24E2
:1037980002F50CE43FF50D850C82F5831231181201
:1037A80007278A088B09EA45097003023863850AE6
:1037B80082850B83E064016003023858AC08AD09C8
:1037C800AA0AAB0B12071BE9606E8508828509837C
:1037D800122AE5EE2406F50AE43FF50B8E828F8364
:1037E800A3A31219678E828F83A3A3A3A3121967B9
:1037F800850A82850B8312196779188E828F831246
:10380800389112311812074574061216E3E9F87454
:103818001668700B850A82850B83E4F0A38014E890
:1038280060128E828F83123118850E82850F83EA8B
:10383800F0A3EBF088108018780E121950AC08AD80
:1038480009EEFAEFFB12072174021216E3E9F510EC
:10385800AA08AB0912072DE510700E850C82850D9C
:103868008312311812028980097416651070037565
:103878001000A910023786EAFEEBFF8C0E8D0FEEC2
:103888002405F50AE43FF50B2212433B850C82859B
:103898000D832274EA12173D7508007509007E0031
:1038A8007F00750A00EC2402F510E43DF51180351F
:1038B800EC65087003ED6509600302395088828958
:1038C80083A3A3E06A7003A3E06B707C888289837A
:1038D800A3A3A3A3124246EE28FEEF39FFEA28FA73
:1038E800EB39FB050A123A20503A850A0C750D008F
:1038F8007403780C1216BA851082851183123A1354
:10390800123B10601FE508450970A58C088D0988D1
:10391800828983122AE388828983A3A3E02EFAA3EB
:10392800E03F80BEE50AC394025003023A0E7508D0
:1039380000750900EE4F6010EEFAEFFB1211F58AE0
:103948000E8B0FEA450F70057900023A10750B00CF
:103958000239E3850B0C750D007403780C1216BA46
:10396800851082851183E0250CF50CA3E0350DF553
:103978000DE50C2406F514E4350DF515851482F5CE
:1039880083123B156042E50C2404F512E4350DF56D
:1039980013851282F583121967E50E2508FAE50FDB
:1039A8003509FB12117774021216E385128285130A
:1039B80083E02508F508A3E03509F5098514828513
:1039C80015831231181211FBE50B600D7C087D0080
:1039D8007900AA0CAB0D12118F050BE50BC3950AE4
:1039E800500302395B851082851183124246888212
:1039F8008983A3A3A3A3A3A3E50EF0A3E50F12262F
:103A080076EEF0A3EFF07901023575123A1722E04D
:103A1800250CF8A3E0350D229001DFE0F8E50AC394
:103A2800982274F012173D8A0E8B0F8C0A8D0B7535
:103A38000D00750C0080507916EE2406F508E43F59
:103A4800F5098E828F83A3A31219678E828F83A3B1
:103A5800A3A3A312196785088285098312196785AC
:103A68000E82850F83A3A31231181207457406121C
:103A780016E3E9F50D7416650D706C8508828509E5
:103A880083E4F0A3F0050C9001DFE0F8E50CC3989F
:103A98005066AA0C8A08750900740378081216BAC9
:103AA800850A82850B83A3A3123B5FE8FEE9FF8E9C
:103AB800828F83123B156040EA2401F508E4340044
:103AC800F5099001DFE065087002E5096014888255
:103AD8008983A3A3A3A3A3A3A3A3123147600302CB
:103AE8003A3F7918023A41E9609B12424274101237
:103AF8001719123B0712376FA90D7F0802180FE03C
:103B0800FAA3E0F5838A8222F98882898312433BEB
:103B1800EC4D2274F612173D7C0080010C90023B9C
:103B2800E0F8ECC398501E8C0875090074027808F8
:103B38001216BA123B54E06A7003A3E06B70DDE81A
:103B4800FAE9FB80047A007B00023BF79001DD1262
:103B58003B5F8882898322E02508F8A3E03509F9CC
:103B68002274F212173D8A088B09750A0080278E85
:103B7800828F83A3A3A3A312266D60031211FB7C7B
:103B8800087D007900EEFAEFFB12118F8E828F8389
:103B9800E4F0A3F0050A123A205027850A0C750DA7
:103BA800007403780C1216BA850882850983A3A3CA
:103BB800E0250CFEA3E0350DFF8E828F831231477E
:103BC80070AD85088285098374FFF0A3F002432F46
:103BD80074F612173D1206D98A828B83E5824583D3
:103BE80070067A007B008007A3A3A3A31231187F75
:103BF8000202180F74F412173D89088C828D83E035
:103C08006402703C1241E5FEA3E0F9EEF874026824
:103C180070037429697029750A02750B00780A12F5
:103C280019507410121719121967741012171912F3
:103C38001967A90812107574061216E3E9F98002CB
:103C480079010226AA74E812173D74FB1216CDE911
:103C5800851882851983F08A168B17ECFEEDFF759F
:103C680010008E828F83A3A3A3E0A2E4502D741DBD
:103C78001217191231181207338A828B83E582458D
:103C8800837003024084790AEEFCEFFDAA16AB1795
:103C980012173BE9F5106003024087741F121719C9
:103CA800E0F508A3E0F5097421121719E0F50AA355
:103CB800E0F50B7423121719E0F50EA3E0F50F8E4B
:103CC800828F83E064026003024025A31242468586
:103CD8000882850983A3858212858313EE2406F55D
:103CE8000CE43FF50D888289831240C4F514E43949
:103CF800F51578141219DA010000280128273D0764
:103D0800000228EC3D03285A3D00291B3F012946A3
:103D18003F0229E73E03291B3F0429BF3F2540E511
:103D28000E450F6003024020850C82850D831242E8
:103D380046E8FAE9FB8A828B83E0850A82850B8351
:103D48001240CF1219508A828B83A3E0FCA3E002B1
:103D58003FA9E50E450F6003024020850A82850BC6
:103D6800837401F01240B9850882850983F07C00CC
:103D78007D008E828F83A3A3A3A3E02401FAA3E08E
:103D88003400FB1205DDEA4B60408A828B83E02415
:103D980002F8850A82850B83E028F0EA2404F8E417
:103DA8003BF988828983E08512828513831240DD7E
:103DB8001240CF1219508A828B83A31240ACE508B7
:103DC8002403FAE43509FB023FAE850A82850B839A
:103DD800E02404F07C047D007900AA12AB131211D0
:103DE8008F024087E50E450F60030240201240B95C
:103DF800FEA3E0FF850A82850B837404F0EE850834
:103E080082850983F0EF851282851383F07403128B
:103E18001733EEFAEFFB1205DD8A0C8B0DEA450D20
:103E28007003023ECA8A828B83A3A3122AE3740119
:103E3800121723880E890F780E121950740512175D
:103E4800191219677CFF7DFF1205E374041216E34B
:103E58008B0FEA450F7033850C82850D831240B0B5
:103E6800121950850C82850D83A31219677C027D77
:103E7800007A727B8112036774041216E3E9700AF0
:103E8800740112171974FFF0A3F08E828F83E06417
:103E9800027039750C02750D00780C1219508E825B
:103EA8008F83A31240ACE5082404FAE43509FB1219
:103EB800117774021216E3850A82850B83E02402C7
:103EC80080097401121719EEF0A3EFF074011217AC
:103ED8001912409E740112171912409502401AE5F2
:103EE8000E450F6003024020850C82850D83124326
:103EF80034AA16AB1712107B850A82850B837402CD
:103F0800F0850882850983EAF0851282851383EBA0
:103F180002401DE50E450F60030240201240B9F82B
:103F2800A3E0F9850A82850B837402F0E88508828C
:103F3800850983F0E985128285138302401D850C6B
:103F480082850D83123118121171EAFAF8C3950EA1
:103F5800E4950F405CE8650E450F70047A008021F7
:103F6800851882851983E0FCE50E2CFCE4350FFDED
:103F7800C3EC98ED94005003E08005E50ECAC39A9F
:103F8800FAEA850A82850B83F08A0A750B00780A9B
:103F9800121950850C82850D83E0250EFCA3E035AF
:103FA8000FFDAA08AB0912117774021216E302403A
:103FB80087751007024087E50E450F705B850C82F8
:103FC800850D83124246850A82850B837407F08823
:103FD80082898312409612408EE08512828513836F
:103FE800F0E82402FAE439FB8A828B8312409E8A25
:103FF800828B83124095A3A31226751240A3F0E882
:104008002405F8500109888289831240A3A312402D
:10401800DDA3A3A3A3F0806775100B8062741D1243
:1040280017191231181206D98A828B83E5824583C3
:10403800604A124246880C890DE8450D603E742599
:10404800121719E0F5107810121954780E12195039
:10405800780A12195078081219507407121719E0C3
:10406800F9EEFCEFFDAA16AB17850C82850D8312BD
:10407800173B74071216E3E9F510800375100EA9B3
:104088001074050233DBF088828983A322A3E085BC
:104098000882850983221240E4F0221240E4A3A397
:1040A800229001E312433B22E0F50E750F00780ED3
:1040B80022850C82850D8312357EE022E0FAA3E08A
:1040C800F8E4C8F9EA2822F08A828B83E0F50A75B9
:1040D8000B00780A2212408E1240E422E085088202
:1040E800850983A3A32274EE12173D74FE1216CD20
:1040F8008A088B09ECFEEDFF890AAC18AD19EEFAB7
:10410800EFFB1205DD8A0C8B0DEA450D70030241A9
:10411800D68518828519831231181206D98A828B9E
:1041280083E582458370030241D1A3A312424688E6
:104138000E890FE8450F70030241D1741412171944
:10414800E0F510A3E0F511E50AF50B780B12195408
:1041580074191217191219677810121950741B1252
:104168001719E0F9AC0CAD0DAA08AB09850E8285CC
:104178000F8312173B74051216E3E9F50B7052749E
:10418800FE650A604C850C82850D83E064027041EF
:104198001241E5FAA3E0F9EAF87402687003742999
:1041A80069702E8510828511831240C4F50CE4399C
:1041B800F50D780C121950EEFCEFFDAA08AB0912A8
:1041C800075D74021216E38008750B0E8003750BE9
:1041D80001A90B74021216E37F0A02180FA31242F8
:1041E8004A88828983E02274F612173D74FE1216FB
:1041F800CD740C121719124246E885188285198366
:10420800F07401121719E9F0E4F508F509780812B5
:104218001950750802780812195074041217238867
:10422800088909780812195079FE12074574061290
:1042380016E374021216E3023BF78E828F83124252
:104248004A22E0F8A3E0F92274F712173DEAFEEBE0
:10425800FF89089001FA1240AC12107BEA54026000
:104268000BA908EEFAEFFB1205D1800279017F0154
:1042780002180F74F212173D74FE1216CDEAFEEB07
:10428800FF890A7401650A60147402650A600302F2
:10429800432A7901120949E9600302432AEEFAEF39
:1042A800FB120727EA4B600312072DA818A91988E3
:1042B80008890978081219507508027509007808E4
:1042C80012195075087475098178081219507CFF05
:1042D8007DFF7A017B001205D774061216E3803839
:1042E800850882850983A3A3A3A3A3A3124334EE5D
:1042F800FAEFFB12106FE4F50CF50D780C1219505B
:1043080074021217191219677CFF7DFFAA08AB09FE
:104318001205E374041216E38A088B09E5084509B7
:1043280070BE74021216E37F0602180F12357E1251
:10433800433B22E0FCA3E0FD2274F412173D8A08F7
:104348008B09ECFEEDFF901E1AE0F4604B7A097BB6
:104358000012119BEA4B60408A828B8374B1F0A3F0
:10436800E41243A3F08A828B83A3A3E508F0A3E5B4
:10437800091243A3A3EEF0A3EFF0740C121719125D
:1043880042468A828B83A3A3A3A3A3A3A312376F56
:10439800901E1AE0F91211A70226AAF08A828B83CE
:1043A800A3A3A3A322C082C0839061907404F0A346
:1043B8007448F0A37402F09061807440F09061BC7E
:1043C8007403F09061877419F0906265741BF09023
:1043D8006249E0C3941390619C40107409F09060A6
:1043E800667401F090619F7428800D740BF09060E2
:1043F80066E4F090619F742CF01245987009C291A0
:1044080090026D7467800590026D7461F01245EA40
:10441800902398E493F46006E493F9120A3F79052F
:10442800120D5702482CC082C083E9540FF99061DD
:1044380085E0696012E5C654B84441F5C6E59E5466
:1044480047644170F8E9F053C6B8E59E544770FADE
:1044580002482CC082C083A8A853A87E906181E43A
:10446800F0A3F0A3F0C2BA539AFEC289759B00C2AA
:10447800C275E90075910075BF0075A91175B90578
:10448800906181F0A374C0F0A3E4F0D2BA439A011A
:1044980074805842A802482CF002482CC082C0837D
:1044A80074F81216CD90026B125BAA700302459045
:1044B80090026BE0544060177908AA18AB19120BE8
:1044C8004DAA18AB191207BD90026BE054BFF0E07B
:1044D80054806010790C7A1C7B06120B4D90026B8D
:1044E800E0547FF0E0A2E0501E1245987009C29196
:1044F80090026D7467800590026D7461F01207C3B5
:1045080090026BE054FEF0E05402601E1245DD702C
:1045180009D29190026D7471800590026D746AF0F1
:104528001207C390026BE054FDF0E0540460109051
:10453800239C1245ED1207C990026BE054FBF0E092
:104548005408601090239D1245ED1207C990026B24
:10455800E054F7F0E05410600D1245EA1207C990D4
:10456800026BE054EFF0E05420600A1207C9900291
:104578006BE054DFF0A3E05401600D120A5D1207EE
:10458800CF90026CE054FEF074081216E302482C37
:1045980090619A1247DF9005F6E0640122C082C05C
:1045A80083E9600514601780291245987009C29143
:1045B80090026D7467801A90026D746180131245C1
:1045C800DD7009D29190026D7471800590026D744E
:1045D8006AF002482C90619A1247D19005F6E0647F
:1045E800012290239EE493906186F02274EA1217C8
:1045F8003D74F41216CD9080EFAC18AD1974041206
:1046080015E090239C93F46003024766907808E0D5
:10461800C39402500302474A9080C57404121733AA
:1046280074081215E0A818A91988148915740412B9
:10463800172388088909AE08AF097510FF7511FF9F
:10464800750EFF7C00750C48750D78801274086C27
:1046580070030246E074096C607E740A6C607985A8
:104668000C82850D8378081215858E828F83A9099F
:10467800E50AC9F88812741878081214A0E51245DA
:1046880008F8C3E098A3E099850C82850D83780823
:1046980012158540188E828F83741878081214A01A
:1046A800E5124508F8E0C398F8A3E0801A74187872
:1046B800081214A0E5124508FAE9FB8E828F8312CE
:1046C8004F01EAC398F8EB99F9C3E89510E99511F9
:1046D8005006881089118C0E0CE50C2404F50C503A
:1046E80002050DECC39413500302465574FF651080
:1046F800700474FF65116024850E0874027808122E
:1047080016BA74482508F58274783509F58378084F
:10471800121585851482851583E508F0EE2402FEBE
:1047280050010F851482851583A38582148583150E
:10473800740C121719E5826E7003E5836F6003022B
:10474800464275080175090078081219507402125A
:1047580017337AE77B081210C374021216E3740C3D
:104768001216E37F0E02180FC082C0839061AE74E8
:1047780068F0A3746AF090624574FBF0A304F053E8
:10478800F4FD43FE029005F67401F09061A0E06428
:104798003A90619A70191247DF740164017009C276
:1047A8009190026D7467801E90026D74618017127B
:1047B80047D1740164017009D29190026D747180BF
:1047C8000590026D746A0244A0743FF0A3745AF015
:1047D8009061A0747FF0227433F0A37455F0906157
:1047E800A0743AF0227F0402180FC082C08390059B
:1047F800D4E0640170119005DAE064016019E0709A
:1048080006A3E0640160109005EBE06401700C9071
:1048180005F1E064017004790C800279008005E0FC
:10482800F91222D3D083D08202011FE0C43333545B
:10483800C02288828983124DC2A882A983222414A7
:10484800F582E438F58322C082C0839005DE7425A2
:10485800F09005DC7401F0A3E4F07A01FB120CD3AC
:1048680012489B241AF582E438F5837481F0A37406
:104878000AF09005DBE0640170169005DAE070102C
:104888007901120D33120D03120D2D7900120D3F0F
:1048980002482C9005CA124C242274F612173D7453
:1048A800FA1216CD9005D3E064017008120A6990D7
:1048B80005D3E4F075E1F112489B2415F582E4383C
:1048C800F5837401F09005D5E06401704B9080D9B0
:1048D800AC18AD1974061215E075D90D9005CC12F7
:1048E80048334403F5D97582CD758305124DBEE56D
:1048F8008264D37004E583640570F1A818A91912BD
:10490800483A7406121719E582687003E5836970DE
:10491800EE75E195790180027900120CD9901E3E5E
:1049280012498874E9F0A3740BF0A312498812495C
:1049380088124AF674EFF0A3740B124B0B9005CC57
:10494800E0F97ACD7B05120CB59005DEE0F912226C
:10495800D37901120CDF9080EB1215A3120CF7909B
:1049680081331215A3120CC17900120D4B12489B0A
:104978001248467416F09002697405F00402502338
:1049880074E3F0A3740BF0A32274F712173D89089F
:10499800A808E875F00DA4C8AAF02AF9749928FEA9
:1049A800740239FF9005E3E0F97AE47B05120CB54F
:1049B8009005F1E070257900120D15EE240CF582B2
:1049C800EF3401F583E07004790080027901EE2468
:1049D80006FAEF3401FB120CBB80057901120D15A4
:1049E80075E1F175D9239005E31248334405F5D9EB
:1049F8007582E4758305124DBEE58264EA7004E5AC
:104A080083640570F175D90075D90075D90075D919
:104A18000075D90075D900EE2422124E77124E96F1
:104A28007003E9658370F6EE2426124E822403F89B
:104A3800E43583F9124E967003E9658370F6EE2427
:104A48002B124E8B242C124E8B242D124E8B242E7F
:104A5800124E8B242F124E8B2430124E8B2431127F
:104A68004E8B2432124E8B2433124E8B245D124E01
:104A7800822405F8E43583F9124E967003E96583BC
:104A880070F6EE2437125A29541FF8EE242A125AC7
:104A980029C43354E048F5D975E195901E3E74B3A6
:104AA800F0A3740BF0A374B9F0A3740B124AED745D
:104AB800BFF0A3740B124B0B9005F0E0F91222D350
:104AC8009080EB1215A3120CF79081331215A312E4
:104AD8000CC190600DE4F07901120D4B90026974DD
:104AE80006F002525FF0A3124AF6124AF622124A60
:104AF800FA2274ADF0A3740BF0A374ADF0A3740B99
:104B0800F0A322124B0F22F0901E4C124B1BA31243
:104B18004B1B22124AFA74ADF0A3740BF02274EC0A
:104B280012173D9005E112567F78101215859005F1
:104B3800F2E0FAF875F00DA4C8ACF02C1257FBFFA0
:104B4800EE2EFEEF33FF8E0CF50D750E00750F007F
:104B580085100885110985120A85130B9080FB784A
:104B6800081214EB780812194C851008851109856C
:104B7800120A85130B7808790C1214D87810790C5E
:104B8800121431E4F50EF50F7808790C1215118A14
:104B98000C750D007403780C1216BA7808790C128B
:104BA80014D89080F7780812154CAA08AB09AC0AFB
:104BB800AD0B12226B74041216E38A088B09A8083D
:104BC800A909C3EE98EF995006E82EF8E93FF9E8ED
:104BD80090600EF0E9A3F0EEA3F0EFA3F090600D63
:104BE80074C1F07F0C02180FC082C0839005CA12EE
:104BF8004C109005DE024827C082C0839005E11260
:104C08004C109005F0024827124C24124C1AF0A3BD
:104C1800F0222406F582E438F583E422E0F8A3E0E4
:104C2800C82202011F74F612173D124DC76004789E
:104C38000480027800E8240EF8ECC3985003024C74
:104C4800FB7C0C9005FCE4F0EA2476F582E43BF565
:104C580083E09005FDF0EA2477124D009005FE12DE
:104C68004D0A9005FFF0EA2479124D0090060012D3
:104C78004D0A900601F0EA247B124D0090060212BC
:104C88004D0A900603F0EA247D124D0090060412A6
:104C98004D0A900605F0EA2474F8E43BF98A828B01
:104CA80083A3A3A3A3A3E0FEA3E0FF88828983E0F4
:104CB8002EF0A3E03F12539D900606124D0A90066F
:104CC80007124DEB60177508FC750905780812196D
:104CD800507903120BA174021216E37C10125031A2
:104CE800ECFE124DBEDEFB75E1957904120CFD79E0
:104CF8000180027900025026F8E43BF98882898312
:104D0800E0221253A2A3E02274F612173D124DC7F7
:104D18006004780480027800E8240AF8ECC398500C
:104D280003024DB97E089005FC7401F07CC07D0536
:104D380078FD79057F05124DD5A882A983DFF7EAAA
:104D48002480FCE43BFD8A828B83A3A3A3A3A3E076
:104D5800F508A3E0F5098C828D83E02508F0A3E02F
:104D68003509F0124DD508A9838C828D83E088829D
:104D78008983124DEB60197508FC750905780812CE
:104D880019507C087903120BA174021216E37E0CE9
:104D980074012EF5D975D9037582FC758305EEFF6C
:104DA800124DBEDFFB75E1957904120CFD79018087
:104DB800027900025026124DC222E0F5D9A32290B2
:104DC80061D0E0F87480C398FC124DF022124DD9DE
:104DD800228C828D83E088828983125BE7888289AE
:104DE80083A322F0124DF022EA2483F582E43BF5F6
:104DF80083E02274F712173DEAFEEBFF9061D0E0E2
:104E0800706875D91875D90375D903EE249C124EAC
:104E18009D124E967003E9658370F6EE24A4124E37
:104E28008B24A5124E8B2494124E9D124E9670031D
:104E3800E9658370F6EE2488124E77124E96700359
:104E4800E9658370F675E1957908EE2494FAE43FF4
:104E5800FB120B417904EE2488FAE43FFB120B4164
:104E68007904120CFD124FAB8002790002525F12D6
:104E78004E822404F8E43583F922F582E43FF58371
:104E8800E58222F582E43FF583E0F5D9EE22124D62
:104E9800C2E8658222124E822408F8E43583F9229A
:104EA80074F612173DEAFEEBFF9005FC7406124FEC
:104EB800541219507C017903120BA174021216E3E3
:104EC80075D90675D9037582FC758305124F4C7028
:104ED80004E583640670F575E195900269E064085D
:104EE8007010EE246FF582E43F124EFFEE2471122B
:104EF80059B87901025026F583125BB62274F6126E
:104F0800173DEAFEEBFF9061D0E070339005FC742A
:104F18000A124F541219507C017903120BA1740222
:104F28001216E375D90675D9037582FC75830512C7
:104F38004F4C7004E583640670F5124FA88002791F
:104F480000025026124DC2E582640122F07508FC69
:104F580075090578082274F612173DEAFEEBFF90F2
:104F680061D0E0703678019005FC740BF09002690E
:104F7800E0640770197508FC75090578081219505E
:104F88007C017903120BA174021216E37805125101
:104F9800F3124DBEDAFB124FA880027900025026A8
:104FA80075E195EE246F125BB0EE2471F582E43F53
:104FB800F583E8F0A3E9F079012274F612173D129F
:104FC80050F46004780480027800E8240BF8EAC3FF
:104FD8009840447C099005FC740812504012504FC8
:104FE800DDFB125A26601B7508FC75090578081246
:104FF80019507903EEFAEFFB120BA174021216E3B3
:105008007C0D12502B1250EC70FB75E1957904124F
:105018000CFD124FAB8002790080031216E37F0269
:1050280002180F1250318C082274012CF5D975D949
:10503800037582FC75830522F0EE24E5F8E43FF958
:105048007AFD7B057D082288828983E08A828B83AA
:105058001253A2A3A882A9838A828B83A3AA82ABB4
:10506800832274F612173D1250F46004780480020B
:105078007800E82408F8EAC398406478069005FCAC
:10508800740CF0900286E09005FDF0900287E090A5
:1050980005FEF0900288E09005FFF0900289E0900C
:1050A8000600F090028AE0900601125183601B7599
:1050B80008FC75090578081219507C067903EEFA80
:1050C800120BA174021216E3780A12517D1250ECE9
:1050D80070FB75E1957904120CFD124FAB800279D3
:1050E80000025026124DC21508E50822EAFEEBFF21
:1050F8009061D0E0F87480C398FA1251882274F64F
:1051080012173D1250F46004780480027800E824F5
:1051180004F8EAC398404B78029005FCE8F0EE24C6
:10512800F7125A299005FD125183601B7508FC750A
:10513800090578081219507C027903EEFA120BA1BE
:1051480074021216E3780612517D1250EC70FB754A
:10515800E19512516F7904120CFDEE240D124FAE39
:1051680080027900025026EE241DF582E43FF58383
:10517800E4F0A3F0221251F9880822F01251882293
:10518800EE2483F582E43FF583E02274F612173D9E
:10519800124DC76004780480027800E82404F8EC13
:1051A800C398404278029005FC7407F0EA24F8F5A9
:1051B80082E43BF583E09005FD124DEB601975081C
:1051C800FC75090578081219507C027903120BA1A5
:1051D80074021216E378061251F3124DBEDAFB750B
:1051E800E1957901800279000250261251F9E8FA16
:1051F80022740128F5D975D9037582FC75830522B7
:1052080074F712173DE9FFA2AFE433FEC2AF7C008A
:1052180080010C1252B05010ECF8EA28F8E43BF97F
:105228001259146F70EC8016EA246EF8E43BF9E02A
:10523800FCEA2CFAE43BFB12524DEF125397EEA214
:10524800E092AF8012EA246AF582E43BF58322F00B
:10525800EEA2E092AF79007F0102180FC082C083EE
:10526800A2AFE433FDC2AF1252B814F07C00801D27
:10527800ECF8EA28F8E43BF9E8246B125917C0E087
:10528800E8246AF582E439F583D0E0F00C1252B0D4
:1052980040DEEA246DF582E43BF58374FF1252DDAB
:1052A800EDA2E092AF02482C1252B8F8ECC3982253
:1052B800EA246EF582E43BF583E022C082C083A82D
:1052C800A8C2AF12524DE91252DDE8A2E7E433FA60
:1052D800E8A2E780CEF0EA2469F582E43BF583E4AE
:1052E800F02274F312173DEAFEEBFFECFAEDFB8AAD
:1052F800828B83A3A3A3A3E0541FF0EE2436F58288
:10530800E43FF583E4F0750A00EE245DFCE43FFD1C
:105318008A828B83E08C828D83F0750B00E50A33DB
:10532800333354F8F50C8A828B83E0F5087509004D
:10533800E50B780812169BE508A2E05027EE243604
:10534800F8E43FF988828983E0F508EE2508F50836
:10535800E43FF509E5082438F582E43509F583E5E5
:105368000C125397050B050CE50BC3940840B705C1
:105378000A8A828B83A3AA82AB838C828D83A3AC97
:1053880082AD83E50AC3940540867F0502180F1293
:10539800539D04F0221253A2E022F08882898322CE
:1053A80074F712173D900295E064037003025545A7
:1053B8007C0075829B758302E0600302552FECF830
:1053C80075F00DA4C8AAF02AF9749928FA7402395C
:1053D800FB8A828B83A3A37401125567E4F0EC8ADD
:1053E800828B83A3A3A3A3F0125B317401F0EA2498
:1053F80067F582E43BF5837401125561E4F0A3126A
:105408005561A3A3125577240FF582E43BF5837405
:1054180001F0EA243512554C241812557C241C122C
:10542800554C241D125570247F12554C2473125567
:105438004C248212554C2468F582E43BF583748031
:105448001252DDEA246E12554C24ED12554C24EE0E
:1054580012554C24EF12554C24F012554C24F112DD
:10546800557024F312557024F612554C24831255A6
:105478004C24D312554C24D412554C24D512557CA7
:1054880024D912557C24DF12554C24E112554C24A2
:10549800DD12554C24E212554C24E312554C24F9E4
:1054A80012557024FB12557024FD12557024FF12FA
:1054B8005570240C125556240612555624071255B9
:1054C8005624081255562409125556240A125556C0
:1054D800240B12555612524E74FF7804F0A3D8FCD0
:1054E800EA245DF8E43BF97CC07D0512559064C55B
:1054F8007003ED640570F4EA24E5F8E43BF97C7D7B
:105508007D0212559064857003ED640270F4900278
:1055180095E004F0640170298A828B83A3A3A3A376
:10552800E0900297F0801A0CE582240DF582E5835D
:105538003401F583ECC3940350030253C07A007B13
:105548000002525FF582E43BF583E4F0EA22F5823B
:10555800EB3401F583E4F0EA22125567A3A322F0A5
:105568008A828B83A3A3A322F582E43BF583E4F02C
:10557800A3F0EA22F582E43BF583125587EA22E498
:10558800F0A3F0A3F0A3F022124DD9A882A983ECCE
:1055980022C082C0838A828B83A3A3A3E0600F8A80
:1055A800828B83A3A3A3E4F0900296E014F0900208
:1055B80095E014F0700690029774FFF08A828B834E
:1055C800A3A3E4F09005C5E0700D900296E0640195
:1055D80070057900120CC702482CC082C083789BE2
:1055E800790288828983A3E41253A2F01257E5E86E
:1055F80064C27003E9640570E9900295E4F0A3F0D1
:10560800A374FFF075E1F102482C74F512173D758B
:105618000800750900750A007E997F028E828F83C3
:10562800A3A3A3E0602BE5084509601D85088285D2
:10563800098312567F12196312567B1215A3122280
:105648000F74041216E3E97008EEF8EFF988088978
:1056580009050AEE240DFEEF3401FFE50AC39403A1
:1056680040BA850882850983A3A3A3A3E0F97F0331
:1056780002180F8E828F83125B54A3A32274EE123A
:10568800173D8A0A8B0B8C08890C900296E0F8E982
:10569800C39850627AFF7BFF7C00789979028882F0
:1056A8008983A3A3A3E0603F74FF6A700374FF6B50
:1056B800700CE82473125917640170218012E824D1
:1056C800731259176401700DE824791257EE5017B8
:1056D800E82479800BE8242E1257EE500AE8242E8D
:1056E800125917FAA3E0FB0C1257E5ECC3940340D8
:1056F800ADEAFEEB8018E96010A3E0F875F00DA4A0
:10570800C8AAF02A1257FB8005EA2AFEEB33FF8E5F
:105718000E8F0F7403780E1216AB900296E0F8C342
:10572800E50E98E50F940050030257D1E50A25E0ED
:10573800F50AE50B33F50BE50825E0F508ED33F53B
:1057480009AC0AAD0B8007EC2402FCE43DFDC3E57F
:10575800089CE5099D4060C3EC9EED9F403FECF836
:10576800EDF9EEFAEFFB1216428B0FEA450F6006D1
:105778008E0E8F0F8006750E00750F00ECF8EDF990
:10578800EEFAEFFB1216428A108B11EC9510F8ED29
:105798009511F9E8250EFCE9350FFD801AE0F8E5CA
:1057A8000CC3985012EEF8EFF9ECFAEDFB12164222
:1057B8008B0FEA450F7090C3EC950AED950B4009E5
:1057C800C3E5089CE5099D50067AFF7BFF8009EC3C
:1057D800FAEDC313FBEA13FA7F0A02180FE8240D47
:1057E800F8E93401F922F582E439F583C3E09AA394
:1057F800E09B22F974C728F582740239F583E0FE2C
:10580800A3E02274F612173D74FC1216CDEAFEEBE3
:10581800FF8044EE2463F8E43FF97A007B00A2AFEE
:10582800E433F508C2AF88828983E0FCA3E0FDEC8D
:105838004D600F125B6F700A88828983A3A3E4F01E
:10584800A3F0E508A2E092AF1211FB9005C6E004B0
:10585800F09005C7E004F0EE2463F582E43FF58399
:10586800125BAA70AE9005C7E060358E828F83A365
:10587800A3A3A3E0851882851983F0A3E4F090051B
:10588800C7E0F87402121719E8F0A3E4F0740212E2
:105898001733AA18AB19790112082F9005C7E4F03D
:1058A800EEFAEFFB120AEDEEFAEFFB120C25740488
:1058B80002502374F712173DEAFEEBFF8E828F83A6
:1058C800A3A3A3A3E0FA7B00120805EEFAEFFB12EC
:1058D8000B05120C0702525FC082C0837A007899C8
:1058E800790288828983A3A3A3E06011E8246E1259
:1058F8005917600912591470047901800C0A12575B
:10590800E5EAC3940340DB790002482CE8246AF5F1
:1059180082E439F583E022C082C083E490027D7876
:1059280008F0A3D8FC90027D040244A074F7121773
:105938003D74FC1216CD851882851983125587127D
:105948000B47E9851882851983F0120B47740112F9
:105958001719E9F0120B477402121719E9F08518A4
:10596800828519831215A374041216E302525F7418
:10597800F612173DEAFEEBFFEC2403F8E43DF98844
:10598800088909EC2407F8E43DF9E8FCE9FD125917
:10599800C4121642EE240D1259B81259C4121642F6
:1059A8008B09EA45096006EE240D1259D7025026E4
:1059B800F582E43FF583E8F0A3E9F0228C828D8339
:1059C800125BB6850882850983E0FAA3E0FB22F51D
:1059D80082E43FF583E02401F0A3E03400F0227470
:1059E800F612173DEAFEEBFFEE242E125A29FCA30D
:1059F800E0FD780079FAECFAEDFB121642EE246F1E
:105A08001259B8780079FAECFAEDFB1216428B09B4
:105A1800EA45096006EE246F1259D7025026EE2493
:105A280083F582E43FF583E02274F412173DEAFE21
:105A3800EBFF120C978A088B098C0A8D0B90814B0F
:105A480078081214EB9080F7780812154C78081231
:105A5800194C12567B1215A312220F74041216E366
:105A6800E96003025B1B8E828F83E02402F8A3E0C7
:105A78003400F9E8FAE9FB740C12171978081215C2
:105A8800858A828B8378081214FE9080F778081232
:105A980015858A828B83780812155FEE240BF582B0
:105AA800E43FF583C082C0838E828F83A3A3A3A320
:105AB800A3E02401F8A3E03400F9D083D082E068A1
:105AC8007003A3E06970047901804A8E828F83A3F2
:105AD800A3A3A3A3A3A31259DDEE2473125A296426
:105AE800017013EE2474125B207003A3E069700642
:105AF800EE24741259D7EE247F125A2964017013C8
:105B0800EE2480125B207003A3E0697006EE248007
:105B18001259D779000247ED125BB08E828F83A3AA
:105B2800A3A3A3A3A3A3E06822EA2462F582E43B2B
