:020000040000FA
:060000000201070220D9F5
:03002B000225218A
:03003300022503A0
:03004B0002254D3E
:0300530002214F38
:03006B000224DD8F
:10008300021F2FE5C754F84401F5C7790122000088
:100093000080FB120086B900030200F1E4792178A5
:1000A30008B800028004F709D8FCE479297802B87B
:1000B30000028004F709D8FCE490028178BA79132E
:1000C3008002F0A3D8FCD9FA7A3A7B1590013778ED
:1000D3005E79038015E493A3AD82AE838A828B831A
:1000E300F0A3AA82AB838D828E83D8E9D9E7758288
:1000F3002475839D740312011975829175830074AD
:100103000012011975D00075814F75188175190298
:10011300759F00020096C09FF59FE473D09F22D085
:1001230083D082C09FE493C0E0740193C0E0740263
:1001330093F59F22FF0000B4000028002800283018
:1001430075A000A000A000A00000080008E001F0D6
:10015300001000100010001000100010005000509C
:1001630000500010001000D0070000000000000F36
:100173000001000500307507001000010081FF0039
:10018300000000FFFFFFB005CE05B605F205FF0234
:10019300020208025000A0000000E803025581019A
:1001A300000042810269810100009515025181011D
:1001B3000000BD02026981010000961502678101FA
:1001C3000000D302026981010000971502498101F1
:1001D3000000D502026981010000981502538108CD
:1001E3000000D602026981010000991502458101D0
:1001F30000009A15FF0100FF1700640C640C640CE7
:10020300640C640C640C640C640C640C640C640C6B
:10021300640C640C0A0F1C0F040F01E8030577102C
:100223000AFFFFFF000853746172742054696D65FF
:100233007220436F6E7400024765742054696D65C4
:100243007220436F756E74200008537461727420BA
:100253004761732043616C696272000247657420D1
:10026300476173204D6F6E69746F72200008416C93
:1002730061726D20636F6E74726F6C2020200002B8
:1002830054303030303031446576696365204E61D7
:100293006D65206368617200025581010000B980B9
:1002A3000269810100002B16025B81030000B9146F
:1002B300024D810100002C160269810100003D16E8
:1002C300025D81030000BA14024D810100003E1655
:1002D3000269810100004F16025F81030000BE1412
:1002E300024D810100005016026981010000611670
:1002F300026181010000BF14024D810100006216FA
:100303000269810100007316026381030000C314B4
:10031300024D8101000074160269810100008516F7
:100323000265810100008616024D810100008D16D1
:100333000130750302010600000000000000000008
:1003430000000000000000000000000000000000AA
:10035300000000FFFF0600800CE8030A0950414D2E
:100363006F6E69746F72051201000100020A0002C8
:1003730001060302F0FF53696D706C6520424C4522
:10038300205065726970686572616C3013000036C5
:100393001312012267F5021201227AF502120122D9
:1003A300ABF502120122E5F5021201223EF602121A
:1003B300012285F602120122CDF602120122FCF679
:1003C300021201222BF70212012262F7021201220A
:1003D300A9F702120122C2F70212012217F8021230
:1003E300012245F8021201227FF802120122ACA871
:1003F30002120122AFA902120122E8A9021201226C
:100403000BAA021201221DAA021201225BAA0212E6
:100413000122D7AA021201229FAB02120122C1AB11
:100423000212012258AC02120122AAAC02120122CA
:10043300DBAC02120122E8AC0212012252AD02121D
:100443000122A9AD02120122ACAD02120122E5ADD7
:1004530002120122E8AD02120122F2AD02120122C0
:1004630046AE0212012287AE02120122BAAE021276
:100473000122F7AE02120122F9AF021201229DB04E
:100483000212012206B10212012244B10212012218
:10049300D2ED02120122FAED0212012227EE02121C
:1004A30001225FEE02120122BDEE0212012209EFC8
:1004B3000212012270EF02120122B0EF0212012296
:1004C300EDEF021201221BF002120122C5F002120B
:1004D3000122CFF002120122DCF0021201220FF1FD
:1004E300021201221BF10212012233F10212012234
:1004F3003DF1021201223199031201223F990312A5
:1005030001225799031201226E99031201222FA689
:1005130001120122D9A601120122ECA70112012224
:1005230068A80112012286A901120122C2A901129F
:1005330001225DAA0112012241AB011201220DAC7D
:10054300011201229BAD011201220CAE0112012204
:10055300C6AE01120122B8AF01120122F8AF011297
:100563000122ACB001120122DEB001120122D4B289
:100573000112012216B30112012234B30112012226
:100583009AB30112012269B4011201222DB501129D
:1005930001224CB7011201226DC10212012257C27E
:1005A3000212012202C30212012253C302120122C8
:1005B30003C40212012274C40212012259C5021299
:1005C30001228DC50212012286C602120122C3C670
:1005D300021201229FC702120122DEC70212012268
:1005E300FAC702120122248A03120122A88A0312E3
:1005F3000122D38A03120122ED8B031201220FFC85
:100603000112012225FC0112012243FC01120122E5
:1006130054FD011201225EFD0112012289FE011225
:10062300012280FF01120122EDFF011201220B932F
:1006330003120122489403120122FA9301120122A8
:10064300869401120122EA9501120122F695011204
:100653000122319601120122A09601120122A997CB
:1006630001120122B2980112012279990112012289
:10067300D69A01120122F49A01120122119B01124E
:100683000122DC9B01120122049C01120122CE9E55
:1006930001120122D39E01120122ECA001120122B8
:1006A3003AA101120122AAA101120122E8A1011219
:1006B3000122C4A20112012284A301120122D0A3A8
:1006C30001120122D3A30112012217A40112012254
:1006D3005FA4011201229EA401120122C0A40112EF
:1006E3000122F4A40112012257A501120122DBD237
:1006F30002120122E9D2021201223CD30212012288
:100703005BD302120122A0D302120122E4D402120B
:1007130001227FD502120122C3D502120122EDD597
:10072300021201225CD602120122A2D60212012277
:1007330019D702120122CAD7021201227825001208
:100743000122882500120122292600120122852672
:100753000012012242270012012263280012012203
:100763009228001201223F2A00120122B62C001205
:100773000122262F0012012218300012012211310A
:10078300001201221833001201220C36001201223A
:100793003B37001201223F39001201224F3A001267
:1007A3000122DE3B00120122CF3C001201221D3D3B
:1007B300001201228C3D00120122B03D00120122E1
:1007C300514200120122524300120122B34300128C
:1007D3000122DE4300120122A44400120122C9CDEA
:1007E30002120122D3CD0212012218CE02120122DB
:1007F3002CCE02120122BCCE02120122F5CE02122D
:10080300012230CF0212012259CF02120122ADCFB1
:1008130002120122C2CF02120122E4CF02120122EC
:10082300F9CF021201220DD00212012222D00212AC
:1008330001225CD00212012288D002120122B6D01A
:100843000212012201D10212012263D102120122FA
:10085300D5D1021201221BD2021201225ED2021250
:10086300012288D202120122B3D20212012223965C
:1008730003120122108B02120122F38B02120122B6
:100883006E8C02120122A98C02120122FA8D02122D
:100893000122888E021201221A9102120122CC91A6
:1008A30002120122D892021201224B940212012257
:1008B300A4940212012226E10212012269E102122A
:1008C3000122EDE102120122C4E402120122B085E9
:1008D300031201226286031201225E8703120122A0
:1008E3009D8703120122F787031201221C8C031236
:1008F30001227F8C031201221C8D03120122518DD0
:1009030003120122818D03120122BC8D03120122E5
:10091300DC8D03120122DCD70212012268D80212F5
:10092300012227D9021201223FDA0212012259DCE5
:10093300021201228BF001120122B0F001120122F6
:100943007DF10112012251F201120122BEF20112C4
:100953000122FEF2011201229AF301120122CEF4C6
:1009630001120122A9F50112012208F60112012246
:1009730094F60112012202F7011201228EF70112ED
:100983000122D4F70112012246F801120122D8F8FC
:100993000112012279F90112012299F901120122AE
:1009A300E1F9011201222AFA0112012246FA011287
:1009B30001226CFA01120122E6FA01120122F4FA71
:1009C3000112012283FB01120122ECFB011201221D
:1009D30090DC0212012215DD0212012257DD021200
:1009E30001223BDE02120122A8DE02120122ECDE0A
:1009F3000212012230DF021201225DDF0212012204
:100A030085DF02120122BDDF02120122FBDF021287
:100A1300012222E0021201229CE002120122E6E0FE
:100A2300021201226C81011201220B8301120122A5
:100A3300438501120122978501120122C285011209
:100A430001229E8601120122CE8601120122FD8619
:100A53000112012210870112012251870112012282
:100A63007E8701120122CC8701120122088801121C
:100A730001224D88011201229A8801120122148950
:100A830001120122558B011201223F8D0112012215
:100A93007B8D011201220A8F011201224F8F011255
:100AA3000122C28F011201221790011201221C9010
:100AB30001120122C590011201229191011201221A
:100AC3001B9201120122A79201120122C693011265
:100AD3000122D793011201220D9F02120122869F48
:100AE3000212012240A5021201224BA60212012288
:100AF300F4A70212012282A802120122AA590012AB
:100B030001222B5A00120122585A00120122A15A23
:100B130000120122A25B00120122E65B00120122F5
:100B23001C5C00120122985D001201221A5E001261
:100B33000122355E00120122A65E00120122635FCC
:100B430000120122266000120122B4600012012269
:100B53006B61001201227E610012012217620012F2
:100B63000122AE6200120122D562001201223E630D
:100B730000120122886300120122D66300120122AF
:100B83007B6400120122196500120122A66500127E
:100B930001221766001201225E6600120122B66668
:100BA30000120122E86600120122A267001201224C
:100BB300A96800120122F268001201220F690012D3
:100BC30001222E6900120122616A00120122186BB0
:100BD300001201223D6B00120122526B001201220E
:100BE300C26B00120122036C00120122276D001256
:100BF3000122A86D001201224D950212012298953F
:100C030002120122A49502120122789602120122F5
:100C13008F9602120122CC9602120122FD96021235
:100C230001223597021201228B9702120122A1970A
:100C330002120122DD9702120122F0970212012211
:100C43001798021201224B98021201227199021283
:100C53000122BB9A02120122B79B02120122D49CE9
:100C630002120122F7FF0112012259B701120122D8
:100C730094B701120122E6BA0112012242BC011209
:100C8300012201BD0112012268C00112012252C1D9
:100C9300011201229EC101120122B8C101120122D7
:100CA300F5C10112012200C2011201223FC2011249
:100CB300012248C201120122F2C201120122C9C358
:100CC300011201221DC4011201227AC40112012260
:100CD300ECC401120122DE6D001201223D710012EB
:100CE30001224371001201227478001201227B7CDD
:100CF3000012012206FC02120122E3FC021201226D
:100D030027FD0212012261FD02120122F9FD0212E6
:100D1300012268FE0212012271FE021201227DFEEF
:100D23000212012297FE02120122C1FE02120122C7
:100D3300F1FE0212012276E50212012283E502127C
:100D430001229DE502120122D0E5021201220EE6E4
:100D53000212012273E60212012288E60212012224
:100D630093E602120122A0E602120122B7E6021262
:100D73000122C5E602120122D0E602120122DCE6BC
:100D830002120122EBE602120122F6E6021201220E
:100D930019E702120122BDE702120122CDE7021276
:100DA3000122E7E70212012204E8021201221FE8EE
:100DB3000212012244E8021201224FE80212012228
:100DC30064E80212012278E802120122D9E8021231
:100DD3000122DFE802120122E5E802120122EBE818
:100DE3000212012203E90212012236E90212012250
:100DF30008E3011201229FE30112012237E40112E9
:100E0300012227E5011201225EE50112012271E5AB
:100E130001120122DFE5011201227AE70112012208
:100E2300A1E70112012243E80112012278E801122D
:100E3300012289E80112012202E90112012223E9B8
:100E4300011201223BE90112012293EA011201225C
:100E53009CEC01120122ECEE01120122EFEF0112D0
:100E630001223EF0011201223BC60112012238C7C2
:100E73000112012223C8011201222DC801120122ED
:100E83004FC8011201225BC801120122ADC9011230
:100E93000122DCC9011201220CCB011201224ECB2B
:100EA300011201227ACC0112012250CD011201223A
:100EB300A2CD0112012201CE0112012238CE01126C
:100EC300012273CE011201220ED20112012227D276
:100ED30001120122A9D201120122B7D20112012269
:100EE3000CD3011201221AD30112012287D301125A
:100EF3000122F9D3011201223FD401120122008001
:100F0300021201222280021201220C820212012209
:100F1300B18502120122F48602120122CE87021247
:100F23000122B78F03120122DC8F031201224D909D
:100F3300031201226AB10212012273B102120122C9
:100F43007CB102120122ADB202120122CCB4021210
:100F5300012202B5021201223CB50212012272B52E
:100F630002120122ACB502120122E0B502120122E3
:100F73000CB60212012255B6021201228FB60212DA
:100F83000122D7B6021201222DB70212012262B743
:100F930002120122BDB702120122F7B70212012287
:100FA30048B8021201227EB802120122B8B8021216
:100FB3000122E6B80212012209B902120122B29AF1
:100FC30003120122DE9A03120122399B031201222A
:100FD300439B03120122539B031201227C9E0312A3
:100FE3000122779D0312012210450012012274474A
:100FF300001201222B49001201228849001201220A
:101003008A4A00120122124B00120122994B00124C
:101013000122BE4B00120122B34E00120122294FBE
:101023000012012218500012012252500012012214
:1010330092500012012232520012012287520012F2
:101043000122D4520012012242530012012268539A
:10105300001201228253001201229854001201222D
:10106300A854001201222E56001201224E560012DD
:101073000122845600120122085800120122475807
:1010830000120122855900120122EA8D0312012266
:101093004E8E03120122FD8E031201221C8F0312B6
:1010A3000122708F03120122FE99031201220F9A6B
:1010B30003120122C19D03120122009E0312012289
:1010C300C49E031201225D9B031201226D9B031236
:1010D3000122829B03120122EA9B0312012237970A
:1010E30003120122BB97031201222198031201224A
:1010F300A59403120122CE94031201223B950312FD
:1011030001228F9503120122E89503120122CBF1EC
:1011130002120122E2F1021201225BF20212012207
:1011230030F30212012202F5021201221FFF021202
:10113300012248FF0212012271FF02120122B3FFB2
:10114300021201225BC80212012265C802120122A7
:10115300A5C802120122EEC80212012228C90212F6
:1011630001227EC9021201229DC902120122A6C9CF
:1011730002120122F7C90212012220CA021201221D
:1011830035CA02120122A5CA0212012233CB02126E
:10119300012277CB021201229FCB021201221ECC25
:1011A3000212012261CC021201229ECC0212012200
:1011B300B0CC02120122CFCC02120122D8CC0212EF
:1011C30001229DCD021201226D9103120122BE91D3
:1011D30003120122479203120122AD92031201224C
:1011E300EC820312012216830312012210840312DC
:1011F30001223F8403120122C584031201223A987B
:1012030003120122228803120122588803120122A9
:10121300918803120122EA8903120122ED9B031232
:101223000122039C031201220D9C03120122C59C7F
:101233000312012297B90212012254BA02120122A7
:101243008FBA02120122B7BA0212012219BB02128B
:10125300012265BB02120122D0BB021201224CBC47
:101263000212012248BD02120122CFBE0212012244
:1012730052BF02120122B6BF02120122CDBF0212D7
:101283000122C3C0021201220FC102120122B8E9D6
:1012930002120122CDE90212012280EA0212012286
:1012A300C0EA02120122D9EA021201220CEB021255
:1012B300012259EB021201228DEB02120122CFEB24
:1012C30002120122C5ED0212012200800312012243
:1012D300278003120122448003120122A0800312FB
:1012E30001228B8103120122C8D4011201227FD86B
:1012F3000112012211DA0112012268DA011201221C
:1013030087DA0112012205DB0112012297DC0112A7
:1013130001227BDD011201228CE10112012260E234
:1013230001120122E7F80212012286FA02120122B7
:1013330027FB02120122D1FB02120122639C03123A
:101343000122819C031201229B9C031201220A9E0B
:1013530003120122509E03120122A69E03E066702F
:101363001008A3E066700A08A3E066700408A3E00F
:101373006622C3E7960809E7960809E7960809E78E
:101383009622C3E09608A3E09608A3E09608A3E09C
:101393009622C008C3E096F50808A3E09642080821
:1013A300A3E096420808A3E09645087001D3D0084D
:1013B30022080808EAC0E0EBC0E086F0E7A4FA18C8
:1013C3000986F0E7A42AFA180986F0E7A42AFA188E
:1013D3000986F0E7A42AFA1986F0E7A4FBE5F02AC8
:1013E300FA190886F0E7A42BFBE5F03AFA19088608
:1013F300F0E7A42BFBE5F03AFA18180986F0E7A406
:10140300C5F02BFBE43AFA1908E7C5F0C6A426F6A3
:10141300E5F03BFBE43AFA1886F0E7A4F6E5F008BA
:1014230026F6E43B08F6E43A08F6D0E0FBD0E0FA0F
:1014330022E4CFC0E0E4CEC0E0E4CDC0E0E4CCC021
:10144300E075F020E626F608E633F608E633F608FC
:10145300E633F6181818EC33FCED33FDEE33FEEFEC
:1014630033FFC3EC9709ED9709EE9709EF97191925
:1014730019400FFFEC97FC09ED97FD09EE97FE1954
:101483001906D5F0BFECF709EDF709EEF709EFF709
:10149300191919D0E0FCD0E0FDD0E0FED0E0FF2226
:1014A3006016080808C6C313C618C613C618C613A1
:1014B300C618C613C6D5E0EA2270090808082260D8
:1014C30016181818C6C333C608C633C608C633C6AB
:1014D30008C633C6D5E0EA22E627F60809E637F65A
:1014E3000809E637F60809E637F622E026F608A3E8
:1014F300E036F608A3E036F608A3E036F622E02647
:10150300F008A3E036F008A3E036F008A3E036F0D5
:1015130022C3E697F60809E697F60809E697F60860
:1015230009E697F622C3E096F008A3E096F008A335
:10153300E096F008A3E096F022E056F608A3E05602
:10154300F608A3E056F608A3E056F622E056F008A4
:10155300A3E056F008A3E056F008A3E056F022E01B
:10156300F608A3E0F608A3E0F608A3E0F622E6F007
:1015730008A3E6F008A3E6F008A3E6F022E0FAA346
:10158300E0FBA3E0FCA3E0FD22E0F8A3E0F9A3E085
:10159300FAA3E0FB22E8F0A3E9F0A3EAF0A3EBF05F
:1015A30022CAC0E0E6F0A308DAFAD0E0FA22CAC001
:1015B300E0E0A3C582CCC582C583CDC583F0A3C5B6
:1015C30082CCC582C583CDC583DAE6D0E0CA22C307
:1015D300E498F8E499F91216138026C3E49AFAE41E
:1015E3009BFBE920E7E9121613E498F8E499F92242
:1015F300C3E498F8E499F9121613E498F8E499F916
:10160300C3E49AFAE49BFB22EB20E7CFE920E7E06F
:10161300B90010BB0008E88AF084F8AAF022E4FBC2
:10162300C8FA22EB70227B10C833C8C933C93350C0
:1016330007C39AC3DBF280069A50012ADBEAC83358
:10164300F4C8C933F4C9FA2275F008E4C833C8C929
:1016530033C933C99AC99B5004C92AC93BD5F0EC95
:10166300FBC833F4C8E4C9FA22600D08C6A2E71325
:10167300C618C613C6D5E0F322600C08C6C313C64A
:1016830018C613C6D5E0F422700422600D18C6C331
:1016930033C608C633C6D5E0F41822251810AF08A0
:1016A300F518400C15198008F51840021519D2AF2A
:1016B3002200C0D0251810AF08F518500C0519806A
:1016C30008F51850020519D2AFD0D0222518F5829B
:1016D30010AF08F518400C15198008F518400215CD
:1016E30019D2AF851983222518F582E43519F583BC
:1016F300222518F8E43519F9222518FAE43519FBDF
:10170300222518FCE43519FD22E4732518C582C08F
:10171300E0E51934FFC583C0E0E518C3958224F8DA
:1017230010AF0885831985821880088583198582FF
:1017330018D2AFCEF0A3E520F0A37808E608F0A313
:10174300DEFAEFF0A3E58124FAF8E608F0A3E60851
:10175300F0A3E608F0A30808E608F0A3E608F0A360
:1017630015811581D0E0FED0E0F815811581158132
:10177300E8C0E0EEC0E0222518C582C0E0E51934D8
:10178300FFC583C0E0E518C3958224F910AF08852F
:1017930083198582188008858319858218D2AFCE74
:1017A300F0A3E520F0A37808E608F0A3DEFAEFF053
:1017B300A3E58124FBF8E608F0A3E608F0A30808F4
:1017C300E608F0A3E608F0A315811581D0E0FED06A
:1017D300E0F815811581E8C0E0EEC0E022851983A9
:1017E300851882E0A3FEE0A3F5207808E0A3F608BD
:1017F300DFFAE0A3FFE0A3C0E0E0A3C0E0E0A3C002
:10180300E0E0A3C0E0E0A3C0E010AF088582188544
:1018130083198008858218858319D2AFD083D0823B
:1018230002011F851983851882E0A3FEE0A3F5203A
:101833007808E0A3F608DFFAE0A3FFE0A3C0E0E046
:10184300A3C0E0E0A3C0E0E0A3C0E010AF0885823E
:10185300188583198008858218858319D2AFD083B0
:10186300D08222C0D02518C582C0E0E51934FFC557
:1018730083C0E0E518C3958224F310AF088583196C
:101883008582188008858319858218D2AFC8F0A392
:10189300E9F0A3EAF0A3EBF0A37908E709F0A3D8F2
:1018A300FAECF0A3EDF0A3EEF0A3EFF0A3D0E0F099
:1018B300A3D0E0F0A3D0E0F0A3E520F0A3E5F0F09F
:1018C300A322851983851882E0C0E0A3E0F9A3E091
:1018D300FAA3E0FBA37808E0F608A3DFFAE0FCA391
:1018E300E0FDA3E0FEA3E0FFA3E0C0E0A3E0C0E0CF
:1018F300A3E0F5D0A3E0F520A3E0A3F5F010AF0833
:101903008583198582188008858319858218D2AF4B
:10191300D082D083D0E0F8D0E03274048006740221
:1019230080027401C0E0F4041216CFD0E01215A4B3
:10193300227404800474028000CCC0E0EDC0E0E5B2
:1019430018C39CCCAD1950011D10AF068C188D190E
:1019530080068C188D19D2AF1215B1D0E0FDD0E0FE
:10196300FC22D083D082E9C0E0E493A3C386F0C510
:10197300F095F0F908E493A386F0C5F095F0700BA9
:10198300E493A3C3994005E9048002A3E475F0023C
:10199300A42582F582E5F03583F583D0E0F9E4935D
:1019A300A3C0E0E493C0E022D083D082ECC0E0ED9A
:1019B300C0E0E493A3FCE493A3FDED4C600D121986
:1019C300F7EC24FFFCED34FFFD80EFE493A3FCE48C
:1019D30093A3FDED4C600D121A36EC24FFFCED349D
:1019E300FFFD80EFD0E0FDD0E0FCE493A3C0E0E492
:1019F30093C0E022C0E0C3E4939608740193961861
:101A0300400FE493667008087401936618700070C1
:101A130019A3A3C3E49396087401939618A3A34050
:101A23000DD0E0D0E0D0E00219E7A3A3A3A3A3A3C2
:101A3300D0E022C0E0C0F088F0E493667008087438
:101A4300019366187000A8F0A3A3700BD0F0D0E048
:0E1A5300D0E0D0E00219E7A3A3D0F0D0E0224B
:101A640074F612177AEAFEEBFF8C088D09EE243423
:101A7400F8E43FF9E8FCE9FDEE2435121D77FAEEAF
:101A84002437121D77F88508F0A4C885F00A850963
:101A9400F0A4250AF9EA28F8E439F97A257B00123A
:101AA4001613EA8C828D83F0FA131313541FF8EE85
:101AB40028F8E43FF9E8245DF582E439F583E0C0D1
:101AC400E074075AF8D0E0B800028004C313D8FCCD
:101AD400A2E0EE50082434F582E43F801824361244
:101AE4001D77F5F0EA84A8F0EE28F8E43FF9E8243D
:101AF40038F582E439F583E0F97F0302182674F798
:101B040012177AEAFEEBFFEE2434121D77C0E0EEE2
:101B14002435F582E43FF583D0E0F08E828F83A3F1
:101B2400A3A3A3A3A3A3C082C0838E828F83A3A3F2
:101B3400A3A3A3E0F8A3E0F9D083D082E0C398F58F
:101B440008A3E099F509EE247F121D776401703E25
:101B5400EE2480F582E43FF583C082C0838E828FB9
:101B640083A3A3A3A3A3E0240108A3E03400F9D032
:101B740083D082E0687003A3E06970127CAF7D04B7
:101B8400120BA4EE247FF582E43FF583E4F0AC0865
:101B9400AD09EEFAEFFB121A64E9F91224CF7F02C1
:101BA400021826C082C083851882851983E0F8A3B1
:101BB400E0F9C3EA9CEB9D5010C3EC98ED99401BEF
:101BC400C3EA98EB995014800EC3EA98EB99400746
:101BD400C3EC98ED994004790180027900D083D058
:101BE4008222EAC39CFAEB9DFB2274EF12177A90CF
:101BF4000374E064086005E06407702A9061C8E03B
:101C040060249003A2E0F4601DE0F875F00BA4C812
:101C1400AAF02AF974A428FE740339FF8E828F83F4
:101C2400A3A3A3E07003021CFC906060E0C0E0EE9C
:101C34002468F582E43FF583D0E0F0750C1F750D40
:101C440005750800750900E5D914F50AE5D95403AA
:101C5400F50E60127403650E6043E50A600AEE2413
:101C640067121D777002807590051AE06401601F89
:101C7400121D7460047A0480027A00E50AC39AFA99
:101C840095E0FB120A368A088B09EA4509700512A9
:101C94000DD28064121D7470048A0C8B0DE50A60E9
:101CA40012850C82850D83F50BE5D9F0A3150BE5A0
:101CB4000B70F6121D74604474FC250AF50A780C46
:101CC400121921AC0AA90EEEFAEFFB120C5E740293
:101CD4001216B4E97026AA08AB091211CE793D8E0A
:101CE400828F83A3A3A3A3E0FA7B00120898EEFAE1
:101CF400EFFB120BC8120C707900806F7403650E31
:101D04006051850A107511007810121921AC0CADC0
:101D14000DAA08AB09120C2274021216B4EE246840
:101D2400121D7764807004747F8001E0F50C780CD8
:101D3400121925E50EF50C780C121925A90AAC0820
:101D4400AD099003A2E0FA7B0012086E7402121629
:101D5400B48013900374E06408600BAC0CAD0DEE1A
:101D6400FAEFFB120CE8120DDE79017F0A02182645
:101D7400EE2483F582E43FF583E02274F212177AAD
:101D840074FC12169EEAFEEBFF8909A2AFE433F558
:101D940008C2AF021E49E0601B780C121921AC0B7B
:101DA400A90EEEFAEFFB120C5874021216B4740466
:101DB400250BF50B7401250BF5D9850ED9E50B60C0
:101DC40018F50A850C82850D83E0F5D9A385820C6C
:101DD40085830D150AE50A70EA75E195EE2463F82A
:101DE400E43FF97A007B00A2AFE433F50BC2AF887D
:101DF400828983E0FCA3E0FDEC4D603A888289830C
:101E0400E0FAA3E0FB8A828B83E0FCA3E0FD8882F6
:101E14008983ECF0A3EDF08A828B83E4F0A3F0884D
:101E2400828983E0FCA3E0FDEC4D700A88828983FB
:101E3400A3A3E4F0A3F0E50BA2E092AF1211CE90BD
:101E440004B6E004F0EE2463121D77F8A3E0F9E889
:101E5400496064EE2463121D772402F8A3E0340081
:101E6400F988828983E5822402F50CE43583F50D33
:101E7400E0F50BA3E0F50EEE2462121D7764017009
:101E8400369061D0E0F8121D7460047C0480027CFA
:101E9400007480C398FA95E0FBE50B2CF8E4340059
:101EA400F9E82402F8500109C3EA98EB99A2D26533
:101EB400D0334003021D9A9004B6E0604D9004B7FD
:101EC400E0F89004B6E0C398500C74026509703AC7
:101ED4009004B8E060348E828F83A3A3A3A3E0852B
:101EE4001882851983121F1E74021216EAE8121F43
:101EF4001E9004B5E028F07402121704AA18AB1956
:101F040079011208C29004B6E4F0E508A2E092AFA9
:101F140074041216B47F07021826F0A3E4F09004A8
:101F2400B6E0F8228521878522C622C0E074EB1230
:101F34001866A2AFE433F508C2AF759B00906182C6
:101F4400E0A2E05030E591A2E0502A7591FE7401C0
:101F5400652170211220C2120D2A1220B0121934E8
:101F640012227974041216B4E9640170057901121D
:101F74000D66121BEE906182E0A2E5505DE591A230
:101F8400E550577591DF900374E064076005E064E1
:101F940008702F1220C274016521703E120D2A129E
:101FA40020B012193412227974041216B4E96401AF
:101FB40070057901120D667901EEFAEFFB121D7FAF
:101FC4008018E0640D7013900396E004F0642870A8
:101FD40002E4F07A00E0F9120DE4906182E0A2E6F6
:101FE4004003022085E591A2E64003022085759115
:101FF400BF900374E064057008120D12120D1E8068
:1020040003120D18752100120D72E9900375F07911
:1020140000120D66120B0E7A017B00900373E0F937
:1020240012119E907803E06442705690051EE014ED
:10203400F0704EC2AF12203C00782AD0E0F618D0DF
:10204400E0F6E59F5407F87005750DFF8003750DE4
:102054007FC4C0E07829E6F50A08E6550DF50B744F
:102064000B780A12167CD0E0250AF8906270E0A280
:10207400E740F8E8C333906272F0906270E0D2E017
:10208400F0906181E0A2E35009E5E9A2E350037511
:10209400E9F7A3E0A2E75009E591A2E7500375919F
:1020A4007FE508A2E092AF7F080218C58E828F8375
:1020B400E0F8A3E0C82416F582E438F583229003FF
:1020C400A2E0F875F00BA4C8AAF02AF974A428FEBB
:1020D400740339FF22C0E0C0D0C082C08390618302
:1020E400E0A2E05009E5BFA2E0500375BFFEE0A204
:1020F400E15009E5BFA2E1500375BFFDE0A2E25043
:1021040009E5BFA2E2500375BFFBE0A2E35009E575
:10211400BFA2E3500375BFF7E0A2E45009E5BFA2F4
:10212400E4500375BFEFE0A2E55009E5BFA2E55016
:102134000375BFDFE0A2E65009E5BFA2E6500375D0
:10214400BFBFD083D082D0D0D0E032C0E074F212CE
:102154001866E5A7A2E6500FE5A1A2E6500953A729
:10216400BF75A1BF1221A3E5A7A2E5500CE5A1A26A
:10217400E5500653A7DF75A1DFE5A7A2E15009E505
:10218400A1A2E1500375A1FDE5A7A2E2500CE5A1CF
:10219400A2E2500653A7FB75A1FB7F010218C57488
:1021A400F712177A752101900374E0640670151212
:1021B4000C948A828B83A3A3A3A3A3A3E0FAA3E032
:1021C400FB120D00A2AFE433FED2AF90037AE064B9
:1021D4000170187A207B00900373E0F91212B27A2E
:1021E400207B00900373E0F91211A4906182E0D285
:1021F400E6F090051BE0602185C6228016900379E5
:10220400E064017008E5C654F84405F5C653BEFC05
:10221400121F287401652160E4EEA2E092AF7F02F0
:10222400021826008E238F2485822885832785180B
:1022340082851983E0CEA3E0CF852882852783EBAE
:10224400C9EAC8EDCBECCA75F010C3E833C8E9336A
:10225400C9EA33CAEB33CBC3EA9EF526EB9FF525D7
:10226400B35004AB25AA26EC33CCED33CDD5F0DA4C
:10227400AE23AF242274F112177A8A088B098C0AD0
:102284008D0B90810A780812153C740F1216EA78A7
:102294000C12156290810A780C12153C7808790C9E
:1022A40012137590810650107808790C1215147861
:1022B400081213954014800E780C790812151478BE
:1022C4000C12139550047901800279007F080218DA
:1022D4002674ED12177A8A088B098C0A8D0B90816B
:1022E4000A780812153C74131216EA780C12156257
:1022F40090810A780C12153C780C790812137540F9
:10230400117808790C121514AA08AB09AC0AAD0BA4
:102314008022751000751100751200751301781074
:10232400790C121514781079081214DBAA10AB1169
:10233400AC12AD137F0C02182690810A780812158E
:10234400628A828B83780812154F7F0402182674E0
:10235400F512177A8C828D8378081215628A828B23
:102364008378081215281223ABC3E09CF0A3E09DE8
:1023740012239D402290812678081215628A828B4E
:102384008378081215018A828B83A3A3A3A3E02474
:1023940020F0A3E0344EF080A0F088828983C3E06B
:1023A4009420A3E0944E22EA2404F8E43BF98C82BE
:1023B4008D83A3A3A3A3E0FCA3E0FD8882898322E9
:1023C40074F512177AE9FE9004D1E0FAA3E0FBEE6B
:1023D40029F8E433F9749128F582748039F583E09F
:1023E4002AF508A3E03BF509780812192190812207
:1023F40012158012222874021216B48A088B098CD2
:102404000A8D0B741078081214A3AA08AB097F0470
:1024140002182674F112177A8A0C8B0D8C0E8D0F0C
:1024240074111216EA12193874111216EAE0240112
:10243400F508A3E03400F509E4F50AF50B780C7906
:10244400081213B49081127808121562780C790876
:102454001213B4AA0CAB0DAC0EAD0F1222287402E9
:102464001216B48B09EA450960047A0180027A00E5
:10247400EC2AFCE43DFD74131216EAE0F8A3E0F93B
:10248400E8FEE9FFECF8EDF97A717B021216138885
:10249400088909E4F50AF50B8E828F8378081215F2
:1024A40071ECF8EDF97A717B021216138A088B0924
:1024B4007405780812168B8E828F83A3A3A3A3E5D9
:1024C40008F0A3E509F07F08021826C082C083E95A
:1024D400906000F0D083D08222C0E074F2121866BB
:1024E400A2AFE433FED2AFE589A2E1500312110892
:1024F400758900C2C5EEA2E092AF7F010218C5C083
:10250400E074F2121866A2AFE433FED2AFE58BA2F8
:10251400E05003121108758B00C2E880D8C0E0C0F7
:10252400D0E8C0E0E9C0E0A9A8D2AFC2C7E9A2E7F9
:10253400E433F8E9A2E792AFD0E0F9D0E0F8D0D0E4
:10254400D0E032C2AF02000022C0E0C0D0C082C0DE
:1025540083E5AFA2E0500C901538E02401F0A3E02D
:102564003400F0D083D082D0D0D0E032FFFFFFFF20
:10257400FFFFFFFFC082C083E99015FDF0D083D038
:102584008202011F74F612170EE99002E6F090031E
:1025940046E0F5087509007402780812168BAA083B
:1025A400AB091212109002E7122F0E9002E71232BA
:1025B400FB606F900346E075F003A4FAABF01212CF
:1025C40010900304122F0E9003041232FB700B9030
:1025D40002E71232CC121216804890030412420F02
:1025E4007AFF7BFF12108A7A0080198A0875090025
:1025F4007402780812168B123D0874FF12273BE40C
:10260400F0A3F00A900346E0F8EAC39840DD7905A8
:102614001207549002E6E0F91206467AD27B0712BA
:1026240009D6023DAB74F412170E8A088B09EB54D9
:102634008060479002E6E0F91211868A0A8B0BAE9D
:102644000AAF0BEE4F602A8E828F83E064B0701A5B
:10265400120760E960148E828F83A3A3A3A3E0F919
:10266400EE2405FAE43FFB120736EEFAEFFB1211F3
:1026740074AA08E5096480FB80047A007B000228C0
:102684005E74F212170E74FB12169EEAFEEBFFEE56
:102694004F604574031216EAEEF0A3EFF08518823A
:1026A400851983ECF0A3EDF074021216EAE9F0AA9E
:1026B40018AB19120640E9F508707574131216EA7E
:1026C400E0F50AA3E0F50BE50A450B60638E828F03
:1026D40083122C97EE4F700575080280537A067B9F
:1026E400001212108A0C8B0DA80CA90DE849700574
:1026F400750813803B88828983E412273BEEF0A39C
:10270400EF122857E50AF0A3E50BF09002EA12282D
:10271400509002EA6017E0FCA3E08003EAFCEBFDC2
:102724008C828D8312285070F38C828D831239230E
:10273400A908740502448FF0A31241F1A32274F294
:1027440012170E8908890C750D007403780C121683
:102754008B850C0A850D0B9002E9F09002E7123785
:102764002E12284E602E1212167900801D890C75C7
:102774000D007402780C12168B9002E7123BC78886
:1027840082F583A3A3E4F0A3F009900346E0F8E9FB
:10279400C39840D9900346E0FA850AF0A4CAA8F089
:1027A400850BF0A428FB1212108A0C8B0DAE0CAF13
:1027B4000DEE4F7003022844900346E0FC850AF0B6
:1027C400A4CCA8F0850BF0A428FD79001211627C3A
:1027D4000080318D0C750D007403780C12168B8AF1
:1027E400828B8312284988828983E4F0122856A3B5
:1027F400A3F0A3F00DEDC3950840D8EE250AFEEF33
:10280400350BFF0C900346E0F8ECC39850288C0C71
:10281400750D007402780C12168B9002E712284989
:10282400E82402500109FAE9FB8A828B83EEF0A3C3
:10283400EFF07D0080BFE5089002E9F079008002A6
:102844007913024492123BCBF922A3A31232D0EAA9
:102854004B22A31241F1A3A3A3227F040217E0C0D9
:1028640082C0839002EA1232FB601C88828983A3AF
:10287400A3E06A7003A3E06B8882898370E8A3A352
:10288400A3A31232CC80047A007B0002258174F267
:1028940012170E74FD12169EEAFEEBFF8518828550
:1028A4001983E4F0A3F074021216EA7401F01232F0
:1028B400F870141209101212109002ED122F0E1259
:1028C40032F87003022A2412300EEE2404F50AE4CE
:1028D4003FF50B850A82F583E024FE603C24FC600E
:1028E4007424FE607E24FE700302297424FE7003A7
:1028F40002298124FE700302298E24FE700302291A
:102904009B24FE70030229A824FC70030229C92415
:10291400FE70030229E1022A1D1209109002EFEA57
:10292400F0A3EB122A301203A0E96003022A1D90DF
:1029340002EF1219388E828F83A3A3A3A3A312429A
:102944000F8508828509831232CC12071E74021285
:1029540016B4022A1DAC18AD19EEFAEFFB12076685
:102964000229ECAC18AD19EEFAEFFB12076C807873
:10297400AC18AD19EEFAEFFB120772806BAC18AD10
:1029840019EEFAEFFB120778805EAC18AD19EEFA77
:10299400EFFB12077E8051AC18AD19EEFAEFFB1273
:1029A4000784804474021216F4880C890D780C1282
:1029B40019217402121704EEFAEFFB12078A74024B
:1029C4001216B48023AC18AD19EEFAEFFB1207907F
:1029D400E9F8701674021216EAE4F0803CAC18AD03
:1029E40019EEFAEFFB120796E9F8E8602C8E828F55
:1029F40083A3E064146022850A82850B83E090023D
:102A0400EFF08518828519831232CC9002F0122FD0
:102A14000EE8A3122A3012039AEEFAEFFB1206F420
:102A240074021216EAE0F9740302448FF07CEF7D1D
:102A3400028508828509831232D02274E812170EA7
:102A440074FA12169E74041216EAECF0A3EDF08ADE
:102A5400128B13EA2405F50EE43513F50FEA24026C
:102A6400F510E43513F511851082F5831232CC127A
:102A7400048A8A0A8B0B7508007C037D0079007A2E
:102A8400EF7B02121162E50E2402F516E4350FF510
:102A94001774021216F4880C890D780C121921850A
:102AA4000E82850F83A3A3A3A3E0F50C750D007814
:102AB4000C121921E50E2405F50CE4350FF50D78FB
:102AC4000C1219218516828517831235D312065EDE
:102AD40074061216B48A0C8B0DE50C450D700302B6
:102AE4002C608020851882851983E088828983F090
:102AF4000508851882851983A3E0C0E0122CA1D0B3
:102B0400E0F00508E50A24FBFAE50B34FFFBC3E516
:102B1400089AE49B4003022C607E007F00851282A9
:102B2400851383A3A3A3A3E0F5097809121925E467
:102B3400F514F51578141219217514EC751502782D
:102B4400141219219002ED12193874091216EA129E
:102B54001938E50A24F9F9AC0CAD0D8510828511FC
:102B6400831232CC1207BA74091216B4E960030254
:102B74002C01850E82850F83A3A3A3A3A3A3A3E0A3
:102B8400F89002ECE0687075E0F5148E1578141274
:102B9400192112420C850E82850F83A3A3A3A3A33C
:102BA400A3A3A31232CC12115C74021216B4E9600E
:102BB4004C9002F01232FB703BE4F51478141219B5
:102BC400217CFF7DFF79078510828511831232CC29
:102BD40012073074021216B41233017017850E8274
:102BE400850F831243A974041216EA123CBB1236F1
:102BF40004022C94850C82850D83122C97A818A9A5
:102C04001988148915781412192174041216EA12F9
:102C14001938851682851783122F0412066A7404E4
:102C24001216B48A0C8B0DEE4F7003022ADD122C9F
:102C3400A1EE122CAC1235BAEF122CACF8A3E0348E
:102C440000F9E50C450D6003022AE8888289837443
:102C5400FFF00508122CA174FFF00508E508601ABE
:102C64001313543F122F141203ACE960099002F0BD
:102C74001232CC1211CE79008016850E82850F8314
:102C84001243A974041216EA123CBB123923790ABE
:102C940002358DA3A3A3A3E0FEA3E0FF22A808901E
:102CA40002F0E0281235BA22F00508089002F0E09C
:102CB400282274E812170E74FA12169E7402121661
:102CC400EA122F0E74041216EAECF0A3EDF074026B
:102CD4001216EAE024051235A3E0F50CA3E0F50D85
:102CE40074021216EAE02402F510A3E03400F51190
:102CF400851082F5831232CC12048A750800750996
:102D040000EA24FCFEEB34FFFF8008050CE50C70A0
:102D140002050DA808C3EE98EF94005003022EC0DC
:102D2400A818A919880E890F780E12192185148202
:102D3400851583A3A3A3A3124213121921E5142416
:102D440005F50EE43515F50F780E12192185148258
:102D5400851583122F0212065E74061216B48A0EAB
:102D64008B0FEA450F7003022EC0EA2404F516E423
:102D7400350FF517851682F583E0F50CA3E0F50D04
:102D840085188285198312420F8A828B83A3A3A399
:102D9400E0F98510828511831232CC12064CE9F5D4
:102DA400096003022EC074021216EA1235CAF5092C
:102DB4007809121925E4F512F51378121219217500
:102DC40012EC75130278121219219002ED121938BF
:102DD40074071216EA121938EEF9AC0EAD0F85100D
:102DE400828511831232CC1207BA74091216B4E91F
:102DF400F5096003022EC0E508703FE4F50EF50FF7
:102E0400780E1219217CFF7DFF79098510828511C6
:102E1400831232CC12073074021216B41235F070D9
:102E24000D74041216EA122EF77911022EF4900290
:102E3400ECE024029002F0F080149002F0E0FA90AA
:102E440002ECE0790024025001096A497072A80872
:102E54009002ECE0FAE82AFAE43400FBEE9AEF9BE5
:102E6400405A851682851783E0C0E09002F1122C47
:102E7400A6D0E0F00508851682851783A3E0C0E09C
:102E8400089002F1122CA6D0E0F005089002EC1292
:102E9400421312192112420CA80812359712114A32
:102EA40074021216B49002ECE02508F50874FF656C
:102EB4000C700474FF650D6003022D0FE508601F9C
:102EC4009002F0E0F5F0E50884122F141203B2E941
:102ED40060099002F11232CC1211CE79008011E512
:102EE40009700375090A74041216EA122EF7A90967
:102EF40002358D123732E50CF0A3E50DF022A3A3C1
:102F040012449EAA0CAB0D22A3A3EAF0A3EBF02279
:102F14009002EFF07CEF7D028510828511831232DE
:102F2400D02274EC12170E74FC12169E123A3374EB
:102F3400021217041232C61206648A0C8B0DEA457B
:102F44000D7003022FFE12300EA818A919881089DB
:102F54001178101219217CFF7DFF790B8508828579
:102F640009831232CC12073074021216B4123104DF
:102F7400700C850A82850B8312360102300B8E8217
:102F84008F83A3A3A3A3E0F5127812121925E4F505
:102F940012F51378121219217512EF7513027812B3
:102FA400121921781012192174091216EA1219380B
:102FB40074091216EAE0F9AC0CAD0D850882850996
:102FC400831232CC1207BA74091216B4E9FE7015D2
:102FD4007CEF7D028508828509831232CC1203B806
:102FE400E97009802074166E70027E009002F0125F
:102FF40032CC1211CEEE7004800B7E01850A8285DC
:103004000B83123920EEF9023935EE2402F508E477
:103014003FF5092274EC12170E74FC12169EEAFE98
:10302400EBFF8C0E8D0FEE2405F508E43FF50974D3
:10303400021217048508828509831232CC120664B1
:103044008A0C8B0DEA450D70030230F4EE2402F570
:103054000AE43FF50BA818A91988108911781012F1
:1030640019217CFF7DFF790D1232C61207307402DC
:103074001216B4123104700B850882850983123646
:1030840001807A8E828F83A3A3A3A3E0F512781222
:10309400121925850882850983A3A312193875128C
:1030A400EF7513027812121921781012192174097C
:1030B4001216EA12193874091216EAE0F91232C229
:1030C4001207BA74091216B4E9FE700F7CEF7D0280
:1030D4001232C61203BEE97009802074166E7002A3
:1030E4007E009002F01232CC1211CEEE7004800BEE
:1030F4007E01850882850983123920EEF90239356B
:1031040012330BF510A3E0F511EA45112274E8120D
:10311400170E74FE12169E8A168B178C148D15EAE0
:103124002405F50CE43517F50DEA2402F50EE43513
:1031340017F50F850E82F5831232CC12048A8A08A1
:103144008B09750B007C037D0079007AEF7B0212FA
:103154001162750A00E50814F5100424FFF508E56A
:103164000934FFF50980549002EFE0FA9002ECE094
:10317400F8EA28F8E43400F9E50898E50999500DCF
:103184009002EFE0F8E510C3989002ECF0E0F5123D
:10319400751300781212192112420C9002F0E02AE1
:1031A400FAA3E03400FB12114A74021216B490021E
:1031B400ECE0F89002EFE028F0050A850C82850D1A
:1031C40083A3A3123BD740030232A79002EFE0C3CC
:1031D4009508E4950940030232A7AE0AEE2EFEE4F8
:1031E40033FF1232E6AC18AD19124227E439FB1250
:1031F40006648A128B13AC12AD13EC4D701B750B65
:10320400011232D61239249002F0122850600312AF
:1032140011CEA90B740202358F851682851783A3FC
:10322400A3A3A3E0F50B780B121925E4F512F5130B
:1032340078121219217512EC7513027812121921E1
:103244009002ED12193874071216EA121938A910EF
:10325400850E82850F831232CC1207BA74091216B6
:10326400B4E9F50B709B9002F01232FB600302315B
:103274006BE4F512F51378121219217CFF7DFF79A6
:103284000F850E82850F831232CC1207307402121E
:1032940016B4123301600302316B1232D6123605B2
:1032A4000232187CEF7D02850E82850F831232CCA8
:1032B4001203C4E9600302320B7900023218AC0C29
:1032C400AD0D850A82850B831232D022E0FAA3E089
:1032D400FB221232E6E0FAA3E0F9EA8514828515AE
:1032E4008322850C82850D83E02EF8A3E03FF988C4
:1032F400828983229002ED1243ADE8492212330BF6
:10330400F8A3E0F9E849229002F0EAF0A3EBF09088
:1033140002F0E02274E812170E74FA12169E740476
:103324001216EA122F0E8C168D1774041216EAE088
:103334002405F50EA3E03400F50F74041216EAE038
:1033440024021235A31232CC12048A8A0A8B0B7F10
:10335400007E00A818A9198808890978081219217B
:10336400850E82850F83A3A3A3A3E0F5088E0978B5
:1033740008121921E50E2405F508E4350FF509783E
:1033840008121921850E82850F83A3A31235D31247
:10339400065E74061216B48A0C8B0D80291235C48D
:1033A400F00F1235C4F00F9002EC12390F121921EC
:1033B40012420CEFF812359712114A74021216B425
:1033C4009002ECE02FFFE50C450D700302345385A9
:1033D4001882851983123A45A3A3A3E0F9851482C0
:1033E4008515831232CC12064CE9FEE50C2404F553
:1033F40010E4350DF511EE705074041216EA12350E
:10340400CAF5087808121925E4F508F509780812B0
:1034140019217508EC75090278081219219002ED3A
:1034240012193874071216EA121938E50A24FAF93F
:10343400AC0CAD0D8514828515831232CC1207BAFB
:1034440074091216B4E9FE60391235E0123923EF1B
:10345400700302357A9002F0E0F5F0EF849002EF09
:10346400F07CEF7D028514828515831232CC120321
:10347400CAE960099002F11232CC1211CE7900022D
:10348400358D8F08EF703BE4F512F513781212199D
:10349400217CFF7DFF79118514828515831232CC3E
:1034A40012073074021216B41235F070091235E0A6
:1034B40012360402358D9002ECE024049002F0F000
:1034C40080359002ECE0F89002F0E0FAE82404FC85
:1034D400E43400FDEC6A4D6003023459E50A24FA31
:1034E400FAE50B34FFFBE50828F8E43400F9EA9820
:1034F400EB995003023459851082851183E0C0E0B2
:103504009002F1E02FF8A3E034008882F583D0E044
:10351400F00F851082851183A3E0C0E01235B1D08D
:10352400E0F00F74021216F4880889097808121959
:103534002174021216EA121938850E82850F83123D
:103544002F0212066A74041216B48A0C8B0DEA4513
:103554000D70030233A174021216EAE0C0E01235C2
:10356400B1D0E0F00F74021216EAA3E0C0E0123505
:10357400B1D0E00233A9EE70027E0A850E82850F77
:10358400831235E6123923EEF974061216B47F104D
:103594000217E09002F1E028FAA3E03400FB22F5E0
:1035A40014A3E03400F515851482F583221235B591
:1035B400229002F1E02FFAA3E034008A82F58322FC
:1035C4001235B574FF22123732A3A3A3A3E022124B
:1035D400449E850E82850F831232D0228510828507
:1035E40011831243AD851682851783229002F1EA76
:1035F400F0A3EBF09002F11243ADE849221239290D
:10360400E8F0A3E9F079112274EA12170E74FE129D
:10361400169E8A088B098C128D13EA2405FEE43564
:1036240009FFAC18AD198E828F831232CC12066456
:103634008A0C8B0DEE2406F50EE43FF50FEA450DDA
:103644007003023704E5082402F50AE43509F50B92
:103654008A828B83A3A3A3E0A2E5502885188285E0
:1036640019831232CC1207B48A108B11EA45116007
:103674002079121232C285108285118312170CE947
:10368400F50C707F850E82850F83E0600979528086
:1036940011750C0E806D850882850983A3A3A3A3ED
:1036A400E0F9E4F508F50978081219218E828F8370
:1036B400A3A3E0F50878081219218E828F83A3A3AF
:1036C400A31219388E828F8312420F1232C6120748
:1036D400C074061216B4E9F50C7011850E82850FBC
:1036E40083E0702D1232C61203D080257416650C47
:1036F4007011750C0074181216EA12372EE480103B
:10370400750C011243A5851282851383E8F0A3E9A1
:10371400F0850E82850F83E0600479008002A90C95
:1037240074021216B47F0E0217E012373222E0F848
:10373400A3E0F58388822274EC12170E74F7121634
:103744009E8A0A8B0B8C108D11EA2405FEE4350B3E
:10375400FF750C00AC18AD198E828F831232CC1217
:1037640006648A088B09EA450970030238FAE50AF7
:103774002402F50A5002050B8A828B83A3A3A3E0DB
:10378400A2E5502F8518828519831232CC1207B412
:103794008A0C8B0DEA450D604F7912AC08AD091205
:1037A40032C6850C82850D8312170CE9F50C600373
:1037B4000238FD850A82850B83E0F508A3E0F5094C
:1037C400AA08FB1207A8EA4B70197AFF7BFF1207BD
:1037D400A8EA4B70030238F08A828B83E508F0A3D1
:1037E400E509F07508008008750C0E0238FD05081F
:1037F4009002E9E0F8E508C39840030238F0850830
:103804000E750F007403780E12168B8A828B83A3B5
:10381400A3E0250EF8A3E0350F123CC470D08E82CD
:103824008F83123918122F0E8E828F83A3A312391D
:1038340018122F0CEE2404F508E43FF509850882DC
:10384400F583E088828983A3A3A3A3F0A3E4F0EE25
:103854002405F50EE43FF50F850E82F58312391821
:10386400A3A3A3A3122F0C751207751300781212C9
:103874001921EEFCEFFD74041216FC12114A7402B5
:103884001216B4E4F51278121219218508828509FA
:1038940083E0FC7D0079171232C6120730740212DD
:1038A40016B474071216EA122F0E74071216EAE001
:1038B400FA4B603D85088285098312390F1219215C
:1038C400850E82850F8312420F12114A740212165A
:1038D400B474021217041232C61203D6E9602674B5
:1038E400071216EA1232CC1211CE8019750C098017
:1038F40008750C118003750C011243A5851082858F
:103904001183123923A90C74098028E0F50875097C
:10391400007808221232D08882898322123929E859
:10392400F0A3E9F022E0F8A3E0F9850E82850F8385
:103934002274041216B47F0C0217E074EC12170EF2
:10394400123A33751000EE2402F50CE43FF50D85B0
:103954000C82F5831232CC1207A88A088B09EA4537
:10396400097003023A17850A82850B83E0640160BB
:1039740003023A0CAC08AD09AA0AAB0B12079CE986
:10398400606E850882850983122C99EE2406F50A57
:10399400E43FF50B8E828F83A3A31219388E828F96
:1039A40083A3A3A3A3121938850A82850B83121952
:1039B4003879188E828F83123A451232CC1207C09E
:1039C40074061216B4E9F8741668700B850A8285B9
:1039D4000B83E4F0A38014E860128E828F8312328A
:1039E400CC850E82850F83EAF0A3EBF08810801853
:1039F400780E121921AC08AD09EEFAEFFB1207A2FA
:103A040074021216B4E9F510AA08AB091207AEE560
:103A140010700E850C82850D831232CC1203DC806B
:103A240009741665107003751000A91002393AEA7A
:103A3400FEEBFF8C0E8D0FEE2405F50AE43FF50B2B
:103A44002212449E850C82850D832274EA12170E7D
:103A54007508007509007E007F00750A00EC2402D9
:103A6400F510E43DF5118035EC65087003ED65094A
:103A74006003023B0488828983A3A3E06A7003A3E2
:103A8400E06B707C88828983A3A3A3A31243A9EE6D
:103A940028FEEF39FFEA28FAEB39FB050A123BD47A
:103AA400503A850A0C750D007403780C12168B8538
:103AB4001082851183123BC7123CC4601FE5084580
:103AC4000970A58C088D0988828983122C978882B5
:103AD4008983A3A3E02EFAA3E03F80BEE50AC39442
:103AE400025003023BC2750800750900EE4F6010D6
:103AF400EEFAEFFB1211C88A0E8B0FEA450F700520
:103B04007900023BC4750B00023B97850B0C750DC5
:103B1400007403780C12168B851082851183E025BE
:103B24000CF50CA3E0350DF50DE50C2406F514E4B5
:103B3400350DF515851482F583123CC96042E50CF8
:103B44002404F512E4350DF513851282F583121958
:103B540038E50E2508FAE50F3509FB12114A7402FF
:103B64001216B4851282851383E02508F508A3E0B4
:103B74003509F5098514828515831232CC1211CECC
:103B8400E50B600D7C087D007900AA0CAB0D1211C9
:103B940062050BE50BC3950A5003023B0F851082A7
:103BA4008511831243A988828983A3A3A3A3A3A312
:103BB400E50EF0A3E50F122857EEF0A3EFF079011C
:103BC400023729123BCB22E0250CF8A3E0350D2265
:103BD4009002E9E0F8E50AC3982274F012170E8AFD
:103BE4000E8B0F8C0A8D0B750D00750C00805079AF
:103BF40016EE2406F508E43FF5098E828F83A3A30D
:103C04001219388E828F83A3A3A3A31219388508AF
:103C140082850983121938850E82850F83A3A31226
:103C240032CC1207C074061216B4E9F50D74166589
:103C34000D706C850882850983E4F0A3F0050C906F
:103C440002E9E0F8E50CC3985066AA0C8A087509E5
:103C5400007403780812168B850A82850B83A3A34C
:103C6400123D13E8FEE9FF8E828F83123CC9604047
:103C7400EA2401F508E43400F5099002E9E0650856
:103C84007002E509601488828983A3A3A3A3A3A374
:103C9400A3A31232FB6003023BF37918023BF5E95C
:103CA400609B1243A574101216EA123CBB1239230E
:103CB400A90D7F080217E0E0FAA3E0F5838A8222C7
:103CC400F98882898312449EEC4D2274F612170EF1
:103CD4007C0080010C900346E0F8ECC398501E8CE5
:103CE400087509007402780812168B123D08E06A00
:103CF4007003A3E06B70DDE8FAE9FB80047A007BD3
:103D040000023DAB9002E7123D138882898322E0D2
:103D14002508F8A3E03509F92274F212170E8A086F
:103D24008B09750A0080278E828F83A3A3A3A31215
:103D3400284E60031211CE7C087D007900EEFAEF64
:103D4400FB1211628E828F83E4F0A3F0050A123B0A
:103D5400D45027850A0C750D007403780C12168B49
:103D6400850882850983A3A3E0250CFEA3E0350D15
:103D7400FF8E828F831232FB70AD850882850983A2
:103D840074FFF0A3F002449274F612170E12075A4D
:103D94008A828B83E582458370067A007B008007E4
:103DA400A3A3A3A31232CC7F020217E074E8121774
:103DB4000E74FB12169EE9851882851983F08A1603
:103DC4008B17ECFEEDFF7510008E828F83A3A3A3E7
:103DD400E0A2E4502D741D1216EA1232CC1207B47C
:103DE4008A828B83E582458370030241E7790AEE78
:103DF400FCEFFDAA16AB1712170CE9F510600302CD
:103E040041EA741F1216EAE0F508A3E0F5097421EB
:103E14001216EAE0F50AA3E0F50B74231216EAE0A1
:103E2400F50EA3E0F50F8E828F83E0640260030237
:103E34004188A31243A9850882850983A385821238
:103E4400858313EE2406F50CE43FF50D88828983FF
:103E5400124227F514E439F51578141219AB010050
:103E6400002801288A3E070002284F3F0328BD3E50
:103E740000297E400129A94002294A4003297E40A5
:103E8400042922418841E50E450F600302418385E0
:103E94000C82850D831243A9E8FAE9FB8A828B839D
:103EA400E0850A82850B831242321219218A828BA1
:103EB40083A3E0FCA3E002410CE50E450F6003027E
:103EC4004183850A82850B837401F012421C8508A4
:103ED40082850983F07C007D008E828F83A3A3A357
:103EE400A3E02401FAA3E03400FB120664EA4B6069
:103EF400408A828B83E02402F8850A82850B83E062
:103F040028F0EA2404F8E43BF988828983E08512E6
:103F1400828513831242401242321219218A828B03
:103F240083A312420FE5082403FAE43509FB024196
:103F340011850A82850B83E02404F07C047D0079DA
:103F440000AA12AB131211620241EAE50E450F609A
:103F54000302418312421CFEA3E0FF850A82850B03
:103F6400837404F0EE850882850983F0EF8512825C
:103F7400851383F07403121704EEFAEFFB12066440
:103F84008A0C8B0DEA450D700302402D8A828B83C7
:103F9400A3A3122C9774011216F4880E890F780EBD
:103FA40012192174051216EA1219387CFF7DFF12CA
:103FB400066A74041216B48B0FEA450F7033850C2D
:103FC40082850D83124213121921850C82850D837B
:103FD400A31219387C027D007A4F7B811204787415
:103FE400041216B4E9700A74011216EA74FFF0A3FD
:103FF400F08E828F83E064027039750C02750D00B7
:10400400780C1219218E828F83A312420FE50824A3
:1040140004FAE43509FB12114A74021216B4850A33
:1040240082850B83E02402800974011216EAEEF003
:10403400A3EFF074011216EA12420174011216EA97
:104044001241F802417DE50E450F6003024183856C
:104054000C82850D83124497AA16AB17121096850D
:104064000A82850B837402F0850882850983EAF04D
:10407400851282851383EB024180E50E450F6003B0
:1040840002418312421CF8A3E0F9850A82850B835E
:104094007402F0E8850882850983F0E98512828537
:1040A4001383024180850C82850D831232CC121158
:1040B40044EAFAF8C3950EE4950F405CE8650E45B2
:1040C4000F70047A008021851882851983E0FCE54D
:1040D4000E2CFCE4350FFDC3EC98ED94005003E086
:1040E4008005E50ECAC39AFAEA850A82850B83F035
:1040F4008A0A750B00780A121921850C82850D83B2
:10410400E0250EFCA3E0350FFDAA08AB0912114A05
:1041140074021216B40241EA7510070241EAE50E70
:10412400450F705B850C82850D831243A9850A8235
:10413400850B837407F0888289831241F91241F157
:10414400E0851282851383F0E82402FAE439FB8ABD
:10415400828B831242018A828B831241F8A3A312B9
:104164002856124206F0E82405F85001098882898D
:1041740083124206A3124240A3A3A3A3F08067754F
:10418400100B8062741D1216EA1232CC12075A8A7E
:10419400828B83E5824583604A1243A9880C890D8A
:1041A400E8450D603E74251216EAE0F51078101209
:1041B4001925780E121921780A1219217808121972
:1041C4002174071216EAE0F9EEFCEFFDAA16AB170C
:1041D400850C82850D8312170C74071216B4E9F549
:1041E40010800375100EA910740502358FF08882B3
:1041F4008983A322A3E0850882850983221242478A
:10420400F022124247A3A3229002ED12449E22E020
:10421400F50E750F00780E22850C82850D831237FA
:1042240032E022E0FAA3E0F8E4C8F9EA2822F08AAE
:10423400828B83E0F50A750B00780A221241F11291
:10424400424722E0850882850983A3A32274EE12E3
:10425400170E74FE12169E8A088B09ECFEEDFF8978
:104264000AAC18AD19EEFAEFFB1206648A0C8B0D3A
:10427400EA450D7003024339851882851983123289
:10428400CC12075A8A828B83E582458370030243EA
:1042940034A3A31243A9880E890FE8450F700302C3
:1042A400433474141216EAE0F510A3E0F511E50A9C
:1042B400F50B780B12192574191216EA12193878AD
:1042C40010121921741B1216EAE0F9AC0CAD0DAAF8
:1042D40008AB09850E82850F8312170C740512161C
:1042E400B4E9F50B705274FE650A604C850C828546
:1042F4000D83E064027041124348FAA3E0F9EAF83E
:104304007402687003742969702E85108285118384
:10431400124227F50CE439F50D780C121921EEFC44
:10432400EFFDAA08AB091207D874021216B480086C
:10433400750B0E8003750B01A90B74021216B47F62
:104344000A0217E0A31243AD88828983E02274F63F
:1043540012170E74FE12169E740C1216EA1243A95A
:10436400E8851882851983F074011216EAE9F0E4ED
:10437400F508F50978081219217508027808121948
:104384002174041216F4880889097808121921790D
:10439400FE1207C074061216B474021216B4023D5B
:1043A400AB8E828F831243AD22E0F8A3E0F922742E
:1043B400F712170EEAFEEBFF890890030412420F6E
:1043C400121096EA5402600BA908EEFAEFFB1206EB
:1043D40058800279017F010217E074F212170E74FB
:1043E400FE12169EEAFEEBFF890A7401650A601448
:1043F4007402650A600302448D79011209F4E960CC
:104404000302448DEEFAEFFB1207A8EA4B60031295
:1044140007AEA818A91988088909780812192175FE
:104424000802750900780812192175084B7509816D
:1044340078081219217CFF7DFF7A017B0012065E49
:1044440074061216B48038850882850983A3A3A351
:10445400A3A3A3124497EEFAEFFB12108AE4F50C1F
:10446400F50D780C12192174021216EA1219387C0F
:10447400FF7DFFAA08AB0912066A74041216B48AF7
:10448400088B09E508450970BE74021216B47F064C
:104494000217E012373212449E22E0FCA3E0FD2210
:1044A40074F412170E8A088B09ECFEEDFF9015FDCB
:1044B400E0F4604B7A097B0012116EEA4B60408A8B
:1044C400828B8374B1F0A3E4124506F08A828B8355
:1044D400A3A3E508F0A3E509124506A3EEF0A3EFB4
:1044E400F0740C1216EA1243A98A828B83A3A3A345
:1044F400A3A3A3A31239239015FDE0F912117A02A4
:10450400285EF08A828B83A3A3A3A32274F01217DC
:104514000E74FA12169E8909ECFEEDFF7508008AE6
:104524000A8B0B780A12196500041036475345713B
:10453400458B45A345C145D945FC451446284652FB
:1045440046CD46DE46F5461047364736476846743C
:1045540001650960030247318E828F83E0F8C394BA
:10456400034003024731E890162002470D740265A8
:104574000960030247318E828F83124E9490162174
:10458400E8F0A3E902470D740165096003024731AD
:1045940012475E4003024731E890074702470D7413
:1045A40001650960030247318E828F83E0F8C3946A
:1045B400054003024731E890074802470D7401653E
:1045C40009600302473112475E4003024731E89015
:1045D400074902470D741065096003024731750AE3
:1045E40010750B00780A1219217A4A7B0712114AB6
:1045F40074021216B4024757740165096003024736
:104604003112475E4003024731E890075A02470DD2
:104614007401650960030247318E828F83E090162E
:104624002402470D7404650960030247318E828FAA
:1046340083780C121562908122780C121395500322
:1046440002473190075C780C121571024757E960F4
:1046540003024731120610E9700512104E8055907E
:1046640007EF8061740765096003024731750A0624
:10467400750B00780A1219218E828F83A3AC82AD48
:104684008374021216FC12115074021216B47C00C8
:104694007D00AA18AB198E828F83E0F9120FFAE914
:1046A400FEC3940A4003024754120610E9700CEE4C
:1046B400F91210547950121288806D74F02EF5821C
:1046C400E43407F5837401804074016509705E1257
:1046D400475E5059E890075B802F74016509704D5F
:1046E4008E828F83E0F8C3940A5042E890162380A8
:1046F400187401650970368E828F83E0F874F92886
:10470400C3940A5028E8901625F08047740165097F
:10471400701B9007EEE0F88E828F83E09007EEF036
:10472400E87030E06401702B12104280267508187E
:104734008021C3EA9427EB94005015740265097034
:104744000F8E828F83125974120490E9F508800346
:10475400750802A9087406024A828E828F83E0F8E3
:10476400C3940222A90880031216B47F040217E03E
:1047740074F012170E74B112169E8C0A8D0B908071
:10478400C8742012170474061215B1742012170489
:10479400120FFAE9FF745F1216EAE0F509EFC39409
:1047A4000A40030248F675F006EFA4F508744112B6
:1047B40017047A0E74202508F9121282E97009741C
:1047C4004D1216EAE0FE80027E00901620E064029C
:1047D4007005750E018003750E0074086509700478
:1047E4007422800274212508F50D7C1B7D0079005C
:1047F40074261216FC12116274261217047A1BA96D
:104804000D121282E9702D74401216EAE024F9C3E5
:10481400940A5020E50EF50D780D1219257427120F
:104824001704EEA2E0E433F9AA0AAB0B12053274C2
:10483400011216B47C147D007900740C1216FC125B
:104844001162740C1217047A1074242508F91212D8
:1048540082E970347C1079FF740C1216FC1211C2B8
:10486400E97025741C1216EAAC82AD837A047425AF
:104874002508F9121282740C121704EEA2E0E43334
:10488400F9AA0AAB0B12051AAC18AD197A0C74709C
:104894002FF9121282E97049AA18AB1912102A7F53
:1048A40000EF75F003A4F8A9F0851882851983E553
:1048B4008228F8E58312504B12522C601D8882899D
:1048C40083A3A3E0F50E750F00780E121921AA0A2E
:1048D400AB0B1207C674021216B40FEFC394044054
:1048E400C0EEA2E1500C900746E0F9AA0AAB0B1205
:1048F40007CC740465097028901620E064027020C7
:104904007A0090075AE060027A01900747E0600459
:10491400780480027800E84AF9AA0AAB0B1205E68B
:104924007900744F024A8274F712170E120610E9C6
:10493400704F9007EFE06401701512104E9007EF6E
:10494400E4F07C0AFDF97AF07B07121162802A7583
:104954000800A80874F028FEE43407FF8E828F83D1
:10496400E06401700BA9081210548E828F83E4F066
:104974000508E508C3940A40D97950121288121028
:104984004202536374F012170E74F012169EEAFE7C
:10499400EBFF8C088D09750A0AE9600C1460091490
:1049A400603B14607D024A7E12103CE9F50AC39410
:1049B4000A4003024A7EE50845097003024A7E75EF
:1049C4000C06750D00780C121921EEFCEFFDAA08F7
:1049D400AB0912114A74021216B4024A7E750C0015
:1049E400750E06750F00780E121921EEFCEFFDE529
:1049F4000C75F00EA4F8A9F0746828FA740739FB52
:104A040012115C74021216B4E9700B050CE50CC3A8
:104A1400940A506680CA850C0AE50AC3940A505A5F
:104A24008049750C00AC18AD197A1075F006E50CC8
:104A3400A42423F9121282E9701C7C1079FFAA18AD
:104A4400AB191211C2E9700EEEFCEFFDAA18AB19F6
:104A54001204F6E9600B050CE50CC3940A501B80A4
:104A6400C4850C0AE50AC3940A500FE50845096099
:104A740009AA08AB09A90A121036A90A7410121659
:104A8400B47F080217E074F412170E89097508152B
:104A940074FF6A700374FF6B70277E00AC097A029E
:104AA4007B00EEF9121018E960037508000EEEC3DE
:104AB400940A40E8E50960537A667B10120A18806C
:104AC4004A1209E88A0A8B0BAE0AAF0BEE4F603824
:104AD4007C007D00EE2405FAE43FFB8E828F83A3E5
:104AE400A3A3A3E0F9120FFAE9F9C3940A500CAC9A
:104AF400097A027B00121018750800E509600CEEB3
:104B0400FAEFFB121066800375081402476874F20A
:104B140012170EECFEEDFF750815740E1216EAE07E
:104B2400F50AA3E0F50B74FF6A700374FF6B702140
:104B3400750900AC0AAD0BEEFAEFFBA90912101EC1
:104B4400E960037508000509E509C3940A503F802C
:104B5400E21209E88A828B83E5824583602D7C001A
:104B64007D00E5822405FAE43583FBA3A3A3A3E037
:104B7400F9120FFAE9F9C3940A5013AC0AAD0BEE1B
:104B8400FAEFFB12101E7508008003750814A908BB
:104B94007F060217E0C082C083900760EAF0A3EBAF
:104BA400F0900746E0FC7D007A267B00120490908A
:104BB4000746E0F912073C02567D74EE12170E7494
:104BC400EC12169E8A088B09EA240CF510E43509C8
:104BD400F5118A828B83A385820C85830DEA2405D3
:104BE400F50EE43509F50FEA2409F50AE43509F56B
:104BF4000BEA2403FEE43509FF8A828B83A3A3E036
:104C040024FA7003024E8224FD7003024DA2147034
:104C140003024C9C14601024FD7003024D85147033
:104C240003024DDA024E8812597A6044E0F5838813
:104C340082124E94880C890DE8450D6033851082EC
:104C4400851183E0F50E780E121925EA240BF582FE
:104C5400E43509F583E0F912596E0A0A0AEFFB8577
:104C64000C82850D8312170C74011216B4024E883F
:104C7400850A82850B8312193890075C12158012FD
:104C8400052C74021216B4E97003024E887901856A
:104C94000A82850B83024E52750A00850C82850DAB
:104CA40083E06003024D52850E82850F83E0A2E00B
:104CB4004003024D529007FA12597D6003024D528F
:104CC4007C0E7D007900AA18AB191211628510823E
:104CD400851183125648EA4B6010750A06750B005D
:104CE400780A121921EA2410801B1256441209E88A
:104CF400EA4B7003024E88750A06750B00780A1297
:104D04001921EA2405FCE43BFD74021216FC12117D
:104D14004A74021216B4850E82850F83E0A2E25013
:104D240004D2F08002C2F0A2F0E433F8740C12163C
:104D3400EA1257FC121030E970117A027B009007D6
:104D440046E0F912119E7900024E8A750A1512592D
:104D54007A7003024E88124EA97003024E88850CA5
:104D640082850D83E0FC7901124E9A12170CE50A34
:104D74007003024E88FC79031256441255FF024E0A
:104D84007D12597A7003024E88124EA97003024EA6
:104D940088850C82850D83E0FC7902024E7A7C00C2
:104DA4007D00EA2404FAE43509FB8E828F83E0F95E
:104DB400120FFAE9F8C3940A4003024E88E5082466
:104DC4000AFCE43509FD7A0475F006E8A42425F903
:104DD40012127C024E8812564490075BE0600790E2
:104DE4001623E0F9806B901620E070047905806149
:104DF4001209E88A0C8B0DA80CA90DE8497003026E
:104E04004E88E82404F50CE439F50D8508828509FB
:104E140083A3A3A3A3A3A3A3E0A2E05039850C8298
:104E2400850D83E0F508602E850A82850B83A3E057
:104E340054027022740E121704E82405FAE439FBB4
:104E4400A908120FFAE9700E79038E828F83125625
:104E540048120526802EAC0EAD0F850C82850D837D
:104E6400E0F912564412107212597A6017124EA9C0
:104E740060127C007900124E9A12170C80061256AA
:104E840044120FF4790174141216B47F0A0217E065
:104E9400E0F8A3E0F9228E828F83E0FAA3E0FB8896
:104EA400828509832212560DF98909E8450922747D
:104EB400F512170E74F212169EEAFE8C0A75F006AD
:104EC400E9A42420F508AC18AD197A0EF91212825F
:104ED400E970467C0679FFAA18AB191211C2E97071
:104EE40038740C1216EA125648EAF8E50A6005EE20
:104EF400C8488004EEF4C858F8EA687001EB6015FD
:104F0400740C1216EAE8F0A3E4F0AC18AD197A0EAA
:104F1400A90812127C790180027900740E1216B469
:104F24007F030217E074F212170E74E612169E89BC
:104F34000A8A088B09ECFEEDFF740C1217047A0E32
:104F440075F006E9A42420F9121282E960030250E4
:104F54000E7C0679FF740C1216FC1211C2E9600370
:104F640002500E7470250AF50BAC18AD197A0CF9C1
:104F7400121282E9600302500AAA18AB1912102A0D
:104F8400E5084509701D7C0C7900AA18AB191211AB
:104F9400C2E970727C0C7D007900AA18AB19121159
:104FA400628051AC18AD19AA08AB091210248A0CFE
:104FB4008B0DA80CA90DE8497022EE4F604CAC187B
:104FC400AD197A007B00121024EAF8EBF9EA4B6081
:104FD4003988828983E508F0A3E509F0125087FA3D
:104FE400EE6A7001EF601FEEF04F700888828983CB
:104FF400E4F0A3F0AA18AB1912102AAC18AD197A70
:105004000CA90B12127C790180027900741A121611
:10501400B4024B9474F712170E7E00EE75F003A4DD
:10502400F8A9F0EC28F8ED12504BE06A7003A3E005
:105034006B7006E8FAE9FB800B0EEEC3940440DBC8
:105044007A007B0002536339F9888289832274F7DA
:1050540012170E7C00EC75F003A4F8A9F0EA28F806
:10506400EB12504BE0F4FEA3E0F4FF88828983EE58
:10507400F0A3EFF0125087F4F00CECC3940440D585
:10508400025363E82402F582E439F583E02274F4E0
:1050940012170E74F412169EEAFEEBFF8C088D09AB
:1050A4009007FA12597D704FEE4F700302520BECC9
:1050B4004509700302520B12103CE9901626F0C306
:1050C400940A4033750B007C0679FFE50B75F00EEE
:1050D400A4FAABF074622AFA74073BFB1211C2E91A
:1050E400600302516C050BE50BC3940A40D9750AA1
:1050F4000AE50A901626F0901626E0C3940A4003A7
:1051040002520B75F006E0A4FB9007FA12597D7069
:105114005CEEFCEFFD7A0E74202BF912127C7C0CF1
:105124007D0079FFAA18AB19121162AC18AD197A77
:105134000C901626E02470F912127C750A0E750B79
:1051440000780A121921EEFCEFFD901626E01252A7
:10515400C412114A74021216B49007FAE508F0A3B7
:10516400E509F0790002520D850B0A8084E0C82419
:105174000612522660197A1B74212BF912127C1222
:1051840052122406F582E438F583E4F0A380D312A6
:105194005212240A12522660107A1B74222BF9121E
:1051A400127C125212240A80DB125212240C125264
:1051B4002660107A1074232BF912127C12521224D6
:1051C4000C80C112521B12522660307A1074242BA8
:1051D400F912127C12521BF582E438F583E0241094
:1051E400FCA3E03400FD7A0475F006901626E0A4D2
:1051F4002425F912127C12521B80899007EEE0607C
:105204000312107812106C7901740C02476C900729
:10521400FAE0F8A3E0C8229007FAE0F8A3E0C82473
:105224000822F582E438F583125974EC4D2274F4A3
:1052340012170E74F212169EEAFEEBFFE9C3940AEB
:105244005004EE4F700479028034AC18AD197A0E14
:1052540075F006E9A42420F9121282E9F508701CFD
:10526400750A06750B00780A1219217402121704C4
:10527400EEFAEFFB12114A74021216B4A908740E66
:1052840002476C74F412170EEAFEEBFF7508007502
:105294000A06750B00780A121921EEFCEFFDE508E9
:1052A4001252C412115C74021216B4E96004A90803
:1052B400800B0508E508C3940A40D4790A02476FB5
:1052C40075F00EA4F8A9F0746228FA740739FB2269
:1052D40074F712170E750800E50875F00EA4F8A906
:1052E400F0746228FE740739FFEEFCEFFD7A0E7548
:1052F400F006E508A42420F9121282E960297C064C
:105304007D0079FFEEFAEFFB1211627C067D0079D5
:10531400FFEE2CFAE43FFB121162EE240CF582E45A
:105324003FF583E4F0A3F00508E508C3940A40A818
:105334009007EEE0600312107812106C802174F76D
:1053440012170E7E007F007C06EF1252C479FF1202
:1053540011C2E970010E0FEFC3940A40EAEEF97F1F
:10536400010217E074F712170E7E00EEF9121054C2
:10537400E9F90EEEC3940A5003E960EF80E174F397
:1053840012170E74CB12169E8908901626E0650833
:10539400701B7A017B00900746E0F91211A47A028F
:1053A4007B00900746E0F91211A412108475F006F0
:1053B400E508A4FF74202FFE74271217047A0EEE5A
:1053C400F9121282E9600302548A7C0679FF742779
:1053D4001216FC1211C2E9600302548A7C0E7D008D
:1053E40079FF74271216FC1211627C1B7D0079FF71
:1053F400740C1216FC1211627C0C7D0079FFAA1841
:10540400AB1912116274271217047A0EEEF91212F4
:105414007CE9FE740C1217047A1B74212FF9121202
:105424007CE9F509740C1217047A1B74222FF91203
:10543400127CE9F50A740C1217047A1074232FF9FC
:1054440012127CE9F50B740C1217047A1074242FD1
:10545400F912127CE9F50C740C1217047A04742501
:105464002FF912127CE9FFAC18AD197A0C7470256F
:1054740008F912127CE9F8E509450A450B450C4F79
:1054840048CE4EFE80027E00EEF974351216B47FCB
:10549400050217E074F712170EE9900746F0121090
:1054A4004202536374F212170EEAFEEBFF5480704B
:1054B40003025567900746E0F91211868A088B09A2
:1054C400EA450970030255607A01E5082405F50AE6
:1054D400E43509F50BE5082404F8E43509F9880CEA
:1054E400890D8508828B83E024506036146006247D
:1054F400E16058805D88828983E070598508828BD9
:1055040083A3A3A3A3A3A3A312193812596E8508D6
:10551400828B83A3A312564812100674021216B487
:10552400803388828983E0641E700F790085088245
:105534008B83A3A3125648121000850C82850D8319
:10554400E0F9AA0AAB0B120736800AAA0812101255
:10555400E9FAEA6007AA08AB09121174EEFAEF64DB
:1055640080802AEE54026028EE6402FE7C007D00F6
:105574007A007B00121030E960047A0180027A021A
:105584007B00900746E0F912119EEEFAEFFB80686B
:10559400EEA2E050556401F508EFF50912561D120C
:1055A400107EE9603312597A6029125615124E940E
:1055B400E8FEE9FFEE4F601B7C00790112561D8E58
:1055C400828F8312170C7C00790312561D1255FF2B
:1055D40012170C121084800C7A017B00900746E0AD
:1055E400F912119EAA08AB09800E54046006EE64F9
:1055F40004FA80047A007B00024B94900760E0F880
:10560400A312560DF583888222125615E0F8A3E002
:1056140022E0F5838882A3A3229007FA12595EE060
:10562400FAA3E0FB227F020217E0C082C083900746
:1056340046E0F98A828B83A31256481207CC80393C
:105644008E828F83E0FAA3E0FB22C082C08374FFC2
:1056540012169E121048E9C3940285188285198394
:10566400400474028002740AF0AC18AD197A01790E
:105674000512062E74011216B4D083D08202011FC3
:1056840074F012170E74E812169EEAFEEBFF890AF4
:105694008C088D097C187D007900AA18AB191211A9
:1056A40062851882851983EEF0A3EFF0900748E035
:1056B400C0E074021216EAD0E0F0900749E0C0E0BE
:1056C40074031216EAD0E0F0901625E0C0E07417D7
:1056D4001216EAD0E0F0901624E0A2E0E433FCE0F5
:1056E400A2E15004D2F08002C2F0A2F0E433F8E068
:1056F400A2E45004D2F08002C2F0A2F0E433FAE053
:10570400A2E55004D2F08002C2F0A2F0E433F50E18
:10571400750F00E0A2E65004D2F08002C2F0A2F0BD
:10572400E433F50C750D00E0A2E25004D2F08002DF
:10573400C2F074151216EAE054FEFEA3E0FFEE4C2C
:10574400FCEFFDEC54FDFCE828F8EC48F8ED54FEC1
:10575400F9EAFBE94BF9E8FAE954FDFB7409780E20
:1057640012168BEB450F54FBFB740A780C12168B44
:10577400EAF8EB450DF9E854FBFAA2F0E433F50C32
:10578400750D007402780C12168BEA450CF874152A
:105794001216EAE8F0A3E9F0900749E0601D750CE1
:1057A40010780C1219217C4A7D0774061216EAAA95
:1057B40082AB8312114A74021216B490075AE06045
:1057C40011E50A600974151216EAE04402F0780142
:1057D4008002780074141216EAE048F0900747E05B
:1057E400600478048002780074141216EA1257FCDC
:1057F4001205207418024A82E048F0AC08AD09AAE8
:1058040018AB192274F712170E120820750800E558
:105814000875F00EA4F8A9F0746228FE740739FF25
:105824007C0679FFEEFAEFFB1211C2E97009EEFA79
:10583400EFFB79001208260508E508C3940A40CF57
:1058440002536374F612170E74FD12169EEAFEEBF1
:10585400FF9007FC12597D70397508FE75090778A9
:1058640008121921750802750900780812192175A2
:10587400084B75098178081219217CFF7DFF7A0194
:105884007B0012065E74061216B49007FCEAF0A3BD
:10589400EBF09007FC12597D70030259507508FF14
:1058A4007808121925E4F508F50978081219217405
:1058B400051216F48808890978081219217405124A
:1058C40016F48808890978081219219007FE12191C
:1058D4003879029007FC1259661207BA7409121635
:1058E400B4E97036851882851983E0FA74011216BA
:1058F400EAE0F8E4C8F9EA28F508E439F509EA45E4
:1059040009601778081219219007FC12595EA31236
:10591400596612100674021216B4E4F508F50978F3
:10592400081219219007FE1219387CFF7DFF900799
:10593400FC12564812066A74041216B49007FCEA64
:10594400F0A3EBF09007FC12597D700479018002FA
:10595400790074031216B4025629E0F8A3125615FE
:10596400A322125974EEFAEFFB22850A82850B8377
:10597400E0FCA3E0FD22900760E0F8A3E0F9E84929
:1059840022C082C0839007FA12597D60109007FAF2
:105994001256481211749007FAE4F0A3F0901626F8
:1059A400740AF002567DC082C0839061907404F042
:1059B400A37448F0A37402F09061807440F0906185
:1059C400BC7403F09061877419F0906265741BF0E5
:1059D400906249E0C3941390619C40107409F09064
:1059E40060667401F090619F7428800D740BF090D0
:1059F4006066E4F090619F742CF0125B957009C2AC
:105A040091900378746780059003787461F0125C58
:105A140007902570E493F46006E493F9120B02797D
:105A240005120DC6025C15C082C083E9540FF990BB
:105A34006185E0696012E5C654B84441F5C6E59E47
:105A44005447644170F8E9F053C6B8E59E54477072
:105A5400FA025C15C082C083A8A853A87E90618115
:105A6400E4126896C2BA539AFEC289759B00C2C2F8
:105A740075E90075910075BF0075A91175B9059098
:105A84006181F0A374C0F0A3E4F0D2BA439A017424
:105A9400805842A8025C15F0A3F0025C15C082C0D5
:105AA4008374F812169E900376126D967003025B4F
:105AB4008D900376E0544060177908AA18AB191248
:105AC4000C04AA18AB19120856900376E054BFF0E0
:105AD400E054806010790C7A3F7B05120C0490032B
:105AE40076E0547FF0E0A2E0501E125B957009C28C
:105AF40091900378746780059003787461F01208BC
:105B04005C900376E054FEF0E05402601E125BD910
:105B14007009D29190037874718005900378746A47
:105B2400F012085C900376E054FDF0E05404601039
