:020000040000FA
:0600000002011A02214575
:03002B0002288721
:0300330002286937
:03004B000228B6D2
:030053000221BBCC
:03006B0002284028
:10008300021F9BE5C754F84401F5C779012200001C
:100093000080FB120086B90003020104E479217891
:1000A30008B800028004F709D8FCE479297802B87B
:1000B30000028004F709D8FCE490028178BD79132B
:1000C3008002F0A3D8FCD9FA781A90014A7A01BACF
:1000D30000028007E493A3F608DAF97A3D7B1590D2
:1000E300014B785E79038015E493A3AD82AE838AD6
:1000F300828B83F0A3AA82AB838D828E83D8E9D9C6
:10010300E77582197583A5740312012C75829175A5
:100113008300740012012C75D00075814F7518810E
:10012300751902759F00020096C09FF59FE473D076
:100133009F22D083D082C09FE493C0E0740193C018
:10014300E0740293F59F2201FF0000B40000280031
:100153002800283075A000A000A000A0000008001F
:1001630008E001F000100010001000100010001053
:100173000050005000500010001000D00700000095
:100183000000000F0001000500307507001000019A
:100193000081FF00000000FFFFFFC405E205CA0560
:1001A3000606FF02020208025000A0000000E80356
:1001B300027181010000B980026B81010000981572
:1001C300026581010000BD02026B810100009915E7
:1001D300026381010000D302026B810100009A15C2
:1001E300026181010000D502026B810100009B15B1
:1001F300028381080000D602026B810100009C1576
:10020300026F810100009D15FF0100FF1700780CAC
:10021300780C780C780C780C780C780C780C780CBB
:10022300780C780C780C780C360F480F300F01E8F7
:10023300030577100AFFFFFF0008537461727420EF
:1002430054696D657220436F6E74000247657420B4
:1002530054696D657220436F756E74200008537482
:10026300617274204761732043616C69627200029A
:1002730047657420476173204D6F6E69746F7220F8
:100283000008416C61726D20636F6E74726F6C2035
:1002930020200002543030303030314465766963B9
:1002A30065204E616D652063686172000271810192
:1002B30000005E81026B810100002E16027781032C
:1002C3000000BC140269810100002F16026B81013A
:1002D30000004016027981030000BD140269810108
:1002E30000004116026B810100005216027B81035C
:1002F3000000C1140269810100005316026B8101E1
:1003030000006416027D81010000C21402698101AC
:1003130000006516026B810100007616027F8103DF
:100323000000C6140269810100007716026B810187
:10033300000088160281810100008916026981018B
:100343000000901601307503020106000000000052
:10035300000000000000000000000000000000009A
:1003630000000000000000FFFF0600800CE8030A05
:100373000950414D6F6E69746F72051204000600D7
:10038300020A000201060302F0FF53696D706C65F7
:1003930020424C45205065726970686572616C9E9D
:1003A300130000A4131201350080031201351380DA
:1003B300031201354480031201357E800312013597
:1003C300D780031201351E810312013566810312A2
:1003D3000135958103120135C48103120135FB8177
:1003E300031201354282031201355B820312013588
:1003F300B08203120135DE82031201351883031222
:100403000135ACA802120135AFA902120135E8A9E2
:10041300021201350BAA021201351DAA021201357F
:100423005BAA02120135D7AA021201359FAB021251
:100433000135C1AB0212013558AC02120135AAAC29
:1004430002120135DBAC02120135E8AC02120135B0
:1004530052AD02120135A9AD02120135ACAD021243
:100463000135E5AD02120135E8AD02120135F2ADF9
:100473000212013546AE0212013587AE0212013572
:10048300BAAE02120135F7AE02120135F9AF02120C
:1004930001359DB00212013506B10212013544B196
:1004A3000212013544F2021201356CF202120135D7
:1004B30099F202120135D1F2021201352FF3021221
:1004C30001357BF302120135E2F30212013522F406
:1004D300021201355FF4021201358DF40212013567
:1004E30037F50212013541F5021201354EF50212BC
:1004F300013581F5021201358DF502120135A5F59D
:1005030002120135AFF50212013585A1031201353F
:1005130093A103120135ABA103120135C2A103124A
:1005230001356DB80112013517B9011201352ABA27
:1005330001120135A6BA01120135C4BB01120135FE
:1005430000BC011201359BBC011201357FBD0112B4
:1005530001354BBE01120135D9BF011201354AC025
:100563000112013504C101120135F6C10112013531
:1005730036C201120135EAC2011201351CC3011250
:10058300013512C50112013554C50112013572C579
:1005930001120135D8C501120135A7C60112013573
:1005A3006BC7011201358AC9011201356DC10212EF
:1005B300013557C20212013502C30212013553C37A
:1005C3000212013503C40212013574C4021201354B
:1005D30059C5021201358DC50212013586C60212B4
:1005E3000135C3C6021201359FC702120135DEC7AA
:1005F30002120135FAC702120135C18E0312013509
:10060300458F03120135708F031201358A9003124F
:1006130001353DF60212013553F60212013571F62A
:100623000212013582F7021201358CF702120135ED
:10063300B7F802120135AEF9021201351BFA0212A4
:100643000135259B03120135629C03120135169473
:1006530001120135A29401120135069601120135EA
:100663001296011201354D9601120135BC96011205
:100673000135C59701120135CE98011201359599BF
:1006830001120135F29A01120135109B0112013555
:100693002D9B01120135F89B01120135209C01129B
:1006A3000135EA9E01120135EF9E0112013508A1C1
:1006B3000112013556A101120135C6A101120135FE
:1006C30004A201120135E0A201120135A0A3011217
:1006D3000135ECA301120135EFA30112013533A457
:1006E300011201357BA401120135BAA401120135AF
:1006F300DCA40112013510A50112013573A5011205
:100703000135E0D202120135EED20212013541D396
:100713000212013560D302120135A5D3021201354D
:10072300E9D40212013584D502120135C8D502126B
:100733000135F2D50212013561D602120135A7D671
:10074300021201351ED702120135CFD7021201352D
:10075300E42800120135F42800120135952900120E
:100763000135F12900120135AE2A00120135CF2BD4
:1007730000120135FE2B00120135AB2D001201359D
:1007830022300012013592320012013584330012F7
:1007930001357D3400120135843600120135783974
:1007A30000120135A73A00120135AB3C00120135A6
:1007B300BB3D001201354A3F001201353B40001298
:1007C3000135894000120135F840001201351C4102
:1007D30000120135BD4500120135BE460012013538
:1007E3001F47001201354A47001201351048001215
:1007F3000135CECD02120135D8CD021201351DCE01
:100803000212013531CE02120135C1CE0212013579
:10081300FACE0212013535CF021201355ECF021234
:100823000135B2CF02120135C7CF02120135E9CF2C
:1008330002120135FECF0212013512D00212013528
:1008430027D00212013561D0021201358DD0021278
:100853000135BBD00212013506D10212013568D130
:1008630002120135DAD10212013520D2021201350A
:1008730063D2021201358DD202120135B8D20212AF
:100883000135BF9C03120135108B02120135F38B26
:10089300021201356E8C02120135A98C0212013548
:1008A300FA8D02120135888E021201351A91021255
:1008B3000135CC9102120135D892021201354B94C5
:1008C30002120135A49402120135B0E5021201357A
:1008D300F3E50212013577E6021201354EE9021201
:1008E30001354F8C03120135018D03120135FD8D46
:1008F300031201353C8E03120135968E0312013526
:10090300939203120135F692031201359393031266
:100913000135C89303120135F8930312013533945B
:1009230003120135539403120135E1D70212013545
:100933006DD8021201352CD90212013544DA0212A4
:1009430001355EDC021201353CF40112013561F41C
:10095300011201352EF50112013502F6011201359E
:100963006FF601120135AFF6011201354BF7011293
:1009730001357FF8011201355AF901120135B9F930
:100983000112013545FA01120135B3FA011201359D
:100993003FFB0112013585FB01120135F7FB011203
:1009A300013589FC011201352AFD011201354AFD89
:1009B3000112013592FD01120135DBFD01120135F2
:1009C300F7FD011201351DFE0112013597FE0112DB
:1009D3000135A5FE0112013534FF011201359DFFDA
:1009E3000112013595DC021201351ADD02120135BF
:1009F3005CDD0212013540DE02120135ADDE02126A
:100A03000135F1DE0212013535DF0212013562DFF5
:100A1300021201358ADF02120135C2DF02120135EB
:100A230000E00212013527E002120135A1E00212B3
:100A33000135EBE00212013588810112013527836C
:100A4300011201355F8501120135B38501120135AC
:100A5300DE8501120135BA8601120135EA860112DB
:100A630001351987011201352C87011201356D8774
:100A7300011201359A8701120135E8870112013508
:100A8300248801120135698801120135B6880112E3
:100A93000135308901120135718B011201355B8DEE
:100AA30001120135978D01120135268F011201358F
:100AB3006B8F01120135DE8F011201353390011264
:100AC3000135389001120135E19001120135AD91E4
:100AD30001120135379201120135C392011201351A
:100AE300E29301120135F393011201350D9F0212B6
:100AF3000135869F0212013540A5021201354BA62E
:100B030002120135F4A70212013582A8021201353F
:100B1300165D00120135975D00120135C45D0012A8
:100B230001350D5E001201350E5F00120135525F73
:100B330000120135885F001201350461001201358E
:100B4300866100120135A1610012013512620012A3
:100B53000135CF6200120135926300120135206422
:100B630000120135D76400120135EA640012013521
:100B73008365001201351A660012013541660012C1
:100B83000135AA6600120135F46600120135426789
:100B930000120135E767001201358568001201353F
:100BA300126900120135836900120135CA69001206
:100BB3000135226A00120135546A001201350E6BA9
:100BC30000120135156C001201355E6C00120135FF
:100BD3007B6C001201359A6C00120135CD6D001249
:100BE3000135846E00120135A96E00120135BE6E07
:100BF300001201352E6F001201356F6F001201359F
:100C03009370001201351471001201354D950212D3
:100C13000135989502120135A49502120135789693
:100C2300021201358F9602120135CC96021201355C
:100C3300FD96021201353597021201358B97021288
:100C43000135A19702120135DD9702120135F097A4
:100C5300021201351798021201354B980212013521
:100C6300719902120135BB9A02120135B79B021228
:100C73000135D49C02120135D9280012013597C9D8
:100C830001120135D2C90112013524CD01120135FA
:100C930080CE011201353FCF01120135A6D20112D8
:100CA300013590D301120135DCD301120135F6D39E
:100CB3000112013533D4011201353ED4011201353D
:100CC3007DD40112013586D40112013530D50112CC
:100CD300013507D6011201355BD601120135B8D6AD
:100CE300011201352AD7011201354BA60112013534
:100CF300AAA901120135B0A901120135E1B001120F
:100D03000135E8B40112013525FA02120135BBFAA7
:100D130002120135D1FA021201352AFB0212013502
:100D23006EFB02120135A8FB0212013540FC0212D0
:100D33000135AFFC02120135B8FC02120135C4FCC7
:100D430002120135DEFC0212013508FD02120135E3
:100D53001DFD021201357FFD02120135A6FD0212AF
:100D6300013500EA021201350DEA0212013527EAC4
:100D7300021201355AEA0212013598EA02120135CC
:100D8300FDEA0212013512EB021201351DEB0212CC
:100D930001352AEB0212013541EB021201354FEB0B
:100DA300021201355AEB0212013566EB02120135CC
:100DB30075EB0212013580EB02120135A3EB02122F
:100DC300013547EC0212013557EC0212013571EC83
:100DD300021201358EEC02120135A9EC0212013523
:100DE300CEEC02120135D9EC02120135EEEC0212FF
:100DF300013502ED0212013563ED0212013569ED91
:100E0300021201356FED0212013575ED0212013543
:100E13008DED02120135C0ED02120135B9E6011262
:100E2300013550E701120135E8E701120135D8E831
:100E3300011201350FE90112013522E901120135D1
:100E430090E9011201352BEB0112013552EB01122E
:100E53000135F4EB0112013529EC011201353AECAD
:100E630001120135B3EC01120135D4EC0112013545
:100E7300ECEC0112013544EE011201354DF0011283
:100E830001359DF201120135A0F301120135EFF393
:100E9300011201354A710012013547720012013502
:100EA3003273001201353C73001201355E73001278
:100EB30001356A7300120135BC7400120135EB74FD
:100EC300001201351B76001201355D7600120135E3
:100ED3008977001201355F7800120135B17800126D
:100EE30001351079001201354779001201358279F5
:100EF300001201351D7D00120135367D00120135CA
:100F0300B87D00120135C67D001201351B7E00122B
:100F13000135297E00120135967E00120135087FC6
:100F2300001201354E7F0012013500800212013597
:100F33002280021201350C8202120135B1850212A0
:100F43000135F48602120135CE87021201352E9641
:100F530003120135539603120135C496031201356A
:100F63006AB10212013573B1021201357CB102126A
:100F73000135ADB202120135CCB40212013502B50E
:100F8300021201353CB50212013572B50212013568
:100F9300ACB502120135E0B5021201350CB60212EE
:100FA300013555B6021201358FB602120135D7B697
:100FB300021201352DB70212013562B70212013553
:100FC300BDB702120135F7B70212013548B8021254
:100FD30001357EB802120135B8B802120135E6B800
:100FE3000212013509B90212013506A303120135B4
:100FF30032A3031201358DA30312013597A3031204
:101003000135A7A303120135D6FF0212013571A5DD
:10101300031201357C4800120135E04A0012013504
:10102300974C00120135F44C00120135F64D0012B5
:1010330001357E4E00120135054F001201352A4F4E
:10104300001201351F52001201359552001201356D
:10105300845300120135BE5300120135FE530012B2
:1010630001359E5500120135F355001201354056E6
:1010730000120135AE5600120135D4560012013567
:10108300EE560012013504580012013514580012AF
:1010930001359A5900120135BA5900120135F05938
:1010A30000120135745B00120135B35B0012013588
:1010B300F15C00120135619403120135C5940312EA
:1010C3000135749503120135939503120135E795A4
:1010D3000312013552A20312013563A20312013533
:1010E300BBA503120135FAA503120135ECFF01126A
:1010F3000135CD9F03120135DD9F03120135F29FA8
:1011030003120135A6A003120135D39D0312013545
:10111300579E03120135BD9E03120135E497031256
:1011230001350D9803120135739803120135929816
:1011330003120135E698031201353F990312013575
:101143007A99031201357D990312013542EE021299
:10115300013559EE02120135D2EE02120135A7EF25
:101163000212013579F102120135DEF10212013565
:1011730031F202120135F87F00120135B9900312E2
:1011830001352F9203120135909203120135ACA061
:1011930003120135D5A003120135FEA00312013558
:1011A30040A1031201355BC80212013565C8021262
:1011B3000135A5C802120135EEC80212013528C94E
:1011C300021201357EC9021201359DC90212013591
:1011D300A6C902120135F7C90212013520CA02124B
:1011E300013535CA02120135A5CA0212013533CBC6
:1011F3000212013577CB021201359FCB0212013562
:101203001ECC0212013561CC021201359ECC0212B2
:101213000135B0CC02120135CFCC02120135D8CC46
:1012230002120135A2CD021201358799031201354D
:10123300D89903120135619A03120135C79A031233
:1012430001358B8903120135B58903120135AF8A44
:1012530003120135DE8A03120135648B0312013553
:10126300D69E03120135D4FD021201350AFE021285
:10127300013543FE021201359CFF02120135B1A371
:1012830003120135C7A303120135D1A3031201359C
:1012930027A403120135BAA40312013597B9021228
:1012A300013554BA021201358FBA02120135B7BAA9
:1012B3000212013519BB0212013565BB0212013559
:1012C300D0BB021201354CBC0212013548BD0212DB
:1012D3000135CFBE0212013552BF02120135B6BF2E
:1012E30002120135CDBF02120135C3C0021201350E
:1012F3000FC1021201352BE10212013540E1021246
:101303000135F0E10212013530E20212013549E202
:10131300021201357CE202120135C9E202120135E3
:10132300FDE2021201353FE3021201353DE50212EF
:101333000135A3E5021201359F8603120135C686E6
:1013430003120135E386031201353F87031201358A
:101353002A880312013579D80112013530DC0112D4
:101363000135C2DD0112013519DE0112013538DE06
:1013730001120135B6DE0112013548E001120135D3
:101383002CE1011201353DE50112013511E601128F
:1013930001358083031201351F8503120135C08592
:1013A300031201356A860312013558A4031201356D
:1013B30076A40312013590A40312013504A6031287
:1013C3000135C0FF01120135D77F00E066701008B8
:1013D300A3E066700A08A3E066700408A3E066222F
:1013E300C3E7960809E7960809E7960809E79622EE
:1013F300C3E09608A3E09608A3E09608A3E096222C
:10140300C008C3E096F50808A3E096420808A3E0E5
:1014130096420808A3E09645087001D3D008220835
:101423000808EAC0E0EBC0E086F0E7A4FA180986F2
:10143300F0E7A42AFA180986F0E7A42AFA1809861D
:10144300F0E7A42AFA1986F0E7A4FBE5F02AFA19D3
:101453000886F0E7A42BFBE5F03AFA190886F0E7D3
:10146300A42BFBE5F03AFA18180986F0E7A4C5F0B7
:101473002BFBE43AFA1908E7C5F0C6A426F6E5F013
:101483003BFBE43AFA1886F0E7A4F6E5F00826F603
:10149300E43B08F6E43A08F6D0E0FBD0E0FA22E4B5
:1014A300CFC0E0E4CEC0E0E4CDC0E0E4CCC0E07562
:1014B300F020E626F608E633F608E633F608E633C8
:1014C300F6181818EC33FCED33FDEE33FEEF33FF63
:1014D300C3EC9709ED9709EE9709EF97191919408E
:1014E3000FFFEC97FC09ED97FD09EE97FE1919061E
:1014F300D5F0BFECF709EDF709EEF709EFF7191986
:1015030019D0E0FCD0E0FDD0E0FED0E0FF22601671
:10151300080808C6C313C618C613C618C613C618C8
:10152300C613C6D5E0EA2270090808082260161817
:101533001818C6C333C608C633C608C633C608C69A
:1015430033C6D5E0EA22E627F60809E637F60809A6
:10155300E637F60809E637F622E026F608A3E03672
:10156300F608A3E036F608A3E036F622E026F008F4
:10157300A3E036F008A3E036F008A3E036F022C378
:10158300E697F60809E697F60809E697F60809E6E6
:1015930097F622C3E096F008A3E096F008A3E0963E
:1015A300F008A3E096F022E056F608A3E056F6080A
:1015B300A3E056F608A3E056F622E056F008A3E0AF
:1015C30056F008A3E056F008A3E056F022E0F60830
:1015D300A3E0F608A3E0F608A3E0F622E6F008A3EA
:1015E300E6F008A3E6F008A3E6F022E0FAA3E0FBA6
:1015F300A3E0FCA3E0FD22E0F8A3E0F9A3E0FAA353
:10160300E0FB22E8F0A3E9F0A3EAF0A3EBF022CA9F
:10161300C0E0E6F0A308DAFAD0E0FA22CAC0E0E0BC
:10162300A3C582CCC582C583CDC583F0A3C582CCB7
:10163300C582C583CDC583DAE6D0E0CA22C3E49868
:10164300F8E499F91216818026C3E49AFAE49BFB25
:10165300E920E7E9121681E498F8E499F922C3E452
:1016630098F8E499F9121681E498F8E499F9C3E437
:101673009AFAE49BFB22EB20E7CFE920E7E0B900ED
:1016830010BB0008E88AF084F8AAF022E4FBC8FA49
:1016930022EB70227B10C833C8C933C9335007C348
:1016A3009AC3DBF280069A50012ADBEAC833F4C8F6
:1016B300C933F4C9FA2275F008E4C833C8C933C979
:1016C30033C99AC99B5004C92AC93BD5F0ECFBC85E
:1016D30033F4C8E4C9FA22600D08C6A2E713C6189A
:1016E300C613C6D5E0F322600C08C6C313C618C6DA
:1016F30013C6D5E0F422700422600D18C6C333C6A6
:1017030008C633C6D5E0F41822251810AF08F5181B
:10171300400C15198008F51840021519D2AF2200A4
:10172300C0D0251810AF08F518500C05198008F51E
:101733001850020519D2AFD0D0222518F58210AF68
:1017430008F518400C15198008F51840021519D230
:10175300AF851983222518F582E43519F5832225EF
:1017630018F8E43519F9222518FAE43519FB22256E
:1017730018FCE43519FD22E4732518C582C0E0E5A1
:101783001934FFC583C0E0E518C3958224F810AF70
:10179300088583198582188008858319858218D264
:1017A300AFCEF0A3E520F0A37808E608F0A3DEFAB5
:1017B300EFF0A3E58124FAF8E608F0A3E608F0A326
:1017C300E608F0A30808E608F0A3E608F0A31581ED
:1017D3001581D0E0FED0E0F8158115811581E8C0B0
:1017E300E0EEC0E0222518C582C0E0E51934FFC54C
:1017F30083C0E0E518C3958224F910AF08858319E7
:101803008582188008858319858218D2AFCEF0A30C
:10181300E520F0A37808E608F0A3DEFAEFF0A3E5ED
:101823008124FBF8E608F0A3E608F0A30808E6081D
:10183300F0A3E608F0A315811581D0E0FED0E0F80F
:1018430015811581E8C0E0EEC0E022851983851873
:1018530082E0A3FEE0A3F5207808E0A3F608DFFA10
:10186300E0A3FFE0A3C0E0E0A3C0E0E0A3C0E0E0AA
:10187300A3C0E0E0A3C0E010AF08858218858319F8
:101883008008858218858319D2AFD083D082020164
:1018930032851983851882E0A3FEE0A3F52078083A
:1018A300E0A3F608DFFAE0A3FFE0A3C0E0E0A3C0F3
:1018B300E0E0A3C0E0E0A3C0E010AF088582188594
:1018C30083198008858218858319D2AFD083D0828B
:1018D30022C0D02518C582C0E0E51934FFC583C0F6
:1018E300E0E518C3958224F310AF08858319858238
:1018F300188008858319858218D2AFC8F0A3E9F050
:10190300A3EAF0A3EBF0A37908E709F0A3D8FAEC74
:10191300F0A3EDF0A3EEF0A3EFF0A3D0E0F0A3D09B
:10192300E0F0A3D0E0F0A3E520F0A3E5F0F0A322DC
:10193300851983851882E0C0E0A3E0F9A3E0FAA348
:10194300E0FBA37808E0F608A3DFFAE0FCA3E0FDE0
:10195300A3E0FEA3E0FFA3E0C0E0A3E0C0E0A3E0B8
:10196300F5D0A3E0F520A3E0A3F5F010AF0885833D
:10197300198582188008858319858218D2AFD08291
:10198300D083D0E0F8D0E032740480067402800281
:101993007401C0E0F40412173DD0E0121612227451
:1019A30004800474028000CCC0E0EDC0E0E518C3FD
:1019B3009CCCAD1950011D10AF068C188D198006F3
:1019C3008C188D19D2AF12161FD0E0FDD0E0FC2287
:1019D300D083D082E9C0E0E493A3C386F0C5F09539
:1019E300F0F908E493A386F0C5F095F0700BE49347
:1019F300A3C3994005E9048002A3E475F002A4257A
:101A030082F582E5F03583F583D0E0F9E493A3C052
:101A1300E0E493C0E022D083D082ECC0E0EDC0E0EC
:101A2300E493A3FCE493A3FDED4C600D121A65EC63
:101A330024FFFCED34FFFD80EFE493A3FCE493A3C8
:101A4300FDED4C600D121AA4EC24FFFCED34FFFDF8
:101A530080EFD0E0FDD0E0FCE493A3C0E0E493C0CA
:101A6300E022C0E0C3E49396087401939618400FF4
:101A7300E49366700808740193661870007019A3E4
:101A8300A3C3E49396087401939618A3A3400DD0BF
:101A9300E0D0E0D0E0021A55A3A3A3A3A3A3D0E010
:101AA30022C0E0C0F088F0E49366700808740193E4
:101AB30066187000A8F0A3A3700BD0F0D0E0D0E0BC
:0C1AC300D0E0021A55A3A3D0F0D0E0221E
:101AD00074F61217E8EAFEEBFF8C088D09EE243449
:101AE000F8E43FF9E8FCE9FDEE2435121DE3FAEED7
:101AF0002437121DE3F88508F0A4C885F00A85098B
:101B0000F0A4250AF9EA28F8E439F97A257B0012CD
:101B10001681EA8C828D83F0FA131313541FF8EEAA
:101B200028F8E43FF9E8245DF582E439F583E0C064
:101B3000E074075AF8D0E0B800028004C313D8FC60
:101B4000A2E0EE50082434F582E43F8018243612D7
:101B50001DE3F5F0EA84A8F0EE28F8E43FF9E82464
:101B600038F582E439F583E0F97F0302189474F7BD
:101B70001217E8EAFEEBFFEE2434121DE3C0E0EE9C
:101B80002435F582E43FF583D0E0F08E828F83A385
:101B9000A3A3A3A3A3A3C082C0838E828F83A3A386
:101BA000A3A3A3E0F8A3E0F9D083D082E0C398F523
:101BB00008A3E099F509EE247F121DE36401703E4D
:101BC000EE2480F582E43FF583C082C0838E828F4D
:101BD00083A3A3A3A3A3E0240108A3E03400F9D0C6
:101BE00083D082E0687003A3E06970127CAF7D044B
:101BF000120BB8EE247FF582E43FF583E4F0AC08E5
:101C0000AD09EEFAEFFB121AD0E9F91228327F0281
:101C1000021894C082C083851882851983E0F8A3D6
:101C2000E0F9C3EA9CEB9D5010C3EC98ED99401B82
:101C3000C3EA98EB995014800EC3EA98EB994007D9
:101C4000C3EC98ED994004790180027900D083D0EB
:101C50008222EAC39CFAEB9DFB2274EF1217E890F4
:101C60000374E064086005E06407702A9061C8E0CE
:101C700060249003A2E0F4601DE0F875F00BA4C8A6
:101C8000AAF02AF974A428FE740339FF8E828F8388
:101C9000A3A3A3E07003021D68906060E0C0E0EEC3
:101CA0002468F582E43FF583D0E0F0750C1F750DD4
:101CB00005750800750900E5D914F50AE5D954033E
:101CC000F50E60127403650E6043E50A600AEE24A7
:101CD00067121DE37002807590051AE06401601FB1
:101CE000121DE060047A0480027A00E50AC39AFAC1
:101CF00095E0FB120A4A8A088B09EA450970051229
:101D00000DFE8064121DE070048A0C8B0DE50A60E4
:101D100012850C82850D83F50BE5D9F0A3150BE533
:101D20000B70F6121DE0604474FC250AF50A780C6D
:101D300012198FAC0AA90EEEFAEFFB120C727402A4
:101D4000121722E97026AA08AB09121230793D8ECB
:101D5000828F83A3A3A3A3E0FA7B001208ACEEFA60
:101D6000EFFB120BDC120C847900806F7403650E9C
:101D70006051850A10751100781012198FAC0CADE6
:101D80000DAA08AB09120C367402121722EE246851
:101D9000121DE364807004747F8001E0F50C780C00
:101DA000121993E50EF50C780C121993A90AAC08D8
:101DB000AD099003A2E0FA7B0012088274021217A8
:101DC000228013900374E06408600BAC0CAD0DEE40
:101DD000FAEFFB120CFC120E0A79017F0A0218942A
:101DE000EE2483F582E43FF583E02274F21217E8D3
:101DF00074FC12170CEAFEEBFF8909A2AFE433F57D
:101E000008C2AF021EB5E0601B780C12198FAC0B34
:101E1000A90EEEFAEFFB120C6C7402121722740476
:101E2000250BF50B7401250BF5D9850ED9E50B6053
:101E300018F50A850C82850D83E0F5D9A385820CFF
:101E400085830D150AE50A70EA75E195EE2463F8BD
:101E5000E43FF97A007B00A2AFE433F50BC2AF8810
:101E6000828983E0FCA3E0FDEC4D603A888289839F
:101E7000E0FAA3E0FB8A828B83E0FCA3E0FD88828A
:101E80008983ECF0A3EDF08A828B83E4F0A3F088E1
:101E9000828983E0FCA3E0FDEC4D700A888289838F
:101EA000A3A3E4F0A3F0E50BA2E092AF12123090EE
:101EB00004B6E004F0EE2463121DE3F8A3E0F9E8B1
:101EC000496064EE2463121DE32402F8A3E03400A9
:101ED000F988828983E5822402F50CE43583F50DC7
:101EE000E0F50BA3E0F50EEE2462121DE364017031
:101EF000369061D0E0F8121DE060047C0480027C22
:101F0000007480C398FA95E0FBE50B2CF8E43400EC
:101F1000F9E82402F8500109C3EA98EB99A2D265C6
:101F2000D0334003021E069004B6E0604D9004B723
:101F3000E0F89004B6E0C398500C74026509703A5A
:101F40009004B8E060348E828F83A3A3A3A3E085BE
:101F50001882851983121F8A7402121758E8121FFB
:101F60008A9004B5E028F07402121772AA18AB190F
:101F700079011208D69004B6E4F0E508A2E092AF29
:101F800074041217227F07021894F0A3E4F090045F
:101F9000B6E0F8228521878522C622C0E074EB12C4
:101FA00018D4A2AFE433F508C2AF759B00906182EC
:101FB000E0A2E05030E591A2E0502A7591FE740154
:101FC0006521702112212E120D4A12211C1219A214
:101FD0001225DC7404121722E964017005790112DC
:101FE0000D92121C5A906182E0A2E5505DE591A22B
:101FF000E550577591DF900374E064076005E06475
:1020000008702F12212E74016521703E120D4A12A4
:10201000211C1219A21225DC7404121722E9640192
:1020200070057901120D927901EEFAEFFB121DEBAA
:102030008018E0640D7013900396E004F06428703B
:1020400002E4F07A00E0F9120E10906182E0A2E65C
:1020500040030220F1E591A2E640030220F17591D0
:10206000BF900374E064057008120D32120D3E80BB
:1020700003120D38752100120D9EE9900375F07959
:1020800000120D92120B227A017B00900373E0F98B
:10209000121200907803E06442705690051EE0141E
:1020A000F0704EC2AF1220A800782AD0E0F618D007
:1020B000E0F6E59F5407F87005750DFF8003750D78
:1020C0007FC4C0E07829E6F50A08E6550DF50B74E3
:1020D0000B780A1216EAD0E0250AF8906270E0A2A6
:1020E000E740F8E8C333906272F0906270E0D2E0AB
:1020F000F0906181E0A2E35009E5E9A2E3500375A5
:10210000E9F7A3E0A2E75009E591A2E75003759132
:102110007FE508A2E092AF7F080219338E828F8399
:10212000E0F8A3E0C82416F582E438F58322900392
:10213000A2E0F875F00BA4C8AAF02AF974A428FE4E
:10214000740339FF22C0E0C0D0C082C08390618395
:10215000E0A2E05009E5BFA2E0500375BFFEE0A297
:10216000E15009E5BFA2E1500375BFFDE0A2E250D6
:1021700009E5BFA2E2500375BFFBE0A2E35009E509
:10218000BFA2E3500375BFF7E0A2E45009E5BFA288
:10219000E4500375BFEFE0A2E55009E5BFA2E550AA
:1021A0000375BFDFE0A2E65009E5BFA2E650037564
:1021B000BFBFD083D082D0D0D0E032C0E074F21262
:1021C00018D4E5A7A2E6500FE5A1A2E6500953A74F
:1021D000BF75A1BF12220FE5A7A2E5500CE5A1A291
:1021E000E5500653A7DF75A1DFE5A7A2E15009E599
:1021F000A1A2E1500375A1FDE5A7A2E2500CE5A163
:10220000A2E2500653A7FB75A1FB7F0102193374AC
:10221000F71217E8752101900374E0640670151237
:102220000CA88A828B83A3A3A3A3A3A3E0FAA3E0B1
:10223000FB120D20A2AFE433FED2AF90037AE0642C
:102240000170187A207B00900373E0F912131A7A58
:10225000207B00900373E0F9121206906182E0D2B5
:10226000E6F090051BE0602185C622801690037978
:10227000E064017008E5C654F84405F5C653BEFC99
:10228000121F947401652160E4EEA2E092AF7F0218
:10229000021894008E238F24858228858327851831
:1022A00082851983E0CEA3E0CF852882852783EB42
:1022B000C9EAC8EDCBECCA75F010C3E833C8E933FE
:1022C000C9EA33CAEB33CBC3EA9EF526EB9FF5256B
:1022D000B35004AB25AA26EC33CCED33CDD5F0DAE0
:1022E000AE23AF242274E91217E874FA12170CEA2D
:1022F000FEEBFF8C0A8D0B120D56EAF8EBF9ECFAA7
:10230000EDFB8E828F83121606900374E024F7C3D0
:102310009405500675140102244C120CA88A088BEF
:1023200009EA45097003022449EEFCEFFDAA18AB47
:1023300019120D50850882850983A3A3780C121504
:10234000D09080EA780C1215AA85188285198378B6
:10235000101215D09080EA78101215AA780C791016
:102360001213E3501F780C791012158290810678B1
:102370000C1214034047850C14850D15850E168527
:102380000F1780459081068510148511158512164A
:102390008513177814790C121582781412140350CF
:1023A0001C751400751500751600751701781479E1
:1023B000101215827814790C121549800C751401CD
:1023C0007515007516007517007409781412152A12
:1023D000908152780C1215D07814790C1214A285C1
:1023E0000882850983A3A3A3A3A3A312246A1216B8
:1023F00081880C890DE4F50EF50F7814790C12150F
:1024000049740412175812246A121681E8FA8A0CC9
:10241000E4F50D7814790C1213E350077814790C55
:10242000121582900374E06408600AE06406600597
:10243000E06405702090810A7814121403501690FD
:10244000810E781412155C800C75140075150075DA
:102450001600751700850A82850B8378141215DF24
:1024600074061217227F10021894E0F8A3E0F97A9C
:10247000D07B032274F71217E8120D68900519E05B
:1024800064017010906245E4F0A3F053F4F343FE4E
:102490000C5390F3120D0EE5C654B84441F5C6E551
:1024A0009E5447644170F8906185740FF090051751
:1024B000E0F47002A3E0604E900518E0600814603C
:1024C0001B14602E8040750801750900900517E007
:1024D00078081216F9E508F45280802A750801750B
:1024E0000900900517E078081216F9E508F45290F3
:1024F0008014750801750900900517E07808121618
:10250000F9E508F452A079007F0202189474F712DA
:1025100017E8E9FEEAFF120D6874016E700C7A800C
:102520007B00900373E0F91212009028DCE493F42E
:102530006008E493F9120B16800953C6B8E59E545F
:102540004770FA120D14900519E064017003120B24
:102550003A900517E0F47002A3E0604B900518E094
:10256000600814601A14602C803D7508017509001C
:10257000900517E078081216F9E508428080287562
:102580000801750900900517E078081216F9E508AA
:1025900042908013750801750900900517E07808CE
:1025A0001216F9E50842A0120CA88A088B09A8089F
:1025B000A909E8496014E5E170FCE82414F582E417
:1025C00039F583E0F46003E0F5E174016F700A7A95
:1025D00001900373E0F912128A02250874F11217B0
:1025E000E88A088B098C0A8D0B9080EA780812150E
:1025F000AA740F121758780C1215D09080EA780C34
:102600001215AA7808790C1213E3908106501078FD
:1026100008790C12158278081214034014800E7881
:102620000C7908121582780C121403500479018079
:102630000279007F0802189474ED1217E88A088B5B
:10264000098C0A8D0B9080EA78081215AA7413126F
:102650001758780C1215D09080EA780C1215AA78C9
:102660000C79081213E340117808790C121582AA2C
:1026700008AB09AC0AAD0B8022751000751100750E
:1026800012007513017810790C12158278107908F0
:10269000121549AA10AB11AC12AD137F0C0218949D
:1026A0009080EA78081215D08A828B8378081215F8
:1026B000BD7F0402189474F51217E88C828D83781C
:1026C000081215D08A828B83780812159612270E6D
:1026D000C3E09CF0A3E09D122700402290812E7859
:1026E000081215D08A828B83780812156F8A828B24
:1026F00083A3A3A3A3E02420F0A3E0344EF080A0A2
:10270000F088828983C3E09420A3E0944E22EA24D7
:1027100004F8E43BF98C828D83A3A3A3A3E0FCA37C
:10272000E0FD888289832274F51217E8E9FE90049F
:10273000D1E0FAA3E0FBEE29F8E433F9749128F52F
:1027400082748039F583E02AF508A3E03BF5097827
:102750000812198F90812A1215EE12229474021217
:1027600017228A088B098C0A8D0B741078081215B1
:1027700011AA08AB097F0402189474F11217E88AB1
:102780000C8B0D8C0E8D0F74111217581219A67424
:1027900011121758E02401F508A3E03400F509E40C
:1027A000F50AF50B780C790812142290811A780832
:1027B0001215D0780C7908121422AA0CAB0DAC0EAD
:1027C000AD0F12229474021217228B09EA45096098
:1027D000047A0180027A00EC2AFCE43DFD741312B5
:1027E0001758E0F8A3E0F9E8FEE9FFECF8EDF97A14
:1027F000717B0212168188088909E4F50AF50B8EAF
:10280000828F8378081215DFECF8EDF97A717B027C
:102810001216818A088B09740578081216F98E82BF
:102820008F83A3A3A3A3E508F0A3E509F07F080223
:102830001894C082C083E9906000F0D083D08222D7
:10284000C0E074F21218D4A2AFE433FED2AFE5892F
:10285000A2E1500312113A758900C2C5751A00EE43
:10286000A2E092AF7F01021933C0E074F21218D4D3
:10287000A2AFE433FED2AFE58BA2E0500312113ACF
:10288000758B00C2E880D5C0E0C0D0E8C0E0E9C0E8
:10289000E0A9A8D2AFC2C7751A00E9A2E7E433F8ED
:1028A000E9A2E792AFD0E0F9D0E0F8D0D0D0E032A2
:1028B000C2AF02000022C0E0C0D0C082C083E5AF3A
:1028C000A2E0500C90153BE02401F0A3E03400F0AE
:1028D000D083D082D0D0D0E032020132FFFFFFFFA0
:1028E000FFFFFFFFC082C083E9901600F0D083D0C5
:1028F0008202013274F612177CE99002E6F090032E
:1029000046E0F508750900740278081216F9AA085D
:10291000AB091212729002E712327A9002E7123675
:1029200067606F900346E075F003A4FAABF01212F3
:102930007290030412327A900304123667700B907F
:1029400002E7123638121278804890030412457B51
:102950007AFF7BFF1210B67A0080198A0875090089
:10296000740278081216F912407474FF122AA7E450
:10297000F0A3F00A900346E0F8EAC39840DD790539
:102980001207689002E6E0F912065A7AE67B07120F
:1029900009EA02411774F412177C8A088B09EB5478
:1029A0008060479002E6E0F91211E88A0A8B0BAECC
:1029B0000AAF0BEE4F602A8E828F83E064B0701AEC
:1029C000120774E960148E828F83A3A3A3A3E0F996
:1029D000EE2405FAE43FFB12074AEEFAEFFB121170
:1029E000D6AA08E5096480FB80047A007B00022BEC
:1029F000CA74F212177C74FB12170CEAFEEBFFEE9E
:102A00004F60457403121758EEF0A3EFF08518825B
:102A1000851983ECF0A3EDF07402121758E9F0AABF
:102A200018AB19120654E9F508707574131217588B
:102A3000E0F50AA3E0F50BE50A450B60638E828F93
:102A400083123003EE4F700575080280537A067BBF
:102A5000001212728A0C8B0DA80CA90DE8497005A2
:102A6000750813803B88828983E4122AA7EEF0A3BD
:102A7000EF122BC3E50AF0A3E50BF09002EA122B4C
:102A8000BC9002EA6017E0FCA3E08003EAFCEBFDE7
:102A90008C828D83122BBC70F38C828D83123C8FC1
:102AA000A90874050247FBF0A312455DA32274F246
:102AB00012177C8908890C750D007403780C1216A6
:102AC000F9850C0A850D0B9002E9F09002E7123AA5
:102AD0009A122BBA602E1212787900801D890C751B
:102AE0000D007402780C1216F99002E7123F338839
:102AF00082F583A3A3E4F0A3F009900346E0F8E98C
:102B0000C39840D9900346E0FA850AF0A4CAA8F019
:102B1000850BF0A428FB1212728A0C8B0DAE0CAF41
:102B20000DEE4F7003022BB0900346E0FC850AF0D7
:102B3000A4CCA8F0850BF0A428FD79001211C47C68
:102B40000080318D0C750D007403780C1216F98A13
:102B5000828B83122BB588828983E4F0122BC2A367
:102B6000A3F0A3F00DEDC3950840D8EE250AFEEFC3
:102B7000350BFF0C900346E0F8ECC39850288C0C02
:102B8000750D007402780C1216F99002E7122BB53D
:102B9000E82402500109FAE9FB8A828B83EEF0A354
:102BA000EFF07D0080BFE5089002E9F07900800237
:102BB00079130247FE123F37F922A3A312363CEAEB
:102BC0004B22A312455DA3A3A3227F0402184EC08B
:102BD00082C0839002EA123667601C88828983A3D0
:102BE000A3E06A7003A3E06B8882898370E8A3A3E3
:102BF000A3A312363880047A007B000228ED74F219
:102C000012177C74FD12170CEAFEEBFF8518828503
:102C10001983E4F0A3F074021217587401F012360D
:102C20006470141209241212729002ED12327A1298
:102C300036647003022D9012337AEE2404F50AE410
:102C40003FF50B850A82F583E024FE603C24FC609E
:102C50007424FE607E24FE7003022CE024FE7003C8
:102C6000022CED24FE7003022CFA24FE7003022DC8
:102C70000724FE7003022D1424FC7003022D35245A
:102C8000FE7003022D4D022D891209249002EFEAF5
:102C9000F0A3EB122D9C1203B4E96003022D89907E
:102CA00002EF1219A68E828F83A3A3A3A3A31245BA
:102CB0007B85088285098312363812073274021226
:102CC0001722022D89AC18AD19EEFAEFFB12077A24
:102CD000022D58AC18AD19EEFAEFFB120780807880
:102CE000AC18AD19EEFAEFFB120786806BAC18AD8D
:102CF00019EEFAEFFB12078C805EAC18AD19EEFAF4
:102D0000EFFB1207928051AC18AD19EEFAEFFB12EF
:102D1000079880447402121762880C890D780C128F
:102D2000198F7402121772EEFAEFFB12079E7402EB
:102D30001217228023AC18AD19EEFAEFFB1207A48C
:102D4000E9F870167402121758E4F0803CAC18AD24
:102D500019EEFAEFFB1207AAE9F8E8602C8E828FD1
:102D600083A3E064146022850A82850B83E09002CD
:102D7000EFF08518828519831236389002F01232EE
:102D80007AE8A3122D9C1203AEEEFAEFFB120708AD
:102D90007402121758E0F974030247FBF07CEF7DD0
:102DA0000285088285098312363C2274E812177C5A
:102DB00074FA12170C7404121758ECF0A3EDF08A91
:102DC000128B13EA2405F50EE43513F50FEA2402FD
:102DD000F510E43513F511851082F583123638129B
:102DE000049E8A0A8B0B7508007C037D0079007AAB
:102DF000EF7B021211C4E50E2402F516E4350FF53F
:102E0000177402121762880C890D780C12198F85BD
:102E10000E82850F83A3A3A3A3E0F50C750D0078A4
:102E20000C12198FE50E2405F50CE4350FF50D781D
:102E30000C12198F85168285178312393F1206727C
:102E400074061217228A0C8B0DE50C450D700302D7
:102E50002FCC8020851882851983E088828983F0B1
:102E60000508851882851983A3E0C0E012300DD0D3
:102E7000E0F00508E50A24FBFAE50B34FFFBC3E5A7
:102E8000089AE49B4003022FCC7E007F00851282CB
:102E9000851383A3A3A3A3E0F5097809121993E48A
:102EA000F514F515781412198F7514EC7515027850
:102EB0001412198F9002ED1219A6740912175812E4
:102EC00019A6E50A24F9F9AC0CAD0D85108285111F
:102ED000831236381207CE7409121722E9600302F2
:102EE0002F6D850E82850F83A3A3A3A3A3A3A3E0C5
:102EF000F89002ECE0687075E0F5148E1578141205
:102F0000198F124578850E82850F83A3A3A3A3A3EF
:102F1000A3A3A31236381211BE7402121722E9605D
:102F20004C9002F0123667703BE4F51478141219D5
:102F30008F7CFF7DFF7907851082851183123638DB
:102F4000120744740212172212366D7017850E8212
:102F5000850F83124715740412175812402712392F
:102F600070023000850C82850D83123003A818A9E9
:102F70001988148915781412198F740412175812AD
:102F800019A685168285178312327012067E740484
:102F90001217228A0C8B0DEE4F7003022E4912304D
:102FA0000DEE123018123926EF123018F8A3E03463
:102FB00000F9E50C450D6003022E54888289837464
:102FC000FFF0050812300D74FFF00508E508601ADF
:102FD0001313543F1232801203C0E960099002F0CB
:102FE00012363812123079008016850E82850F83D2
:102FF0001247157404121758124027123C8F790A91
:103000000238F9A3A3A3A3E0FEA3E0FF22A808903F
:1030100002F0E02812392622F00508089002F0E0BC
:10302000282274E812177C74FA12170C7402121713
:103030005812327A7404121758ECF0A3EDF07402AF
:10304000121758E0240512390FE0F50CA3E0F50D36
:103050007402121758E02402F510A3E03400F511B1
:10306000851082F58312363812049E7508007509A2
:1030700000EA24FCFEEB34FFFF8008050CE50C7031
:1030800002050DA808C3EE98EF9400500302322CFD
:10309000A818A919880E890F780E12198F85148225
:1030A000851583A3A3A3A312457F12198FE51424CA
:1030B00005F50EE43515F50F780E12198F8514827B
:1030C00085158312326E12067274061217228A0E4A
:1030D0008B0FEA450F700302322CEA2404F516E444
:1030E000350FF517851682F583E0F50CA3E0F50D95
:1030F00085188285198312457B8A828B83A3A3A3BB
:10310000E0F9851082851183123638120660E9F5E0
:1031100009600302322C7402121758123936F5096D
:103120007809121993E4F512F513781212198F75B4
:1031300012EC751302781212198F9002ED1219A673
:1031400074071217581219A6EEF9AC0EAD0F8510C0
:10315000828511831236381207CE7409121722E9BC
:10316000F509600302322CE508703FE4F50EF50F17
:10317000780E12198F7CFF7DFF79098510828511E9
:1031800083123638120744740212172212395C7007
:103190000D740412175812326379110232609002D2
:1031A000ECE024029002F0F080149002F0E0FA903B
:1031B00002ECE0790024025001096A497072A80803
:1031C0009002ECE0FAE82AFAE43400FBEE9AEF9B76
:1031D000405A851682851783E0C0E09002F11230D4
:1031E00012D0E0F00508851682851783A3E0C0E0C1
:1031F000089002F1123012D0E0F005089002EC12B3
:10320000457F12198F124578A8081239031211ACA4
:1032100074021217229002ECE02508F50874FF658D
:103220000C700474FF650D600302307BE508601FBD
:103230009002F0E0F5F0E508841232801203C6E94E
:1032400060099002F112363812123079008011E5CF
:1032500009700375090A7404121758123263A90918
:103260000238F9123A9EE50CF0A3E50DF022A3A373
:1032700012480AAA0CAB0D22A3A3EAF0A3EBF0229A
:103280009002EFF07CEF7D0285108285118312366B
:103290003C2274EC12177C74FC12170C123D9F74C4
:1032A000021217721236321206788A0C8B0DEA451A
:1032B0000D700302336A12337AA818A9198810898D
:1032C00011781012198F7CFF7DFF790B850882859C
:1032D000098312363812074474021217221234700E
:1032E000700C850A82850B8312396D0233778E82CA
:1032F0008F83A3A3A3A3E0F5127812121993E4F528
:1033000012F513781212198F7512EF7513027812D5
:1033100012198F781012198F74091217581219A6E2
:103320007409121758E0F9AC0CAD0D8508828509B7
:10333000831236381207CE7409121722E9FE70156F
:103340007CEF7D028508828509831236381203CC12
:10335000E97009802074166E70027E009002F012EF
:103360003638121230EE7004800B7E01850A828599
:103370000B83123C8CEEF9023CA1EE2402F508E42A
:103380003FF5092274EC12177C74FC12170CEAFE4C
:10339000EBFF8C0E8D0FEE2405F508E43FF5097464
:1033A0000212177285088285098312363812067850
:1033B0008A0C8B0DEA450D7003023460EE2402F591
:1033C0000AE43FF50BA818A9198810891178101282
:1033D000198F7CFF7DFF790D12363212074474027B
:1033E000121722123470700B8508828509831239F6
:1033F0006D807A8E828F83A3A3A3A3E0F512781247
:10340000121993850882850983A3A31219A6751240
:10341000EF751302781212198F781012198F740930
:103420001217581219A67409121758E0F912362EFD
:103430001207CE7409121722E9FE700F7CEF7D028D
:103440001236321203D2E97009802074166E7002AF
:103450007E009002F0123638121230EE7004800BAB
:103460007E01850882850983123C8CEEF9023CA11D
:10347000123677F510A3E0F511EA45112274E8122F
:10348000177C74FE12170C8A168B178C148D15EA94
:103490002405F50CE43517F50DEA2402F50EE435A4
:1034A00017F50F850E82F58312363812049E8A08AE
:1034B0008B09750B007C037D0079007AEF7B02128B
:1034C00011C4750A00E50814F5100424FFF508E599
:1034D0000934FFF50980549002EFE0FA9002ECE025
:1034E000F8EA28F8E43400F9E50898E50999500D60
:1034F0009002EFE0F8E510C3989002ECF0E0F512CE
:10350000751300781212198F1245789002F0E02A94
:10351000FAA3E03400FB1211AC74021217229002DD
:10352000ECE0F89002EFE028F0050A850C82850DAA
:1035300083A3A3123F4340030236139002EFE0C37C
:103540009508E495094003023613AE0AEE2EFEE418
:1035500033FF123652AC18AD19124593E439FB1201
:1035600006788A128B13AC12AD13EC4D701B750BE1
:1035700001123642123C909002F0122BBC600312F2
:103580001230A90B74020238FB851682851783A3BB
:10359000A3A3A3E0F50B780B121993E4F512F5132E
:1035A000781212198F7512EC751302781212198F96
:1035B0009002ED1219A674071217581219A6A91035
:1035C000850E82850F831236381207CE74091217C2
:1035D00022E9F50B709B9002F0123667600302340B
:1035E000D7E4F512F513781212198F7CFF7DFF795D
:1035F0000F850E82850F831236381207447402122B
:10360000172212366D60030234D712364212397116
:103610000235847CEF7D02850E82850F8312363859
:103620001203D8E960030235777900023584AC0CC7
:10363000AD0D850A82850B8312363C22E0FAA3E0A9
:10364000FB22123652E0FAA3E0F9EA8514828515CE
:103650008322850C82850D83E02EF8A3E03FF98854
:10366000828983229002ED124719E84922123677A7
:10367000F8A3E0F9E849229002F0EAF0A3EBF09019
:1036800002F0E02274E812177C74FA12170C74042A
:1036900012175812327A8C168D177404121758E0CC
:1036A0002405F50EA3E03400F50F7404121758E05A
:1036B000240212390F12363812049E8A0A8B0B7FAD
:1036C000007E00A818A91988088909780812198F9E
:1036D000850E82850F83A3A3A3A3E0F5088E097846
:1036E0000812198FE50E2405F508E4350FF5097861
:1036F0000812198F850E82850F83A3A312393F12FA
:10370000067274061217228A0C8B0D80291239302A
:10371000F00F123930F00F9002EC123C7B12198F2F
:10372000124578EFF81239031211AC740212172205
:103730009002ECE02FFFE50C450D70030237BF85CA
:103740001882851983123DB1A3A3A3E0F9851482E1
:10375000851583123638120660E9FEE50C2404F55F
:1037600010E4350DF511EE7050740412175812392B
:1037700036F5087808121993E4F508F50978081267
:10378000198F7508EC750902780812198F9002EDEF
:103790001219A674071217581219A6E50A24FAF985
:1037A000AC0CAD0D8514828515831236381207CE08
:1037B0007409121722E9FE603912394C123C8FEF5E
:1037C00070030238E69002F0E0F5F0EF849002EF2B
:1037D000F07CEF7D02851482851583123638120342
:1037E000DEE960099002F1123638121230790002D7
:1037F00038F98F08EF703BE4F512F51378121219BF
:103800008F7CFF7DFF7911851482851583123638F0
:10381000120744740212172212395C700912394CD3
:103820001239700238F99002ECE024049002F0F0B2
:1038300080359002ECE0F89002F0E0FAE82404FC15
:10384000E43400FDEC6A4D60030237C5E50A24FA52
:10385000FAE50B34FFFBE50828F8E43400F9EA98B0
:10386000EB9950030237C5851082851183E0C0E0D3
:103870009002F1E02FF8A3E034008882F583D0E0D5
:10388000F00F851082851183A3E0C0E012391DD0AE
:10389000E0F00F740212176288088909780812197B
:1038A0008F74021217581219A6850E82850F831283
:1038B000326E12067E74041217228A0C8B0DEA45B2
:1038C0000D700302370D7402121758E0C0E0123970
:1038D0001DD0E0F00F7402121758A3E0C0E01239B7
:1038E0001DD0E0023715EE70027E0A850E82850F2C
:1038F00083123952123C8FEEF974061217227F1090
:1039000002184E9002F1E028FAA3E03400FB22F501
:1039100014A3E03400F515851482F58322123921B1
:10392000229002F1E02FFAA3E034008A82F583228C
:1039300012392174FF22123A9EA3A3A3A3E02212FC
:10394000480A850E82850F8312363C2285108285B7
:103950001183124719851682851783229002F1EA96
:10396000F0A3EBF09002F1124719E84922123C95BE
:10397000E8F0A3E9F079112274EA12177C74FE12C0
:10398000170C8A088B098C128D13EA2405FEE43586
:1039900009FFAC18AD198E828F8312363812067863
:1039A0008A0C8B0DEE2406F50EE43FF50FEA450D6B
:1039B0007003023A70E5082402F50AE43509F50BB4
:1039C0008A828B83A3A3A3E0A2E550288518828571
:1039D00019831236381207C88A108B11EA45116014
:1039E00020791212362E85108285118312177AE9FA
:1039F000F50C707F850E82850F83E0600979528017
:103A000011750C0E806D850882850983A3A3A3A37D
:103A1000E0F9E4F508F509780812198F8E828F8392
:103A2000A3A3E0F508780812198F8E828F83A3A3D1
:103A3000A31219A68E828F8312457B12363212078B
:103A4000D47406121722E9F50C7011850E82850FC9
:103A500083E0702D1236321203E480257416650C53
:103A60007011750C007418121758123A9AE48010ED
:103A7000750C01124711851282851383E8F0A3E9C2
:103A8000F0850E82850F83E0600479008002A90C26
:103A900074021217227F0E02184E123A9E22E0F88C
:103AA000A3E0F58388822274EC12177C74F7121756
:103AB0000C8A0A8B0B8C108D11EA2405FEE4350B61
:103AC000FF750C00AC18AD198E828F831236381238
:103AD00006788A088B09EA45097003023C66E50A04
:103AE0002402F50A5002050B8A828B83A3A3A3E06C
:103AF000A2E5502F8518828519831236381207C81F
:103B00008A0C8B0DEA450D604F7912AC08AD091295
:103B10003632850C82850D8312177AE9F50C600325
:103B2000023C69850A82850B83E0F508A3E0F5096C
:103B3000AA08FB1207BCEA4B70197AFF7BFF120739
:103B4000BCEA4B7003023C5C8A828B83E508F0A3DD
:103B5000E509F07508008008750C0E023C6905083F
:103B60009002E9E0F8E508C3984003023C5C850850
:103B70000E750F007403780E1216F98A828B83A3D8
:103B8000A3E0250EF8A3E0350F12403070D08E82EE
:103B90008F83123C8412327A8E828F83A3A3123CCD
:103BA00084123278EE2404F508E43FF50985088292
:103BB000F583E088828983A3A3A3A3F0A3E4F0EEB6
:103BC0002405F50EE43FF50F850E82F583123C8443
:103BD000A3A3A3A3123278751207751300781212EB
:103BE000198FEEFCEFFD740412176A1211AC740207
:103BF000121722E4F512781212198F8508828509AE
:103C000083E0FC7D007917123632120744740212E9
:103C10001722740712175812327A7407121758E0D5
:103C2000FA4B603D850882850983123C7B12198F0F
:103C3000850E82850F8312457B1211AC7402121718
:103C40002274021217721236321203EAE9602674E5
:103C5000071217581236381212308019750C098065
:103C600008750C118003750C0112471185108285AF
:103C70001183123C8FA90C74098028E0F50875099E
:103C80000078082212363C8882898322123C95E80B
:103C9000F0A3E9F022E0F8A3E0F9850E82850F8316
:103CA0002274041217227F0C02184E74EC12177C37
:103CB000123D9F751000EE2402F50CE43FF50D85D2
:103CC0000C82F5831236381207BC8A088B09EA4544
:103CD000097003023D83850A82850B83E0640160DD
:103CE00003023D78AC08AD09AA0AAB0B1207B0E994
:103CF000606E850882850983123005EE2406F50A78
:103D0000E43FF50B8E828F83A3A31219A68E828FB8
:103D100083A3A3A3A31219A6850A82850B83121974
:103D2000A679188E828F83123DB11236381207D4CD
:103D30007406121722E9F8741668700B850A8285DA
:103D40000B83E4F0A38014E860128E828F83123616
:103D500038850E82850F83EAF0A3EBF08810801877
:103D6000780E12198FAC08AD09EEFAEFFB1207B608
:103D70007402121722E9F510AA08AB091207C2E56E
:103D800010700E850C82850D831236381203F08078
:103D900009741665107003751000A910023CA6EA9C
:103DA000FEEBFF8C0E8D0FEE2405F50AE43FF50BBC
:103DB0002212480A850C82850D832274EA12177C30
:103DC0007508007509007E007F00750A00EC24026A
:103DD000F510E43DF5118035EC65087003ED6509DB
:103DE0006003023E7088828983A3A3E06A7003A304
:103DF000E06B707C88828983A3A3A3A3124715EE8E
:103E000028FEEF39FFEA28FAEB39FB050A123F409A
:103E1000503A850A0C750D007403780C1216F9855A
:103E20001082851183123F33124030601FE5084530
:103E30000970A58C088D09888289831230038882D5
:103E40008983A3A3E02EFAA3E03F80BEE50AC394D2
:103E5000025003023F2E750800750900EE4F6010F6
:103E6000EEFAEFFB12122A8A0E8B0FEA450F70054D
:103E70007900023F30750B00023F03850B0C750D76
:103E8000007403780C1216F9851082851183E025E1
:103E90000CF50CA3E0350DF50DE50C2406F514E446
:103EA000350DF515851482F5831240356042E50C19
:103EB0002404F512E4350DF513851282F5831219E9
:103EC000A6E50E2508FAE50F3509FB1211AC7402C0
:103ED000121722851282851383E02508F508A3E0D6
:103EE0003509F5098514828515831236381212308A
:103EF000E50B600D7C087D007900AA0CAB0D12115A
:103F0000C4050BE50BC3950A5003023E7B85108266
:103F100085118312471588828983A3A3A3A3A3A332
:103F2000E50EF0A3E50F122BC3EEF0A3EFF079013D
:103F3000023A95123F3722E0250CF8A3E0350D2216
:103F40009002E9E0F8E50AC3982274F012177C8A1F
:103F50000E8B0F8C0A8D0B750D00750C008050793F
:103F600016EE2406F508E43FF5098E828F83A3A39D
:103F70001219A68E828F83A3A3A3A31219A6850864
:103F8000828509831219A6850E82850F83A3A31249
:103F900036381207D47406121722E9F50D74166527
:103FA0000D706C850882850983E4F0A3F0050C9000
:103FB00002E9E0F8E50CC3985066AA0C8A08750976
:103FC00000740378081216F9850A82850B83A3A36F
:103FD00012407FE8FEE9FF8E828F831240356040F9
:103FE000EA2401F508E43400F5099002E9E06508E7
:103FF0007002E509601488828983A3A3A3A3A3A305
:10400000A3A31236676003023F5F7918023F61E99C
:10401000609B1247117410121758124027123C8FE0
:10402000A90D7F0802184EE0FAA3E0F5838A8222E8
:10403000F98882898312480AEC4D2274F612177CA3
:104040007C0080010C900346E0F8ECC398501E8C75
:1040500008750900740278081216F9124074E06AB3
:104060007003A3E06B70DDE8FAE9FB80047A007B63
:10407000000241179002E712407F8882898322E084
:104080002508F8A3E03509F92274F212177C8A0892
:104090008B09750A0080278E828F83A3A3A3A312A6
:1040A0002BBA60031212307C087D007900EEFAEF23
:1040B000FB1211C48E828F83E4F0A3F0050A123F35
:1040C000405027850A0C750D007403780C1216F900
:1040D000850882850983A3A3E0250CFEA3E0350DA6
:1040E000FF8E828F8312366770AD850882850983C3
:1040F00074FFF0A3F00247FE74F612177C12076EED
:104100008A828B83E582458370067A007B00800774
:10411000A3A3A3A31236387F0202184E74E8121725
:104120007C74FB12170CE9851882851983F08A16B6
:104130008B17ECFEEDFF7510008E828F83A3A3A377
:10414000E0A2E4502D741D1217581236381207C819
:104150008A828B83E58245837003024553790AEE98
:10416000FCEFFDAA16AB1712177AE9F510600302EF
:104170004556741F121758E0F508A3E0F50974219D
:10418000121758E0F50AA3E0F50B7423121758E054
:10419000F50EA3E0F50F8E828F83E06402600302C8
:1041A00044F4A3124715850882850983A3858212EA
:1041B000858313EE2406F50CE43FF50D8882898390
:1041C000124593F514E439F5157814121A19010003
:1041D00000280128F64107000228BB420328294293
:1041E0000029EA43012915440229B6430329EA4379
:1041F00004298E44F444E50E450F60030244EF8524
:104200000C82850D83124715E8FAE9FB8A828B83BD
:10421000E0850A82850B8312459E12198F8A828B54
:1042200083A3E0FCA3E0024478E50E450F6003029F
:1042300044EF850A82850B837401F0124588850856
:1042400082850983F07C007D008E828F83A3A3A3E7
:10425000A3E02401FAA3E03400FB120678EA4B60E5
:10426000408A828B83E02402F8850A82850B83E0F2
:1042700028F0EA2404F8E43BF988828983E0851277
:10428000828513831245AC12459E12198F8A828B48
:1042900083A312457BE5082403FAE43509FB0244B5
:1042A0007D850A82850B83E02404F07C047D0079FF
:1042B00000AA12AB131211C4024556E50E450F6059
:1042C000030244EF124588FEA3E0FF850A82850BB6
:1042D000837404F0EE850882850983F0EF851282ED
:1042E000851383F07403121772EEFAEFFB1206784F
:1042F0008A0C8B0DEA450D70030243998A828B83E9
:10430000A3A31230037401121762880E890F780E6E
:1043100012198F74051217581219A67CFF7DFF120F
:10432000067E74041217228B0FEA450F7033850C3A
:1043300082850D8312457F12198F850C82850D832E
:10434000A31219A67C027D007A6D7B8112048C7405
:1043500004121722E9700A740112175874FFF0A3AF
:10436000F08E828F83E064027039750C02750D0047
:10437000780C12198F8E828F83A312457BE5082457
:1043800004FAE43509FB1211AC7402121722850AF3
:1043900082850B83E0240280097401121758EEF025
:1043A000A3EFF0740112175812456D7401121758DB
:1043B0001245640244E9E50E450F60030244EF85AF
:1043C0000C82850D83124803AA16AB171210C28502
:1043D0000A82850B837402F0850882850983EAF0DE
:1043E000851282851383EB0244ECE50E450F6003D2
:1043F0000244EF124588F8A3E0F9850A82850B8311
:104400007402F0E8850882850983F0E985128285C7
:1044100013830244EC850C82850D83123638121109
:10442000A6EAFAF8C3950EE4950F405CE8650E45E0
:104430000F70047A008021851882851983E0FCE5DD
:104440000E2CFCE4350FFDC3EC98ED94005003E016
:104450008005E50ECAC39AFAEA850A82850B83F0C5
:104460008A0A750B00780A12198F850C82850D83D4
:10447000E0250EFCA3E0350FFDAA08AB091211AC34
:104480007402121722024556751007024556E50EB2
:10449000450F705B850C82850D83124715850A8256
:1044A000850B837407F08882898312456512455D08
:1044B000E0851282851383F0E82402FAE439FB8A4E
:1044C000828B8312456D8A828B83124564A3A3126B
:1044D0002BC2124572F0E82405F850010988828940
:1044E00083124572A31245ACA3A3A3A3F080677502
:1044F000100B8062741D12175812363812076E8A1C
:10450000828B83E5824583604A124715880C890DAA
:10451000E8450D603E7425121758E0F5107810122A
:104520001993780E12198F780A12198F78081219B8
:104530008F7407121758E0F9EEFCEFFDAA16AB17BF
:10454000850C82850D8312177A7407121722E9F5FC
:1045500010800375100EA91074050238FBF08882D4
:104560008983A322A3E0850882850983221245B3AB
:10457000F0221245B3A3A3229002ED12480A22E0D2
:10458000F50E750F00780E22850C82850D83123A88
:104590009EE022E0FAA3E0F8E4C8F9EA2822F08AD3
:1045A000828B83E0F50A750B00780A2212455D12B2
:1045B00045B322E0850882850983A3A32274EE1205
:1045C000177C74FE12170C8A088B09ECFEEDFF892C
:1045D0000AAC18AD19EEFAEFFB1206788A0C8B0DB7
:1045E000EA450D70030246A58518828519831236A7
:1045F0003812076E8A828B83E582458370030246F8
:10460000A0A3A3124715880E890FE8450F70030277
:1046100046A07414121758E0F510A3E0F511E50A4E
:10462000F50B780B12199374191217581219A678F2
:104630001012198F741B121758E0F9AC0CAD0DAAAB
:1046400008AB09850E82850F8312177A740512173D
:1046500022E9F50B705274FE650A604C850C828568
:104660000D83E0640270411246B4FAA3E0F9EAF85F
:104670007402687003742969702E85108285118315
:10468000124593F50CE439F50D780C12198FEEFCF8
:10469000EFFDAA08AB091207EC740212172280087A
:1046A000750B0E8003750B01A90B74021217227F84
:1046B0000A02184EA312471988828983E02274F6F1
:1046C00012177C74FE12170C740C1217581247152F
:1046D000E8851882851983F07401121758E9F0E40F
:1046E000F508F509780812198F750802780812196B
:1046F0008F740412176288088909780812198F7953
:10470000FE1207D4740612172274021217220241F5
:10471000178E828F8312471922E0F8A3E0F92274E2
:10472000F712177CEAFEEBFF890890030412457B21
:104730001210C2EA5402600BA908EEFAEFFB12064F
:104740006C800279017F0102184E74F212177C749A
:10475000FE12170CEAFEEBFF890A7401650A601469
:104760007402650A60030247F97901120A08E960D8
:10477000030247F9EEFAEFFB1207BCEA4B600312A3
:1047800007C2A818A91988088909780812198F750D
:104790000802750900780812198F75086775098174
:1047A000780812198F7CFF7DFF7A017B0012067258
:1047B00074061217228038850882850983A3A3A373
:1047C000A3A3A3124803EEFAEFFB1210B6E4F50C14
:1047D000F50D780C12198F74021217581219A67C55
:1047E000FF7DFFAA08AB0912067E74041217228A05
:1047F000088B09E508450970BE74021217227F066E
:1048000002184E123A9E12480A22E0FCA3E0FD2252
:1048100074F412177C8A088B09ECFEEDFF901600E9
:10482000E0F4604B7A097B001211D0EA4B60408AB9
:10483000828B8374B1F0A3E4124872F08A828B8376
:10484000A3A3E508F0A3E509124872A3EEF0A3EFD5
:10485000F0740C1217581247158A828B83A3A3A3F6
:10486000A3A3A3A3123C8F901600E0F91211DC025F
:104870002BCAF08A828B83A3A3A3A32274F01217FE
:104880007C74FA12170C8909ECFEEDFF7508008A9A
:104890000A8B0B780A1219D3000410A24ABF48DD14
:1048A00048F7480F492D494549684980499449BE10
:1048B00049394A4A4A614A7C4AA24AA24AD44974BE
:1048C0000165096003024A9D8E828F83E0F8C394DC
:1048D000034003024A9DE8901623024A7974026558
:1048E000096003024A9D8E828F8312520090162423
:1048F000E8F0A3E9024A79740165096003024A9D60
:10490000124ACA4003024A9DE8900747024A797456
:104910000165096003024A9D8E828F83E0F8C3948B
:10492000054003024A9DE8900748024A79740165F0
:10493000096003024A9D124ACA4003024A9DE89058
:104940000749024A79741065096003024A9D750A95
:1049500010750B00780A12198F7A4A7B071211AC76
:104960007402121722024AC3740165096003024AE5
:104970009D124ACA4003024A9DE890075A024A79AA
:10498000740165096003024A9D8E828F83E0901650
:1049900027024A79740465096003024A9D8E828F5A
:1049A00083780C1215D090812A780C1214035003CE
:1049B000024A9D90075C780C1215DF024AC3E96039
:1049C00003024A9D120624E9700512107A80559060
:1049D00007EF8061740765096003024A9D750A0646
:1049E000750B00780A12198F8E828F83A3AC82AD6B
:1049F00083740212176A1211B274021217227C0019
:104A00007D00AA18AB198E828F83E0F9121026E977
:104A1000FEC3940A4003024AC0120624E9700CEE59
:104A2000F912108079501212F0806D74F02EF58218
:104A3000E43407F5837401804074016509705E12E7
:104A40004ACA5059E890075B802F74016509704D80
:104A50008E828F83E0F8C3940A5042E89016268035
:104A6000187401650970368E828F83E0F874F92816
:104A7000C3940A5028E8901628F08047740165090D
:104A8000701B9007EEE0F88E828F83E09007EEF0C7
:104A9000E87030E06401702B12106E8026750818E3
:104AA0008021C3EA9427EB940050157402650970C5
:104AB0000F8E828F83125CE01204A4E9F508800354
:104AC000750802A9087406024DEE8E828F83E0F805
:104AD000C3940222A90880031217227F0402184EF1
:104AE00074F012177C74B112170C8C0A8D0B908025
:104AF000C87420121772740612161F7420121772CF
:104B0000121026E9FF745F121758E0F509EFC394FD
:104B10000A4003024C6275F006EFA4F508744112D6
:104B200017727A0E74202508F91212EAE9700974D6
:104B30004D121758E0FE80027E00901623E06402BA
:104B40007005750E018003750E0074086509700408
:104B50007422800274212508F50D7C1B7D007900EC
:104B6000742612176A1211C474261217727A1BA9BE
:104B70000D1212EAE9702D7440121758E024F9C39F
:104B8000940A5020E50EF50D780D12199374271232
:104B90001772EEA2E0E433F9AA0AAB0B12054674D1
:104BA000011217227C147D007900740C12176A120E
:104BB00011C4740C1217727A1074242508F9121299
:104BC000EAE970347C1079FF740C12176A1212240F
:104BD000E97025741C121758AC82AD837A047425D1
:104BE0002508F91212EA740C121772EEA2E0E433EF
:104BF000F9AA0AAB0B12052EAC18AD197A0C747019
:104C00002FF91212EAE97049AA18AB191210567F4F
:104C100000EF75F003A4F8A9F0851882851983E5E3
:104C20008228F8E5831253B7125598601D8882894F
:104C300083A3A3E0F50E750F00780E12198FAA0A50
:104C4000AB0B1207DA74021217220FEFC394044061
:104C5000C0EEA2E1500C900746E0F9AA0AAB0B1295
:104C600007E0740465097028901623E06402702040
:104C70007A0090075AE060027A01900747E06004EA
:104C8000780480027800E84AF9AA0AAB0B1205FA08
:104C90007900744F024DEE74F712177C120624E966
:104CA000704F9007EFE06401701512107A9007EFD3
:104CB000E4F07C0AFDF97AF07B071211C4802A75B2
:104CC0000800A80874F028FEE43407FF8E828F8362
:104CD000E06401700BA9081210808E828F83E4F0CB
:104CE0000508E508C3940A40D979501212F0121051
:104CF0006E0256CF74F012177C74F012170CEAFE95
:104D0000EBFF8C088D09750A0AE9600C1460091420
:104D1000603B14607D024DEA121068E9F50AC39405
:104D20000A4003024DEAE50845097003024DEA75A1
:104D30000C06750D00780C12198FEEFCEFFDAA0819
:104D4000AB091211AC7402121722024DEA750C0065
:104D5000750E06750F00780E12198FEEFCEFFDE54B
:104D60000C75F00EA4F8A9F0746828FA740739FBE2
:104D70001211BE7402121722E9700B050CE50CC368
:104D8000940A506680CA850C0AE50AC3940A505AF0
:104D90008049750C00AC18AD197A1075F006E50C59
:104DA000A42423F91212EAE9701C7C1079FFAA18D6
:104DB000AB19121224E9700EEEFCEFFDAA18AB1924
:104DC00012050AE9600B050CE50CC3940A501B8020
:104DD000C4850C0AE50AC3940A500FE5084509602A
:104DE00009AA08AB09A90A121062A90A74101217BD
:104DF000227F0802184E74F412177C890975081571
:104E000074FF6A700374FF6B70277E00AC097A022E
:104E10007B00EEF9121044E960037508000EEEC342
:104E2000940A40E8E50960537A927B10120A2C80BC
:104E30004A1209FC8A0A8B0BAE0AAF0BEE4F6038A0
:104E40007C007D00EE2405FAE43FFB8E828F83A375
:104E5000A3A3A3E0F9121026E9F9C3940A500CACFD
:104E6000097A027B00121044750800E509600CEE17
:104E7000FAEFFB1210928003750814024AD474F200
:104E800012177CECFEEDFF750815740E121758E032
:104E9000F50AA3E0F50B74FF6A700374FF6B7021D1
:104EA000750900AC0AAD0BEEFAEFFBA90912104A26
:104EB000E960037508000509E509C3940A503F80BD
:104EC000E21209FC8A828B83E5824583602D7C0097
:104ED0007D00E5822405FAE43583FBA3A3A3A3E0C8
:104EE000F9121026E9F9C3940A5013AC0AAD0BEE7F
:104EF000FAEFFB12104A7508008003750814A90820
:104F00007F0602184EC082C083900760EAF0A3EBD0
:104F1000F0900746E0FC7D007A267B001204A49006
:104F20000746E0F91207500259E974EE12177C7433
:104F3000EC12170C8A088B09EA240CF510E43509E9
:104F4000F5118A828B83A385820C85830DEA240563
:104F5000F50EE43509F50FEA2409F50AE43509F5FB
:104F60000BEA2403FEE43509FF8A828B83A3A3E0C6
:104F700024FA70030251EE24FD700302510E1470E6
:104F80000302500814601024FD70030250F11470E5
:104F9000030251460251F4125CE66044E0F5838856
:104FA00082125200880C890DE8450D60338510820D
:104FB000851183E0F50E780E121993EA240BF58221
:104FC000E43509F583E0F9125CDA0A0A0AEFFB8599
:104FD0000C82850D8312177A74011217220251F484
:104FE000850A82850B831219A690075C1215EE12B2
:104FF00005407402121722E970030251F479018509
:105000000A82850B830251BE750A00850C82850DCC
:1050100083E060030250BE850E82850F83E0A2E02C
:1050200040030250BE9007FA125CE960030250BED2
:105030007C0E7D007900AA18AB191211C48510826C
:105040008511831259B4EA4B6010750A06750B007E
:10505000780A12198FEA2410801B1259B01209FC29
:10506000EA4B70030251F4750A06750B00780A12B8
:10507000198FEA2405FCE43BFD740212176A121131
:10508000AC7402121722850E82850F83E0A2E250D3
:1050900004D2F08002C2F0A2F0E433F8740C1217CC
:1050A00058125B6812105CE970117A027B0090075D
:1050B00046E0F912120079000251F6750A15125CE9
:1050C000E670030251F412521570030251F4850C7C
:1050D00082850D83E0FC790112520612177AE50AE7
:1050E00070030251F4FC79031259B012596B02514A
:1050F000E9125CE670030251F4125215700302517A
:10510000F4850C82850D83E0FC79020251E67C0077
:105110007D00EA2404FAE43509FB8E828F83E0F9EE
:10512000121026E9F8C3940A40030251F4E508245A
:105130000AFCE43509FD7A0475F006E8A42425F993
:105140001212E40251F41259B090075BE06007902C
:105150001626E0F9806B901623E0700479058061D3
:105160001209FC8A0C8B0DA80CA90DE849700302EA
:1051700051F4E82404F50CE439F50D85088285091D
:1051800083A3A3A3A3A3A3A3E0A2E05039850C8229
:10519000850D83E0F508602E850A82850B83A3E0E8
:1051A00054027022740E121772E82405FAE439FBD7
:1051B000A908121026E9700E79038E828F83125986
:1051C000B412053A802EAC0EAD0F850C82850D838E
:1051D000E0F91259B012109E125CE66017125215D7
:1051E00060127C00790012520612177A800612595A
:1051F000B0121020790174141217227F0A02184E7F
:10520000E0F8A3E0F9228E828F83E0FAA3E0FB8826
:105210008285098322125979F98909E8450922749E
:10522000F512177C74F212170CEAFE8C0A75F00660
:10523000E9A42420F508AC18AD197A0EF91212EA87
:10524000E970467C0679FFAA18AB19121224E9709E
:1052500038740C1217581259B4EAF8E50A6005EED2
:10526000C8488004EEF4C858F8EA687001EB60158D
:10527000740C121758E8F0A3E4F0AC18AD197A0ECC
:10528000A9081212E4790180027900740E12172223
:105290007F0302184E74F212177C74E612170C8901
:1052A0000A8A088B09ECFEEDFF740C1217727A0E55
:1052B00075F006E9A42420F91212EAE9600302530A
:1052C0007A7C0679FF740C12176A121224E96003C3
:1052D00002537A7470250AF50BAC18AD197A0CF9E3
:1052E0001212EAE96003025376AA18AB191210569B
:1052F000E5084509701D7C0C7900AA18AB1912123B
:1053000024E970727C0C7D007900AA18AB19121187
:10531000C48051AC18AD19AA08AB091210508A0C00
:105320008B0DA80CA90DE8497022EE4F604CAC180B
:10533000AD197A007B00121050EAF8EBF9EA4B60E5
:105340003988828983E508F0A3E509F01253F3FA5E
:10535000EE6A7001EF601FEEF04F7008888289835B
:10536000E4F0A3F0AA18AB19121056AC18AD197AD4
:105370000CA90B1212E4790180027900741A121739
:1053800022024F0074F712177C7E00EE75F003A422
:10539000F8A9F0EC28F8ED1253B7E06A7003A3E027
:1053A0006B7006E8FAE9FB800B0EEEC3940440DB59
:1053B0007A007B000256CF39F9888289832274F7FC
:1053C00012177C7C00EC75F003A4F8A9F0EA28F829
:1053D000EB1253B7E0F4FEA3E0F4FF88828983EE7A
:1053E000F0A3EFF01253F3F4F00CECC3940440D5A7
:1053F0000256CFE82402F582E439F583E02274F402
:1054000012177C74F412170CEAFEEBFF8C088D095E
:105410009007FA125CE9704FEE4F7003025577EC7B
:1054200045097003025577121068E9901629F0C3F8
:10543000940A4033750B007C0679FFE50B75F00E7E
:10544000A4FAABF074622AFA74073BFB121224E947
:1054500060030254D8050BE50BC3940A40D9750AC2
:105460000AE50A901629F0901629E0C3940A400331
:1054700002557775F006E0A4FB9007FA125CE9701C
:105480005CEEFCEFFD7A0E74202BF91212E47C0C1A
:105490007D0079FFAA18AB191211C4AC18AD197AA6
:1054A0000C901629E02470F91212E4750A0E750B9F
:1054B00000780A12198FEEFCEFFD901629E01256C3
:1054C000301211AC74021217229007FAE508F0A30B
:1054D000E509F07900025579850B0A8084E0C8243B
:1054E0000612559260197A1B74212BF91212E412DC
:1054F000557E2406F582E438F583E4F0A380D312C8
:10550000557E240A12559260107A1B74222BF912D0
:1055100012E412557E240A80DB12557E240C1255AB
:105520009260107A1074232BF91212E412557E2423
:105530000C80C112558712559260307A1074242B5A
:10554000F91212E4125587F582E438F583E024104D
:10555000FCA3E03400FD7A0475F006901629E0A45F
:105560002425F91212E412558780899007EEE06035
:10557000031210A41210987901740C024AD89007F3
:10558000FAE0F8A3E0C8229007FAE0F8A3E0C82404
:105590000822F582E438F583125CE0EC4D2274F4C5
:1055A00012177C74F212170CEAFEEBFFE9C3940A9F
:1055B0005004EE4F700479028034AC18AD197A0EA5
:1055C00075F006E9A42420F91212EAE9F508701C26
:1055D000750A06750B00780A12198F740212177279
:1055E000EEFAEFFB1211AC7402121722A908740E26
:1055F000024AD874F412177CEAFEEBFF75080075B6
:105600000A06750B00780A12198FEEFCEFFDE5080B
:105610001256301211BE7402121722E96004A90852
:10562000800B0508E508C3940A40D4790A024ADBD6
:1056300075F00EA4F8A9F0746228FA740739FB22F9
:1056400074F712177C750800E50875F00EA4F8A928
:10565000F0746228FE740739FFEEFCEFFD7A0E75D8
:10566000F006E508A42420F91212EAE960297C0674
:105670007D0079FFEEFAEFFB1211C47C067D007904
:10568000FFEE2CFAE43FFB1211C4EE240CF582E489
:105690003FF583E4F0A3F00508E508C3940A40A8A9
:1056A0009007EEE060031210A4121098802174F7A6
:1056B00012177C7E007F007C06EF12563079FF12B5
:1056C0001224E970010E0FEFC3940A40EAEEF97F4D
:1056D0000102184E74F712177C7E00EEF91210804A
:1056E000E9F90EEEC3940A5003E960EF80E174F328
:1056F00012177C74CB12170C8908901629E06508E4
:10570000701B7A017B00900746E0F91212067A02BC
:105710007B00900746E0F91212061210B075F006F1
:10572000E508A4FF74202FFE74271217727A0EEE7C
:10573000F91212EAE960030257F67C0679FF742732
:1057400012176A121224E960030257F67C0E7D00DC
:1057500079FF742712176A1211C47C1B7D0079FF30
:10576000740C12176A1211C47C0C7D0079FFAA1800
:10577000AB191211C474271217727A0EEEF91212B5
:10578000E4E9FE740C1217727A1B74212FF91212BD
:10579000E4E9F509740C1217727A1B74222FF912BE
:1057A00012E4E9F50A740C1217727A1074232FF9B7
:1057B0001212E4E9F50B740C1217727A1074242F8C
:1057C000F91212E4E9F50C740C1217727A047425BC
:1057D0002FF91212E4E9FFAC18AD197A0C74702598
:1057E00008F91212E4E9F8E509450A450B450C4FA2
:1057F00048CE4EFE80027E00EEF974351217227FED
:105800000502184E74F712177CE9900746F0121043
:105810006E0256CF74F212177CEAFEEBFF548070D2
:10582000030258D3900746E0F91211E88A088B0961
:10583000EA450970030258CC7A01E5082405F50A07
:10584000E43509F50BE5082404F8E43509F9880C7A
:10585000890D8508828B83E024506036146006240D
:10586000E16058805D88828983E070598508828B69
:1058700083A3A3A3A3A3A3A31219A6125CDA85088A
:10588000828B83A3A31259B412103274021217220E
:10589000803388828983E0641E700F7900850882D6
:1058A0008B83A3A31259B412102C850C82850D830F
:1058B000E0F9AA0AAB0B12074A800AAA0812103EA6
:1058C000E9FAEA6007AA08AB091211D6EEFAEF640A
:1058D00080802AEE54026028EE6402FE7C007D0087
:1058E0007A007B0012105CE960047A0180027A027F
:1058F0007B00900746E0F9121200EEFAEFFB806899
:10590000EEA2E050556401F508EFF509125989122D
:1059100010AAE96033125CE6602912598112520024
:10592000E8FEE9FFEE4F601B7C0079011259898E79
:10593000828F8312177A7C00790312598912596B6E
:1059400012177A1210B0800C7A017B00900746E0A3
:10595000F9121200AA08AB09800E54046006EE6426
:1059600004FA80047A007B00024F00900760E0F8A0
:10597000A3125979F583888222125981E0F8A3E0B5
:1059800022E0F5838882A3A3229007FA125CCAE082
:10599000FAA3E0FB227F0202184EC082C083900768
:1059A00046E0F98A828B83A31259B41207E080394A
:1059B0008E828F83E0FAA3E0FB22C082C08374FF53
:1059C00012170C121074E9C394028518828519838A
:1059D000400474028002740AF0AC18AD197A01799F
:1059E000051206427401121722D083D082020132BE
:1059F00074F012177C74E812170CEAFEEBFF890AA8
:105A00008C088D097C187D007900AA18AB19121139
:105A1000C4851882851983EEF0A3EFF0900748E063
:105A2000C0E07402121758D0E0F0900749E0C0E0DF
:105A30007403121758D0E0F0901628E0C0E07417F5
:105A4000121758D0E0F0901627E0A2E0E433FCE013
:105A5000A2E15004D2F08002C2F0A2F0E433F8E0F8
:105A6000A2E45004D2F08002C2F0A2F0E433FAE0E3
:105A7000A2E55004D2F08002C2F0A2F0E433F50EA9
:105A8000750F00E0A2E65004D2F08002C2F0A2F04E
:105A9000E433F50C750D00E0A2E25004D2F0800270
:105AA000C2F07415121758E054FEFEA3E0FFEE4C4E
:105AB000FCEFFDEC54FDFCE828F8EC48F8ED54FE52
:105AC000F9EAFBE94BF9E8FAE954FDFB7409780EB1
:105AD0001216F9EB450F54FBFB740A780C1216F9F9
:105AE000EAF8EB450DF9E854FBFAA2F0E433F50CC3
:105AF000750D007402780C1216F9EA450CF874154D
:105B0000121758E8F0A3E9F0900749E0601D750C02
:105B100010780C12198F7C4A7D077406121758AA48
:105B200082AB831211AC740212172290075AE06004
