:020000040000FA
:06000000020107022109C4
:03002B000225515A
:0300330002253370
:03004B0002257D0E
:0300530002217F08
:03006B0002250D5E
:10008300021F5FE5C754F84401F5C7790122000058
:100093000080FB120086B900030200F1E4792178A5
:1000A30008B800028004F709D8FCE479297802B87B
:1000B30000028004F709D8FCE490028178BE79132A
:1000C3008002F0A3D8FCD9FA7A3E7B1590013778E9
:1000D3006D79038015E493A3AD82AE838A828B830B
:1000E300F0A3AA82AB838D828E83D8E9D9E7758288
:1000F300737583A274031201197582917583007459
:100103000012011975D00075814F75188175190298
:10011300759F00020096C09FF59FE473D09F22D085
:1001230083D082C09FE493C0E0740193C0E0740263
:1001330093F59F22FF0000B4000028002800283018
:1001430075A000A000A000A00000080008E001F0D6
:10015300001000100010001000100010005000509C
:1001630000500010001000D0070000000000000F36
:100173000001000500307507001000010081FF0039
:10018300000000FFFFFFC505E305CB050706FF02DF
:10019300020208025000A0000000E803025581019A
:1001A3000000428102698101000099150251810119
:1001B3000000BD020269810100009A1502678101F6
:1001C3000000D3020269810100009B1502498101ED
:1001D3000000D5020269810100009C1502538108C9
:1001E3000000D6020269810100009D1502458101CC
:1001F30000009E15FF0100FF17007F0C7F0C7F0C92
:100203007F0C7F0C7F0C7F0C7F0C7F0C7F0C7F0C93
:100213007F0C7F0C250F370F1F0F01E803057710A5
:100223000AFFFFFF000853746172742054696D65FF
:100233007220436F6E7400024765742054696D65C4
:100243007220436F756E7420000847657420476100
:1002530073204D6F6E69746F722000025374617264
:1002630074204761732043616C6962720008416CBA
:1002730061726D20636F6E74726F6C2020200002B8
:10028300446576696365204E616D652063686172BC
:1002930000025581010000B9800269810100002F2D
:1002A30016025B81030000B914024D810100003086
:1002B300160269810100004116025D81030000BA44
:1002C30014024D81010000421602698101000053AE
:1002D30016025F81030000BE14024D810100005429
:1002E300160269810100006516026181030000BFE7
:1002F30014024B81030000C014024D81010000660B
:10030300160269810100007716026381030000C2AF
:1003130014024D81010000781602698101000089F1
:1003230016026581010000C314024D810100008A99
:1003330016013075030201060000000000000000F2
:1003430000000000000000000000000000000000AA
:1003530000000000FFFF0600800CE8030A0950417B
:100363004D6F6E69746F72051201000100020A007D
:100373000201060302F0FF0DFF0D0D2001303031A5
:10038300100000003053696D706C6520424C4520AD
:100393005065726970686572616C6313000069135C
:1003A300120122008003120122138003120122444E
:1003B30080031201227E8003120122D780031201DF
:1003C300221E8103120122668103120122958103F9
:1003D300120122C48103120122FB81031201224272
:1003E30082031201225B8203120122B082031201F3
:1003F30022C98203120122178303120122518303AC
:10040300120122ACA802120122AFA902120122E8B2
:10041300A9021201220BAA021201221DAA02120131
:10042300225BAA02120122D7AA021201229FAB0267
:10043300120122C1AB0212012258AC02120122AAFC
:10044300AC02120122DBAC02120122E8AC0212015F
:100453002252AD02120122A9AD02120122ACAD0259
:10046300120122E5AD02120122E8AD02120122F2CD
:10047300AD0212012246AE0212012287AE02120120
:1004830022BAAE02120122F7AE02120122F9AF0222
:100493001201229DB00212012206B102120122446E
:1004A300B1021201227AF602120122A2F60212010D
:1004B30022CFF60212012207F70212012265F70288
:1004C300120122B1F70212012218F8021201225876
:1004D300F80212012295F802120122C3F802120156
:1004E300226DF90212012277F90212012284F90224
:1004F300120122B7F902120122C3F902120122DB0F
:10050300F902120122E5F902120122349F031201BA
:1005130022429F031201225A9F03120122719F0359
:100523001201220E6E00120122B86E00120122CBBC
:100533006F0012012247700012012265710012013F
:1005430022A171001201223C7200120122207300C9
:10055300120122EC73001201227A7500120122EBC0
:100563007500120122A5760012012297770012016D
:1005730022D777001201228B7800120122BD780066
:10058300120122B37A00120122F57A00120122131A
:100593007B00120122797B00120122487C001201A8
:1005A300220C7D001201222B7F001201226DC10259
:1005B30012012257C20212012202C3021201225364
:1005C300C30212012203C40212012274C4021201E3
:1005D3002259C5021201228DC50212012286C602CA
:1005E300120122C3C6021201229FC702120122DE98
:1005F300C702120122FAC702120122B992031201A1
:10060300223D930312012268930312012282940371
:1006130012012273FA0212012289FA02120122A79D
:10062300FA02120122B8FB02120122C2FB021201DA
:1006330022EDFC02120122E4FD0212012251FE020C
:100643001201223598031201227299031201226CBE
:100653008101120122F881011201225C830112013E
:1006630022688301120122A3830112012212840151
:100673001201221B8501120122248601120122EBA1
:1006830086011201224888011201226688011201A3
:1006930022838801120122308901120122AD8901CE
:1006A300120122D589011201229F8C01120122A479
:1006B3008C01120122BD8E011201220B8F01120146
:1006C300227B8F01120122B98F0112012295900121
:1006D300120122559101120122A19101120122A4BA
:1006E3009101120122E891011201223092011201BB
:1006F300226F9201120122919201120122C59201ED
:10070300120122289301120122DBD202120122E9F3
:10071300D2021201223CD3021201225BD302120144
:1007230022A0D302120122E4D4021201227FD502B5
:10073300120122C3D502120122EDD5021201225C5D
:10074300D602120122A2D60212012219D7021201E5
:1007530022CAD702120122A82500120122B82500BD
:10076300120122592600120122B52600120122721B
:100773002700120122932800120122C2280012012D
:10078300226F2A00120122E62C00120122562F00AA
:100793001201224830001201224131001201224885
:1007A30033001201223C36001201226B3700120182
:1007B300226F39001201227F3A001201220E3C00FF
:1007C300120122FF3C001201224D3D00120122BC06
:1007D3003D00120122E03D0012012281420012017C
:1007E30022824300120122E343001201220E44003D
:1007F300120122D44400120122C9CD02120122D3D4
:10080300CD0212012218CE021201222CCE021201B5
:1008130022BCCE02120122F5CE0212012230CF02F7
:1008230012012259CF02120122ADCF02120122C2BC
:10083300CF02120122E4CF02120122F9CF021201E8
:10084300220DD00212012222D0021201225CD00218
:1008530012012288D002120122B6D0021201220113
:10086300D10212012263D102120122D5D102120157
:10087300221BD2021201225ED20212012288D2026C
:10088300120122B3D2021201224D9B031201221044
:100893008B02120122F38B021201226E8C021201CF
:1008A30022A98C02120122FA8D02120122888E02E1
:1008B3001201221A9102120122CC9102120122D8B2
:1008C30092021201224B9402120122A494021201F9
:1008D30022A7E502120122EAE5021201226EE602D4
:1008E30012012245E90212012266FD0112012218BA
:1008F300FE0112012214FF0112012253FF01120112
:1009030022ADFF01120122B19403120122149503B7
:10091300120122B19503120122E695031201221658
:1009230096031201225196031201227196031201BA
:1009330022DCD70212012268D80212012227D9022F
:100943001201223FDA0212012259DC02120122E2D1
:10095300F10112012207F201120122D4F201120164
:1009630022A8F30112012215F40112012255F40108
:10097300120122F1F40112012225F60112012200D3
:10098300F7011201225FF701120122EBF7011201B5
:100993002259F801120122E5F8011201222BF90173
:1009A3001201229DF9011201222FFA01120122D014
:1009B300FA01120122F0FA0112012238FB0112019D
:1009C3002281FB011201229DFB01120122C3FB01C3
:1009D3001201223DFC011201224BFC01120122DA19
:1009E300FC0112012243FD0112012290DC021201DB
:1009F3002215DD0212012257DD021201223BDE0223
:100A0300120122A8DE02120122ECDE0212012230C0
:100A1300DF021201225DDF0212012285DF021201D1
:100A230022BDDF02120122FBDF0212012222E002B9
:100A33001201229CE002120122E6E00212012200CE
:100A430094011201229F9501120122D797011201ED
:100A5300222B980112012256980112012232990188
:100A6300120122629901120122919901120122A419
:100A73009901120122E59901120122129A01120130
:100A830022609A011201229C9A01120122E19A0129
:100A93001201222E9B01120122A89B01120122E9BD
:100AA3009D01120122D39F011201220FA001120105
:100AB300229EA101120122E3A10112012256A201E9
:100AC300120122ABA201120122B0A201120122598A
:100AD300A30112012225A401120122AFA4011201D4
:100AE300223BA5011201225AA6011201226BA60183
:100AF3001201220D9F02120122869F02120122403F
:100B0300A5021201224BA602120122F4A70212012E
:100B13002282A802120122DA59001201225B5A0032
:100B2300120122885A00120122D15A00120122D244
:100B33005B00120122165C001201224C5C001201C0
:100B430022C85D001201224A5E00120122655E0086
:100B5300120122D65E00120122935F001201225677
:100B63006000120122E460001201229B6100120165
:100B730022AE6100120122476200120122DE6200EE
:100B83001201220563001201226E6300120122B8D2
:100B93006300120122066400120122AB64001201F9
:100BA30022496500120122D6650012012247660020
:100BB3001201228E6600120122E66600120122183B
:100BC3006700120122D26700120122D968001201C4
:100BD300222269001201223F69001201225E69008C
:100BE300120122916A00120122486B001201226D48
:100BF3006B00120122826B00120122F26B001201C0
:100C030022336C00120122576D00120122D86D00AD
:100C13001201224D9502120122989502120122A47B
:100C230095021201227896021201228F9602120176
:100C330022CC9602120122FD96021201223597025E
:100C43001201228B9702120122A19702120122DDC7
:100C53009702120122F09702120122179802120141
:100C6300224B9802120122719902120122BB9A02AD
:100C7300120122B79B02120122D49C02120122FD0F
:100C83007F00120122B0B801120122EBB801120158
:100C9300223DBC0112012299BD0112012258BE015D
:100CA300120122BFC101120122A9C201120122F5C0
:100CB300C2011201220FC3011201224CC30112010E
:100CC3002257C30112012296C3011201229FC301BD
:100CD30012012249C40112012220C501120122740A
:100CE300C501120122D1C50112012243C60112011D
:100CF300228EA601120122EDA901120122F3A901FC
:100D030012012224B1011201222BB501120122DAB0
:100D13008A03120122B78B03120122FB8B031201F8
:100D230022358C03120122CD8C031201223C8D0348
:100D3300120122458D03120122518D031201226BF0
:100D43008D03120122958D03120122C58D03120119
:100D530022F7E90212012204EA021201221EEA0228
:100D630012012251EA021201228FEA02120122F435
:100D7300EA0212012209EB0212012214EB02120110
:100D83002221EB0212012238EB0212012246EB026E
:100D930012012251EB021201225DEB021201226CBD
:100DA300EB0212012277EB021201229AEB021201EB
:100DB300223EEC021201224EEC0212012268EC02E6
:100DC30012012285EC02120122A0EC02120122C5BB
:100DD300EC02120122D0EC02120122E5EC02120114
:100DE30022F9EC021201225AED0212012260ED02F5
:100DF30012012266ED021201226CED02120122841D
:100E0300ED02120122B7ED021201225FE401120189
:100E130022F6E4011201228EE5011201227EE6018F
:100E2300120122B5E601120122C8E601120122369F
:100E3300E701120122D1E801120122F8E8011201AF
:100E4300229AE901120122CFE901120122E0E9010C
:100E530012012259EA011201227AEA0112012292B5
:100E6300EA01120122EAEB01120122F3ED01120160
:100E73002243F00112012246F10112012295F101F0
:100E830012012292C7011201228FC8011201227A94
:100E9300C90112012284C901120122A6C90112014A
:100EA30022B2C90112012204CB0112012233CB0168
:100EB30012012263CC01120122A5CC01120122D11D
:100EC300CD01120122A7CE01120122F9CE01120196
:100ED3002258CF011201228FCF01120122CACF0162
:100EE30012012265D3011201227ED30112012200D5
:100EF300D4011201220ED40112012263D401120182
:100F03002271D401120122DED40112012250D50133
:100F130012012296D501120122008002120122221F
:100F230080021201220C8202120122B185021201F7
:100F330022F48602120122CE87021201227F960337
:100F4300120122A496031201221597031201226AA9
:100F5300B10212012273B1021201227CB102120109
:100F630022ADB202120122CCB40212012202B50256
:100F73001201223CB50212012272B502120122AC07
:100F8300B502120122E0B5021201220CB6021201CF
:100F93002255B6021201228FB602120122D7B602DF
:100FA3001201222DB70212012262B702120122BDE1
:100FB300B702120122F7B70212012248B802120146
:100FC300227EB802120122B8B802120122E6B80248
:100FD30012012209B90212012201A0031201222DDA
:100FE300A00312012288A00312012292A00312017E
:100FF30022A2A003120122CBA303120122C6A20341
:10100300120122404500120122A447001201225B73
:101013004900120122B84900120122BA4A00120102
:1010230022424B00120122C94B00120122EE4B0057
:10103300120122E34E00120122594F0012012248ED
:101043005000120122825000120122C250001201EC
:1010530022625200120122B75200120122045300ED
:10106300120122725300120122985300120122B27C
:101073005300120122C85400120122D85400120155
:10108300225E56001201227E5600120122B456003F
:10109300120122385800120122775800120122B59A
:1010A300590012012226E1021201227EE1021201FD
:1010B30022C6E20212012235E302120122E4E30214
:1010C30012012203E40212012257E40212012295C3
:1010D300E402120122387F00120122497F0012012B
:1010E3002210A3031201224FA303120122EC7F005B
:1010F300120122ACA003120122BCA003120122D1CF
:10110300A00312012239A103120122619C031201DF
:1011130022E59C031201224B9D03120122CF990366
:10112300120122F89903120122659A03120122B9CE
:101133009A03120122129B031201226187031201F7
:1011430022758703120122EE8703120122C388034B
:10115300120122958A031201225B9E03120122844B
:101163009E03120122AD9E03120122EF9E03120180
:10117300225BC80212012265C802120122A5C8021D
:10118300120122EEC80212012228C9021201227E94
:10119300C9021201229DC902120122A6C90212012B
:1011A30022F7C90212012220CA0212012235CA0201
:1011B300120122A5CA0212012233CB0212012277A5
:1011C300CB021201229FCB021201221ECC0212017A
:1011D3002261CC021201229ECC02120122B0CC0267
:1011E300120122CFCC02120122D8CC021201229D7D
:1011F300CD021201225BFE02120122ACFE02120199
:101203002235FF021201229BFF02120122F38D03FA
:101213001201221D8E03120122178F03120122468F
:101223008F03120122CC8F03120122649D0312014A
:1012330022B79003120122ED90031201222691039B
:101243001201227F92031201223CA10312012252B6
:10125300A1031201225CA10312012214A2031201B1
:101263002297B90212012254BA021201228FBA0242
:10127300120122B7BA0212012219BB02120122651E
:10128300BB02120122D0BB021201224CBC0212018A
:101293002248BD02120122CFBE0212012252BF0216
:1012A300120122B6BF02120122CDBF02120122C3D4
:1012B300C0021201220FC10212012260F2021201C6
:1012C3002275F20212012228F30212012268F302AC
:1012D30012012281F302120122B4F302120122014C
:1012E300F40212012235F40212012277F4021201F0
:1012F300226DF60212012239EE02120122A0EE0241
:10130300120122BDEE021201228BEF02120122DE34
:10131300EF02120122E1F0021201221FD601120193
:1013230022D6D90112012268DB01120122BFDB019F
:10133300120122DEDB011201225CDC01120122EE2A
:10134300DD01120122D2DE01120122E3E2011201C8
:1013530022B7E301120122B9830312012269850333
:10136300120122378603120122E18603120122B2FF
:10137300A103120122D0A103120122EAA103120147
:101383002259A3031201229FA303120122D8FF01B2
:10139300E066701008A3E066700A08A3E0667004B4
:1013A30008A3E06622C3E7960809E7960809E796CB
:1013B3000809E79622C3E09608A3E09608A3E096FF
:1013C30008A3E09622C008C3E096F50808A3E096B8
:1013D300420808A3E096420808A3E0964508700176
:1013E300D3D00822080808EAC0E0EBC0E086F0E7A3
:1013F300A4FA180986F0E7A42AFA180986F0E7A4E4
:101403002AFA180986F0E7A42AFA1986F0E7A4FB5A
:10141300E5F02AFA190886F0E7A42BFBE5F03AFA7F
:10142300190886F0E7A42BFBE5F03AFA18180986A9
:10143300F0E7A4C5F02BFBE43AFA1908E7C5F0C6B8
:10144300A426F6E5F03BFBE43AFA1886F0E7A4F6A7
:10145300E5F00826F6E43B08F6E43A08F6D0E0FBAC
:10146300D0E0FA22E4CFC0E0E4CEC0E0E4CDC0E0B7
:10147300E4CCC0E075F020E626F608E633F608E68D
:1014830033F608E633F6181818EC33FCED33FDEEAB
:1014930033FEEF33FFC3EC9709ED9709EE9709EF9E
:1014A30097191919400FFFEC97FC09ED97FD09EE09
:1014B30097FE191906D5F0BFECF709EDF709EEF71A
:1014C30009EFF7191919D0E0FCD0E0FDD0E0FED008
:1014D300E0FF226016080808C6C313C618C613C661
:1014E30018C613C618C613C6D5E0EA227009080841
:1014F30008226016181818C6C333C608C633C608B0
:10150300C633C608C633C6D5E0EA22E627F608097D
:10151300E637F60809E637F60809E637F622E02645
:10152300F608A3E036F608A3E036F608A3E036F69D
:1015330022E026F008A3E036F008A3E036F008A383
:10154300E036F022C3E697F60809E697F60809E6BF
:1015530097F60809E697F622C3E096F008A3E0960B
:10156300F008A3E096F008A3E096F022E056F60810
:10157300A3E056F608A3E056F608A3E056F622E0E9
:1015830056F008A3E056F008A3E056F008A3E0568F
:10159300F022E0F608A3E0F608A3E0F608A3E0F6DD
:1015A30022E6F008A3E6F008A3E6F008A3E6F0229B
:1015B300E0FAA3E0FBA3E0FCA3E0FD22E0F8A3E054
:1015C300F9A3E0FAA3E0FB22E8F0A3E9F0A3EAF031
:1015D300A3EBF022CAC0E0E6F0A308DAFAD0E0FAFF
:1015E30022CAC0E0E0A3C582CCC582C583CDC58332
:1015F300F0A3C582CCC582C583CDC583DAE6D0E02E
:10160300CA22C3E498F8E499F91216468026C3E483
:101613009AFAE49BFBE920E7E9121646E498F8E41A
:1016230099F922C3E498F8E499F9121646E498F874
:10163300E499F9C3E49AFAE49BFB22EB20E7CFE9B0
:1016430020E7E0B90010BB0008E88AF084F8AAF0AC
:1016530022E4FBC8FA22EB70227B10C833C8C933DB
:10166300C9335007C39AC3DBF280069A50012ADBC1
:10167300EAC833F4C8C933F4C9FA2275F008E4C8D8
:1016830033C8C933C933C99AC99B5004C92AC93B52
:10169300D5F0ECFBC833F4C8E4C9FA22600D08C6E0
:1016A300A2E713C618C613C6D5E0F322600C08C61A
:1016B300C313C618C613C6D5E0F422700422600D06
:1016C30018C6C333C608C633C6D5E0F41822251896
:1016D30010AF08F518400C15198008F518400215CD
:1016E30019D2AF2200C0D0251810AF08F518500C3E
:1016F30005198008F51850020519D2AFD0D022255C
:1017030018F58210AF08F518400C15198008F51864
:1017130040021519D2AF851983222518F582E435C5
:1017230019F583222518F8E43519F9222518FAE466
:101733003519FB222518FCE43519FD22E47325181D
:10174300C582C0E0E51934FFC583C0E0E518C39541
:101753008224F810AF088583198582188008858351
:1017630019858218D2AFCEF0A3E520F0A37808E65E
:1017730008F0A3DEFAEFF0A3E58124FAF8E608F017
:10178300A3E608F0A3E608F0A30808E608F0A3E63A
:1017930008F0A315811581D0E0FED0E0F81581157E
:1017A300811581E8C0E0EEC0E0222518C582C0E0C3
:1017B300E51934FFC583C0E0E518C3958224F91009
:1017C300AF08858319858218800885831985821857
:1017D300D2AFCEF0A3E520F0A37808E608F0A3DEAD
:1017E300FAEFF0A3E58124FBF8E608F0A3E608F09E
:1017F300A30808E608F0A3E608F0A315811581D035
:10180300E0FED0E0F815811581E8C0E0EEC0E022EB
:10181300851983851882E0A3FEE0A3F5207808E00C
:10182300A3F608DFFAE0A3FFE0A3C0E0E0A3C0E073
:10183300E0A3C0E0E0A3C0E0E0A3C0E010AF0885F0
:1018430082188583198008858218858319D2AFD0C1
:1018530083D08202011F851983851882E0A3FEE0ED
:10186300A3F5207808E0A3F608DFFAE0A3FFE0A3DE
:10187300C0E0E0A3C0E0E0A3C0E0E0A3C0E010AF9D
:10188300088582188583198008858218858319D273
:10189300AFD083D08222C0D02518C582C0E0E5191D
:1018A30034FFC583C0E0E518C3958224F310AF0865
:1018B3008583198582188008858319858218D2AF9C
:1018C300C8F0A3E9F0A3EAF0A3EBF0A37908E709D2
:1018D300F0A3D8FAECF0A3EDF0A3EEF0A3EFF0A39E
:1018E300D0E0F0A3D0E0F0A3D0E0F0A3E520F0A394
:1018F300E5F0F0A322851983851882E0C0E0A3E018
:10190300F9A3E0FAA3E0FBA37808E0F608A3DFFA63
:10191300E0FCA3E0FDA3E0FEA3E0FFA3E0C0E0A39F
:10192300E0C0E0A3E0F5D0A3E0F520A3E0A3F5F049
:1019330010AF0885831985821880088583198582ED
:1019430018D2AFD082D083D0E0F8D0E032740480D4
:1019530006740280027401C0E0F404121702D0E09E
:101963001215D7227404800474028000CCC0E0ED09
:10197300C0E0E518C39CCCAD1950011D10AF068C17
:10198300188D1980068C188D19D2AF1215E4D0E08A
:10199300FDD0E0FC22D083D082E9C0E0E493A3C36E
:1019A30086F0C5F095F0F908E493A386F0C5F095A9
:1019B300F0700BE493A3C3994005E9048002A3E408
:1019C30075F002A42582F582E5F03583F583D0E036
:1019D300F9E493A3C0E0E493C0E022D083D082EC87
:1019E300C0E0EDC0E0E493A3FCE493A3FDED4C6001
:1019F3000D121A2AEC24FFFCED34FFFD80EFE49373
:101A0300A3FCE493A3FDED4C600D121A69EC24FFD3
:101A1300FCED34FFFD80EFD0E0FDD0E0FCE493A3C8
:101A2300C0E0E493C0E022C0E0C3E49396087401ED
:101A3300939618400FE49366700808740193661830
:101A430070007019A3A3C3E49396087401939618C6
:101A5300A3A3400DD0E0D0E0D0E0021A1AA3A3A3C1
:101A6300A3A3A3D0E022C0E0C0F088F0E4936670A3
:101A7300080874019366187000A8F0A3A3700BD034
:101A8300F0D0E0D0E0D0E0021A1AA3A3D0F0D0E067
:101A93002274F61217ADEAFEEBFF8C088D09EE24D3
:101AA30034F8E43FF9E8FCE9FDEE2435121DA7FA0A
:101AB300EE2437121DA7F88508F0A4C885F00A851F
:101AC30009F0A4250AF9EA28F8E439F97A257B0014
:101AD300121646EA8C828D83F0FA131313541FF8FF
:101AE300EE28F8E43FF9E8245DF582E439F583E074
:101AF300C0E074075AF8D0E0B800028004C313D8DA
:101B0300FCA2E0EE50082434F582E43F801824362A
:101B1300121DA7F5F0EA84A8F0EE28F8E43FF9E8EF
:101B23002438F582E439F583E0F97F030218597408
:101B3300F71217ADEAFEEBFFEE2434121DA7C0E047
:101B4300EE2435F582E43FF583D0E0F08E828F8377
:101B5300A3A3A3A3A3A3A3C082C0838E828F83A3C3
:101B6300A3A3A3A3E0F8A3E0F9D083D082E0C398B2
:101B7300F508A3E099F509EE247F121DA76401700F
:101B83003EEE2480F582E43FF583C082C0838E82DB
:101B93008F83A3A3A3A3A3E0240108A3E03400F944
:101BA300D083D082E0687003A3E06970127CAF7DBC
:101BB30004120BBFEE247FF582E43FF583E4F0AC1F
:101BC30008AD09EEFAEFFB121A94E9F91224FF7F2C
:101BD30002021859C082C083851882851983E0F8F0
:101BE300A3E0F9C3EA9CEB9D5010C3EC98ED994038
:101BF3001BC3EA98EB995014800EC3EA98EB994003
:101C030007C3EC98ED994004790180027900D083F1
:101C1300D08222EAC39CFAEB9DFB2274EF1217AD2C
:101C2300900374E064086005E06407702A9061C85B
:101C3300E060249003A2E0F4601DE0F875F00BA4CB
:101C4300C8AAF02AF974A428FE740339FF8E828F80
:101C530083A3A3A3E07003021D2C906060E0C0E0A7
:101C6300EE2468F582E43FF583D0E0F0750C1F7530
:101C73000D05750800750900E5D914F50AE5D95471
:101C830003F50E60127403650E6043E50A600AEE05
:101C93002467121DA77002807590051AE064016025
:101CA3001F121DA460047A0480027A00E50AC39A15
:101CB300FA95E0FB120A518A088B09EA4509700577
:101CC300120DED8064121DA470048A0C8B0DE50ABD
:101CD3006012850C82850D83F50BE5D9F0A3150BF6
:101CE300E50B70F6121DA4604474FC250AF50A780E
:101CF3000C121954AC0AA90EEEFAEFFB120C79740C
:101D0300021216E7E97026AA08AB091211FB793D06
:101D13008E828F83A3A3A3A3E0FA7B001208B3EE02
:101D2300FAEFFB120BE3120C8B7900806F740365DF
:101D33000E6051850A107511007810121954AC0CFD
:101D4300AD0DAA08AB09120C3D74021216E7EE247E
:101D530068121DA764807004747F8001E0F50C781D
:101D63000C121958E50EF50C780C121958A90AAC87
:101D730008AD099003A2E0FA7B00120889740212ED
:101D830016E78013900374E06408600BAC0CAD0D90
:101D9300EEFAEFFB120D03120DF979017F0A021817
:101DA30059EE2483F582E43FF583E02274F212179F
:101DB300AD74FC1216D1EAFEEBFF8909A2AFE4333E
:101DC300F508C2AF021E79E0601B780C121954ACFF
:101DD3000BA90EEEFAEFFB120C7374021216E774E2
:101DE30004250BF50B7401250BF5D9850ED9E50BED
:101DF3006018F50A850C82850D83E0F5D9A38582E9
:101E03000C85830D150AE50A70EA75E195EE2463E6
:101E1300F8E43FF97A007B00A2AFE433F50BC2AFDD
:101E230088828983E0FCA3E0FDEC4D603A888289D7
:101E330083E0FAA3E0FB8A828B83E0FCA3E0FD88C6
:101E4300828983ECF0A3EDF08A828B83E4F0A3F024
:101E530088828983E0FCA3E0FDEC4D700A888289C7
:101E630083A3A3E4F0A3F0E50BA2E092AF1211FB6E
:101E73009004B6E004F0EE2463121DA7F8A3E0F982
:101E8300E8496064EE2463121DA72402F8A3E0343A
:101E930000F988828983E5822402F50CE43583F511
:101EA3000DE0F50BA3E0F50EEE2462121DA764010D
:101EB30070369061D0E0F8121DA460047C048002A7
:101EC3007C007480C398FA95E0FBE50B2CF8E434AE
:101ED30000F9E82402F8500109C3EA98EB99A2D269
:101EE30065D0334003021DCA9004B6E0604D9004F0
:101EF300B7E0F89004B6E0C398500C74026509701B
:101F03003A9004B8E060348E828F83A3A3A3A3E046
:101F1300851882851983121F4E740212171DE81249
:101F23001F4E9004B5E028F07402121737AA18ABBD
:101F33001979011208DD9004B6E4F0E508A2E092F5
:101F4300AF74041216E77F07021859F0A3E4F09068
:101F530004B6E0F8228521878522C622C0E074EB0F
:101F6300121899A2AFE433F508C2AF759B009061D4
:101F730082E0A2E05030E591A2E0502A7591FE7410
:101F830001652170211220F2120D451220E0121971
:101F9300671222A974041216E7E964017005790136
:101FA300120D81121C1E906182E0A2E5505DE59145
:101FB300A2E550577591DF900374E064076005E074
:101FC3006408702F1220F274016521703E120D45D2
:101FD3001220E01219671222A974041216E7E964A9
:101FE3000170057901120D817901EEFAEFFB121DE3
:101FF300AF8018E0640D7013900396E004F064283A
:102003007002E4F07A00E0F9120DFF906182E0A221
:10201300E640030220B5E591A2E640030220B57530
:1020230091BF900374E064057008120D2D120D39F1
:102033008003120D33752100120D8DE9900375F0A5
:102043007900120D81120B297A017B00900373E052
:10205300F91211CB907803E06442705690051EE0AC
:1020630014F0704EC2AF12206C00782AD0E0F6183C
:10207300D0E0F6E59F5407F87005750DFF800375F2
:102083000D7FC4C0E07829E6F50A08E6550DF50B87
:10209300740B780A1216AFD0E0250AF8906270E04C
:1020A300A2E740F8E8C333906272F0906270E0D226
:1020B300E0F0906181E0A2E35009E5E9A2E3500377
:1020C30075E9F7A3E0A2E75009E591A2E75003758C
:1020D300917FE508A2E092AF7F080218F88E828F05
:1020E30083E0F8A3E0C82416F582E438F583229050
:1020F30003A2E0F875F00BA4C8AAF02AF974A42887
:10210300FE740339FF22C0E0C0D0C082C083906157
:1021130083E0A2E05009E5BFA2E0500375BFFEE0F3
:10212300A2E15009E5BFA2E1500375BFFDE0A2E2C1
:102133005009E5BFA2E2500375BFFBE0A2E35009DB
:10214300E5BFA2E3500375BFF7E0A2E45009E5BF82
:10215300A2E4500375BFEFE0A2E55009E5BFA2E595
:10216300500375BFDFE0A2E65009E5BFA2E65003C6
:1021730075BFBFD083D082D0D0D0E032C0E074F23C
:10218300121899E5A7A2E6500FE5A1A2E65009535C
:10219300A7BF75A1BF1221D3E5A7A2E5500CE5A106
:1021A300A2E5500653A7DF75A1DFE5A7A2E1500919
:1021B300E5A1A2E1500375A1FDE5A7A2E2500CE55C
:1021C300A1A2E2500653A7FB75A1FB7F010218F8F9
:1021D30074F71217AD752101900374E0640670154E
:1021E300120CAF8A828B83A3A3A3A3A3A3E0FAA3B6
:1021F300E0FB120D1BA2AFE433FED2AF90037AE0F3
:10220300640170187A207B00900373E0F91212DFE7
:102213007A207B00900373E0F91211D1906182E080
:10222300D2E6F090051BE0602185C622801690035C
:1022330079E064017008E5C654F84405F5C653BE59
:10224300FC121F587401652160E4EEA2E092AF7F97
:1022530002021859008E238F2485822885832785BF
:102263001882851983E0CEA3E0CF85288285278352
:10227300EBC9EAC8EDCBECCA75F010C3E833C8E983
:1022830033C9EA33CAEB33CBC3EA9EF526EB9FF59A
:1022930025B35004AB25AA26EC33CCED33CDD5F0D2
:1022A300DAAE23AF242274F11217AD8A088B098C9E
:1022B3000A8D0B90810A780812156F740F12171D7F
:1022C300780C12159590810A780C12156F7808799D
:1022D3000C1213A890810650107808790C12154738
:1022E30078081213C84014800E780C790812154729
:1022F300780C1213C850047901800279007F080218
:10230300185974ED1217AD8A088B098C0A8D0B903E
:10231300810A780812156F741312171D780C1215A1
:102323009590810A780C12156F780C79081213A80E
:1023330040117808790C121547AA08AB09AC0AAD0D
:102343000B8022751000751100751200751301784A
:1023530010790C1215477810790812150EAA10ABD4
:1023630011AC12AD137F0C02185990810A78081230
:1023730015958A828B8378081215827F0402185977
:1023830074F51217AD8C828D8378081215958A82A5
:102393008B83780812155B1223DBC3E09CF0A3E068
:1023A3009D1223CD402290812678081215958A82AA
:1023B3008B8378081215348A828B83A3A3A3A3E0AB
:1023C3002420F0A3E0344EF080A0F088828983C3F8
:1023D300E09420A3E0944E22EA2404F8E43BF98C31
:1023E300828D83A3A3A3A3E0FCA3E0FD888289835A
:1023F3002274F51217ADE9FE9004D1E0FAA3E0FBD5
:10240300EE29F8E433F9749128F582748039F58361
:10241300E02AF508A3E03BF50978081219549081E6
:10242300221215B312225874021216E78A088B0976
:102433008C0A8D0B741078081214D6AA08AB097F86
:102443000402185974F11217AD8A0C8B0D8C0E8D82
:102453000F741112171D12196B741112171DE0243A
:1024630001F508A3E03400F509E4F50AF50B780C4F
:1024730079081213E79081127808121595780C7970
:10248300081213E7AA0CAB0DAC0EAD0F1222587451
:10249300021216E78B09EA450960047A0180027A81
:1024A30000EC2AFCE43DFD741312171DE0F8A3E0D1
:1024B300F9E8FEE9FFECF8EDF97A717B02121646B2
:1024C30088088909E4F50AF50B8E828F8378081250
:1024D30015A4ECF8EDF97A717B021216468A088B83
:1024E30009740578081216BE8E828F83A3A3A3A353
:1024F300E508F0A3E509F07F08021859C082C083FC
:10250300E9906000F0D083D08222C0E074F2121808
:1025130099A2AFE433FED2AFE589A2E150031211D1
:1025230035758900C2C5EEA2E092AF7F010218F8AB
:10253300C0E074F2121899A2AFE433FED2AFE58B78
:10254300A2E05003121135758B00C2E880D8C0E0B9
:10255300C0D0E8C0E0E9C0E0A9A8D2AFC2C7E9A2F1
:10256300E7E433F8E9A2E792AFD0E0F9D0E0F8D09E
:10257300D0D0E032C2AF02000022C0E0C0D0C0829F
:10258300C083E5AFA2E0500C90153CE02401F0A31A
:10259300E03400F0D083D082D0D0D0E032FFFFFF10
:1025A300FFFFFFFFFFC082C083E9901601F0D083D5
:1025B300D08202011F74F6121741E99002E6F090EF
:1025C3000346E0F508750900740278081216BEAADE
:1025D30008AB0912123D9002E7122F3E9002E71258
:1025E300332B606F900346E075F003A4FAABF0124F
:1025F300123D900304122F3E90030412332B700BF1
:102603009002E71232FC12124380489003041242F4
:102613003F7AFF7BFF1210A57A0080198A0875099B
:1026230000740278081216BE123D3874FF12276B2D
:10263300E4F0A3F00A900346E0F8EAC39840DD799A
:102643000512076F9002E6E0F912065B7AED7B074D
:102653001209F1023DDB74F41217418A088B09EB6E
:10266300548060479002E6E0F91211B38A0A8B0B9B
:10267300AE0AAF0BEE4F602A8E828F83E064B07098
:102683001A12077BE960148E828F83A3A3A3A3E0AE
:10269300F9EE2405FAE43FFB120751EEFAEFFB12C1
:1026A30011A1AA08E5096480FB80047A007B00027B
:1026B300288E74F212174174FB1216D1EAFEEBFF57
:1026C300EE4F6045740312171DEEF0A3EFF085186B
:1026D30082851983ECF0A3EDF0740212171DE9F063
:1026E300AA18AB19120655E9F50870757413121779
:1026F3001DE0F50AA3E0F50BE50A450B60638E8246
:102703008F83122CC7EE4F700575080280537A062B
:102713007B0012123D8A0C8B0DA80CA90DE84970A1
:1027230005750813803B88828983E412276BEEF0DA
:10273300A3EF122887E50AF0A3E50BF09002EA1253
:1027430028809002EA6017E0FCA3E08003EAFCEB38
:10275300FD8C828D8312288070F38C828D831239D5
:1027630053A90874050244BFF0A3124221A32274A3
:10277300F21217418908890C750D007403780C1245
:1027830016BE850C0A850D0B9002E9F09002E71244
:10279300375E12287E602E1212437900801D890C49
:1027A300750D007402780C1216BE9002E7123BF707
:1027B3008882F583A3A3E4F0A3F009900346E0F82D
:1027C300E9C39840D9900346E0FA850AF0A4CAA861
:1027D300F0850BF0A428FB12123D8A0C8B0DAE0C76
:1027E300AF0DEE4F7003022874900346E0FC850A98
:1027F300F0A4CCA8F0850BF0A428FD790012118F6A
:102803007C0080318D0C750D007403780C1216BE9C
:102813008A828B8312287988828983E4F01228863E
:10282300A3A3F0A3F00DEDC3950840D8EE250AFE4F
:10283300EF350BFF0C900346E0F8ECC39850288C5F
:102843000C750D007402780C1216BE9002E7122864
:1028530079E82402500109FAE9FB8A828B83EEF0BE
:10286300A3EFF07D0080BFE5089002E9F0790080D6
:102873000279130244C2123BFBF922A3A3123300D1
:10288300EA4B22A3124221A3A3A3227F040218131B
:10289300C082C0839002EA12332B601C8882898332
:1028A300A3A3E06A7003A3E06B8882898370E8A323
:1028B300A3A3A31232FC80047A007B000225B17427
:1028C300F212174174FD1216D1EAFEEBFF8518824E
:1028D300851983E4F0A3F0740212171D7401F0123A
:1028E3003328701412092B12123D9002ED122F3E61
:1028F3001233287003022A5412303EEE2404F50AE0
:10290300E43FF50B850A82F583E024FE603C24FC5A
:10291300607424FE607E24FE70030229A424FE70EA
:10292300030229B124FE70030229BE24FE700302B0
:1029330029CB24FE70030229D824FC70030229F951
:1029430024FE7003022A11022A4D12092B9002EF72
:10295300EAF0A3EB122A601203AFE96003022A4DE7
:102963009002EF12196B8E828F83A3A3A3A3A312EA
:10297300423F8508828509831232FC1207397402AB
:102983001216E7022A4DAC18AD19EEFAEFFB120747
:1029930081022A1CAC18AD19EEFAEFFB12078780EF
:1029A30078AC18AD19EEFAEFFB12078D806BAC18FB
:1029B300AD19EEFAEFFB120793805EAC18AD19EE7A
:1029C300FAEFFB1207998051AC18AD19EEFAEFFB41
:1029D30012079F80447402121727880C890D780C04
:1029E3001219547402121737EEFAEFFB1207A5748B
:1029F300021216E78023AC18AD19EEFAEFFB1207AB
:102A0300ABE9F87016740212171DE4F0803CAC18A1
:102A1300AD19EEFAEFFB1207B1E9F8E8602C8E82EC
:102A23008F83A3E064146022850A82850B83E09080
:102A330002EFF08518828519831232FC9002F0129E
:102A43002F3EE8A3122A601203A9EEFAEFFB120746
:102A53000F740212171DE0F974030244BFF07CEFF8
:102A63007D028508828509831233002274E81217D8
:102A73004174FA1216D1740412171DECF0A3EDF091
:102A83008A128B13EA2405F50EE43513F50FEA24B5
:102A930002F510E43513F511851082F5831232FC2B
:102AA30012049F8A0A8B0B7508007C037D00790052
:102AB3007AEF7B0212118FE50E2402F516E4350F2F
:102AC300F5177402121727880C890D780C12195404
:102AD300850E82850F83A3A3A3A3E0F50C750D00D8
:102AE300780C121954E50E2405F50CE4350FF50D99
:102AF300780C121954851682851783123603120631
:102B03007374061216E78A0C8B0DE50C450D7003E2
:102B1300022C908020851882851983E0888289831E
:102B2300F00508851882851983A3E0C0E0122CD133
:102B3300D0E0F00508E50A24FBFAE50B34FFFBC3FC
:102B4300E5089AE49B4003022C907E007F008512E7
:102B530082851383A3A3A3A3E0F509780912195867
:102B6300E4F514F51578141219547514EC7515025F
:102B730078141219549002ED12196B740912171D6F
:102B830012196BE50A24F9F9AC0CAD0D8510828599
:102B930011831232FC1207D574091216E7E9600398
:102BA300022C31850E82850F83A3A3A3A3A3A3A322
:102BB300E0F89002ECE0687075E0F5148E15781477
:102BC30012195412423C850E82850F83A3A3A3A33B
:102BD300A3A3A3A31232FC12118974021216E7E90C
:102BE300604C9002F012332B703BE4F5147814120E
:102BF30019547CFF7DFF790785108285118312327A
:102C0300FC12074B74021216E71233317017850E4C
:102C130082850F831243D9740412171D123CEB12E1
:102C23003634022CC4850C82850D83122CC7A81858
:102C3300A919881489157814121954740412171DCC
:102C430012196B851682851783122F3412067F742F
:102C5300041216E78A0C8B0DEE4F7003022B0D1234
:102C63002CD1EE122CDC1235EAEF122CDCF8A3E0A7
:102C73003400F9E50C450D6003022B188882898323
:102C830074FFF00508122CD174FFF00508E5086005
:102C93001A1313543F122F441203BBE96009900225
:102CA300F01232FC1211FB79008016850E82850F1B
:102CB300831243D9740412171D123CEB1239537952
:102CC3000A0235BDA3A3A3A3E0FEA3E0FF22A80845
:102CD3009002F0E0281235EA22F00508089002F08D
:102CE300E0282274E812174174FA1216D174021202
:102CF300171D122F3E740412171DECF0A3EDF07490
:102D03000212171DE024051235D3E0F50CA3E0F5FC
:102D13000D740212171DE02402F510A3E03400F530
:102D230011851082F5831232FC12049F7508007519
:102D33000900EA24FCFEEB34FFFF8008050CE50CD8
:102D43007002050DA808C3EE98EF94005003022EFD
:102D5300F0A818A919880E890F780E121954851432
:102D630082851583A3A3A3A3124243121954E51426
:102D73002405F50EE43515F50F780E121954851454
:102D830082851583122F3212067374061216E78A90
:102D93000E8B0FEA450F7003022EF0EA2404F5169A
:102DA300E4350FF517851682F583E0F50CA3E0F5FE
:102DB3000D85188285198312423F8A828B83A3A3D0
:102DC300A3E0F98510828511831232FC120661E9B2
:102DD300F5096003022EF0740212171D1235FAF57D
:102DE300097809121958E4F512F5137812121954D7
:102DF3007512EC75130278121219549002ED121920
:102E03006B740712171D12196BEEF9AC0EAD0F851B
:102E130010828511831232FC1207D574091216E74A
:102E2300E9F5096003022EF0E508703FE4F50EF5BD
:102E33000F780E1219547CFF7DFF79098510828566
:102E430011831232FC12074B74021216E71236205A
:102E5300700D740412171D122F277911022F24905D
:102E630002ECE024029002F0F080149002F0E0FA09
:102E73009002ECE0790024025001096A497072A8BB
:102E8300089002ECE0FAE82AFAE43400FBEE9AEF49
:102E93009B405A851682851783E0C0E09002F112A9
:102EA3002CD6D0E0F00508851682851783A3E0C0F1
:102EB300E0089002F1122CD6D0E0F005089002EC65
:102EC30012424312195412423CA8081235C7121178
:102ED3007774021216E79002ECE02508F50874FFF8
:102EE300650C700474FF650D6003022D3FE50860F7
:102EF3001F9002F0E0F5F0E50884122F441203C19D
:102F0300E960099002F11232FC1211FB7900801181
:102F1300E509700375090A740412171D122F27A9F6
:102F2300090235BD123762E50CF0A3E50DF022A3CB
:102F3300A31244CEAA0CAB0D22A3A3EAF0A3EBF099
:102F4300229002EFF07CEF7D0285108285118312BF
:102F530033002274EC12174174FC1216D1123A6337
:102F630074021217371232F61206798A0C8B0DEAA5
:102F7300450D700302302E12303EA818A91988108F
:102F8300891178101219547CFF7DFF790B85088213
:102F93008509831232FC12074B74021216E71231B1
:102FA30034700C850A82850B8312363102303B8ED6
:102FB300828F83A3A3A3A3E0F5127812121958E416
:102FC300F512F51378121219547512EF751302786E
:102FD300121219547810121954740912171D121968
:102FE3006B740912171DE0F9AC0CAD0D85088285D1
:102FF30009831232FC1207D574091216E7E9FE7031
:10300300157CEF7D028508828509831232FC120349
:10301300C7E97009802074166E70027E009002F07A
:103023001232FC1211FBEE7004800B7E01850A82C2
:10303300850B83123950EEF9023965EE2402F50847
:10304300E43FF5092274EC12174174FC1216D1EA1D
:10305300FEEBFF8C0E8D0FEE2405F508E43FF5091A
:1030630074021217378508828509831232FC12060F
:10307300798A0C8B0DEA450D7003023124EE24028C
:10308300F50AE43FF50BA818A919881089117810DF
:103093001219547CFF7DFF790D1232F612074B741F
:1030A300021216E7123134700B85088285098312E8
:1030B3003631807A8E828F83A3A3A3A3E0F512789F
:1030C30012121958850882850983A3A312196B75F7
:1030D30012EF7513027812121954781012195474DE
:1030E3000912171D12196B740912171DE0F9123218
:1030F300F21207D574091216E7E9FE700F7CEF7D13
:10310300021232F61203CDE97009802074166E7034
:10311300027E009002F01232FC1211FBEE7004806A
:103123000B7E01850882850983123950EEF9023935
:103133006512333BF510A3E0F511EA45112274E85B
:1031430012174174FE1216D18A168B178C148D1523
:10315300EA2405F50CE43517F50DEA2402F50EE42F
:103163003517F50F850E82F5831232FC12049F8A00
:10317300088B09750B007C037D0079007AEF7B02D5
:1031830012118F750A00E50814F5100424FFF508E1
:10319300E50934FFF50980549002EFE0FA9002EC60
:1031A300E0F8EA28F8E43400F9E50898E5099950CD
:1031B3000D9002EFE0F8E510C3989002ECF0E0F513
:1031C30012751300781212195412423C9002F0E067
:1031D3002AFAA3E03400FB12117774021216E79067
:1031E30002ECE0F89002EFE028F0050A850C8285F6
:1031F3000D83A3A3123C0740030232D79002EFE0F2
:10320300C39508E4950940030232D7AE0AEE2EFEB9
:10321300E433FF123316AC18AD19124257E439FBED
:103223001206798A128B13AC12AD13EC4D701B7519
:103233000B011233061239549002F01228806003F6
:103243001211FBA90B74020235BF85168285178301
:10325300A3A3A3A3E0F50B780B121958E4F512F519
:103263001378121219547512EC751302781212198D
:10327300549002ED12196B740712171D12196BA9E2
:1032830010850E82850F831232FC1207D574091242
:1032930016E7E9F50B709B9002F012332B600302E3
:1032A300319BE4F512F51378121219547CFF7DFF5C
:1032B300790F850E82850F831232FC12074B74023D
:1032C3001216E7123331600302319B1233061236B2
:1032D300350232487CEF7D02850E82850F831232E0
:1032E300FC1203D3E9600302323B7900023248AC9B
:1032F3000CAD0D850A82850B8312330022E0FAA3FD
:10330300E0FB22123316E0FAA3E0F9EA8514828582
:10331300158322850C82850D83E02EF8A3E03FF907
:1033230088828983229002ED1243DDE84922123319
:103333003BF8A3E0F9E849229002F0EAF0A3EBF0AE
:103343009002F0E02274E812174174FA1216D17455
:103353000412171D122F3E8C168D17740412171D9D
:10336300E02405F50EA3E03400F50F740412171DD5
:10337300E024021235D31232FC12049F8A0A8B0B0B
:103383007F007E00A818A9198808890978081219EE
:1033930054850E82850F83A3A3A3A3E0F5088E09AA
:1033A3007808121954E50E2405F508E4350FF509DC
:1033B3007808121954850E82850F83A3A31236034E
:1033C30012067374061216E78A0C8B0D80291235C8
:1033D300F4F00F1235F4F00F9002EC12393F12198A
:1033E3005412423CEFF81235C712117774021216C9
:1033F300E79002ECE02FFFE50C450D7003023483E8
:10340300851882851983123A75A3A3A3E0F985145D
:10341300828515831232FC120661E9FEE50C240451
:10342300F510E4350DF511EE7050740412171D12EA
:1034330035FAF5087808121958E4F508F5097808FB
:103443001219547508EC7509027808121954900280
:10345300ED12196B740712171D12196BE50A24FA82
:10346300F9AC0CAD0D8514828515831232FC12075D
:10347300D574091216E7E9FE603912361012395372
:10348300EF70030235AA9002F0E0F5F0EF849002AA
:10349300EFF07CEF7D028514828515831232FC12D6
:1034A30003D9E960099002F11232FC1211FB790091
:1034B3000235BD8F08EF703BE4F512F51378121255
:1034C30019547CFF7DFF791185148285158312328F
:1034D300FC12074B74021216E712362070091236DB
:1034E300101236340235BD9002ECE024049002F051
:1034F300F080359002ECE0F89002F0E0FAE8240462
:10350300FCE43400FDEC6A4D6003023489E50A24CF
:10351300FAFAE50B34FFFBE50828F8E43400F9EA8E
:1035230098EB995003023489851082851183E0C09A
:10353300E09002F1E02FF8A3E034008882F583D015
:10354300E0F00F851082851183A3E0C0E01235E11E
:10355300D0E0F00F7402121727880889097808123F
:103563001954740212171D12196B850E82850F836D
:10357300122F3212067F74041216E78A0C8B0DEA9F
:10358300450D70030233D1740212171DE0C0E0121F
:1035930035E1D0E0F00F740212171DA3E0C0E01272
:1035A30035E1D0E00233D9EE70027E0A850E8285C2
:1035B3000F83123616123953EEF974061216E77F8B
:1035C300100218139002F1E028FAA3E03400FB2262
:1035D300F514A3E03400F515851482F58322123522
:1035E300E5229002F1E02FFAA3E034008A82F5830A
:1035F300221235E574FF22123762A3A3A3A3E022AC
:103603001244CE850E82850F8312330022851082E9
:103613008511831243DD851682851783229002F17B
:10362300EAF0A3EBF09002F11243DDE849221239EC
:1036330059E8F0A3E9F079112274EA12174174FEF4
:103643001216D18A088B098C128D13EA2405FEE425
:103653003509FFAC18AD198E828F831232FC120626
:10366300798A0C8B0DEE2406F50EE43FF50FEA453F
:103673000D7003023734E5082402F50AE43509F531
:103683000B8A828B83A3A3A3E0A2E550288518822B
:103693008519831232FC1207CF8A108B11EA451168
:1036A300602079121232F285108285118312173F3E
:1036B300E9F50C707F850E82850F83E060097952EE
:1036C3008011750C0E806D850882850983A3A3A3E1
:1036D300A3E0F9E4F508F50978081219548E828FEE
:1036E30083A3A3E0F50878081219548E828F83A36D
:1036F300A3A312196B8E828F8312423F1232F612EA
:1037030007DB74061216E7E9F50C7011850E828546
:103713000F83E0702D1232F61203DF8025741665D5
:103723000C7011750C00741812171D12375EE480AB
:1037330010750C011243D5851282851383E8F0A31B
:10374300E9F0850E82850F83E0600479008002A989
:103753000C74021216E77F0E02181312376222E06E
:10376300F8A3E0F58388822274EC12174174F712F0
:1037730016D18A0A8B0B8C108D11EA2405FEE435D1
:103783000BFF750C00AC18AD198E828F831232FCBF
:103793001206798A088B09EA4509700302392AE57A
:1037A3000A2402F50A5002050B8A828B83A3A3A382
:1037B300E0A2E5502F8518828519831232FC120787
:1037C300CF8A0C8B0DEA450D604F7912AC08AD0919
:1037D3001232F6850C82850D8312173FE9F50C60D2
:1037E3000302392D850A82850B83E0F508A3E0F5F2
:1037F30009AA08FB1207C3EA4B70197AFF7BFF1271
:1038030007C3EA4B70030239208A828B83E508F0F1
:10381300A3E509F07508008008750C0E02392D0523
:10382300089002E9E0F8E508C398400302392085CF
:10383300080E750F007403780E1216BE8A828B83EE
:10384300A3A3E0250EF8A3E0350F123CF470D08E4D
:10385300828F83123948122F3E8E828F83A3A31245
:103863003948122F3CEE2404F508E43FF509850896
:1038730082F583E088828983A3A3A3A3F0A3E4F062
:10388300EE2405F50EE43FF50F850E82F58312391C
:1038930048A3A3A3A3122F3C751207751300781234
:1038A300121954EEFCEFFD740412172F12117774E2
:1038B300021216E7E4F5127812121954850882856C
:1038C3000983E0FC7D0079171232F612074B74026C
:1038D3001216E7740712171D122F3E740712171DD5
:1038E300E0FA4B603D85088285098312393F12193E
:1038F30054850E82850F8312423F12117774021290
:1039030016E774021217371232F61203E5E960263E
:10391300740712171D1232FC1211FB8019750C0962
:103923008008750C118003750C011243D585108234
:10393300851183123953A90C74098028E0F50875A1
:1039430009007808221233008882898322123959A8
:10395300E8F0A3E9F022E0F8A3E0F9850E82850FF1
:10396300832274041216E77F0C02181374EC1217E7
:1039730041123A63751000EE2402F50CE43FF50D95
:10398300850C82F5831232FC1207C38A088B09EA7D
:1039930045097003023A47850A82850B83E0640177
:1039A3006003023A3CAC08AD09AA0AAB0B1207B795
:1039B300E9606E850882850983122CC9EE2406F519
:1039C3000AE43FF50B8E828F83A3A312196B8E82B9
:1039D3008F83A3A3A3A312196B850A82850B83127A
:1039E300196B79188E828F83123A751232FC120783
:1039F300DB74061216E7E9F8741668700B850A8201
:103A0300850B83E4F0A38014E860128E828F831207
:103A130032FC850E82850F83EAF0A3EBF0881080D9
:103A230018780E121954AC08AD09EEFAEFFB120721
:103A3300BD74021216E7E9F510AA08AB091207C90B
:103A4300E510700E850C82850D831232FC1203EB98
:103A53008009741665107003751000A91002396A85
:103A6300EAFEEBFF8C0E8D0FEE2405F50AE43FF51D
:103A73000B221244CE850C82850D832274EA121721
:103A8300417508007509007E007F00750A00EC246B
:103A930002F510E43DF5118035EC65087003ED6522
:103AA300096003023B3488828983A3A3E06A70031D
:103AB300A3E06B707C88828983A3A3A3A31243D959
:103AC300EE28FEEF39FFEA28FAEB39FB050A123C30
:103AD30004503A850A0C750D007403780C1216BE57
:103AE300851082851183123BF7123CF4601FE508B1
:103AF300450970A58C088D0988828983122CC78893
:103B0300828983A3A3E02EFAA3E03F80BEE50AC324
:103B130094025003023BF2750800750900EE4F60F2
:103B230010EEFAEFFB1211F58A0E8B0FEA450F70B8
:103B3300057900023BF4750B00023BC7850B0C753E
:103B43000D007403780C1216BE851082851183E074
:103B5300250CF50CA3E0350DF50DE50C2406F51445
:103B6300E4350DF515851482F583123CF96042E5C1
:103B73000C2404F512E4350DF513851282F5831236
:103B8300196BE50E2508FAE50F3509FB1211777459
:103B9300021216E7851282851383E02508F508A330
:103BA300E03509F5098514828515831232FC12115B
:103BB300FBE50B600D7C087D007900AA0CAB0D12B0
:103BC300118F050BE50BC3950A5003023B3F85108C
:103BD300828511831243D988828983A3A3A3A3A3D4
:103BE300A3E50EF0A3E50F122887EEF0A3EFF0791B
:103BF30001023759123BFB22E0250CF8A3E0350DF7
:103C0300229002E9E0F8E50AC3982274F012174102
:103C13008A0E8B0F8C0A8D0B750D00750C0080506E
:103C23007916EE2406F508E43FF5098E828F83A307
:103C3300A312196B8E828F83A3A3A3A312196B857F
:103C4300088285098312196B850E82850F83A3A3CE
:103C53001232FC1207DB74061216E7E9F50D74162F
:103C6300650D706C850882850983E4F0A3F0050C6B
:103C73009002E9E0F8E50CC3985066AA0C8A08752F
:103C83000900740378081216BE850A82850B83A384
:103C9300A3123D43E8FEE9FF8E828F83123CF96055
:103CA30040EA2401F508E43400F5099002E9E065EF
:103CB300087002E509601488828983A3A3A3A3A3E0
:103CC300A3A3A312332B6003023C237918023C25E0
:103CD300E9609B1243D5741012171D123CEB123985
:103CE30053A90D7F08021813E0FAA3E0F5838A8233
:103CF30022F9888289831244CEEC4D2274F612177E
:103D0300417C0080010C900346E0F8ECC398501E00
:103D13008C08750900740278081216BE123D38E04B
:103D23006A7003A3E06B70DDE8FAE9FB80047A00B4
:103D33007B00023DDB9002E7123D438882898322A8
:103D4300E02508F8A3E03509F92274F21217418A35
:103D5300088B09750A0080278E828F83A3A3A3A3F0
:103D630012287E60031211FB7C087D007900EEFAB5
:103D7300EFFB12118F8E828F83E4F0A3F0050A12FA
:103D83003C045027850A0C750D007403780C121639
:103D9300BE850882850983A3A3E0250CFEA3E03535
:103DA3000DFF8E828F8312332B70AD8508828509B8
:103DB3008374FFF0A3F00244C274F6121741120792
:103DC300758A828B83E582458370067A007B008047
:103DD30007A3A3A3A31232FC7F0202181374E812F1
:103DE300174174FB1216D1E9851882851983F08A6D
:103DF300168B17ECFEEDFF7510008E828F83A3A345
:103E0300A3E0A2E4502D741D12171D1232FC1207F9
:103E1300CF8A828B83E58245837003024217790A36
:103E2300EEFCEFFDAA16AB1712173FE9F51060037E
:103E330002421A741F12171DE0F508A3E0F5097476
:103E43002112171DE0F50AA3E0F50B742312171DC9
:103E5300E0F50EA3E0F50F8E828F83E0640260032A
:103E63000241B8A31243D9850882850983A38582B9
:103E730012858313EE2406F50CE43FF50D88828941
:103E830083124257F514E439F51578141219DE013B
:103E93000000280128BA3E070002287F3F0328EDCF
:103EA3003E0029AE400129D94002297A400329AEB8
:103EB3004004295241B841E50E450F60030241B366
:103EC300850C82850D831243D9E8FAE9FB8A828B3C
:103ED30083E0850A82850B831242621219548A8217
:103EE3008B83A3E0FCA3E002413CE50E450F600396
:103EF3000241B3850A82850B837401F012424C851B
:103F03000882850983F07C007D008E828F83A3A3C2
:103F1300A3A3E02401FAA3E03400FB120679EA4BE1
:103F230060408A828B83E02402F8850A82850B83B2
:103F3300E028F0EA2404F8E43BF988828983E085E9
:103F430012828513831242701242621219548A82BA
:103F53008B83A312423FE5082403FAE43509FB02ED
:103F63004141850A82850B83E02404F07C047D00B3
:103F73007900AA12AB1312118F02421AE50E450FF4
:103F830060030241B312424CFEA3E0FF850A82851F
:103F93000B837404F0EE850882850983F0EF8512A4
:103FA30082851383F07403121737EEFAEFFB1206C0
:103FB300798A0C8B0DEA450D700302405D8A828B72
:103FC30083A3A3122CC77401121727880E890F78B5
:103FD3000E121954740512171D12196B7CFF7DFF05
:103FE30012067F74041216E78B0FEA450F703385B0
:103FF3000C82850D83124243121954850C82850D60
:1040030083A312196B7C027D007A4F7B8112048D8E
:1040130074041216E7E9700A740112171D74FFF095
:10402300A3F08E828F83E064027039750C02750DE4
:1040330000780C1219548E828F83A312423FE50835
:104043002404FAE43509FB12117774021216E7858A
:104053000A82850B83E024028009740112171DEE86
:10406300F0A3EFF0740112171D12423174011217FD
:104073001D1242280241ADE50E450F60030241B314
:10408300850C82850D831244C7AA16AB171210BD87
:10409300850A82850B837402F0850882850983EA89
:1040A300F0851282851383EB0241B0E50E450F6064
:1040B300030241B312424CF8A3E0F9850A82850B4F
:1040C300837402F0E8850882850983F0E98512820A
:1040D3008513830241B0850C82850D831232FC1255
:1040E3001171EAFAF8C3950EE4950F405CE8650E8A
:1040F300450F70047A008021851882851983E0FCBE
:10410300E50E2CFCE4350FFDC3EC98ED9400500351
:10411300E08005E50ECAC39AFAEA850A82850B8315
:10412300F08A0A750B00780A121954850C82850DE2
:1041330083E0250EFCA3E0350FFDAA08AB0912119D
:104143007774021216E702421A75100702421AE543
:104153000E450F705B850C82850D831243D9850A4A
:1041630082850B837407F088828983124229124265
:1041730021E0851282851383F0E82402FAE439FBF7
:104183008A828B831242318A828B83124228A3A3B1
:10419300122886124236F0E82405F8500109888275
:1041A3008983124236A3124270A3A3A3A3F08067AC
:1041B30075100B8062741D12171D1232FC120775E5
:1041C3008A828B83E5824583604A1243D9880C89AE
:1041D3000DE8450D603E742512171DE0F5107810AB
:1041E300121958780E121954780A121954780812B1
:1041F3001954740712171DE0F9EEFCEFFDAA16AB74
:1042030017850C82850D8312173F74071216E7E991
:10421300F510800375100EA91074050235BFF088E0
:10422300828983A322A3E08508828509832212421F
:1042330077F022124277A3A3229002ED1244CE22FA
:10424300E0F50E750F00780E22850C82850D831222
:104253003762E022E0FAA3E0F8E4C8F9EA2822F0A2
:104263008A828B83E0F50A750B00780A22124221B9
:1042730012427722E0850882850983A3A32274EE84
:1042830012174174FE1216D18A088B09ECFEEDFF5A
:10429300890AAC18AD19EEFAEFFB1206798A0C8B7A
:1042A3000DEA450D7003024369851882851983124F
:1042B30032FC1207758A828B83E582458370030281
:1042C3004364A3A31243D9880E890FE8450F7003F3
:1042D300024364741412171DE0F510A3E0F511E511
:1042E3000AF50B780B121958741912171D12196B52
:1042F3007810121954741B12171DE0F9AC0CAD0D94
:10430300AA08AB09850E82850F8312173F74051225
:1043130016E7E9F50B705274FE650A604C850C8252
:10432300850D83E064027041124378FAA3E0F9EA51
:10433300F87402687003742969702E8510828511E0
:1043430083124257F50CE439F50D780C121954EE2B
:10435300FCEFFDAA08AB091207F374021216E780FB
:1043630008750B0E8003750B01A90B74021216E777
:104373007F0A021813A31243DD88828983E0227423
:10438300F612174174FE1216D1740C12171D124344
:10439300D9E8851882851983F0740112171DE9F095
:1043A300E4F508F50978081219547508027808121B
:1043B30019547404121727880889097808121954A4
:1043C30079FE1207DB74061216E774021216E7026F
:1043D3003DDB8E828F831243DD22E0F8A3E0F922D6
:1043E30074F7121741EAFEEBFF89089003041242A7
:1043F3003F1210BDEA5402600BA908EEFAEFFB125C
:10440300066D800279017F0102181374F2121741BD
:1044130074FE1216D1EAFEEBFF890A7401650A6085
:10442300147402650A60030244BD7901120A0FE99C
:1044330060030244BDEEFAEFFB1207C3EA4B6003CD
:104443001207C9A818A919880889097808121954E4
:10445300750802750900780812195475084B750917
:104463008178081219547CFF7DFF7A017B001206C4
:104473007374061216E78038850882850983A3A31F
:10448300A3A3A3A31244C7EEFAEFFB1210A5E4F50E
:104493000CF50D780C121954740212171D12196BB6
:1044A3007CFF7DFFAA08AB0912067F74041216E78E
:1044B3008A088B09E508450970BE74021216E77F66
:1044C300060218131237621244CE22E0FCA3E0FD69
:1044D3002274F41217418A088B09ECFEEDFF901643
:1044E30001E0F4604B7A097B0012119BEA4B6040B8
:1044F3008A828B8374B1F0A3E4124536F08A828BEF
:1045030083A3A3E508F0A3E509124536A3EEF0A3C0
:10451300EFF0740C12171D1243D98A828B83A3A365
:10452300A3A3A3A3A3123953901601E0F91211A771
:1045330002288EF08A828B83A3A3A3A32274F01292
:10454300174174FA1216D18909ECFEEDFF750800C4
:104553008A0A8B0B780A1219980004106647834560
:10456300A145BB45D345F14509462C46444658462B
:104573008246FD460E4725474047664766479846AD
:104583007401650960030247618E828F83E0F8C37B
:1045930094034003024761E890162402473D7402E6
:1045A300650960030247618E828F83124EC49016A1
:1045B30025E8F0A3E902473D74016509600302475A
:1045C3006112478E4003024761E890074702473D67
:1045D3007401650960030247618E828F83E0F8C32B
:1045E30094054003024761E890074802473D740180
:1045F3006509600302476112478E4003024761E881
:1046030090074902473D74106509600302476175CD
:104613000A10750B00780A1219547A4A7B07121193
:104623007774021216E70247877401650960030273
:10463300476112478E4003024761E890075A0247D9
:104643003D7401650960030247618E828F83E090A8
:10465300162802473D7404650960030247618E8290
:104663008F83780C121595908122780C1213C85001
:104673000302476190075C780C1215A4024787E98F
:104683006003024761120625E9700512106980551F
:104693009007EF8061740765096003024761750A3B
:1046A30006750B00780A1219548E828F83A3AC828D
:1046B300AD83740212172F12117D74021216E77C58
:1046C300007D00AA18AB198E828F83E0F9121015B2
:1046D300E9FEC3940A4003024784120625E9700CDD
:1046E300EEF912106F79501212B5806D74F02EF539
:1046F30082E43407F5837401804074016509705EB8
:1047030012478E5059E890075B802F74016509703A
:104713004D8E828F83E0F8C3940A5042E8901627A7
:1047230080187401650970368E828F83E0F874F9FE
:1047330028C3940A5028E8901629F080477401652D
:1047430009701B9007EEE0F88E828F83E09007EEEE
:10475300F0E87030E06401702B12105D802675085C
:10476300188021C3EA9427EB94005015740265095D
:10477300700F8E828F831259A41204A5E9F5088065
:1047830003750802A9087406024AB28E828F83E079
:10479300F8C3940222A90880031216E77F040218C3
:1047A3001374F012174174B11216D18C0A8D0B9049
:1047B30080C8742012173774061215E47420121778
:1047C30037121015E9FF745F12171DE0F509EFC3E7
:1047D300940A400302492675F006EFA4F5087441D4
:1047E3001217377A0E74202508F91212AFE97009EF
:1047F300744D12171DE0FE80027E00901624E064C3
:10480300027005750E018003750E0074086509704A
:10481300047422800274212508F50D7C1B7D007928
:1048230000742612172F12118F74261217377A1B52
:10483300A90D1212AFE9702D744012171DE024F96F
:10484300C3940A5020E50EF50D780D1219587427FC
:10485300121737EEA2E0E433F9AA0AAB0B120547AD
:1048630074011216E77C147D007900740C12172F63
:1048730012118F740C1217377A1074242508F91249
:1048830012AFE970347C1079FF740C12172F1211D8
:10489300EFE97025741C12171DAC82AD837A047482
:1048A300252508F91212AF740C121737EEA2E0E4B3
:1048B30033F9AA0AAB0B12052FAC18AD197A0C7495
:1048C300702FF91212AFE97049AA18AB19121045EB
:1048D3007F00EF75F003A4F8A9F08518828519838A
:1048E300E58228F8E58312507B12525C601D8882B2
:1048F3008983A3A3E0F50E750F00780E121954AA4D
:104903000AAB0B1207E174021216E70FEFC394040C
:1049130040C0EEA2E1500C900746E0F9AA0AAB0BA7
:104923001207E7740465097028901624E064027086
:10493300207A0090075AE060027A01900747E0600E
:1049430004780480027800E84AF9AA0AAB0B12053E
:10495300FB7900744F024AB274F71217411206250D
:10496300E9704F9007EFE06401701512106990072A
:10497300EFE4F07C0AFDF97AF07B0712118F802AAD
:10498300750800A80874F028FEE43407FF8E828FB0
:1049930083E06401700BA90812106F8E828F83E489
:1049A300F00508E508C3940A40D979501212B512EC
:1049B300105D02539374F012174174F01216D1EA8A
:1049C300FEEBFF8C088D09750A0AE9600C14600977
:1049D30014603B14607D024AAE121057E9F50AC316
:1049E300940A4003024AAEE50845097003024AAE41
:1049F300750C06750D00780C121954EEFCEFFDAA28
:104A030008AB0912117774021216E7024AAE750C4D
:104A130000750E06750F00780E121954EEFCEFFDAB
:104A2300E50C75F00EA4F8A9F0746828FA74073938
:104A3300FB12118974021216E7E9700B050CE50CE1
:104A4300C3940A506680CA850C0AE50AC3940A50C7
:104A53005A8049750C00AC18AD197A1075F006E54B
:104A63000CA42423F91212AFE9701C7C1079FFAA5D
:104A730018AB191211EFE9700EEEFCEFFDAA18AB9B
:104A83001912050BE9600B050CE50CC3940A501BC6
:104A930080C4850C0AE50AC3940A500FE50845094A
:104AA3006009AA08AB09A90A121051A90A741012C5
:104AB30016E77F0802181374F41217418909750861
:104AC3001574FF6A700374FF6B70277E00AC097A5C
:104AD300027B00EEF9121033E960037508000EEE55
:104AE300C3940A40E8E50960537A817B10120A33C4
:104AF300804A120A038A0A8B0BAE0AAF0BEE4F6091
:104B0300387C007D00EE2405FAE43FFB8E828F8320
:104B1300A3A3A3A3E0F9121015E9F9C3940A500C57
:104B2300AC097A027B00121033750800E509600CAA
:104B3300EEFAEFFB12108180037508140247987494
:104B4300F2121741ECFEEDFF750815740E12171DD6
:104B5300E0F50AA3E0F50B74FF6A700374FF6B7052
:104B630021750900AC0AAD0BEEFAEFFBA90912108F
:104B730039E960037508000509E509C3940A503F44
:104B830080E2120A038A828B83E5824583602D7C4F
:104B9300007D00E5822405FAE43583FBA3A3A3A3E8
:104BA300E0F9121015E9F9C3940A5013AC0AAD0BDE
:104BB300EEFAEFFB1210397508008003750814A98B
:104BC300087F06021813C082C083900760EAF0A32F
:104BD300EBF0900746E0FC7D007A267B001204A5EB
:104BE300900746E0F91207570256AD74EE121741CB
:104BF30074EC1216D18A088B09EA240CF510E435FB
:104C030009F5118A828B83A385820C85830DEA249F
:104C130005F50EE43509F50FEA2409F50AE435092B
:104C2300F50BEA2403FEE43509FF8A828B83A3A3F1
:104C3300E024FA7003024EB224FD7003024DD21435
:104C43007003024CCC14601024FD7003024DB514A4
:104C53007003024E0A024EB81259AA6044E0F5836B
:104C63008882124EC4880C890DE8450D6033851087
:104C730082851183E0F50E780E121958EA240BF59C
:104C830082E43509F583E0F912599E0A0A0AEFFB1B
:104C9300850C82850D8312173F74011216E7024EAD
:104CA300B8850A82850B8312196B90075C1215B3C2
:104CB30012054174021216E7E97003024EB8790136
:104CC300850A82850B83024E82750A00850C8285D4
:104CD3000D83E06003024D82850E82850F83E0A27F
:104CE300E04003024D829007FA1259AD6003024D72
:104CF300827C0E7D007900AA18AB1912118F8510E2
:104D030082851183125678EA4B6010750A06750B7B
:104D130000780A121954EA2410801B125674120ADE
:104D230003EA4B7003024EB8750A06750B00780A46
:104D3300121954EA2405FCE43BFD740212172F12E6
:104D4300117774021216E7850E82850F83E0A2E2C3
:104D53005004D2F08002C2F0A2F0E433F8740C12D3
:104D6300171D12582C12104BE970117A027B009018
:104D73000746E0F91211CB7900024EBA750A1512F3
:104D830059AA7003024EB8124ED97003024EB88569
:104D93000C82850D83E0FC7901124ECA12173FE5A0
:104DA3000A7003024EB8FC790312567412562F028E
:104DB3004EAD1259AA7003024EB8124ED9700302B7
:104DC3004EB8850C82850D83E0FC7902024EAA7CE5
:104DD300007D00EA2404FAE43509FB8E828F83E028
:104DE300F9121015E9F8C3940A4003024EB8E50816
:104DF300240AFCE43509FD7A0475F006E8A42425A9
:104E0300F91212A9024EB812567490075BE06007BC
:104E1300901627E0F9806B901624E07004790580E2
:104E230061120A038A0C8B0DA80CA90DE8497003C3
:104E3300024EB8E82404F50CE439F50D85088285A3
:104E43000983A3A3A3A3A3A3A3E0A2E05039850CE2
:104E530082850D83E0F508602E850A82850B83A386
:104E6300E054027022740E121737E82405FAE4396D
:104E7300FBA908121015E9700E79038E828F831235
:104E8300567812053B802EAC0EAD0F850C82850D36
:104E930083E0F912567412108D1259AA6017124E3C
:104EA300D960127C007900124ECA12173F80061295
:104EB300567412100F790174141216E77F0A021840
:104EC30013E0F8A3E0F9228E828F83E0FAA3E0FBDC
:104ED30088828509832212563DF98909E84509220A
:104EE30074F512174174F21216D1EAFE8C0A75F0AA
:104EF30006E9A42420F508AC18AD197A0EF91212AC
:104F0300AFE970467C0679FFAA18AB191211EFE9D5
:104F13007038740C12171D125678EAF8E50A60050A
:104F2300EEC8488004EEF4C858F8EA687001EB60F4
:104F330015740C12171DE8F0A3E4F0AC18AD197A40
:104F43000EA9081212A9790180027900740E1216B3
:104F5300E77F0302181374F212174174E61216D195
:104F6300890A8A088B09ECFEEDFF740C1217377A55
:104F73000E75F006E9A42420F91212AFE9600302CA
:104F8300503E7C0679FF740C12172F1211EFE96063
:104F93000302503E7470250AF50BAC18AD197A0C58
:104FA300F91212AFE9600302503AAA18AB191210B2
:104FB30045E5084509701D7C0C7900AA18AB191248
:104FC30011EFE970727C0C7D007900AA18AB1912FD
:104FD300118F8051AC18AD19AA08AB0912103F8A82
:104FE3000C8B0DA80CA90DE8497022EE4F604CAC58
:104FF30018AD197A007B0012103FEAF8EBF9EA4B7F
:10500300603988828983E508F0A3E509F01250B777
:10501300FAEE6A7001EF601FEEF04F700888828924
:1050230083E4F0A3F0AA18AB19121045AC18AD191C
:105033007A0CA90B1212A9790180027900741A1251
:1050430016E7024BC474F71217417E00EE75F003A6
:10505300A4F8A9F0EC28F8ED12507BE06A7003A3E2
:10506300E06B7006E8FAE9FB800B0EEEC394044094
:10507300DB7A007B0002539339F988828983227497
:10508300F71217417C00EC75F003A4F8A9F0EA28A5
:10509300F8EB12507BE0F4FEA3E0F4FF88828983EF
:1050A300EEF0A3EFF01250B7F4F00CECC39404400D
:1050B300D5025393E82402F582E439F583E02274A0
:1050C300F412174174F41216D1EAFEEBFF8C088D2B
:1050D300099007FA1259AD704FEE4F700302523B1D
:1050E300EC4509700302523B121057E990162AF05F
:1050F300C3940A4033750B007C0679FFE50B75F00A
:105103000EA4FAABF074622AFA74073BFB1211EF98
:10511300E9600302519C050BE50BC3940A40D97562
:105123000A0AE50A90162AF090162AE0C3940A4068
:105133000302523B75F006E0A4FB9007FA1259AD47
:10514300705CEEFCEFFD7A0E74202BF91212A97C31
:105153000C7D0079FFAA18AB1912118FAC18AD1989
:105163007A0C90162AE02470F91212A9750A0E75AA
:105173000B00780A121954EEFCEFFD90162AE01288
:1051830052F412117774021216E79007FAE508F049
:10519300A3E509F0790002523D850B0A8084E0C83B
:1051A300240612525660197A1B74212BF91212A984
:1051B3001252422406F582E438F583E4F0A380D347
:1051C300125242240A12525660107A1B74222BF98F
:1051D3001212A9125242240A80DB125242240C12E8
:1051E300525660107A1074232BF91212A9125242EC
:1051F300240C80C112524B12525660307A10742420
:105203002BF91212A912524BF582E438F583E024EC
:1052130010FCA3E03400FD7A0475F00690162AE032
:10522300A42425F91212A912524B80899007EEE0AB
:1052330060031210931210877901740C02479C903B
:1052430007FAE0F8A3E0C8229007FAE0F8A3E0C861
:10525300240822F582E438F5831259A4EC4D227414
:10526300F412174174F21216D1EAFEEBFFE9C3946C
:105273000A5004EE4F700479028034AC18AD197AE9
:105283000E75F006E9A42420F91212AFE9F50870AF
:105293001C750A06750B00780A121954740212174A
:1052A30037EEFAEFFB12117774021216E7A90874AE
:1052B3000E02479C74F4121741EAFEEBFF750800D7
:1052C300750A06750B00780A121954EEFCEFFDE51A
:1052D300081252F412118974021216E7E96004A944
:1052E30008800B0508E508C3940A40D4790A0247ED
:1052F3009F75F00EA4F8A9F0746228FA740739FBBD
:105303002274F7121741750800E50875F00EA4F82A
:10531300A9F0746228FE740739FFEEFCEFFD7A0EE4
:1053230075F006E508A42420F91212AFE960297C80
:10533300067D0079FFEEFAEFFB12118F7C067D00EC
:1053430079FFEE2CFAE43FFB12118FEE240CF58269
:10535300E43FF583E4F0A3F00508E508C3940A40AD
:10536300A89007EEE0600312109312108780217457
:10537300F71217417E007F007C06EF1252F479FF8B
:105383001211EFE970010E0FEFC3940A40EAEEF930
:105393007F0102181374F71217417E00EEF9121001
:1053A3006FE9F90EEEC3940A5003E960EF80E174EC
:1053B300F312174174CB1216D1890890162AE065AF
:1053C30008701B7A017B00900746E0F91211D17A2D
:1053D300027B00900746E0F91211D112109F75F07D
:1053E30006E508A4FF74202FFE74271217377A0EE0
:1053F300EEF91212AFE960030254BA7C0679FF7426
:105403002712172F1211EFE960030254BA7C0E7DA5
:105413000079FF742712172F12118F7C1B7D0079DF
:10542300FF740C12172F12118F7C0C7D0079FFAAC9
:1054330018AB1912118F74271217377A0EEEF9125F
:1054430012A9E9FE740C1217377A1B74212FF91273
:1054530012A9E9F509740C1217377A1B74222FF974
:105463001212A9E9F50A740C1217377A1074232F54
:10547300F91212A9E9F50B740C1217377A10742478
:105483002FF91212A9E9F50C740C1217377A047468
:10549300252FF91212A9E9FFAC18AD197A0C747013
:1054A3002508F91212A9E9F8E509450A450B450C47
:1054B3004F48CE4EFE80027E00EEF974351216E799
:1054C3007F0502181374F7121741E9900746F0128B
:1054D300105D02539374F2121741EAFEEBFF5480FE
:1054E3007003025597900746E0F91211B38A088BAF
:1054F30009EA450970030255907A01E5082405F588
:105503000AE43509F50BE5082404F8E43509F988BC
:105513000C890D8508828B83E02450603614600665
:1055230024E16058805D88828983E0705985088210
:105533008B83A3A3A3A3A3A3A312196B12599E85C1
:1055430008828B83A3A312567812102174021216B9
:10555300E7803388828983E0641E700F79008508B1
:10556300828B83A3A312567812101B850C82850DA0
:1055730083E0F9AA0AAB0B120751800AAA0812109A
:105583002DE9FAEA6007AA08AB091211A1EEFAEFB6
:105593006480802AEE54026028EE6402FE7C007D63
:1055A300007A007B0012104BE960047A0180027AD2
:1055B300027B00900746E0F91211CBEEFAEFFB8075
:1055C30068EEA2E050556401F508EFF50912564D57
:1055D300121099E960331259AA6029125645124EE6
:1055E300C4E8FEE9FFEE4F601B7C00790112564DC3
:1055F3008E828F8312173F7C00790312564D125609
:105603002F12173F12109F800C7A017B00900746E0
:10561300E0F91211CBAA08AB09800E54046006EE20
:105623006404FA80047A007B00024BC4900760E0B4
:10563300F8A312563DF583888222125645E0F8A35B
:10564300E022E0F5838882A3A3229007FA12598E01
:10565300E0FAA3E0FB227F02021813C082C083900A
:105663000746E0F98A828B83A31256781207E780F4
:10567300398E828F83E0FAA3E0FB22C082C0837459
:10568300FF1216D1121063E9C3940285188285199B
:1056930083400474028002740AF0AC18AD197A01D5
:1056A300790512064374011216E7D083D0820201F2
:1056B3001F74F012174174E81216D1EAFEEBFF894A
:1056C3000A8C088D097C187D007900AA18AB191281
:1056D300118F851882851983EEF0A3EFF0900748A8
:1056E300E0C0E0740212171DD0E0F0900749E0C05B
:1056F300E0740312171DD0E0F0901629E0C0E074A7
:105703001712171DD0E0F0901628E0A2E0E433FC56
:10571300E0A2E15004D2F08002C2F0A2F0E433F838
:10572300E0A2E45004D2F08002C2F0A2F0E433FA23
:10573300E0A2E55004D2F08002C2F0A2F0E433F517
:105743000E750F00E0A2E65004D2F08002C2F0A270
:10575300F0E433F50C750D00E0A2E25004D2F080C2
:1057630002C2F0741512171DE054FEFEA3E0FFEE13
:105773004CFCEFFDEC54FDFCE828F8EC48F8ED5444
:10578300FEF9EAFBE94BF9E8FAE954FDFB74097801
:105793000E1216BEEB450F54FBFB740A780C12165F
:1057A300BEEAF8EB450DF9E854FBFAA2F0E433F551
:1057B3000C750D007402780C1216BEEA450CF874D1
:1057C3001512171DE8F0A3E9F0900749E0601D7575
:1057D3000C10780C1219547C4A7D07740612171D9D
:1057E300AA82AB8312117774021216E790075AE06C
:1057F3006011E50A6009741512171DE04402F07880
:105803000180027800741412171DE048F0900747D6
:10581300E06004780480027800741412171D125893
:105823002C1205357418024AB2E048F0AC08AD09F1
:10583300AA18AB192274F712174112083B75080016
:10584300E50875F00EA4F8A9F0746228FE74073910
:10585300FF7C0679FFEEFAEFFB1211EFE97009EE18
:10586300FAEFFB79001208410508E508C3940A40E2
:10587300CF02539374F612174174FD1216D1EAFE48
:10588300EBFF9007FC1259AD70397508FE750907D7
:10589300780812195475080275090078081219540A
:1058A30075084B75098178081219547CFF7DFF7ABE
:1058B300017B0012067374061216E79007FCEAF0E8
:1058C300A3EBF09007FC1259AD70030259807508E1
:1058D300FF7808121958E4F508F5097808121954E5
:1058E3007405121727880889097808121954740552
:1058F3001217278808890978081219549007FE128D
:10590300196B79029007FC1259961207D574091284
:1059130016E7E97036851882851983E0FA74011257
:10592300171DE0F8E4C8F9EA28F508E439F509EAAF
:105933004509601778081219549007FC12598EA371
:1059430012599612102174021216E7E4F508F509AC
:1059530078081219549007FE12196B7CFF7DFF9093
:1059630007FC12567812067F74041216E79007FCA0
:10597300EAF0A3EBF09007FC1259AD7004790180B3
:1059830002790074031216E7025659E0F8A312567F
:1059930045A3221259A4EEFAEFFB22850A82850B56
:1059A30083E0FCA3E0FD22900760E0F8A3E0F9E8C0
:1059B3004922C082C0839007FA1259AD6010900744
:1059C300FA1256781211A19007FAE4F0A3F0901698
:1059D3002A740AF00256ADC082C0839061907404A9
:1059E300F0A37448F0A37402F09061807440F090C7
:1059F30061BC7403F09061877419F0906265741B45
:105A0300F0906249E0C3941390619C40107409F0D4
:105A13009060667401F090619F7428800D740BF0A0
:105A2300906066E4F090619F742CF0125BC570097E
:105A3300C291900378746780059003787461F012C3
:105A43005C379025A0E493F46006E493F9120B1DF0
:105A53007905120DE1025C45C082C083E9540FF958
:105A6300906185E0696012E5C654B84441F5C6E526
:105A73009E5447644170F8E9F053C6B8E59E544715
:105A830070FA025C45C082C083A8A853A87E9061C7
:105A930081E41268C6C2BA539AFEC289759B00C2DA
:105AA300C275E90075910075BF0075A91175B90537
:105AB300906181F0A374C0F0A3E4F0D2BA439A01D9
:105AC30074805842A8025C45F0A3F0025C45C08292
:105AD300C08374F81216D1900376126DC670030258
:105AE3005BBD900376E0544060177908AA18AB19A0
:105AF300120C1FAA18AB19120871900376E054BF59
:105B0300F0E054806010790C7A3F7B05120C1F90F3
:105B13000376E0547FF0E0A2E0501E125BC57009EB
:105B2300C291900378746780059003787461F012D2
